:100000008031C5280F3427347E14803100308600BB
:10001000003087004E018C1EC3288C120130420133
:10002000A8070030A93DAA3DAB3D5A085904580421
:100030005704031921280130D7020030D83BD93B9F
:10004000DA3B5E085D045C045B0403192D28013073
:10005000DB020030DC3BDD3BDE3BC03040019C007E
:10006000E0309D0043012B0842012B02031D48286C
:1000700043012A0842012A02031D48284301290896
:1000800042012902031D4828430128084201280291
:10009000031CC3280A304301A8070030A93DAA3D2C
:1000A000AB3D40018F185628013057280030F00032
:1000B0008D1A5C2801305D28003070040038031967
:1000C000722842012708DA002608D9002508D8003E
:1000D0002408D7002308DE002208DD002108DC0008
:1000E0002008DB0040018D1A9128FA3042014002BD
:1000F00003187C280130C0071930400603197C160C
:100100004001160E0139F000FA3042014006031D8D
:100110008B2801308C280030700503199C28FC15B1
:100120009C28033042014002031C9B2819304002E6
:1001300003189B28FC16C00140018F18B8281930FD
:1001400042013F020318A6280130BF0740010F0CEF
:10015000890C0139F000143042013F06031DB2281A
:100160000130B328003070050319C328FC14C328DC
:10017000023042013F02031CC2280A303F0203182A
:10018000C2287C15BF017E1009008031C728953038
:100190008400A1308500573086000130870012307E
:1001A000A1312E2180314301803102208031D200E3
:1001B000803103208031D300FC01203084000130E5
:1001C00085002130A13128218031A0308400013008
:1001D00085002A30A13128217E1040019F31382F1F
:1001E00044304001C1007A30C0000030BF00003010
:1001F000BE0041014A084001C500410149084001D3
:10020000C400410148084001C300410147084001C2
:10021000C2008B312123803141084101CA004001D5
:1002200040084101C90040013F084101C8004001A8
:100230003E084101C70044304001C1007A30C0008F
:100240000030BF000030BE0041014E084001C50033
:1002500041014D084001C40041014C084001C30068
:1002600041014B084001C2008B31212380314108FC
:100270004101CE00400140084101CD0040013F084E
:100280004101CC0040013E084101CB004A08400139
:10029000A300410149084001A20041014808400172
:1002A000A100410147084001A00043012708400187
:1002B000A700430126084001A6004301250840018C
:1002C000A500430124084001A40084313124803179
:1002D00023084101D600400122084101D500400118
:1002E00021084101D400400120084101D3004A08FF
:1002F0004001A300410149084001A2004101480812
:100300004001A100410147084001A000430123082A
:100310004001A700430122084001A6004301210833
:100320004001A500430120084001A400843131248C
:1003300080312308DB002208DA002108D9002008D8
:10034000D80041014A084001A30041014908400189
:10035000A200410148084001A100410147084001B5
:10036000A000410156084001A70041015508400185
:10037000A600410154084001A50041015308400175
:10038000A4008431312480312308DF002208DE00FC
:100390002108DD002008DC0086312D2680315B0835
:1003A0004101CA0040015A084101C90040015908F1
:1003B0004101C800400158084101C7004E084001F2
:1003C000A30041014D084001A20041014C08400139
:1003D000A10041014B084001A00043012708400152
:1003E000A700430126084001A6004301250840015B
:1003F000A500430124084001A40084313124803148
:1004000023084101D600400122084101D5004001E6
:1004100021084101D400400120084101D3004E08C9
:100420004001A30041014D084001A20041014C08D8
:100430004001A10041014B084001A00043012308F5
:100440004001A700430122084001A6004301210802
:100450004001A500430120084001A400843131245B
:1004600080312308DB002208DA002108D9002008A7
:10047000D80041014E084001A30041014D08400150
:10048000A20041014C084001A10041014B0840017C
:10049000A000410156084001A70041015508400154
:1004A000A600410154084001A50041015308400144
:1004B000A4008431312480312308DF002208DE00CB
:1004C0002108DD002008DC0086312D2680315B0804
:1004D0004101CE0040015A084101CD0040015908B8
:1004E0004101CC00400158084101CB004A084001BD
:1004F000A700410149084001A60041014808400108
:10050000A500410147084001A4004130A30020306C
:10051000A2000030A1000030A000843131248031DD
:100520002308DF002208DE002108DD002008DC00AF
:100530003F30DB000030DA000030D9000030D80056
:1005400086312D2680315B08EF005A08EE005908ED
:10055000ED005808EC0098312920803140016D08E9
:100560004201B90040016C084201B8003908803AE4
:10057000FB002F08803A7B02031DC02A2E08380298
:100580000318C62A4201B601B701080041014E080E
:10059000F4004D08F3004C08F2004B08F1004A0843
:1005A000F8004908F7004808F6004708F5009A31B6
:1005B000E5228031031CE22AE7304201B600033015
:1005C000B700080041014A084001C1004101490843
:1005D0004001C000410148084001BF0041014708F7
:1005E0004001BE0041014E084001C50041014D08D7
:1005F0004001C40041014C084001C30041014B08C7
:100600004001C2008B312123803141084101D200D9
:10061000400140084101D10040013F084101D000A4
:1006200040013E084101CF0052084001EF00410166
:1006300051084001EE00410150084001ED00410128
:100640004F084001EC009D31C62580316F08410103
:10065000DA0040016E084101D90040016D084101F6
:10066000D80040016C084101D7003F30A70080301E
:10067000A6000030A5000030A4005A08A3005908C5
:10068000A2005808A1005708A000A33172238031AE
:100690002308AB002208AA002108A9002008A8000E
:1006A0000030AF000030AE000030AD000030AC00D4
:1006B000A531C0258031031C652B3A30DA00833028
:1006C000D9001230D8006F30D7005A08A30059085B
:1006D000A2005808A1005708A0003F30A7008030B2
:1006E000A6000030A5000030A400A33172238031A1
:1006F00023084001C100410122084001C00041011E
:1007000021084001BF00410120084001BE003F30E8
:10071000DB008030DA000030D9000030D800410121
:100720005A084001DF00410159084001DE00410143
:1007300058084001DD00410157084001DC008631C6
:100740002D2680315B08C5005A08C4005908C30033
:100750005808C2008B312123803141084101DA0061
:10076000400140084101D90040013F084101D80043
:1007700040013E084101D7005A08F4005908F3002F
:100780005808F2005708F1003F30F8008030F700B9
:100790000030F6000030F5009A31E5228031031870
:1007A000DA2B3F304101DA008030D9000030D80028
:1007B0000030D7004130F4001F30F300C230F200A7
:1007C0008F30F10041015A08F8005908F700580825
:1007D000F6005708F5009A31E5228031031CDC2A27
:1007E00041015A084001A700410159084001A600F3
:1007F000410158084001A500410157084001A400EB
:100800004230A300C830A2000030A1000030A00098
:100810008431312480312308DF002208DE002108E2
:10082000DD002008DC003F30DB000030DA00003063
:10083000D9000030D80086312D2680315B08EF00CA
:100840005A08EE005908ED005808EC0098312920AC
:1008500040016D084201B70040016C084201B6003A
:10086000080023088039AD002335AF00A21B2F14E8
:100870002F080319482C2F0A031D462C0030A30013
:100880000030A2000030A1000030A000A217502CC0
:100890000030A3000030A2000030A1000030A00012
:1008A00027088039AD062735AE00A61B2E142E086A
:1008B0000319672C2E0A031D652C0030A700003099
:1008C000A6000030A5000030A400A6176F2C003051
:1008D000A7000030A6000030A5000030A4002E08BC
:1008E000031D2F08031D7D2C0030A3000030A20043
:1008F0000030A1000030A00008002008F100260808
:10090000A231582284317208B9007108B800380841
:10091000A800A901AA01AB012B08B3002A08B20064
:100920002908B1002808B0003908A800A901AA01C7
:10093000AB012B08B7002A08B6002908B500280823
:10094000B4002108F1002508A23158228431720830
:10095000B9007108B8003808A800A901AA01AB01C4
:100960002808B0072908B13D2A08B23D2B08B33D3D
:100970003908A800A901AA01AB012808B407290871
:10098000B53D2A08B63D2B08B73D2208F1002408E2
:10099000A231582284317208B9007108B8003808B1
:1009A000A800A901AA01AB012808B0072908B13D98
:1009B0002A08B23D2B08B33D3908A800A901AA01B5
:1009C000AB012808B4072908B53D2A08B63D2B0815
:1009D000B73D0830B035B10DB20DB30D890BEA2C1F
:1009E0002108F1002408A231582284317208B9008C
:1009F0007108B8003808B0073908B13D0030B23D81
:100A0000B33D2008F1002508A23158228431720834
:100A1000B9007108B8003808B0073908B13D003096
:100A2000B23DB33D0830B035B10DB20DB30D890BF9
:100A3000132D2008F1002408A231582284317208B5
:100A4000B9007108B8003808B0073908B13D003066
:100A5000B23DB33D2108F1002608A231582284316D
:100A60007208B9007108B8003808B4073908B53DF4
:100A70000030B63DB73D2208F1002508A2315822CA
:100A800084317208B9007108B8003808B407390811
:100A9000B53D0030B63DB73D2208F1002608A23131
:100AA000582284317208B9007108B8003808A800CB
:100AB0003908A900AA01AB010830A835A90DAA0D73
:100AC000AB0D890B5D2D2808B4072908B53D2A0810
:100AD000B63D2B08B73D3308A800A901AA01AB0118
:100AE0002808B4072908B53D2A08B63D2B08B73DAC
:100AF0000830B035B10DB20DB30D890B792D2F082B
:100B00002E07A800A901A90D2808823EB800FF30D1
:100B1000293DB900B61BA12D0130B435B50DB60D78
:100B2000B70D890B8D2DB31B34140130B035B10DC9
:100B3000B20DB30D890B962DFF30B807FF30B93DCC
:100B40008A2DAE01B31FBA2DFF303005A800FF304B
:100B50003105A900FF303205AA007F303305AB0014
:100B60002B082A042904280403193418B82DBA2D97
:100B70000130AE002E080319E12D0130B40700301A
:100B8000B53DB63DB73D371CE12D3408A80035080A
:100B9000A9003608AA003708AB000130AC00AB371B
:100BA000AA0CA90CA80CAC0BCF2D2B08B7002A0857
:100BB000B6002908B5002808B4000130B807003095
:100BC000B93D3908803AA80080302802031DEA2D7B
:100BD000FF303802031CF62D7F304001B700803013
:100BE000B6000030B5000030B400222E40013908B4
:100BF000803AA80080302802031D002E0130380200
:100C000003180D2E00304001B7000030B600003050
:100C1000B5000030B400AD01222E40013808AF000D
:100C2000FF30B405FF30B5057F30B6050030B7059D
:100C30002F18B6172F08A8000130A836890B1D2ED3
:100C40002808B7002D08B7043708A3003608A2000B
:100C50003508A1003408A00008005B088039E800CE
:100C60005B35EA00DA1B6A146A080319452E6A0A22
:100C7000031D422E0030DB000030DA000030D900C6
:100C80000030D800DA17DB014D2E0030DB000030D9
:100C9000DA000030D9000030D8005F088039E90060
:100CA00069086806031D68175F35E900DE1B6914D3
:100CB00069080319692E690A031D662E0030DF00DA
:100CC0000030DE000030DD000030DC00DE17DF0128
:100CD000712E0030DF000030DE000030DD0000301B
:100CE000DC006A0869020318972E681F792E80308D
:100CF000E8066A08EB006908EA006B08E900580892
:100D0000EB005C08D8006B08DC005908EB005D08BC
:100D1000D9006B08DD005A08EB005E08DA006B08AA
:100D2000DE005B08EB005F08DB006B08DF00EB0117
:100D30006908E000E1016108E3006A086002E2007E
:100D4000031CE3036308803AE40080306402031D5F
:100D5000AB2E1A306202031CDD2E40015B085A04E0
:100D6000590458040319B62E0130B72E0030EB0099
:100D70000030DB000030DA000030D9000030D8004D
:100D80006908EA00E22E6B1CCF2E6B08E0000130F0
:100D9000E036890BC82E60080138EB00D12E031015
:100DA000EB0C5818EB170130E000DB37DA0CD90CEC
:100DB000D80CE00BD52E0130EA07400169086A0221
:100DC000031CC32E681B152F6A08031DF02E00306C
:100DD000DB000030DA000030D9000030D800080015
:100DE0005C08D8075D08D93D5E08DA3D5F08DB3D49
:100DF0005B1C8E2F6B1C062F6B08E0000130E03669
:100E0000890BFF2E60080138EB00082F0310EB0C54
:100E10005818EB170130E000DB37DA0CD90CD80C8E
:100E2000E00B0C2F0130EA078E2F5B08803AE000C0
:100E30005F08803A6002031D272F5E085A02031DD7
:100E4000272F5D085902031D272F5C08580203183D
:100E50005C2FFF30E000FF30E100FF30E200FF30A8
:100E6000E30058085C02E40059085D3BE5005A08BD
:100E70005E3BE6005B085F3BE7006408E00765084F
:100E8000E13D6608E23D6708E33D6308DB00620878
:100E9000DA006108D9006008D8008030E8066B03EA
:100EA000FF3AEB006B08031D642F0130D8070030B8
:100EB000D93DDA3DDB3D642F5C08D8025D08D93BA3
:100EC0005E08DA3B5F08DB3B5B085A0459045804B0
:100ED000031D8C2F6B08031D8C2F0030DB000030AE
:100EE000DA000030D9000030D80008000130D835D1
:100EF000D90DDA0DDB0D890B772FEB1B58146B1C0A
:100F0000852F03146B0DEB00872F0310EB0D6A0880
:100F100003198C2F0130EA02DA1F762FE901EB1F4B
:100F2000992F6B087F3903195818972F992F013083
:100F3000E90069080319C12F0130D8070030D93DF5
:100F4000DA3DDB3D5B1CC12F5808E0005908E10089
:100F50005A08E2005B08E3000130E400E337E20CEA
:100F6000E10CE00CE40BAE2F6308DB006208DA0052
:100F70006108D9006008D8006A0A0319C12F01303E
:100F8000EA076A0A031D6A08031DD12F0030DB003F
:100F90000030DA000030D9000030D8006A080319A8
:100FA000E8016A1CD52FDA17D72F7F30DA056A08D7
:100FB000E0000130E036890BDA2F6008DB00E81F23
:100FC0000800DB1708002030883103208731A0306B
:100FD0000032890BE82F0930A13150218731720886
:100FE000F8007108F7000B30F9000030FA00A13169
:0E0FF000FD2178084201BB007708BA00080016
:10100000A131A7210800F30041019313730860394F
:1010100003191F28731B0E2801300F280230F1001E
:101020000030F20052010C087106FC3971068C0088
:101030008C170C1F1928033041019A0020289A01AF
:101040009401950196019D019C0114309300931722
:101050000800B700A131E42188317830A43116248A
:1010600088314030A431162488312C08A700370875
:10107000A43155248831BA012F083A020318A72851
:101080003A082D0784002E080318013E850012003F
:10109000031D4C28B60156283A082D0784002E0857
:1010A0000318013E85000008E03EB600BB0136088B
:1010B000B000B1013008F7003108F8000530F90040
:1010C0000030FA00A131FD2188310030B2009030AB
:1010D000B30077083207B4007808333DB5003B0809
:1010E0003407840035080318013E85000008B80065
:1010F000023037060319822838080F39A2311B2223
:1011000088318D2838080739A2311B228831B00078
:101110000230B035890B89283008B9003908A4316C
:10112000162488313908A431162488310130BB07D0
:1011300005303B02031C57280030A43116248831A7
:101140000030A431162488310130BA073C282C081D
:10115000A7003708013EA43155248831BA012F0871
:101160003A0203181C293A082D0784002E08031898
:10117000013E85001200031DBF28B601C9283A08A8
:101180002D0784002E080318013E85000008E03E6C
:10119000B600BB013608B000B1013008F7003108D5
:1011A000F8000530F9000030FA00A131FD21883146
:1011B0000030B2009030B30077083207B4007808EE
:1011C000333DB5003B083407840035080318013E61
:1011D00085000008B800023037060319F7283808E0
:1011E000B0000430B036890BF2283008FF283808E8
:1011F000B0000330B036890BFA2830080F39A2311D
:101200001B228831B9003908A431162488313908E5
:10121000A431162488310130BB0705303B02031C82
:10122000CA280030A431162488310030A431162495
:1012300088310130BA07AF28A131A721080010304A
:101240004201C9002730CA001030CB002730CC0043
:1012500098319920893199310B21893197310E27A5
:10126000893142013708803A4101EC0080306C023C
:10127000031D3D29793042013602031C080042015A
:101280003708C8003608C7003E08C1003D08C20044
:1012900003303D0203187A2903303E0203187A29ED
:1012A000BD01BE013D08F4003C08F5003E08943144
:1012B0004A24893199310B2189319831992089311A
:1012C00097310E27893142013708803A4101EC00FD
:1012D00080306C02031D6F29793042013602031CF5
:1012E000080042013708CA003608C9003E08C3009A
:1012F0003D08C40003303D020318A92903303E0213
:101300000318A929BD01BE013D08F4003C08F50001
:101310003E0894314A24893199317D2189319731B0
:101320000E27893142013708803A4101EC008030B4
:101330006C02031D9E29793042013602031C08000D
:1013400042013708CC003608CB003E08C5003D08F6
:10135000C6004A08803A4101EC0042014808803A40
:1013600041016C02031DB729420147084902031CD1
:10137000D02942014C08803A4101EC004201480862
:10138000803A41016C02031DC829420147084B0203
:10139000031CD02942014208BD004108BE000800DC
:1013A00042014808803A4101EC0042014A08803A73
:1013B00041016C02031DDF29420149084702031C59
:1013C000F82942014C08803A4101EC0042014A08E8
:1013D000803A41016C02031DF029420149084B0289
:1013E000031CF82942014408BD004308BE00080060
:1013F00042014808803A4101EC0042014C08803A21
:1014000041016C02031D072A42014B084702031CDD
:10141000080042014A08803A4101EC0042014C08B0
:10142000803A41016C02031D182A42014B0849020F
:10143000031C080042014608BD004508BE00080024
:10144000A131E4218A317830A43116248A31403028
:10145000A43116248A310A30A2000030A3002D08DE
:10146000A5002C08A400A53125258A312308AD004C
:101470002208AC002D08803AAE0081302E02031DF8
:10148000432A2C302C020318472A2C30542A4001BE
:101490002D08803AAE0081302E02031D512AA5305E
:1014A0002C02031C582AA4304001AC000130AD00CE
:1014B00040012C08D43EAC00FE302D3DAD002D087F
:1014C000AF002C08AE000530AE35AF0D890B642A95
:1014D0002E08AC002F08AD007830A2000030A30029
:1014E0002D08A5002C08A400A53125258A31220845
:1014F000B40019303402031C862A3408E83EB000D8
:101500000830B1000830B20008309B2A1130340294
:10151000031C8E2AB0013408F03E812A09303402BF
:10152000031C972AB001B1013408F83E832AB001A8
:10153000B101B2013408B3003008A131CD218A31A4
:101540004001B60036080338B6007730A7000030F7
:10155000A43155248A313608A43116248A3136083C
:10156000A43116248A313608A43116248A3136086B
:101570001F38B6007530A7000030A43155248A31D9
:101580003608A43116248A313608A43116248A314B
:101590007A30A7000030A43155248A313608A431AE
:1015A00016248A313608A43116248A313108A13133
:1015B000CD218A314001B6007530A7000130A43139
:1015C00055248A31B5013608A43116248A310130F8
:1015D000B50707303502031CE32A3208A131CD21BB
:1015E0008A314001B6007530A7000230A43155247D
:1015F0008A31B5013608A43116248A310130B50785
:1016000007303502031CFA2A3308A131CD218A3173
:101610004001B6003608C038B6007530A700033068
:10162000A43155248A31B5013608A43116248A31F3
:101630000130B50707303502031C142BA131A72157
:10164000080045088039CF004535D600C41B561424
:1016500056080319392B560A031D362B0030C500D6
:101660000030C4000030C3000030C200C417C50100
:10167000412B0030C5000030C4000030C3000030F2
:10168000C20041088039CF064135D700C01B57142E
:1016900057080319592B570A031D562B0030C10058
:1016A0000030C0000030BF000030BE00C017C101D4
:1016B000612B0030C1000030C0000030BF0000309E
:1016C000BE00410840043F043E04031D7E2B003051
:1016D000C5000030C4000030C3000030C2008030BC
:1016E000C4047F30C5044F08C5044508C100440840
:1016F000C0004308BF004208BE0008005608031D92
:101700008A2B0030C1000030C0000030BF00003024
:10171000BE0008005608C600C7014708C9005708A0
:101720004602C800031CC90348087F3ED0000030B1
:10173000493DD1004508CE004408CD004308CC0007
:101740004208CB000030C5000030C4000030C300A8
:101750000030C2000030D5000030D4000030D3008B
:101760000030D200D7011A3057020318ED2B57086A
:101770000319D12B0130CB35CC0DCD0DCE0D890BFE
:10178000BB2B0130C235C30DC40DC50D890BC22B57
:10179000D51B42140130D235D30DD40DD50D890B94
:1017A000CB2B41084E02031DDF2B40084D02031DC9
:1017B000DF2B3F084C02031DDF2B3E084B02031CAE
:1017C000EA2B55173E08CB023F08CC3B4008CD3BE7
:1017D0004108CE3B0130D707B32B4E084D044C04D3
:1017E0004B04031D5214C41B0A2C0130C235C30D17
:1017F000C40DC50D890BF62BD51B42140130D23513
:10180000D30DD40DD50D890BFF2BFF30D007FF3042
:10181000D13DF32BD701D51F232CFF305205C60035
:10182000FF305305C700FF305405C8007F30550511
:10183000C900490848044704460403194218212CEA
:10184000232C0130D700570803194A2C0130C20756
:101850000030C33DC43DC53D451C4A2C4208C6006E
:101860004308C7004408C8004508C9000130CA0041
:10187000C937C80CC70CC60CCA0B382C4908C500A0
:101880004808C4004708C3004608C2000130D0071A
:101890000030D13D5108803AC60080304602031D19
:1018A000532CFF305002031C622CFF304001D0004B
:1018B0000030D1000030C5000030C4000030C3004B
:1018C0000030C20040015108803AC6008030460214
:1018D000031D6C2C0130500203187A2C4001D001FA
:1018E000D1010030C5000030C4000030C30000301A
:1018F000C200CF0140015008D600561C812CC417ED
:10190000832C7F30C4055608C6000130C636890BCB
:10191000862C4608C500732B4101AA012A08A03E67
:10192000860087012A08583E8400A8300318013E2B
:101930008500000881000130AA070A302A02031C32
:101940008E2C2008A13172218C314001EC00ED0178
:10195000EE01EF016F084201A70040016E0842014D
:10196000A60040016D084201A50040016C0842013B
:10197000A4000030F4000030F300EA30F2006030E0
:10198000F1002708F8002608F7002508F6002408CB
:10199000F500A33140238C3174084201A70073087D
:1019A000A6007208A5007108A40041012108A13118
:1019B00072218C314001EC00ED01EE01EF016F0866
:1019C0004201A30040016E084201A20040016D08DF
:1019D0004201A10040016C084201A0000030F40067
:1019E0000030F300EA30F2006030F1002308F80024
:1019F0002208F7002108F6002008F500A331402353
:101A00008C3174084201A3007308A2007208A1007F
:101A10007108A00041012208A13172218C314001DE
:101A2000EC00ED016C084201B00040016D0842017C
:101A3000B10041012308A13172218C314001EC0039
:101A4000ED016C084201AE0040016D084201AF009B
:101A500041012408A13172218C314001EC00ED01DB
:101A60006C08F7006D08F8000A30F9000030FA0041
:101A7000A131FD218C3178084201AD007708AC001E
:101A800041012508A13172218C314001EC00ED01AA
:101A90006C08F7006D08F8000A30F9000030FA0011
:101AA000A131FD218C3178084301B7007708B600D9
:101AB00041012608A13172218C31003A0319622DAF
:101AC0007C14632D7C1041304001C1002030C000E7
:101AD0000030BF000030BE0041012708A131722153
:101AE0008C314001EC00ED01EE01EF016F08B30015
:101AF0006E08B2006D08B1006C08B00001309B3177
:101B0000E6238C313308C5003208C4003108C30015
:101B10003008C2008B3121238C3141084301A300DE
:101B2000400140084301A20040013F084301A100D9
:101B300040013E084301A0003F304001DB008030FF
:101B4000DA000030D9000030D8004230C100C8307F
:101B5000C0000030BF000030BE0041012808A131A4
:101B600072218C314001EC00ED01EE01EF016F08B4
:101B7000B3006E08B2006D08B1006C08B00001300F
:101B80009B31E6238C313308C5003208C40031088C
:101B9000C3003008C2008B3121238C314108DF00A3
:101BA0004008DE003F08DD003E08DC0086312D26BF
:101BB0008C315B084301A70040015A084301A6008D
:101BC000400159084301A500400158084301A40001
:101BD00006304001A2000030A30041012908A131D4
:101BE00072218C314001EC00ED016C08F7006D08AA
:101BF000F8000A30F9000030FA00A131FD218C31E3
:101C00007808A5007708A400A531252523084301FD
:101C1000B500400122084301B40042013108B3007D
:101C20003008B200080036089C3ECA00FF30373D3D
:101C3000CB0003304201D3000830D2007730890B4B
:101C40001F2ED20B1F2ED30B1F2E4301CE01CF010F
:101C5000D001D101CC01CD014D08803A4201D20022
:101C600043013508803A42015202031D3A2E4301D6
:101C700034084C0203186D2EA7319A278E31430188
:101C80004F08803A4201D2003908803A5202031DBF
:101C90004C2E380843014E0203185E2E42013908CB
:101CA0004301CF00420138084301CE00420137080A
:101CB0004301D100420136084301D0000B304201FC
:101CC000D2006230890B622ED20B622E00000130EE
:101CD0004301CC070030CD3D2C2E43014F08803A04
:101CE0004201D20080305202031D792E013043019F
:101CF0004E02031C932E4001161E902E420127080F
:101D0000DA002608D9002508D8002408D7002308BF
:101D1000DE002208DD002108DC002008DB00932E15
:101D20009D3114258E31430153084F06031D9A2E11
:101D300052084E060319C12EFC1FA52E2A30400161
:101D4000AC003530AD00A930AB2E2A304001AC00DC
:101D50003330AD00A930AE00AF01AF0A003088319A
:101D600029208E3143014F08D3004E08D2004F087E
:101D70004001BD0043014E084001BC00A6311A26B7
:101D80008E3143015108803A4201D2008030520224
:101D9000031DCD2E643043015002031C072F420166
:101DA000350843015106031DD92E42013408430171
:101DB00050060319072F51084201B500430150088E
:101DC0004201B40043014F08803A4201D2002F087B
:101DD000803A5202031DEF2E2E0843014E020318D3
:101DE000FC2E420135084001BD004201340840018B
:101DF000BC00A231DF220800420135084001BD00CD
:101E0000420134084001BC00A231DF228E31FC1FA8
:101E10007D2F03304301CC000030CD00063040015F
:101E2000AC000730AD00A930AE000930AF00023081
:101E3000883129208E3115304201D3004B30D20039
:101E4000BE30890B212FD20B212FD30B212F000065
:101E50004001AC01DF30AD00A830AE000930AF006A
:101E60000230883129208E3115304201D3004B30A9
:101E7000D200BE30890B3A2FD20B3A2FD30B3A2F18
:101E80000000FF304301CC07FF30CD3D4C084D042E
:101E9000031D0E2F4001AC01E930AD00A830AE00AB
:101EA0000930AF000230883129208E312A304001BC
:101EB000AC003330AD00A930AE00AF01AF0A023044
:101EC000883129208E31430151084001BD00430172
:101ED00050084001BC00A231DF228E311530420192
:101EE000D3004B30D200BE30890B742FD20B742F2D
:101EF000D30B742F0000FC1308007C1C0800430166
:101F00004F08803A4201D2002F08803A5202031D46
:101F10008C2F2E0843014E02031C080043014F087A
:101F2000803A4201D2002D08803A5202031D9B2FB5
:101F30002C0843014E020318080043015108803A5F
:101F40004201D20080305202031DA92F7930430193
:101F50005002031C080042015F0843015002420185
:101F6000D20060084301513B4201D30043014B08BA
:101F7000803A4201D4005308803A5402031DC32F13
:101F8000520843014A02031CFD2F4301500842013D
:101F90005F02D200430151084201603BD30043017C
:101FA0004B08803A4201D4005308803A5402031D82
:101FB000DC2F520843014A02031CFD2FE730420187
:101FC000D2000330D30043014A0842015202D40038
:101FD00043014B084201533BD5005508803AD600D7
:101FE00043015108803A42015602031DFB2F430171
:101FF00050084201540203180800A7313527080091
:1020000000340034003400340034003400345F34D1
:1020100000340034003407340034073400341434FE
:102020007F3414347F34143424342A347F342A34F3
:10203000123423341334083464346234363449346B
:102040005534223450340034053403340034003421
:1020500000341C34223441340034003441342234FE
:102060001C34003408342A341C342A34083408342C
:1020700008343E34083408340034503430340034EA
:102080000034083408340834083408340034303458
:102090003034003400342034103408340434023432
:1020A0003E345134493445343E34003442347F3474
:1020B000403400344234613451344934463421349C
:1020C000413445344B3431341834143412347F34B1
:1020D0001034273445344534453439343C344A349B
:1020E000493449343034013471340934053403340B
:1020F0003634493449344934363406344934493461
:1021000029341E340034363436340034003400347C
:102110005634363400340034003408341434223455
:102120004134143414341434143414344134223407
:102130001434083400340234013451340934063480
:1021400032344934793441343E347E3411341134DC
:1021500011347E347F3449344934493436343E3482
:1021600041344134413422347F34413441342234C7
:102170001C347F3449344934493441347F34093480
:102180000934013401343E34413441345134323461
:102190007F340834083408347F34003441347F34C9
:1021A000413400342034403441343F3401347F34EE
:1021B00008341434223441347F34403440344034C1
:1021C00040347F340234043402347F347F340434A6
:1021D000083410347F343E344134413441343E3489
:1021E0007F3409340934093406343E3441345134DF
:1021F00021345E347F34093419342934463446346A
:102200004934493449343134013401347F340134A0
:1022100001343F344034403440343F341F342034A0
:10222000403420341F347F342034183420347F3439
:102230006334143408341434633403340434783489
:102240000434033461345134493445344334003464
:1022500000347F34413441340234043408341034BF
:102260002034413441347F340034003404340234A7
:102270000134023404344034403440344034403477
:1022800000340134023404340034203454345434DF
:10229000543478347F344834443444343834383413
:1022A000443444344434203438344434443448349A
:1022B0007F343834543454345434183408347E342D
:1022C00009340134023408341434543454343C3462
:1022D0007F340834043404347834003444347D3496
:1022E000403400342034403444343D34003400342D
:1022F0007F34103428344434003441347F34403443
:1023000000347C3404341834043478347C34083495
:102310000434043478343834443444344434383461
:102320007C3414341434143408340834143414341D
:1023300018347C347C34083404340434083448348D
:10234000543454345434203404343F34443440340A
:1023500020343C344034403420347C341C34203429
:10236000403420341C343C344034303440343C3429
:10237000443428341034283444340C345034503429
:1023800050343C344434643454344C344434003495
:102390000834363441340034003400347F3400349F
:1023A00000340034413436340834003408340834FE
:1023B0002A341C34083408341C342A3408340834D1
:1023C00000340034003400340034003400345F340E
:1023D000003400340034073400340734003414343B
:1023E0007F3414347F34143424342A347F342A3430
:1023F00012342334133408346434623436344934A8
:10240000553422345034003405340334003400345D
:1024100000341C342234413400340034413422343A
:102420001C34003408342A341C342A340834083468
:1024300008343E3408340834003450343034003426
:102440000034083408340834083408340034303494
:10245000303400340034203410340834043402346E
:102460003E345134493445343E34003442347F34B0
:1024700040340034423461345134493446342134D8
:10248000413445344B3431341834143412347F34ED
:102490001034273445344534453439343C344A34D7
:1024A0004934493430340134713409340534033447
:1024B000363449344934493436340634493449349D
:1024C00029341E34003436343634003400340034B9
:1024D0005634363400340034003408341434223492
:1024E0004134143414341434143414344134223444
:1024F00014340834003402340134513409340634BD
:1025000032344934793441343E347E341134113418
:1025100011347E347F3449344934493436343E34BE
:1025200041344134413422347F3441344134223403
:102530001C347F3449344934493441347F340934BC
:102540000934013401343E3441344134513432349D
:102550007F340834083408347F34003441347F3405
:10256000413400342034403441343F3401347F342A
:1025700008341434223441347F34403440344034FD
:1025800040347F340234043402347F347F340434E2
:10259000083410347F343E344134413441343E34C5
:1025A0007F3409340934093406343E34413451341B
:1025B00021345E347F3409341934293446344634A6
:1025C0004934493449343134013401347F340134DD
:1025D00001343F344034403440343F341F342034DD
:1025E000403420341F347F342034183420347F3476
:1025F00063341434083414346334033404347834C6
:1026000004340334613451344934453443340034A0
:1026100000347F34413441340234043408341034FB
:102620002034413441347F340034003404340234E3
:1026300001340234043440344034403440344034B3
:10264000003401340234043400342034543454341B
:10265000543478347F34483444344434383438344F
:1026600044344434443420343834443444344834D6
:102670007F343834543454345434183408347E3469
:1026800009340134023408341434543454343C349E
:102690007F340834043404347834003444347D34D2
:1026A000403400342034403444343D340034003469
:1026B0007F34103428344434003441347F3440347F
:1026C00000347C3404341834043478347C340834D2
:1026D000043404347834383444344434443438349E
:1026E0007C3414341434143408340834143414345A
:1026F00018347C347C3408340434043408344834CA
:10270000543454345434203404343F344434403446
:1027100020343C344034403420347C341C34203465
:10272000403420341C343C344034303440343C3465
:10273000443428341034283444340C345034503465
:1027400050343C344434643454344C3444340034D1
:102750000834363441340034003400347F340034DB
:10276000003400344134363408340034083408343A
:102770002A341C34083408341C342A34083408340D
:102782001030883103200800203088310320933133
:10279200A0300032890BCA2B0A30A131502193316B
:1027A20072084001AB007108AA002A0A033003191B
:1027B2002B06031DED2B4030883103209331A030CE
:1027C2000032890BE12B0A30A1315021933171354E
:1027D2004001AA00720DAB00FE302A060730031931
:1027E2002B06031D452C1030883103209331A03075
:1027F2000032890BF92B0A30A13150219331720832
:102802004001AB007108AA002A0A033003192B0603
:102812000319FC178731E327933140012A08F1009D
:102822002B08F200F301F40142013A08F5003B08DB
:10283200F600890D893B8909F700F800A33140238E
:1028420093317408AF007308AE007208AD007108CE
:10285200AC002C08A6002D08A7002E08A8002F08FF
:10286200A9000A30A936A80CA70CA60C890B332C98
:102872002908AF002808AE002708AD002608AC00E2
:102882002D08AB002C08AA002B08A5002A08A400DA
:102892000800F7007718502C40019917522C40017C
:1028A20099137708F6000130F636890B552C761805
:1028B2005D2C400119175F2C400119137708F600AF
:1028C2000230F636890B622C76186A2C4001991672
:1028D2006C2C400199127708F6000330F636890B0A
:1028E2006F2C7618772C40011916792C4001191299
:1028F2007708F6000430F636890B7C2C7618842C87
:1029020040019817862C400198137708F60005308D
:10291200F636890B892C7618912C40011817932CC6
:10292200400118137708F6000630F636890B962C0C
:1029320076189E2C40019816A02C4001981274180B
:10294200A52C40019616A72C400196127408F60099
:102952000130F636890BAA2C7618B22C40019A1453
:10296200B42C40019A107408F6000230F636890B36
:10297200B72C7618BF2C40019617C12C4001961334
:102982007408F6000330F636890BC42C7618CC2C6A
:1029920040011617CE2C400116137408F6000430BD
:1029A200F636890BD12C7618D92C40011814DB2C61
:1029B200400118107408F6000530F636890BDE2C3B
:1029C2007618E62C40019814E82C400198107408FF
:1029D200F6000630F636890BEB2C7618F32C400104
:1029E2001815F52C40011811750C031C1A10031848
:1029F2001A14991542013308F2003208F100A1318C
:102A020083219431400199111A30890B062D00322D
:102A12004001181242013308F2003208F100A131DC
:102A2200832194314001181642013308F200320822
:102A3200F100A131832194314001991319139912A4
:102A4200191298131813981296129A1096131613B5
:102A52001810981018111A101530F600C630890B8C
:102A6200302DF60B302D0032080042013D084101A5
:102A7200EB000A30F10042013D08A2317722953184
:102A82004101EE006E08031D482D0130EE00973122
:102A92000E279531420137084101ED004201360807
:102AA2004101EC006E084201BD073D08F4003C08FC
:102AB200F5003E0894314A24953197310E2795311D
:102AC20041016D08803AE80042013708803A41012D
:102AD2006802031D702D4201360841016C02031C7D
:102AE200CE2D420137084101ED0042013608410175
:102AF200EC0042013D084101EB006E084201BD07B6
:102B020000304101E9006E087F3CE800031CE90344
:102B12006908803AEA0080306A02031D942D42015E
:102B22003D0841016802031C162E42013D08F400D3
:102B32003C08F5003E0894314A24953197310E271E
:102B4200953141016D08803AE80042013708803A28
:102B520041016802031DB12D4201360841016C0298
:102B6200031C162E42013D084101EB0042013708C9
:102B72004101ED00420136084101EC000A30F1004A
:102B820042013D08A231772295314101EE006E08E3
:102B9200031D7E2D0130EE007E2D420137084101DA
:102BA200ED00420136084101EC00F12D42013D08E1
:102BB2004101EB00420137084101ED0042013608B4
:102BC2004101EC000A30F10042013D08A2317722B6
:102BD20095314101EE006E08031DF12D0130EE002A
:102BE2006E084201BD0241016E0842013D02031C12
:102BF200162E3D08F4003C08F5003E0894314A24A4
:102C0200953197310E27953141016D08803AE800E0
:102C120042013708803A41016802031D142E420125
:102C2200360841016C020318D72D41016B0842019D
:102C3200BD003D08F4003C08F5003E0894314A24EA
:102C4200080042013E084101EB000A30F100420156
:102C52003E08A231772296314101EE006E08031D33
:102C6200342E0130EE0097310E279631420137089B
:102C72004101ED00420136084101EC006E084201BB
:102C8200BE073D08F4003C08F5003E0894314A2492
:102C9200963197310E27963141016D08803AE8004E
:102CA20042013708803A41016802031D5C2E42014D
:102CB200360841016C02031CBA2E42013708410159
:102CC200ED00420136084101EC0042013E0841019B
:102CD200EB006E084201BE0700304101E9006E08B8
:102CE2007F3CE800031CE9036908803AEA0080306F
:102CF2006A02031D802E42013E0841016802031C44
:102D0200022F42013D08F4003C08F5003E089431D0
:102D12004A24963197310E27963141016D08803A47
:102D2200E80042013708803A41016802031D9D2EE6
:102D32004201360841016C02031C022F42013E0887
:102D42004101EB00420137084101ED004201360822
:102D52004101EC000A30F10042013E08A231772223
:102D620096314101EE006E08031D6A2E0130EE001D
:102D72006A2E420137084101ED0042013608410145
:102D8200EC00DD2E42013E084101EB004201370812
:102D92004101ED00420136084101EC000A30F10028
:102DA20042013E08A231772296314101EE006E08BF
:102DB200031DDD2E0130EE006E084201BE0241010C
:102DC2006E0842013E02031C022F3D08F4003C083B
:102DD200F5003E0894314A24963197310E279631F8
:102DE20041016D08803AE80042013708803A41010A
:102DF2006802031D002F4201360841016C020318CC
:102E0200C32E41016B084201BE003D08F4003C089C
:102E1200F5003E0894314A24080096304101E10051
:102E22000030E2002C30DF000130E0004201B80146
:102E3200B901B601B7014101E601E70142013908D2
:102E4200803A4101DC0042012F08803A41015C02D4
:102E5200031D2E2F42012E0838020318EE2FFC1EEE
:102E6200382F9A316B224201B601B7010800FC19D2
:102E7200342FE8304101E3000330E4000530E5007F
:102E8200A7319A2797314101640842013702031D95
:102E92004E2F41016308420136020318692F370899
:102EA2004101E400420136084101E30042013908D0
:102EB2004101DE00420138084101DD0006304101D6
:102EC200DC003030890B632FDC0B632F00007A2F7C
:102ED200410164084201B700410163084201B600A2
:102EE20041015E084201B90041015D084201B8009A
:102EF200802F01304101E5026508031D412F420187
:102F02002F08803A4101DC0042013908803A410130
:102F12005C02031D8F2F420138082E020318A22FD4
:102F220042013908803A4101DC0042012D08803A11
:102F320041015C02031DA02F42012C083802031C30
:102F420008004101610862040319C02F0130E10247
:102F52000030E23B4201390841016702031DB52FEF
:102F6200420138084101660203181F2F4201390845
:102F72004101E700420138084101E6001F2F6708BE
:102F820043015306031DC92F41016608430152063E
:102F92000319D62F410167084001BD0041016608AF
:102FA2004001BC00A6311A2697314101670843014E
:102FB200D300410166084301D2004101E601E70165
:102FC2003230E1000030E2005F0860040319342F60
:102FD2000130DF020030E03B1F2F42012D08803A12
:102FE2004101DC0042013908803A41015C02031DC3
:0E2FF200FD2F420138082C0203180800302F72
:10300800A131E42198317830A43116249831403028
:10301800A43116249831AD01A7012D08A4315524F7
:103028009831AC010130AC070030A4311624983136
:1030380080302C02031C16280130AD0708302D0201
:10304800031C1028A131A721080003106E0D6F0D75
:103058004101A5002508031D3B2800304001EF0071
:103068000030EE000030ED000030EC0008004001B8
:103078006C084101A00040016D084101A100400118
:103088006E084101A20040016F084101A3001F30F2
:10309800A336A20CA10CA00C890B4C282008A40074
:1030A8004001EE17FF30EC05FF30ED05FF30EE056F
:1030B8000030EF0596304101A502A51F76282508A6
:1030C800803A973E031C312801304001EF36EE0C60
:1030D800ED0CEC0C890B692801304101A507031997
:1030E8008928682820302502031831282508031963
:1030F800892801304001EC35ED0DEE0DEF0D890BFF
:103108007E2801304101A5027A2824080319080005
:103118004001EC09ED09EE09EF09EC0A0319ED0A83
:103128000319EE0A0319EF0A08004101EB01973170
:103138000E2798310A304001A2000030A300420156
:1031480037084001A500420136084001A400A53116
:103158002525983123084101EA0040012208410150
:10316800E90001304201BD00C82842013D08410183
:10317800EB00420137084101EA00420136084101EB
:10318800E90003104201BD0D40303D020318FF283D
:103198003D08F4003C08F5003E0894314A24983173
:1031A80097310E2798310A304001A2000030A30061
:1031B800420137084001A500420136084001A40039
:1031C800A5312525983123084201B700400122087E
:1031D8004201B60041016A08803AE8004201370816
:1031E800803A41016802031DFD2842013608410169
:1031F80069020318B92841016B084201BD003D0866
:10320800F4003C08F5003E0894314A2408004101C6
:10321800EB0197310E2799310A304001A2000030A6
:10322800A300420137084001A500420136084001C9
:10323800A400A5312525993123084101EA00400160
:1032480022084101E90001304201BE003A29420149
:103258003E084101EB00420137084101EA00420102
:1032680036084101E90003104201BE0D40303E021C
:10327800031871293D08F4003C08F5003E08943114
:103288004A24993197310E2799310A304001A2001A
:103298000030A300420137084001A500420136086A
:1032A8004001A400A5312525993123084201B70022
:1032B800400122084201B60041016A08803AE8004C
:1032C80042013708803A41016802031D6F29420113
:1032D80036084101690203182B2941016B08420194
:1032E800BE003D08F4003C08F5003E0894314A242D
:1032F80008004101EB0197310E2799310A3040014E
:10330800A2000030A300420137084001A500420195
:1033180036084001A400A53125259931230841012B
:10332800EA00400122084101E90001304201BE00E3
:10333800AC2942013E084101EB0042013708410136
:10334800EA00420136084101E90003104201BE0DBE
:1033580040303E020318E3293E08F4003C08F5001B
:103368003E0894314A24993197310E2799310A3011
:103378004001A2000030A300420137084001A50027
:10338800420136084001A400A531252599312308BA
:103398004201B700400122084201B60041016A0813
:1033A800803AE80042013708803A41016802031D6B
:1033B800E129420136084101690203189D294101AA
:1033C8006B084201BE0041016B084201BD003D0887
:1033D800F4003C08F5003E0894314A24080097316F
:1033E8000E27993142013708803ACD0080304D02CE
:1033F800031D002A79303602031C0800A331A523D7
:10340800993197310E27993142013708803ACD001A
:1034180080304D02031D122A79303602031C080041
:1034280042013708CF003608CE003D08D0003E08DC
:10343800D1003C03031D222ABC01242A0130BC0010
:10344800A331A523993197310E27993142014F08AD
:10345800803ACD003708803A4D02031D352A3608D8
:103468004E0203184E2A42013C03031D3D2ABC01AB
:103478003F2A0130BC005008BD005108BE003D087D
:10348800F4003C08F5003E0894314A2499319731FC
:103498000E27993142013708803ACD0080304D021D
:1034A800031D582A79303602031C0800A131612116
:1034B800993197310E279931E730420136060330AA
:1034C80003193706031D0800A13134210800400103
:1034D8009711A13134219A314001AC01FD30AD0082
:1034E800A830AE000930AF000230883129209A3167
:1034F80019304001BD005A30BC00B130890B822A16
:10350800BC0B822ABD0B822A00324001AC011B3061
:10351800AD00A930AE000530AF0002308831292057
:103528009A312A304001AC003330AD00A930AE00EA
:10353800AF01AF0A0230883129209A313C3040016E
:10354800AC002630AD00A930AE000430AF00023028
:10355800883129209A314201DF01E0010D30400114
:10356800BD002D30BC00D730890BB82ABC0BB82A57
:10357800BD0BB82A003240019715FC127C1142019C
:10358800C0012B084301B30042012A084301B200DD
:10359800420129084301B100420128084301B00053
:1035A80042012B084301AF0042012A084301AE0043
:1035B800420129084301AD00420128084301AC003B
:1035C8000800003071054001A00000307205A1001C
:1035D80080307305A2007F307405A30023082204FD
:1035E80021042004031D002B0030F4000030F300F8
:1035F8000030F2000030F10000307505A000003006
:103608007605A10080307705A2007F307805A300F9
:103618002308220421042004031D1A2B0030F8007B
:103628000030F7000030F6000030F500F41F342BAE
:103638000030A0000030A1000030A2008030A300BC
:103648007108A0027208A13B7308A23B7408A33B4F
:103658002308F4002208F3002108F2002008F100F2
:10366800F81F4E2B0030A0000030A1000030A2004F
:103678008030A3007508A0027608A13B7708A23B1A
:103688007808A33B2308F8002208F7002108F60071
:103698002008F5008030F4068030F80678087402B7
:1036A800031D080077087302031D080076087202DC
:1036B800031D0800750871020800203088310320B6
:1036C8009B31A0300032890B662B0830A131502184
:1036D8009B3172084001AB007108AA002A0A033026
:1036E80003192B06031D892B4030883103209B3199
:1036F800A0300032890B7D2B0830A13150219B313D
:1037080071354001AA00720DAB00FE302A06073061
:1037180003192B06031DE12B1030883103209B3140
:10372800A0300032890B952B0830A13150219B31F4
:1037380072084001AB007108AA002A0A0330031975
:103748002B060319FC178731E3279B3140012A0810
:10375800F1002B08F200F301F40142013A08F500E8
:103768003B08F600890D893B8909F700F800A33169
:1037780040239B317408AF007308AE007208AD0097
:103788007108AC002C08A6002D08A7002E08A80078
:103798002F08A9000A30A936A80CA70CA60C890B7B
:1037A800CF2B2908AF002808AE002708AD0026084F
:1037B800AC002D08AB002C08AA002B08A5002A088D
:1037C800A4000800B8003808031DB31FFB2B3009FC
:1037D800BA003109BB003209BC003309BD00BA0A7E
:1037E8000319BB0A0319BC0A0319BD0A032C3308C1
:1037F800BD003208BC003108BB003008BA003308ED
:10380800320431043004031D122C0030B3000030A0
:10381800B2000030B1000030B00008009630B900A6
:10382800FE303D050319312C0130B9070130BD3692
:10383800BC0CBB0CBA0C890B1B2C142C0130B9071F
:103848000130BA070030BB3DBC3DBD3D0130BD363F
:10385800BC0CBB0CBA0C890B2B2CFF303D05031993
:10386800432C222C02303902031C452C0130B902AA
:103878000130BA35BB0DBC0DBD0D890B3D2CBC1FED
:10388800362C39184F2CFF30BA05FF30BB057F3076
:10389800BC05FF30BD050310B90C3908B400B501EB
:1038A800B601B7011830B435B50DB60DB70D890B93
:1038B800572C3408BA043508BB043608BC0437084A
:1038C800BD043808031DB31F6A2CBD173D08B3009B
:1038D8003C08B2003B08B1003A08B00008004001BB
:1038E800B001A131E4219C317830A43116249C31F7
:1038F800003A0319962CA131A7219C310D304001C3
:10390800AF002D30AE00D730890B882CAE0B882C39
:10391800AF0B882C003201304001B0070A3030026A
:10392800031C752C0030A43116249C31AE30A43110
:1039380016249C31D530A43116249C318030A43112
:1039480016249C31A830A43116249C313F30A43170
:1039580016249C31D330A43116249C314030A43134
:1039680016249C314030A43116249C318D30A4316A
:1039780016249C311430A43116249C318130A43192
:1039880016249C31FF30A43116249C31D930A4313F
:1039980016249C31F130A43116249C312030A431F6
:1039A80016249C310230A43116249C312130A431D4
:1039B80016249C310030A43116249C317F30A43168
:1039C80016249C312E30A43116249C31A030A43109
:1039D80016249C31C030A43116249C31DA30A4312D
:1039E80016249C310230A43116249C31DB30A431DA
:1039F80016249C314030A43116249C31A430A431C3
:103A080016249C31A630A43116249C31A131A7215B
:103A18009C31983104209C31AF30A131BA21080083
:103A2800161609304001BF001E30BE00E430890B75
:103A38001B2DBE0B1B2DBF0B1B2D0000883100203A
:103A48009D3168304001BE00E430890B292DBE0B42
:103A5800292D00009C3173249D317C1F3A2DA33100
:103A6800D8239D317C13983104209D314001AC014D
:103A78001130AD00A930AE000930AF0000308831F8
:103A880029209D31A43196249D314001AC01E930B3
:103A9800AD00A830AE000930AF00023088312920CF
:103AA8009D312A304001AC003330AD00A930AE0062
:103AB800AF01AF0A0030883129209D312A304001FA
:103AC800AC003330AD00A930AE00AF01AF0A023010
:103AD800883129209D310F304301B8002730B900C3
:103AE80064304201DF000030E0000F304301D200B3
:103AF8002730D3004201B401B50135084001BD00AB
:103B0800420134084001BC00A231DF229D3101305E
:103B1800420128074301B00000304201293D43011A
:103B2800B100003042012A3D4301B2000030420199
:103B38002B3D4301B30042012B084301AF00420172
:103B48002A084301AE00420129084301AD004201A1
:103B580028084301AC00FC127C12FC117C11FC10FB
:103B680042012708DA002608D9002508D8002408C9
:103B7800D7002308DE002208DD002108DC00200829
:103B8800DB0008004030C1000030C0000030BF003A
:103B98000030BE006F08C5006E08C4006D08C30081
:103BA8006C08C2008B3121239D3141084101A500D9
:103BB800400140084101A40040013F084101A30021
:103BC80040013E084101A2000130C6004608A0009D
:103BD8000230A035890BED2D2008FC3EA23E860060
:103BE8008701403F4001D800413FD900423FDA00F9
:103BF800433FDB0041014608A1000230A135890B93
:103C0800022E2108FC3EA23E86008701403F40016B
:103C1800BE00413FBF00423FC000433FC1006F08A4
:103C2800C5006E08C4006D08C3006C08C2008B3163
:103C380021239D314108DF004008DE003F08DD00F8
:103C48003E08DC0086312D269D315B084101C50008
:103C580040015A084101C400400159084101C3000C
:103C6800400158084101C20040304001C100003005
:103C7800C0000030BF000030BE00410145084001CF
:103C8800C500410144084001C40041014308400106
:103C9800C300410142084001C2008B3121239D31FC
:103CA80041014608A0000230A035890B582E200893
:103CB800A23E8600870140013E08C03F3F08C13F41
:103CC8004008C23F4108C33F01304101C6070830E0
:103CD8004602031CEA2D1C30A23E86008701403FA5
:103CE8004001EC00413FED00423FEE00433FEF0052
:103CF80008008731E3279E314301390842013B061A
:103D0800031D8A2E4301380842013A060319B92EC9
:103D18003B084301B90042013A084301B800420197
:103D28003B084001AD0042013A084001AC008A312D
:103D380020229E3142013B08803A4001C3008E3068
:103D48004302031DAA2ED93042013A020318B42EA9
:103D580042013008013EB2000030313DB300B92EB7
:103D680042013108B3003008B2003B08803A4001F4
:103D7800C3008E304302031DC42E753042013A023F
:103D8800031CD62E40019711171602304001C400BB
:103D98003830C300AD30890BCF2EC30BCF2EC40BE8
:103DA800CF2EF32E42013B08803A4001C3008E30EB
:103DB8004302031DE22E073042013A02031CF72E8C
:103DC80040019711171202304001C4003830C30077
:103DD800AD30890BED2EC30BED2EC40BED2E40013B
:103DE80097151716092F4001171297150230400131
:103DF800C4003830C300AD30890B002FC30B002F2F
:103E0800C40B002F40011716971542013B08803A52
:103E18004001C3008D304302031D152F4830420175
:103E28003A0203180800983104209E314001AC0181
:103E3800D330AD00A830AE000B30AF000130883170
:103E480029209E3152304001C4002B30C30000307D
:103E5800890B2C2FC30B2C2FC40B2C2F00004001D7
:103E68001612A63175260800A53172259F318C31AE
:103E78008C249F314001171619157C179D31142584
:103E88009F319331C1239F31FC1342012708DA0087
:103E98002608D9002508D8002408D7002308DE0002
:103EA8002208DD002108DC002008DB00430133087C
:103EB80042012B02031D702F4301320842012A02DE
:103EC800031D702F4301310842012902031D702F81
:103ED8004301300842012802031C7E2FB8304301F9
:103EE800B0070B30B13D0030B23D0030B33D9E31DC
:103EF8007D269F3143012F0842012B02031D942F79
:103F080043012E0842012A02031D942F43012D0864
:103F180042012902031D942F43012C084201280263
:103F2800031CA22F2C304301AC070130AD3D0030FB
:103F3800AE3D0030AF3D8E3113269F314201270838
:103F48002604250424040319B12F5A0859045804D7
:103F58005704031DB12F4001161242012308220401
:103F6800210420040319C12F5E085D045C045B046E
:103F7800031DC12FA63175269F31FC1ECD2F400190
:103F8800161ECA2F9A316B229F31CD2F9D311425D1
:103F98009F317C1ED92F4001161ED62FA7313527F9
:103FA8009F31D92F9D3114259F31FC1DE52F4001EC
:103FB800161EE22FA23139229F31E52F9D3114259B
:103FC8009F317C1DF02F4001161AED2F9D311425CD
:103FD8009F319A316B229F31FC1C5A2F4001161ACF
:103FE800FC2FA23196229F319D3114259F315A2FE3
:083FF800A73135279F315A2F34
:10425000640080010131890B29290034FE0012001D
:104260001E00FE0B2F2900344201BE010130BD00AB
:10427000BC013D08F4003C08F5003E0894314A2496
:104280000800F300F201731C47297108F2070310BC
:10429000F10D0310F30C7308031D43297208080085
:1042A000F300730841019E003530890B5529000049
:1042B0004101131413185A290D08F2000C08F100DB
:1042C000080042013E083D02031C6C299531362549
:1042D000A13196312226080096312226A13195314E
:1042E00036250800F6000F307605F4000A30F1009C
:1042F0007608F5000430F536890B7B297508A13165
:104300004121740708000130F1020030F23B710ACC
:104310000319720A031908000B30F3006230890B8D
:104320008F29F30B8F29003283290A34003400349B
:1043300000340A340034003400346434003401346E
:10434000023440347834013402344034783440014B
:1043500016114230890BAA290032400196154230CD
:10436000890BB0290032400116154230890BB6295D
:1043700000320800FB00A131E421A1317830A431E2
:104380001624A1318030A4311624A1317B08A43138
:104390001624A131A131A7210800F4007408031DDF
:1043A000D32900300800FF307407F100F10A803093
:1043B000F2000030F300DF29730DF30CF20CF10B67
:1043C000DC297208003C0800400196154230890B38
:1043D000E7290032400116154230890BED290032E1
:1043E000400116114230890BF32900324001961129
:1043F0004230890BF929003208004001A001A101D7
:10440000771C072A79084001A0077A08A13D0130EE
:10441000F935FA0D890B082A0130F836F70C890BAB
:104420000D2A77087804031D002A40012108F800AE
:104430002008F7000800F200F301F4017208F1000F
:10444000740A232AF136890B222A711C312A03307F
:10445000F1007435890A2D2AF135890B2C2A71084F
:10446000F3040130F40704307402031C1E2A73089D
:10447000080098310420A2314001AC01C730AD00E2
:10448000A830AE000B30AF00013088312920A231B6
:1044900052304001C4002B30C3000030890B4E2A3B
:1044A000C30B4E2AC40B4E2A0000A6317526080005
:1044B000F900F501F6017108F300F4017308F70043
:1044C0007408F800791C682A7708F5077808F63D23
:1044D0000130F735F80D890B692A0310F90C7908BA
:1044E000031D622A7608F2007508F1000800F20048
:1044F000F40171080319942A0130F300F11B852A95
:104500000310F10D0130F3077E2A0310F40D71083A
:104510007202031C8F2A7108F20274140310F10C4A
:104520000130F302031D852A74080800971116163E
:10453000191197310E27A23142013708803AD20073
:1045400080305202031DA62A64303602031CAA2AB8
:104550009931F3214001191542013708B500360899
:10456000B40040019715FC1008007108720403198B
:10457000DA2A0130F500F21BC52A0130F135F20DBF
:10458000890BBE2A0130F507BB2A72087402031D8D
:10459000CB2A71087302031CD12A7108F302720836
:1045A000F43B0130F236F10C890BD22A0130F502CE
:1045B000031DC52A7408F2007308F10008003C08C6
:1045C0003D04031DEF2A3C30AC002630AD00A9307D
:1045D000AE000430AF0002308831292008003D08C9
:1045E000F9003C08F800BA30FA00A631D326A2310F
:1045F00043013D08C2002E30C3003E08C4003F08FE
:10460000C5003C304001AC00C230AD000130AE000E
:104610000430AF000230883129200800F601F7018C
:104620007108720403193B2B0130F500F21B202B9B
:104630000130F135F20D890B192B0130F507162BDE
:104640000130F635F70D890B212B72087402031D1A
:104650002B2B71087302031C322B7108F3027208B2
:10466000F43B76140130F236F10C890B332B013018
:10467000F502031D202B7708F2007608F1000800F0
:1046800000304001A3000030A2000030A100003043
:10469000A000711C542B75084001A0077608A13DAD
:1046A0007708A23D7808A33D0130F535F60DF70DEA
:1046B000F80D890B552B0130F436F30CF20CF10C8C
:1046C000890B5C2B7408730472047104031D492B5D
:1046D00040012308F4002208F3002108F20020081A
:1046E000F10008008030A30627084001DB004101EB
:1046F00026084001DA00410125084001D9004101A6
:1047000024084001D800410123084001DF00410195
:1047100022084001DE00410121084001DD00410185
:1047200020084001DC0086312D265B084101A300F2
:1047300040015A084101A200400159084101A1006D
:10474000400158084101A00008004201BD01BE011E
:104750003D08F4003C08F5003E0894314A24A3319A
:1047600097310E27A33142013708803A4101EF000B
:1047700080306F02031DBF2B793042013602031CCB
:10478000080089311F21A33197310E27A33142013F
:104790003708803A4101EF0080306F02031DD32BB0
:1047A000793042013602031C0800A1316121080062
:1047B0004001971198310420A3314001AC016230CF
:1047C000AD00A830AE001230AF000130A431DB24C0
:1047D000A3314001AC01A130AD00A830AE000C30D7
:1047E000AF000330A431DB24A33154304001AC00CE
:1047F0002F30AD00A930AE000330AF000330A4313C
:10480000DB24A3317A304001BB00C130BA008130D3
:10481000890B082CBA0B082CBB0B082C003240016A
:104820008D1A142C00000F2C971508004001A500CC
:10483000A6012508A2000730A236890B1C2C2208ED
:104840000139A300A30DA30D16082306FB39230687
:1048500096004230890B2A2C0032400196154230D6
:10486000890B302C0032400196112535A50001300E
:10487000A60708302602031C192C16154230890B96
:104880003F2C0032400196150C0C890C0139A40014
:104890004230890B492C0032400196114230890B7D
:1048A0004F2C0032400124080800A8002708023ECF
:1048B000AB00A131E421A4317830A4311624A43115
:1048C0000030A4311624A4312808B03EA4311624A7
:1048D000A43110302B020318712C2B08A900AA0157
:1048E000822C2B08FB000430FB36890B742C7B08D0
:1048F000AA00F030F1002A08A1314121A431400181
:104900002B07A9002908A4311624A4312A08103E37
:10491000A4311624A431A131E421A4317830A4318A
:104920001624A4314030A43116240800A131E4211A
:10493000A4317830A4311624A4314030A431162497
:10494000A431B3017330A7003308A4315524A43136
:10495000B2013308AC00AD012C08F7002D08F800B7
:104960000B30F9000030FA00A131FD21A4310030F4
:10497000AE00A830AF0077082E07B00078082F3DB2
:10498000B10032083007840031080318013E850069
:104990000008A4311624A4310130B2070B303202D2
:1049A000031CA92C0130B30704303302031CA22CD2
:1049B000A131A7210800B6002C08A7003608A431B1
:1049C0005524A431B8012F0838020318222D3808C5
:1049D0002D0784002E080318013E85000008E03EE4
:1049E000B700B9013708B000B1013008F70031084D
:1049F000F8000530F9000030FA00A131FD21A431A2
:104A00000030B2009030B30077083207B400780865
:104A1000333DB50039083407840035080318013EDA
:104A200085000008A4311624A4310130B9070530EF
:104A30003902031CF22C0030A4311624A4310130B9
:104A4000B807E32CA131A7210800A701A31F2F2D30
:104A5000A209A309A20A0319A30A0130A700A51FEE
:104A6000382DA409A509A40A0319A50A0130A7062F
:104A7000A801A901220823040319652D0130A6000D
:104A8000A31B4A2D0130A235A30D890B432D013004
:104A9000A607402D0130A835A90D890B4B2D230801
:104AA0002502031D552D22082402031C5C2D22081B
:104AB000A4022308A53B28140130A336A20C890BBD
:104AC0005D2D0130A602031D4A2D270803196D2D07
:104AD000A809A909A80A0319A90A2908A3002808EE
:104AE000A20008007E01B801C3014314C31443159A
:104AF000CE01E401D90153019013941340018C01BC
:104B00008D018E018F019001960197011030980060
:104B1000063099009A019101273092009301940187
:104B200095017E013A15BA15DB145B1540019F1201
:104B30001F179F131E16C0309C00E0309D004E01D1
:104B40008C1240019E174E0196161E304F019600A2
:104B5000FE309700473098007F30990077309A00F8
:104B6000DF309B008B170530F2000F30F100F13081
:104B7000890BB82DF10BB82DF20BB82D00000800F1
:104B8000003028054001EC000030410129054001BA
:104B9000ED00803041012A054001EE007F304101E7
:104BA0002B054001EF006F086E046D046C04031DBB
:104BB000E22D00304101AB000030AA000030A90016
:104BC0000030A800003041012C054001EC0000300D
:104BD00041012D054001ED00803041012E054001CD
:104BE000EE007F3041012F054001EF006F086E0499
:104BF0006D046C04031D052E00304101AF00003030
:104C0000AE000030AD000030AC0041012F082B0693
:104C1000031D142E2E082A06031D142E2D08290606
:104C2000031D142E2C0828060319182E0310080043
:104C3000031408003C083D04031D2A2E3C30AC0040
:104C40002B30AD00A930AE000330AF00003088310A
:104C50002920080000303D020A3003193C020318E5
:104C6000412E3D08F9003C08F800BA30FA00A631A0
:104C7000D326A63130304301C2002E30C3003F0896
:104C8000672E00303D02643003193C020318542E95
:104C90003D08F9003C08F800BA30FA00A631D326E6
:104CA000A63143013E083C2E0530BC070030BD3D17
:104CB0003D08F9003C08F800BA30FA00A631D326C6
:104CC000A63120304301C2003D08C3003E08C400A5
:104CD0003C304001AC00C230AD000130AE000330CA
:104CE000AF0000308831292008008B1340019E134B
:104CF0004E018C1216167E01CA12C91640011612F8
:104D000017169715C2014208031D952E0530400164
:104D1000C1000F30C000F130890B8C2EC00B8C2EDF
:104D2000C10B8C2E7E01CA126300000005304001C9
:104D3000C1000F30C000F130890B9C2EC00B9C2E9F
:104D4000C10B9C2E40018D1AA82E0130C207A92E3E
:104D5000C20110304202031C832E4E0116127E0146
:104D6000C912CA1240019E178B177C179D3114255A
:104D7000A63140018D1ABE2E0000B92E4201C0019D
:104D8000FC127C12FC112B084301AB0042012A08E3
:104D90004301AA00420129084301A9004201280851
:104DA0004301A8000800F91FD72E0130D82E00308B
:104DB000A2002208031DE12E7908A4007808A300B0
:104DC000EC2E7809A0007909A100A00A0319A10A14
:104DD0002008A3002108A400A5017A082507860061
:104DE00001308700203081000130A5070630250200
:104DF000031CED2E7A08063E8600013087008101F3
:104E00000530A5007A0825078600013087000A30A2
:104E1000F1000030F2002408F4002308F300A2316E
:104E2000B522A6317108303E81000130A5020A305A
:104E3000F1000030F2002408F4002308F300A3314D
:104E40000E23A6317208A4007108A30023082404CD
:104E5000031D022F2208031908007A08250786007F
:104E6000013087002D308100080040019711AC010E
:104E7000F330AD00A830AE000930AF000230883109
:104E80002920A731400119119931F321A73142019D
:104E90003708B5003608B4003708E0003608DF00F0
:104EA0004001AC012130AD00A930AE000430AF00AC
:104EB000023088312920A7312A304001AC0033303C
:104EC000AD00A930AE00AF01AF0A02308831292011
:104ED000A731420135084001BD00420134084001BC
:104EE000BC00A231DF224001191597157C12FC107D
:104EF0004201C0012B084301B30042012A084301CB
:104F0000B200420129084301B100420128084301CF
:104F1000B00042012B084301AF0042012A084301BF
:104F2000AE00420129084301AD00420128084301B7
:104F3000AC0008009B316123A7312408B00025088C
:104F4000B100890D893B8909B200B30001309B3162
:104F5000E623A73133084101CA004001320841016C
:104F6000C900400131084101C80040013008410139
:104F7000C7009331C523A7312408B0002508B1002C
:104F8000890D893B8909B200B30001309B31E623CA
:104F9000A73133084101CE00400132084101CD0064
:104FA000400131084101CC00400130084101CB00F3
:104FB0008031F020A7313908803A4101DB00803090
:104FC0005B02031DE62F013042013802031C08007A
:104FD0004001161EFD2F42012708DA002608D900DD
:104FE0002508D8002408D7002308DE002208DD00A9
:104FF0002108DC002008DB0008009D311425080092
:10500000F834F8341F341F340334033403341F34AA
:105010001F34F834F834FF34FF34003400340034E3
:105020000034003400340034FF34FF34FF34FF34E4
:105030000034003400340034003400340034FF34D1
:10504000FF34FF34FF34C034C034C034C034C03403
:10505000C034C034FF34FF34F834F8341F341F3404
:105060000334033403341F341F34F834F834FF346A
:10507000FF34003400340034003400340034003491
:10508000FF34FF34FF34FF34003400340034003484
:10509000003400340034FF34FF34FF34FF34C034B4
:1050A000C034C034C034C034C034C034FF34FF34E2
:1050B00005343034073410341534133401340434D7
:1050C0001434603420344434453453344934473440
:1050D0004E344534443420344234593420344E3430
:1050E00037344434443443340034533474346134F6
:1050F00063346B34203475346E3464346534723404
:1051000066346C346F34773400345334743461341F
:1051100063346B3420346F347634653472346634DF
:105120006C346F34773400344D3443344C3452345F
:10513000203472346534733465347434203420344C
:1051400000342034463457342034563445345234F5
:10515000533449344F344E342034003457344434BB
:10516000543420346F3476346534723466346C349D
:105170006F347734003442344F3452342034723434
:10518000653473346534743420342034003420346E
:1051900050344F3457344534523420344F3446342D
:1051A000463420340034203420344C344F345734C7
:1051B00020344234413454345434203400342034C4
:1051C000203420342034203420342034203420343F
:1051D00000345334573452342034203420342034B3
:1051E000203420340034543455344E344534203483
:1051F00020342034203420340034523445345334A5
:1052000045345434203420342034203400344F3496
:105210005634453452344C344F34413444342034C1
:105220000034503457345234203420342034203465
:10523000203457340034533457345234203420341B
:1052400000345334573452342034003430342E3444
:1052500030343034003430342E343034003431348F
:0E5260002E34363400343D3400343E340034F5
:020000040001F9
:0A000E008C3F3D3F9F3FFF3FFF3F47
:00000001FF
