:040000008031C6285D
:100008007E14803100308600003087004E018C1E3F
:10001800C4288C1201304201DC070030DD3DDE3D92
:10002800DF3D43015A08590458045704031922288C
:100038000130D7020030D83BD93BDA3B5E085D047B
:100048005C045B0403192E280130DB020030DC3B22
:10005800DD3BDE3BC03040019C00E0309D004301A9
:10006800330842015F02031D492843013208420157
:100078005E02031D49284301310842015D02031D48
:1000880049284301300842015C02031CC4280A3095
:100098004301B0070030B13DB23DB33D40018F1878
:1000A8005728013058280030F0008D1A5D2801309B
:1000B8005E280030700400380319732843012F08A4
:1000C800DA002E08D9002D08D8002C08D7002B08F4
:1000D800DE002A08DD002908DC002808DB004001D2
:1000E8008D1A9228FA3042016A0203187D280130DD
:1000F800EA0719306A0603197C164001160E013901
:10010800F000FA3042016A06031D8C2801308D2860
:100118000030700503199D28FC159D280330420105
:100128006A02031C9C2819306A0203189C28FC16D2
:10013800EA0140018F18B9281930420169020318F1
:10014800A7280130E90740010F0C890C0139F0009C
:10015800143042016906031DB3280130B428003069
:1001680070050319C428FC14C4280230420169022E
:10017800031CC3280A3069020318C3287C15E90147
:100188007E1009008031C828E6308400AD30850033
:10019800D73086000130870014308731FA27803144
:1001A800FC015C308400013085000F308831052067
:1001B8008031A03084000130850037308831052037
:1001C80080312030840002308500083088310520D5
:1001D8007E1040019B31832B44304001C1007A30AE
:1001E800C0000030BF000030BE004101610840017E
:1001F800C500410160084001C40041015F08400199
:10020800C30041015E084001C20089310C218031E0
:1002180041084101E100400140084101E00040017E
:100228003F084101DF0040013E084101DE00443043
:100238004001C1007A30C0000030BF000030BE006D
:10024800410165084001C500410164084001C4003E
:10025800410163084001C300410162084001C20036
:1002680089310C21803141084101E50040014008F5
:100278004101E40040013F084101E30040013E081C
:100288004101E20061084001DB00410160084001D2
:10029800DA0041015F084001D90041015E084001D0
:1002A800D800430127084001DF0043012608400128
:1002B800DE00430125084001DD0043012408400118
:1002C800DC0085310A2580315B084201A700400126
:1002D8005A084201A600400159084201A500400100
:1002E80058084201A400410161084001DB004101B6
:1002F80060084001DA0041015F084001D90041016E
:100308005E084001D800430123084001DF00430193
:1003180022084001DE00430121084001DD004301BD
:1003280020084001DC0085310A2580315B08410145
:10033800B00040015A084101AF004001590841018D
:10034800AE00400158084101AD0061084001DB00E2
:10035800410160084001DA0041015F084001D9000D
:1003680041015E084001D800420127084001DF0032
:10037800420126084001DE00420125084001DD0057
:10038800420124084001DC0085310A2580315B08E0
:100398004101B40040015A084101B3004001590825
:1003A8004101B200400158084101B1008C311324C9
:1003B80080313008E1002F08E0002E08DF002D080A
:1003C800DE0065084001DB00410164084001DA00F5
:1003D800410163084001D900410162084001D80089
:1003E800430127084001DF00430126084001DE00E1
:1003F800430125084001DD00430124084001DC00D9
:1004080085310A2580315B084201A70040015A085E
:100418004201A600400159084201A50040015808C0
:100428004201A400410165084001DB004101640864
:100438004001DA00410163084001D9004101620826
:100448004001D800430123084001DF00430122088E
:100458004001DE00430121084001DD00430120087E
:100468004001DC0085310A2580315B084101B0007C
:1004780040015A084101AF00400159084101AE004E
:10048800400158084101AD0065084001DB00410109
:1004980064084001DA00410163084001D9004101C4
:1004A80062084001D800420127084001DF004201EC
:1004B80026084001DE00420125084001DD00420116
:1004C80024084001DC0085310A2580315B084101A0
:1004D800B40040015A084101B300400159084101E4
:1004E800B200400158084101B1008C311324803119
:1004F8003008E5002F08E4002E08E3002D08E2008C
:1005080061084001DF00410160084001DE0041014F
:100518005F084001DD0041015E084001DC00413018
:10052800DB002030DA000030D9000030D8008531F7
:100538000A2580315B084101B40040015A08410195
:10054800B300400159084101B20040015808410177
:10055800B1003F30B0000030AF000030AE000030D6
:10056800AD008C31132480313008BC002F08BB004B
:100578002E08BA002D08B900A53127258031410180
:100588003A084201E500410139084201E40000301F
:100598004101C4000030C3000030C2000030C10077
:1005A8006108C8006008C7005F08C6005E08C5008B
:1005B800A631832680310318F62A6508C40064082A
:1005C800C3006308C2006208C1006108C80060086F
:1005D800C7005F08C6005E08C500A63183268031C3
:1005E800031CFC2A10304201E0002730E1005E2B9A
:1005F80065084001C500410164084001C40041018B
:1006080063084001C300410162084001C200410182
:1006180061084001C100410160084001C00041017A
:100628005F084001BF0041015E084001BE008931FA
:100638000C2180314108DF004008DE003F08DD0062
:100648003E08DC004630DB001C30DA004030D900C0
:100658000030D80085310A2580315B084101B4009B
:1006680040015A084101B300400159084101B20054
:10067800400158084101B1003F30B0000030AF00E0
:100688000030AE000030AD008C31132480313008CA
:10069800BC002F08BB002E08BA002D08B900A531F0
:1006A8002725803141013A084201E100410139081A
:1006B8004201E0006508803AFB0043014308803AA4
:1006C8007B02031D6A2B4208420164020318702B47
:1006D8004201E201E301080041016508C400640821
:1006E800C3006308C2006208C1006108C80060084E
:1006F800C7005F08C6005E08C500A63183268031A2
:10070800031C8C2BE7304201E2000330E3000800B1
:1007180061084001C100410160084001C000410179
:100728005F084001BF0041015E084001BE00410171
:1007380065084001C500410164084001C400410149
:1007480063084001C300410162084001C2008931C9
:100758000C21803141084201A300400140084201B8
:10076800A20040013F084201A10040013E084201A9
:10077800A00023084101D000420122084101CF0016
:10078800420121084101CE00420120084101CD006B
:100798009631C926803150084201AB0041014F080B
:1007A8004201AA0041014E084201A90041014D0839
:1007B8004201A8003F304101C0008030BF00003036
:1007C800BE000030BD0042012B084101BC004201BF
:1007D8002A084101BB00420129084101BA0042012F
:1007E80028084101B900AE312D2680313C08C400EB
:1007F8003B08C3003A08C2003908C1000030C800ED
:100808000030C7000030C6000030C500A131FA2111
:100818008031031C182C3A304201AB008330AA0007
:100828001230A9006F30A80042012B084101BC001A
:1008380042012A084101BB00420129084101BA00CE
:10084800420128084101B9003F30C0008030BF0094
:100858000030BE000030BD00AE312D2680313C088E
:100868004001C10041013B084001C00041013A0874
:100878004001BF00410139084001BE003F3041013D
:10088800B0008030AF000030AE000030AD00420153
:100898002B084101B40042012A084101B30042017A
:1008A80029084101B200420128084101B1008C31F8
:1008B8001324803130084001C50041012F08400150
:1008C800C40041012E084001C30041012D08400128
:1008D800C20089310C21803141084201AB0040013E
:1008E80040084201AA0040013F084201A900400116
:1008F8003E084201A8002B084101C40042012A0811
:100908004101C300420129084101C20042012808EF
:100918004101C1003F30C8008030C7000030C60028
:100928000030C500A631832680310318A42C3F303F
:100938004201AB008030AA000030A9000030A800B6
:1009480041304101C4001F30C300C230C2008F30A3
:10095800C10042012B084101C80042012A08410197
:10096800C700420129084101C60042012808410187
:10097800C500A63183268031031C862B42012B0833
:100988004001DF0042012A084001DE004201290837
:100998004001DD00420128084001DC004230DB0054
:1009A800C830DA000030D9000030D80085310A2577
:1009B80080315B084101B40040015A084101B3008D
:1009C800400159084101B200400158084101B100F5
:1009D8003F30B0000030AF000030AE000030AD0056
:1009E8008C31132480313008BC002F08BB002E083E
:1009F800BA002D08B900A531272541013A0842015E
:100A0800E300410139084201E20008005B0880392F
:100A18004101A00040015B354101A2004001DA1FFD
:100A2800172D410122144101220803192A2D220AF7
:100A3800031D272D00304001DB000030DA000030B4
:100A4800D9000030D8004001DA17332D00304001BA
:100A5800DB000030DA000030D9000030D8005F0831
:100A680080394101A00640015F354101A1004001E4
:100A7800DE1F402D41012114410121080319532D86
:100A8800210A031D502D00304001DF000030DE0038
:100A98000030DD000030DC004001DE175C2D003046
:100AA8004001DF000030DE000030DD000030DC00F7
:100AB80041012108031D2208031D6C2D003040014F
:100AC800DB000030DA000030D9000030D800080020
:100AD80040015808F1005E08AE31A526853172083C
:100AE8004101AC007108AB002B084001E000E101B6
:100AF800E201E30163084101A600400162084101E7
:100B0800A500400161084101A400400160084101BD
:100B1800A3002C084001E000E101E201E3016308C1
:100B28004101AA00400162084101A9004001610891
:100B38004101A800400160084101A700400159088F
:100B4800F1005D08AE31A526853172084101AC007F
:100B58007108AB002B084001E000E101E201E3016C
:100B680060084101A307400161084101A43D40011B
:100B780062084101A53D400163084101A63D2C08DA
:100B88004001E000E101E201E30160084101A7073B
:100B9800400161084101A83D400162084101A93DA9
:100BA800400163084101AA3D40015A08F1005C0870
:100BB800AE31A526853172084101AC007108AB0041
:100BC8002B084001E000E101E201E3016008410176
:100BD800A307400161084101A43D400162084101A9
:100BE800A53D400163084101A63D2C084001E000F5
:100BF800E101E201E30160084101A7074001610842
:100C08004101A83D400162084101A93D4001630836
:100C18004101AA3D0830A335A40DA50DA60D890BE9
:100C28000F2E40015908F1005C08AE31A526853128
:100C380072084101AC007108AB002B08A3072C080F
:100C4800A43D0030A53DA63D40015808F1005D08CF
:100C5800AE31A526853172084101AC007108AB00A0
:100C68002B08A3072C08A43D0030A53DA63D08305D
:100C7800A335A40DA50DA60D890B3C2E40015808DF
:100C8800F1005C08AE31A526853172084101AC003F
:100C98007108AB002B08A3072C08A43D0030A53D24
:100CA800A63D40015908F1005E08AE31A526853100
:100CB80072084101AC007108AB002B08A7072C088B
:100CC800A83D0030A93DAA3D40015A08F1005D0841
:100CD800AE31A526853172084101AC007108AB0020
:100CE8002B08A7072C08A83D0030A93DAA3D4001C4
:100CF8005A08F1005E08AE31A52685317208410117
:100D0800AC007108AB002B084001E00041012C0841
:100D18004001E100E201E3010830E035E10DE20DB8
:100D2800E30D890B912E60084101A7074001610876
:100D38004101A83D400162084101A93D4001630805
:100D48004101AA3D26084001E000E101E201E3017A
:100D580060084101A707400161084101A83D400121
:100D680062084101A93D400163084101AA3D0830DC
:100D7800A335A40DA50DA60D890BBC2E22082107AD
:100D88004001E000E101E10D6008823E4101AB0055
:100D9800FF304001613D4101AC00A91BE82E013044
:100DA800A735A80DA90DAA0D890BD42EA61B2714AB
:100DB8000130A335A40DA50DA60D890BDD2EFF303E
:100DC800AB07FF30AC3DD12EA101A61F0A2FFF3083
:100DD80023054001E000FF30410124054001E10006
:100DE800FF30410125054001E2007F304101260521
:100DF8004001E3006308620461046004031D072FD7
:100E08004101271C0A2F01304101A10021080319C3
:100E18003F2F0130A7070030A83DA93DAA3D2A1C55
:100E28003F2F27084001E000410128084001E10068
:100E3800410129084001E20041012A084001E3007C
:100E48000130E400E337E20CE10CE00CE40B262F60
:100E580063084101AA00400162084101A90040015C
:100E680061084101A800400160084101A700013064
:100E7800AB070030AC3D2C08803A4001E0008030E0
:100E88006002031D4A2FFF3041012B02031C562F1D
:100E98007F304101AA008030A9000030A80000304E
:100EA800A700862F41012C08803A4001E0008030DD
:100EB8006002031D622F013041012B0203186F2FBE
:100EC80000304101AA000030A9000030A80000301D
:100ED800A700A001862F41012B08A200FF30A7051B
:100EE800FF30A8057F30A9050030AA052218A917E8
:100EF80022084001E0000130E036890B802F6008AD
:100F08004101AA002008AA042A084001DB00410187
:100F180029084001DA00410128084001D9004101AF
:100F280027084001D8000800F91F9C2F01309D2F89
:100F38000030A2002208031DA62F7908A400780813
:100F4800A300B12F7809A0007909A100A00A03190C
:100F5800A10A2008A3002108A400A5017A082507F2
:100F6800860001308700203081000130A507063057
:100F78002502031CB22F7A08063E8600013087003E
:100F880081010530A5007A08250786000130870011
:100F98000A30F1000030F2002408F4002308F300BE
:100FA800AF31752787317108303E81000130A502C5
:100FB8000A30F1000030F2002408F4002308F3009E
:100FC800AF31CE2787317208A4007108A300230827
:100FD8002404031DC72F2208031908007A082507CF
:100FE8008600013087002D3081000800FE001200C5
:080FF8001E00FE0BFB2F00346C
:101002001030AF314F270800640080010131890B95
:1010120006280034A031022088317830A031F12036
:1010220088314030A031F12088310A30A2000030EE
:10103200A3002D08A5002C08A400A231D6228831D5
:101042002308AD002208AC002D08803AAE008130A2
:101052002E02031D2E282C302C02031832282C308D
:101062003F2840012D08803AAE0081302E02031D38
:101072003C28A5302C02031C4328A4304001AC00BC
:101082000130AD0040012C08D43EAC00FE302D3DB5
:10109200AD002D08AF002C08AE000530AE35AF0D07
:1010A200890B4F282E08AC002F08AD007830A20023
:1010B2000030A3002D08A5002C08A400A231D622DE
:1010C20088312208B40019303402031C7128340814
:1010D200E83EB0000830B1000830B200083086287F
:1010E20011303402031C7928B0013408F03E6C2818
:1010F20009303402031C8228B001B1013408F83EE1
:101102006E28B001B101B2013408B3003008AD312C
:10111200FA2588314001B60036080338B600773028
:10112200A7000030A131302188313608A031F120EA
:1011320088313608A031F12088313608A031F120FB
:10114200883136081F38B6007530A7000030A1314B
:10115200302188313608A031F12088313608A0319B
:10116200F12088317A30A7000030A1313021883156
:101172003608A031F12088313608A031F1208831BB
:101182003108AD31FA2588314001B6007530A7002B
:101192000130A13130218831B5013608A031F1206A
:1011A20088310130B50707303502031CCE283208DA
:1011B200AD31FA2588314001B6007530A700023002
:1011C200A13130218831B5013608A031F1208831B2
:1011D2000130B50707303502031CE5283308AD316D
:1011E200FA2588314001B6003608C038B60075309D
:1011F200A7000330A13130218831B5013608A03172
:10120200F12088310130B50707303502031CFF2871
:10121200AD31C025080045088039CF004535D600DC
:10122200C41B5614560803192429560A031D2129E2
:101232000030C5000030C4000030C3000030C200DE
:10124200C417C5012C290030C5000030C40000308D
:10125200C3000030C20041088039CF064135D700B3
:10126200C01B5714570803194429570A031D412963
:101272000030C1000030C0000030BF000030BE00AE
:10128200C017C1014C290030C1000030C00000303D
:10129200BF000030BE00410840043F043E04031D6D
:1012A20069290030C5000030C4000030C30000309E
:1012B200C2008030C4047F30C5044F08C50445080D
:1012C200C1004408C0004308BF004208BE00080035
:1012D2005608031D75290030C1000030C0000030DF
:1012E200BF000030BE0008005608C600C70147080C
:1012F200C90057084602C800031CC90348087F3EBC
:10130200D0000030493DD1004508CE004408CD0050
:101312004308CC004208CB000030C5000030C400B6
:101322000030C3000030C2000030D5000030D400CD
:101332000030D3000030D200D7011A305702031810
:10134200D82957080319BC290130CB35CC0DCD0D56
:10135200CE0D890BA6290130C235C30DC40DC50DB2
:10136200890BAD29D51B42140130D235D30DD40DD2
:10137200D50D890BB62941084E02031DCA29400822
:101382004D02031DCA293F084C02031DCA293E080B
:101392004B02031CD52955173E08CB023F08CC3B14
:1013A2004008CD3B4108CE3B0130D7079E294E086D
:1013B2004D044C044B04031D5214C41BF529013087
:1013C200C235C30DC40DC50D890BE129D51B4214CD
:1013D2000130D235D30DD40DD50D890BEA29FF305A
:1013E200D007FF30D13DDE29D701D51F0E2AFF30AD
:1013F2005205C600FF305305C700FF305405C80030
:101402007F305505C90049084804470446040319BA
:1014120042180C2A0E2A0130D70057080319352A20
:101422000130C2070030C33DC43DC53D451C352ACD
:101432004208C6004308C7004408C8004508C9005E
:101442000130CA00C937C80CC70CC60CCA0B232A04
:101452004908C5004808C4004708C3004608C2003E
:101462000130D0070030D13D5108803AC6008030AB
:101472004602031D3E2AFF305002031C4D2AFF3054
:101482004001D0000030D1000030C5000030C4005F
:101492000030C3000030C20040015108803AC6004B
:1014A20080304602031D572A013050020318652A74
:1014B2004001D001D1010030C5000030C40000302D
:1014C200C3000030C200CF0140015008D600561CB4
:1014D2006C2AC4176E2A7F30C4055608C600013034
:1014E200C636890B712A4608C5005E294101C7012B
:1014F2004708BD3E860087014708583E8400B03049
:101502000318013E8500000881000130C7070A3038
:101512004702031C792A3D08AD319D258A314101DC
:10152200B900BA01BB01BC013C084301AF00410153
:101532003B084301AE0041013A084301AD004101BD
:1015420039084301AC000030F4000030F300EA3007
:10155200F2006030F1002F08F8002E08F7002D0885
:10156200F6002C08F500A0311B208A3174084301D3
:10157200AF007308AE007208AD007108AC00410103
:101582003E08AD319D258A314101B900BA01BB0146
:10159200BC013C084301AB0041013B084301AA00E6
:1015A20041013A084301A900410139084301A80059
:1015B2000030F4000030F300EA30F2006030F10055
:1015C2002B08F8002A08F7002908F6002808F50079
:1015D200A0311B208A3174084301AB007308AA00B2
:1015E2007208A9007108A80041013F08AD319D258C
:1015F2008A314101B900BA0139084301C4004101ED
:101602003A084301C50041014008AD319D258A31A8
:101612004101B900BA0139084301C20041013A0847
:101622004301C30041014108AD319D258A31410189
:10163200B900BA013908F7003A08F8000A30F9008F
:101642000030FA00AE314A268A3178084301C100DF
:101652007708C00041014208AD319D258A31410120
:10166200B900BA013908F7003A08F8000A30F9005F
:101672000030FA00AE314A268A3178084301BF00B1
:101682007708BE0041014308AD319D258A31003AF9
:1016920003194D2B7C144E2B7C1041304001C100AC
:1016A2002030C0000030BF000030BE0041014408BD
:1016B200AD319D258A314101B900BA01BB01BC019E
:1016C2003C084001B30041013B084001B200410126
:1016D2003A084001B100410139084001B00001302F
:1016E2009831F4208A313308C5003208C400310829
:1016F200C3003008C20089310C218A3141084301FC
:10170200A300400140084301A20040013F084301F9
:10171200A10040013E084301A0003F304101B0005A
:101722008030AF000030AE000030AD0042304001EA
:10173200C100C830C0000030BF000030BE0041010F
:101742004508AD319D258A314101B900BA01BB017D
:10175200BC013C084001B30041013B084001B2001A
:1017620041013A084001B100410139084001B0008D
:1017720001309831F4208A313308C5003208C400A0
:101782003108C3003008C20089310C218A31410876
:101792004101B400400140084101B30040013F084B
:1017A2004101B20040013E084101B1008C311324D5
:1017B2008A3130084301A70041012F084301A600E6
:1017C20041012E084301A50041012D084301A40057
:1017D20006304001A2000030A30041014608AD31AD
:1017E2009D258A314101B900BA013908F7003A084A
:1017F200F8000A30F9000030FA00AE314A268A3188
:101802007808A5007708A400A231D6222308430154
:10181200BD00400122084301BC004508C70044083E
:10182200C600080030088039B5003035B700AF1B5C
:101832003714370803192B2C370A031D282C0030C4
:10184200B0000030AF000030AE000030AD00AF1786
:10185200B001332C0030B0000030AF000030AE00D9
:101862000030AD0034088039B60036083506031D55
:1018720035173435B600B31B3614360803194F2C0E
:10188200360A031D4C2C0030B4000030B300003087
:10189200B2000030B100B317B401572C0030B400CD
:1018A2000030B3000030B2000030B1003708360219
:1018B20003187D2C351F5F2C8030B5063708B80021
:1018C2003608B7003808B6002D08B8003108AD0058
:1018D2003808B1002E08B8003208AE003808B2004D
:1018E2002F08B8003308AF003808B3003008B8003A
:1018F2003408B0003808B400B80136084001E500E9
:10190200E6016608E8004101370840016502E70088
:10191200031CE8036808803AE90080306902031D6D
:10192200942C1A306702031CCC2C410130082F047E
:101932002E042D0403199F2C0130A02C0030B80076
:101942000030B0000030AF000030AE000030AD001B
:101952003608B700D12C381CBA2C38084001E500F3
:101962000130E536890BB22C650801384101B80017
:10197200BC2C0310B80C2D18B81701304001E5003B
:101982004101B037AF0CAE0CAD0C4001E50BC12CE0
:1019920001304101B707410136083702031CAC2C64
:1019A200351B0A2D3708031DDF2C0030B000003034
:1019B200AF000030AE000030AD0008003108AD07C6
:1019C2003208AE3D3308AF3D3408B03D301C972D90
:1019D200381CF72C38084001E5000130E536890B48
:1019E200EF2C650801384101B800F92C0310B80C3E
:1019F2002D18B81701304001E5004101B037AF0C96
:101A0200AE0CAD0C4001E50BFE2C01304101B707D5
:101A1200972D3008803A4001E50041013408803AB0
:101A2200400165024101031D202D33082F02031DD1
:101A3200202D32082E02031D202D31082D020318FD
:101A4200652DFF304001E500FF30E600FF30E70082
:101A5200FF30E80041012D0831024001E900410157
:101A62002E08323B4001EA0041012F08333B40017E
:101A7200EB0041013008343B4001EC006908E50706
:101A82006A08E63D6B08E73D6C08E83D68084101DD
:101A9200B000400167084101AF0040016608410102
:101AA200AE00400165084101AD008030B506380343
:101AB200FF3AB8003808031D6D2D0130AD07003024
:101AC200AE3DAF3DB03D6D2D3108AD023208AE3BAB
:101AD2003308AF3B3408B03B30082F042E042D04EA
:101AE200031D952D3808031D952D0030B0000030E0
:101AF200AF000030AE000030AD0008000130AD355F
:101B0200AE0DAF0DB00D890B802DB81B2D14381CF6
:101B12008E2D0314380DB800902D0310B80D370820
:101B22000319952D0130B702AF1F7F2DB601B81FE3
:101B3200A22D38087F3903192D18A02DA22D0130AE
:101B4200B60036080319D82D0130AD070030AE3D7E
:101B5200AF3DB03D301CD82D2D084001E5004101BC
:101B62002E084001E60041012F084001E700410133
:101B720030084001E8000130E900E837E70CE60CE4
:101B8200E50CE90BBE2D68084101B0004001670871
:101B92004101AF00400166084101AE004001650805
:101BA2004101AD00370A0319D82D0130B707370AB2
:101BB200031D3708031DE82D0030B0000030AF00D0
:101BC2000030AE000030AD0037080319B501371CF4
:101BD200EC2DAF17EE2D7F30AF0537084001E50041
:101BE2000130E536890BF22D65084101B000B51FC1
:101BF2000800B01708003E089C3E4401A800FF30D0
:101C020043013F3D4401A90003304201D80008309E
:101C1200D7007730890B0B2ED70B0B2ED80B0B2E40
:101C22004401AC01AD01AE01AF01AA01AB012B0829
:101C3200803A4201D70043013D08803A42015702EF
:101C4200031D272E43013C0844012A0203185A2E81
:101C5200A13171218D3144012D08803A4201D70012
:101C62006508803A5702031D392E640844012C028C
:101C720003184B2E420165084401AD00420164087D
:101C82004401AC00420163084401AF004201620812
:101C92004401AE000B304201D7006230890B4F2E57
:101CA200D70B4F2E000001304401AA070030AB3D94
:101CB200182E44012D08803A4201D7008030570285
:101CC200031D662E013044012C02031C802E4001AC
:101CD200161E7D2E43012F08DA002E08D9002D088A
:101CE200D8002C08D7002B08DE002A08DD002908BE
:101CF200DC002808DB00802E9A3122228D3143013C
:101D0200600844012D06031D8A2E43015F08440129
:101D12002C060319B52EFC1F952E2A304001AC006B
:101D22003530AD00B1309B2E2A304001AC0033304B
:101D3200AD00B130AE00AF01AF0A00309431BA2429
:101D42008D3144012D084301E00044012C08430178
:101D5200DF0044012D084001BD0044012C08400170
:101D6200BC00A431C7248D3144012F08803A4201BE
:101D7200D70080305702031DC12E643044012E0269
:101D8200031CFE2E4301490844012F06031DCD2EDC
:101D92004301480844012E060319FE2E2F08430171
:101DA200C90044012E084301C80044012D08803AAD
:101DB2004201D70043014308803A42015702031D02
:101DC200E62E4301420844012C020318F32E43017C
:101DD20049084001BD00430148084001BC00A03150
:101DE2007F200800430149084001BD004301480823
:101DF2004001BC00A0317F208D31FC1F742F0330C5
:101E02004401AA000030AB0006304001AC000730AC
:101E1200AD00B130AE000930AF0002309431BA24C7
:101E22008D3115304201D8004B30D700BE30890BBE
:101E3200182FD70B182FD80B182F00004001AC0118
:101E4200DF30AD00B030AE000930AF000230943167
:101E5200BA248D3115304201D8004B30D700BE3044
:101E6200890B312FD70B312FD80B312F0000FF30C8
:101E72004401AA07FF30AB3D2A082B04031D052F9E
:101E82004001AC01E930AD00B030AE000930AF0026
:101E920002309431BA248D312A304001AC00333003
:101EA200AD00B130AE00AF01AF0A02309431BA24B6
:101EB2008D3144012F084001BD0044012E0840012C
:101EC200BC00A0317F208D3115304201D8004B304B
:101ED200D700BE30890B6B2FD70B6B2FD80B6B2F14
:101EE2000000FC1308007C1C080044012D08803A05
:101EF2004201D70043014308803A42015702031DC1
:101F0200862F4301420844012C02031C08004401AD
:101F12002D08803A4201D70043014108803A42012C
:101F22005702031D982F4301400844012C02031855
:101F3200080044012F08803A4201D700803057023E
:101F4200031DA62F793044012E02031C0800430111
:101F5200610844012E024201D70043016208440194
:101F62002F3B4201D80044012908803A4201D9009E
:101F72005808803A5902031DC12F5708440128020C
:101F8200031CFD2F44012E08430161024201D700C8
:101F920044012F084301623B4201D8004401290851
:101FA200803A4201D9005808803A5902031DDC2FB9
:101FB200570844012802031CFD2FE7304201D700D5
:101FC2000330D8004401280842015702D9004401D5
:101FD20029084201583BDA005A08803ADB004401E2
:101FE2002F08803A42015B02031DFB2F44012E0899
:101FF20042015902031808009831032008000034F6
:102002000034003400340034003400345F340034CF
:1020120000340034073400340734003414347F347D
:1020220014347F34143424342A347F342A3412345E
:102032002334133408346434623436344934553426
:102042002234503400340534033400340034003474
:102052001C342234413400340034413422341C34E0
:10206200003408342A341C342A340834083408343E
:102072003E340834083400345034303400340034F0
:102082000834083408340834083400343034303426
:1020920000340034203410340834043402343E3422
:1020A2005134493445343E34003442347F34403470
:1020B2000034423461345134493446342134413499
:1020C20045344B3431341834143412347F341034E0
:1020D200273445344534453439343C344A34493460
:1020E200493430340134713409340534033436341C
:1020F200493449344934363406344934493429346C
:102102001E3400343634363400340034003456344D
:102112003634003400340034083414342234413468
:102122001434143414341434143441342234143432
:102132000834003402340134513409340634323460
:102142004934793441343E347E34113411341134FB
:102152007E347F3449344934493436343E34413450
:102162004134413422347F344134413422341C34EA
:102172007F3449344934493441347F340934093491
:10218200013401343E3441344134513432347F34E9
:102192000834083408347F34003441347F34413405
:1021A20000342034403441343F3401347F34083425
:1021B2001434223441347F34403440344034403487
:1021C2007F340234043402347F347F3404340834DC
:1021D20010347F343E344134413441343E347F3410
:1021E20009340934093406343E344134513421343B
:1021F2005E347F3409341934293446344634493440
:10220200493449343134013401347F3401340134E6
:102212003F344034403440343F341F34203440345F
:1022220020341F347F342034183420347F34633414
:1022320014340834143463340334043478340434E6
:102242000334613451344934453443340034003466
:102252007F3441344134023404340834103420349D
:10226200413441347F3400340034043402340134C4
:102272000234043440344034403440344034003476
:102282000134023404340034203454345434543489
:1022920078347F3448344434443438343834443421
:1022A20044344434203438344434443448347F345D
:1022B2003834543454345434183408347E340934A1
:1022C2000134023408341434543454343C347F34EA
:1022D2000834043404347834003444347D344034D3
:1022E20000342034403444343D34003400347F34EC
:1022F200103428344434003441347F3440340034C0
:102302007C3404341834043478347C34083404348F
:1023120004347834383444344434443438347C34E7
:10232200143414341434083408341434143418347F
:102332007C347C340834043404340834483454344F
:1023420054345434203404343F344434403420343C
:102352003C344034403420347C341C342034403407
:1023620020341C343C344034303440343C34443423
:1023720028341034283444340C345034503450341B
:102382003C344434643454344C34443400340834DB
:10239200363441340034003400347F3400340034A5
:1023A20000344134363408340034083408342A34D2
:1023B2001C34083408341C342A34083408340034F9
:1023C2000034003400340034003400345F3400340C
:1023D20000340034073400340734003414347F34BA
:1023E20014347F34143424342A347F342A3412349B
:1023F2002334133408346434623436344934553463
:1024020022345034003405340334003400340034B0
:102412001C342234413400340034413422341C341C
:10242200003408342A341C342A340834083408347A
:102432003E3408340834003450343034003400342C
:102442000834083408340834083400343034303462
:1024520000340034203410340834043402343E345E
:102462005134493445343E34003442347F344034AC
:1024720000344234613451344934463421344134D5
:1024820045344B3431341834143412347F3410341C
:10249200273445344534453439343C344A3449349C
:1024A2004934303401347134093405340334363458
:1024B20049344934493436340634493449342934A8
:1024C2001E3400343634363400340034003456348A
:1024D20036340034003400340834143422344134A5
:1024E200143414341434143414344134223414346F
:1024F200083400340234013451340934063432349D
:102502004934793441343E347E3411341134113437
:102512007E347F3449344934493436343E3441348C
:102522004134413422347F344134413422341C3426
:102532007F3449344934493441347F3409340934CD
:10254200013401343E3441344134513432347F3425
:102552000834083408347F34003441347F34413441
:1025620000342034403441343F3401347F34083461
:102572001434223441347F344034403440344034C3
:102582007F340234043402347F347F340434083418
:1025920010347F343E344134413441343E347F344C
:1025A20009340934093406343E3441345134213477
:1025B2005E347F340934193429344634463449347C
:1025C200493449343134013401347F340134013423
:1025D2003F344034403440343F341F34203440349C
:1025E20020341F347F342034183420347F34633451
:1025F2001434083414346334033404347834043423
:1026020003346134513449344534433400340034A2
:102612007F344134413402340434083410342034D9
:10262200413441347F340034003404340234013400
:1026320002340434403440344034403440340034B2
:1026420001340234043400342034543454345434C5
:1026520078347F344834443444343834383444345D
:1026620044344434203438344434443448347F3499
:102672003834543454345434183408347E340934DD
:102682000134023408341434543454343C347F3426
:102692000834043404347834003444347D3440340F
:1026A20000342034403444343D34003400347F3428
:1026B200103428344434003441347F3440340034FC
:1026C2007C3404341834043478347C3408340434CC
:1026D20004347834383444344434443438347C3424
:1026E20014341434143408340834143414341834BC
:1026F2007C347C340834043404340834483454348C
:1027020054345434203404343F3444344034203478
:102712003C344034403420347C341C342034403443
:1027220020341C343C344034303440343C3444345F
:1027320028341034283444340C3450345034503457
:102742003C344434643454344C3444340034083417
:10275200363441340034003400347F3400340034E1
:1027620000344134363408340034083408342A340E
:0E2772001C34083408341C342A34083408346B
:10278400AD31C0250800FF304201CD007F30CE00BE
:10279400FF30CF007F30D000A33171239331A331B8
:1027A400C32393319C314A24933142016308803A14
:1027B400C40080304402031DE12B79306202031C03
:1027C400080042016108CC006008CB006808C5001D
:1027D4006708C6000330670203181C2C0330680224
:1027E40003181C2CE701E8016708F4006608F500EB
:1027F40068089D3132259331A331C3239331A3312A
:10280400712393319C314A24933142016308803A05
:10281400C40080304402031D112C79306202031C71
:10282400080042016108CE006008CD006808C700B6
:102834006708C800033067020318492C0330680294
:102844000318492CE701E8016708F4006608F5005D
:1028540068089D3132259331A431152493319C317C
:102864004A24933142016308803AC4008030440210
:10287400031D3E2C79306202031C080042016108EA
:10288400D0006008CF006808C9006708CA004E0875
:10289400803AC4004C08803A4402031D532C4B0870
:1028A4004D02031C672C42015008803AC4004C08B6
:1028B400803A4402031D602C4B084F02031C672C12
:1028C40042014608E7004508A42C42014C08803A1E
:1028D400C4004E08803A4402031D722C4D084B027A
:1028E400031C862C42015008803AC4004E08803AEA
:1028F4004402031D7F2C4D084F02031C862C420109
:102904004808E7004708A42C42014C08803AC40058
:102914005008803A4402031D912C4F084B02031CBB
:10292400A52C42014E08803AC4005008803A440263
:10293400031D9E2C4F084D02031CA52C42014A087E
:10294400E7004908E80042014D0A7F3003194E06AA
:10295400031DB22C4F0A7F300319500603190800D7
:102964006708F4006608F50068089D313225080000
:10297400B700A031022094317830A031F120943195
:102984004030A031F12094312C08A7003708A13140
:1029940030219431BA012F083A020318382D3A082D
:1029A4002D0784002E080318013E85001200031D24
:1029B400DD2CB601E72C3A082D0784002E080318F5
:1029C400013E85000008E03EB600BB013608B000B9
:1029D400B1013008F7003108F8000530F900003083
:1029E400FA00AE314A2694310030B2009030B30080
:1029F40077083207B4007808333DB5003B08340744
:102A0400840035080318013E85000008B800023030
:102A140037060319132D38080F39AE31682694315F
:102A24001E2D38080739AE3168269431B0000230C3
:102A3400B035890B1A2D3008B9003908A031F120BE
:102A440094313908A031F12094310130BB070530AD
:102A54003B02031CE82C0030A031F12094310030FB
:102A6400A031F12094310130BA07CD2C2C08A700F5
:102A74003708013EA13130219431BA012F083A02BE
:102A84000318AD2D3A082D0784002E080318013EC3
:102A940085001200031D502DB6015A2D3A082D074A
:102AA40084002E080318013E85000008E03EB600AD
:102AB400BB013608B000B1013008F7003108F80056
:102AC4000530F9000030FA00AE314A269431003066
:102AD400B2009030B30077083207B4007808333D71
:102AE400B5003B083407840035080318013E85000F
:102AF4000008B800023037060319882D3808B000E2
:102B04000430B036890B832D3008902D3808B0007E
:102B14000330B036890B8B2D30080F39AE3168265F
:102B24009431B9003908A031F12094313908A03129
:102B3400F12094310130BB0705303B02031C5B2DAF
:102B44000030A031F12094310030A031F1209431D3
:102B54000130BA07402DAD31C02508004201BD0047
:102B64000030B7000030B6000030B5000030B400CB
:102B74000030BB000030BA000030B9000030B800AB
:102B8400BC013D083C020318062EA7317B27953172
:102B940024084101E600400125084101E700003016
:102BA400E71BFF30E800E90066084201B407410171
:102BB40067084201B53D410168084201B63D410143
:102BC40069084201B73D98316F20953124084101CD
:102BD400E600400125084101E7000030E71BFF3013
:102BE400E800E90066084201B807410167084201AC
:102BF400B93D410168084201BA3D410169084201F9
:102C0400BB3D0130BC07C32D3D084101E600E7018F
:102C1400E801E90169084001B30041016808400185
:102C2400B200410167084001B1004101660840015A
:102C3400B00001309831F42095313308C1003208D6
:102C4400C0003108BF003008BE004201370840010F
:102C5400B300420136084001B20042013508400188
:102C6400B100420134084001B00000309831F42032
:102C740095313308C5003208C4003108C300300858
:102C8400C20089310C21953141084201AF00400155
:102C940040084201AE0040013F084201AD0040013E
:102CA4003E084201AC003D084101E600E701E801AD
:102CB400E90169084001B300410168084001B2001C
:102CC400410167084001B100410166084001B000BC
:102CD40001309831F42095313308C1003208C00026
:102CE4003108BF003008BE0042013B084001B30078
:102CF40042013A084001B200420139084001B100E2
:102D0400420138084001B00000309831F420953178
:102D14003308C5003208C4003108C3003008C200BB
:102D240089310C21953141084201B300400140082A
:102D34004201B20040013F084201B10040013E0897
:102D44004201B0002F084101E10042012E08410177
:102D5400E00042012D084101DF0042012C0841013D
:102D6400DE00420133084101E5004201320841011D
:102D7400E400420131084101E3004201300841010D
:102D8400E2008031F0209531AF312A27080000306D
:102D9400C4000030C3000030C2000030C10050083D
:102DA400C8004F08C7004E08C6004D08C500A6312C
:102DB40083269631031CE72E0030D0000030CF006C
:102DC4000030CE000030CD00080040304001C1008A
:102DD4000030C0000030BF000030BE003F30410171
:102DE400B0008030AF000030AE000030AD005008BD
:102DF400B4004F08B3004E08B2004D08B1008C3146
:102E04001324963130084001C50041012F084001C8
:102E1400C40041012E084001C30041012D084001B6
:102E2400C20089310C21963141084101DD00400185
:102E340040084101DC0040013F084101DB00400142
:102E44003E084101DA00D5015D08B0005C08AF001E
:102E54005B08AE005A08AD005D084001C1004101A5
:102E64005C084001C00041015B084001BF00410112
:102E74005A084001BE00410150084001C50041010B
:102E84004F084001C40041014E084001C300410104
:102E94004D084001C20089310C219631410841019D
:102EA400B400400140084101B30040013F08410122
:102EB400B20040013E084101B1008C311324963127
:102EC4003008D4002F08D3002E08D2002D08D100DA
:102ED40040304001C1000030C0000030BF0000306D
:102EE400BE00410154084001C5004101530840019E
:102EF400C400410152084001C3004101510840018E
:102F0400C20089310C21963141084101D9004001A8
:102F140040084101D80040013F084101D700400169
:102F24003E084101D6005908BC005808BB005708A8
:102F3400BA005608B9005D08C0005C08BF005B0811
:102F4400BE005A08BD00AE312D2696313C08C4009F
:102F54003B08C3003A08C2003908C10038304001B8
:102F6400DB00D130DA00B730D9001730D800410186
:102F74005D084001DF0041015C084001DE004101C1
:102F84005B084001DD0041015A084001DC00853145
:102F94000A2596315B084101C80040015A084101E5
:102FA400C700400159084101C600400158084101C9
:102FB400C500A631832696310318E92F5908D0009D
:102FC4005808CF005708CE005608CD00080059080D
:102FD400DD005808DC005708DB005608DA00013031
:102FE400D50714305502031C262F5D08D0005C0859
:0C2FF400CF005B08CE005A08CD0008009A
:1030060040019711AC01F330AD00B030AE0009308D
:10301600AF0002309431BA24983140011911A5311C
:1030260091259831420163084301C90042016208B3
:103036004301C800420163084301E20042016208FD
:103046004301E1004001AC012130AD00B130AE00DA
:103056000430AF0002309431BA2498312A3040014E
:10306600AC003330AD00B130AE00AF01AF0A023074
:103076009431BA249831430149084001BD00430107
:1030860048084001BC00A0317F2040011915971562
:103096007C12FC104201EA015F084301BB004201B9
:1030A6005E084301BA0042015D084301B9004201CE
:1030B6005C084301B80042015F084301B7004201C2
:1030C6005E084301B60042015D084301B5004201B6
:1030D6005C084301B40008002030AF314F27983117
:1030E600A0300032890B74280A30AD318C25983116
:1030F60072084001AB007108AA002A0A03300319BE
:103106002B06031D97284030AF314F279831A0304A
:103116000032890B8B280A30AD318C2598317135F8
:103126004001AA00720DAB00FE302A0607300319D3
:103136002B06031DEF281030AF314F279831A030F2
:103146000032890BA3280A30AD318C2598317208DC
:103156004001AB007108AA002A0A033003192B06A6
:103166000319FC17AE311126983140012A08F100E7
:103176002B08F200F301F40143014C08F5004D0859
:10318600F600890D893B8909F700F800A0311B205C
:1031960098317408AF007308AE007208AD0071086C
:1031A600AC002C08A6002D08A7002E08A8002F08A2
:1031B600A9000A30A936A80CA70CA60C890BDD2895
:1031C6002908AF002808AE002708AD002608AC0085
:1031D6002D08AB002C08AA002B08A5002A08A4007D
:1031E6000800B8003808031DB31F09293009BA00C2
:1031F6003109BB003209BC003309BD00BA0A031904
:10320600BB0A0319BC0A0319BD0A11293308BD00FC
:103216003208BC003108BB003008BA00330832045B
:1032260031043004031D20290030B3000030B20001
:103236000030B1000030B00008009630B900FE3012
:103246003D0503193F290130B9070130BD36BC0CD5
:10325600BB0CBA0C890B292922290130B907013088
:10326600BA070030BB3DBC3DBD3D0130BD36BC0C90
:10327600BB0CBA0C890B3929FF303D0503195129BE
:10328600302902303902031C53290130B9020130BA
:10329600BA35BB0DBC0DBD0D890B4B29BC1F44298E
:1032A60039185D29FF30BA05FF30BB057F30BC05F4
:1032B600FF30BD050310B90C3908B400B501B601DD
:1032C600B7011830B435B50DB60DB70D890B6529A4
:1032D6003408BA043508BB043608BC043708BD04F4
:1032E6003808031DB31F7829BD173D08B3003C08F5
:1032F600B2003B08B1003A08B00008004001B00136
:10330600A031022099317830A031F1209931003A6C
:103316000319A429AD31C02599310D304001AF0004
:103326002D30AE00D730890B9629AE0B9629AF0B00
:103336009629003201304001B0070A303002031CE2
:1033460083290030A031F1209931AE30A031F1202F
:103356009931D530A031F12099318030A031F1205A
:103366009931A830A031F12099313F30A031F120B8
:103376009931D330A031F12099314030A031F1207C
:1033860099314030A031F12099318D30A031F120B2
:1033960099311430A031F12099318130A031F120DA
:1033A6009931FF30A031F1209931D930A031F12087
:1033B6009931F130A031F12099312030A031F1203E
:1033C60099310230A031F12099312130A031F1201C
:1033D60099310030A031F12099317F30A031F120B0
:1033E60099312E30A031F1209931A030A031F12051
:1033F6009931C030A031F1209931DA30A031F12075
:1034060099310230A031F1209931DB30A031F12021
:1034160099314030A031F1209931A430A031F1200A
:103426009931A630A031F1209931AD31C0259931BD
:10343600AF3105279931AF30AD31D32508001616C7
:1034460009304001BF001E30BE00E430890B292A36
:10345600BE0B292ABF0B292A00009331C2239A31B9
:1034660068304001BE00E430890B372ABE0B372A8C
:103476000000993181219A317C1F482AA031B3205E
:103486009A317C13AF3105279A314001AC011130D6
:10349600AD00B130AE000930AF0000309431BA242F
:1034A6009A31A131B5219A314001AC01E930AD0024
:1034B600B030AE000930AF0002309431BA249A31F0
:1034C6002A304001AC003330AD00B130AE00AF0160
:1034D600AF0A00309431BA249A312A304001AC0048
:1034E6003330AD00B130AE00AF01AF0A02309431D7
:1034F600BA249A310F304301CA002730CB0064301A
:10350600E1000030E2000F30DF002730E000C801A4
:10351600C90149084001BD00430148084001BC00FB
:10352600A0317F209A31013042015C074301B80087
:10353600003042015D3D4301B900003042015E3D6D
:103546004301BA00003042015F3D4301BB00420126
:103556005F084301B70042015E084301B60042011D
:103566005D084301B50042015C084301B400FC124A
:103576007C12FC117C11FC102F08DA002E08D900F1
:103586002D08D8002C08D7002B08DE002A08DD00FD
:103596002908DC002808DB000800AE3111269A3124
:1035A6004B084D06031DD92A4A084C060319042B5D
:1035B6004D08CB004C08CA004D084001AD00430140
:1035C6004C084001AC0088310B209A3143014D086C
:1035D600803A4001C3008E304302031DF52AD930DC
:1035E60043014C020318FF2A43014408013EC6006A
:1035F6000030453DC700042B43014508C700440879
:10360600C6004D08803A4001C3008E304302031DB8
:103616000F2B753043014C02031C212B40019711DF
:10362600171602304001C4003830C300AD30890B94
:103636001A2BC30B1A2BC40B1A2B3E2B43014D0816
:10364600803A4001C3008E304302031D2D2B073004
:1036560043014C02031C422B400197111712023002
:103666004001C4003830C300AD30890B382BC30B82
:10367600382BC40B382B400197151716542B4001D5
:103686001712971502304001C4003830C300AD3020
:10369600890B4B2BC30B4B2BC40B4B2B4001171623
:1036A600971543014D08803A4001C3008D3043020F
:1036B600031D602B483043014C0203180800AF314C
:1036C60005279A314001AC01D330AD00B030AE00D1
:1036D6000B30AF0001309431BA249A315230400198
:1036E600C4002B30C3000030890B772BC30B772B1C
:1036F600C40B772B000040011612A4316924080080
:10370600A33123239B318A3177229B31400117163F
:1037160019157C179A3122229B31883101209B3161
:10372600FC1343012F08DA002E08D9002D08D80013
:103736002C08D7002B08DE002A08DD002908DC004B
:103746002808DB003B0842015F02031DBA2B430138
:103756003A0842015E02031DBA2B430139084201B1
:103766005D02031DBA2B4301380842015C02031CAB
:10377600C82BB8304301B8070B30B93D0030BA3D0D
:103786000030BB3D9A31D0229B31430137084201BC
:103796005F02031DDE2B4301360842015E02031D54
:1037A600DE2B4301350842015D02031DDE2B43017A
:1037B600340842015C02031CEC2B2C304301B40795
:1037C6000130B53D0030B63D0030B73D8D31FC25AA
:1037D6009B3143012F082E042D042C040319FB2BC7
:1037E6005A08590458045704031DFB2B40011612AE
:1037F60043012B082A042904280403190B2C5E080C
:103806005D045C045B04031D0B2CA43169249B310D
:10381600FC1E172C4001161E142CA63109269B31BE
:10382600172C9A3122229B317C1E232C4001161E16
:10383600202C983103209B31232C9A3122229B3154
:10384600FC1D2F2C4001161E2C2CAE3186269B31DA
:103856002F2C9A3122229B317C1D3A2C4001161ABC
:10386600372C9A3122229B31A63109269B31FC1C2A
:10387600A52B4001161A462CAE31E3269B319A3110
:1038860022229B31A52B983103209B31A52B963004
:103896004101EC000030ED002C30EA000130EB0075
:1038A6004201E401E501E201E3014101EE01EF011C
:1038B60042016508803A4001EF0043014308803A1F
:1038C60040016F02031D6B2C430142084201640252
:1038D60003181F2DFC1E752CA63109264201E20194
:1038E600E3010800FC19712CA13171219C314301BF
:1038F6004308803A4001EF0042016508803A4001E2
:103906006F02031D8A2C4201640843014202031818
:10391600A32C42016508803A4001EF0043014108AB
:10392600803A40016F02031D9C2C4301400842016E
:1039360064020318A32C08309531B0259C31AF2CB6
:1039460006304001EF003030890BA72CEF0BA72C77
:103956000000A13171219C3143014308803A4001A6
:10396600EF0042016508803A40016F02031DBF2C3B
:1039760042016408430142020318D32C4201650840
:10398600803A4001EF0043014108803A40016F024E
:10399600031DD12C4301400842016402031C0800A8
:1039A60041016C086D040319F12C0130EC02003062
:1039B600ED3B4201650841016F02031DE62C420101
:1039C600640841016E0203185B2C4201650841013F
:1039D600EF00420164084101EE005B2C6F084301D1
:1039E6006006031DFA2C41016E0843015F060319A8
:1039F600072D41016F084001BD0041016E084001DD
:103A0600BC00A431C7249C3141016F084301E0008A
:103A160041016E084301DF004101EE01EF01323042
:103A2600EC000030ED006A086B040319712C0130BC
:103A3600EA020030EB3B5B2C43014108803A40012F
:103A4600EF0042016508803A40016F02031D2F2DE9
:103A56004201640843014002031808006D2CF70078
:103A66007718382D400199173A2D40019913770898
:103A7600F6000130F636890B3D2D7618452D4001AE
:103A86001917472D400119137708F6000230F6364C
:103A9600890B4A2D7618522D40019916542D400156
:103AA60099127708F6000330F636890B572D7618EB
:103AB6005F2D40011916612D400119127708F60095
:103AC6000430F636890B642D76186C2D4001981754
:103AD6006E2D400198137708F6000530F636890BEF
:103AE600712D7618792D400118177B2D400118137A
:103AF6007708F6000630F636890B7E2D7618862D69
:103B060040019816882D4001981274188D2D400199
:103B160096168F2D400196127408F6000130F6367F
:103B2600890B922D76189A2D40019A149C2D4001EE
:103B36009A107408F6000230F636890B9F2D761817
:103B4600A72D40019617A92D400196137408F6007B
:103B56000330F636890BAC2D7618B42D40011617B6
:103B6600B62D400116137408F6000430F636890B9C
:103B7600B92D7618C12D40011814C32D4001181017
:103B86007408F6000530F636890BC62D7618CE2D4C
:103B960040019814D02D400198107408F6000630A4
:103BA600F636890BD32D7618DB2D40011815DD2D41
:103BB60040011811750C031C1A1003181A149915D4
:103BC60043014708F2004608F100AD31AE259D31AC
:103BD600400199111A30890BEE2D0032400118125E
:103BE60043014708F2004608F100AD31AE259D318C
:103BF6004001181643014708F2004608F100AD31AE
:103C0600AE259D3140019913191399121912981373
:103C16001813981296129A109613161318109810D5
:103C260018111A101530F600C630890B182EF60B2F
:103C3600182E0032080042016708C70043014E08EB
:103C4600031D332E0A30F10042016708AE31C42647
:103C56009E31BE00BF013E08C1003F08C200382E9B
:103C660001304201C1000030C2004108CA004A08C2
:103C7600031D3F2E0130CA009C314A249E31420169
:103C86006108C9006008C8004A08E7076708F40029
:103C96006608F50068089D3132259E319C314A241C
:103CA6009E3142014908803ABE006108803A3E02D0
:103CB600031D5F2E60084802031CBB2E42016108EB
:103CC600C9006008C8006708C7004A08E70700304F
:103CD600BF004A087F3CBE00031CBF033F08803A72
:103CE600C00080304002031D7A2E67083E02031C86
:103CF600042F42016708F4006608F50068089D3144
:103D060032259E319C314A249E3142014908803A2F
:103D1600BE006108803A3E02031D932E60084802E9
:103D2600031C042F42016708C7006108C900600828
:103D3600C80043014E08031DAE2E0A30F1004201B1
:103D46006708AE31C4269E31BE00BF013E08C300DF
:103D56003F08C400B32E01304201C3000030C40046
:103D66004308CA004A08031D682E0130CA00682E9F
:103D760042016108C9006008C800E62E42016708D2
:103D8600C7006108C9006008C80043014E08031D4A
:103D9600DA2E0A30F10042016708AE31C4269E31A0
:103DA600BE00BF013E08C5003F08C600DF2E013039
:103DB6004201C5000030C6004508CA004A08031D76
:103DC600E62E0130CA004A08E7024A086702031CC9
:103DD600042F6708F4006608F50068089D3132254F
:103DE6009E319C314A249E3142014908803ABE00E8
:103DF6006108803A3E02031D022F6008480203183C
:103E0600C12E42014708E7006708F4006608F5007E
:103E160068089D313225080042016808C700430141
:103E26004E08031D242F0A30F10042016808AE3106
:103E3600C4269F31BE00BF013E08C1003F08C20034
:103E4600292F01304201C1000030C2004108CA00DA
:103E56004A08031D302F0130CA009C314A249F3185
:103E660042016108C9006008C8004A08E8076708F7
:103E7600F4006608F50068089D3132259F319C31B3
:103E86004A249F3142014908803ABE006108803ABF
:103E96003E02031D502F60084802031CAC2F42014E
:103EA6006108C9006008C8006808C7004A08E80732
:103EB6000030BF004A087F3CBE00031CBF033F081A
:103EC600803AC00080304002031D6B2F68083E0216
:103ED600031CF52F42016708F4006608F500680820
:103EE6009D3132259F319C314A249F314201490838
:103EF600803ABE006108803A3E02031D842F6008A6
:103F06004802031CF52F42016808C7006108C90072
:103F16006008C80043014E08031D9F2F0A30F100B8
:103F260042016808AE31C4269F31BE00BF013E087B
:103F3600C3003F08C400A42F01304201C300003073
:103F4600C4004308CA004A08031D592F0130CA009D
:103F5600592F42016108C9006008C800D72F4201E5
:103F66006808C7006108C9006008C80043014E0818
:103F7600031DCB2F0A30F10042016808AE31C4267A
:103F86009F31BE00BF013E08C5003F08C600D02FC6
:103F960001304201C5000030C6004508CA004A0883
:103FA600031DD72F0130CA004A08E8024A086802F2
:103FB600031CF52F6708F4006608F50068089D31B4
:103FC60032259F319C314A249F3142014908803A6B
:103FD600BE006108803A3E02031DF32F60084802C6
:103FE6000318B22F42014708E8006708F400660884
:0A3FF600F50068089D31322508002F
:10400400400196154230890B0528003240011615EF
:104014004230890B0B280032400116114230890BC3
:1040240011280032400196114230890B17280032C2
:10403400080000304001A3000030A2000030A100BD
:104044000030A000711C2F2875084001A0077608D5
:10405400A13D7708A23D7808A33D0130F535F60D62
:10406400F70DF80D890B30280130F436F30CF20CFF
:10407400F10C890B37287408730472047104031D4E
:10408400242840012308F4002208F3002108F20048
:104094002008F10008004301CE014201CD01670868
:1040A400CB006808CC0068086702031C60289E31B6
:1040B4001E26A0319F310F27A03166289F310F277C
:1040C400A0319E311E26A031420167084B06031D14
:1040D400752868084C06031D752843014E08031D06
:1040E4007C280130CE0001304201CD0704304D025E
:1040F400031C51284301CE0108003C083D04031D64
:104104008F283C30AC002630AD00B130AE00043016
:10411400AF0002309431BA2408003D08F9003C088D
:10412400F800CF30FA0087319827A03143015208B4
:104134004401A0002E30A100430153084401A20011
:10414400430154084401A3003C304001AC0020303A
:10415400AD000230AE000430AF0002309431BA2416
:10416400080040019711AF310527A0314001AC018F
:104174006230AD00B030AE001230AF000130A23179
:104184004222A0314001AC01A130AD00B030AE00FC
:104194000C30AF000330A2314222A0315430400130
:1041A400AC002F30AD00B130AE000330AF000330AF
:1041B400A2314222A0317A304001BB00C130BA00A2
:1041C4008130890BE328BA0BE328BB0BE3280032C8
:1041D40040018D1AEF280000EA28971508004001D5
:1041E400A500A6012508A2000730A236890BF728EE
:1041F40022080139A300A30DA30D16082306FB39D9
:10420400230696004230890B052900324001961599
:104214004230890B0B290032400196112535A50047
:104224000130A60708302602031CF4281615423074
:10423400890B1A290032400196150C0C890C01399E
:10424400A4004230890B24290032400196114230E7
:10425400890B2A290032400124080800A8002708F5
:10426400023EAB00A0310220A1317830A031F12010
:10427400A1310030A031F120A1312808B03EA03195
:10428400F120A13110302B0203184C292B08A9006E
:10429400AA015D292B08FB000430FB36890B4F294A
:1042A4007B08AA00F030F1002A08AD317D25A13148
:1042B40040012B07A9002908A031F120A1312A08C7
:1042C400103EA031F120A131A0310220A13178307B
:1042D400A031F120A1314030A031F1200800A731F4
:1042E4007B27A1312408B0002508B100890D893B42
:1042F4008909B200B30001309831F420A1313308A8
:104304004101E100400132084101E000400131086F
:104314004101DF00400130084101DE0098316F2087
:10432400A1312408B0002508B100890D893B890911
:10433400B200B30001309831F420A13133084101B7
:10434400E500400132084101E40040013108410127
:10435400E300400130084101E2008031F020A13146
:10436400AF312A270800A0310220A1317830A031D2
:10437400F120A1314030A031F120A131B3017330DB
:10438400A7003308A1313021A131B2013308AC00B8
:10439400AD012C08F7002D08F8000B30F9000030AF
:1043A400FA00AE314A26A1310030AE00B030AF0081
:1043B40077082E07B00078082F3DB1003208300787
:1043C400840031080318013E85000008A031F12063
:1043D400A1310130B2070B303202031CC82901306D
:1043E400B30704303302031CC129AD31C0250800D2
:1043F40000304105C90000304205CA008030430541
:10440400CB007F304405CC004C084B044A044904DB
:10441400031D142A0030C4000030C3000030C20061
:104424000030C10000304505C90000304605CA000F
:1044340080304705CB007F304805CC004C084B0446
:104444004A044904031D2E2A0030C8000030C70066
:104454000030C6000030C50048084406031D3C2A4D
:1044640047084306031D3C2A46084206031D3C2A0E
:10447400450841060319402A0310080003140800E4
:10448400B6002C08A7003608A1313021A231B801AA
:104494002F0838020318892A38082D0784002E08AB
:1044A4000318013E85000008E03EB700B901370853
:1044B400B000B1013008F7003108F8000530F90008
:1044C4000030FA00AE314A26A2310030B2009030FA
:1044D400B30077083207B4007808333DB5003908D3
:1044E4003407840035080318013E85000008A03114
:1044F400F120A2310130B90705303902031C592AD1
:104504000030A031F120A2310130B8074A2AAD3180
:10451400C02508000030A7000030A6000030A50028
:104524006430A4003208F1003308F200890D893B9D
:104534008909F300F4000030F8000030F70000307F
:10454400F6001930F500A0311B20A2317408AB002D
:104554007308AA007208A9007108A800A631FE26F3
:10456400A2312708B7002608B6002508B50024089C
:10457400B400B71BCA2A3708031DD02A3608031D06
:10458400D02A3508031DD02AC93034020318D02A92
:1045940040013508B3003408B2000800C8304001B7
:1045A400B2000030B3000800A701A31FE02AA2094B
:1045B400A309A20A0319A30A0130A700A51FE92A27
:1045C400A409A509A40A0319A50A0130A706A8018C
:1045D400A901220823040319162B0130A600A31BEA
:1045E400FB2A0130A235A30D890BF42A0130A6075A
:1045F400F12A0130A835A90D890BFC2A23082502CC
:10460400031D062B22082402031C0D2B2208A402DE
:104614002308A53B28140130A336A20C890B0E2BCA
:104624000130A602031DFB2A270803191E2BA80923
:10463400A909A80A0319A90A2908A3002808A2009D
:1046440008007E01B801C3014314C3144315CE010D
:10465400E401D90153019013941340018C018D019D
:104664008E018F0190019601970110309800063059
:1046740099009A01910127309200930194019501C8
:104684007E013A15BA15DB145B1540019F121F1702
:104694009F131E16C0309C00E0309D004E018C120A
:1046A40040019E174E0196161E304F019600FE30B3
:1046B4009700473098007F30990077309A00DF30B8
:1046C4009B008B170530F2000F30F100F130890B9D
:1046D400692BF10B692BF20B692B000008004201D6
:1046E400C1019C314A24A33142016108C30060081E
:1046F400C2000130E700872B42016708C10061084E
:10470400C3006008C2000310E70D413067020318BC
:10471400B82B6708F4006608F50068089D31322557
:10472400A3319C314A24A331420143084001B30020
:10473400420142084001B200A2318C22A33142015D
:104744004208400132074201BE0043084001333DA4
:104754004201BF003F08803AC0006108803A40022D
:10476400031DB62B60083E0203187E2B420141084C
:10477400E7006708F4006608F50068089D313225F3
:1047840008004201C1019C314A24A331420161085D
:10479400C3006008C2000130E800D92B4201680858
:1047A400C1006108C3006008C2000310E80D413075
:1047B400680203180A2C6708F4006608F500680804
:1047C4009D313225A3319C314A24A331420143084F
:1047D4004001B300420142084001B200A2318C22E0
:1047E400A33142014208400132074201BE0043089E
:1047F4004001333D4201BF003F08803AC0006108D8
:10480400803A4002031D082C60083E020318D02B96
:1048140042014108E8006708F4006608F5006808EA
:104824009D31322508004201C3019C314A24A43140
:1048340042016108C2006008C1000130E8002B2C6D
:1048440042016808C3006108C2006008C100031087
:10485400E80D4130680203185C2C6808F40066080F
:10486400F50068089D313225A4319C314A24A431D5
:10487400420142084001B300420141084001B20034
:10488400A2318C22A4314201410840013207420185
:10489400BE0042084001333D4201BF003F08803A58
:1048A400C0006108803A4002031D5A2C60083E0291
:1048B4000318222C42014308E8004308E700670874
:1048C400F4006608F50068089D31322508008B1352
:1048D40040019E134E018C1216167E01CA12C9168F
:1048E4004001161217169715C2014208031D892CA0
:1048F40005304001C1000F30C000F130890B802C1D
:10490400C00B802CC10B802C7E01CA1263000000F6
:1049140005304001C1000F30C000F130890B902CEC
:10492400C00B902CC10B902C40018D1A9C2C013093
:10493400C2079D2CC20110304202031C772C4E0189
:1049440016127E01C912CA1240019E178B177C17DA
:104954009A312222A43140018D1AB22C0000AD2CD0
:104964004201EA01FC127C12FC115F084301B3000E
:1049740042015E084301B20042015D084301B100F7
:1049840042015C084301B00008003C083D04031DDB
:10499400D72C3C30AC002B30AD00B130AE0003302E
:1049A400AF0000309431BA24080000303D020A30D0
:1049B40003193C020318EF2C3D08F9003C08F800E9
:1049C400CF30FA0087319827A43130304401A00059
:1049D4002E30A10043015408182D00303D026430EC
:1049E40003193C020318022D3D08F9003C08F800A5
:1049F400CF30FA0087319827A43143015308E82CBB
:104A04000530BC070030BD3D3D08F9003C08F80006
:104A1400CF30FA0087319827A43120304401A00018
:104A2400430152084401A100430153084401A20078
:104A34003C304001AC002030AD000230AE00033009
:104A4400AF0000309431BA24080003103B0D3C0D34
:104A54004001EE006E08031D392D00304101BC00F9
:104A64000030BB000030BA000030B900080041013A
:104A74003908BD003A08BE003B08BF003C08C0002E
:104A84001F30C036BF0CBE0CBD0C890B432D3D0836
:104A94004001ED004101BB17FF30B905FF30BA05F5
:104AA400FF30BB050030BC0596304001EE02EE1F1E
:104AB4006E2D6E08803A973E031C2F2D0130410164
:104AC400BC36BB0CBA0CB90C890B612D013040010A
:104AD400EE070319812D602D20306E0203182F2D4F
:104AE4006E080319812D01304101B935BA0DBB0D92
:104AF400BC0D890B762D01304001EE02722D6D083C
:104B0400031908004101B909BA09BB09BC09B90A6A
:104B14000319BA0A0319BB0A0319BC0A08009C3119
:104B24004A24A53142016308803AD20080305202FF
:104B3400031D9E2D79306202031C0800AF319F27AC
:104B4400A5319C314A24A53142016308803AD20040
:104B540080305202031DB02D79306202031C08001C
:104B640042016108D4006008D3006708D5006808D2
:104B7400D6006603031DC02DE601C22D0130E600F8
:104B8400AF319F27A5319C314A24A53142015408F5
:104B9400803AD2006108803A5202031DD32D600886
:104BA40053020318EC2D42016603031DDB2DE601BD
:104BB400DD2D0130E6005508E7005608E8006708D7
:104BC400F4006608F50068089D313225A5319C3152
:104BD4004A24A53142016308803AD200803052024F
:104BE400031DF62D79306202031C0800A0314D200C
:104BF400A5319C314A24A531E730420162060330D5
:104C040003196306031D0800AD3170250800400137
:104C14009711AD317025A6314001AC01FD30AD00D6
:104C2400B030AE000930AF0002309431BA24A6315E
:104C340019304001BD005A30BC00B130890B202E20
:104C4400BC0B202EBD0B202E00324001AC011B30CA
:104C5400AD00B130AE000530AF0002309431BA245B
:104C6400A6312A304001AC003330AD00B130AE0083
:104C7400AF01AF0A02309431BA24A6313C3040016E
:104C8400AC002630AD00B130AE000430AF000230CD
:104C94009431BA24A6314301E101E2010D3040010F
:104CA400BD002D30BC00D730890B562EBC0B562EC0
:104CB400BD0B562E003240019715FC127C114201A7
:104CC400EA015F084301BB0042015E084301BA00E8
:104CD40042015D084301B90042015C084301B80088
:104CE40042015F084301B70042015E084301B60078
:104CF40042015D084301B50042015C084301B40070
:104D0400080000304105C90000304205CA00803067
:104D14004305CB007F304405CC004C084B044A04C7
:104D24004904031D9D2E0030C4000030C300003030
:104D3400C2000030C10000304505C90000304605FE
:104D4400CA0080304705CB007F304805CC004C08B2
:104D54004B044A044904031DB72E0030C800003038
:104D6400C7000030C6000030C500C41FD12E00307B
:104D7400C9000030CA000030CB008030CC004108AC
:104D8400C9024208CA3B4308CB3B4408CC3B4C080D
:104D9400C4004B08C3004A08C2004908C100C81F28
:104DA400EB2E0030C9000030CA000030CB00803048
:104DB400CC004508C9024608CA3B4708CB3B480813
:104DC400CC3B4C08C8004B08C7004A08C600490839
:104DD400C5008030C4068030C80648084402031D5C
:104DE400080047084302031D080046084202031D49
:104DF4000800450841020800AD01A71F0E2FA409B1
:104E0400A509A609A709A40A0319A50A0319A60A4C
:104E14000319A70A0130AD00AB1F1D2FA809A9096A
:104E2400AA09AB09A80A0319A90A0319AA0A0319AA
:104E3400AB0A0130AD060030B1000030B0000030E4
:104E4400AF000030AE00270826042504240403190B
:104E5400642F0130AC00A71B392F0130A435A50DF8
:104E6400A60DA70D890B302F0130AC072D2F013073
:104E7400AE35AF0DB00DB10D890B3A2F27082B02BB
:104E8400031D4E2F26082A02031D4E2F2508290232
:104E9400031D4E2F24082802031C592F2408A8029E
:104EA4002508A93B2608AA3B2708AB3B2E14013052
:104EB400A736A60CA50CA40C890B5A2F0130AC0202
:104EC400031D392F2D080319722FAE09AF09B0093C
:104ED400B109AE0A0319AF0A0319B00A0319B10ADA
:104EE4003108A7003008A6002F08A5002E08A4004A
:104EF40008002030AF314F27A731A0300032890B92
:104F0400802F0830AD318C25A73172084001AB00E9
:104F14007108AA002A0A033003192B06031DA32FC4
:104F24004030AF314F27A731A0300032890B972F83
:104F34000830AD318C25A73171354001AA00720DBE
:104F4400AB00FE302A06073003192B06031DFB2F86
:104F54001030AF314F27A731A0300032890BAF2F6B
:104F64000830AD318C25A73172084001AB007108BF
:104F7400AA002A0A033003192B060319FC17AE31C1
:104F84001126A73140012A08F1002B08F200F30191
:104F9400F40143014C08F5004D08F600890D893BE6
:104FA4008909F700F800A0311B20A7317408AF006D
:104FB4007308AE007208AD007108AC002C08A6009E
:104FC4002D08A7002E08A8002F08A9000A30A9362A
:104FD400A80CA70CA60C890BE92F2908AF002808F8
:104FE400AE002708AD002608AC002D08AB002C0845
:0C4FF400AA002B08A5002A08A400080051
:105AE0004201E8010130E700E6016708F4006608BA
:105AF000F50068089D3132250800F300F201731C9F
:105B0000832D7108F2070310F10D0310F30C7308D5
:105B1000031D7F2D72080800F300730841019E00E9
:105B20003530890B912D0000410113141318962D67
:105B30000D08F2000C08F1000800F6000F307605A1
:105B4000F4000A30F1007608F5000430F536890BD0
:105B5000A62D7508AD317D25740708000130F102CE
:105B60000030F23B710A0319720A031908000B3066
:105B7000F3006230890BBA2DF30BBA2D0032AE2D33
:105B8000400116114230890BC32D00324001961599
:105B90004230890BC92D0032400116154230890B65
:105BA000CF2D00320800FB00A0310220AD3178304B
:105BB000A031F120AD318030A031F120AD317B0832
:105BC000A031F120AD31AD31C02508000A340034D8
:105BD000003400340A340034003400340F342734E5
:105BE00064340034013402344034783401340234F3
:105BF00040347834F4007408031D002E003008008F
:105C0000FF307407F100F10A8030F2000030F30039
:105C10000C2E730DF30CF20CF10B092E7208003CE4
:105C200008002030AF314F27AE31A0300032890B51
:105C3000162E0930AD318C25AE317208F80071088E
:105C4000F7000B30F9000030FA00AE314A26780830
:105C50004301CD007708CC0008008030BC06400826
:105C6000B0003F08AF003E08AE003D08AD003C0864
:105C7000B4003B08B3003A08B2003908B1008C31D7
:105C800013243008BC002F08BB002E08BA002D08D2
:105C9000B90008004001A001A101771C542E790829
:105CA0004001A0077A08A13D0130F935FA0D890BB2
:105CB000552E0130F836F70C890B5A2E77087804E8
:105CC000031D4D2E40012108F8002008F7000800B0
:105CD000F200F301F4017208F100740A702EF1363B
:105CE000890B6F2E711C7E2E0330F1007435890AEA
:105CF0007A2EF135890B792E7108F3040130F407FF
:105D000004307402031C6B2E73080800AF310527A2
:105D1000AE314001AC01C730AD00B030AE000B3049
:105D2000AF0001309431BA24AE3152304001C4008A
:105D30002B30C3000030890B9B2EC30B9B2EC40B52
:105D40009B2E0000A43169240800F900F501F6013A
:105D50007108F300F4017308F7007408F800791C67
:105D6000B52E7708F5077808F63D0130F735F80DC0
:105D7000890BB62E0310F90C7908031DAF2E760897
:105D8000F2007508F1000800F200F401710803192F
:105D9000E12E0130F300F11BD22E0310F10D013082
:105DA000F307CB2E0310F40D71087202031CDC2ED6
:105DB0007108F20274140310F10C0130F302031D98
:105DC000D22E740808009711161619119C314A2416
:105DD000AE3142016308803AD70080305702031D7C
:105DE000F32E64306202031CF72EA5319125400189
:105DF0001915420163084301C900420162084301C9
:105E0000C80040019715FC100800A0310220AF31F6
:105E10007830A031F120AF314030A031F120AF31E6
:105E2000AD01A7012D08A1313021AF31AC01013006
:105E3000AC070030A031F120AF3180302C02031CC0
:105E4000172F0130AD0708302D02031C112FAD3183
:105E5000C02508006508803A4001C000803040023B
:105E6000031D352F013042016402031C080040016C
:105E7000161E4C2F43012F08DA002E08D9002D08DA
:105E8000D8002C08D7002B08DE002A08DD002908DE
:105E9000DC002808DB0008009A3122220800F30009
:105EA000410193137308603903196B2F731B5A2F29
:105EB00001305B2F0230F1000030F20052010C087B
:105EC0007106FC3971068C008C170C1F652F03308E
:105ED00041019A006C2F9A019401950196019D0150
:105EE0009C01143093009317080071087204031981
:105EF0009A2F0130F500F21B852F0130F135F20D9C
:105F0000890B7E2F0130F5077B2F72087402031D69
:105F10008B2F71087302031C912F7108F302720812
:105F2000F43B0130F236F10C890B922F0130F5026F
:105F3000031D852F7408F2007308F1000800420168
:105F4000E701E8016708F4006608F50068089D317C
:105F50003225AF319C314A24AF3142016308803A87
:105F6000D10080305102031DB72F79306202031C2B
:105F700008009331C523AF319C314A24AF3142012F
:105F80006308803AD10080305102031DC92F793057
:105F90006202031C0800A0314D200800F601F70141
:105FA000710872040319FB2F0130F500F21BE02F7A
:105FB0000130F135F20D890BD92F0130F507D62FBD
:105FC0000130F635F70D890BE12F72087402031DBD
:105FD000EB2F71087302031CF22F7108F302720891
:105FE000F43B76140130F236F10C890BF32F0130BB
:105FF000F502031DE02F7708F2007608F100080093
:10600000F834F8341F341F340334033403341F349A
:106010001F34F834F834FF34FF34003400340034D3
:106020000034003400340034FF34FF34FF34FF34D4
:106030000034003400340034003400340034FF34C1
:10604000FF34FF34FF34C034C034C034C034C034F3
:10605000C034C034FF34FF34F834F8341F341F34F4
:106060000334033403341F341F34F834F834FF345A
:10607000FF34003400340034003400340034003481
:10608000FF34FF34FF34FF34003400340034003474
:10609000003400340034FF34FF34FF34FF34C034A4
:1060A000C034C034C034C034C034C034FF34FF34D2
:1060B00005343034073410341534133401340434C7
:1060C0001434603420344434453453344934473430
:1060D0004E344534443420344234593420344E3420
:1060E00037344434443443340034533474346134E6
:1060F00063346B34203475346E34643465347234F4
:1061000066346C346F34773400345334743461340F
:1061100063346B3420346F347634653472346634CF
:106120006C346F34773400344D3443344C3452344F
:10613000203472346534733465347434203420343C
:1061400000342034463457342034563445345234E5
:10615000533449344F344E342034003457344434AB
:10616000543420346F3476346534723466346C348D
:106170006F347734003442344F3452342034723424
:10618000653473346534743420342034003420345E
:1061900050344F3457344534523420344F3446341D
:1061A000463420340034203420344C344F345734B7
:1061B00020344234413454345434203400342034B4
:1061C000203420342034203420342034203420342F
:1061D00000345334573452342034203420342034A3
:1061E000203420340034543455344E344534203473
:1061F0002034203420342034003452344534533495
:1062000045345434203420342034203400344F3486
:106210005634453452344C344F34413444342034B1
:106220000034503457345234203420342034203455
:10623000203457340034533457345234203420340B
:1062400000345334573452342034003430342E3434
:1062500030343034003430342E343034003431347F
:0E6260002E34363400343D3400343E340034E5
:020000040001F9
:0A000E008C3F3D3F9F3FFF3FFF3F47
:00000001FF
