:040000008031CB2858
:100008007E14803100308600003087004E018C1E3F
:10001800C9288C1201304301C0070030C13DC23DE0
:10002800C33D5C085B045A045904031927280130AE
:10003800D9020030DA3BDB3BDC3B5C085B045A044A
:10004800590403197C1560085F045E045D040319F4
:1000580039280130DD020030DE3BDF3BE03B600841
:100068005F045E045D040319FC14C03040019C0069
:10007800E0309D00430137084302031D4D28360830
:100088004202031D4D2835084102031D4D2834083E
:100098004002031CC9280A30B4070030B53DB63DFC
:1000A800B73D40018F185A2801305B280030F00016
:1000B8008D1A602801306128003070040038031957
:1000C800782843012F08DC002E08DB002D08DA0011
:1000D8002C08D9002B08E0002A08DF002908DE00D8
:1000E8002808DD007C11FC1040018D1A9728FA3091
:1000F80042016902031882280130E90719306906AC
:1001080003197C174001160E0139F000FA3042013C
:100118006906031D912801309228003070050319E3
:10012800A228FC16A228033042016902031CA12858
:10013800193069020318A128FC17E90140018F183A
:10014800BE281930420168020318AC280130E807BC
:1001580040010F0C890C0139F00014304201680687
:10016800031DB8280130B928003070050319C928C3
:10017800FC15C928023042016802031CC8280A304D
:1001880068020318C8287C16E8017E10090080312F
:10019800CD2823308400AD308500D9308600013069
:1001A800870014308731FA278031FC014201EA01C7
:1001B8005C308400013085000E30AC31B6248031CB
:1001C800A0308400013085003930AC31B62480314C
:1001D80020308400023085001030AC31B6247E1007
:1001E80040019B319A2B44304001C1007A30C00055
:1001F8000030BF000030BE00410161084001C50069
:10020800410160084001C40041015F084001C3008A
:1002180041015E084001C20089312821803141082E
:100228004101E100400140084101E00040013F0870
:100238004101DF0040013E084101DE004430400139
:10024800C1007A30C0000030BF000030BE0041015C
:1002580065084001C500410164084001C40041012E
:1002680063084001C300410162084001C2008931AE
:100278002821803141084101E50040014008410141
:10028800E40040013F084101E30040013E0841010C
:10029800E20061084001DB00410160084001DA002A
:1002A80041015F084001D90041015E084001D800C2
:1002B800430127084001DF00430126084001DE0012
:1002C800430125084001DD00430124084001DC000A
:1002D8008531112580315B084201A70040015A0889
:1002E8004201A600400159084201A50040015808F2
:1002F8004201A400410161084001DB00410160089E
:100308004001DA0041015F084001D90041015E085F
:100318004001D800430123084001DF0043012208BF
:100328004001DE00430121084001DD0043012008AF
:100338004001DC008531112580315B084101B000A6
:1003480040015A084101AF00400159084101AE007F
:10035800400158084101AD0061084001DB0041013E
:1003680060084001DA0041015F084001D9004101FD
:100378005E084001D800420127084001DF00420121
:1003880026084001DE00420125084001DD00420147
:1003980024084001DC008531112580315B084101CA
:1003A800B40040015A084101B30040015908410115
:1003B800B200400158084101B1008E311726803142
:1003C8003008E1002F08E0002E08DF002D08DE00CD
:1003D80065084001DB00410164084001DA00410181
:1003E80063084001D900410162084001D800430177
:1003F80027084001DF00430126084001DE004301D1
:1004080025084001DD00430124084001DC00853156
:10041800112580315B084201A70040015A084201BA
:10042800A600400159084201A500400158084201B0
:10043800A400410165084001DB0041016408400156
:10044800DA00410163084001D90041016208400116
:10045800D800430123084001DF004301220840017E
:10046800DE00430121084001DD004301200840016E
:10047800DC008531112580315B084101B000400165
:100488005A084101AF00400159084101AE0040013E
:1004980058084101AD0065084001DB0041016408CE
:1004A8004001DA00410163084001D90041016208B6
:1004B8004001D800420127084001DF004201260818
:1004C8004001DE00420125084001DD004201240808
:1004D8004001DC008531112580315B084101B40001
:1004E80040015A084101B300400159084101B200D6
:1004F800400158084101B1008E311726803130087B
:10050800E5002F08E4002E08E3002D08E20061084A
:100518004001DF00410160084001DE0041015F0841
:100528004001DD0041015E084001DC004130DB0094
:100538002030DA000030D9000030D800853111258C
:1005480080315B084101B40040015A084101B30001
:10055800400159084101B200400158084101B10069
:100568003F30B0000030AF000030AE000030AD00CA
:100578008E31172680313008BC002F08BB002E08AA
:10058800BA002D08B900A6312D26803141013A085C
:100598004201E100410139084201E0000030410117
:1005A800C4000030C3000030C2000030C100610840
:1005B800C8006008C7005F08C6005E08C500A7310C
:1005C800852780310318FD2A6508C4006408C30024
:1005D8006308C2006208C1006108C8006008C7005B
:1005E8005F08C6005E08C500A73185278031031C57
:1005F800032B10304201DC002730DD00652B650835
:100608004001C500410164084001C400410163087C
:100618004001C300410162084001C2004101610874
:100628004001C100410160084001C00041015F086C
:100638004001BF0041015E084001BE008931282108
:1006480080314108DF004008DE003F08DD003E0839
:10065800DC004630DB001C30DA004030D9000030C6
:10066800D8008531112580315B084101B400400173
:100678005A084101B300400159084101B200400144
:1006880058084101B1003F30B0000030AF000030E1
:10069800AE000030AD008E31172680313008BC0026
:1006A8002F08BB002E08BA002D08B900A6312D2648
:1006B800803141013A084201DD0041013908420117
:1006C800DC006108803AFB0043014B08803A7B025A
:1006D800031D712B4A08420160020318772B42015F
:1006E800DE01DF01080041016508C4006408C30099
:1006F8006308C2006208C1006108C8006008C7003A
:100708005F08C6005E08C500A73185278031031C35
:10071800932BE7304201DE000330DF000800610858
:100728004001C100410160084001C00041015F086B
:100738004001BF0041015E084001BE00410165085B
:100748004001C500410164084001C400410163083B
:100758004001C300410162084001C20089312821DB
:10076800803141084201A300400140084201A20033
:1007780040013F084201A10040013E084201A0009B
:1007880023084101D000420122084101CF00420163
:1007980021084101CE00420120084101CD009631D7
:1007A800C926803150084201AB0041014F0842017F
:1007B800AA0041014E084201A90041014D08420129
:1007C800A8003F304101C0008030BF000030BE00AB
:1007D8000030BD0042012B084101BC0042012A083B
:1007E8004101BB00420129084101BA004201280821
:1007F8004101B900AD31CC2580313C08C4003B082B
:10080800C3003A08C2003908C1000030C8000030EF
:10081800C7000030C6000030C500A2316622803112
:10082800031C1F2C3A304201AB008330AA0012305F
:10083800A9006F30A80042012B084101BC00420109
:100848002A084101BB00420129084101BA004201BE
:1008580028084101B9003F30C0008030BF00003097
:10086800BE000030BD00AD31CC2580313C084001D0
:10087800C10041013B084001C00041013A08400164
:10088800BF00410139084001BE003F304101B000BE
:100898008030AF000030AE000030AD0042012B08C0
:1008A8004101B40042012A084101B300420129086C
:1008B8004101B200420128084101B1008E311726DA
:1008C800803130084001C50041012F084001C400B3
:1008D80041012E084001C30041012D084001C2001A
:1008E80089312821803141084201AB00400140088C
:1008F8004201AA0040013F084201A90040013E0808
:100908004201A8002B084101C40042012A08410104
:10091800C300420129084101C200420128084101DF
:10092800C1003F30C8008030C7000030C60000302A
:10093800C500A731852780310318AB2C3F30420111
:10094800AB008030AA000030A9000030A800413078
:100958004101C4001F30C300C230C2008F30C10043
:1009680042012B084101C80042012A084101C70081
:10097800420129084101C600420128084101C50079
:10098800A73185278031031C8D2B42012B0840019C
:10099800DF0042012A084001DE0042012908400127
:1009A800DD00420128084001DC004230DB00C8308D
:1009B800DA000030D9000030D800853111258031A7
:1009C8005B084101B40040015A084101B3004001ED
:1009D80059084101B200400158084101B1003F30B7
:1009E800B0000030AF000030AE000030AD008E31F6
:1009F800172680313008BC002F08BB002E08BA002B
:100A08002D08B900A6312D2641013A084201DF0020
:100A1800410139084201DE0008005B0880394101C4
:100A2800A00040015B354101A2004001DA1F1E2DE4
:100A380041012214410122080319312D220A031D04
:100A48002E2D00304001DB000030DA000030D900E4
:100A58000030D8004001DA173A2D00304001DB00A1
:100A68000030DA000030D9000030D8005F08803943
:100A78004101A00640015F354101A1004001DE1F90
:100A8800472D410121144101210803195A2D210A3A
:100A9800031D572D00304001DF000030DE0000301C
:100AA800DD000030DC004001DE17632D003040011E
:100AB800DF000030DE000030DD000030DC004101E6
:100AC8002108031D2208031D732D00304001DB009F
:100AD8000030DA000030D9000030D80008004001AA
:100AE8005808F1005E08AE3144268531720841018C
:100AF800AC007108AB002B084001E000E101E20105
:100B0800E30163084101A600400162084101A50014
:100B1800400161084101A400400160084101A300AF
:100B28002C084001E000E101E201E3016308410112
:100B3800AA00400162084101A90040016108410181
:100B4800A800400160084101A70040015908F100D0
:100B58005D08AE314426853172084101AC00710848
:100B6800AB002B084001E000E101E201E30160086D
:100B78004101A307400161084101A43D4001620809
:100B88004101A53D400163084101A63D2C084001F3
:100B9800E000E101E201E30160084101A70740012B
:100BA80061084101A83D400162084101A93D400199
:100BB80063084101AA3D40015A08F1005C08AE31C2
:100BC8004426853172084101AC007108AB002B083E
:100BD8004001E000E101E201E30160084101A307EF
:100BE800400161084101A43D400162084101A53D61
:100BF800400163084101A63D2C084001E000E101E5
:100C0800E201E30160084101A707400161084101D1
:100C1800A83D400162084101A93D40016308410126
:100C2800AA3D0830A335A40DA50DA60D890B162ED7
:100C380040015908F1005C08AE314426853172083C
:100C48004101AC007108AB002B08A3072C08A43D98
:100C58000030A53DA63D40015808F1005D08AE31C1
:100C68004426853172084101AC007108AB002B089D
:100C7800A3072C08A43D0030A53DA63D0830A335A8
:100C8800A40DA50DA60D890B432E40015808F100AF
:100C98005C08AE314426853172084101AC00710808
:100CA800AB002B08A3072C08A43D0030A53DA63DAA
:100CB80040015908F1005E08AE31442685317208BA
:100CC8004101AC007108AB002B08A7072C08A83D10
:100CD8000030A93DAA3D40015A08F1005D08AE3137
:100CE8004426853172084101AC007108AB002B081D
:100CF800A7072C08A83D0030A93DAA3D40015A0885
:100D0800F1005E08AE314426853172084101AC001D
:100D18007108AB002B084001E00041012C0840019C
:100D2800E100E201E3010830E035E10DE20DE30DF9
:100D3800890B982E60084101A7074001610841010D
:100D4800A83D400162084101A93D400163084101F5
:100D5800AA3D26084001E000E101E201E301600844
:100D68004101A707400161084101A83D400162080F
:100D78004101A93D400163084101AA3D0830A3355E
:100D8800A40DA50DA60D890BC32E2208210740012D
:100D9800E000E101E10D6008823E4101AB00FF3057
:100DA8004001613D4101AC00A91BEF2E0130A73580
:100DB800A80DA90DAA0D890BDB2EA61B271401303F
:100DC800A335A40DA50DA60D890BE42EFF30AB07A6
:100DD800FF30AC3DD82EA101A61F112FFF302305EF
:100DE8004001E000FF30410124054001E100FF30EF
:100DF800410125054001E2007F30410126054001FF
:100E0800E3006308620461046004031D0E2F4101BE
:100E1800271C112F01304101A10021080319462F79
:100E28000130A7070030A83DA93DAA3D2A1C462F3E
:100E380027084001E000410128084001E100410184
:100E480029084001E20041012A084001E30001307D
:100E5800E400E337E20CE10CE00CE40B2D2F63080F
:100E68004101AA00400162084101A900400161084E
:100E78004101A800400160084101A7000130AB070B
:100E88000030AC3D2C08803A4001E0008030600220
:100E9800031D512FFF3041012B02031C5D2F7F30B2
:100EA8004101AA008030A9000030A8000030A70046
:100EB8008D2F41012C08803A4001E000803060020B
:100EC800031D692F013041012B020318762F0030D2
:100ED8004101AA000030A9000030A8000030A70096
:100EE800A0018D2F41012B08A200FF30A705FF307C
:100EF800A8057F30A9050030AA052218A9172208DD
:100F08004001E0000130E036890B872F600841017D
:100F1800AA002008AA042A084001DB004101290888
:100F28004001DA00410128084001D90041012708A1
:100F38004001D80008003C083D04031DAF2F3C3099
:100F4800AC002F30AD00B130AE000330AF00003040
:100F58009431CE24080000303D020A3003193C02C7
:100F68000318C62F3D08F9003C08F8002030FA00A5
:100F7800A531CB25873130304401A8002E30A90097
:100F88002508EC2F00303D02643003193C02031899
:100F9800D92F3D08F9003C08F8002030FA00A531A7
:100FA800CB25873144012408C12F0530BC07003008
:100FB800BD3D3D08F9003C08F8002030FA00A53195
:100FC800CB25873120304401A8002308A900240834
:100FD800AA003C304001AC002830AD000230AE0021
:100FE8000330AF0000309431CE240800FE00120018
:100FF8001E00FE0BFB2F0034F300F201731C0628C1
:101008007108F2070310F10D0310F30C7308031DA8
:101018000228720808004201BD000030B700003005
:10102800B6000030B5000030B4000030BB0000301E
:10103800BA000030B9000030B800BC013D083C02DD
:10104800031865289831AE20883124084101E6004C
:10105800400125084101E7000030E71BFF30E800A8
:10106800E90066084201B407410167084201B53D3D
:10107800410168084201B63D410169084201B73D96
:1010880099313521883124084101E60040012508BD
:101098004101E7000030E71BFF30E800E90066087F
:1010A8004201B807410167084201B93D410168089A
:1010B8004201BA3D410169084201BB3D0130BC070C
:1010C80022283D084101E600E701E801E901690835
:1010D8004001B300410168084001B20041016708BE
:1010E8004001B100410166084001B000013099316A
:1010F800BC2188313308C1003208C0003108BF0064
:101108003008BE00420137084001B30042013608EA
:101118004001B200420135084001B10042013408E3
:101128004001B00000309931BC2188313308C50036
:101138003208C4003108C3003008C20089312821B0
:10114800883141084201AF00400140084201AE0029
:1011580040013F084201AD0040013E084201AC0099
:101168003D084101E600E701E801E901690840019D
:10117800B300410168084001B2004101670840011D
:10118800B100410166084001B00001309931BC212D
:1011980088313308C1003208C0003108BF00300868
:1011A800BE0042013B084001B30042013A08400139
:1011B800B200420139084001B1004201380840013B
:1011C800B00000309931BC2188313308C50032089D
:1011D800C4003108C3003008C20089312821883191
:1011E80041084201B300400140084201B2004001F9
:1011F8003F084201B10040013E084201B0002F08FB
:101208004101E10042012E084101E00042012D08A0
:101218004101DF0042012C084101DE004201330890
:101228004101E500420132084101E4004201310870
:101238004101E300420130084101E2008031F7201A
:101248008831AD314D25080045088039CF00453536
:10125800D600C41B5614560803194029560A031D04
:101268003D290030C5000030C4000030C300003004
:10127800C200C417C50148290030C5000030C400A9
:101288000030C3000030C20041088039CF06413524
:10129800D700C01B5714570803196029570A031DA4
:1012A8005D290030C1000030C0000030BF000030B0
:1012B800BE00C017C10168290030C1000030C0005D
:1012C8000030BF000030BE00410840043F043E0427
:1012D800031D85290030C5000030C4000030C3005C
:1012E8000030C2008030C4047F30C5044F08C504F4
:1012F8004508C1004408C0004308BF004208BE00BA
:1013080008005608031D91290030C1000030C000B4
:101318000030BF000030BE0008005608C600C701F4
:101328004708C90057084602C800031CC9034808F3
:101338007F3ED0000030493DD1004508CE0044082A
:10134800CD004308CC004208CB000030C500003077
:10135800C4000030C3000030C2000030D5000030A7
:10136800D4000030D3000030D200D7011A30570221
:101378000318F42957080319D8290130CB35CC0DA7
:10138800CD0DCE0D890BC2290130C235C30DC40D58
:10139800C50D890BC929D51B42140130D235D30D8F
:1013A800D40DD50D890BD22941084E02031DE6291B
:1013B80040084D02031DE6293F084C02031DE6299B
:1013C8003E084B02031CF12955173E08CB023F0883
:1013D800CC3B4008CD3B4108CE3B0130D707BA296A
:1013E8004E084D044C044B04031D5214C41B112A0F
:1013F8000130C235C30DC40DC50D890BFD29D51BA0
:1014080042140130D235D30DD40DD50D890B062ADF
:10141800FF30D007FF30D13DFA29D701D51F2A2A3E
:10142800FF305205C600FF305305C700FF30540592
:10143800C8007F305505C9004908480447044604D8
:1014480003194218282A2A2A0130D70057080319F5
:10145800512A0130C2070030C33DC43DC53D451C7B
:10146800512A4208C6004308C7004408C800450876
:10147800C9000130CA00C937C80CC70CC60CCA0B52
:101488003F2A4908C5004808C4004708C300460861
:10149800C2000130D0070030D13D5108803AC60063
:1014A80080304602031D5A2AFF305002031C692A65
:1014B800FF304001D0000030D1000030C5000030BE
:1014C800C4000030C3000030C20040015108803A17
:1014D800C60080304602031D732A013050020318EB
:1014E800812A4001D001D1010030C5000030C4007C
:1014F8000030C3000030C200CF0140015008D600C0
:10150800561C882AC4178A2A7F30C4055608C60084
:101518000130C636890B8D2A4608C5007A29410153
:10152800C7014708BD3E860087014708583E84002A
:10153800B0300318013E8500000881000130C7075C
:101548000A304702031C952A3D08AC31D9248A3158
:101558004101B900BA01BB01BC013C084301AF001D
:1015680041013B084301AE0041013A084301AD0087
:10157800410139084301AC000030F4000030F300A9
:10158800EA30F2006030F1002F08F8002E08F7006A
:101598002D08F6002C08F500A0312B208A3174089C
:1015A8004301AF007308AE007208AD007108AC00CB
:1015B80041013E08AC31D9248A314101B900BA0150
:1015C800BB01BC013C084301AB0041013B0843019E
:1015D800AA0041013A084301A90041013908430121
:1015E800A8000030F4000030F300EA30F200603068
:1015F800F1002B08F8002A08F7002908F600280847
:10160800F500A0312B208A3174084301AB00730820
:10161800AA007208A9007108A80041013F08AC316E
:10162800D9248A314101B900BA0139084301CC00F3
:1016380041013A084301CD0041014008AC31D924A9
:101648008A314101B900BA0139084301CA00410190
:101658003A084301CB0041014108AC31D9248A3111
:101668004101B900BA013908F7003A08F8000A3010
:10167800F9000030FA00AD31E9258A3178084301D4
:10168800C9007708C80041014208AC31D9248A3121
:101698004101B900BA013908F7003A08F8000A30E0
:1016A800F9000030FA00AD31E9258A3178084301A4
:1016B800C7007708C60041014308AC31D9248A31F4
:1016C800003A03196A2B42016A146C2B42016A1012
:1016D80041304001C1002030C0000030BF00003060
:1016E800BE0041014408AC31D9248A314101B90016
:1016F800BA01BB01BC013C084001B30041013B08F1
:101708004001B20041013A084001B10041013908E5
:101718004001B00001309931BC218A313308C5003D
:101728003208C4003108C3003008C20089312821BA
:101738008A3141084301A300400140084301A20047
:1017480040013F084301A10040013E084301A000B9
:101758003F304101B0008030AF000030AE000030B3
:10176800AD0042304001C100C830C0000030BF00A9
:101778000030BE0041014508AC31D9248A3141010D
:10178800B900BA01BB01BC013C084001B3004101EA
:101798003B084001B20041013A084001B100410153
:1017A80039084001B00001309931BC218A31330831
:1017B800C5003208C4003108C3003008C2008931AE
:1017C80028218A3141084101B40040014008410103
:1017D800B30040013F084101B20040013E08410109
:1017E800B1008E3117268A3130084301A700410124
:1017F8002F084301A60041012E084301A50041011D
:101808002D084301A40006304001A2000030A300C7
:1018180041014608AC31D9248A314101B900BA01E5
:101828003908F7003A08F8000A30F9000030FA00E1
:10183800AD31E9258A317808A5007708A400A331DD
:10184800DD2323084301C500400122084301C400E9
:101858004D08D1004C08D000080046089C3E4401C1
:10186800B000FF304301473D4401B100033042015D
:10187800D8000830D7007730890B402CD70B402C84
:10188800D80B402C4401B401B501B601B701B2012F
:10189800B3013308803A4201D70043014508803A32
:1018A80042015702031D5C2C4301440844013202E3
:1018B80003188F2CA13194218C3144013508803ACA
:1018C8004201D7006108803A5702031D6E2C600858
:1018D800440134020318802C420161084401B50018
:1018E800420160084401B40042015F084401B700A6
:1018F80042015E084401B6000B304201D700623055
:10190800890B842CD70B842C000001304401B207CA
:101918000030B33D4D2C44013508803A4201D700D0
:1019280080305702031D9B2C013044013402031CF4
:10193800A72C4001161EA42CAD3137258C31A72CBD
:10194800A63197268C314301620844013506031DF0
:10195800B12C43016108440134060319DD2C42010E
:101968006A1DBD2C2A304001AC003930AD00B130C1
:10197800C32C2A304001AC003730AD00B130AE0086
:10198800AF01AF0A00309431CE248C3144013508C0
:101998004301E200440134084301E10044013508F1
:1019A8004001BD00440134084001BC0087319F2735
:1019B8008C3144013708803A4201D7008030570201
:1019C800031DE92C643044013602031C262D430113
:1019D800530844013706031DF52C430152084401FE
:1019E80036060319262D37084301D300440136086B
:1019F8004301D20044013508803A4201D70043012F
:101A08004B08803A42015702031D0E2D43014A0834
:101A18004401340203181B2D430153084001BD0043
:101A2800430152084001BC00AF3170270800430150
:101A380053084001BD00430152084001BC00AF31CA
:101A480070278C3142016A1D892D03304401B20090
:101A58000030B30006304001AC001130AD00B130A9
:101A6800AE000930AF0002309431CE248C311530ED
:101A78004201D8004B30D700BE30890B412DD70B1F
:101A8800412DD80B412D00004001AC01DF30AD00E5
:101A9800B030AE000930AF0002309431CE248C3122
:101AA80015304201D8004B30D700BE30890B5A2D73
:101AB800D70B5A2DD80B5A2D0000FF304401B2071E
:101AC800FF30B33D32083304031D2E2D0930AE31EB
:101AD80082268C31440137084001BD004401360894
:101AE8004001BC00AF3170278C3115304201D8005D
:101AF8004B30D700BE30890B7F2DD70B7F2DD80BED
:101B08007F2D000042016A1108006A1C08007C1839
:101B1800080044013508803A4201D70043014B08C8
:101B2800803A42015702031D9D2D43014A08440192
:101B38003402031C080044013508803A4201D700EA
:101B480043014908803A42015702031DAF2D430162
:101B58004808440134020318080044013708803A51
:101B68004201D70080305702031DBD2D7930440152
:101B78003602031C0800430163084401360242018F
:101B8800D700430164084401373B4201D8004401AF
:101B98003108803A4201D9005808803A5902031D99
:101BA800D82D570844013002031C142E440136086E
:101BB800430163024201D700440137084301643BF3
:101BC8004201D80044013108803A4201D90058083E
:101BD800803A5902031DF32D570844013002031CB3
:101BE800142EE7304201D7000330D80044013008F2
:101BF80042015702D900440131084201583BDA003A
:101C08005A08803ADB0044013708803A42015B02F7
:101C1800031D122E44013608420159020318080018
:101C2800A1315121080030088039B5003035B7009E
:101C3800AF1B3714370803192F2E370A031D2C2E14
:101C48000030B0000030AF000030AE000030AD0012
:101C5800AF17B001372E0030B0000030AF000030B1
:101C6800AE000030AD0034088039B60036083506BD
:101C7800031D35173435B600B31B3614360803195F
:101C8800532E360A031D502E0030B4000030B30026
:101C98000030B2000030B100B317B4015B2E003041
:101CA800B4000030B3000030B2000030B100370893
:101CB80036020318812E351F632E8030B50637088B
:101CC800B8003608B7003808B6002D08B800310843
:101CD800AD003808B1002E08B8003208AE00380848
:101CE800B2002F08B8003308AF003808B300300836
:101CF800B8003408B0003808B400B801360840010C
:101D0800E500E6016608E800410137084001650280
:101D1800E700031CE8036808803AE900803069029C
:101D2800031D982E1A306702031CD02E410130087B
:101D38002F042E042D040319A32E0130A42E0030E5
:101D4800B8000030B0000030AF000030AE00003006
:101D5800AD003608B700D52E381CBE2E3808400115
:101D6800E5000130E536890BB62E650801384101DA
:101D7800B800C02E0310B80C2D18B8170130400158
:101D8800E5004101B037AF0CAE0CAD0C4001E50BDE
:101D9800C52E01304101B707410136083702031C3F
:101DA800B02E351B0E2F3708031DE32E0030B00070
:101DB8000030AF000030AE000030AD000800310840
:101DC800AD073208AE3D3308AF3D3408B03D301C96
:101DD8009B2F381CFB2E38084001E5000130E53602
:101DE800890BF32E650801384101B800FD2E031058
:101DF800B80C2D18B81701304001E5004101B03783
:101E0800AF0CAE0CAD0C4001E50B022F01304101C7
:101E1800B7079B2F3008803A4001E500410134089C
:101E2800803A400165024101031D242F33082F0227
:101E3800031D242F32082E02031D242F31082D02E2
:101E48000318692FFF304001E500FF30E600FF303E
:101E5800E700FF30E80041012D0831024001E900A8
:101E680041012E08323B4001EA0041012F08333B73
:101E78004001EB0041013008343B4001EC006908A7
:101E8800E5076A08E63D6B08E73D6C08E83D680829
:101E98004101B000400167084101AF0040016608F8
:101EA8004101AE00400165084101AD008030B50632
:101EB8003803FF3AB8003808031D712F0130AD0709
:101EC8000030AE3DAF3DB03D712F3108AD02320854
:101ED800AE3B3308AF3B3408B03B30082F042E0428
:101EE8002D04031D992F3808031D992F0030B000C9
:101EF8000030AF000030AE000030AD000800013007
:101F0800AD35AE0DAF0DB00D890B842FB81B2D1458
:101F1800381C922F0314380DB800942F0310B80DF5
:101F280037080319992F0130B702AF1F832FB60165
:101F3800B81FA62F38087F3903192D18A42FA62FEC
:101F48000130B60036080319DC2F0130AD07003028
:101F5800AE3DAF3DB03D301CDC2F2D084001E50003
:101F680041012E084001E60041012F084001E70029
:101F7800410130084001E8000130E900E837E70C8A
:101F8800E60CE50CE90BC22F68084101B0004001DE
:101F980067084101AF00400166084101AE004001F9
:101FA80065084101AD00370A0319DC2F0130B70776
:101FB800370A031D3708031DEC2F0030B00000302E
:101FC800AF000030AE000030AD0037080319B5018E
:101FD800371CF02FAF17F22F7F30AF0537084001BD
:101FE800E5000130E536890BF62F65084101B000A0
:101FF800B51F0800B017080000340034003400345E
:102008000034003400345F340034003400340734C2
:1020180000340734003414347F3414347F341434D7
:1020280024342A347F342A341234233413340834C1
:1020380064346234363449345534223450340034EC
:10204800053403340034003400341C342234413461
:1020580000340034413422341C34003408342A3427
:102068001C342A340834083408343E34083408341C
:102078000034503430340034003408340834083420
:102088000834083400343034303400340034203418
:1020980010340834043402343E345134493445345D
:1020A8003E34003442347F344034003442346134A6
:1020B8005134493446342134413445344B34313475
:1020C8001834143412347F341034273445344534EA
:1020D800453439343C344A34493449343034013491
:1020E80071340934053403343634493449344934B5
:1020F800363406344934493429341E3400343634ED
:102108003634003400340034563436340034003465
:10211800003408341434223441341434143414345C
:10212800143414344134223414340834003402345E
:102138000134513409340634323449347934413461
:102148003E347E341134113411347E347F344934B2
:102158004934493436343E344134413441342234EC
:102168007F344134413422341C347F344934493477
:10217800493441347F3409340934013401343E345C
:1021880041344134513432347F340834083408340B
:102198007F34003441347F344134003420344034B7
:1021A80041343F3401347F34083414342234413408
:1021B8007F3440344034403440347F340234043473
:1021C80002347F347F340434083410347F343E348E
:1021D8004134413441343E347F34093409340934BC
:1021E80006343E344134513421345E347F3409346A
:1021F800193429344634463449344934493431345D
:10220800013401347F34013401343F3440344034E4
:1022180040343F341F342034403420341F347F345A
:102228002034183420347F3463341434083414349C
:10223800633403340434783404340334613451345B
:10224800493445344334003400347F344134413414
:1022580002340434083410342034413441347F3497
:102268000034003404340234013402340434403479
:1022780040344034403440340034013402340434AF
:102288000034203454345434543478347F3448344B
:1022980044344434383438344434443444342034B2
:1022A80038344434443448347F343834543454341F
:1022B8005434183408347E34093401340234083470
:1022C8001434543454343C347F34083404340434DF
:1022D8007834003444347D3440340034203440347D
:1022E80044343D34003400347F34103428344434CA
:1022F800003441347F34403400347C34043418349E
:10230800043478347C34083404340434783438346D
:1023180044344434443438347C3414341434143459
:10232800083408341434143418347C347C340834B5
:102338000434043408344834543454345434203481
:1023480004343F344434403420343C344034403442
:1023580020347C341C342034403420341C343C3445
:102368004034303440343C34443428341034283435
:1023780044340C345034503450343C344434643491
:1023880054344C3444340034083436344134003442
:10239800003400347F34003400340034413436349F
:1023A80008340034083408342A341C340834083417
:1023B8001C342A340834083400340034003400341F
:1023C8000034003400345F340034003400340734FF
:1023D80000340734003414347F3414347F34143414
:1023E80024342A347F342A341234233413340834FE
:1023F8006434623436344934553422345034003429
:10240800053403340034003400341C34223441349D
:1024180000340034413422341C34003408342A3463
:102428001C342A340834083408343E340834083458
:10243800003450343034003400340834083408345C
:102448000834083400343034303400340034203454
:1024580010340834043402343E3451344934453499
:102468003E34003442347F344034003442346134E2
:102478005134493446342134413445344B343134B1
:102488001834143412347F34103427344534453426
:10249800453439343C344A344934493430340134CD
:1024A80071340934053403343634493449344934F1
:1024B800363406344934493429341E340034363429
:1024C80036340034003400345634363400340034A2
:1024D8000034083414342234413414341434143499
:1024E800143414344134223414340834003402349B
:1024F800013451340934063432344934793441349E
:102508003E347E341134113411347E347F344934EE
:102518004934493436343E34413441344134223428
:102528007F344134413422341C347F3449344934B3
:10253800493441347F3409340934013401343E3498
:1025480041344134513432347F3408340834083447
:102558007F34003441347F344134003420344034F3
:1025680041343F3401347F34083414342234413444
:102578007F3440344034403440347F3402340434AF
:1025880002347F347F340434083410347F343E34CA
:102598004134413441343E347F34093409340934F8
:1025A80006343E344134513421345E347F340934A6
:1025B8001934293446344634493449344934313499
:1025C800013401347F34013401343F344034403421
:1025D80040343F341F342034403420341F347F3497
:1025E8002034183420347F346334143408341434D9
:1025F8006334033404347834043403346134513498
:10260800493445344334003400347F344134413450
:1026180002340434083410342034413441347F34D3
:1026280000340034043402340134023404344034B5
:1026380040344034403440340034013402340434EB
:102648000034203454345434543478347F34483487
:1026580044344434383438344434443444342034EE
:1026680038344434443448347F343834543454345B
:102678005434183408347E340934013402340834AC
:102688001434543454343C347F340834043404341B
:102698007834003444347D344034003420344034B9
:1026A80044343D34003400347F3410342834443406
:1026B800003441347F34403400347C3404341834DA
:1026C800043478347C3408340434043478343834AA
:1026D80044344434443438347C3414341434143496
:1026E800083408341434143418347C347C340834F2
:1026F80004340434083448345434543454342034BE
:1027080004343F344434403420343C34403440347E
:1027180020347C341C342034403420341C343C3481
:102728004034303440343C34443428341034283471
:1027380044340C345034503450343C3444346434CD
:1027480054344C344434003408343634413400347E
:10275800003400347F3400340034003441343634DB
:1027680008340034083408342A341C340834083453
:102778001C342A3408340834400196154230890B39
:10278800C32B0032400116154230890BC92B003289
:10279800400116114230890BCF2B003240019611AF
:1027A8004230890BD52B00320800FF304201CD00A2
:1027B8007F30CE00FF30CF007F30D000A4317824A6
:1027C8009331A431CA2493319C315C249331420162
:1027D8005F08803AC40080304402031DF52B79302D
:1027E8005E02031C080042015D08CC005C08CB00B7
:1027F8006708C5006608C600033066020318302C57
:10280800033067020318302CE601E7016608F4007C
:102818006508F50067089F3114279331A431CA244D
:102828009331A431782493319C315C249331420153
:102838005F08803AC40080304402031D252C79309B
:102848005E02031C080042015D08CE005C08CD0052
:102858006708C7006608C8000330660203185D2CC5
:102868000330670203185D2CE601E7016608F400EF
:102878006508F50067089F3114279331A5311C2599
:1028880093319C315C24933142015F08803AC40043
:1028980080304402031D522C79305E02031C08006C
:1028A80042015D08D0005C08CF006708C9006608CF
:1028B800CA004E08803AC4004C08803A4402031DFE
:1028C800672C4B084D02031C7B2C42015008803AB0
:1028D800C4004C08803A4402031D742C4B084F0274
:1028E800031C7B2C42014608E6004508B82C42012F
:1028F8004C08803AC4004E08803A4402031D862CD6
:102908004D084B02031C9A2C42015008803AC4001F
:102918004E08803A4402031D932C4D084F02031CB5
:102928009A2C42014808E6004708B82C42014C0896
:10293800803AC4005008803A4402031DA52C4F0871
:102948004B02031CB92C42014E08803AC4005008BF
:10295800803A4402031DB22C4F084D02031CB92CC7
:1029680042014A08E6004908E70042014D0A7F3063
:1029780003194E06031DC62C4F0A7F300319500653
:10298800031908006608F4006508F50067089F3118
:1029980014270800B700161E08009331C02394318D
:1029A8007830A031D32094314030A031D3209431F5
:1029B8002C08A7003708A131D8219431BA012F0873
:1029C8003A0203184E2D3A082D0784002E080318E2
:1029D800013E85001200031DF32CB601FD2C3A08B8
:1029E8002D0784002E080318013E85000008E03EEC
:1029F800B600BB013608B000B1013008F700310855
:102A0800F8000530F9000030FA00AD31E9259431BD
:102A18000030B2009030B30077083207B40078086D
:102A2800333DB5003B083407840035080318013EE0
:102A380085000008B800023037060319292D380828
:102A48000F39AE3107269431342D38080739AE31A5
:102A580007269431B0000230B035890B302D30088C
:102A6800B9003908A031D32094313908A031D320D6
:102A780094310130BB0705303B02031CFE2C0030AB
:102A8800A031D32094310030A031D32094310130CB
:102A9800BA07E32C2C08A7003708013EA131D8213A
:102AA8009431BA012F083A020318C32D3A082D07AA
:102AB80084002E080318013E85001200031D662DB0
:102AC800B601702D3A082D0784002E080318013E20
:102AD80085000008E03EB600BB013608B000B10131
:102AE8003008F7003108F8000530F9000030FA0026
:102AF800AD31E92594310030B2009030B300770849
:102B08003207B4007808333DB5003B083407840029
:102B180035080318013E85000008B8000230370662
:102B280003199E2D3808B0000430B036890B992D52
:102B38003008A62D3808B0000330B036890BA12D17
:102B480030080F39AE3107269431B9003908A03161
:102B5800D32094313908A031D32094310130BB07F8
:102B680005303B02031C712D0030A031D320943175
:102B78000030A031D32094310130BA07562DAC3142
:102B8800FC240800161E08009331C02395317830C4
:102B9800A031D32095314030A031D32095310A306F
:102BA800A2000030A3002D08A5002C08A400A33122
:102BB800DD2395312308AD002208AC002D08803AAA
:102BC800AE0081302E02031DEB2D2C302C02031891
:102BD800EF2D2C30FC2D40012D08803AAE008130BD
:102BE8002E02031DF92DA5302C02031C002EA43043
:102BF8004001AC000130AD0040012C08D43EAC00CF
:102C0800FE302D3DAD002D08AF002C08AE0005307C
:102C1800AE35AF0D890B0C2E2E08AC002F08AD0079
:102C28007830A2000030A3002D08A5002C08A400CD
:102C3800A331DD2395312208B40019303402031C76
:102C48002E2E3408E83EB0000830B1000830B2003B
:102C58000830432E11303402031C362EB0013408DC
:102C6800F03E292E09303402031C3F2EB001B10179
:102C78003408F83E2B2EB001B101B2013408B3007C
:102C88003008AD31632595314001B6003608033868
:102C9800B6007730A7000030A131D8219531360829
:102CA800A031D32095313608A031D320953136088C
:102CB800A031D320953136081F38B6007530A700EB
:102CC8000030A131D82195313608A031D320953173
:102CD8003608A031D32095317A30A7000030A131D1
:102CE800D82195313608A031D32095313608A03146
:102CF800D32095313108AD31632595314001B600B7
:102D08007530A7000130A131D8219531B5013608B9
:102D1800A031D32095310130B50707303502031CA7
:102D28008B2E3208AD31632595314001B6007530E0
:102D3800A7000230A131D8219531B5013608A0315C
:102D4800D32095310130B50707303502031CA22E78
:102D58003308AD31632595314001B6003608C038D7
:102D6800B6007530A7000330A131D8219531B501DF
:102D78003608A031D32095310130B5070730350228
:102D8800031CBC2EAC31FC2408000030C400003009
:102D9800C3000030C2000030C1005008C8004F080E
:102DA800C7004E08C6004D08C500A73185279631D3
:102DB800031CE72E0030D0000030CF000030CE00DA
:102DC8000030CD00080040304001C1000030C00094
:102DD8000030BF000030BE003F304101B0008030FD
:102DE800AF000030AE000030AD005008B4004F080E
:102DF800B3004E08B2004D08B1008E311726963147
:102E080030084001C50041012F084001C4004101BC
:102E18002E084001C30041012D084001C20089313C
:102E28002821963141084101DD0040014008410157
:102E3800DC0040013F084101DB0040013E08410140
:102E4800DA00D5015D08B0005C08AF005B08AE0091
:102E58005A08AD005D084001C10041015C0840010D
:102E6800C00041015B084001BF0041015A08400110
:102E7800BE00410150084001C50041014F08400112
:102E8800C40041014E084001C30041014D08400102
:102E9800C20089312821963141084101B40040011E
:102EA80040084101B30040013F084101B200400120
:102EB8003E084101B1008E31172696313008D40002
:102EC8002F08D3002E08D2002D08D1004030400131
:102ED800C1000030C0000030BF000030BE0041011A
:102EE80054084001C500410153084001C400410194
:102EF80052084001C300410151084001C200893114
:102F08002821963141084101D9004001400841017A
:102F1800D80040013F084101D70040013E08410167
:102F2800D6005908BC005808BB005708BA00560814
:102F3800B9005D08C0005C08BF005B08BE005A0805
:102F4800BD00AD31CC2596313C08C4003B08C30018
:102F58003A08C2003908C10038304001DB00D130DE
:102F6800DA00B730D9001730D80041015D084001B8
:102F7800DF0041015C084001DE0041015B084001BF
:102F8800DD0041015A084001DC00853111259631E8
:102F98005B084101C80040015A084101C7004001CF
:102FA80059084101C600400158084101C500A73130
:102FB800852796310318E92F5908D0005808CF0003
:102FC8005708CE005608CD0008005908DD005808FB
:102FD800DC005708DB005608DA000130D50714304A
:102FE8005502031C262F5D08D0005C08CF005B0843
:102FF800CE005A08CD0008004001B0019331C0232B
:1030080098317830A031D3209831003A0319232819
:10301800AC31FC2498310D304001AF002D30AE00AA
:10302800D730890B1528AE0B1528AF0B15280032A1
:1030380001304001B0070A303002031C0228AC31CD
:10304800FC24983101309A3149229831AE31EC266E
:103058009831AF30AD3195250800AD01A71F412843
:10306800A409A509A609A709A40A0319A50A031909
:10307800A60A0319A70A0130AD00AB1F5028A809FA
:10308800A909AA09AB09A80A0319A90A0319AA0ACE
:103098000319AB0A0130AD060030B1000030B000B2
:1030A8000030AF000030AE002708260425042404B1
:1030B800031997280130AC00A71B6C280130A435F0
:1030C800A50DA60DA70D890B63280130AC07602854
:1030D8000130AE35AF0DB00DB10D890B6D28270845
:1030E8002B02031D812826082A02031D8128250892
:1030F8002902031D812824082802031C8C2824087F
:10310800A8022508A93B2608AA3B2708AB3B2E1492
:103118000130A736A60CA50CA40C890B8D2801300C
:10312800AC02031D6C282D080319A528AE09AF09A8
:10313800B009B109AE0A0319AF0A0319B00A031995
:10314800B10A3108A7003008A6002F08A5002E08EC
:10315800A40008002030AE31C6269831A0300032D5
:10316800890BB3280830AC31C82498317208400163
:10317800AB007108AA002A0A033003192B06031DA5
:10318800D6284030AE31C6269831A0300032890B9F
:10319800CA280830AC31C824983171354001AA00DA
:1031A800720DAB00FE302A06073003192B06031DEB
:1031B80030291030AE31C6269831A0300032890B44
:1031C800E2280830AC31C824983172084001AB00BD
:1031D8007108AA002A0A033003192B06031DF628D2
:1031E80042016A15AD31B025983140012A08F10035
:1031F8002B08F200F301F40142016208F5006308AC
:10320800F600890D893B8909F700F800A0312B20C9
:1032180098317408AF007308AE007208AD007108E9
:10322800AC002C08A6002D08A7002E08A8002F081F
:10323800A9000A30A936A80CA70CA60C890B1E29D0
:103248002908AF002808AE002708AD002608AC0002
:103258002D08AB002C08AA002B08A5002A08A400FA
:1032680008002030AE31C6269931A0300032890BD3
:103278003A290A30AC31C824993172084001AB00B0
:103288007108AA002A0A033003192B06031D5D29B9
:103298004030AE31C6269931A0300032890B512911
:1032A8000A30AC31C824993171354001AA00720D39
:1032B800AB00FE302A06073003192B06031DB72979
:1032C8001030AE31C6269931A0300032890B6929F9
:1032D8000A30AC31C824993172084001AB0071083A
:1032E800AA002A0A033003192B06031D7D2942016F
:1032F8006A15AD31B025993140012A08F1002B0833
:10330800F200F301F40142016208F5006308F600D7
:10331800890D893B8909F700F800A0312B209931E4
:103328007408AF007308AE007208AD007108AC00F5
:103338002C08A6002D08A7002E08A8002F08A90011
:103348000A30A936A80CA70CA60C890BA5292908B0
:10335800AF002808AE002708AD002608AC002D08ED
:10336800AB002C08AA002B08A5002A08A400080016
:10337800B8003808031DB31FD1293009BA00310934
:10338800BB003209BC003309BD00BA0A0319BB0AE5
:103398000319BC0A0319BD0AD9293308BD0032082C
:1033A800BC003108BB003008BA00330832043104CD
:1033B8003004031DE8290030B3000030B2000030AB
:1033C800B1000030B00008009630B900FE303D056D
:1033D8000319072A0130B9070130BD36BC0CBB0CF4
:1033E800BA0C890BF129EA290130B9070130BA076B
:1033F8000030BB3DBC3DBD3D0130BD36BC0CBB0CF7
:10340800BA0C890B012AFF303D050319192AF8293E
:1034180002303902031C1B2A0130B9020130BA35C7
:10342800BB0DBC0DBD0D890B132ABC1F0C2A391806
:10343800252AFF30BA05FF30BB057F30BC05FF30B9
:10344800BD050310B90C3908B400B501B601B701C0
:103458001830B435B50DB60DB70D890B2D2A3408C3
:10346800BA043508BB043608BC043708BD0438085C
:10347800031DB31F402ABD173D08B3003C08B20026
:103488003B08B1003A08B0000800FB004001161ED6
:1034980008009331C0239A317830A031D3209A3173
:1034A800003A0319592A4201EA150030A031D32005
:1034B8009A317B080319642AAE30A031D3209A319F
:1034C800D530A031D3209A318030A031D3209A3121
:1034D800A830A031D3209A313F30A031D3209A317F
:1034E800D330A031D3209A314030A031D3209A3143
:1034F8004030A031D3209A318D30A031D3209A3179
:103508001430A031D3209A318130A031D3209A31A0
:10351800FF30A031D3209A31D930A031D3209A314D
:10352800F130A031D3209A312030A031D3209A3104
:103538000230A031D3209A312130A031D3209A31E2
:103548000030A031D3209A317F30A031D3209A3176
:103558002E30A031D3209A31A030A031D3209A3117
:10356800C030A031D3209A31DA30A031D3209A313B
:103578000230A031D3209A31DB30A031D3209A31E8
:103588004030A031D3209A31A430A031D3209A31D1
:10359800A630A031D3209A317B08031DD72AAF303B
:1035A800A031D3209A31AC31FC240800AD31B025CC
:1035B8009A314301550842016306031DE72A430176
:1035C8005408420162060319162B63084301D5000B
:1035D800420162084301D400420163084001AD0082
:1035E800420162084001AC009531C6259A3142017A
:1035F8006308803A4001C3008E304302031D072B45
:10360800D930420162020318112B43014C08013ED4
:10361800D00000304D3DD100162B43014D08D1009C
:103628004C08D00000309A3149229A31420163088F
:10363800803A4001C3008E304302031D262B7530AB
:1036480042016202031C382B400197111716023001
:103658004001C4003830C300AD30890B312BC30B97
:10366800312BC40B312B552B42016308803A4001A2
:10367800C3008E304302031D442B0730420162020F
:10368800031C592B40019711171202304001C40046
:103698003830C300AD30890B4F2BC30B4F2BC40BF5
:1036A8004F2B4001971517166B2B400117129715D2
:1036B80002304001C4003830C300AD30890B622BA2
:1036C800C30B622BC40B622B4001171697154201DE
:1036D8006308803A4001C3008D304302031D772BF5
:1036E80048304201620203180800AE31EC269A31D4
:1036F8004001AC01D330AD00B030AE000B30AF00AC
:1037080001309431CE249A3152304001C4002B301C
:10371800C3000030890B8E2BC30B8E2BC40B8E2B52
:10372800000040011612A53170250800A4312A2492
:103738009B318A3193229B3140011716191542019A
:10374800EA14A63197269B31AC31AA249B31420159
:103758006A11AD3137259B31AD310F259B313F08BB
:103768007402031DC12B3E087302031DC12B3D08C3
:103778007202031DC12B3C087102031CCE2BB8300A
:10378800BC070B30BD3D0030BE3D0030BF3D9A3117
:10379800DA229B31AD310F259B313B087402031DA2
:1037A800DF2B3A087302031DDF2B39087202031D51
:1037B800DF2B38087102031CF22B2C30B8070130BC
:1037C800B93D0030BA3D0030BB3D8C3131249B31CE
:1037D8004201EA1DF22BA13112219B31AD310F2597
:1037E8009B3133087402031D032C32087302031D36
:1037F800032C31087202031D032C30087102031CCC
:10380800082CA13112219B3143012F082E042D04CD
:103818002C04031D7C1D122C4001161243012B0899
:103828002A0429042804031DFC1C1D2CA53170251D
:103838009B31FC1F292C4001161E262CAC31AE24CE
:103848009B31292CA63197269B317C1F352C4001B2
:10385800161E322CA13151219B31352CA6319726C9
:103868009B31FC1E412C4001161E3E2CAE312526F4
:103878009B31412CA63197269B317C1E4C2C400154
:10388800161A492CA63197269B31AC31B2249B31AC
:10389800FC1DB02B4001161A582CAE31A3269B31C3
:1038A800A63197269B31B02BA13151219B31B02BEA
:1038B80096304101EC000030ED002C30EA00013078
:1038C800EB004201E001E101DE01DF014101EE010F
:1038D800EF0142016108803A4001EF0043014B08C3
:1038E800803A40016F02031D7D2C43014A084201C2
:1038F80060020318312DFC1F872CAC31AE24420125
:10390800DE01DF010800FC1A832CA13194219C31CF
:1039180043014B08803A4001EF0042016108803AB8
:1039280040016F02031D9C2C4201600843014A02BA
:103938000318B52C42016108803A4001EF004301A9
:103948004908803A40016F02031DAE2C4301480824
:10395800420160020318B52C083088310F209C31D1
:10396800C12C06304001EF003030890BB92CEF0B29
:10397800B92C0000A13194219C3143014B08803AB5
:103988004001EF0042016108803A40016F02031DC7
:10399800D12C4201600843014A020318E52C420178
:1039A8006108803A4001EF0043014908803A40012C
:1039B8006F02031DE32C4301480842016002031C07
:1039C800080041016C086D040319032D0130EC0255
:1039D8000030ED3B4201610841016F02031DF82CE4
:1039E8004201600841016E0203186D2C4201610812
:1039F8004101EF00420160084101EE006D2C6F08A3
:103A080043016206031D0C2D41016E084301610646
:103A18000319192D41016F084001BD0041016E08CD
:103A28004001BC0087319F279C3141016F08430149
:103A3800E20041016E084301E1004101EE01EF019E
:103A48003230EC000030ED006A086B040319832C57
:103A58000130EA020030EB3B6D2C43014908803A03
:103A68004001EF0042016108803A40016F02031DE6
:103A7800412D4201600843014802031808007F2CC9
:103A880042016608C7006408031D572D0A30F1007B
:103A98006608AE3163269D31BE00BF013E08C100F5
:103AA8003F08C2005B2D0130C1000030C200410850
:103AB800CA004A08031D622D0130CA009C315C24EB
:103AC8009D3142015D08C9005C08C8004A08E60744
:103AD8006608F4006508F50067089F3114279D31D2
:103AE8009C315C249D3142014908803ABE005D0842
:103AF800803A3E02031D822D5C084802031CDB2D20
:103B080042015D08C9005C08C8006608C7004A0889
:103B1800E6070030BF004A087F3CBE00031CBF0315
:103B28003F08803AC00080304002031D9D2D660882
:103B38003E02031C212E42016608F4006508F500C8
:103B480067089F3114279D319C315C249D314201C7
:103B58004908803ABE005D08803A3E02031DB62D32
:103B68005C084802031C212E42016608C7005D0854
:103B7800C9005C08C8006408031DCF2D0A30F10095
:103B88006608AE3163269D31BE00BF013E08C30002
:103B98003F08C400D32D0130C3000030C4004308DF
:103BA800CA004A08031D8B2D0130CA008B2D420123
:103BB8005D08C9005C08C800032E42016608C700FA
:103BC8005D08C9005C08C8006408031DF82D0A30A8
:103BD800F1006608AE3163269D31BE00BF013E0884
:103BE800C5003F08C600FC2D0130C5000030C600E6
:103BF8004508CA004A08031D032E0130CA004A08B6
:103C0800E6024A086602031C212E6608F4006508CD
:103C1800F50067089F3114279D319C315C249D3144
:103C280042014908803ABE005D08803A3E02031D01
:103C38001F2E5C0848020318E12D42014708E600E0
:103C48006608F4006508F50067089F311427080026
:103C580042016708C7006408031D3F2E0A30F100BF
:103C68006708AE3163269E31BE00BF013E08C10021
:103C78003F08C200432E0130C1000030C200410895
:103C8800CA004A08031D4A2E0130CA009C315C2430
:103C98009E3142015D08C9005C08C8004A08E70770
:103CA8006608F4006508F50067089F3114279E31FF
:103CB8009C315C249E3142014908803ABE005D086F
:103CC800803A3E02031D6A2E5C084802031CC32E7C
:103CD80042015D08C9005C08C8006708C7004A08B7
:103CE800E7070030BF004A087F3CBE00031CBF0343
:103CF8003F08803AC00080304002031D852E6708C7
:103D08003E02031C092F42016608F4006508F5000D
:103D180067089F3114279E319C315C249E314201F3
:103D28004908803ABE005D08803A3E02031D9E2E77
:103D38005C084802031C092F42016708C7005D0898
:103D4800C9005C08C8006408031DB72E0A30F100DA
:103D58006708AE3163269E31BE00BF013E08C3002E
:103D68003F08C400BB2E0130C3000030C400430824
:103D7800CA004A08031D732E0130CA00732E42017F
:103D88005D08C9005C08C800EB2E42016708C7003F
:103D98005D08C9005C08C8006408031DE02E0A30ED
:103DA800F1006708AE3163269E31BE00BF013E08B0
:103DB800C5003F08C600E42E0130C5000030C6002B
:103DC8004508CA004A08031DEB2E0130CA004A08FC
:103DD800E7024A086702031C092F6608F400650811
:103DE800F50067089F3114279E319C315C249E3171
:103DF80042014908803ABE005D08803A3E02031D30
:103E0800072F5C0848020318C92E42014708E7003B
:103E18006608F4006508F50067089F311427080054
:103E2800F70077181A2F400199171C2F4001991392
:103E38007708F6000130F636890B1F2F7618272FE2
:103E480040011917292F400119137708F60002308D
:103E5800F636890B2C2F7618342F40019916362FF9
:103E6800400199127708F6000330F636890B392F8E
:103E78007618412F40011916432F4001191277086F
:103E8800F6000430F636890B462F76184E2F40017F
:103E98009817502F400198137708F6000530F6362A
:103EA800890B532F76185B2F400118175D2F40019F
:103EB80018137708F6000630F636890B602F761847
:103EC800682F400198166A2F4001981274186F2FB6
:103ED80040019616712F400196127408F6000130C1
:103EE800F636890B742F76187C2F40019A147E2F92
:103EF80040019A107408F6000230F636890B812FBB
:103F08007618892F400196178B2F40019613740855
:103F1800F6000330F636890B8E2F7618962F40015F
:103F28001617982F400116137408F6000430F63659
:103F3800890B9B2F7618A32F40011814A52F400139
:103F480018107408F6000530F636890BA82F761875
:103F5800B02F40019814B22F400198107408F60051
:103F68000630F636890BB52F7618BD2F4001181587
:103F7800BF2F40011811750C031C1A1003181A14CE
:103F8800991543015108F2005008F100AC31EA24B8
:103F98009F31400199111A30890BD02F003240010E
:103FA800181243015108F2005008F100AC31EA241C
:103FB8009F314001181643015108F2005008F100E2
:103FC800AC31EA249F31400199131913991219123F
:103FD80098131813981296129A109613161318100D
:103FE800981018111A101530F600C630890BFA2FE0
:083FF800F60BFA2F003208005D
:1040020071087204031926280130F500F21B1128E9
:104012000130F135F20D890B0A280130F507072826
:1040220072087402031D172871087302031C1D28ED
:104032007108F3027208F43B0130F236F10C890B7D
:104042001E280130F502031D11287408F2007308BE
:10405200F100080000304001A3000030A20000304F
:10406200A1000030A000711C3F2875084001A00784
:104072007608A13D7708A23D7808A33D0130F535C9
:10408200F60DF70DF80D890B40280130F436F30CCC
:10409200F20CF10C890B4728740873047204710442
:1040A200031D342840012308F4002208F3002108EC
:1040B200F2002008F10008004001C10097117C1CA9
:1040C2006928410803196928AF311427A0316C28E7
:1040D200A3314423A0310D304001C0002D30BF0078
:1040E200D730890B7228BF0B7228C00B722800329E
:1040F20040019715FC137C124201E901AD310F25F5
:10410200A0317408BF007308BE007208BD007108B8
:10411200BC00AD310F257408BB007308BA007208E9
:10412200B9007108B800080040019711AE31EC26C1
:10413200A0314001AC016230AD00B030AE001230AF
:10414200AF000130A231F822A0314001AC01A13010
:10415200AD00B030AE000C30AF000330A231F82217
:10416200A03154304001AC003330AD00B130AE006C
:104172000330AF000330A231F822A0317A3040017F
:10418200BB00C130BA008130890BC528BA0BC528E3
:10419200BB0BC528003240018D1AD1280000CC2863
:1041A200971508004001A500A6012508A2000730C6
:1041B200A236890BD92822080139A300A30DA30D29
:1041C20016082306FB39230696004230890BE7289E
:1041D2000032400196154230890BED280032400131
:1041E20096112535A5000130A60708302602031CCA
:1041F200D62816154230890BFC280032400196154C
:104202000C0C890C0139A4004230890B06290032BA
:10421200400196114230890B0C29003240012408DA
:104222000800AD310F25A13130307107B000753073
:10423200723DB1000030733DB2000030743DB300F6
:104242004001161E08004201EA11AD317A25A13162
:1042520000309A314922A131A3319023A131430187
:1042620053084001BD00430152084001BC00AF3178
:104272007027A1310F304301E1002730E2000F30F7
:104282005406273003195506031908005508400142
:10429200AD00430154084001AC009531C625080029
:1042A20040019711AC01FD30AD00B030AE000930D5
:1042B200AF0002309431CE24A131400119117C109B
:1042C200A7310D27A13142015F084301D30042010A
:1042D2005E084301D20042015F084301E40042014B
:1042E2005E084301E300A1311221A13140011915F9
:1042F20097157C13FC114201E901AD310F25A13163
:104302007408BF007308BE007208BD007108BC00CB
:10431200AD310F257408BB007308BA007208B900EA
:104322007108B80008009831AE20A1312408B0000D
:104332002508B100890D893B8909B200B30001301B
:104342009931BC21A13133084101E1004001320819
:104352004101E000400131084101DF004001300825
:104362004101DE0099313521A1312408B000250830
:10437200B100890D893B8909B200B300013099313E
:10438200BC21A13133084101E5004001320841015D
:10439200E400400131084101E300400130084101DD
:1043A200E2008031F720A131AD314D250800A8008F
:1043B2002708023EAB009331C023A1317830A031EF
:1043C200D320A131003A0319E8294201EA1500304D
:1043D200A031D320A1312808B03EA031D320A13191
:1043E20010302B020318F9292B08A900AA010A2A66
:1043F2002B08FB000430FB36890BFC297B08AA0042
:10440200F030F1002A0888310020A13140012B0749
:10441200A9002908A031D320A1312A08103EA031D9
:10442200D320A1319331C023A1317830A031D320E0
:10443200A1314030A031D32008004001161E0800EF
:104442009331C023A2317830A031D320A231403041
:10445200A031D320A231B3017330A7003308A131B8
:10446200D821A231B2013308AC00AD012C08F7000B
:104472002D08F8000B30F9000030FA00AD31E925C3
:10448200A2310030AE00B030AF0077082E07B00086
:1044920078082F3DB1003208300784003108031834
:1044A200013E85000008A031D320A2310130B207BD
:1044B2000B303202031C342A0130B30704303302BA
:1044C200031C2D2AAC31FC24080000304105C90030
:1044D20000304205CA0080304305CB007F304405DE
:1044E200CC004C084B044A044904031D802A0030C6
:1044F200C4000030C3000030C2000030C1000030F0
:104502004505C90000304605CA0080304705CB008A
:104512007F304805CC004C084B044A044904031D73
:104522009A2A0030C8000030C7000030C6000030B0
:10453200C50048084406031DA82A47084306031D70
:10454200A82A46084206031DA82A4508410603195F
:10455200AC2A03100800031408000030A700003042
:10456200A6000030A5006430A4003208F100330830
:10457200F200890D893B8909F300F4000030F8004C
:104582000030F7000030F6001930F500A0312B2082
:10459200A2317408AB007308AA007208A90071085E
:1045A200A80098313120A2312708B7002608B600AA
:1045B2002508B5002408B400B71BEC2A3708031DF0
:1045C200F22A3608031DF22A3508031DF22AC930E1
:1045D20034020318F22A40013508B3003408B2004D
:1045E2000800C8304001B2000030B3000800B60035
:1045F200161E08002C08A7003608A131D821A231C6
:10460200B8012F0838020318412B38082D078400FF
:104612002E080318013E85000008E03EB700B901EC
:104622003708B000B1013008F7003108F800053052
:10463200F9000030FA00AD31E925A2310030B200B4
:104642009030B30077083207B4007808333DB500E4
:1046520039083407840035080318013E8500000834
:10466200A031D320A2310130B90705303902031C31
:10467200112B0030A031D320A2310130B807022B18
:10468200AC31FC2408007C18572B42016708430117
:10469200D800420166084301D70042016508430180
:1046A200D6006408CF006308CE007C144201E70103
:1046B200E601E5016608F4006508F50067089F3128
:1046C2001427A3314001AC010730AD00B130AE0078
:1046D2000930AF0002309431CE24A33119304001A9
:1046E200BE005A30BD00B130890B752BBD0B752B46
:1046F200BE0B752B00320530AE318226A331430149
:10470200D201D3013C304001AC002A30AD00B130BF
:10471200AE000430AF0002309431CE2408004001D4
:10472200AC012030AD00B130AE000430AF0000303B
:104732009431CE24A33160304001AC003B30AD0057
:10474200B130AE00AF01AF0A00309431CE24A331B4
:10475200A2311E22A3312A304001AC003730AD0015
:10476200B130AE00AF01AF0A00309431CE24A33194
:104772007C18C02B25304001BC00B130C42B1B304B
:104782004001BC00B130BD00AC013D08AE003C08A8
:10479200AD000430AF0002309431CE24A3312A3070
:1047A2004001AC003730AD00B130AE00AF01AF0A0E
:1047B20002309431CE240800A701A31FE72BA209DF
:1047C200A309A20A0319A30A0130A700A51FF02B0F
:1047D200A409A509A40A0319A50A0130A706A8017C
:1047E200A9012208230403191D2C0130A600A31BD2
:1047F200022C0130A235A30D890BFB2B0130A60739
:10480200F82B0130A835A90D890B032C23082502AA
:10481200031D0D2C22082402031C142C2208A402BE
:104822002308A53B28140130A336A20C890B152CB2
:104832000130A602031D022C27080319252CA80902
:10484200A909A80A0319A90A2908A3002808A2008D
:1048520008007E01B801C3014314C3144315CE01FD
:10486200E401D90153019013941340018C018D018D
:104872008E018F0190019601970110309800063049
:1048820099009A01910127309200930194019501B8
:104892007E013A15BA15DB145B1540019F121F17F2
:1048A2009F131E16C0309C00E0309D004E018C12FA
:1048B20040019E174E0196161E304F019600FE30A3
:1048C2009700473098007F30990077309A00DF30A8
:1048D2009B008B170530F2000F30F100F130890B8D
:1048E200702CF10B702CF20B702C000008004201AE
:1048F200C1019C315C24A43142015D08C3005C0803
:10490200C2000130E6008E2C42016608C1005D083B
:10491200C3005C08C2000310E60D413066020318B2
:10492200BF2C6608F4006508F50067089F3114275C
:10493200A4319C315C24A431420143084001B300FC
:10494200420142084001B200A231AE22A43142012A
:104952004208400132074201BE0043084001333D94
:104962004201BF003F08803AC0005D08803A400221
:10497200031DBD2C5C083E020318852C4201410830
:10498200E6006608F4006508F50067089F31142701
:1049920008004201C1019C315C24A43142015D083E
:1049A200C3005C08C2000130E700E02C4201670846
:1049B200C1005D08C3005C08C2000310E70D41306E
:1049C20067020318112D6608F4006508F5006708F0
:1049D2009F311427A4319C315C24A4314201430845
:1049E2004001B300420142084001B200A231AE22AE
:1049F200A43142014208400132074201BE0043088D
:104A02004001333D4201BF003F08803AC0005D08CB
:104A1200803A4002031D0F2D5C083E020318D72C7A
:104A220042014108E7006608F4006508F5006708DE
:104A32009F31142708004201C3019C315C24A53137
:104A420042015D08C2005C08C1000130E700322D5E
:104A520042016708C3005D08C2005C08C100031080
:104A6200E70D413067020318632D6708F4006508FB
:104A7200F50067089F311427A5319C315C24A531CC
:104A8200420142084001B300420141084001B20024
:104A9200A231AE22A5314201410840013207420152
:104AA200BE0042084001333D4201BF003F08803A48
:104AB200C0005D08803A4002031D612D5C083E0281
:104AC2000318292D42014308E7004308E60066085F
:104AD200F4006508F50067089F31142708008B135E
:104AE20040019E134E018C1216167E01CA12C9167F
:104AF2004001161217169715C2014208031D902D88
:104B020005304001C1000F30C000F130890B872D04
:104B1200C00B872DC10B872D7E01CA1263000000D6
:104B220005304001C1000F30C000F130890B972DD4
:104B3200C00B972DC10B972D40018D1AA32D01306B
:104B4200C207A42DC20110304202031C7E2D4E0169
:104B520016127E01C912CA1240019E178B1742011A
:104B6200EA14A6319726A53140018D1ABA2D00000C
:104B7200B52D4201E901FC137C13FC128B13430196
:104B82004308B7004208B6004108B5004008B40027
:104B92008B170800F91FCF2D0130D02D0030A20055
:104BA2002208031DD92D7908A4007808A300E42D5A
:104BB2007809A0007909A100A00A0319A10A200816
:104BC200A3002108A400A5017A0825078600023067
:104BD2008700203081000130A50706302502031C22
:104BE200E52D7A08063E86000230870081010530F5
:104BF200A5007A0825078600023087000A30F100F6
:104C02000030F2002408F4002308F300A031012050
:104C1200A5317108303E81000130A5020A30F10051
:104C22000030F2002408F4002308F300AF31CE274D
:104C3200A5317208A4007108A30023082404031DEF
:104C4200FA2D2208031908007A0825078600023087
:104C520087002D308100080003103B0D3C0D400100
:104C6200EE006E08031D3F2E00304101BC000030F3
:104C7200BB000030BA000030B90008004101390819
:104C8200BD003A08BE003B08BF003C08C0001F3010
:104C9200C036BF0CBE0CBD0C890B492E3D0840012D
:104CA200ED004101BB17FF30B905FF30BA05FF30F7
:104CB200BB050030BC0596304001EE02EE1F742E9B
:104CC2006E08803A973E031C352E01304101BC36F6
:104CD200BB0CBA0CB90C890B672E01304001EE07F0
:104CE2000319872E662E20306E020318352E6E08A9
:104CF2000319872E01304101B935BA0DBB0DBC0D28
:104D0200890B7C2E01304001EE02782E6D080319CA
:104D120008004101B909BA09BB09BC09B90A03195A
:104D2200BA0A0319BB0A0319BC0A08004001161685
:104D320009304001BF001E30BE00E430890B9F2EB7
:104D4200BE0B9F2EBF0B9F2E0000AD317A25A631E0
:104D520068304001BE00E430890BAD2EBE0BAD2E93
:104D6200000098310020A6314201EA1CC02EA03179
:104D72009520A6314201EA10AE31EC26A631A331CC
:104D82009023A6310F304301D4002730D500643080
:104D9200E3000030E4000F30E1002730E200D201EE
:104DA200D30153084001BD00430152084001BC0039
:104DB200AF317027A631AD310F25A6310130710711
:104DC200BC000030723DBD000030733DBE000030BB
:104DD200743DBF00AD310F25A6317408BB007308C6
:104DE200BA007208B9007108B800AD310F25A631BA
:104DF20030307107B0007530723DB1000030733D44
:104E0200B2000030743DB300FC137C13FC127C1220
:104E1200FC11AD31372508009C315C24A7314201D9
:104E22005F08803AD20080305202031D1A2F793077
:104E32005E02031C0800AF319F27A7319C315C241E
:104E4200A73142015F08803AD20080305202031D2E
:104E52002C2F79305E02031C080042015D08D40049
:104E62005C08D3006608D5006708D6006503031DF9
:104E72003C2FE5013E2F0130E500AF319F27A731DE
:104E82009C315C24A73142015408803AD2005D086B
:104E9200803A5202031D4F2F5C0853020318682FF9
:104EA20042016503031D572FE501592F0130E5002B
:104EB2005508E6005608E7006608F4006508F500A4
:104EC20067089F311427A7319C315C24A731420126
:104ED2005F08803AD20080305202031D722F79306F
:104EE2005E02031C0800AF314227A7319C315C24CB
:104EF200A731E73042015E06033003195F06031D46
:104F02000800AC31BC24080000304105C900003063
:104F12004205CA0080304305CB007F304405CC00F7
:104F22004C084B044A044904031D9F2F0030C4005F
:104F32000030C3000030C2000030C100003045051F
:104F4200C90000304605CA0080304705CB007F30DB
:104F52004805CC004C084B044A044904031DB92FF0
:104F62000030C8000030C7000030C6000030C50065
:104F7200C41FD32F0030C9000030CA000030CB005C
:104F82008030CC004108C9024208CA3B4308CB3BEF
:104F92004408CC3B4C08C4004B08C3004A08C2007A
:104FA2004908C100C81FED2F0030C9000030CA00F7
:104FB2000030CB008030CC004508C9024608CA3B0D
:104FC2004708CB3B4808CC3B4C08C8004B08C700FD
:104FD2004A08C6004908C5008030C4068030C806A9
:104FE20048084402031D080047084302031D080045
:0E4FF20046084202031D08004508410208005F
:105954001030AE31C62608000130A0315D200800A9
:105964000030A0315D200800640080010131890B02
:10597400B72C0034E7010130E600E5016608F400C5
:105984006508F50067089F3114270800F3007308C1
:1059940041019E003530890BCD2C000041011314C8
:1059A4001318D22C0D08F2000C08F1000800F600C0
:1059B4000F307605F4000A30F1007608F500043063
:1059C400F536890BE22C750888310020740708002D
:1059D4000130F1020030F23B710A0319720A031913
:1059E40008000B30F3006230890BF62CF30BF62C15
:1059F4000032EA2C400116114230890BFF2C003290
:105A0400400196154230890B052D003240011615D0
:105A14004230890B0B2D003208008B1343014308DD
:105A2400F8004208F7004108F6004008F5008B171B
:105A34007808F4007708F3007608F2007508F1009E
:105A440008000A340034003400340A3400340034CA
:105A540000340F34273464340034013402344034C5
:105A6400783401340234403478348B1343012F08E2
:105A7400DC002E08DB002D08DA002C08D9002B08E6
:105A8400E0002A08DF002908DE002808DD007C1178
:105A9400FC108B1708006108803A4001C000803078
:105AA4004002031D582D013042016002031C08000E
:105AB4004001161E602DAD3137250800A63197260A
:105AC4000800F4007408031D692D00300800FF303D
:105AD4007407F100F10A8030F2000030F300752DF4
:105AE400730DF30CF20CF10B722D7208003C0800DC
:105AF40040011615F1018E2D40010C19922D9611BD
:105B04004230890B832D0032400196154230890BB7
:105B1400892D00320130F10709307102031C7E2DFA
:105B2400AC31FC240800FB004001161E0800933130
:105B3400C023AD317830A031D320AD31003A031900
:105B4400A52D4201EA158030A031D320AD317B0868
:105B5400A031D320AD31AC31FC2408002030AE316B
:105B6400C626AD31A0300032890BB52D0930AC31D9
:105B7400C824AD317208F8007108F7000B30F90041
:105B84000030FA00AD31E92578084201E3007708D6
:105B9400E20008008030BC064008B0003F08AF00B7
:105BA4003E08AE003D08AD003C08B4003B08B3001D
:105BB4003A08B2003908B1008E3117263008BC000B
:105BC4002F08BB002E08BA002D08B90008004001B8
:105BD400A001A101771CF32D79084001A0077A08E0
:105BE400A13D0130F935FA0D890BF42D0130F83659
:105BF400F70C890BF92D77087804031DEC2D40016F
:105C04002108F8002008F7000800F200F301F4016D
:105C14007208F100740A0F2EF136890B0E2E711CD6
:105C24001D2E0330F1007435890A192EF135890BC4
:105C3400182E7108F3040130F40704307402031CB5
:105C44000A2E73080800AE31EC26AE314001AC01D7
:105C5400C730AD00B030AE000B30AF00013094312E
:105C6400CE24AE3152304001C4002B30C30000308A
:105C7400890B3A2EC30B3A2EC40B3A2E0000A531E1
:105C840070250800F900F501F6017108F300F4012C
:105C94007308F7007408F800791C542E7708F50788
:105CA4007808F63D0130F735F80D890B552E0310B1
:105CB400F90C7908031D4E2E7608F2007508F100E0
:105CC4000800F200F40171080319802E0130F3007A
:105CD400F11B712E0310F10D0130F3076A2E03102E
:105CE400F40D71087202031C7B2E7108F202741405
:105CF4000310F10C0130F302031D712E7408080027
:105D04004001BC007C1C8B2EAC01E930AD00B030EE
:105D14008F2EAC01F330AD00B030AE003C08AF00C4
:105D240002309431CE24AE312A304001AC003730F9
:105D3400AD00B130AE00AF01AF0A02309431CE24D1
:105D440008009711161619117C109C315C24AE3191
:105D540042015F08803AD70080305702031DB42EF9
:105D640064305E02031CB82EA7310D2740011915BB
:105D740042015F084301D30042015E084301D2009F
:105D840040019715FC110800F300410193137308B7
:105D940060390319E22E731BD12E0130D22E02304A
:105DA400F1000030F20052010C087106FC39710652
:105DB4008C008C170C1FDC2E033041019A00E32E5B
:105DC4009A019401950196019D019C011430930060
:105DD400931708004001161E08009331C023AE310A
:105DE4007830A031D320AE314030A031D320AE3151
:105DF400AD01A7012D08A131D821AE31AC0101308C
:105E0400AC070030A031D320AE3180302C02031C0B
:105E1400012F0130AD0708302D02031CFB2EAC31DD
:105E2400FC2408007C10430158084201E7004301A8
:105E340057084201E600430156084201E50066089E
:105E4400F4006508F50067089F311427AF3143015A
:105E54004F08E4004E08E3000530AE318226AF312E
:105E64004301D201D3013C304001AC002A30AD00E3
:105E7400B130AE000430AF0002309431CE240800BB
:105E84004201E401CD016608CB006708CC00670835
:105E94006602031C542F9D314425AF319E312C26BC
:105EA400AF315A2F9E312C26AF319D314425AF316D
:105EB400420166084B06031D682F67084C06031D44
:105EC400682F6408031D6E2F0130E4000130CD07F4
:105ED40004304D02031C452FE40108003C083D0436
:105EE400031D802F3C30AC002A30AD00B130AE0031
:105EF4000430AF0002309431CE2408003D08F9008C
:105F04003C08F8002030FA00A531CB25AF3144011C
:105F14002308A8002E30A9002408AA002508AB00F5
:105F24003C304001AC002830AD000230AE000430FB
:105F3400AF0002309431CE2408004201E601E701AB
:105F44006608F4006508F50067089F311427AF312F
:105F54009C315C24AF3142015F08803AD10080302B
:105F64005102031DB72F79305E02031C08009331E0
:105F7400D923AF319C315C24AF3142015F08803AB0
:105F8400D10080305102031DC92F79305E02031CF9
:105F94000800AF3142270800F601F70171087204C6
:105FA4000319FB2F0130F500F21BE02F0130F1350E
:105FB400F20D890BD92F0130F507D62F0130F635B4
:105FC400F70D890BE12F72087402031DEB2F710882
:105FD4007302031CF22F7108F3027208F43B761467
:105FE4000130F236F10C890BF32F0130F502031D59
:105FF400E02F7708F2007608F1000800F834F8344E
:106004001F341F340334033403341F341F34F8346F
:10601400F834FF34FF3400340034003400340034E6
:1060240000340034FF34FF34FF34FF3400340034D0
:1060340000340034003400340034FF34FF34FF34BF
:10604400FF34C034C034C034C034C034C034C0346D
:10605400FF34FF34F834F8341F341F34033403346A
:1060640003341F341F34F834F834FF34FF3400345D
:10607400003400340034003400340034FF34FF347E
:10608400FF34FF340034003400340034003400346E
:106094000034FF34FF34FF34FF34C034C034C03420
:1060A400C034C034C034C034FF34FF340534303419
:1060B4000734103415341334013404341434603484
:1060C4002034443445345334493447344E3445340D
:1060D400443420344234593420344E343734443434
:1060E40044344334003453347434613463346B348F
:1060F400203475346E3464346534723466346C34EC
:106104006F347734003453347434613463346B340F
:1061140020346F3476346534723466346C346F34BE
:10612400773400344D3443344C3452342034723494
:1061340065347334653474342034203400342034AA
:106144004634573420345634453452345334493465
:106154004F344E34203400345734443454342034CF
:106164006F3476346534723466346C346F34773417
:10617400003442344F34523420347234653473342E
:1061840065347434203420340034203450344F3493
:1061940057344534523420344F3446344634203452
:1061A4000034203420344C344F34573420344234B7
:1061B40041345434543420340034203420342034D2
:1061C4002034203420342034203420340034423429
:1061D40059345034203420342034203420342034B2
:1061E400003453345734523420342034203420348F
:1061F400203420340034543455344E34453420345F
:10620400203420342034203400344234593450347F
:1062140041345334533420342034203400344F3444
:106224005634453452344C344F344134443420349D
:106234000034423459345034203400345034573408
:10624400523420340034533457345234203400341C
:1062540030342E3430343034003430342E3430344E
:10626400003431342E34363400343D3400343E347A
:0662740000345734003431
:020000040001F9
:0A000E008C3F3D3F9F3FFF3FFF3F47
:00000001FF
