:040000008031C6285D
:100008007E14803100308600003087004E018C1E3F
:10001800C4288C1201304201DC070030DD3DDE3D92
:10002800DF3D430157085604550454040319222898
:100038000130D4020030D53BD63BD73B5B085A048D
:100048005904580403192E280130D8020030D93B2E
:10005800DA3BDB3BC03040019C00E0309D004301AF
:10006800330842015F02031D492843013208420157
:100078005E02031D49284301310842015D02031D48
:1000880049284301300842015C02031CC4280A3095
:100098004301B0070030B13DB23DB33D40018F1878
:1000A8005728013058280030F0008D1A5D2801309B
:1000B8005E280030700400380319732843012F08A4
:1000C800D7002E08D6002D08D5002C08D4002B0800
:1000D800DB002A08DA002908D9002808D8004001DE
:1000E8008D1A9228FA3042016A0203187D280130DD
:1000F800EA0719306A0603197C164001160E013901
:10010800F000FA3042016A06031D8C2801308D2860
:100118000030700503199D28FC159D280330420105
:100128006A02031C9C2819306A0203189C28FC16D2
:10013800EA0140018F18B9281930420169020318F1
:10014800A7280130E90740010F0C890C0139F0009C
:10015800143042016906031DB3280130B428003069
:1001680070050319C428FC14C4280230420169022E
:10017800031CC3280A3069020318C3287C15E90147
:100188007E1009008031C828CC308400AD3085004D
:10019800D430860001308700143098310120803136
:1001A800FC014301E8015C308400013085000F3018
:1001B800AD3151258031A0308400013085003430C4
:1001C800AD31512580312030840002308500103057
:1001D800AD3151257E1040019B31832B44304001C5
:1001E800C1007A30C0000030BF000030BE004101BD
:1001F80061084001C500410160084001C400410197
:100208005F084001C30041015E084001C200893116
:100218001C21803141084101E100400140084101B1
:10022800E00040013F084101DF0040013E08410174
:10023800DE0044304001C1007A30C0000030BF0009
:100248000030BE00410165084001C5004101640855
:100258004001C400410163084001C3004101620834
:100268004001C20089311C21803141084101E5006B
:10027800400140084101E40040013F084101E3001A
:1002880040013E084101E20061084001DB004101F4
:1002980060084001DA0041015F084001D9004101CE
:1002A8005E084001D800430127084001DF004301F0
:1002B80026084001DE00430125084001DD00430116
:1002C80024084001DC0085310C2580315B0842019F
:1002D800A70040015A084201A600400159084201FE
:1002E800A500400158084201A400410161084001ED
:1002F800DB00410160084001DA0041015F0840016C
:10030800D90041015E084001D8004301230840019B
:10031800DF00430122084001DE00430121084001BB
:10032800DD00430120084001DC0085310C258031C7
:100338005B084101B00040015A084101AF0040018B
:1003480059084101AE00400158084101AD0061085B
:100358004001DB00410160084001DA0041015F080B
:100368004001D90041015E084001D8004201270838
:100378004001DF00420126084001DE004201250855
:100388004001DD00420124084001DC0085310C25D4
:1003980080315B084101B40040015A084101B300B3
:1003A800400159084101B200400158084101B1001B
:1003B8008C31252480313008E1002F08E0002E0818
:1003C800DF002D08DE0065084001DB0041016408FC
:1003D8004001DA00410163084001D9004101620887
:1003E8004001D800430127084001DF0043012608E7
:1003F8004001DE00430125084001DD0043012408D7
:100408004001DC0085310C2580315B084201A700E2
:1004180040015A084201A600400159084201A500BE
:10042800400158084201A400410165084001DB0071
:10043800410164084001DA00410163084001D90024
:10044800410162084001D800430123084001DF0050
:10045800430122084001DE00430121084001DD007C
:10046800430120084001DC0085310C2580315B0800
:100478004101B00040015A084101AF00400159084C
:100488004101AE00400158084101AD006508400136
:10049800DB00410164084001DA00410163084001C2
:1004A800D900410162084001D800420127084001F3
:1004B800DF00420126084001DE0042012508400114
:1004C800DD00420124084001DC0085310C25803123
:1004D8005B084101B40040015A084101B3004001E2
:1004E80059084101B200400158084101B1008C315E
:1004F800252480313008E5002F08E4002E08E300A9
:100508002D08E20061084001DF0041016008400158
:10051800DE0041015F084001DD0041015E08400145
:10052800DC004130DB002030DA000030D900003038
:10053800D80085310C2580315B084101B4004001A9
:100548005A084101B300400159084101B200400175
:1005580058084101B1003F30B0000030AF00003012
:10056800AE000030AD008C31252480313008BC004D
:100578002F08BB002E08BA002D08B900A6311E2688
:10058800803141013A084201E50041013908420140
:10059800E40000304101C4000030C3000030C20054
:1005A8000030C1006108C8006008C7005F08C600C5
:1005B8005E08C500A731002780310318F82A6508AE
:1005C800C4006408C3006308C2006208C10061086F
:1005D800C8006008C7005F08C6005E08C500A731EC
:1005E80000278031031CFE2A10304201E00027302A
:1005F800E100602B65084001C50041016408400125
:10060800C400410163084001C30041016208400180
:10061800C200410161084001C10041016008400178
:10062800C00041015F084001BF0041015E08400170
:10063800BE0089311C2180314108DF004008DE00FE
:100648003F08DD003E08DC004630DB001C30DA00E5
:100658004030D9000030D80085310C2580315B0846
:100668004101B40040015A084101B3004001590852
:100678004101B200400158084101B1003F30B000CB
:100688000030AF000030AE000030AD008C312524C2
:1006980080313008BC002F08BB002E08BA002D0896
:1006A800B900A6311E26803141013A084201E10015
:1006B800410139084201E0006508803AFB00430126
:1006C8004308803A7B02031D6C2B420842016402F6
:1006D8000318722B4201E201E30108004101650899
:1006E800C4006408C3006308C2006208C10061084E
:1006F800C8006008C7005F08C6005E08C500A731CB
:1007080000278031031C8E2BE7304201E2000330C2
:10071800E300080061084001C10041016008400190
:10072800C00041015F084001BF0041015E0840016F
:10073800BE00410165084001C5004101640840014F
:10074800C400410163084001C3004101620840013F
:10075800C20089311C21803141084201A3004001B7
:1007680040084201A20040013F084201A1004001A7
:100778003E084201A00023084101D000420122089E
:100788004101CF00420121084101CE004201200869
:100798004101CD009631C926803150084201AB0095
:1007A80041014F084201AA0041014E084201A90037
:1007B80041014D084201A8003F304101C00080308E
:1007C800BF000030BE000030BD0042012B084101CF
:1007D800BC0042012A084101BB004201290841012D
:1007E800BA00420128084101B9009331C023803181
:1007F8003C08C4003B08C3003A08C2003908C100DD
:100808000030C8000030C7000030C6000030C50006
:10081800A23152228031031C1A2C3A304201AB001B
:100828008330AA001230A9006F30A80042012B08BB
:100838004101BC0042012A084101BB0042012908CC
:100848004101BA00420128084101B9003F30C00007
:100858008030BF000030BE000030BD009331C0239F
:1008680080313C084001C10041013B084001C00003
:1008780041013A084001BF00410139084001BE006A
:100888003F304101B0008030AF000030AE00003092
:10089800AD0042012B084101B40042012A08410180
:1008A800B300420129084101B20042012808410170
:1008B800B1008C312524803130084001C500410148
:1008C8002F084001C40041012E084001C300410126
:1008D8002D084001C20089311C21803141084201A4
:1008E800AB00400140084201AA0040013F08420114
:1008F800A90040013E084201A8002B084101C4009C
:1009080042012A084101C300420129084101C200ED
:10091800420128084101C1003F30C8008030C700AB
:100928000030C6000030C500A73100278031031809
:10093800A62C3F304201AB008030AA000030A9004D
:100948000030A80041304101C4001F30C300C2304C
:10095800C2008F30C10042012B084101C80042018A
:100968002A084101C700420129084101C600420185
:1009780028084101C500A73100278031031C882BB6
:1009880042012B084001DF0042012A084001DE0035
:10099800420129084001DD00420128084001DC002D
:1009A8004230DB00C830DA000030D9000030D8000F
:1009B80085310C2580315B084101B40040015A089B
:1009C8004101B300400159084101B20040015808F3
:1009D8004101B1003F30B0000030AF000030AE0040
:1009E8000030AD008C31252480313008BC002F0840
:1009F800BB002E08BA002D08B900A6311E264101F9
:100A08003A084201E300410139084201E2000800C6
:100A18005B0880394101A00040015B354101A2001B
:100A28004001DA1F192D410122144101220803193E
:100A38002C2D220A031D292D00304001DB00003037
:100A4800DA000030D9000030D8004001DA17352D1F
:100A580000304001DB000030DA000030D9000030FF
:100A6800D8005F0880394101A00640015F35410187
:100A7800A1004001DE1F422D41012114410121083E
:100A88000319552D210A031D522D00304001DF00A6
:100A98000030DE000030DD000030DC004001DE17F1
:100AA8005E2D00304001DF000030DE000030DD0048
:100AB8000030DC0041012108031D2208031D6E2DB2
:100AC80000304001DB000030DA000030D90000308F
:100AD800D800080040015808F1005E08AE318726AA
:100AE800853172084101AC007108AB002B08400148
:100AF800E000E101E201E30163084101A6004001D1
:100B080062084101A500400161084101A4004001BB
:100B180060084101A3002C084001E000E101E20166
:100B2800E30163084101AA00400162084101A900EC
:100B3800400161084101A800400160084101A70087
:100B480040015908F1005D08AE31872685317208E9
:100B58004101AC007108AB002B084001E000E10145
:100B6800E201E30160084101A30740016108410176
:100B7800A43D400162084101A53D400163084101CF
:100B8800A63D2C084001E000E101E201E301600814
:100B98004101A707400161084101A83D40016208E1
:100BA8004101A93D400163084101AA3D40015A089D
:100BB800F1005C08AE318726853172084101AC002E
:100BC8007108AB002B084001E000E101E201E301FC
:100BD80060084101A307400161084101A43D4001AB
:100BE80062084101A53D400163084101A63D2C086A
:100BF8004001E000E101E201E30160084101A707CB
:100C0800400161084101A83D400162084101A93D38
:100C1800400163084101AA3D0830A335A40DA50D84
:100C2800A60D890B112E40015908F1005C08AE3160
:100C38008726853172084101AC007108AB002B088A
:100C4800A3072C08A43D0030A53DA63D4001580847
:100C5800F1005D08AE318726853172084101AC008C
:100C68007108AB002B08A3072C08A43D0030A53D54
:100C7800A63D0830A335A40DA50DA60D890B3E2E63
:100C880040015808F1005C08AE31872685317208AA
:100C98004101AC007108AB002B08A3072C08A43D48
:100CA8000030A53DA63D40015908F1005E08AE316F
:100CB8008726853172084101AC007108AB002B080A
:100CC800A7072C08A83D0030A93DAA3D40015A08B5
:100CD800F1005D08AE318726853172084101AC000C
:100CE8007108AB002B08A7072C08A83D0030A93DC8
:100CF800AA3D40015A08F1005E08AE3187268531C9
:100D080072084101AC007108AB002B084001E000FB
:100D180041012C084001E100E201E3010830E0351F
:100D2800E10DE20DE30D890B932E60084101A70741
:100D3800400161084101A83D400162084101A93D07
:100D4800400163084101AA3D26084001E000E10195
:100D5800E201E30160084101A70740016108410180
:100D6800A83D400162084101A93D400163084101D5
:100D7800AA3D0830A335A40DA50DA60D890BBE2EDE
:100D8800220821074001E000E101E10D6008823EF0
:100D98004101AB00FF304001613D4101AC00A91B9E
:100DA800EA2E0130A735A80DA90DAA0D890BD62E5C
:100DB800A61B27140130A335A40DA50DA60D890B7C
:100DC800DF2EFF30AB07FF30AC3DD32EA101A61FAD
:100DD8000C2FFF3023054001E000FF3041012405BE
:100DE8004001E100FF30410125054001E2007F306C
:100DF800410126054001E3006308620461046004C0
:100E0800031D092F4101271C0C2F01304101A100AE
:100E180021080319412F0130A7070030A83DA93D3B
:100E2800AA3D2A1C412F27084001E000410128085B
:100E38004001E100410129084001E20041012A087E
:100E48004001E3000130E400E337E20CE10CE00C80
:100E5800E40B282F63084101AA0040016208410100
:100E6800A900400161084101A80040016008410152
:100E7800A7000130AB070030AC3D2C08803A400198
:100E8800E00080306002031D4C2FFF3041012B022F
:100E9800031C582F7F304101AA008030A900003080
:100EA800A8000030A700882F41012C08803A400193
:100EB800E00080306002031D642F013041012B02E5
:100EC8000318712F00304101AA000030A90000303A
:100ED800A8000030A700A001882F41012B08A2001C
:100EE800FF30A705FF30A8057F30A9050030AA0507
:100EF8002218A91722084001E0000130E036890BCA
:100F0800822F60084101AA002008AA042A0840018B
:100F1800DB00410129084001DA00410128084001AD
:100F2800D900410127084001D8000800F91F9E2F69
:100F380001309F2F0030A2002208031DA82F790836
:100F4800A4007808A300B32F7809A0007909A100AC
:100F5800A00A0319A10A2008A3002108A400A501DA
:100F68007A0825078600023087002030810001308A
:100F7800A50706302502031CB42F7A08063E860012
:100F88000230870081010530A5007A082507860010
:100F9800023087000A30F1000030F2002408F40023
:100FA8002308F300AF31792787317108303E81007B
:100FB8000130A5020A30F1000030F2002408F400E4
:100FC8002308F300A031332087317208A400710888
:100FD800A30023082404031DC92F220803190800AD
:100FE8007A0825078600023087002D308100080026
:100FF8000030A13187210800AD31A6250800420143
:10100800BD000030B7000030B6000030B500003039
:10101800B4000030BB000030BA000030B900003026
:10102800B800BC013D083C0203185928A7317B27AA
:10103800883124084101E600400125084101E70004
:101048000030E71BFF30E800E90066084201B407FA
:10105800410167084201B53D410168084201B63DBA
:10106800410169084201B73D98318420883124083C
:101078004101E600400125084101E7000030E71B77
:10108800FF30E800E90066084201B8074101670837
:101098004201B93D410168084201BA3D4101690870
:1010A8004201BB3D0130BC0716283D084101E6005E
:1010B800E701E801E90169084001B3004101680856
:1010C8004001B200410167084001B10041016608D2
:1010D8004001B00001309931092188313308C1003D
:1010E8003208C0003108BF003008BE00420137088E
:1010F8004001B300420136084001B2004201350800
:101108004001B100420134084001B000003099317B
:10111800092188313308C5003208C4003108C300EA
:101128003008C20089311C21883141084201AF00D2
:10113800400140084201AE0040013F084201AD00B5
:1011480040013E084201AC003D084101E600E701CC
:10115800E801E90169084001B3004101680840015C
:10116800B200410167084001B10041016608400131
:10117800B00001309931092188313308C1003208A3
:10118800C0003108BF003008BE0042013B084001E2
:10119800B30042013A084001B20042013908400157
:1011A800B100420138084001B000003099310921EE
:1011B80088313308C5003208C4003108C30030083C
:1011C800C20089311C21883141084201B300400125
:1011D80040084201B20040013F084201B10040010D
:1011E8003E084201B0002F084101E10042012E08EB
:1011F8004101E00042012D084101DF0042012C08B5
:101208004101DE00420133084101E5004201320894
:101218004101E400420131084101E3004201300884
:101228004101E2008031F2208831AF312E270800D9
:1012380045088039CF004535D600C41B56145608DA
:1012480003193429560A031D31290030C50000301E
:10125800C4000030C3000030C200C417C5013C29D7
:101268000030C5000030C4000030C3000030C200A8
:1012780041088039CF064135D700C01B571457089D
:1012880003195429570A031D51290030C1000030A1
:10129800C0000030BF000030BE00C017C1015C298B
:1012A8000030C1000030C0000030BF000030BE0078
:1012B800410840043F043E04031D79290030C5005D
:1012C8000030C4000030C3000030C2008030C404C5
:1012D8007F30C5044F08C5044508C1004408C00054
:1012E8004308BF004208BE0008005608031D8529B0
:1012F8000030C1000030C0000030BF000030BE0028
:1013080008005608C600C7014708C9005708460222
:10131800C800031CC90348087F3ED0000030493D7F
:10132800D1004508CE004408CD004308CC0042084F
:10133800CB000030C5000030C4000030C3000030CE
:10134800C2000030D5000030D4000030D300003097
:10135800D200D7011A3057020318E8295708031991
:10136800CC290130CB35CC0DCD0DCE0D890BB6294E
:101378000130C235C30DC40DC50D890BBD29D51B60
:1013880042140130D235D30DD40DD50D890BC629A1
:1013980041084E02031DDA2940084D02031DDA29CF
:1013A8003F084C02031DDA293E084B02031CE529BD
:1013B80055173E08CB023F08CC3B4008CD3B4108BF
:1013C800CE3B0130D707AE294E084D044C044B04E0
:1013D800031D5214C41B052A0130C235C30DC40DA8
:1013E800C50D890BF129D51B42140130D235D30D17
:1013F800D40DD50D890BFA29FF30D007FF30D13D28
:10140800EE29D701D51F1E2AFF305205C600FF302E
:101418005305C700FF305405C8007F305505C90083
:101428004908480447044604031942181C2A1E2A7E
:101438000130D70057080319452A0130C207003088
:10144800C33DC43DC53D451C452A4208C600430866
:10145800C7004408C8004508C9000130CA00C93798
:10146800C80CC70CC60CCA0B332A4908C500480863
:10147800C4004708C3004608C2000130D007003046
:10148800D13D5108803AC60080304602031D4E2ADD
:10149800FF305002031C5D2AFF304001D0000030AD
:1014A800D1000030C5000030C4000030C300003057
:1014B800C20040015108803AC60080304602031D30
:1014C800672A013050020318752A4001D001D10162
:1014D8000030C5000030C4000030C3000030C20036
:1014E800CF0140015008D600561C7C2AC4177E2A1A
:1014F8007F30C4055608C6000130C636890B812ADC
:101508004608C5006E294101C7014708BD3E86004F
:1015180087014708583E8400B0300318013E850013
:10152800000881000130C7070A304702031C892AD6
:101538003D08AD3183258A314101B900BA01BB01AB
:10154800BC013C084301AF0041013B084301AE0028
:1015580041013A084301AD00410139084301AC009B
:101568000030F4000030F300EA30F2006030F1009F
:101578002F08F8002E08F7002D08F6002C08F500B3
:10158800A03165208A3174084301AF007308AE00AA
:101598007208AD007108AC0041013E08AD318325E9
:1015A8008A314101B900BA01BB01BC013C084301C1
:1015B800AB0041013B084301AA0041013A0843013D
:1015C800A900410139084301A8000030F4000030A7
:1015D800F300EA30F2006030F1002B08F8002A0826
:1015E800F7002908F6002808F500A03165208A319F
:1015F80074084301AB007308AA007208A9007108B7
:10160800A80041013F08AD3183258A314101B90065
:10161800BA0139084301C40041013A084301C50031
:1016280041014008AD3183258A314101B900BA0131
:1016380039084301C20041013A084301C30041018E
:101648004108AD3183258A314101B900BA01390811
:10165800F7003A08F8000A30F9000030FA00AE3115
:101668002C268A3178084301C1007708C00041015F
:101678004208AD3183258A314101B900BA013908E0
:10168800F7003A08F8000A30F9000030FA00AE31E5
:101698002C268A3178084301BF007708BE00410133
:1016A8004308AD3183258A31003A03195E2B430183
:1016B8006814602B4301681041304001C10020309C
:1016C800C0000030BF000030BE0041014408AD3109
:1016D80083258A314101B900BA01BB01BC013C082C
:1016E8004001B30041013B084001B20041013A0802
:1016F8004001B100410139084001B0000130993181
:1017080009218A313308C5003208C4003108C300F2
:101718003008C20089311C218A3141084301A300E5
:10172800400140084301A20040013F084301A100D5
:1017380040013E084301A0003F304101B000803025
:10174800AF000030AE000030AD0042304001C100B3
:10175800C830C0000030BF000030BE00410145085D
:10176800AD3183258A314101B900BA01BB01BC0101
:101778003C084001B30041013B084001B20041016F
:101788003A084001B100410139084001B000013078
:10179800993109218A313308C5003208C40031085B
:1017A800C3003008C20089311C218A314108410137
:1017B800B400400140084101B30040013F08410125
:1017C800B20040013E084101B1008C3125248A3124
:1017D80030084301A70041012F084301A600410139
:1017E8002E084301A50041012D084301A40006303D
:1017F8004001A2000030A30041014608AD31832515
:101808008A314101B900BA013908F7003A08F800ED
:101818000A30F9000030FA00AE312C268A317808F7
:10182800A5007708A400A3317A2323084301BD004B
:10183800400122084301BC004508C9004408C8000B
:10184800080030088039B5003035B700AF1B3714B1
:10185800370803193D2C370A031D3A2C0030B00015
:101868000030AF000030AE000030AD00AF17B0015F
:10187800452C0030B0000030AF000030AE00003022
:10188800AD0034088039B60036083506031D351713
:101898003435B600B31B361436080319612C360AE2
:1018A800031D5E2C0030B4000030B3000030B200DD
:1018B8000030B100B317B401692C0030B400003017
:1018C800B3000030B2000030B10037083602031808
:1018D8008F2C351F712C8030B5063708B8003608B4
:1018E800B7003808B6002D08B8003108AD00380830
:1018F800B1002E08B8003208AE003808B2002F0830
:10190800B8003308AF003808B3003008B80034080E
:10191800B0003808B400B80136084001E500E60117
:101928006608E8004101370840016502E700031C2A
:10193800E8036808803AE90080306902031DA62C94
:101948001A306702031CDE2C410130082F042E04D4
:101958002D040319B12C0130B22C0030B80000302E
:10196800B0000030AF000030AE000030AD003608E7
:10197800B700E32C381CCC2C38084001E5000130B6
:10198800E536890BC42C650801384101B800CE2C16
:101998000310B80C2D18B81701304001E5004101BB
:1019A800B037AF0CAE0CAD0C4001E50BD32C0130B9
:1019B8004101B707410136083702031CBE2C351B0D
:1019C8001C2D3708031DF12C0030B0000030AF008B
:1019D8000030AE000030AD0008003108AD07320815
:1019E800AE3D3308AF3D3408B03D301CA92D381C3E
:1019F800092D38084001E5000130E536890B012D35
:101A0800650801384101B8000B2D0310B80C2D18DA
:101A1800B81701304001E5004101B037AF0CAE0CFA
:101A2800AD0C4001E50B102D01304101B707A92D80
:101A38003008803A4001E50041013408803A40010D
:101A480065024101031D322D33082F02031D322D7B
:101A580032082E02031D322D31082D020318772D6E
:101A6800FF304001E500FF30E600FF30E700FF30BF
:101A7800E80041012D0831024001E90041012E082A
:101A8800323B4001EA0041012F08333B4001EB00A3
:101A980041013008343B4001EC006908E5076A0859
:101AA800E63D6B08E73D6C08E83D68084101B00079
:101AB800400167084101AF00400166084101AE00DE
:101AC800400165084101AD008030B5063803FF3A92
:101AD800B8003808031D7F2D0130AD070030AE3D3A
:101AE800AF3DB03D7F2D3108AD023208AE3B330823
:101AF800AF3B3408B03B30082F042E042D04031DDF
:101B0800A72D3808031DA72D0030B0000030AF0006
:101B18000030AE000030AD0008000130AD35AE0D2C
:101B2800AF0DB00D890B922DB81B2D14381CA02DAC
:101B38000314380DB800A22D0310B80D3708031987
:101B4800A72D0130B702AF1F912DB601B81FB42DD4
:101B580038087F3903192D18B22DB42D0130B6007D
:101B680036080319EA2D0130AD070030AE3DAF3D10
:101B7800B03D301CEA2D2D084001E50041012E083A
:101B88004001E60041012F084001E700410130080B
:101B98004001E8000130E900E837E70CE60CE50C05
:101BA800E90BD02D68084101B000400167084101E8
:101BB800AF00400166084101AE00400165084101DF
:101BC800AD00370A0319EA2D0130B707370A031D9C
:101BD8003708031DFA2D0030B0000030AF00003088
:101BE800AE000030AD0037080319B501371CFE2DD3
:101BF800AF17002E7F30AF0537084001E5000130F0
:101C0800E536890B042E65084101B000B51F0800B0
:101C1800B01708003E089C3E4401B000FF30430165
:101C28003F3D4401B10003304201D8000830D700DD
:101C38007730890B1D2ED70B1D2ED80B1D2E440176
:101C4800B401B501B601B701B201B3013308803A56
:101C58004201D70043013D08803A42015702031D63
:101C6800392E43013C084401320203186C2EA1317D
:101C7800C9218E3144013508803A4201D7006508F0
:101C8800803A5702031D4B2E64084401340203189E
:101C98005D2E420165084401B50042016408440113
:101CA800B400420163084401B700420162084401DC
:101CB800B6000B304201D7006230890B612ED70B7A
:101CC800612E000001304401B2070030B33D2A2ED6
:101CD80044013508803A4201D70080305702031D7D
:101CE800782E013044013402031C922E4001161E46
:101CF8008F2E43012F08D7002E08D6002D08D500B7
:101D08002C08D4002B08DB002A08DA002908D9009F
:101D18002808D800922E993196218E3143015D080A
:101D280044013506031D9C2E43015C08440134061A
:101D38000319C72EFC1FA72E2A304001AC003430EF
:101D4800AD00B130AD2E2A304001AC003230AD00CC
:101D5800B130AE00AF01AF0A00309431D2248E31D9
:101D6800440135084301DD00440134084301DC0027
:101D7800440135084001BD00440134084001BC005D
:101D8800A53165258E3144013708803A4201D700D4
:101D980080305702031DD32E643044013602031CE1
:101DA800102F43014B0844013706031DDF2E430162
:101DB8004A08440136060319102F37084301CB009F
:101DC800440136084301CA0044013508803A4201FB
:101DD800D70043014308803A42015702031DF82EF9
:101DE80043014208440134020318052F43014B08FC
:101DF8004001BD0043014A084001BC00AF31D12772
:101E0800080043014B084001BD0043014A08400156
:101E1800BC00AF31D1278E31FC1F712F0330440134
:101E2800B2000030B30006304001AC001130AD0004
:101E3800B130AE000930AF0002309431D2248E3177
:101E480015304201D8004B30D700BE30890B2A2FFD
:101E5800D70B2A2FD80B2A2F00004001AC01DF3006
:101E6800AD00B030AE000930AF0002309431D2245A
:101E78008E3115304201D8004B30D700BE30890B67
:101E8800432FD70B432FD80B432F0000FF304401BB
:101E9800B207FF30B33D32083304031D172F093052
:101EA800AE31C5268E31440137084001BD004401DA
:101EB80036084001BC00AF31D1278E3115304201C0
:101EC800D8004B30D700BE30890B682FD70B682F4E
:101ED800D80B682F0000FC1308004301681C080099
:101EE8007C18080044013508803A4201D7004301B4
:101EF8004308803A42015702031D862F43014208D6
:101F080044013402031C080044013508803A4201A8
:101F1800D70043014108803A42015702031D982F18
:101F280043014008440134020318080044013708FB
:101F3800803A4201D70080305702031DA62F79301E
:101F480044013602031C080043015E0844013602BE
:101F58004201D70043015F084401373B4201D800E2
:101F680044013108803A4201D9005808803A5902A0
:101F7800031DC12F570844013002031CFD2F4401E3
:101F8800360843015E024201D70044013708430185
:101F98005F3B4201D80044013108803A4201D90030
:101FA8005808803A5902031DDC2F570844013002B3
:101FB800031CFD2FE7304201D7000330D80044014D
:101FC800300842015702D900440131084201583B08
:101FD800DA005A08803ADB0044013708803A4201A7
:101FE8005B02031DFB2F4401360842015902031806
:101FF8000800A5310D2508000034003400340034F1
:102008000034003400345F340034003400340734C2
:1020180000340734003414347F3414347F341434D7
:1020280024342A347F342A341234233413340834C1
:1020380064346234363449345534223450340034EC
:10204800053403340034003400341C342234413461
:1020580000340034413422341C34003408342A3427
:102068001C342A340834083408343E34083408341C
:102078000034503430340034003408340834083420
:102088000834083400343034303400340034203418
:1020980010340834043402343E345134493445345D
:1020A8003E34003442347F344034003442346134A6
:1020B8005134493446342134413445344B34313475
:1020C8001834143412347F341034273445344534EA
:1020D800453439343C344A34493449343034013491
:1020E80071340934053403343634493449344934B5
:1020F800363406344934493429341E3400343634ED
:102108003634003400340034563436340034003465
:10211800003408341434223441341434143414345C
:10212800143414344134223414340834003402345E
:102138000134513409340634323449347934413461
:102148003E347E341134113411347E347F344934B2
:102158004934493436343E344134413441342234EC
:102168007F344134413422341C347F344934493477
:10217800493441347F3409340934013401343E345C
:1021880041344134513432347F340834083408340B
:102198007F34003441347F344134003420344034B7
:1021A80041343F3401347F34083414342234413408
:1021B8007F3440344034403440347F340234043473
:1021C80002347F347F340434083410347F343E348E
:1021D8004134413441343E347F34093409340934BC
:1021E80006343E344134513421345E347F3409346A
:1021F800193429344634463449344934493431345D
:10220800013401347F34013401343F3440344034E4
:1022180040343F341F342034403420341F347F345A
:102228002034183420347F3463341434083414349C
:10223800633403340434783404340334613451345B
:10224800493445344334003400347F344134413414
:1022580002340434083410342034413441347F3497
:102268000034003404340234013402340434403479
:1022780040344034403440340034013402340434AF
:102288000034203454345434543478347F3448344B
:1022980044344434383438344434443444342034B2
:1022A80038344434443448347F343834543454341F
:1022B8005434183408347E34093401340234083470
:1022C8001434543454343C347F34083404340434DF
:1022D8007834003444347D3440340034203440347D
:1022E80044343D34003400347F34103428344434CA
:1022F800003441347F34403400347C34043418349E
:10230800043478347C34083404340434783438346D
:1023180044344434443438347C3414341434143459
:10232800083408341434143418347C347C340834B5
:102338000434043408344834543454345434203481
:1023480004343F344434403420343C344034403442
:1023580020347C341C342034403420341C343C3445
:102368004034303440343C34443428341034283435
:1023780044340C345034503450343C344434643491
:1023880054344C3444340034083436344134003442
:10239800003400347F34003400340034413436349F
:1023A80008340034083408342A341C340834083417
:1023B8001C342A340834083400340034003400341F
:1023C8000034003400345F340034003400340734FF
:1023D80000340734003414347F3414347F34143414
:1023E80024342A347F342A341234233413340834FE
:1023F8006434623436344934553422345034003429
:10240800053403340034003400341C34223441349D
:1024180000340034413422341C34003408342A3463
:102428001C342A340834083408343E340834083458
:10243800003450343034003400340834083408345C
:102448000834083400343034303400340034203454
:1024580010340834043402343E3451344934453499
:102468003E34003442347F344034003442346134E2
:102478005134493446342134413445344B343134B1
:102488001834143412347F34103427344534453426
:10249800453439343C344A344934493430340134CD
:1024A80071340934053403343634493449344934F1
:1024B800363406344934493429341E340034363429
:1024C80036340034003400345634363400340034A2
:1024D8000034083414342234413414341434143499
:1024E800143414344134223414340834003402349B
:1024F800013451340934063432344934793441349E
:102508003E347E341134113411347E347F344934EE
:102518004934493436343E34413441344134223428
:102528007F344134413422341C347F3449344934B3
:10253800493441347F3409340934013401343E3498
:1025480041344134513432347F3408340834083447
:102558007F34003441347F344134003420344034F3
:1025680041343F3401347F34083414342234413444
:102578007F3440344034403440347F3402340434AF
:1025880002347F347F340434083410347F343E34CA
:102598004134413441343E347F34093409340934F8
:1025A80006343E344134513421345E347F340934A6
:1025B8001934293446344634493449344934313499
:1025C800013401347F34013401343F344034403421
:1025D80040343F341F342034403420341F347F3497
:1025E8002034183420347F346334143408341434D9
:1025F8006334033404347834043403346134513498
:10260800493445344334003400347F344134413450
:1026180002340434083410342034413441347F34D3
:1026280000340034043402340134023404344034B5
:1026380040344034403440340034013402340434EB
:102648000034203454345434543478347F34483487
:1026580044344434383438344434443444342034EE
:1026680038344434443448347F343834543454345B
:102678005434183408347E340934013402340834AC
:102688001434543454343C347F340834043404341B
:102698007834003444347D344034003420344034B9
:1026A80044343D34003400347F3410342834443406
:1026B800003441347F34403400347C3404341834DA
:1026C800043478347C3408340434043478343834AA
:1026D80044344434443438347C3414341434143496
:1026E800083408341434143418347C347C340834F2
:1026F80004340434083448345434543454342034BE
:1027080004343F344434403420343C34403440347E
:1027180020347C341C342034403420341C343C3481
:102728004034303440343C34443428341034283471
:1027380044340C345034503450343C3444346434CD
:1027480054344C344434003408343634413400347E
:10275800003400347F3400340034003441343634DB
:1027680008340034083408342A341C340834083453
:102778001C342A34083408348030BC064008B000C1
:102788003F08AF003E08AE003D08AD003C08B4006D
:102798003B08B3003A08B2003908B1008C3125244F
:1027A8003008BC002F08BB002E08BA002D08B9005D
:1027B8000800FF304201CD007F30CE00FF30CF004F
:1027C8007F30D000A43115249331A431672493318C
:1027D8009C314A24933142016308803AC400803016
:1027E8004402031DF92B79306202031C08004201E0
:1027F8006108CC006008CB006808C5006708C600FF
:10280800033067020318342C033068020318342C91
:10281800E701E8016708F4006608F50068089D31DB
:1028280032259331A43167249331A431152493318F
:102838009C314A24933142016308803AC4008030B5
:102848004402031D292C79306202031C080042014E
:102858006108CE006008CD006808C7006708C80096
:10286800033067020318612C033068020318612CD7
:10287800E701E8016708F4006608F50068089D317B
:1028880032259331A431B92493319C314A249331B0
:1028980042016308803AC40080304402031D562C6C
:1028A80079306202031C080042016108D000600808
:1028B800CF006808C9006708CA004E08803AC400FB
:1028C8004C08803A4402031D6B2C4B084D02031C34
:1028D8007F2C42015008803AC4004C08803A4402D8
:1028E800031D782C4B084F02031C7F2C420146081D
:1028F800E7004508BC2C42014C08803AC4004E0849
:10290800803A4402031D8A2C4D084B02031C9E2C5E
:1029180042015008803AC4004E08803A4402031D20
:10292800972C4D084F02031C9E2C42014808E700D3
:102938004708BC2C42014C08803AC4005008803A31
:102948004402031DA92C4F084B02031CBD2C420155
:102958004E08803AC4005008803A4402031DB62C41
:102968004F084D02031CBD2C42014A08E7004908E4
:10297800E80042014D0A7F3003194E06031DCA2C98
:102988004F0A7F3003195006031908006708F4003E
:102998006608F50068089D3132250800B700AD319A
:1029A800F72594317830A131072194314030A13195
:1029B800072194312C08A7003708A131462194310A
:1029C800BA012F083A020318502D3A082D0784003F
:1029D8002E080318013E85001200031DF52CB601D0
:1029E800FF2C3A082D0784002E080318013E8500A5
:1029F8000008E03EB600BB013608B000B10130085F
:102A0800F7003108F8000530F9000030FA00AE315F
:102A18002C2694310030B2009030B300770832078A
:102A2800B4007808333DB5003B0834078400350806
:102A38000318013E85000008B80002303706031964
:102A48002B2D38080F39AE314A269431362D3808E7
:102A58000739AE314A269431B0000230B035890BBF
:102A6800322D3008B9003908A131072194313908CD
:102A7800A131072194310130BB0705303B02031C0B
:102A8800002D0030A131072194310030A1310721F8
:102A980094310130BA07E52C2C08A7003708013E0D
:102AA800A13146219431BA012F083A020318C52DE5
:102AB8003A082D0784002E080318013E85001200ED
:102AC800031D682DB601722D3A082D0784002E08C3
:102AD8000318013E85000008E03EB600BB01360839
:102AE800B000B1013008F7003108F8000530F900EE
:102AF8000030FA00AE312C2694310030B20090300C
:102B0800B30077083207B4007808333DB5003B08B6
:102B18003407840035080318013E85000008B80012
:102B2800023037060319A02D3808B0000430B0363B
:102B3800890B9B2D3008A82D3808B0000330B0361B
:102B4800890BA32D30080F39AE314A269431B900CC
:102B58003908A131072194313908A131072194316D
:102B68000130BB0705303B02031C732D0030A13137
:102B7800072194310030A131072194310130BA077F
:102B8800582DAD31A6250800AD31F725953178309F
:102B9800A131072195314030A131072195310A3003
:102BA800A2000030A3002D08A5002C08A400A33122
:102BB8007A2395312308AD002208AC002D08803A0D
:102BC800AE0081302E02031DEB2D2C302C02031891
:102BD800EF2D2C30FC2D40012D08803AAE008130BD
:102BE8002E02031DF92DA5302C02031C002EA43043
:102BF8004001AC000130AD0040012C08D43EAC00CF
:102C0800FE302D3DAD002D08AF002C08AE0005307C
:102C1800AE35AF0D890B0C2E2E08AC002F08AD0079
:102C28007830A2000030A3002D08A5002C08A400CD
:102C3800A3317A2395312208B40019303402031CD9
:102C48002E2E3408E83EB0000830B1000830B2003B
:102C58000830432E11303402031C362EB0013408DC
:102C6800F03E292E09303402031C3F2EB001B10179
:102C78003408F83E2B2EB001B101B2013408B3007C
:102C88003008AD31E02595314001B60036080338EB
:102C9800B6007730A7000030A131462195313608BB
:102CA800A131072195313608A13107219531360820
:102CB800A1310721953136081F38B6007530A700B5
:102CC8000030A131462195313608A13107219531CF
:102CD8003608A131072195317A30A7000030A1319B
:102CE800462195313608A131072195313608A131A1
:102CF800072195313108AD31E02595314001B60005
:102D08007530A7000130A13146219531B50136084B
:102D1800A131072195310130B50707303502031C71
:102D28008B2E3208AD31E02595314001B600753063
:102D3800A7000230A13146219531B5013608A131ED
:102D4800072195310130B50707303502031CA22E43
:102D58003308AD31E02595314001B6003608C0385A
:102D6800B6007530A7000330A13146219531B50171
:102D78003608A131072195310130B50707303502F2
:102D8800031CBC2EAD31A62508000030C40000305D
:102D9800C3000030C2000030C1005008C8004F080E
:102DA800C7004E08C6004D08C500A7310027963158
:102DB800031CE72E0030D0000030CF000030CE00DA
:102DC8000030CD00080040304001C1000030C00094
:102DD8000030BF000030BE003F304101B0008030FD
:102DE800AF000030AE000030AD005008B4004F080E
:102DF800B3004E08B2004D08B1008C31252496313D
:102E080030084001C50041012F084001C4004101BC
:102E18002E084001C30041012D084001C20089313C
:102E28001C21963141084101DD0040014008410163
:102E3800DC0040013F084101DB0040013E08410140
:102E4800DA00D5015D08B0005C08AF005B08AE0091
:102E58005A08AD005D084001C10041015C0840010D
:102E6800C00041015B084001BF0041015A08400110
:102E7800BE00410150084001C50041014F08400112
:102E8800C40041014E084001C30041014D08400102
:102E9800C20089311C21963141084101B40040012A
:102EA80040084101B30040013F084101B200400120
:102EB8003E084101B1008C31252496313008D400F8
:102EC8002F08D3002E08D2002D08D1004030400131
:102ED800C1000030C0000030BF000030BE0041011A
:102EE80054084001C500410153084001C400410194
:102EF80052084001C300410151084001C200893114
:102F08001C21963141084101D90040014008410186
:102F1800D80040013F084101D70040013E08410167
:102F2800D6005908BC005808BB005708BA00560814
:102F3800B9005D08C0005C08BF005B08BE005A0805
:102F4800BD009331C02396313C08C4003B08C30040
:102F58003A08C2003908C10038304001DB00D130DE
:102F6800DA00B730D9001730D80041015D084001B8
:102F7800DF0041015C084001DE0041015B084001BF
:102F8800DD0041015A084001DC0085310C259631ED
:102F98005B084101C80040015A084101C7004001CF
:102FA80059084101C600400158084101C500A73130
:102FB800002796310318E92F5908D0005808CF0088
:102FC8005708CE005608CD0008005908DD005808FB
:102FD800DC005708DB005608DA000130D50714304A
:102FE8005502031C262F5D08D0005C08CF005B0843
:082FF800CE005A08CD000800CC
:10300200FE0012001E00FE0B02280034AD01A71FB5
:103012001728A409A509A609A709A40A0319A50A3C
:103022000319A60A0319A70A0130AD00AB1F26280F
:10303200A809A909AA09AB09A80A0319A90A031927
:10304200AA0A0319AB0A0130AD060030B100003004
:10305200B0000030AF000030AE002708260425047F
:10306200240403196D280130AC00A71B422801304B
:10307200A435A50DA60DA70D890B39280130AC0783
:1030820036280130AE35AF0DB00DB10D890B432896
:1030920027082B02031D572826082A02031D57283A
:1030A20025082902031D572824082802031C622828
:1030B2002408A8022508A93B2608AA3B2708AB3BFF
:1030C2002E140130A736A60CA50CA40C890B63287C
:1030D2000130AC02031D42282D0803197B28AE09DA
:1030E200AF09B009B109AE0A0319AF0A0319B00A50
:1030F2000319B10A3108A7003008A6002F08A5005D
:103102002E08A40008002030AF3153279831A03098
:103112000032890B89280A30AD3172259831720844
:103122004001AB007108AA002A0A033003192B06DA
:10313200031DAC284030AF3153279831A030003204
:10314200890BA0280A30AD317225983171354001C2
:10315200AA00720DAB00FE302A06073003192B06B7
:10316200031D04291030AF3153279831A0300032AB
:10317200890BB8280A30AD317225983172084001A6
:10318200AB007108AA002A0A033003192B0603199F
:10319200FC17AE311026983140012A08F1002B08A5
:1031A200F200F301F40143014E08F5004F08F60066
:1031B200890D893B8909F700F800A0316520983113
:1031C2007408AF007308AE007208AD007108AC005D
:1031D2002C08A6002D08A7002E08A8002F08A90079
:1031E2000A30A936A80CA70CA60C890BF2282908CC
:1031F200AF002808AE002708AD002608AC002D0855
:10320200AB002C08AA002B08A5002A08A40008007D
:10321200B8003808031DB31F1E293009BA0031094E
:10322200BB003209BC003309BD00BA0A0319BB0A4C
:103232000319BC0A0319BD0A26293308BD00320846
:10324200BC003108BB003008BA0033083204310434
:103252003004031D35290030B3000030B2000030C5
:10326200B1000030B00008009630B900FE303D05D4
:10327200031954290130B9070130BD36BC0CBB0C0F
:10328200BA0C890B3E2937290130B9070130BA0738
:103292000030BB3DBC3DBD3D0130BD36BC0CBB0C5E
:1032A200BA0C890B4E29FF303D05031966294529C1
:1032B20002303902031C68290130B9020130BA35E3
:1032C200BB0DBC0DBD0D890B6029BC1F59293918D6
:1032D2007229FF30BA05FF30BB057F30BC05FF30D5
:1032E200BD050310B90C3908B400B501B601B70128
:1032F2001830B435B50DB60DB70D890B7A293408DF
:10330200BA043508BB043608BC043708BD043808C3
:10331200031DB31F8D29BD173D08B3003C08B20041
:103322003B08B1003A08B000080016160930400107
:10333200BF001E30BE00E430890B9D29BE0B9D29C3
:10334200BF0B9D290000883100209931683040016F
:10335200BE00E430890BAB29BE0BAB2900009A31C9
:103362002F2299317C1FBC29A031C92099317C13AD
:10337200AF31092799314001AC011B30AD00B130AA
:10338200AE000930AF0000309431D2249931A2311D
:103392000D2299312A304001AC003230AD00B130FB
:1033A200AE00AF01AF0A00309431D2249931093016
:1033B200AE31C52699310F304301CC002730CD0004
:1033C2006430DE000030DF000F30DC002730DD002B
:1033D200CA01CB014B084001BD0043014A0840012C
:1033E200BC00AF31D1279931013042015C07430162
:1033F200B800003042015D3D4301B9000030420196
:103402005E3D4301BA00003042015F3D4301BB0013
:1034120042015F084301B70042015E084301B60062
:1034220042015D084301B50042015C084301B4005A
:10343200FC127C12FC117C11FC102F08D7002E0804
:10344200D6002D08D5002C08D4002B08DB002A0852
:10345200DA002908D9002808D80008004001B00184
:10346200AD31F7259A317830A13107219A31003AEE
:103472000319522AAD31A6259A310D304001AF0011
:103482002D30AE00D730890B442AAE0B442AAF0B45
:10349200442A003201304001B0070A303002031CD6
:1034A200312A0030A13107219A31AE30A1310721F2
:1034B2009A31D530A13107219A318030A1310721CB
:1034C2009A31A830A13107219A313F30A131072129
:1034D2009A31D330A13107219A314030A1310721ED
:1034E2009A314030A13107219A318D30A131072123
:1034F2009A311430A13107219A318130A13107214B
:103502009A31FF30A13107219A31D930A1310721F7
:103512009A31F130A13107219A312030A1310721AE
:103522009A310230A13107219A312130A13107218C
:103532009A310030A13107219A317F30A131072120
:103542009A312E30A13107219A31A030A1310721C1
:103552009A31C030A13107219A31DA30A1310721E5
:103562009A310230A13107219A31DB30A131072192
:103572009A314030A13107219A31A430A13107217B
:103582009A31A630A13107219A31AD31A6259A315F
:10359200AF3109279A31AF30AD31B9250800AE31CC
:1035A20010269A314D084F06031DD92A4C084E06A3
:1035B2000319042B4F08CD004E08CC004F084001E0
:1035C200AD0043014E084001AC009531C8259A3147
:1035D20043014F08803A4001C3008E304302031D6D
:1035E200F52AD93043014E020318FF2A4301440849
:1035F200013EC8000030453DC900042B4301450887
:10360200C9004408C8004F08803A4001C3008E3008
:103612004302031D0F2B753043014E02031C212B65
:1036220040019711171602304001C4003830C30020
:10363200AD30890B1A2BC30B1A2BC40B1A2B3E2B42
:1036420043014F08803A4001C3008E304302031DFC
:103652002D2B073043014E02031C422B40019711D0
:10366200171202304001C4003830C300AD30890B5C
:10367200382BC30B382BC40B382B40019715171668
:10368200542B40011712971502304001C400383004
:10369200C300AD30890B4B2BC30B4B2BC40B4B2BF5
:1036A20040011716971543014F08803A4001C300A5
:1036B2008D304302031D602B483043014E02031834
:1036C2000800AF3109279A314001AC01D330AD0077
:1036D200B030AE000B30AF0001309431D2249A31B9
:1036E20052304001C4002B30C3000030890B772BCD
:1036F200C30B772BC40B772B000040011612A531A8
:10370200C0250800A331C7239B318A3187229B3110
:103712004001171619157C17993196219B31AD314D
:103722004D259B31FC1343012F08D7002E08D600EC
:103732002D08D5002C08D4002B08DB002A08DA005B
:103742002908D9002808D8003B0842015F02031D5E
:10375200BA2B43013A0842015E02031DBA2B430110
:10376200390842015D02031DBA2B430138084201A8
:103772005C02031CC82BB8304301B8070B30B93DBB
:103782000030BA3D0030BB3D9A31D0229B3143011B
:10379200370842015F02031DDE2B43013608420156
:1037A2005E02031DDE2B4301350842015D02031D4B
:1037B200DE2B4301340842015C02031CEC2B2C304B
:1037C2004301B4070130B53D0030B63D0030B73D8E
:1037D2008E310E269B3143012F082E042D042C041A
:1037E2000319FB2B5708560455045404031DFB2BE5
:1037F2004001161243012B082A0429042804031944
:103802000B2C5B085A0459045804031D0B2CA531D8
:10381200C0259B31FC1E172C4001161E142CA03112
:1038220000209B31172C993196219B317C1E232C31
:103832004001161E202CA5310D259B31232C9931D8
:1038420096219B31FC1D2F2C4001161E2C2CAE31D3
:1038520068269B312F2C993196219B317C1D3A2C65
:103862004001161A372C993196219B318731FC275A
:103872009B31FC1CA52B4001161A462CAE31E626C4
:103882009B31993196219B31A52BA5310D259B3179
:10389200A52B96304101EC000030ED002C30EA00FF
:1038A2000130EB004201E401E501E201E3014101E3
:1038B200EE01EF0142016508803A4001EF00430149
:1038C2004308803A40016F02031D6B2C43014208FA
:1038D2004201640203181F2DFC1E752CA03100202A
:1038E2004201E201E3010800FC19712CA131C92156
:1038F2009C3143014308803A4001EF0042016508D0
:10390200803A40016F02031D8A2C42016408430180
:1039120042020318A32C42016508803A4001EF00DD
:1039220043014108803A40016F02031D9C2C430170
:103932004008420164020318A32C08308831032096
:103942009C31AF2C06304001EF003030890BA72CA0
:10395200EF0BA72C0000A131C9219C314301430880
:10396200803A4001EF0042016508803A40016F024F
:10397200031DBF2C42016408430142020318D32CE9
:1039820042016508803A4001EF0043014108803A54
:1039920040016F02031DD12C430140084201640221
:1039A200031C080041016C086D040319F12C01305D
:1039B200EC020030ED3B4201650841016F02031D3C
:1039C200E62C4201640841016E0203185B2C42019D
:1039D20065084101EF00420164084101EE005B2CE1
:1039E2006F0843015D06031DFA2C41016E08430175
:1039F2005C060319072D41016F084001BD0041011A
:103A02006E084001BC00A53165259C3141016F085B
:103A12004301DD0041016E084301DC004101EE017A
:103A2200EF013230EC000030ED006A086B0403193C
:103A3200712C0130EA020030EB3B5B2C4301410860
:103A4200803A4001EF0042016508803A40016F026E
:103A5200031D2F2D42016408430140020318080090
:103A62006D2CF7007718382D400199173A2D400137
:103A720099137708F6000130F636890B3D2D76183A
:103A8200452D40011917472D400119137708F600FB
:103A92000230F636890B4A2D7618522D40019916BE
:103AA200542D400199127708F6000330F636890B3F
:103AB200572D76185F2D40011916612D40011912FC
:103AC2007708F6000430F636890B642D76186C2DD3
:103AD200400198176E2D400198137708F6000530C3
:103AE200F636890B712D7618792D400118177B2D2A
:103AF200400118137708F6000630F636890B7E2D42
:103B02007618862D40019816882D40019812741857
:103B12008D2D400196168F2D400196127408F600E5
:103B22000130F636890B922D76189A2D40019A149F
:103B32009C2D40019A107408F6000230F636890B6B
:103B42009F2D7618A72D40019617A92D4001961397
:103B52007408F6000330F636890BAC2D7618B42DB6
:103B620040011617B62D400116137408F6000430F2
:103B7200F636890BB92D7618C12D40011814C32DC4
:103B8200400118107408F6000530F636890BC62D70
:103B92007618CE2D40019814D02D4001981074084B
:103BA200F6000630F636890BD32D7618DB2D400150
:103BB2001815DD2D40011811750C031C1A1003187D
:103BC2001A14991543014908F2004808F100AD3171
:103BD20094259D31400199111A30890BEE2D003246
:103BE2004001181243014908F2004808F100AD31C2
:103BF20094259D314001181643014908F2004808F6
:103C0200F100AD3194259D31400199131913991298
:103C1200191298131813981296129A1096131613D3
:103C22001810981018111A101530F600C630890BAA
:103C3200182EF60B182E0032080042016708C70042
:103C420043015008031D332E0A30F1004201670878
:103C5200AE31A6269E31BE00BF013E08C1003F081C
:103C6200C200382E01304201C1000030C2004108BA
:103C7200CA004A08031D3F2E0130CA009C314A2463
:103C82009E3142016108C9006008C8004A08E7077E
:103C92006708F4006608F50068089D3132259E31F8
:103CA2009C314A249E3142014908803ABE00610893
:103CB200803A3E02031D5F2E60084802031CBB2EA1
:103CC20042016108C9006008C8006708C7004A08C5
:103CD200E7070030BF004A087F3CBE00031CBF0359
:103CE2003F08803AC00080304002031D7A2E6708E8
:103CF2003E02031C042F42016708F4006608F50027
:103D020068089D3132259E319C314A249E31420100
:103D12004908803ABE006108803A3E02031D932E94
:103D220060084802031C042F42016708C7006108AB
:103D3200C9006008C80043015008031DAE2E0A30B6
:103D4200F10042016708AE31A6269E31BE00BF01D6
:103D52003E08C3003F08C400B32E01304201C30035
:103D62000030C4004308CA004A08031D682E01300F
:103D7200CA00682E42016108C9006008C800E62E28
:103D820042016708C7006108C9006008C800430112
:103D92005008031DDA2E0A30F10042016708AE31E5
:103DA200A6269E31BE00BF013E08C5003F08C600E0
:103DB200DF2E01304201C5000030C6004508CA00AE
:103DC2004A08031DE62E0130CA004A08E7024A08E3
:103DD2006702031C042F6708F4006608F5006808F0
:103DE2009D3132259E319C314A249E31420149083F
:103DF200803ABE006108803A3E02031D022F60082D
:103E020048020318C12E42014708E7006708F40080
:103E12006608F50068089D313225080042016808ED
:103E2200C70043015008031D242F0A30F10042014C
:103E32006808AE31A6269F31BE00BF013E08C10010
:103E42003F08C200292F01304201C1000030C200E8
:103E52004108CA004A08031D302F0130CA009C31B4
:103E62004A249F3142016108C9006008C8004A081B
:103E7200E8076708F4006608F50068089D313225F6
:103E82009F319C314A249F3142014908803ABE0049
:103E92006108803A3E02031D502F60084802031C4D
:103EA200AC2F42016108C9006008C8006808C70059
:103EB2004A08E8070030BF004A087F3CBE00031CE6
:103EC200BF033F08803AC00080304002031D6B2FC1
:103ED20068083E02031CF52F42016708F4006608D9
:103EE200F50068089D3132259F319C314A249F316B
:103EF20042014908803ABE006108803A3E02031D31
:103F0200842F60084802031CF52F42016808C7008D
:103F12006108C9006008C80043015008031D9F2FB3
:103F22000A30F10042016808AE31A6269F31BE0078
:103F3200BF013E08C3003F08C400A42F0130420164
:103F4200C3000030C4004308CA004A08031D592FA9
:103F52000130CA00592F42016108C9006008C80037
:103F6200D72F42016808C7006108C9006008C8006D
:103F720043015008031DCB2F0A30F10042016808AB
:103F8200AE31A6269F31BE00BF013E08C5003F08E4
:103F9200C600D02F01304201C5000030C6004508DE
:103FA200CA004A08031DD72F0130CA004A08E80296
:103FB2004A086802031CF52F6708F4006608F5003A
:103FC20068089D3132259F319C314A249F3142013C
:103FD2004908803ABE006108803A3E02031DF32F71
:103FE200600848020318B22F42014708E800670838
:103FF200F4006608F50068089D313225080001309A
:10400200A131872108004201E701E8016708F400B5
:104012006608F50068089D313225A0319C314A249A
:10402200A03142016308803AD10080305102031D61
:104032001C2879306202031C08009331DD23A03171
:104042009C314A24A03142016308803AD100803079
:104052005102031D2E2879306202031C0800A03190
:1040620097200800F601F70171087204031960280D
:104072000130F500F21B45280130F135F20D890BB4
:104082003E280130F5073B280130F635F70D890B44
:10409200462872087402031D502871087302031C1B
:1040A20057287108F3027208F43B76140130F23695
:1040B200F10C890B58280130F502031D45287708B9
:1040C200F2007608F100080000304001A300003041
:1040D200A2000030A1000030A000711C79287508F0
:1040E2004001A0077608A13D7708A23D7808A33DCC
:1040F2000130F535F60DF70DF80D890B7A280130F0
:10410200F436F30CF20CF10C890B81287408730459
:1041120072047104031D6E2840012308F400220872
:10412200F3002108F2002008F10008004301D00149
:104132004201CD016708CB006808CC00680867021D
:10414200031CAA289E311E26A0319F310F27A031C1
:10415200B0289F310F27A0319E311E26A031420187
:1041620067084B06031DBF2868084C06031DBF28BD
:1041720043015008031DC6280130D000013042011E
:10418200CD0704304D02031C9B284301D0010800D7
:1041920040019711AF310927A0314001AC016230D3
:1041A200AD00B030AE001230AF000130A2319A2221
:1041B200A0314001AC01A130AD00B030AE000C30F6
:1041C200AF000330A2319A22A03154304001AC003A
:1041D2002E30AD00B130AE000330AF000330A2315B
:1041E2009A22A0317A304001BB00C130BA0081303E
:1041F200890BF928BA0BF928BB0BF92800324001C8
:104202008D1A052900000029971508004001A50014
:10421200A6012508A2000730A236890B0D29220823
:104222000139A300A30DA30D16082306FB392306AB
:1042320096004230890B1B2900324001961542300C
:10424200890B21290032400196112535A500013044
:10425200A60708302602031C0A2916154230890BCC
:1042620030290032400196150C0C890C0139A4004A
:104272004230890B3A290032400196114230890BB3
:1042820040290032400124080800A8002708023E05
:10429200AB00AD31F725A1317830A1310721A13131
:1042A2000030A1310721A1312808B03EA1310721F8
:1042B200A13110302B02031862292B08A900AA0190
:1042C20073292B08FB000430FB36890B65297B0818
:1042D200AA00F030F1002A08AD316325A131400176
:1042E2002B07A9002908A1310721A1312A08103E74
:1042F200A1310721A131AD31F725A1317830A131AA
:104302000721A1314030A131072108004001C1003D
:1043120097117C1C9329410803199329AF31A327D4
:10432200A1319629A3312E23A1310D304001C000C5
:104332002D30BF00D730890B9C29BF0B9C29C00BA5
:104342009C29003240019715FC127C114201EA01BE
:104352005F084301BB0042015E084301BA0042010B
:104362005D084301B90042015C084301B800420103
:104372005F084301B70042015E084301B6004201F3
:104382005D084301B50042015C084301B400080026
:10439200A7317B27A1312408B0002508B100890D7F
:1043A200893B8909B200B300013099310921A13159
:1043B20033084101E100400132084101E0004001BF
:1043C20031084101DF00400130084101DE0098312F
:1043D2008420A1312408B0002508B100890D893B51
:1043E2008909B200B300013099310921A1313308A2
:1043F2004101E500400132084101E4004001310879
:104402004101E300400130084101E2008031F22025
:10441200A131AF312E270800AD31F725A231783016
:10442200A1310721A2314030A1310721A231B301CC
:104432007330A7003308A1314621A231B2013308FB
:10444200AC00AD012C08F7002D08F8000B30F90084
:104452000030FA00AE312C26A2310030AE00B0306E
:10446200AF0077082E07B00078082F3DB100320860
:104472003007840031080318013E85000008A1318D
:104482000721A2310130B2070B303202031C202A6D
:104492000130B30704303302031C192AAD31A625BB
:1044A200080000304105C90000304205CA008030D2
:1044B2004305CB007F304405CC004C084B044A0432
:1044C2004904031D6C2A0030C4000030C3000030D0
:1044D200C2000030C10000304505C9000030460569
:1044E200CA0080304705CB007F304805CC004C081D
:1044F2004B044A044904031D862A0030C8000030D8
:10450200C7000030C6000030C50048084406031D3D
:10451200942A47084306031D942A46084206031DAF
:10452200942A450841060319982A03100800031427
:104532000800B6002C08A7003608A1314621A23196
:10454200B8012F0838020318E12A38082D07840021
:104552002E080318013E85000008E03EB700B901AD
:104562003708B000B1013008F7003108F800053013
:10457200F9000030FA00AE312C26A2310030B20030
:104582009030B30077083207B4007808333DB500A5
:1045920039083407840035080318013E85000008F5
:1045A200A1310721A2310130B90705303902031CBC
:1045B200B12A0030A1310721A2310130B807A22A65
:1045C200AD31A62508000030A7000030A60000305B
:1045D200A5006430A4003208F1003308F200890D0E
:1045E200893B8909F300F4000030F8000030F7003D
:1045F2000030F6001930F500A0316520A2317408B0
:10460200AB007308AA007208A9007108A8009831CB
:104612000720A2312708B7002608B6002508B500F2
:104622002408B400B71B222B3708031D282B360899
:10463200031D282B3508031D282BC930340203180B
:10464200282B40013508B3003408B2000800C830F6
:104652004001B2000030B30008007C18412B420137
:1046620068084301D300420167084301D2004201B6
:1046720066084301D1005F08C7005E08C6007C14CB
:104682004201E801E701E6016708F4006608F50067
:1046920068089D313225A3314001AC010730AD00DD
:1046A200B130AE000930AF0002309431D224A331D0
:1046B20019304001BE005A30BD00B130890B5F2B6A
:1046C200BD0B5F2BBE0B5F2B00320530AE31C52612
:1046D200A3314301CA01CB013C304001AC0025307B
:1046E200AD00B130AE000430AF0002309431D224BC
:1046F2000800A701A31F842BA209A309A20A031978
:10470200A30A0130A700A51F8D2BA409A509A40A9D
:104712000319A50A0130A706A801A901220823044A
:104722000319BA2B0130A600A31B9F2B0130A2351F
:10473200A30D890B982B0130A607952B0130A835C4
:10474200A90D890BA02B23082502031DAA2B2208E1
:104752002402031CB12B2208A4022308A53B28141F
:104762000130A336A20C890BB22B0130A602031D25
:104772009F2B27080319C22BA809A909A80A031904
:10478200A90A2908A3002808A20008007E01B8018E
:10479200C3014314C3144315CE01E401D9015301EB
:1047A2009013941340018C018D018E018F019001B1
:1047B2009601970110309800063099009A019101F4
:1047C200273092009301940195017E013A15BA15A2
:1047D200DB145B1540019F121F179F131E16C0307A
:1047E2009C00E0309D004E018C1240019E174E014C
:1047F20096161E304F019600FE3097004730980003
:104802007F30990077309A00DF309B008B1705309C
:10481200F2000F30F100F130890B0D2CF10B0D2C51
:10482200F20B0D2C000008004201C1019C314A2408
:10483200A43142016108C3006008C2000130E700F0
:104842002B2C42016708C1006108C3006008C20046
:104852000310E70D4130670203185C2C6708F4006F
:104862006608F50068089D313225A4319C314A243E
:10487200A431420143084001B30042014208400111
:10488200B200A231E422A4314201420840013207BF
:104892004201BE0043084001333D4201BF003F08D0
:1048A200803AC0006108803A4002031D5A2C600819
:1048B2003E020318222C42014108E7006708F40077
:1048C2006608F50068089D31322508004201C101E1
:1048D2009C314A24A43142016108C3006008C2002D
:1048E2000130E8007D2C42016808C1006108C30064
:1048F2006008C2000310E80D413068020318AE2CB4
:104902006708F4006608F50068089D313225A43175
:104912009C314A24A431420143084001B3004201C0
:1049220042084001B200A231E422A431420142080D
:10493200400132074201BE0043084001333D4201BB
:10494200BF003F08803AC0006108803A4002031D60
:10495200AC2C60083E020318742C42014108E800A6
:104962006708F4006608F50068089D3132250800E2
:104972004201C3019C314A24A43142016108C200B0
:104982006008C1000130E800CF2C42016808C30072
:104992006108C2006008C1000310E80D41306802DE
:1049A2000318002D6808F4006608F50068089D31B8
:1049B2003225A4319C314A24A431420142084001EB
:1049C200B300420141084001B200A231E422A43105
:1049D20042014108400132074201BE004208400143
:1049E200333D4201BF003F08803AC0006108803A6F
:1049F2004002031DFE2C60083E020318C62C420131
:104A02004308E8004308E7006708F4006608F50079
:104A120068089D313225080040019711AC01FD3034
:104A2200AD00B030AE000930AF0002309431D22474
:104A3200A531400119117C10A6318826A531420109
:104A420063084301CB00420162084301CA004201EC
:104A520063084301DF00420162084301DE000430C3
:104A6200AE31C526A53143014B084001BD004301CB
:104A72004A084001BC00AF31D127400119159715F2
:104A82007C12FC104201EA015F084301BB004201B3
:104A92005E084301BA0042015D084301B9004201C8
:104AA2005C084301B80042015F084301B7004201BC
:104AB2005E084301B60042015D084301B5004201B0
:104AC2005C084301B40008003C083D04031D752D39
:104AD2003C30AC002A30AD00B130AE000330AF0044
:104AE20000309431D224080000303D020A3003190C
:104AF2003C0203188C2D3D08F9003C08F8002030D8
:104B0200FA0087319A27A53130304401A8002E30AF
:104B1200A9002508B22D00303D02643003193C0281
:104B220003189F2D3D08F9003C08F8002030FA00D8
:104B320087319A27A53144012408872D0530BC0707
:104B42000030BD3D3D08F9003C08F8002030FA0075
:104B520087319A27A53120304401A8002308A900F3
:104B62002408AA003C304001AC002830AD000230DD
:104B7200AE000330AF0000309431D22408008B1312
:104B820040019E134E018C1216167E01CA12C916DE
:104B92004001161217169715C2014208031DE02D97
:104BA20005304001C1000F30C000F130890BD72D14
:104BB200C00BD72DC10BD72D7E01CA126300000096
:104BC20005304001C1000F30C000F130890BE72DE4
:104BD200C00BE72DC10BE72D40018D1AF32D0130DB
:104BE200C207F42DC20110304202031CCE2D4E0129
:104BF20016127E01C912CA1240019E178B177C172A
:104C020099319621A53140018D1A092E0000042EFA
:104C12004201EA01FC127C12FC115F084301B3005D
:104C220042015E084301B20042015D084301B10046
:104C320042015C084301B000080003103B0D3C0D2B
:104C42004001EE006E08031D302E00304101BC0011
:104C52000030BB000030BA000030B900080041014A
:104C62003908BD003A08BE003B08BF003C08C0003E
:104C72001F30C036BF0CBE0CBD0C890B3A2E3D084E
:104C82004001ED004101BB17FF30B905FF30BA0505
:104C9200FF30BB050030BC0596304001EE02EE1F2E
:104CA200652E6E08803A973E031C262E0130410184
:104CB200BC36BB0CBA0CB90C890B582E0130400122
:104CC200EE070319782E572E20306E020318262E77
:104CD2006E080319782E01304101B935BA0DBB0DAA
:104CE200BC0D890B6D2E01304001EE02692E6D085C
:104CF200031908004101B909BA09BB09BC09B90A7B
:104D02000319BA0A0319BB0A0319BC0A08009C3129
:104D12004A24A63142016308803AD200803052020E
:104D2200031D952E79306202031C0800A031042075
:104D3200A6319C314A24A63142016308803AD2004E
:104D420080305202031DA72E79306202031C080034
:104D520042016108D4006008D3006708D5006808E2
:104D6200D6006603031DB72EE601B92E0130E60018
:104D7200A0310420A6319C314A24A63142015408B4
:104D8200803AD2006108803A5202031DCA2E60089E
:104D920053020318E32E42016603031DD22EE601DD
:104DA200D42E0130E6005508E7005608E8006708EF
:104DB200F4006608F50068089D313225A6319C3161
:104DC2004A24A63142016308803AD200803052025E
:104DD200031DED2E79306202031C0800A0319720DA
:104DE200A6319C314A24A631E730420162060330E3
:104DF20003196306031D0800AD3157250800003072
:104E02004105C90000304205CA0080304305CB008D
:104E12007F304405CC004C084B044A044904031D6E
:104E22001A2F0030C4000030C3000030C20000302E
:104E3200C10000304505C90000304605CA00803077
:104E42004705CB007F304805CC004C084B044A0490
:104E52004904031D342F0030C8000030C700003061
:104E6200C6000030C500C41F4E2F0030C9000030FC
:104E7200CA000030CB008030CC004108C902420891
:104E8200CA3B4308CB3B4408CC3B4C08C4004B080C
:104E9200C3004A08C2004908C100C81F682F003079
:104EA200C9000030CA000030CB008030CC00450879
:104EB200C9024608CA3B4708CB3B4808CC3B4C08D2
:104EC200C8004B08C7004A08C6004908C500803020
:104ED200C4068030C80648084402031D080047087B
:104EE2004302031D080046084202031D080045084C
:104EF200410208002030AF315327A731A0300032E1
:104F0200890B802F0830AD317225A731720840011C
:104F1200AB007108AA002A0A033003192B06031DED
:104F2200A32F4030AF315327A731A0300032890B75
:104F3200972F0830AD317225A73171354001AA0093
:104F4200720DAB00FE302A06073003192B06031D33
:104F5200FB2F1030AF315327A731A0300032890B1D
:104F6200AF2F0830AD317225A73172084001AB0076
:104F72007108AA002A0A033003192B060319FC1729
:104F8200AE311026A73140012A08F1002B08F200A9
:104F9200F301F40143014E08F5004F08F600890DB4
:104FA200893B8909F700F800A0316520A731740810
:104FB200AF007308AE007208AD007108AC002C0897
:104FC200A6002D08A7002E08A8002F08A9000A3065
:104FD200A936A80CA70CA60C890BE92F2908AF004B
:104FE2002808AE002708AD002608AC002D08AB004B
:0E4FF2002C08AA002B08A5002A08A40008001D
:105A9A001030AF3153270800640080010131890BAF
:105AAA00522D0034E8010130E700E6016708F400EE
:105ABA006608F50068089D3132250800F300F201F6
:105ACA00731C692D7108F2070310F10D0310F30C12
:105ADA007308031D652D72080800F300730841015D
:105AEA009E003530890B772D0000410113141318DD
:105AFA007C2D0D08F2000C08F1000800F6000F30AA
:105B0A007605F4000A30F1007608F5000430F5361F
:105B1A00890B8C2D7508AD31632574070800013097
:105B2A00F1020030F23B710A0319720A03190800E4
:105B3A000B30F3006230890BA02DF30BA02D00323D
:105B4A00942D400116114230890BA92D00324001D3
:105B5A0096154230890BAF2D00324001161542309E
:105B6A00890BB52D00320800FB00AD31F725AD31A8
:105B7A007830A1310721AD318030A1310721AD3113
:105B8A007B08A1310721AD31AD31A62508000A34C1
:105B9A000034003400340A340034003400340F3442
:105BAA002734643400340134023440347834013404
:105BBA00023440347834F4007408031DE62D0030B2
:105BCA000800FF307407F100F10A8030F20000305B
:105BDA00F300F22D730DF30CF20CF10BEF2D72089A
:105BEA00003C0800400196154230890BFA2D00321C
:105BFA00400116154230890B002E00324001161161
:105C0A004230890B062E0032400196114230890B30
:105C1A000C2E003208002030AF315327AE31A030AD
:105C2A000032890B152E0930AD317225AE3172085A
:105C3A00F8007108F7000B30F9000030FA00AE31B5
:105C4A002C2678084301CF007708CE0008004001CF
:105C5A00A001A101771C362E79084001A0077A0815
:105C6A00A13D0130F935FA0D890B372E0130F8368E
:105C7A00F70C890B3C2E77087804031D2F2E400160
:105C8A002108F8002008F7000800F200F301F401E7
:105C9A007208F100740A522EF136890B512E711CCA
:105CAA00602E0330F1007435890A5C2EF135890BB8
:105CBA005B2E7108F3040130F40704307402031CEC
:105CCA004D2E73080800AF310927AE314001AC01EF
:105CDA00C730AD00B030AE000B30AF0001309431A8
:105CEA00D224AE3152304001C4002B30C300003000
:105CFA00890B7D2EC30B7D2EC40B7D2E0000A53192
:105D0A00C0250800F900F501F6017108F300F40155
:105D1A007308F7007408F800791C972E7708F507BE
:105D2A007808F63D0130F735F80D890B982E0310E7
:105D3A00F90C7908031D912E7608F2007508F10016
:105D4A000800F200F40171080319C32E0130F300B0
:105D5A00F11BB42E0310F10D0130F307AD2E031021
:105D6A00F40D71087202031CBE2E7108F20274143B
:105D7A000310F10C0130F302031DB42E740808005D
:105D8A004001BC007C1CCE2EAC01E930AD00B03025
:105D9A00D22EAC01F330AD00B030AE003C08AF00FB
:105DAA0002309431D224AE312A304001AC00323074
:105DBA00AD00B130AE00AF01AF0A02309431D22447
:105DCA0008009711161619117C109C314A24AE311D
:105DDA0042016308803AD70080305702031DF72E2C
:105DEA0064306202031CFB2EA63188264001191575
:105DFA00420163084301CB00420162084301CA0021
:105E0A0040019715FC100800AD31F725AF31783005
:105E1A00A1310721AF314030A1310721AF31AD01A6
:105E2A00A7012D08A1314621AF31AC010130AC07E1
:105E3A000030A1310721AF3180302C02031C1B2F07
:105E4A000130AD0708302D02031C152FAD31A625F0
:105E5A0008006508803A4001C00080304002031DF6
:105E6A00392F013042016402031C08004001161E4A
:105E7A00502F43012F08D7002E08D6002D08D50031
:105E8A002C08D4002B08DB002A08DA002908D900DC
:105E9A002808D8000800993196210800F30041012A
:105EAA0093137308603903196F2F731B5E2F013028
:105EBA005F2F0230F1000030F20052010C08710627
:105ECA00FC3971068C008C170C1F692F03304101B5
:105EDA009A00702F9A019401950196019D019C01E7
:105EEA0014309300931708007108720403199E2F47
:105EFA000130F500F21B892F0130F135F20D890BC3
:105F0A00822F0130F5077F2F72087402031D8F2F2D
:105F1A0071087302031C952F7108F3027208F43B8F
:105F2A000130F236F10C890B962F0130F502031D70
:105F3A00892F7408F2007308F10008007C104301ED
:105F4A0053084201E800430152084201E7004301B5
:105F5A0051084201E6006708F4006608F50068087F
:105F6A009D313225AF3143014708DF004608DE0084
:105F7A000530AE31C526AF314301CA01CB013C30F1
:105F8A004001AC002530AD00B130AE000430AF00A6
:105F9A0002309431D22408003C083D04031DE12F4D
:105FAA003C30AC002530AD00B130AE000430AF005B
:105FBA0002309431D22408003D08F9003C08F80068
:105FCA002030FA0087319A27AF3144012308A8000C
:105FDA002E30A9002408AA002508AB003C30400155
:105FEA00AC002830AD000230AE000430AF00023001
:105FFA009431D2240800F834F8341F341F3403349F
:10600A00033403341F341F34F834F834FF34FF34B4
:10601A000034003400340034003400340034FF34D7
:10602A00FF34FF34FF3400340034003400340034C9
:10603A0000340034FF34FF34FF34FF34C034C0343A
:10604A00C034C034C034C034C034FF34FF34F834F0
:10605A00F8341F341F340334033403341F341F3419
:10606A00F834F834FF34FF34003400340034003498
:10607A00003400340034FF34FF34FF34FF3400347A
:10608A00003400340034003400340034FF34FF3468
:10609A00FF34FF34C034C034C034C034C034C034D8
:1060AA00C034FF34FF340534303407341034153427
:1060BA001334013404341434603420344434453401
:1060CA005334493447344E3445344434203442340A
:1060DA00593420344E34373444344434433400344D
:1060EA0053347434613463346B34203475346E340D
:1060FA0064346534723466346C346F347734003403
:10610A0053347434613463346B3420346F347634EA
:10611A006534723466346C346F34773400344D34F9
:10612A0043344C3452342034723465347334653415
:10613A007434203420340034203446345734203424
:10614A00563445345234533449344F344E3420345F
:10615A00003457344434543420346F34763465343C
:10616A00723466346C346F347734003442344F34CA
:10617A0052342034723465347334653474342034C0
:10618A0020340034203450344F3457344534523498
:10619A0020344F34463446342034003420342034FA
:1061AA004C344F3457342034423441345434543408
:1061BA002034003420342034203420342034203455
:1061CA0020342034203400344234593450342034BA
:1061DA0020342034203420342034003453345734CB
:1061EA0052342034203420342034203420340034F3
:1061FA00543455344E344534203420342034203439
:10620A0020340034423459345034413453345334F2
:10621A0020342034203400344F3456344534523438
:10622A004C344F34413444342034003450345734DD
:10623A00523420342034203420342034573400346B
:10624A0030342E3430343034003430342E34303458
:10625A00003431342E34363400343D3400343E3484
:02626A000034FE
:020000040001F9
:0A000E008C3F3D3F9F3FFF3FFF3F47
:00000001FF
