:040000008031C5285E
:100008007E14803100308600003087004E018C1E3F
:10001800C3288C1201304201A8070030A93DAA3D2F
:10002800AB3D4A0849044804470403192128013014
:10003800C7020030C83BC93BCA3B4E084D044C04BC
:100048004B0403192D280130CB020030CC3BCD3BAB
:10005800CE3BC03040019C00E0309D0043012B089E
:1000680042012B02031D482843012A0842012A02A3
:10007800031D48284301290842012902031D482875
:100088004301280842012802031CC3280A304301FF
:10009800A8070030A93DAA3DAB3D40018F1856285E
:1000A800013057280030F0008D1A5C2801305D2897
:1000B8000030700400380319722842012708CA006A
:1000C8002608C9002508C8002408C7002308CE0050
:1000D8002208CD002108CC002008CB0040018D1A51
:1000E8009128FA304201460203187C280130C607DD
:1000F8001930460603197C164001160E0139F00026
:10010800FA3042014606031D8B2801308C28003046
:10011800700503199C28FC159C28033042014602EF
:10012800031C9B281930460203189B28FC16C6019D
:1001380040018F18B8281930420145020318A62833
:100148000130C50740010F0C890C0139F00014304B
:1001580042014506031DB2280130B328003070055E
:100168000319C328FC14C328023042014502031CAA
:10017800C2280A3045020318C2287C15C5017E1022
:1001880009008031C728E3308400A030850047305B
:100198008600013087001430A03168208031FC01CE
:1001A80020308400013085002730A0316220803162
:1001B800A0308400013085002430A03162207E10F8
:1001C80040019D31602D44304001C1007A30C000AB
:1001D8000030BF000030BE00410144084001C500A6
:1001E800410143084001C400410142084001C300E5
:1001F800410141084001C2008B3119238031410877
:100208004101C400400140084101C30040013F08CA
:100218004101C20040013E084101C1004430400193
:10022800C1007A30C0000030BF000030BE0041017C
:1002380048084001C500410147084001C400410188
:1002480046084001C300410145084001C2008B3106
:100258001923803141084101C8004001400841018B
:10026800C70040013F084101C60040013E08410166
:10027800C50044084001A300410143084001A20011
:10028800410142084001A100410141084001A0008C
:10029800430127084001A700430126084001A600A2
:1002A800430125084001A500430124084001A4009A
:1002B80084311624803123084101D00040012208EE
:1002C8004101CF00400121084101CE004001200832
:1002D8004101CD0044084001A30041014308400109
:1002E800A200410142084001A1004101410840012A
:1002F800A000430123084001A70043012208400150
:10030800A600430121084001A5004301200840013F
:10031800A4008431162480312308DB002208DA0087
:100328002108D9002008D800410144084001A30051
:10033800410143084001A200410142084001A100D7
:10034800410141084001A000410150084001A700B7
:1003580041014F084001A60041014E084001A50097
:1003680041014D084001A40084311624803123083E
:10037800DF002208DE002108DD002008DC008631CD
:10038800122680315B084101C40040015A0841012E
:10039800C300400159084101C20040015808410109
:1003A800C10048084001A300410147084001A200DC
:1003B800410146084001A100410145084001A00053
:1003C800430127084001A700430126084001A60071
:1003D800430125084001A500430124084001A40069
:1003E80084311624803123084101D00040012208BD
:1003F8004101CF00400121084101CE004001200801
:100408004101CD0048084001A300410147084001CF
:10041800A200410146084001A100410145084001F0
:10042800A000430123084001A7004301220840011E
:10043800A600430121084001A5004301200840010E
:10044800A4008431162480312308DB002208DA0056
:100458002108D9002008D800410148084001A3001C
:10046800410147084001A200410146084001A1009E
:10047800410145084001A000410150084001A70082
:1004880041014F084001A60041014E084001A50066
:1004980041014D084001A40084311624803123080D
:1004A800DF002208DE002108DD002008DC0086319C
:1004B800122680315B084101C80040015A084101F9
:1004C800C700400159084101C600400158084101D0
:1004D800C50044084001A700410143084001A600A7
:1004E800410142084001A500410141084001A40022
:1004F8004130A3002030A2000030A1000030A0004D
:100508008431162480312308DF002208DE00210808
:10051800DD002008DC003F30DB000030DA0000306E
:10052800D9000030D8008631122680315B08EF00F0
:100538005A08EE005908ED005808EC00A631AC2620
:10054800803140016D084201BD0040016C08420144
:10055800BC003D08803AFB003308803A7B02031D4B
:10056800B72A32083C020318BD2A4201BA01BB016E
:10057800080041014808AB004708AA004608A9003E
:100588004508A8004408AF004308AE004208AD0083
:100598004108AC009C3104248031031CD92AE7307F
:1005A8004201BA000330BB00080044084001C10002
:1005B800410143084001C000410142084001BF0019
:1005C800410141084001BE00410148084001C50001
:1005D800410147084001C400410146084001C300E9
:1005E800410145084001C2008B311923803141087F
:1005F8004101CC00400140084101CB0040013F08C7
:100608004101CA0040013E084101C9004C08B3003D
:100618004B08B2004A08B1004908B0008931DA2114
:1006280080313308D4003208D3003108D2003008B2
:10063800D1003F30A7008030A6000030A500003070
:10064800A4005408A3005308A2005208A1005108AE
:10065800A000A331052380312308AB002208AA009B
:100668002108A9002008A8000030AF000030AE0023
:100678000030AD000030AC00A431D2248031031C1E
:100688004D2B3A30D4008330D3001230D2006F3073
:10069800D1005408A3005308A2005208A100510831
:1006A800A0003F30A7008030A6000030A500003031
:1006B800A400A3310523803123084001C100410172
:1006C80022084001C000410121084001BF0041014A
:1006D80020084001BE003F30DB008030DA000030E7
:1006E800D9000030D800410154084001DF00410121
:1006F80053084001DE00410152084001DD0041017C
:1007080051084001DC008631122680315B08C500A3
:100718005A08C4005908C3005808C2008B3119236D
:10072800803141084101D400400140084101D30013
:1007380040013F084101D20040013E084101D1007B
:100748005408AB005308AA005208A9005108A80091
:100758003F30AF008030AE000030AD000030AC005C
:100768009C31042480310318C12B3F30D4008030E1
:10077800D3000030D2000030D1004130AB001F3030
:10078800AA00C230A9008F30A8005408AF0053084F
:10079800AE005208AD005108AC009C3104248031F1
:1007A800031CD32A54084001A70041015308400103
:1007B800A600410152084001A5004101510840012D
:1007C800A4004230A300C830A2000030A1000030CD
:1007D800A0008431162480312308DF002208DE00BF
:1007E8002108DD002008DC003F30DB000030DA00A3
:1007F8000030D9000030D8008631122680315B08DD
:10080800EF005A08EE005908ED005808EC00A63130
:10081800AC2640016D084201BB0040016C08420152
:10082800BA00080023088039AD002335AF00A21BA9
:100838002F142F0803192D2C2F0A031D2B2C0030E1
:10084800A3000030A2000030A1000030A000A217D1
:10085800352C0030A3000030A2000030A100003089
:10086800A00027088039AD062735AE00A61B2E1438
:100878002E0803194C2C2E0A031D4A2C0030A70001
:100888000030A6000030A5000030A400A617542CA4
:100898000030A7000030A6000030A5000030A400FA
:1008A8002E08031D2F08031D622C0030A300003002
:1008B800A2000030A1000030A00008002008F100CC
:1008C8002608A1319E2184317208B9007108B80048
:1008D8003808A800A901AA01AB012B08B3002A080F
:1008E800B2002908B1002808B0003908A800A901F9
:1008F800AA01AB012B08B7002A08B6002908B500E1
:100908002808B4002108F1002508A1319E2184316E
:100918007208B9007108B8003808A800A901AA012E
:10092800AB012808B0072908B13D2A08B23D2B08B9
:10093800B33D3908A800A901AA01AB012808B407EA
:100948002908B53D2A08B63D2B08B73D2208F10015
:100958002408A1319E2184317208B9007108B800B9
:100968003808A800A901AA01AB012808B00729087E
:10097800B13D2A08B23D2B08B33D3908A800A901AA
:10098800AA01AB012808B4072908B53D2A08B63DD5
:100998002B08B73D0830B035B10DB20DB30D890B3A
:1009A800CF2C2108F1002408A1319E21843172083E
:1009B800B9007108B8003808B0073908B13D0030EF
:1009C800B23DB33D2008F1002508A1319E218431B4
:1009D8007208B9007108B8003808B0073908B13D85
:1009E8000030B23DB33D0830B035B10DB20DB30D96
:1009F800890BF82C2008F1002408A1319E218431AC
:100A08007208B9007108B8003808B0073908B13D54
:100A18000030B23DB33D2108F1002608A1319E21E6
:100A280084317208B9007108B8003808B407390869
:100A3800B53D0030B63DB73D2208F1002508A1318B
:100A48009E2184317208B9007108B8003808B407CB
:100A58003908B53D0030B63DB73D2208F1002608FB
:100A6800A1319E2184317208B9007108B800380894
:100A7800A8003908A900AA01AB010830A835A90DBA
:100A8800AA0DAB0D890B422D2808B4072908B53DDE
:100A98002A08B63D2B08B73D3308A800A901AA01CA
:100AA800AB012808B4072908B53D2A08B63D2B082C
:100AB800B73D0830B035B10DB20DB30D890B5E2DC1
:100AC8002F082E07A800A901A90D2808823EB80002
:100AD800FF30293DB900B61B862D0130B435B50D60
:100AE800B60DB70D890B722DB31B34140130B03518
:100AF800B10DB20DB30D890B7B2DFF30B807FF3058
:100B0800B93D6F2DAE01B31F9F2DFF303005A800F2
:100B1800FF303105A900FF303205AA007F303305C8
:100B2800AB002B082A0429042804031934189D2D26
:100B38009F2D0130AE002E080319C62D0130B407D1
:100B48000030B53DB63DB73D371CC62D3408A8006A
:100B58003508A9003608AA003708AB000130AC00F8
:100B6800AB37AA0CA90CA80CAC0BB42D2B08B700FA
:100B78002A08B6002908B5002808B4000130B807CB
:100B88000030B93D3908803AA80080302802031D9A
:100B9800CF2DFF303802031CDB2D7F304001B7001A
:100BA8008030B6000030B5000030B400072E400198
:100BB8003908803AA80080302802031DE52D01304D
:100BC80038020318F22D00304001B7000030B6009B
:100BD8000030B5000030B400AD01072E40013808E0
:100BE800AF00FF30B405FF30B5057F30B6050030E3
:100BF800B7052F18B6172F08A8000130A836890B9B
:100C0800022E2808B7002D08B7043708A3003608B5
:100C1800A2003508A1003408A00008005B0880394C
:100C2800E8005B35EA00DA1B6A146A0803192A2E01
:100C38006A0A031D272E0030DB000030DA0000307E
:100C4800D9000030D800DA17DB01322E0030DB0083
:100C58000030DA000030D9000030D8005F08803951
:100C6800E90069086806031D68175F35E900DE1B9F
:100C78006914690803194E2E690A031D4B2E0030AA
:100C8800DF000030DE000030DD000030DC00DE1761
:100C9800DF01562E0030DF000030DE000030DD00BE
:100CA8000030DC006A08690203187C2E681F5E2E7B
:100CB8008030E8066A08EB006908EA006B08E9007A
:100CC8005808EB005C08D8006B08DC005908EB00FA
:100CD8005D08D9006B08DD005A08EB005E08DA00F1
:100CE8006B08DE005B08EB005F08DB006B08DF00C9
:100CF800EB016908E000E1016108E3006A086002AD
:100D0800E200031CE3036308803AE40080306402D5
:100D1800031D902E1A306202031CC22E40015B088C
:100D28005A045904580403199B2E01309C2E003094
:100D3800EB000030DB000030DA000030D900003072
:100D4800D8006908EA00C72E6B1CB42E6B08E000B7
:100D58000130E036890BAD2E60080138EB00B62E65
:100D68000310EB0C5818EB170130E000DB37DA0CF6
:100D7800D90CD80CE00BBA2E0130EA0740016908FB
:100D88006A02031CA82E681BFA2E6A08031DD52EBA
:100D98000030DB000030DA000030D9000030D80025
:100DA80008005C08D8075D08D93D5E08DA3D5F0891
:100DB800DB3D5B1C732F6B1CEB2E6B08E0000130D6
:100DC800E036890BE42E60080138EB00ED2E0310A5
:100DD800EB0C5818EB170130E000DB37DA0CD90CB4
:100DE800D80CE00BF12E0130EA07732F5B08803A2C
:100DF800E0005F08803A6002031D0C2F5E085A026B
:100E0800031D0C2F5D085902031D0C2F5C085802A6
:100E18000318412FFF30E000FF30E100FF30E2000F
:100E2800FF30E30058085C02E40059085D3BE50028
:100E38005A085E3BE6005B085F3BE7006408E00792
:100E48006508E13D6608E23D6708E33D6308DB00AD
:100E58006208DA006108D9006008D8008030E80626
:100E68006B03FF3AEB006B08031D492F0130D807CD
:100E78000030D93DDA3DDB3D492F5C08D8025D08DA
:100E8800D93B5E08DA3B5F08DB3B5B085A04590430
:100E98005804031D712F6B08031D712F0030DB00F0
:100EA8000030DA000030D9000030D80008000130E6
:100EB800D835D90DDA0DDB0D890B5C2FEB1B5814D7
:100EC8006B1C6A2F03146B0DEB006C2F0310EB0DDA
:100ED8006A080319712F0130EA02DA1F5B2FE90152
:100EE800EB1F7E2F6B087F39031958187C2F7E2F34
:100EF8000130E90069080319A62F0130D80700302E
:100F0800D93DDA3DDB3D5B1CA62F5808E0005908A7
:100F1800E1005A08E2005B08E3000130E400E3372F
:100F2800E20CE10CE00CE40B932F6308DB00620891
:100F3800DA006108D9006008D8006A0A0319A62FE8
:100F48000130EA076A0A031D6A08031DB62F00303C
:100F5800DB000030DA000030D9000030D8006A0821
:100F68000319E8016A1CBA2FDA17BC2F7F30DA059B
:100F78006A08E0000130E036890BBF2F6008DB000B
:100F8800E81F0800DB1708004201C301C401430839
:100F9800F4004208F50044089E312826873195312F
:100FA8001725873142013B08803A4101E90080302A
:100FB8006902031DE22F793042013A02031C08003E
:100FC8008831C520873195311725873142013B0883
:100FD800803A4101E90080306902031DF62F79301B
:100FE80042013A02031C0800A0319B20080010307F
:060FF800A23122220800D4
:101000000130F1020030F23B710A0319720A031930
:1010100008000B30F3006230890B0C28F30B0C280E
:1010200000320028A131272188313F084106031DE5
:101030001B283E084006031946284108BF00400807
:10104000BE0041084001AD00420140084001AC0033
:101050009631FF26883142014108803A4001C300A1
:101060008E304302031D3728D93042014002031855
:10107000412842013408013EB6000030353DB7003A
:10108000462842013508B7003408B6004108803AC6
:101090004001C3008E304302031D512875304201C8
:1010A0004002031C632840019711171602304001CB
:1010B000C4003830C300AD30890B5C28C30B5C28FA
:1010C000C40B5C28802842014108803A4001C300DB
:1010D0008E304302031D6F28073042014002031C7B
:1010E000842840019711171202304001C4003830A3
:1010F000C300AD30890B7A28C30B7A28C40B7A2839
:1011000040019715171696284001171297150230BF
:101110004001C4003830C300AD30890B8D28C30BAB
:101120008D28C40B8D2840011716971542014108E0
:10113000803A4001C3008D304302031DA22848308D
:101140004201400203180800A131FD21883140010D
:10115000AC01D330AD00A830AE000B30AF00013091
:1011600096310926883152304001C4002B30C3002B
:101170000030890BB928C30BB928C40BB92800006B
:1011800040011612A5318725080010304201E30006
:101190002730E4001030E5002730E600A7311C2797
:1011A0008831A7318E278831953117258831420142
:1011B0003B08803A4101E60080306602031DE328C7
:1011C000793042013A02031C080042013B08E20068
:1011D0003A08E1004408DB004308DC000330430226
:1011E000031820290330440203182029C301C40135
:1011F0004308F4004208F50044089E31282688314F
:10120000A7318E278831A7311C27883195311725C2
:10121000883142013B08803A4101E6008030660295
:10122000031D1529793042013A02031C08004201CE
:101230003B08E4003A08E3004408DD004308DE0010
:101240000330430203184F290330440203184F2987
:10125000C301C4014308F4004208F50044089E316C
:101260002826883198314E208831953117258831CC
:1012700042013B08803A4101E60080306602031DCE
:101280004429793042013A02031C080042013B081C
:10129000E6003A08E5004408DF004308E00064087F
:1012A000803A4101E60042016208803A410166024B
:1012B000031D5D29420161086302031C7529420177
:1012C0006608803A4101E60042016208803A410125
:1012D0006602031D6E29420161086502031C75291F
:1012E00042015C08C3005B08C22942016208803ADF
:1012F0004101E60042016408803A41016602031D93
:101300008429420163086102031C9C29420166088A
:10131000803A4101E60042016408803A41016602D8
:10132000031D9529420163086502031C9C294201A3
:101330005E08C3005D08C22942016208803A41018B
:10134000E60042016608803A41016602031DAB29AE
:10135000420165086102031CC32942016408803A06
:101360004101E60042016608803A41016602031D20
:10137000BC29420165086302031CC32942016008BD
:10138000C3005F08C4001030420163062730031910
:101390006406031DD229103065062730031966063E
:1013A000031908004308F4004208F50044089E3180
:1013B000282608000030AB000030AA000030A90049
:1013C0000030A8003308AF003208AE003108AD008D
:1013D0003008AC009C3104248931031CF82900300A
:1013E000B3000030B2000030B1000030B00008009F
:1013F00040304001C1000030C0000030BF0000306C
:10140000BE003F30DB008030DA000030D900003011
:10141000D800410133084001DF004101320840019A
:10142000DE00410131084001DD004101300840018A
:10143000DC008631122689315B08C5005A08C400D9
:101440005908C3005808C2008B311923893141085B
:101450004101C000400140084101BF0040013F0878
:101460004101BE0040013E084101BD00B8014008F5
:101470004001DB0041013F084001DA0041013E0824
:101480004001D90041013D084001D8004101400818
:101490004001C10041013F084001C00041013E0838
:1014A0004001BF0041013D084001BE004101330839
:1014B0004001C500410132084001C400410131082A
:1014C0004001C300410130084001C2008B311923A3
:1014D00089314108DF004008DE003F08DD003E089A
:1014E000DC008631122689315B084101B7004001DA
:1014F0005A084101B600400159084101B5004001B8
:1015000058084101B40040304001C1000030C00023
:101510000030BF000030BE00410137084001C50067
:10152000410136084001C400410135084001C300B3
:10153000410134084001C2008B311923893141082F
:101540004101BC00400140084101BB0040013F088F
:101550004101BA0040013E084101B9003C08A30026
:101560003B08A2003A08A1003908A0004008A700E3
:101570003F08A6003E08A5003D08A400A3310523AE
:1015800089312308AB002208AA002108A9002008FD
:10159000A80038304001A300D130A200B730A1002C
:1015A0001730A000410140084001A70041013F0859
:1015B0004001A60041013E084001A50041013D084F
:1015C0004001A40084311624893123084101AF0071
:1015D000400122084101AE00400121084101AD0057
:1015E000400120084101AC009C31042489310318DA
:1015F000022B3C08B3003B08B2003A08B10039089E
:10160000B00008003C08C0003B08BF003A08BE001C
:101610003908BD000130B80714303802031C372ADE
:101620004008B3003F08B2003E08B1003D08B000DA
:10163000080045088039CF004535D600C41B561434
:1016400056080319312B560A031D2E2B0030C500F6
:101650000030C4000030C3000030C200C417C50110
:10166000392B0030C5000030C4000030C30000300A
:10167000C20041088039CF064135D700C01B57143E
:1016800057080319512B570A031D4E2B0030C10078
:101690000030C0000030BF000030BE00C017C101E4
:1016A000592B0030C1000030C0000030BF000030B6
:1016B000BE00410840043F043E04031D762B003069
:1016C000C5000030C4000030C3000030C2008030CC
:1016D000C4047F30C5044F08C5044508C100440850
:1016E000C0004308BF004208BE0008005608031DA2
:1016F000822B0030C1000030C0000030BF0000303D
:10170000BE0008005608C600C7014708C9005708B0
:101710004602C800031CC90348087F3ED0000030C1
:10172000493DD1004508CE004408CD004308CC0017
:101730004208CB000030C5000030C4000030C300B8
:101740000030C2000030D5000030D4000030D3009B
:101750000030D200D7011A3057020318E52B570882
:101760000319C92B0130CB35CC0DCD0DCE0D890B16
:10177000B32B0130C235C30DC40DC50D890BBA2B77
:10178000D51B42140130D235D30DD40DD50D890BA4
:10179000C32B41084E02031DD72B40084D02031DE9
:1017A000D72B3F084C02031DD72B3E084B02031CCE
:1017B000E22B55173E08CB023F08CC3B4008CD3BFF
:1017C0004108CE3B0130D707AB2B4E084D044C04EB
:1017D0004B04031D5214C41B022C0130C235C30D2F
:1017E000C40DC50D890BEE2BD51B42140130D2352B
:1017F000D30DD40DD50D890BF72BFF30D007FF305B
:10180000D13DEB2BD701D51F1B2CFF305205C60055
:10181000FF305305C700FF305405C8007F30550521
:10182000C900490848044704460403194218192C02
:101830001B2C0130D70057080319422C0130C20776
:101840000030C33DC43DC53D451C422C4208C60086
:101850004308C7004408C8004508C9000130CA0051
:10186000C937C80CC70CC60CCA0B302C4908C500B8
:101870004808C4004708C3004608C2000130D0072A
:101880000030D13D5108803AC60080304602031D29
:101890004B2CFF305002031C5A2CFF304001D0006B
:1018A0000030D1000030C5000030C4000030C3005B
:1018B0000030C20040015108803AC6008030460224
:1018C000031D642C013050020318722C4001D0011A
:1018D000D1010030C5000030C4000030C30000302A
:1018E000C200CF0140015008D600561C792CC41705
:1018F0007B2C7F30C4055608C6000130C636890BE4
:101900007E2C4608C5006B2B4101AA012A08A03E87
:10191000860087012A08583E8400A8300318013E3B
:101920008500000881000130AA070A302A02031C42
:10193000862C2008A031AC208C314001EC00ED0158
:10194000EE01EF016F084201A70040016E0842015D
:10195000A60040016D084201A50040016C0842014B
:10196000A4000030F4000030F300EA30F2006030F0
:10197000F1002708F8002608F7002508F6002408DB
:10198000F500A231D3228C3174084201A7007308FC
:10199000A6007208A5007108A40041012108A03129
:1019A000AC208C314001EC00ED01EE01EF016F083D
:1019B0004201A30040016E084201A20040016D08EF
:1019C0004201A10040016C084201A0000030F40077
:1019D0000030F300EA30F2006030F1002308F80034
:1019E0002208F7002108F6002008F500A231D322D2
:1019F0008C3174084201A3007308A2007208A10090
:101A00007108A00041012208A031AC208C314001B6
:101A1000EC00ED016C084201B40040016D08420188
:101A2000B50041012308A031AC208C314001EC000D
:101A3000ED016C084201B20040016D084201B300A3
:101A400041012408A031AC208C314001EC00ED01B3
:101A50006C08F7006D08F8000A30F9000030FA0051
:101A6000A13143218C3178084201B1007708B000E0
:101A700041012508A031AC208C314001EC00ED0182
:101A80006C08F7006D08F8000A30F9000030FA0021
:101A9000A13143218C3178084201AF007708AE00B4
:101AA00041012608A031AC208C31003A03195A2D8F
:101AB0007C145B2D7C1041304001C1002030C000FF
:101AC0000030BF000030BE0041012708A031AC202B
:101AD0008C314001EC00ED01EE01EF016F08B30025
:101AE0006E08B2006D08B1006C08B00001309A3188
:101AF00048228C313308C5003208C4003108C300C5
:101B00003008C2008B3119238C3141084301A300F6
:101B1000400140084301A20040013F084301A100E9
:101B200040013E084301A0003F304001DB0080300F
:101B3000DA000030D9000030D8004230C100C8308F
:101B4000C0000030BF000030BE0041012808A031B5
:101B5000AC208C314001EC00ED01EE01EF016F088B
:101B6000B3006E08B2006D08B1006C08B00001301F
:101B70009A3148228C313308C5003208C40031083C
:101B8000C3003008C2008B3119238C314108DF00BB
:101B90004008DE003F08DD003E08DC0086311226EA
:101BA0008C315B084301A70040015A084301A6009D
:101BB000400159084301A500400158084301A40011
:101BC00006304001A2000030A30041012908A031E5
:101BD000AC208C314001EC00ED016C08F7006D0881
:101BE000F8000A30F9000030FA00A13143218C31AD
:101BF0007808A5007708A400A431852423084201B1
:101C0000AD00400122084201AC003508B70034089D
:101C1000B600080042012E089C3E4301C400FF307C
:101C200042012F3D4301C50003304201E800083066
:101C3000E7007730890B1A2EE70B1A2EE80B1A2EC5
:101C40004301C801C901CA01CB01C601C701470848
:101C5000803A4201E7002D08803A6702031D332EC7
:101C60002C08430146020318662E9331C5238E319A
:101C700043014908803A4201E7003D08803A670283
:101C8000031D452E3C08430148020318572E42010C
:101C90003D084301C90042013C084301C80042011C
:101CA0003B084301CB0042013A084301CA000B3014
:101CB0004201E7006230890B5B2EE70B5B2E0000D0
:101CC00001304301C6070030C73D272E43014908B4
:101CD000803A4201E70080306702031D722E013016
:101CE00043014802031C8C2E4001161E892E42011E
:101CF0002708CA002608C9002508C8002408C7000C
:101D00002308CE002208CD002108CC002008CB00FB
:101D10008C2E9C31B1248E3142015008430149067A
:101D2000031D962E42014F08430148060319C12E98
:101D3000FC1FA12E2A304001AC003530AD00A93087
:101D4000A72E2A304001AC003330AD00A930AE00E0
:101D5000AF01AF0A0030963109268E3143014908A0
:101D60004201D000430148084201CF004301490825
:101D70004001BD00430148084001BC00A5312C25AD
:101D80008E3143014B08803A4201E7008030670200
:101D9000031DCD2E643043014A02031C072F42016C
:101DA000390843014B06031DD92E4201380843016F
:101DB0004A060319072F4B084201B90043014A089C
:101DC0004201B80043014908803A4201E700330864
:101DD000803A6702031DEF2E3208430148020318C0
:101DE000FC2E420139084001BD0042013808400183
:101DF000BC00A23172220800420139084001BD0036
:101E0000420138084001BC00A23172228E31FC1F11
:101E10007D2F03304301C6000030C700063040016B
:101E2000AC000730AD00A930AE000930AF00023081
:101E3000963109268E3115304201E8004B30E7001B
:101E4000BE30890B212FE70B212FE80B212F00003B
:101E50004001AC01DF30AD00A830AE000930AF006A
:101E60000230963109268E3115304201E8004B30A0
:101E7000E700BE30890B3A2FE70B3A2FE80B3A2FD9
:101E80000000FF304301C607FF30C73D4608470446
:101E9000031D0E2F4001AC01E930AD00A830AE00AB
:101EA0000930AF000230963109268E312A304001C8
:101EB000AC003330AD00A930AE00AF01AF0A023044
:101EC000963109268E3143014B084001BD00430184
:101ED0004A084001BC00A23172228E311530420105
:101EE000E8004B30E700BE30890B742FE70B742FEE
:101EF000E80B742F0000FC1308007C1C0800430151
:101F00004908803A4201E7003308803A6702031D1E
:101F10008C2F320843014802031C08004301490882
:101F2000803A4201E7003108803A6702031D9B2F87
:101F30003008430148020318080043014B08803A67
:101F40004201E70080306702031DA92F7930430169
:101F50004A02031C08004201510843014A0242019F
:101F6000E700520843014B3B4201E80043014508AA
:101F7000803A4201E9006808803A6902031DC32FD4
:101F8000670843014402031CFD2F43014A08420134
:101F90005102E70043014B084201523BE800430174
:101FA0004508803A4201E9006808803A6902031D49
:101FB000DC2F670843014402031CFD2FE730420178
:101FC000E7000330E8004301440842016702E900EA
:101FD000430145084201683BEA006A08803AEB0089
:101FE00043014B08803A42016B02031DFB2F430162
:101FF0004A084201690203180800A6314726080072
:1020000000340034003400340034003400345F34D1
:1020100000340034003407340034073400341434FE
:102020007F3414347F34143424342A347F342A34F3
:10203000123423341334083464346234363449346B
:102040005534223450340034053403340034003421
:1020500000341C34223441340034003441342234FE
:102060001C34003408342A341C342A34083408342C
:1020700008343E34083408340034503430340034EA
:102080000034083408340834083408340034303458
:102090003034003400342034103408340434023432
:1020A0003E345134493445343E34003442347F3474
:1020B000403400344234613451344934463421349C
:1020C000413445344B3431341834143412347F34B1
:1020D0001034273445344534453439343C344A349B
:1020E000493449343034013471340934053403340B
:1020F0003634493449344934363406344934493461
:1021000029341E340034363436340034003400347C
:102110005634363400340034003408341434223455
:102120004134143414341434143414344134223407
:102130001434083400340234013451340934063480
:1021400032344934793441343E347E3411341134DC
:1021500011347E347F3449344934493436343E3482
:1021600041344134413422347F34413441342234C7
:102170001C347F3449344934493441347F34093480
:102180000934013401343E34413441345134323461
:102190007F340834083408347F34003441347F34C9
:1021A000413400342034403441343F3401347F34EE
:1021B00008341434223441347F34403440344034C1
:1021C00040347F340234043402347F347F340434A6
:1021D000083410347F343E344134413441343E3489
:1021E0007F3409340934093406343E3441345134DF
:1021F00021345E347F34093419342934463446346A
:102200004934493449343134013401347F340134A0
:1022100001343F344034403440343F341F342034A0
:10222000403420341F347F342034183420347F3439
:102230006334143408341434633403340434783489
:102240000434033461345134493445344334003464
:1022500000347F34413441340234043408341034BF
:102260002034413441347F340034003404340234A7
:102270000134023404344034403440344034403477
:1022800000340134023404340034203454345434DF
:10229000543478347F344834443444343834383413
:1022A000443444344434203438344434443448349A
:1022B0007F343834543454345434183408347E342D
:1022C00009340134023408341434543454343C3462
:1022D0007F340834043404347834003444347D3496
:1022E000403400342034403444343D34003400342D
:1022F0007F34103428344434003441347F34403443
:1023000000347C3404341834043478347C34083495
:102310000434043478343834443444344434383461
:102320007C3414341434143408340834143414341D
:1023300018347C347C34083404340434083448348D
:10234000543454345434203404343F34443440340A
:1023500020343C344034403420347C341C34203429
:10236000403420341C343C344034303440343C3429
:10237000443428341034283444340C345034503429
:1023800050343C344434643454344C344434003495
:102390000834363441340034003400347F3400349F
:1023A00000340034413436340834003408340834FE
:1023B0002A341C34083408341C342A3408340834D1
:1023C00000340034003400340034003400345F340E
:1023D000003400340034073400340734003414343B
:1023E0007F3414347F34143424342A347F342A3430
:1023F00012342334133408346434623436344934A8
:10240000553422345034003405340334003400345D
:1024100000341C342234413400340034413422343A
:102420001C34003408342A341C342A340834083468
:1024300008343E3408340834003450343034003426
:102440000034083408340834083408340034303494
:10245000303400340034203410340834043402346E
:102460003E345134493445343E34003442347F34B0
:1024700040340034423461345134493446342134D8
:10248000413445344B3431341834143412347F34ED
:102490001034273445344534453439343C344A34D7
:1024A0004934493430340134713409340534033447
:1024B000363449344934493436340634493449349D
:1024C00029341E34003436343634003400340034B9
:1024D0005634363400340034003408341434223492
:1024E0004134143414341434143414344134223444
:1024F00014340834003402340134513409340634BD
:1025000032344934793441343E347E341134113418
:1025100011347E347F3449344934493436343E34BE
:1025200041344134413422347F3441344134223403
:102530001C347F3449344934493441347F340934BC
:102540000934013401343E3441344134513432349D
:102550007F340834083408347F34003441347F3405
:10256000413400342034403441343F3401347F342A
:1025700008341434223441347F34403440344034FD
:1025800040347F340234043402347F347F340434E2
:10259000083410347F343E344134413441343E34C5
:1025A0007F3409340934093406343E34413451341B
:1025B00021345E347F3409341934293446344634A6
:1025C0004934493449343134013401347F340134DD
:1025D00001343F344034403440343F341F342034DD
:1025E000403420341F347F342034183420347F3476
:1025F00063341434083414346334033404347834C6
:1026000004340334613451344934453443340034A0
:1026100000347F34413441340234043408341034FB
:102620002034413441347F340034003404340234E3
:1026300001340234043440344034403440344034B3
:10264000003401340234043400342034543454341B
:10265000543478347F34483444344434383438344F
:1026600044344434443420343834443444344834D6
:102670007F343834543454345434183408347E3469
:1026800009340134023408341434543454343C349E
:102690007F340834043404347834003444347D34D2
:1026A000403400342034403444343D340034003469
:1026B0007F34103428344434003441347F3440347F
:1026C00000347C3404341834043478347C340834D2
:1026D000043404347834383444344434443438349E
:1026E0007C3414341434143408340834143414345A
:1026F00018347C347C3408340434043408344834CA
:10270000543454345434203404343F344434403446
:1027100020343C344034403420347C341C34203465
:10272000403420341C343C344034303440343C3465
:10273000443428341034283444340C345034503465
:1027400050343C344434643454344C3444340034D1
:102750000834363441340034003400347F340034DB
:10276000003400344134363408340034083408343A
:102770002A341C34083408341C342A34083408340D
:10278400A031BD20080099313E2193312408B000C6
:102794002508B100890D893B8909B200B3000130D5
:1027A4009A314822933133084101C4004001320870
:1027B4004101C300400131084101C2004001300819
:1027C4004101C1009931C32193312408B000250887
:1027D400B100890D893B8909B200B30001309A31F7
:1027E4004822933133084101C800400132084101B5
:1027F400C700400131084101C600400130084101D1
:10280400C5008031E72093313D08803A4101D5006D
:1028140080305502031D112C013042013C02031C7F
:1028240008004001161E282C42012708CA00260869
:10283400C9002508C8002408C7002308CE002208C0
:10284400CD002108CC002008CB0008009C31B12425
:102854000800420144084101E5000A30F100420148
:102864004408A131BD2194314101E8006808031DE9
:102874003D2C0130E80095311725943142013B0885
:102884004101E70042013A084101E60068084201BB
:10289400C4074308F4004208F50044089E31282682
:1028A400943195311725943141016708803AE2004B
:1028B40042013B08803A41016202031D652C42013A
:1028C4003A0841016602031CC32C42013B08410142
:1028D400E70042013A084101E6004201440841018F
:1028E400E50068084201C40700304101E3006808BC
:1028F4007F3CE200031CE3036308803AE400803079
:102904006402031D892C4201440841016202031C34
:102914000B2D42014308F4004208F50044089E319F
:102924002826943195311725943141016708803A5E
:10293400E20042013B08803A41016202031DA62CD9
:1029440042013A0841016602031C0B2D420144086E
:102954004101E50042013B084101E70042013A0818
:102964004101E6000A30F10042014408A131BD21D1
:1029740094314101E8006808031D732C0130E8001C
:10298400732C42013B084101E70042013A0841012E
:10299400E600E62C420144084101E50042013B08FF
:1029A4004101E70042013A084101E6000A30F10022
:1029B40042014408A131BD2194314101E800680875
:1029C400031DE62C0130E80068084201C4024101FD
:1029D400680842014402031C0B2D4308F40042081A
:1029E400F50044089E3128269431953117259431F9
:1029F40041016708803AE20042013B08803A410104
:102A04006202031D092D42013A08410166020318BE
:102A1400CC2C410165084201C4004308F40042087B
:102A2400F50044089E312826080096304101DB0059
:102A34000030DC002C30D9000130DA004201BC0146
:102A4400BD01BA01BB014101E001E10142013D08C0
:102A5400803A4101D60042013308803A41015602CE
:102A6400031D372D420132083C020318F72DFC1ECA
:102A7400412D9831C4204201BA01BB010800FC1960
:102A84003D2DE8304101DD000330DE000530DF007C
:102A94009331C523953141015E0842013B02031D78
:102AA400572D41015D0842013A020318722D3B087B
:102AB4004101DE0042013A084101DD0042013D08C6
:102AC4004101D80042013C084101D70006304101D0
:102AD400D6003030890B6C2DD60B6C2D0000832D65
:102AE40041015E084201BB0041015D084201BA0098
:102AF400410158084201BD00410157084201BC0090
:102B0400892D01304101DF025F08031D4A2D420176
:102B14003308803A4101D60042013D08803A410120
:102B24005602031D982D42013C0832020318AB2DB6
:102B340042013D08803A4101D60042013108803A01
:102B440041015602031DA92D420130083C02031C19
:102B5400080041015B085C040319C92D0130DB0244
:102B64000030DC3B42013D0841016102031DBE2DE2
:102B740042013C08410160020318282D42013D082E
:102B84004101E10042013C084101E000282D6108B7
:102B940042015006031DD22D4101600842014F0637
:102BA4000319DF2D410161084001BD0041016008A6
:102BB4004001BC00A5312C25953141016108420139
:102BC400D000410160084201CF004101E001E10170
:102BD4003230DB000030DC0059085A0403193D2D63
:102BE4000130D9020030DA3B282D42013108803A05
:102BF4004101D60042013D08803A41015602031DBD
:102C0400062E42013C08300203180800392DB70093
:102C1400A1310E2196317830A3317623963140309C
:102C2400A331762396312C08A7003708A331B523A6
:102C34009631BA012F083A020318872E3A082D0755
:102C440084002E080318013E85001200031D2C2E5B
:102C5400B601362E3A082D0784002E080318013ECB
:102C640085000008E03EB600BB013608B000B101A3
:102C74003008F7003108F8000530F9000030FA0098
:102C8400A131432196310030B2009030B30077086F
:102C94003207B4007808333DB5003B08340784009C
:102CA40035080318013E85000008B80002303706D5
:102CB4000319622E38080F39A131612196316D2E26
:102CC40038080739A13161219631B0000230B0359E
:102CD400890B692E3008B9003908A331762396315F
:102CE4003908A331762396310130BB0705303B0206
:102CF400031C372E0030A331762396310030A331E4
:102D0400762396310130BA071C2E2C08A700370809
:102D1400013EA331B5239631BA012F083A020318B4
:102D2400FC2E3A082D0784002E080318013E850066
:102D34001200031D9F2EB601A92E3A082D07840008
:102D44002E080318013E85000008E03EB600BB01D2
:102D54003608B000B1013008F7003108F80005303A
:102D6400F9000030FA00A131432196310030B2005D
:102D74009030B30077083207B4007808333DB500CB
:102D84003B083407840035080318013E8500000819
:102D9400B800023037060319D72E3808B0000430C3
:102DA400B036890BD22E3008DF2E3808B00003303D
:102DB400B036890BDA2E30080F39A13161219631F2
:102DC400B9003908A331762396313908A331762323
:102DD40096310130BB0705303B02031CAA2E00309C
:102DE400A331762396310030A33176239631013016
:102DF400BA078F2EA031BD200800A1310E219631D3
:102E04007830A331762396314030A331762396313E
:102E14000A30A2000030A3002D08A5002C08A4004D
:102E2400A431852496312308AD002208AC002D0876
:102E3400803AAE0081302E02031D222F2C302C024A
:102E44000318262F2C30332F40012D08803AAE0072
:102E540081302E02031D302FA5302C02031C372F86
:102E6400A4304001AC000130AD0040012C08D43E38
:102E7400AC00FE302D3DAD002D08AF002C08AE0097
:102E84000530AE35AF0D890B432F2E08AC002F084B
:102E9400AD007830A2000030A3002D08A5002C0856
:102EA400A400A431852496312208B40019303402D8
:102EB400031C652F3408E83EB0000830B100083028
:102EC400B20008307A2F11303402031C6D2FB00188
:102ED4003408F03E602F09303402031C762FB00111
:102EE400B1013408F83E622FB001B101B2013408D7
:102EF400B3003008A031F72096314001B6003608FF
:102F04000338B6007730A7000030A331B5239631DB
:102F14003608A331762396313608A33176239631C9
:102F24003608A3317623963136081F38B60075303B
:102F3400A7000030A331B52396313608A331762398
:102F440096313608A331762396317A30A7000030C3
:102F5400A331B52396313608A3317623963136084A
:102F6400A331762396313108A031F7209631400100
:102F7400B6007530A7000130A331B5239631B501F1
:102F84003608A331762396310130B5070730350270
:102F9400031CC22F3208A031F72096314001B6003D
:102FA4007530A7000230A331B5239631B501360838
:102FB400A331762396310130B50707303502031C5F
:102FC400D92F3308A031F72096314001B6003608D6
:102FD400C038B6007530A7000330A331B52396314D
:102FE400B5013608A331762396310130B507073091
:102FF4003502031CF32FA031BD2008007E01B80167
:10300400C3014314C3144315CE01E401D901530190
:103014009013941340018C018D018E018F01900156
:103024009601970110309800063099009A01910199
:10303400273092009301940195017E013A15BA1547
:10304400DB145B1540019F121F179F131E16C0301F
:103054009C00E0309D004E018C1240019E174E01F1
:1030640096161E304F019600FE30970047309800A8
:103074007F30990077309A00DF309B008B17053042
:10308400F2000F30F100F130890B4628F10B46288D
:10309400F20B4628000008004101E501953117258F
:1030A40098310A304001A2000030A30042013B08DD
:1030B4004001A50042013A084001A400A43185243E
:1030C400983123084101E400400122084101E30052
:1030D40001304201C4007D28420144084101E50059
:1030E40042013B084101E40042013A084101E30086
:1030F40003104201C40D403044020318B4284408AC
:10310400F4004208F50044089E3128269831953190
:10311400172598310A304001A2000030A300420173
:103124003B084001A50042013A084001A400A43133
:103134008524983123084201BB0040012208420142
:10314400BA0041016408803AE20042013B08803A37
:1031540041016202031DB22842013A08410163029F
:1031640003186E28410165084201C4004101650845
:103174004201C3004308F4004208F50044089E31AC
:103184002826080040019711A0316E209831400193
:10319400AC01FD30AD00A830AE000930AF00023004
:1031A40096310926983119304001BD005A30BC00CF
:1031B400B130890BDB28BC0BDB28BD0BDB280032CC
:1031C4004001AC011B30AD00A930AE000530AF00AA
:1031D40002309631092698312A304001AC00333050
:1031E400AD00A930AE00AF01AF0A02309631092616
:1031F40098313C304001AC002630AD00A930AE001F
:103204000430AF0002309631092698314201D101D1
:10321400D2010D304001BD002D30BC00D730890BE8
:103224001129BC0B1129BD0B11290032400197153E
:10323400FC127C114201C6012B084301B300420178
:103244002A084301B200420129084301B1004201A6
:1032540028084301B00042012B084301AF0042019A
:103264002A084301AE00420129084301AD0042018E
:1032740028084301AC0008002030A23122229931F1
:10328400A0300032890B43290830A0318A209931BB
:1032940072084001AB007108AA002A0A033003191E
:1032A4002B06031D66294030A23122229931A03019
:1032B4000032890B5A290830A0318A20993171359E
:1032C4004001AA00720DAB00FE302A060730031934
:1032D4002B06031DBE291030A23122229931A030C1
:1032E4000032890B72290830A0318A209931720882
:1032F4004001AB007108AA002A0A033003192B0607
:103304000319FC17A1312721993140012A08F10042
:103314002B08F200F301F40142014008F5004108D2
:10332400F600890D893B8909F700F800A231D32200
:1033340099317408AF007308AE007208AD007108CB
:10334400AC002C08A6002D08A7002E08A8002F0802
:10335400A9000A30A936A80CA70CA60C890BAC2925
:103364002908AF002808AE002708AD002608AC00E5
:103374002D08AB002C08AA002B08A5002A08A400DD
:1033840008002030A23122229931A0300032890B6A
:10339400C8290A30A0318A20993172084001AB0053
:1033A4007108AA002A0A033003192B06031DEB290E
:1033B4004030A23122229931A0300032890BDF291A
:1033C4000A30A0318A20993171354001AA00720D6A
:1033D400AB00FE302A06073003192B06031D432ACF
:1033E4001030A23122229931A0300032890BF72902
:1033F4000A30A0318A20993172084001AB0071086B
:10340400AA002A0A033003192B060319FC17A13159
:103414002721993140012A08F1002B08F200F30119
:10342400F40142014008F5004108F600890D893B8A
:103434008909F700F800A231D32299317408AF004A
:103444007308AE007208AD007108AC002C08A60029
:103454002D08A7002E08A8002F08A9000A30A936B5
:10346400A80CA70CA60C890B312A2908AF00280840
:10347400AE002708AD002608AC002D08AB002C08D0
:10348400AA002B08A5002A08A4000800B8003808E0
:10349400031DB31F5D2A3009BA003109BB0032098C
:1034A400BC003309BD00BA0A0319BB0A0319BC0ADC
:1034B4000319BD0A652A3308BD003208BC0031086F
:1034C400BB003008BA003308320431043004031D51
:1034D400742A0030B3000030B2000030B100003074
:1034E400B00008009630B900FE303D050319932A58
:1034F4000130B9070130BD36BC0CBB0CBA0C890BCA
:103504007D2A762A0130B9070130BA070030BB3D65
:10351400BC3DBD3D0130BD36BC0CBB0CBA0C890BA7
:103524008D2AFF303D050319A52A842A0230390269
:10353400031CA72A0130B9020130BA35BB0DBC0DFA
:10354400BD0D890B9F2ABC1F982A3918B12AFF3058
:10355400BA05FF30BB057F30BC05FF30BD05031045
:10356400B90C3908B400B501B601B7011830B43547
:10357400B50DB60DB70D890BB92A3408BA04350850
:10358400BB043608BC043708BD043808031DB31F48
:10359400CC2ABD173D08B3003C08B2003B08B1007B
:1035A4003A08B0000800953117259A3142013B08CA
:1035B400803A4101EA0080306A02031DE42A79302E
:1035C40042013A02031C08008731C8279A31953119
:1035D40017259A3142013B08803A4101EA008030C4
:1035E4006A02031DF82A793042013A02031C0800DA
:1035F40042013B084101EC0042013A084101EB0061
:10360400420143084101ED00420144084101EE003A
:1036140042014203031D102BC201122B0130C200D0
:103624008731C8279A31953117259A3141016C08A1
:10363400803AEA0042013B08803A41016A02031DD4
:10364400272B42013A0841016B020318442B420123
:103654004203031D2F2BC201312B0130C200410153
:103664006D084201C30041016E084201C4004308D1
:10367400F4004208F50044089E3128269A31953119
:1036840017259A3142013B08803A4101EA00803013
:103694006A02031D502B793042013A02031C0800D0
:1036A400A0319B209A31953117259A31E730420198
:1036B4003A06033003193B06031D0800A0316E20AF
:1036C40008004001B001A1310E219B317830A331B3
:1036D40076239B31003A0319862BA031BD209B3100
:1036E4000D304001AF002D30AE00D730890B782B60
:1036F400AE0B782BAF0B782B003201304001B007B2
:103704000A303002031C652B0030A33176239B3131
:10371400AE30A33176239B31D530A33176239B3150
:103724008030A33176239B31A830A33176239B319B
:103734003F30A33176239B31D330A33176239B31A1
:103744004030A33176239B314030A33176239B3123
:103754008D30A33176239B311430A33176239B31F2
:103764008130A33176239B31FF30A33176239B3103
:10377400D930A33176239B31F130A33176239B31A9
:103784002030A33176239B310230A33176239B3141
:103794002130A33176239B310030A33176239B3132
:1037A4007F30A33176239B312E30A33176239B3196
:1037B400A030A33176239B31C030A33176239B31D3
:1037C400DA30A33176239B310230A33176239B3147
:1037D400DB30A33176239B314030A33176239B31F8
:1037E400A430A33176239B31A630A33176239B31B9
:1037F400A031BD209B31A131FD219B31AF30A031DF
:10380400D0200800003028054001EC0000304101C0
:1038140029054001ED00803041012A054001EE00F8
:103824007F3041012B054001EF006F086E046D04E9
:103834006C04031D262C00304101AB000030AA00AB
:103844000030A9000030A800003041012C054001DF
:10385400EC00003041012D054001ED0080304101B4
:103864002E054001EE007F3041012F054001EF009D
:103874006F086E046D046C04031D492C0030410173
:10388400AF000030AE000030AD000030AC004101AC
:10389400AB1F742C00304001EC000030ED00003010
:1038A400EE008030EF00410128084001EC024101A4
:1038B40029084001ED3B41012A084001EE3B41014A
:1038C4002B084001EF3B6F084101AB0040016E083B
:1038D4004101AA0040016D084101A90040016C08A2
:1038E4004101A800AF1F9E2C00304001EC000030C5
:1038F400ED000030EE008030EF0041012C08400163
:10390400EC0241012D084001ED3B41012E0840012C
:10391400EE3B41012F084001EF3B6F084101AF002E
:1039240040016E084101AE0040016D084101AD0047
:1039340040016C084101AC008030AB068030AF061A
:103944002F082B02031D08002E082A02031D08005D
:103954002D082902031D08002C0828020800161649
:1039640009304001BF001E30BE00E430890BB82C82
:10397400BE0BB82CBF0BB82C00009331C2239C3172
:1039840068304001BE00E430890BC62CBE0BC62C47
:1039940000009B3163239C317C1FD72CA331382337
:1039A4009C317C13A131FD219C314001AC011130CB
:1039B400AD00A930AE000930AF00003096310926C1
:1039C4009C31A331F6239C314001AC01E930AD00B8
:1039D400A830AE000930AF000230963109269C3180
:1039E4002A304001AC003330AD00A930AE00AF0145
:1039F400AF0A0030963109269C312A304001AC00D0
:103A04003330AD00A930AE00AF01AF0A02309631B9
:103A140009269C310F304201BE002730BF006430BC
:103A2400D1000030D2000F30CF002730D000B801D1
:103A3400B90139084001BD00420138084001BC0009
:103A4400A23172229C310130420128074301B000A7
:103A540000304201293D4301B100003042012A3DBA
:103A64004301B200003042012B3D4301B300420147
:103A74002B084301AF0042012A084301AE00420172
:103A840029084301AD00420128084301AC00FC129F
:103A94007C12FC117C11FC1042012708CA00260884
:103AA400C9002508C8002408C7002308CE0022083E
:103AB400CD002108CC002008CB000800983100205C
:103AC4009D318C3184249D314001171619157C17C2
:103AD4009C31B1249D318731FB279D31FC13420178
:103AE4002708CA002608C9002508C8002408C700FA
:103AF4002308CE002208CD002108CC002008CB00EA
:103B04004301330842012B02031D982D430132085F
:103B140042012A02031D982D430131084201290262
:103B2400031D982D4301300842012802031CA62DD1
:103B3400B8304301B0070B30B13D0030B23D003026
:103B4400B33D883112209D3143012F0842012B02DD
:103B5400031DBC2D43012E0842012A02031DBC2D66
:103B640043012D0842012902031DBC2D43012C08E9
:103B740042012802031CCA2D2C304301AC0701303A
:103B8400AD3D0030AE3D0030AF3D8E310A269D3153
:103B9400420127082604250424040319D92D4A08C0
:103BA400490448044704031DD92D4001161242015B
:103BB40023082204210420040319E92D4E084D048E
:103BC4004C044B04031DE92DA53187259D31FC1EB2
:103BD400F52D4001161EF22D9831C4209D31F52D8E
:103BE4009C31B1249D317C1E012E4001161EFE2DF8
:103BF400A63147269D31012E9C31B1249D31FC1DF7
:103C04000D2E4001161E0A2EA1317F219D310D2E4D
:103C14009C31B1249D317C1D182E4001161A152E9D
:103C24009C31B1249D319831C4209D31FC1C822DDE
:103C34004001161A242EA131DC219D319C31B1247E
:103C44009D31822DA63147269D31822DF7007718AC
:103C54002E2E40019917302E400199137708F60053
:103C64000130F636890B332E76183B2E4001191796
:103C74003D2E400119137708F6000230F636890B01
:103C8400402E7618482E400199164A2E400199126A
:103C94007708F6000330F636890B4D2E7618552E2C
:103CA40040011916572E400119127708F600043006
:103CB400F636890B5A2E7618622E40019817642E18
:103CC400400198137708F6000530F636890B672E05
:103CD40076186F2E40011817712E400118137708BB
:103CE400F6000630F636890B742E76187C2E4001C9
:103CF40098167E2E400198127418832E4001961651
:103D0400852E400196127408F6000130F636890BB0
:103D1400882E7618902E40019A14922E40019A1003
:103D24007408F6000230F636890B952E76189D2E0F
:103D3400400196179F2E400196137408F600033035
:103D4400F636890BA22E7618AA2E40011617AC2E31
:103D5400400116137408F6000430F636890BAF2EB2
:103D64007618B72E40011814B92E400118107408A3
:103D7400F6000530F636890BBC2E7618C42E4001A9
:103D84009814C62E400198107408F6000630F636D2
:103D9400890BC92E7618D12E40011815D32E400157
:103DA4001811750C031C1A1003181A1499154201E2
:103DB4003708F2003608F100883100209E314001B6
:103DC40099111A30890BE42E003240011812420175
:103DD4003708F2003608F100883100209E31400196
:103DE400181642013708F2003608F1008831002025
:103DF4009E3140019913191399121912981318132B
:103E0400981296129A1096131613181098101811E7
:103E14001A101530F600C630890B0E2FF60B0E2F34
:103E240000320800420143084101E5000A30F10074
:103E340042014308A131BD219F314101E8006808D6
:103E4400031D262F0130E800953117259F314201CB
:103E54003B084101E70042013A084101E6006808D5
:103E64004201C3074308F4004208F50044089E31A8
:103E740028269F31953117259F3141016708803AE3
:103E8400E20042013B08803A41016202031D4E2FC9
:103E940042013A0841016602031CAC2F42013B086F
:103EA4004101E70042013A084101E60042014308AA
:103EB4004101E50068084201C30700304101E30005
:103EC40068087F3CE200031CE3036308803AE400D3
:103ED40080306402031D722F4201430841016202D3
:103EE400031CF42F42014308F4004208F50044087F
:103EF4009E3128269F31953117259F31410167084E
:103F0400803AE20042013B08803A41016202031D0B
:103F14008F2F42013A0841016602031CF42F42012B
:103F240043084101E50042013B084101E700420129
:103F34003A084101E6000A30F10042014308A13188
:103F4400BD219F314101E8006808031D5C2F013049
:103F5400E8005C2F42013B084101E70042013A08B6
:103F64004101E600CF2F420143084101E50042012F
:103F74003B084101E70042013A084101E6000A30EA
:103F8400F10042014308A131BD219F314101E80004
:103F94006808031DCF2F0130E80068084201C302FE
:103FA4004101680842014302031CF42F4308F40052
:103FB4004208F50044089E3128269F319531172583
:103FC4009F3141016708803AE20042013B08803A90
:103FD40041016202031DF22F42013A0841016602C7
:103FE4000318B52F410165084201C3004308F400DA
:0C3FF4004208F50044089E312826080011
:1040C400640080010131890B63280034FE00120072
:1040D4001E00FE0B692800344201C4010130C300F4
:1040E400C2014308F4004208F50044089E31282622
:1040F4000800F300F201731C81287108F207031011
:10410400F10D0310F30C7308031D7D2872080800D9
:10411400F300730841019E003530890B8F2800009D
:1041240041011314131894280D08F2000C08F1002F
:104134000800420144084302031CA6289F311427A7
:10414400A03194312B24080094312B24A0319F31C9
:1041540014270800F6000F307605F4000A30F10049
:104164007608F5000430F536890BB5287508A031BA
:104174007B2074070800400116114230890BC028C7
:104184000032400196154230890BC62800324001A6
:1041940016154230890BCC2800320800FB00A131EF
:1041A4000E21A0317830A3317623A0318030A331A1
:1041B4007623A0317B08A3317623A031A031BD2022
:1041C40008000A340034003400340A340034003463
:1041D40000340F342734643400340134023440345E
:1041E40078340134023440347834F4007408031D04
:1041F400FD2800300800FF307407F100F10A803018
:10420400F2000030F3000929730DF30CF20CF10BEA
:1042140006297208003C0800400196154230890BBB
:1042240011290032400116154230890B172900323A
:10423400400116114230890B1D29003240019611AC
:104244004230890B2329003208002030A231222277
:10425400A131A0300032890B2C290930A0318A20E9
:10426400A1317208F8007108F7000B30F900003032
:10427400FA00A131432178084201C1007708C00047
:1042840008004001A001A101771C4D2979084001D3
:10429400A0077A08A13D0130F935FA0D890B4E29A2
:1042A4000130F836F70C890B532977087804031D7D
:1042B400462940012108F8002008F7000800F20010
:1042C400F301F4017208F100740A6929F136890BCB
:1042D4006829711C77290330F1007435890A732920
:1042E400F135890B72297108F3040130F4070430A5
:1042F4007402031C642973080800A131FD21A13153
:104304004001AC01C730AD00A830AE000B30AF00A7
:10431400013096310926A13152304001C4002B30BE
:10432400C3000030890B9429C30B9429C40B94292E
:104334000000A53187250800F900F501F601710890
:10434400F300F4017308F7007408F800791CAE292F
:104354007708F5077808F63D0130F735F80D890B35
:10436400AF290310F90C7908031DA8297608F20077
:104374007508F1000800F200F40171080319DA2944
:104384000130F300F11BCB290310F10D0130F307C9
:10439400C4290310F40D71087202031CD529710895
:1043A400F20274140310F10C0130F302031DCB2943
:1043B4007408080097111616191195311725A131A3
:1043C40042013B08803A4101EF0080306F02031D37
:1043D400EE29643042013A02031CF2299A31D522B3
:1043E4004001191542013B08B9003A08B8004001E0
:1043F4009715FC100800A1310E21A1317830A331AA
:104404007623A1314030A3317623A131AD01A70138
:104414002D08A331B523A131AC010130AC07003024
:10442400A3317623A13180302C02031C0F2A0130E2
:10443400AD0708302D02031C092AA031BD20080055
:10444400F300410193137308603903193E2A731B67
:104454002D2A01302E2A0230F1000030F2005201E0
:104464000C087106FC3971068C008C170C1F382A55
:10447400033041019A003F2A9A0194019501960163
:104484009D019C0114309300931708007108720475
:1044940003196D2A0130F500F21B582A0130F13559
:1044A400F20D890B512A0130F5074E2A7208740265
:1044B400031D5E2A71087302031C642A7108F30247
:1044C4007208F43B0130F236F10C890B652A013095
:1044D400F502031D582A7408F2007308F10008005D
:1044E4003C083D04031D822A3C30AC002630AD005C
:1044F400A930AE000430AF0002309631092608001E
:104504003D08F9003C08F800B430FA00A531E5256F
:10451400A23143013708BC002E30BD003808BE006C
:104524003908BF003C304001AC00BC30AD00013064
:10453400AE000430AF000230963109260800F601BF
:10454400F701710872040319CE2A0130F500F21B39
:10455400B32A0130F135F20D890BAC2A0130F5078D
:10456400A92A0130F635F70D890BB42A72087402B2
:10457400031DBE2A71087302031CC52A7108F302C5
:104584007208F43B76140130F236F10C890BC62A1A
:104594000130F502031DB32A7708F2007608F10012
:1045A400080000304001A3000030A2000030A10048
:1045B4000030A000711CE72A75084001A0077608A6
:1045C400A13D7708A23D7808A33D0130F535F60DED
:1045D400F70DF80D890BE82A0130F436F30CF20CD0
:1045E400F10C890BEF2A7408730472047104031D1F
:1045F400DC2A40012308F4002208F3002108F20019
:104604002008F10008008030A30627084001DB00E1
:10461400410126084001DA00410125084001D90082
:10462400410124084001D800410123084001DF0072
:10463400410122084001DE00410121084001DD0062
:10464400410120084001DC00863112265B0841014B
:10465400A30040015A084101A20040015908410148
:10466400A100400158084101A00008004001971131
:10467400A131FD21A3314001AC016230AD00A8306D
:10468400AE001230AF000130A4313B24A33140010D
:10469400AC01A130AD00A830AE000C30AF00033047
:1046A400A4313B24A33154304001AC002F30AD0081
:1046B400A930AE000330AF000330A4313B24A33152
:1046C4007A304001BB00C130BA008130890B682BBD
:1046D400BA0B682BBB0B682B003240018D1A742B6C
:1046E40000006F2B971508004001A500A6012508BE
:1046F400A2000730A236890B7C2B22080139A300C3
:10470400A30DA30D16082306FB3923069600423099
:10471400890B8A2B0032400196154230890B902B6D
:104724000032400196112535A5000130A607083056
:104734002602031C792B16154230890B9F2B00325D
:10474400400196150C0C890C0139A4004230890BE8
:10475400A92B0032400196114230890BAF2B003255
:10476400400124080800A8002708023EAB00A1313C
:104774000E21A3317830A3317623A3310030A33145
:104784007623A3312808B03EA3317623A331103019
:104794002B020318D12B2B08A900AA01E22B2B080A
:1047A400FB000430FB36890BD42B7B08AA00F030C5
:1047B400F1002A08A0317B20A33140012B07A90076
:1047C4002908A3317623A3312A08103EA331762386
:1047D400A331A1310E21A3317830A3317623A33143
:1047E4004030A33176230800A1310E21A331783063
:1047F400A3317623A3314030A3317623A331B3010F
:104804007330A7003308A331B523A331B2013308B1
:10481400AC00AD012C08F7002D08F8000B30F900AE
:104824000030FA00A1314321A3310030AE00A8309A
:10483400AF0077082E07B00078082F3DB10032088A
:104844003007840031080318013E85000008A331B5
:104854007623A3310130B2070B303202031C092C3A
:104864000130B30704303302031C022CA031BD20F5
:104874000800B6002C08A7003608A331B523A431DC
:10488400B8012F0838020318822C38082D07840039
:104894002E080318013E85000008E03EB700B90168
:1048A4003708B000B1013008F7003108F8000530CE
:1048B400F9000030FA00A1314321A4310030B200E4
:1048C4009030B30077083207B4007808333DB50060
:1048D40039083407840035080318013E85000008B0
:1048E400A3317623A4310130B90705303902031C02
:1048F400522C0030A3317623A4310130B807432C65
:10490400A031BD200800A701A31F8F2CA209A30971
:10491400A20A0319A30A0130A700A51F982CA40911
:10492400A509A40A0319A50A0130A706A801A9012B
:10493400220823040319C52C0130A600A31BAA2CAA
:104944000130A235A30D890BA32C0130A607A02C9E
:104954000130A835A90D890BAB2C23082502031DB2
:10496400B52C22082402031CBC2C2208A402230810
:10497400A53B28140130A336A20C890BBD2C0130B1
:10498400A602031DAA2C27080319CD2CA809A909DE
:10499400A80A0319A90A2908A3002808A2000800E4
:1049A400003028054001EC00003041012905400198
:1049B400ED00803041012A054001EE007F304101C5
:1049C4002B054001EF006F086E046D046C04031D99
:1049D400F42C00304101AB000030AA000030A900E3
:1049E4000030A800003041012C054001EC000030EB
:1049F40041012D054001ED00803041012E054001AB
:104A0400EE007F3041012F054001EF006F086E0476
:104A14006D046C04031D172D00304101AF000030FC
:104A2400AE000030AD000030AC0041012F082B0671
:104A3400031D262D2E082A06031D262D2D082906C2
:104A4400031D262D2C08280603192A2D03100800FF
:104A5400031408003C083D04031D3C2D3C30AC000D
:104A64002B30AD00A930AE000330AF0000309631DA
:104A74000926080000303D020A3003193C020318DD
:104A8400532D3D08F9003C08F800B430FA00A53174
:104A9400E525A53130304301BC002E30BD00390876
:104AA400792D00303D02643003193C020318662D51
:104AB4003D08F9003C08F800B430FA00A531E525BA
:104AC400A531430138084E2D0530BC070030BD3DEB
:104AD4003D08F9003C08F800B430FA00A531E5259A
:104AE400A53120304301BC003708BD003808BE00A2
:104AF4003C304001AC00BC30AD000130AE000330AE
:104B0400AF0000309631092608008B1340019E1334
:104B14004E018C1216167E01CA12C91640011612D5
:104B240017169715C2014208031DA72D0530400131
:104B3400C1000F30C000F130890B9E2DC00B9E2D9B
:104B4400C10B9E2D7E01CA12630000000530400196
:104B5400C1000F30C000F130890BAE2DC00BAE2D5B
:104B6400C10BAE2D40018D1ABA2D0130C207BB2DE9
:104B7400C20110304202031C952D4E0116127E0113
:104B8400C912CA1240019E178B177C179C31B1249D
:104B9400A53140018D1AD02D0000CB2D4201C60154
:104BA400FC127C12FC112B084301AB0042012A08C1
:104BB4004301AA00420129084301A900420128082F
:104BC4004301A8000800F91FE92D0130EA2D003047
:104BD400A2002208031DF32D7908A4007808A3007D
:104BE400FE2D7809A0007909A100A00A0319A10AE1
:104BF4002008A3002108A400A5017A08250786003F
:104C040001308700203081000130A50706302502DD
:104C1400031CFF2D7A08063E8600013087008101BF
:104C24000530A5007A0825078600013087000A3080
:104C3400F1000030F2002408F4002308F300A2314C
:104C44004822A5317108303E81000130A5020A30A6
:104C5400F1000030F2002408F4002308F300A2312C
:104C6400A122A5317208A4007108A300230824041A
:104C7400031D142E2208031908007A08250786004C
:104C8400013087002D308100080040019711AC01EC
:104C9400F330AD00A830AE000930AF0002309631D9
:104CA4000926A631400119119A31D522A6314201B3
:104CB4003B08B9003A08B8003B08D2003A08D100D2
:104CC4004001AC012130AD00A930AE000430AF008A
:104CD400023096310926A6312A304001AC00333027
:104CE400AD00A930AE00AF01AF0A023096310926FB
:104CF400A631420139084001BD0042013808400193
:104D0400BC00A23172224001191597157C12FC10C7
:104D14004201C6012B084301B30042012A084301A2
:104D2400B200420129084301B100420128084301AD
:104D3400B00042012B084301AF0042012A0843019D
:104D4400AE00420129084301AD0042012808430195
:104D5400AC00080003106E0D6F0D4101A50025087D
:104D6400031DBE2E00304001EF000030EE00003085
:104D7400ED000030EC00080040016C084101A00087
:104D840040016D084101A10040016E084101A200EB
:104D940040016F084101A3001F30A336A20CA10CEF
:104DA400A00C890BCF2E2008A4004001EE17FF3081
:104DB400EC05FF30ED05FF30EE050030EF059630D1
:104DC4004101A502A51FF92E2508803A973E031C30
:104DD400B42E01304001EF36EE0CED0CEC0C890BD7
:104DE400EC2E01304101A50703190C2FEB2E2030C6
:104DF40025020318B42E250803190C2F0130400195
:104E0400EC35ED0DEE0DEF0D890B012F0130410155
:104E1400A502FD2E2408031908004001EC09ED0940
:104E2400EE09EF09EC0A0319ED0A0319EE0A031956
:104E3400EF0A08004101E50195311725A7310A3031
:104E44004001A2000030A30042013B084001A5003C
:104E540042013A084001A400A4318524A731230863
:104E64004101E400400122084101E3000130420114
:104E7400C3004B2F420143084101E50042013B08B6
:104E84004101E40042013A084101E30003104201F8
:104E9400C30D403043020318822F4308F400420834
:104EA400F50044089E312826A73195311725A731EE
:104EB4000A304001A2000030A30042013B08400137
:104EC400A50042013A084001A400A4318524A73179
:104ED40023084201BB00400122084201BA004101FB
:104EE4006408803AE20042013B08803A41016202D0
:104EF400031D802F42013A084101630203183C2F2D
:104F0400410165084201C3004308F4004208F5006A
:104F140044089E31282608004101E50195311725F2
:104F2400A7310A304001A2000030A30042013B082F
:104F34004001A50042013A084001A400A43185249F
:104F4400A73123084101E400400122084101E300A4
:104F540001304201C400BD2F420144084101E50073
:104F640042013B084101E40042013A084101E300E7
:104F740003104201C40D403044020318F42F4308C7
:104F8400F4004208F50044089E312826A7319531E3
:104F94001725A7310A304001A2000030A3004201C6
:104FA4003B084001A50042013A084001A400A43195
:104FB4008524A73123084201BB0040012208420195
:104FC400BA0041016408803AE20042013B08803A99
:104FD40041016202031DF22F42013A0841016302BA
:104FE4000318AE2F410165084201C4004308F400D0
:104FF4004208F50044089E3128260800F834F834A5
:105004001F341F340334033403341F341F34F8347F
:10501400F834FF34FF3400340034003400340034F6
:1050240000340034FF34FF34FF34FF3400340034E0
:1050340000340034003400340034FF34FF34FF34CF
:10504400FF34C034C034C034C034C034C034C0347D
:10505400FF34FF34F834F8341F341F34033403347A
:1050640003341F341F34F834F834FF34FF3400346D
:10507400003400340034003400340034FF34FF348E
:10508400FF34FF340034003400340034003400347E
:105094000034FF34FF34FF34FF34C034C034C03430
:1050A400C034C034C034C034FF34FF340534303429
:1050B4000734103415341334013404341434603494
:1050C4002034443445345334493447344E3445341D
:1050D400443420344234593420344E343734443444
:1050E40044344334003453347434613463346B349F
:1050F400203475346E3464346534723466346C34FC
:105104006F347734003453347434613463346B341F
:1051140020346F3476346534723466346C346F34CE
:10512400773400344D3443344C34523420347234A4
:1051340065347334653474342034203400342034BA
:105144004634573420345634453452345334493475
:105154004F344E34203400345734443454342034DF
:105164006F3476346534723466346C346F34773427
:10517400003442344F34523420347234653473343E
:1051840065347434203420340034203450344F34A3
:1051940057344534523420344F3446344634203462
:1051A4000034203420344C344F34573420344234C7
:1051B40041345434543420340034203420342034E2
:1051C4002034203420342034203420340034533428
:1051D40057345234203420342034203420342034C2
:1051E4000034543455344E3445342034203420347F
:1051F4002034203400345234453453344534543448
:10520400203420342034203400344F345634453490
:1052140052344C344F344134443420340034503408
:10522400573452342034203420342034203457343A
:10523400003453345734523420342034003453343B
:10524400573452342034003430342E343034303433
:10525400003430342E343034003431342E34363487
:0A52640000343D3400343E340034C1
:020000040001F9
:0A000E008C3F3D3F9F3FFF3FFF3F47
:00000001FF
