:040000008031C5285E
:100008007E14803100308600003087004E018C1E3F
:10001800C3288C1201304201A8070030A93DAA3D2F
:10002800AB3D6208610460045F04031921280130B4
:10003800DF020030E03BE13BE23B66086504640414
:10004800630403192D280130E3020030E43BE53B4B
:10005800E63BC03040019C00E0309D0043012B0886
:1000680042012B02031D482843012A0842012A02A3
:10007800031D48284301290842012902031D482875
:100088004301280842012802031CC3280A304301FF
:10009800A8070030A93DAA3DAB3D40018F1856285E
:1000A800013057280030F0008D1A5C2801305D2897
:1000B8000030700400380319722842012708E20052
:1000C8002608E1002508E0002408DF002308E600F0
:1000D8002208E5002108E4002008E30040018D1A09
:1000E8009128FA304201400203187C280130C007E9
:1000F8001930400603197C164001160E0139F0002C
:10010800FA3042014006031D8B2801308C2800304C
:10011800700503199C28FC159C28033042014002F5
:10012800031C9B281930400203189B28FC16C001A9
:1001380040018F18B828193042013F020318A62839
:100148000130BF0740010F0C890C0139F000143051
:1001580042013F06031DB2280130B3280030700564
:100168000319C328FC14C328023042013F02031CB0
:10017800C2280A303F020318C2287C15BF017E102E
:1001880009008031C728F4308400AF3085005F3023
:100198008600013087000C30AF31EE278031033004
:1001A800840088308500CA30860001308700083016
:1001B800AF31EE278031FC0120308400013085000A
:1001C8002130AF31E8278031A0308400013085002C
:1001D8002A30AF31E8277E1040019D31A02D4430F0
:1001E8004001C1007A30C0000030BF000030BE00BE
:1001F800410144084001C500410143084001C400D1
:10020800410142084001C300410141084001C200C8
:100218008B312223803141084101C400400140084C
:100228004101C30040013F084101C20040013E08AE
:100238004101C10044304001C1007A30C0000030A3
:10024800BF000030BE00410148084001C50041011F
:1002580047084001C400410146084001C30041016C
:1002680045084001C2008B312223803141084101F9
:10027800C800400140084101C70040013F08410152
:10028800C60040013E084101C50044084001A300E2
:10029800410143084001A200410142084001A10078
:1002A800410141084001A000430127084001A7007F
:1002B800430126084001A600430125084001A50086
:1002C800430124084001A4008431222480312308FA
:1002D8004101D000400122084101CF00400121081E
:1002E8004101CE00400120084101CD0044084001F1
:1002F800A300410143084001A20041014208400116
:10030800A100410141084001A00043012308400128
:10031800A700430122084001A6004301210840012B
:10032800A500430120084001A40084312224803123
:100338002308DB002208DA002108D9002008D800A9
:10034800410144084001A300410143084001A200C3
:10035800410142084001A100410141084001A000BB
:10036800410150084001A70041014F084001A60083
:1003780041014E084001A50041014D084001A4007B
:100388008431222480312308DF002208DE0021087E
:10039800DD002008DC0086311E2680315B08410123
:1003A800C40040015A084101C300400159084101F5
:1003B800C200400158084101C10048084001A3009B
:1003C800410147084001A200410146084001A1003F
:1003D800410145084001A000430127084001A7004A
:1003E800430126084001A600430125084001A50055
:1003F800430124084001A4008431222480312308C9
:100408004101D000400122084101CF0040012108EC
:100418004101CE00400120084101CD0048084001BB
:10042800A300410147084001A200410146084001DC
:10043800A100410145084001A000430123084001F3
:10044800A700430122084001A600430121084001FA
:10045800A500430120084001A400843122248031F2
:100468002308DB002208DA002108D9002008D80078
:10047800410148084001A300410147084001A2008A
:10048800410146084001A100410145084001A00082
:10049800410150084001A70041014F084001A60052
:1004A80041014E084001A50041014D084001A4004A
:1004B8008431222480312308DF002208DE0021084D
:1004C800DD002008DC0086311E2680315B084101F2
:1004D800C80040015A084101C700400159084101BC
:1004E800C600400158084101C50044084001A70062
:1004F800410143084001A600410142084001A5000E
:10050800410141084001A4004130A3002030A2006D
:100518000030A1000030A00084312224803123085B
:10052800DF002208DE002108DD002008DC003F3063
:10053800DB000030DA000030D9000030D800863106
:100548001E2680315B08EF005A08EE005908ED00BE
:100558005808EC00A6313626803140016D0842016A
:10056800B90040016C084201B8003908803AFB0024
:100578002F08803A7B02031DC32A2E08380203186D
:10058800C92A4201B601B701080041014808AB0079
:100598004708AA004608A9004508A8004408AF0073
:1005A8004308AE004208AD004108AC009B318823E7
:1005B8008031031CE52AE7304201B6000330B7005A
:1005C800080044084001C100410143084001C0003F
:1005D800410142084001BF00410141084001BE00FD
:1005E800410148084001C500410147084001C400D5
:1005F800410146084001C300410145084001C200CD
:100608008B312223803141084101CC004001400850
:100618004101CB0040013F084101CA0040013E08AA
:100628004101C9004C08B3004B08B2004A08B100A8
:100638004908B0008931E32180313308D4003208F9
:10064800D3003108D2003008D1003F30A7008030F5
:10065800A6000030A5000030A4005408A3005308E9
:10066800A2005208A1005108A000A231C022803186
:100678002308AB002208AA002108A9002008A80026
:100688000030AF000030AE000030AD000030AC00EC
:10069800A5311F258031031C592B3A30D4008330F3
:1006A800D3001230D2006F30D1005408A300530891
:1006B800A2005208A1005108A0003F30A7008030D6
:1006C800A6000030A5000030A400A231C02280316D
:1006D80023084001C100410122084001C000410136
:1006E80021084001BF00410120084001BE003F3001
:1006F800DB008030DA000030D9000030D80041013A
:1007080054084001DF00410153084001DE00410167
:1007180052084001DD00410151084001DC008631EA
:100728001E2680315B08C5005A08C4005908C3005A
:100738005808C2008B312223803141084101D4007E
:10074800400140084101D30040013F084101D20067
:1007580040013E084101D1005408AB005308AA00EB
:100768005208A9005108A8003F30AF008030AE0001
:100778000030AD000030AC009B3188238031031875
:10078800CD2B3F30D4008030D3000030D200003071
:10079800D1004130AB001F30AA00C230A9008F3011
:1007A800A8005408AF005308AE005208AD00510825
:1007B800AC009B3188238031031CDF2A5408400198
:1007C800A700410153084001A60041015208400119
:1007D800A500410151084001A4004230A300C830DF
:1007E800A2000030A1000030A00084312224803112
:1007F8002308DF002208DE002108DD002008DC00D5
:100808003F30DB000030DA000030D9000030D8007B
:1008180086311E2680315B08EF005A08EE00590821
:10082800ED005808EC00A631362640016D0842015B
:10083800B70040016C084201B6000800230880395F
:10084800AD002335AF00A21B2F142F080319392C34
:100858002F0A031D372C0030A3000030A2000030FF
:10086800A1000030A000A217412C0030A3000030E6
:10087800A2000030A1000030A00027088039AD0692
:100888002735AE00A61B2E142E080319582C2E0A45
:10089800031D562C0030A7000030A6000030A5002C
:1008A8000030A400A617602C0030A7000030A60076
:1008B8000030A5000030A4002E08031D2F08031DDA
:1008C8006E2C0030A3000030A2000030A1000030E0
:1008D800A00008002008F1002608A1313121843148
:1008E8007208B9007108B8003808A800A901AA015F
:1008F800AB012B08B3002A08B2002908B100280868
:10090800B0003908A800A901AA01AB012B08B7005B
:100918002A08B6002908B5002808B4002108F10003
:100928002508A131312184317208B9007108B80055
:100938003808A800A901AA01AB012808B0072908AE
:10094800B13D2A08B23D2B08B33D3908A800A901DA
:10095800AA01AB012808B4072908B53D2A08B63D05
:100968002B08B73D2208F1002408A1313121843138
:100978007208B9007108B8003808A800A901AA01CE
:10098800AB012808B0072908B13D2A08B23D2B0859
:10099800B33D3908A800A901AA01AB012808B4078A
:1009A8002908B53D2A08B63D2B08B73D0830B035B3
:1009B800B10DB20DB30D890BDB2C2108F100240811
:1009C800A131312184317208B9007108B8003808A2
:1009D800B0073908B13D0030B23DB33D2008F10001
:1009E8002508A131312184317208B9007108B80095
:1009F8003808B0073908B13D0030B23DB33D083082
:100A0800B035B10DB20DB30D890B042D2008F100DE
:100A18002408A131312184317208B9007108B80065
:100A28003808B0073908B13D0030B23DB33D210860
:100A3800F1002608A131312184317208B90071080A
:100A4800B8003808B4073908B53D0030B63DB73DA1
:100A58002208F1002508A131312184317208B9003A
:100A68007108B8003808B4073908B53D0030B63DFC
:100A7800B73D2208F1002608A131312184317208DE
:100A8800B9007108B8003808A8003908A900AA01F7
:100A9800AB010830A835A90DAA0DAB0D890B4E2D59
:100AA8002808B4072908B53D2A08B63D2B08B73DE4
:100AB8003308A800A901AA01AB012808B40729082E
:100AC800B53D2A08B63D2B08B73D0830B035B10D05
:100AD800B20DB30D890B6A2D2F082E07A800A901A6
:100AE800A90D2808823EB800FF30293DB900B61B81
:100AF800922D0130B435B50DB60DB70D890B7E2D8D
:100B0800B31B34140130B035B10DB20DB30D890BE0
:100B1800872DFF30B807FF30B93D7B2DAE01B31FDD
:100B2800AB2DFF303005A800FF303105A900FF309C
:100B38003205AA007F303305AB002B082A042904AC
:100B4800280403193418A92DAB2D0130AE002E0846
:100B58000319D22D0130B4070030B53DB63DB73D7D
:100B6800371CD22D3408A8003508A9003608AA0079
:100B78003708AB000130AC00AB37AA0CA90CA80CA5
:100B8800AC0BC02D2B08B7002A08B6002908B50001
:100B98002808B4000130B8070030B93D3908803A58
:100BA800A80080302802031DDB2DFF303802031C0B
:100BB800E72D7F304001B7008030B6000030B50027
:100BC8000030B400132E40013908803AA800803064
:100BD8002802031DF12D013038020318FE2D0030C4
:100BE8004001B7000030B6000030B5000030B40056
:100BF800AD01132E40013808AF00FF30B405FF30B7
:100C0800B5057F30B6050030B7052F18B6172F0881
:100C1800A8000130A836890B0E2E2808B7002D0829
:100C2800B7043708A3003608A2003508A100340825
:100C3800A00008005B088039E8005B35EA00DA1B91
:100C48006A146A080319362E6A0A031D332E003007
:100C5800DB000030DA000030D9000030D800DA17A5
:100C6800DB013E2E0030DB000030DA000030D90016
:100C78000030D8005F088039E90069086806031D5C
:100C880068175F35E900DE1B6914690803195A2ED5
:100C9800690A031D572E0030DF000030DE000030E7
:100CA800DD000030DC00DE17DF01622E0030DF00DF
:100CB8000030DE000030DD000030DC006A08690228
:100CC8000318882E681F6A2E8030E8066A08EB0031
:100CD8006908EA006B08E9005808EB005C08D800CE
:100CE8006B08DC005908EB005D08D9006B08DD00D3
:100CF8005A08EB005E08DA006B08DE005B08EB00C0
:100D08005F08DB006B08DF00EB016908E000E10128
:100D18006108E3006A086002E200031CE303630859
:100D2800803AE40080306402031D9C2E1A3062026F
:100D3800031CCE2E40015B085A04590458040319B9
:100D4800A72E0130A82E0030EB000030DB00003069
:100D5800DA000030D9000030D8006908EA00D32E44
:100D68006B1CC02E6B08E0000130E036890BB92EF1
:100D780060080138EB00C22E0310EB0C5818EB1773
:100D88000130E000DB37DA0CD90CD80CE00BC62EAA
:100D98000130EA07400169086A02031CB42E681B87
:100DA800062F6A08031DE12E0030DB000030DA0050
:100DB8000030D9000030D80008005C08D8075D086A
:100DC800D93D5E08DA3D5F08DB3D5B1C7F2F6B1C5D
:100DD800F72E6B08E0000130E036890BF02E600832
:100DE8000138EB00F92E0310EB0C5818EB17013003
:100DF800E000DB37DA0CD90CD80CE00BFD2E013003
:100E0800EA077F2F5B08803AE0005F08803A6002BB
:100E1800031D182F5E085A02031D182F5D0859027A
:100E2800031D182F5C08580203184D2FFF30E000EF
:100E3800FF30E100FF30E200FF30E30058085C02B9
:100E4800E40059085D3BE5005A085E3BE6005B0894
:100E58005F3BE7006408E0076508E13D6608E23D9E
:100E68006708E33D6308DB006208DA006108D9001F
:100E78006008D8008030E8066B03FF3AEB006B0887
:100E8800031D552F0130D8070030D93DDA3DDB3D31
:100E9800552F5C08D8025D08D93B5E08DA3B5F082D
:100EA800DB3B5B085A0459045804031D7D2F6B086B
:100EB800031D7D2F0030DB000030DA000030D90040
:100EC8000030D80008000130D835D90DDA0DDB0D17
:100ED800890B682FEB1B58146B1C762F03146B0DB2
:100EE800EB00782F0310EB0D6A0803197D2F0130F2
:100EF800EA02DA1F672FE901EB1F8A2F6B087F3997
:100F080003195818882F8A2F0130E9006908031936
:100F1800B22F0130D8070030D93DDA3DDB3D5B1CEC
:100F2800B22F5808E0005908E1005A08E2005B08AF
:100F3800E3000130E400E337E20CE10CE00CE40BE1
:100F48009F2F6308DB006208DA006108D900600897
:100F5800D8006A0A0319B22F0130EA076A0A031D8A
:100F68006A08031DC22F0030DB000030DA000030B1
:100F7800D9000030D8006A080319E8016A1CC62F96
:100F8800DA17C82F7F30DA056A08E0000130E0364A
:100F9800890BCB2F6008DB00E81F0800DB1708006F
:100FA800710872040319F92F0130F500F21BE42FC0
:100FB8000130F135F20D890BDD2F0130F507DA2FFD
:100FC80072087402031DEA2F71087302031CF02FC4
:100FD8007108F3027208F43B0130F236F10C890B08
:100FE800F12F0130F502031DE42F7408F200730895
:040FF800F1000800FC
:10100000A031642008000F342734643400340134E4
:1010100002344034783496304201C3000030C400BA
:101020002C30C1000130C200B801B901B601B701CE
:10103000C501C6013908803A4101EB0042012F0881
:10104000803A41016B02031D282842012E08380214
:101050000318D028FC1E32289831D6204201B60150
:10106000B7010800FC192E28A331B12388314201B1
:101070002F08803A4101EB0042013908803A4101D2
:101080006B02031D4628420138082E0203185E2811
:1010900042013908803A4101EB0042012D08803AB3
:1010A00041016B02031D572842012C083802031826
:1010B0005E2808309731062788316A2806304101BA
:1010C000EB003030890B6228EB0B62280000A33163
:1010D000B123883142012F08803A4101EB004201DF
:1010E0003908803A41016B02031D79284201380812
:1010F0002E0203188C2842013908803A4101EB0086
:1011000042012D08803A41016B02031D8A284201E9
:101110002C083802031C0800420143084404031948
:10112000A2280130C3020030C43B39084602031D27
:101130009B283808450203181A283908C6003808C1
:10114000C5001A28460843014B06031DAB2842017F
:10115000450843014A060319B828420146084001E0
:10116000BD00420145084001BC00A5317925883108
:10117000420146084301CB00420145084301CA0031
:101180004201C501C6013230C3000030C40041082D
:10119000420403192E280130C1020030C23B1A2834
:1011A00042012D08803A4101EB0042013908803AA2
:1011B00041016B02031DDF28420138082C0203188D
:1011C00008002A28A031A12088317830A3313123AA
:1011D00088314030A331312388310A30A2000030F9
:1011E000A3002D08A5002C08A400A4318424883174
:1011F0002308AD002208AC002D08803AAE008130F3
:101200002E02031D05292C302C02031809292C302D
:10121000162940012D08803AAE0081302E02031DB0
:101220001329A5302C02031C1A29A4304001AC005C
:101230000130AD0040012C08D43EAC00FE302D3D05
:10124000AD002D08AF002C08AE000530AE35AF0D57
:10125000890B26292E08AC002F08AD007830A2009B
:101260000030A3002D08A5002C08A400A43184247C
:1012700088312208B40019303402031C482934088C
:10128000E83EB0000830B1000830B20008305D29F7
:1012900011303402031C5029B0013408F03E4329B8
:1012A00009303402031C5929B001B1013408F83E59
:1012B0004529B001B101B2013408B3003008A031B2
:1012C0008A2088314001B60036080338B6007730EE
:1012D000A7000030A331702388313608A3313123B1
:1012E00088313608A331312388313608A3313123C0
:1012F000883136081F38B6007530A7000030A3319A
:10130000702388313608A331312388313608A33160
:10131000312388317A30A7000030A331702388311F
:101320003608A331312388313608A331312388317F
:101330003108A0318A2088314001B6007530A700FD
:101340000130A33170238831B5013608A331312330
:1013500088310130B50707303502031CA529320852
:10136000A0318A2088314001B6007530A7000230D4
:10137000A33170238831B5013608A3313123883178
:101380000130B50707303502031CBC293308A031F2
:101390008A2088314001B6003608C038B600753062
:1013A000A7000330A33170238831B5013608A3317B
:1013B000312388310130B50707303502031CD629A7
:1013C000A031642008000030AB000030AA000030DB
:1013D000A9000030A8003308AF003208AE00310881
:1013E000AD003008AC009B3188238931031C012AF1
:1013F0000030B3000030B2000030B1000030B00067
:10140000080040304001C1000030C0000030BF0083
:101410000030BE003F30DB008030DA000030D90001
:101420000030D800410133084001DF00410132089B
:101430004001DE00410131084001DD00410130087A
:101440004001DC0086311E2689315B08C5005A0840
:10145000C4005908C3005808C2008B3122238931C7
:1014600041084101C000400140084101BF00400166
:101470003F084101BE0040013E084101BD00B801E6
:1014800040084001DB0041013F084001DA00410112
:101490003E084001D90041013D084001D80041010A
:1014A00040084001C10041013F084001C000410126
:1014B0003E084001BF0041013D084001BE0041011E
:1014C00033084001C500410132084001C400410118
:1014D00031084001C300410130084001C2008B3196
:1014E000222389314108DF004008DE003F08DD008B
:1014F0003E08DC0086311E2689315B084101B700B9
:1015000040015A084101B600400159084101B500A7
:10151000400158084101B40040304001C100003092
:10152000C0000030BF000030BE004101370840015C
:10153000C500410136084001C400410135084001A1
:10154000C300410134084001C2008B31222389319C
:1015500041084101BC00400140084101BB0040017D
:101560003F084101BA0040013E084101B9003C0872
:10157000A3003B08A2003A08A1003908A0004008D7
:10158000A7003F08A6003E08A5003D08A400A23120
:10159000C02289312308AB002208AA002108A90033
:1015A0002008A80038304001A300D130A200B73095
:1015B000A1001730A000410140084001A7004101EF
:1015C0003F084001A60041013E084001A50041013D
:1015D0003D084001A40084312224893123084101BF
:1015E000AF00400122084101AE0040012108410145
:1015F000AD00400120084101AC009B3188238931B6
:1016000003180B2B3C08B3003B08B2003A08B100AA
:101610003908B00008003C08C0003B08BF003A0889
:10162000BE003908BD000130B80714303802031C71
:10163000402A4008B3003F08B2003E08B1003D0810
:10164000B000080045088039CF004535D600C41BDE
:101650005614560803193A2B560A031D372B00302F
:10166000C5000030C4000030C3000030C200C41701
:10167000C501422B0030C5000030C4000030C3005B
:101680000030C20041088039CF064135D700C01B69
:101690005714570803195A2B570A031D572B0030AC
:1016A000C1000030C0000030BF000030BE00C017D5
:1016B000C101622B0030C1000030C0000030BF000B
:1016C0000030BE00410840043F043E04031D7F2B50
:1016D0000030C5000030C4000030C3000030C2003C
:1016E0008030C4047F30C5044F08C5044508C100DC
:1016F0004408C0004308BF004208BE000800560866
:10170000031D8B2B0030C1000030C0000030BF0033
:101710000030BE0008005608C600C7014708C900CF
:1017200057084602C800031CC90348087F3ED00082
:101730000030493DD1004508CE004408CD004308A3
:10174000CC004208CB000030C5000030C40000309F
:10175000C3000030C2000030D5000030D40000309B
:10176000D3000030D200D7011A3057020318EE2BF5
:1017700057080319D22B0130CB35CC0DCD0DCE0D32
:10178000890BBC2B0130C235C30DC40DC50D890BAF
:10179000C32BD51B42140130D235D30DD40DD50D3A
:1017A000890BCC2B41084E02031DE02B40084D0253
:1017B000031DE02B3F084C02031DE02B3E084B02AB
:1017C000031CEB2B55173E08CB023F08CC3B4008CF
:1017D000CD3B4108CE3B0130D707B42B4E084D041A
:1017E0004C044B04031D5214C41B0B2C0130C23596
:1017F000C30DC40DC50D890BF72BD51B4214013049
:10180000D235D30DD40DD50D890B002CFF30D00768
:10181000FF30D13DF42BD701D51F242CFF305205CA
:10182000C600FF305305C700FF305405C8007F30A5
:101830005505C900490848044704460403194218DD
:10184000222C242C0130D700570803194B2C0130CF
:10185000C2070030C33DC43DC53D451C4B2C42086A
:10186000C6004308C7004408C8004508C900013045
:10187000CA00C937C80CC70CC60CCA0B392C49089A
:10188000C5004808C4004708C3004608C20001302C
:10189000D0070030D13D5108803AC6008030460262
:1018A000031D542CFF305002031C632CFF304001F9
:1018B000D0000030D1000030C5000030C40000303E
:1018C000C3000030C20040015108803AC600803099
:1018D0004602031D6D2C0130500203187B2C400181
:1018E000D001D1010030C5000030C4000030C30079
:1018F0000030C200CF0140015008D600561C822C97
:10190000C417842C7F30C4055608C6000130C63683
:10191000890B872C4608C500742B4101AA012A08AF
:10192000A03E860087012A08583E8400A83003188C
:10193000013E8500000881000130AA070A302A0212
:10194000031C8F2C2008A03141208C314001EC0079
:10195000ED01EE01EF016F084201A70040016E08A2
:101960004201A60040016D084201A50040016C083B
:101970004201A4000030F4000030F300EA30F2002D
:101980006030F1002708F8002608F7002508F60067
:101990002408F500A2318E228C3174084201A70080
:1019A0007308A6007208A5007108A400410121086F
:1019B000A03141208C314001EC00ED01EE01EF013E
:1019C0006F084201A30040016E084201A2004001DD
:1019D0006D084201A10040016C084201A0000030E6
:1019E000F4000030F300EA30F2006030F100230828
:1019F000F8002208F7002108F6002008F500A231BF
:101A00008E228C3174084201A3007308A200720870
:101A1000A1007108A00041012208A03141208C31B1
:101A20004001EC00ED016C084201B00040016D087E
:101A30004201B10041012308A03141208C31400115
:101A4000EC00ED016C084201AE0040016D0842015E
:101A5000AF0041012408A03141208C314001EC004D
:101A6000ED016C08F7006D08F8000A30F90000304D
:101A7000FA00A031D6208C3178084201AD007708F9
:101A8000AC0041012508A03141208C314001EC001F
:101A9000ED016C08F7006D08F8000A30F90000301D
:101AA000FA00A031D6208C3178084301B7007708BE
:101AB000B60041012608A03141208C31003A0319BB
:101AC000632D7C14642D7C1041304001C100203016
:101AD000C0000030BF000030BE0041012708A03127
:101AE00041208C314001EC00ED01EE01EF016F0867
:101AF000B3006E08B2006D08B1006C08B000013090
:101B00009A315A228C313308C5003208C40031089A
:101B1000C3003008C2008B3122238C3141084301BD
:101B2000A300400140084301A20040013F084301D7
:101B3000A10040013E084301A0003F304001DB000E
:101B40008030DA000030D9000030D8004230C100C7
:101B5000C830C0000030BF000030BE00410128087E
:101B6000A03141208C314001EC00ED01EE01EF018C
:101B70006F08B3006E08B2006D08B1006C08B000C9
:101B800001309A315A228C313308C5003208C40022
:101B90003108C3003008C2008B3122238C31410848
:101BA000DF004008DE003F08DD003E08DC00863133
:101BB0001E268C315B084301A70040015A084301EF
:101BC000A600400159084301A500400158084301FF
:101BD000A40006304001A2000030A3004101290802
:101BE000A03141208C314001EC00ED016C08F70080
:101BF0006D08F8000A30F9000030FA00A031D62054
:101C00008C317808A5007708A400A4318424230827
:101C10004301B500400122084301B40042013108EC
:101C2000B3003008B200080036089C3ED200FF30F6
:101C3000373DD30003304201DB000830DA00773053
:101C4000890B202EDA0B202EDB0B202E4301D60130
:101C5000D701D801D901D401D5015508803A4201F4
:101C6000DA0043013508803A42015A02031D3B2E37
:101C700043013408540203186E2EA331B1238E3170
:101C800043015708803A4201DA003908803A5A0283
:101C9000031D4D2E38084301560203185F2E4201E2
:101CA00039084301D700420138084301D6004201F8
:101CB00037084301D900420136084301D8000B30F0
:101CC0004201DA006230890B632EDA0B632E0000CA
:101CD00001304301D4070030D53D2D2E4301570874
:101CE000803A4201DA0080305A02031D7A2E013018
:101CF00043015602031C942E4001161E912E4201F0
:101D00002708E2002608E1002508E0002408DF009B
:101D10002308E6002208E5002108E4002008E3008B
:101D2000942E9C3135248E3143014B085706031DF8
:101D30009B2E4A0856060319C22EFC1FA62E2A30D7
:101D40004001AC007A30AD00B030AC2E2A304001FA
:101D5000AC007830AD00B030AE00AF01AF0A00305B
:101D6000953119258E3143015708CB005608CA001A
:101D700057084001BD00430156084001BC00A53191
:101D800079258E3143015908803A4201DA008030CA
:101D90005A02031DCE2E643043015802031C082F43
:101DA0004201350843015906031DDA2E4201340869
:101DB000430158060319082F59084201B500430191
:101DC00058084201B40043015708803A4201DA0042
:101DD0002F08803A5A02031DF02E2E0843015602A6
:101DE0000318FD2E420135084001BD0042013408B0
:101DF0004001BC00A131FE2108004201350840012C
:101E0000BD00420134084001BC00A131FE218E31E9
:101E1000FC1F7E2F03304301D4000030D500063074
:101E20004001AC004C30AD00B030AE000930AF0026
:101E30000230953119258E3115304201DB004B30CF
:101E4000DA00BE30890B222FDA0B222FDB0B222F78
:101E500000004001AC012430AD00B030AE000930CC
:101E6000AF000230953119258E3115304201DB006B
:101E70004B30DA00BE30890B3B2FDA0B3B2FDB0BEC
:101E80003B2F0000FF304301D407FF30D53D5408FD
:101E90005504031D0F2F4001AC012E30AD00B030B2
:101EA000AE000930AF000230953119258E312A304D
:101EB0004001AC007830AD00B030AE00AF01AF0AE9
:101EC0000230953119258E31430159084001BD007A
:101ED000430158084001BC00A131FE218E3115306C
:101EE0004201DB004B30DA00BE30890B752FDA0B74
:101EF000752FDB0B752F0000FC1308007C1C0800FD
:101F000043015708803A4201DA002F08803A5A020A
:101F1000031D8D2F2E0843015602031C08004301A8
:101F20005708803A4201DA002D08803A5A02031D10
:101F30009C2F2C084301560203180800430159083E
:101F4000803A4201DA0080305A02031DAA2F79300C
:101F500043015802031C080043014C085802420187
:101F6000DA0043014D08593B4201DB0043015308AD
:101F7000803A4201DC005B08803A5C02031DC32FFB
:101F80005A0843015202031CFD2F430158084C021A
:101F90004201DA00430159084D3B4201DB00430195
:101FA0005308803A4201DC005B08803A5C02031D62
:101FB000DC2F5A0843015202031CFD2FE730420177
:101FC000DA000330DB004301520842015A02DC0010
:101FD0004301530842015B3BDD005D08803ADE00AF
:101FE00043015908803A42015E02031DFB2F430161
:101FF000580842015C02031808009331C523080009
:1020000000340034003400340034003400345F34D1
:1020100000340034003407340034073400341434FE
:102020007F3414347F34143424342A347F342A34F3
:10203000123423341334083464346234363449346B
:102040005534223450340034053403340034003421
:1020500000341C34223441340034003441342234FE
:102060001C34003408342A341C342A34083408342C
:1020700008343E34083408340034503430340034EA
:102080000034083408340834083408340034303458
:102090003034003400342034103408340434023432
:1020A0003E345134493445343E34003442347F3474
:1020B000403400344234613451344934463421349C
:1020C000413445344B3431341834143412347F34B1
:1020D0001034273445344534453439343C344A349B
:1020E000493449343034013471340934053403340B
:1020F0003634493449344934363406344934493461
:1021000029341E340034363436340034003400347C
:102110005634363400340034003408341434223455
:102120004134143414341434143414344134223407
:102130001434083400340234013451340934063480
:1021400032344934793441343E347E3411341134DC
:1021500011347E347F3449344934493436343E3482
:1021600041344134413422347F34413441342234C7
:102170001C347F3449344934493441347F34093480
:102180000934013401343E34413441345134323461
:102190007F340834083408347F34003441347F34C9
:1021A000413400342034403441343F3401347F34EE
:1021B00008341434223441347F34403440344034C1
:1021C00040347F340234043402347F347F340434A6
:1021D000083410347F343E344134413441343E3489
:1021E0007F3409340934093406343E3441345134DF
:1021F00021345E347F34093419342934463446346A
:102200004934493449343134013401347F340134A0
:1022100001343F344034403440343F341F342034A0
:10222000403420341F347F342034183420347F3439
:102230006334143408341434633403340434783489
:102240000434033461345134493445344334003464
:1022500000347F34413441340234043408341034BF
:102260002034413441347F340034003404340234A7
:102270000134023404344034403440344034403477
:1022800000340134023404340034203454345434DF
:10229000543478347F344834443444343834383413
:1022A000443444344434203438344434443448349A
:1022B0007F343834543454345434183408347E342D
:1022C00009340134023408341434543454343C3462
:1022D0007F340834043404347834003444347D3496
:1022E000403400342034403444343D34003400342D
:1022F0007F34103428344434003441347F34403443
:1023000000347C3404341834043478347C34083495
:102310000434043478343834443444344434383461
:102320007C3414341434143408340834143414341D
:1023300018347C347C34083404340434083448348D
:10234000543454345434203404343F34443440340A
:1023500020343C344034403420347C341C34203429
:10236000403420341C343C344034303440343C3429
:10237000443428341034283444340C345034503429
:1023800050343C344434643454344C344434003495
:102390000834363441340034003400347F3400349F
:1023A00000340034413436340834003408340834FE
:1023B0002A341C34083408341C342A3408340834D1
:1023C00000340034003400340034003400345F340E
:1023D000003400340034073400340734003414343B
:1023E0007F3414347F34143424342A347F342A3430
:1023F00012342334133408346434623436344934A8
:10240000553422345034003405340334003400345D
:1024100000341C342234413400340034413422343A
:102420001C34003408342A341C342A340834083468
:1024300008343E3408340834003450343034003426
:102440000034083408340834083408340034303494
:10245000303400340034203410340834043402346E
:102460003E345134493445343E34003442347F34B0
:1024700040340034423461345134493446342134D8
:10248000413445344B3431341834143412347F34ED
:102490001034273445344534453439343C344A34D7
:1024A0004934493430340134713409340534033447
:1024B000363449344934493436340634493449349D
:1024C00029341E34003436343634003400340034B9
:1024D0005634363400340034003408341434223492
:1024E0004134143414341434143414344134223444
:1024F00014340834003402340134513409340634BD
:1025000032344934793441343E347E341134113418
:1025100011347E347F3449344934493436343E34BE
:1025200041344134413422347F3441344134223403
:102530001C347F3449344934493441347F340934BC
:102540000934013401343E3441344134513432349D
:102550007F340834083408347F34003441347F3405
:10256000413400342034403441343F3401347F342A
:1025700008341434223441347F34403440344034FD
:1025800040347F340234043402347F347F340434E2
:10259000083410347F343E344134413441343E34C5
:1025A0007F3409340934093406343E34413451341B
:1025B00021345E347F3409341934293446344634A6
:1025C0004934493449343134013401347F340134DD
:1025D00001343F344034403440343F341F342034DD
:1025E000403420341F347F342034183420347F3476
:1025F00063341434083414346334033404347834C6
:1026000004340334613451344934453443340034A0
:1026100000347F34413441340234043408341034FB
:102620002034413441347F340034003404340234E3
:1026300001340234043440344034403440344034B3
:10264000003401340234043400342034543454341B
:10265000543478347F34483444344434383438344F
:1026600044344434443420343834443444344834D6
:102670007F343834543454345434183408347E3469
:1026800009340134023408341434543454343C349E
:102690007F340834043404347834003444347D34D2
:1026A000403400342034403444343D340034003469
:1026B0007F34103428344434003441347F3440347F
:1026C00000347C3404341834043478347C340834D2
:1026D000043404347834383444344434443438349E
:1026E0007C3414341434143408340834143414345A
:1026F00018347C347C3408340434043408344834CA
:10270000543454345434203404343F344434403446
:1027100020343C344034403420347C341C34203465
:10272000403420341C343C344034303440343C3465
:10273000443428341034283444340C345034503465
:1027400050343C344434643454344C3444340034D1
:102750000834363441340034003400347F340034DB
:10276000003400344134363408340034083408343A
:102770002A341C34083408341C342A34083408340D
:102782001030A131D821080040019711AC01383036
:10279200AD00B030AE000930AF00023095311925DE
:1027A20093314001191198315E209331420137086B
:1027B200B5003608B40037084301CD00420136089F
:1027C2004301CC004001AC016630AD00B030AE0038
:1027D2000430AF0002309531192593312A3040017F
:1027E200AC007830AD00B030AE00AF01AF0A0230BD
:1027F200953119259331420135084001BD0042014E
:1028020034084001BC00A131FE2140011915971581
:102812007C12FC104201C0012B084301B3004201AB
:102822002A084301B200420129084301B1004201D2
:1028320028084301B00042012B084301AF004201C6
:102842002A084301AE00420129084301AD004201BA
:1028520028084301AC000800F7007718332C400128
:102862009917352C400199137708F6000130F63696
:10287200890B382C7618402C40011917422C400144
:1028820019137708F6000230F636890B452C7618B4
:102892004D2C400199164F2C400199127708F600F1
:1028A2000330F636890B522C76185A2C4001191631
:1028B2005C2C400119127708F6000430F636890BB9
:1028C2005F2C7618672C40019817692C40019813E9
:1028D2007708F6000530F636890B6C2C7618742CC6
:1028E20040011817762C400118137708F6000630BD
:1028F200F636890B792C7618812C40019816832C98
:10290200400198127418882C400196168A2C4001B6
:1029120096127408F6000130F636890B8D2C761863
:10292200952C40019A14972C40019A107408F600D5
:102932000230F636890B9A2C7618A22C4001961793
:10294200A42C400196137408F6000330F636890B66
:10295200A72C7618AF2C40011617B12C4001161384
:102962007408F6000430F636890BB42C7618BC2CA9
:1029720040011814BE2C400118107408F6000530EE
:10298200F636890BC12C7618C92C40019814CB2C31
:10299200400198107408F6000630F636890BCE2CEA
:1029A2007618D62C40011815D82C40011811750C38
:1029B200031C1A1003181A14991542013308F20065
:1029C2003208F100A03152209431400199111A309D
:1029D200890BE92C00324001181242013308F2003F
:1029E2003208F100A0315220943140011816420100
:1029F2003308F2003208F100A03152209431400134
:102A020099131913991219129813181398129612EE
:102A12009A10961316131810981018111A101530D0
:102A2200F600C630890B132DF60B132D0032080069
:102A3200B700A031A12095317830A33131239531EF
:102A42004030A331312395312C08A7003708A33138
:102A520070239531BA012F083A020318972D3A08CC
:102A62002D0784002E080318013E85001200031D65
:102A72003C2DB601462D3A082D0784002E08031876
:102A8200013E85000008E03EB600BB013608B000FA
:102A9200B1013008F7003108F8000530F9000030C4
:102AA200FA00A031D62095310030B2009030B30048
:102AB20077083207B4007808333DB5003B08340785
:102AC200840035080318013E85000008B800023072
:102AD20037060319722D38080F39A031F4209531C9
:102AE2007D2D38080739A031F4209531B00002302D
:102AF200B035890B792D3008B9003908A33131235B
:102B020095313908A331312395310130BB070530A6
:102B12003B02031C472D0030A33131239531003095
:102B2200A331312395310130BA072C2D2C08A7008F
:102B32003708013EA33170239531BA012F083A02BA
:102B420003180C2E3A082D0784002E080318013EA4
:102B520085001200031DAF2DB601B92D3A082D07CD
:102B620084002E080318013E85000008E03EB600EE
:102B7200BB013608B000B1013008F7003108F80097
:102B82000530F9000030FA00A031D620953100302E
:102B9200B2009030B30077083207B4007808333DB2
:102BA200B5003B083407840035080318013E850050
:102BB2000008B800023037060319E72D3808B000C4
:102BC2000430B036890BE22D3008EF2D3808B00002
:102BD2000330B036890BEA2D30080F39A031F420CA
:102BE2009531B9003908A331312395313908A33120
:102BF200312395310130BB0705303B02031CBA2D4E
:102C02000030A331312395310030A3313123953186
:102C12000130BA079F2DA031642008001030420114
:102C2200D0002730D1001030D2002730D300A63197
:102C3200A6269631A7311827963188310B20963176
:102C420042013708803AC70080304702031D2B2E0D
:102C520079303602031C080042013708CF003608DB
:102C6200CE003E08C8003D08C90003303D020318EB
:102C7200662E03303E020318662EBD01BE013D08DA
:102C8200F4003C08F5003E0894312D249631A7311A
:102C920018279631A631A626963188310B20963117
:102CA20042013708803AC70080304702031D5B2E7D
:102CB20079303602031C080042013708D100360879
:102CC200D0003E08CA003D08CB0003303D02031885
:102CD200932E03303E020318932EBD01BE013D0820
:102CE200F4003C08F5003E0894312D249631A731BA
:102CF2008A27963188310B20963142013708803A73
:102D0200C70080304702031D882E79303602031C2B
:102D1200080042013708D3003608D2003E08CC0032
:102D22003D08CD005108803AC7004F08803A47025B
:102D3200031D9D2E4E085002031CB12E4201530862
:102D4200803AC7004F08803A4702031DAA2E4E0858
:102D52005202031CB12E42014908BD004808EE2E62
:102D620042014F08803AC7005108803A4702031DCA
:102D7200BC2E50084E02031CD02E42015308803A4A
:102D8200C7005108803A4702031DC92E500852025B
:102D9200031CD02E42014B08BD004A08EE2E420110
:102DA2004F08803AC7005308803A4702031DDB2EC2
:102DB20052084E02031CEF2E42015108803AC7000E
:102DC2005308803A4702031DE82E52085002031CA2
:102DD200EF2E42014D08BD004C08BE0010304201EA
:102DE2005006273003195106031DFE2E10305206DD
:102DF200273003195306031908003D08F4003C0864
:102E0200F5003E0894312D2408004101EA0000300B
:102E1200E4000030E3000030E2000030E100003066
:102E2200E8000030E7000030E6000030E500E9018C
:102E32006A08690203184E2F9931502197312408EC
:102E42004101D500400125084101D6000030D61BC2
:102E5200FF30D700D8005508E1075608E23D570871
:102E6200E33D5808E43D9931D521973124084101C9
:102E7200D500400125084101D6000030D61BFF30A5
:102E8200D700D8005508E5075608E63D5708E73D44
:102E92005808E83D0130E907192F6A08D500D60124
:102EA200D701D80158084001B30041015708400139
:102EB200B200410156084001B100410155084001EC
:102EC200B00001309A315A2297313308C1003208DA
:102ED200C0003108BF003008BE0041016408400153
:102EE200B300410163084001B200410162084001A0
:102EF200B100410161084001B00000309A315A220C
:102F020097313308C5003208C4003108C3003008C5
:102F1200C2008B312223973141084101DC0040017C
:102F220040084101DB0040013F084101DA00400155
:102F32003E084101D9006A08D500D601D701D8015F
:102F420058084001B300410157084001B200410155
:102F520056084001B100410155084001B00001305E
:102F62009A315A2297313308C1003208C000310821
:102F7200BF003008BE00410168084001B3004101B2
:102F820067084001B200410166084001B1004101F9
:102F920065084001B00000309A315A229731330857
:102FA200C5003208C4003108C3003008C2008B31AA
:102FB2002223973141084101E000400140084101CC
:102FC200DF0040013F084101DE0040013E084101AF
:102FD200DD005C08C4005B08C3005A08C20059083F
:102FE200C1006008C8005F08C7005E08C6005D082F
:102FF200C5008031F3209731A131B32108008B1332
:1030020040019E134E018C1216167E01CA12C91679
:103012004001161217169715C2014208031D2028F7
:1030220005304001C1000F30C000F130890B172874
:10303200C00B1728C10B17287E01CA1263000000BB
:1030420005304001C1000F30C000F130890B272844
:10305200C00B2728C10B272840018D1A33280130C5
:10306200C2073428C20110304202031C0E284E014E
:1030720016127E01C912CA1240019E178B177C17C5
:103082009C313524983140018D1A4928000044288A
:103092004201C001FC127C12FC112B084301AB005F
:1030A20042012A084301AA00420129084301A9005A
:1030B200420128084301A800080088310B209831FA
:1030C20042013708803AD50080305502031D6B2833
:1030D20079303602031C0800A2312D229831883142
:1030E2000B20983142013708803AD50080305502D2
:1030F200031D7D2879303602031C0800420137087F
:10310200D7003608D6003D08D8003E08D9003C0357
:10311200031D8D28BC018F280130BC00A2312D2255
:10312200983188310B20983142015708803AD500F6
:103132003708803A5502031DA028360856020318A4
:10314200B92842013C03031DA828BC01AA2801306A
:10315200BC005808BD005908BE003D08F4003C08F8
:10316200F5003E0894312D24983188310B20983196
:1031720042013708803AD50080305502031DC3282A
:1031820079303602031C0800A03130209831883192
:103192000B209831E7304201360603300319370617
:1031A200031D0800A0310320080040019711A0313F
:1031B200032098314001AC014230AD00B030AE0086
:1031C2000930AF000230953119259831193040018C
:1031D200BD005A30BC00B130890BED28BC0BED2884
:1031E200BD0BED2800324001AC016030AD00B030C3
:1031F200AE000530AF0002309531192598312A30E2
:103202004001AC007830AD00B030AE00AF01AF0A83
:1032120002309531192598313C304001AC006B30B9
:10322200AD00B030AE000430AF0002309531192548
:1032320098314301CC01CD010D304001BD002D304C
:10324200BC00D730890B2329BC0B2329BD0B2329B2
:10325200003240019715FC127C114201C0012B087B
:103262004301B30042012A084301B2004201290886
:103272004301B100420128084301B00042012B087A
:103282004301AF0042012A084301AE00420129086E
:103292004301AD00420128084301AC000800203080
:1032A200A131D8219931A0300032890B552908303B
:1032B200A0311F20993172084001AB007108AA00A9
:1032C2002A0A033003192B06031D78294030A13145
:1032D200D8219931A0300032890B6C290830A031F5
:1032E2001F20993171354001AA00720DAB00FE30EA
:1032F2002A06073003192B06031DD0291030A131ED
:10330200D8219931A0300032890B84290830A031AC
:103312001F20993172084001AB007108AA002A0AE5
:10332200033003192B060319FC17A031BA20993177
:1033320040012A08F1002B08F200F301F4014201D6
:103342003A08F5003B08F600890D893B8909F70028
:10335200F800A2318E2299317408AF007308AE00D2
:103362007208AD007108AC002C08A6002D08A70059
:103372002E08A8002F08A9000A30A936A80CA70C0D
:10338200A60C890BBE292908AF002808AE00270821
:10339200AD002608AC002D08AB002C08AA002B08B3
:1033A200A5002A08A40008002030A131D8219931B3
:1033B200A0300032890BDA290A30A0311F2099315E
:1033C20072084001AB007108AA002A0A03300319EF
:1033D2002B06031DFD294030A131D8219931A0309F
:1033E2000032890BF1290A30A0311F209931713541
:1033F2004001AA00720DAB00FE302A060730031905
:103402002B06031D552A1030A131D8219931A03045
:103412000032890B092A0A30A0311F209931720823
:103422004001AB007108AA002A0A033003192B06D7
:103432000319FC17A031BA20993140012A08F10082
:103442002B08F200F301F40142013A08F5003B08AF
:10345200F600890D893B8909F700F800A2318E2216
:1034620099317408AF007308AE007208AD0071089C
:10347200AC002C08A6002D08A7002E08A8002F08D3
:10348200A9000A30A936A80CA70CA60C890B432A5E
:103492002908AF002808AE002708AD002608AC00B6
:1034A2002D08AB002C08AA002B08A5002A08A400AE
:1034B2000800B8003808031DB31F6F2A3009BA008C
:1034C2003109BB003209BC003309BD00BA0A031935
:1034D200BB0A0319BC0A0319BD0A772A3308BD00C7
:1034E2003208BC003108BB003008BA00330832048D
:1034F20031043004031D862A0030B3000030B200CC
:103502000030B1000030B00008009630B900FE3043
:103512003D050319A52A0130B9070130BD36BC0C9F
:10352200BB0CBA0C890B8F2A882A0130B9070130EB
:10353200BA070030BB3DBC3DBD3D0130BD36BC0CC1
:10354200BB0CBA0C890B9F2AFF303D050319B72A21
:10355200962A02303902031CB92A0130B90201301D
:10356200BA35BB0DBC0DBD0D890BB12ABC1FAA2AF1
:103572003918C32AFF30BA05FF30BB057F30BC05BE
:10358200FF30BD050310B90C3908B400B501B6010E
:10359200B7011830B435B50DB60DB70D890BCB2A6E
:1035A2003408BA043508BB043608BC043708BD0425
:1035B2003808031DB31FDE2ABD173D08B3003C08BF
:1035C200B2003B08B1003A08B00008004001B00167
:1035D200A031A1209A317830A33131239A31003AB7
:1035E20003190A2BA03164209A310D304001AF003B
:1035F2002D30AE00D730890BFC2AAE0BFC2AAF0B64
:10360200FC2A003201304001B0070A303002031CAC
:10361200E92A0030A33131239A31AE30A33131236C
:103622009A31D530A33131239A318030A3313123FD
:103632009A31A830A33131239A313F30A33131235B
:103642009A31D330A33131239A314030A33131231F
:103652009A314030A33131239A318D30A331312355
:103662009A311430A33131239A318130A33131237D
:103672009A31FF30A33131239A31D930A33131232A
:103682009A31F130A33131239A312030A3313123E1
:103692009A310230A33131239A312130A3313123BF
:1036A2009A310030A33131239A317F30A331312353
:1036B2009A312E30A33131239A31A030A3313123F4
:1036C2009A31C030A33131239A31DA30A331312318
:1036D2009A310230A33131239A31DB30A3313123C5
:1036E2009A314030A33131239A31A430A3313123AE
:1036F2009A31A630A33131239A31A03164209A3114
:10370200A1318E219A31AF30A031772008000030EC
:1037120028054001EC000030410129054001ED007F
:10372200803041012A054001EE007F3041012B0526
:103732004001EF006F086E046D046C04031DAA2B98
:1037420000304101AB000030AA000030A900003077
:10375200A800003041012C054001EC00003041017D
:103762002D054001ED00803041012E054001EE00A3
:103772007F3041012F054001EF006F086E046D0498
:103782006C04031DCD2B00304101AF000030AE00B0
:103792000030AD000030AC004101AB1FF82B00300F
:1037A2004001EC000030ED000030EE008030EF0010
:1037B200410128084001EC02410129084001ED3B8A
:1037C20041012A084001EE3B41012B084001EF3B39
:1037D2006F084101AB0040016E084101AA0040019F
:1037E2006D084101A90040016C084101A800AF1F0A
:1037F200222C00304001EC000030ED000030EE00E1
:103802008030EF0041012C084001EC0241012D08FB
:103812004001ED3B41012E084001EE3B41012F08E2
:103822004001EF3B6F084101AF0040016E084101CA
:10383200AE0040016D084101AD0040016C0841013C
:10384200AC008030AB068030AF062F082B02031D80
:1038520008002E082A02031D08002D082902031D54
:1038620008002C0828020800161609304001BF0083
:103872001E30BE00E430890B3C2CBE0B3C2CBF0B2F
:103882003C2C0000883100209C3168304001BE0091
:10389200E430890B4A2CBE0B4A2C00009A31E722F5
:1038A2009C317C1F5B2CA231F3229C317C13A13111
:1038B2008E219C314001AC015630AD00B030AE00DB
:1038C2000930AF000030953119259C31A331F52321
:1038D2009C314001AC012E30AD00B030AE00093059
:1038E200AF000230953119259C312A304001AC00DD
:1038F2007830AD00B030AE00AF01AF0A0030953184
:1039020019259C312A304001AC007830AD00B0302E
:10391200AE00AF01AF0A0230953119259C310F304C
:103922004301B8002730B9006430CC000030CD002C
:103932000F30CA002730CB004201B401B50135086F
:103942004001BD00420134084001BC00A131FE210A
:103952009C310130420128074301B000003042018E
:10396200293D4301B100003042012A3D4301B2002A
:10397200003042012B3D4301B30042012B084301B9
:10398200AF0042012A084301AE0042012908430167
:10399200AD00420128084301AC00FC127C12FC116C
:1039A2007C11FC1042012708E2002608E1002508EC
:1039B200E0002408DF002308E6002208E5002108D1
:1039C200E4002008E3000800A031BA209C31430142
:1039D200390842013B06031DF22C4301380842011B
:1039E2003A060319212D3B084301B90042013A0866
:1039F2004301B80042013B084001AD0042013A08D0
:103A02004001AC008831E2209C3142013B08803AFF
:103A12004001C3008E304302031D122DD9304201F2
:103A22003A0203181C2D42013008013EB200003058
:103A3200313DB300212D42013108B3003008B200FC
:103A42003B08803A4001C3008E304302031D2C2DF7
:103A5200753042013A02031C3E2D400197111716A0
:103A620002304001C4003830C300AD30890B372D1D
:103A7200C30B372DC40B372D5B2D42013B08803A17
:103A82004001C3008E304302031D4A2D073042011C
:103A92003A02031C5F2D40019711171202304001B8
:103AA200C4003830C300AD30890B552DC30B552DE2
:103AB200C40B552D400197151716712D4001171291
:103AC200971502304001C4003830C300AD30890B75
:103AD200682DC30B682DC40B682D4001171697156E
:103AE20042013B08803A4001C3008D304302031D6E
:103AF2007D2D483042013A0203180800A1318E217F
:103B02009C314001AC011830AD00B030AE000B303A
:103B1200AF000130953119259C3152304001C4006B
:103B22002B30C3000030890B942DC30B942DC40B92
:103B3200942D000040011612983100200800A43193
:103B4200D1249D318C318D249D31400117161915D8
:103B52007C179C3135249D319331C1239D31FC1357
:103B620042012708E2002608E1002508E0002408B7
:103B7200DF002308E6002208E5002108E40020080F
:103B8200E3004301330842012B02031DD82D4301F8
:103B9200320842012A02031DD82D43013108420195
:103BA2002902031DD82D4301300842012802031CBB
:103BB200E62DB8304301B0070B30B13D0030B23DC5
:103BC2000030B33D9C31E5249D3143012F08420171
:103BD2002B02031DFC2D43012E0842012A02031D64
:103BE200FC2D43012D0842012902031DFC2D430136
:103BF2002C0842012802031C0A2E2C304301AC0778
:103C02000130AD3D0030AE3D0030AF3D8E31142667
:103C12009D31420127082604250424040319192E84
:103C22006208610460045F04031D192E400116122C
:103C3200420123082204210420040319292E6608C4
:103C4200650464046304031D292E983100209D310C
:103C5200FC1E352E4001161E322E9831D6209D3183
:103C6200352E9C3135249D317C1E412E4001161E7D
:103C72003E2E9331C5239D31412E9C3135249D31F9
:103C8200FC1D4D2E4001161E4A2EA13112219D31DE
:103C92004D2E9C3135249D317C1D582E4001161A23
:103CA200552E9C3135249D319831D6209D31FC1CF6
:103CB200C22D4001161A642EA1316F219D319C3113
:103CC20035249D31C22D9331C5239D31C22D420130
:103CD2003D08C7000A30F1003D08A13150219E3154
:103CE200CA004A08031D772E0130CA0088310B2012
:103CF2009E3142013708C9003608C8004A08BD078C
:103D02003D08F4003C08F5003E0894312D249E3114
:103D120088310B209E3142014908803A4101EC0072
:103D220042013708803A41016C02031D9B2E420179
:103D320036084802031CEE2E42013708C900360835
:103D4200C8003D08C7004A08BD0700304101ED0028
:103D520042014A087F3C4101EC00031CED036D085F
:103D6200803AEE0080306E02031DBB2E42013D08F8
:103D720041016C02031C292F42013D08F4003C085A
:103D8200F5003E0894312D249E3188310B209E315E
:103D920042014908803A4101EC0042013708803A69
:103DA20041016C02031DD82E420136084802031C51
:103DB200292F42013D08C7003708C9003608C8004C
:103DC2000A30F1003D08A13150219E31CA004A0853
:103DD200031DA42E0130CA00A42E42013708C900D7
:103DE2003608C800072F42013D08C7003708C9003E
:103DF2003608C8000A30F1003D08A13150219E3139
:103E0200CA004A08031D072F0130CA004A08BD0232
:103E12004A083D02031C292F3D08F4003C08F50026
:103E22003E0894312D249E3188310B209E3142016F
:103E32004908803A4101EC0042013708803A4101C9
:103E42006C02031D272F4201360848020318F42E84
:103E520042014708BD003D08F4003C08F5003E0859
:103E620094312D24080042013E08C7000A30F100B7
:103E72003E08A13150219F31CA004A08031D432F39
:103E82000130CA0088310B209F3142013708C90036
:103E92003608C8004A08BE073D08F4003C08F50091
:103EA2003E0894312D249F3188310B209F314201ED
:103EB2004908803A4101EC0042013708803A410149
:103EC2006C02031D672F420136084802031CBA2FF9
:103ED20042013708C9003608C8003E08C7004A0830
:103EE200BE0700304101ED0042014A087F3C41011A
:103EF200EC00031CED036D08803AEE0080306E0288
:103F0200031D872F42013E0841016C02031CF52F5D
:103F120042013D08F4003C08F5003E0894312D248E
:103F22009F3188310B209F3142014908803A41017B
:103F3200EC0042013708803A41016C02031DA42FB4
:103F4200420136084802031CF52F42013E08C70011
:103F52003708C9003608C8000A30F1003E08A1310E
:103F620050219F31CA004A08031D702F0130CA0038
:103F7200702F42013708C9003608C800D32F42010A
:103F82003E08C7003708C9003608C8000A30F100E9
:103F92003E08A13150219F31CA004A08031DD32F88
:103FA2000130CA004A08BE024A083E02031CF52F2D
:103FB2003D08F4003C08F5003E0894312D249F3161
:103FC20088310B209F3142014908803A4101EC00BF
:103FD20042013708803A41016C02031DF32F42016E
:103FE200360848020318C02F42014708BE003D08A8
:0E3FF200F4003C08F5003E0894312D24080030
:104006004201BE010130BD00BC013D08F4003C0880
:10401600F5003E0894312D240800F300F201731CCC
:1040260016287108F2070310F10D0310F30C73083C
:10403600031D122872080800F300730841019E0050
:104046003530890B24280000410113141318292840
:104056000D08F2000C08F100080042013E083D027E
:10406600031C3B289E316826A0319F313427080067
:104076009F313427A0319E3168260800F6000F30A4
:104086007605F4000A30F1007608F5000430F536BE
:10409600890B4A287508A0311020740708000130E2
:1040A600F1020030F23B710A0319720A0319080083
:1040B6000B30F3006230890B5E28F30B5E2800326A
:1040C6005228400116114230890B67280032400100
:1040D60096154230890B6D28003240011615423084
:1040E600890B732800320800FB00A031A120A03103
:1040F6007830A3313123A0318030A3313123A03170
:104106007B08A3313123A031A03164200800F400DC
:104116007408031D902800300800FF307407F10072
:10412600F10A8030F2000030F3009C28730DF30C86
:10413600F20CF10B99287208003C08004001961514
:104146004230890BA4280032400116154230890BF3
:10415600AA280032400116114230890BB0280032DD
:10416600400196114230890BB628003208002030F3
:10417600A131D821A031A0300032890BBF280930E7
:10418600A0311F20A0317208F8007108F7000B302B
:10419600F9000030FA00A031D62078084201BB00B1
:1041A6007708BA0008004001A001A101771CE028A9
:1041B60079084001A0077A08A13D0130F935FA0DCA
:1041C600890BE1280130F836F70C890BE6287708C9
:1041D6007804031DD92840012108F8002008F700BB
:1041E6000800F200F301F4017208F100740AFC28D9
:1041F600F136890BFB28711C0A290330F10074354E
:10420600890A0629F135890B05297108F30401305D
:10421600F40704307402031CF72873080800A13160
:104226008E21A1314001AC010C30AD00B030AE00A2
:104236000B30AF00013095311925A13152304001C4
:10424600C4002B30C3000030890B2729C30B272954
:10425600C40B27290000983100200800F900F50159
:10426600F6017108F300F4017308F7007408F8000A
:10427600791C41297708F5077808F63D0130F735AE
:10428600F80D890B42290310F90C7908031D3B2907
:104296007608F2007508F1000800F200F4017108D2
:1042A60003196D290130F300F11B5E290310F10D8E
:1042B6000130F30757290310F40D71087202031C2D
:1042C60068297108F20274140310F10C0130F3022C
:1042D600031D5E29740808009711161619118831F6
:1042E6000B20A13142013708803ADA0080305A02A9
:1042F600031D7F2964303602031C832998315E2012
:104306004001191542013708B5003608B4004001CE
:104316009715FC100800A031A120A1317830A331F7
:104326003123A1314030A3313123A131AD01A701A1
:104336002D08A3317023A131AC010130AC07003048
:10434600A3313123A13180302C02031CA029013076
:10435600AD0708302D02031C9A29A03164200800FD
:104366003908803A4001C00080304002031DBE2952
:10437600013042013802031C08004001161ED529EF
:1043860042012708E2002608E1002508E00024088B
:10439600DF002308E6002208E5002108E4002008E3
:1043A600E30008009C3135240800F3004101931313
:1043B600730860390319F429731BE3290130E429D2
:1043C6000230F1000030F20052010C087106FC398F
:1043D60071068C008C170C1FEE29033041019A00E0
:1043E600F5299A019401950196019D019C011430CD
:1043F6009300931708003C083D04031D0E2A3C3029
:10440600AC006B30AD00B030AE000430AF0002300F
:104416009531192508003D08F9003C08F800BA3026
:10442600FA00A531D425A13143013D08C2002E3042
:10443600C3003E08C4003F08C5003C304001AC0044
:10444600C230AD000130AE000430AF00023095310D
:10445600192508004201BD01BE013D08F4003C08D3
:10446600F5003E0894312D24A23188310B20A2316B
:1044760042013708803AD40080305402031D452A91
:1044860079303602031C080096310F26A231883196
:104496000B20A23142013708803AD4008030540202
:1044A600031D572A79303602031C0800A03130203C
:1044B6000800F601F701710872040319892A013010
:1044C600F500F21B6E2A0130F135F20D890B672AD1
:1044D6000130F507642A0130F635F70D890B6F2A8E
:1044E60072087402031D792A71087302031C802A5C
:1044F6007108F3027208F43B76140130F236F10CBF
:10450600890B812A0130F502031D6E2A7708F20015
:104516007608F100080000304001A3000030A20038
:104526000030A1000030A000711CA22A75084001CD
:10453600A0077608A13D7708A23D7808A33D013083
:10454600F535F60DF70DF80D890BA32A0130F43673
:10455600F30CF20CF10C890BAA2A7408730472048A
:104566007104031D972A40012308F4002208F30072
:104576002108F2002008F10008008030A306270871
:104586004001DB00410126084001DA00410125080F
:104596004001D900410124084001D8004101230807
:1045A6004001DF00410122084001DE0041012108EF
:1045B6004001DD00410120084001DC0086311E2655
:1045C6005B084101A30040015A084101A2004001D5
:1045D60059084101A100400158084101A000080006
:1045E60040019711A1318E21A2314001AC01623008
:1045F600AD00A830AE001230AF000130A4313A242D
:10460600A2314001AC01A130AD00A830AE000C30A3
:10461600AF000330A4313A24A23154304001AC003B
:104626007430AD00B030AE000330AF000330A431BB
:104636003A24A2317A304001BB00C130BA00813041
:10464600890B232BBA0B232BBB0B232B00324001E8
:104656008D1A2F2B00002A2B971508004001A50064
:10466600A6012508A2000730A236890B372B22089F
:104676000139A300A30DA30D16082306FB39230653
:1046860096004230890B452B003240019615423088
:10469600890B4B2B0032400196112535A5000130C0
:1046A600A60708302602031C342B16154230890B48
:1046B6005A2B0032400196150C0C890C0139A400C6
:1046C6004230890B642B0032400196114230890B2F
:1046D6006A2B0032400124080800A8002708023E81
:1046E600AB00A031A120A3317830A3313123A3310F
:1046F6000030A3313123A3312808B03EA331312342
:10470600A33110302B0203188C2B2B08A900AA0109
:104716009D2B2B08FB000430FB36890B8F2B7B0867
:10472600AA00F030F1002A08A0311020A331400180
:104736002B07A9002908A3313123A3312A08103EEB
:10474600A3313123A331A031A120A3317830A33185
:104756003123A3314030A331312308009931502150
:10476600A3312408B0002508B100890D893B8909C9
:10477600B200B30001309A315A22A3313308410105
:10478600C400400132084101C30040013108410123
:10479600C200400130084101C1009931D521A33141
:1047A6002408B0002508B100890D893B8909B200AB
:1047B600B30001309A315A22A33133084101C800AF
:1047C600400132084101C700400131084101C600DD
:1047D600400130084101C5008031F320A331A131E9
:1047E600B3210800A031A120A3317830A3313123B1
:1047F600A3314030A3313123A331B3017330A70075
:104806003308A3317023A331B2013308AC00AD01E4
:104816002C08F7002D08F8000B30F9000030FA00DC
:10482600A031D620A3310030AE00A830AF00770803
:104836002E07B00078082F3DB100320830078400FB
:1048460031080318013E85000008A3313123A33146
:104856000130B2070B303202031C082C0130B307BB
:1048660004303302031C012CA03164200800B6007A
:104876002C08A7003608A3317023A431B8012F08ED
:1048860038020318812C38082D0784002E080318D7
:10489600013E85000008E03EB700B9013708B000C8
:1048A600B1013008F7003108F8000530F900003092
:1048B600FA00A031D620A4310030B2009030B30007
:1048C60077083207B4007808333DB5003908340755
:1048D600840035080318013E85000008A331312302
:1048E600A4310130B90705303902031C512C0030C0
:1048F600A3313123A4310130B807422CA031642002
:104906000800A701A31F8E2CA209A309A20A031956
:10491600A30A0130A700A51F972CA409A509A40A7C
:104926000319A50A0130A706A801A9012208230434
:104936000319C42C0130A600A31BA92C0130A235F3
:10494600A30D890BA22C0130A6079F2C0130A83598
:10495600A90D890BAA2C23082502031DB42C2208B5
:104966002402031CBB2C2208A4022308A53B2814FE
:104976000130A336A20C890BBC2C0130A602031D04
:10498600A92C27080319CC2CA809A909A80A0319D8
:10499600A90A2908A3002808A20008007E01B80178
:1049A600C3014314C3144315CE01E401D9015301D5
:1049B6009013941340018C018D018E018F0190019B
:1049C6009601970110309800063099009A019101DE
:1049D600273092009301940195017E013A15BA158C
:1049E600DB145B1540019F121F179F131E16C03064
:1049F6009C00E0309D004E018C1240019E174E0136
:104A060096161E304F019600FE30970047309800EC
:104A16007F30990077309A00DF309B008B17053086
:104A2600F2000F30F100F130890B172DF10B172D25
:104A3600F20B172D00000800003028054001EC009D
:104A46000030410129054001ED00803041012A0571
:104A56004001EE007F3041012B054001EF006F0859
:104A66006E046D046C04031D412D00304101AB0042
:104A76000030AA000030A9000030A8000030410133
:104A86002C054001EC00003041012D054001ED00F0
:104A9600803041012E054001EE007F3041012F0597
:104AA6004001EF006F086E046D046C04031D642D55
:104AB60000304101AF000030AE000030AD000030E4
:104AC600AC0041012F082B06031D732D2E082A0664
:104AD600031D732D2D082906031D732D2C0828068A
:104AE6000319772D03100800031408003C083D0441
:104AF600031D892D3C30AC007030AD00B030AE00E7
:104B06000330AF00003095311925080000303D0212
:104B16000A3003193C020318A02D3D08F9003C0891
:104B2600F800BA30FA00A531D425A531303043015A
:104B3600C2002E30C3003F08C62D00303D0264304F
:104B460003193C020318B32D3D08F9003C08F80090
:104B5600BA30FA00A531D425A53143013E089B2D74
:104B66000530BC070030BD3D3D08F9003C08F800A3
:104B7600BA30FA00A531D425A53120304301C20050
:104B86003D08C3003E08C4003C304001AC00C230C2
:104B9600AD000130AE000330AF000030953119256D
:104BA6000800F91FD82D0130D92D0030A2002208A7
:104BB600031DE22D7908A4007808A300ED2D7809DD
:104BC600A0007909A100A00A0319A10A2008A300E0
:104BD6002108A400A5017A08250786000130870070
:104BE600203081000130A50706302502031CEE2D7A
:104BF6007A08063E86000130870081010530A5004F
:104C06007A0825078600013087000A30F100003057
:104C1600F2002408F4002308F3008731D427A531D5
:104C26007108303E81000130A5020A30F1000030E3
:104C3600F2002408F4002308F300A2315C22A53117
:104C46007208A4007108A30023082404031D032E80
:104C56002208031908007A08250786000130870014
:104C66002D308100080003106E0D6F0D4101A50067
:104C76002508031D482E00304001EF000030EE00ED
:104C86000030ED000030EC00080040016C084101E6
:104C9600A00040016D084101A10040016E084101DC
:104CA600A20040016F084101A3001F30A336A20CE9
:104CB600A10CA00C890B592E2008A4004001EE1768
:104CC600FF30EC05FF30ED05FF30EE050030EF0557
:104CD60096304101A502A51F832E2508803A973EEE
:104CE600031C3E2E01304001EF36EE0CED0CEC0CB1
:104CF600890B762E01304101A5070319962E752ED4
:104D06002030250203183E2E25080319962E013061
:104D16004001EC35ED0DEE0DEF0D890B8B2E0130BC
:104D26004101A502872E2408031908004001EC0959
:104D3600ED09EE09EF09EC0A0319ED0A0319EE0A6B
:104D46000319EF0A08004101EF0188310B20A63153
:104D56000A304001A2000030A3004201370840019A
:104D6600A500420136084001A400A4318424A631DE
:104D760023084101EE00400122084101ED00013007
:104D86004201BD00D52E42013D084101EF0042011E
:104D960037084101EE00420136084101ED000310DB
:104DA6004201BD0D40303D0203180C2F3D08F400B2
:104DB6003C08F5003E0894312D24A63188310B209D
:104DC600A6310A304001A2000030A3004201370894
:104DD6004001A500420136084001A400A431842404
:104DE600A63123084201B700400122084201B6005D
:104DF60041016E08803AEC0042013708803A4101D1
:104E06006C02031D0A2F4201360841016D02031888
:104E1600C62E41016F084201BD003D08F4003C0862
:104E2600F5003E0894312D2408004101EF01883138
:104E36000B20A7310A304001A2000030A300420136
:104E460037084001A500420136084001A400A431FC
:104E56008424A73123084101EE00400122084101C4
:104E6600ED0001304201BE00472F42013E084101DC
:104E7600EF00420137084101EE00420136084101C8
:104E8600ED0003104201BE0D40303E0203187E2F96
:104E96003D08F4003C08F5003E0894312D24A73166
:104EA60088310B20A7310A304001A2000030A30050
:104EB600420137084001A500420136084001A4001E
:104EC600A4318424A73123084201B70040012208F7
:104ED6004201B60041016E08803AEC0042013708F3
:104EE600803A41016C02031D7C2F420136084101C4
:104EF6006D020318382F41016F084201BE003D08BC
:104F0600F4003C08F5003E0894312D2408004101C8
:104F1600EF0188310B20A7310A304001A200003092
:104F2600A300420137084001A500420136084001AE
:104F3600A400A4318424A73123084101EE004001D6
:104F460022084101ED0001304201BE00B92F4201A5
:104F56003E084101EF00420137084101EE004201DF
:104F660036084101ED0003104201BE0D40303E02FD
:104F76000318F02F3E08F4003C08F5003E08943173
:104F86002D24A73188310B20A7310A304001A20019
:104F96000030A300420137084001A500420136084F
:104FA6004001A400A4318424A73123084201B7009C
:104FB600400122084201B60041016E08803AEC0029
:104FC60042013708803A41016C02031DEE2F42016F
:104FD600360841016D020318AA2F41016F084201EC
:104FE600BE0041016F084201BD003D08F4003C08C7
:104FF600F5003E0894312D240800F834F8341F34A7
:105006001F340334033403341F341F34F834F834A4
:10501600FF34FF34003400340034003400340034EC
:105026000034FF34FF34FF34FF34003400340034DE
:105036000034003400340034FF34FF34FF34FF34CE
:10504600C034C034C034C034C034C034C034FF347B
:10505600FF34F834F8341F341F3403340334033474
:105066001F341F34F834F834FF34FF34003400346E
:1050760000340034003400340034FF34FF34FF348D
:10508600FF3400340034003400340034003400347B
:10509600FF34FF34FF34FF34C034C034C034C0346E
:1050A600C034C034C034FF34FF34053430340734E0
:1050B6001034153413340134043414346034203479
:1050C600443445345334493447344E3445344434F7
:1050D60020344234593420344E3437344434443442
:1050E6004334003453347434613463346B342034C1
:1050F60075346E3464346534723466346C346F34AB
:105106007734003453347434613463346B3420346C
:105116006F3476346534723466346C346F34773475
:1051260000344D3443344C345234203472346534B4
:1051360073346534743420342034003420344634D7
:1051460057342034563445345234533449344F346A
:105156004E342034003457344434543420346F34BD
:1051660076346534723466346C346F347734003494
:105FD000640080010131890BE92F0034FE001200BA
:105FE0001E00FE0BEF2F00340A340034003400345E
:105FF0000A3400340034003401340234403478343C
:1060000042344F345234203472346534733465343E
:106010007434203420340034203450344F34573416
:106020004534523420344F3446344634203400341E
:10603000203420344C344F345734203442344134EB
:106040005434543420340034203420342034203468
:106050002034203420342034203400345334573456
:10606000523420342034203420342034203400347E
:10607000543455344E3445342034203420342034C4
:1060800020340034523445345334453454342034AD
:1060900020342034203400344F34563445345234C4
:1060A0004C344F3441344434203400345034573469
:1060B00052342034203420342034203457340034F7
:1060C000533457345234203420340034533457344A
:1060D00052342034003430342E34303430340034F0
:1060E00030342E343034003431342E3436340034ED
:0860F0003D3400343E3400345D
:020000040001F9
:0A000E008C3F3D3F9F3FFF3FFF3F47
:00000001FF
