:040000008031C6285D
:100008007E14803100308600003087004E018C1E3F
:10001800C4288C1201304201DC070030DD3DDE3D92
:10002800DF3D43015B085A04590458040319222888
:100038000130D8020030D93BDA3BDB3B5F085E0475
:100048005D045C0403192E280130DC020030DD3B1E
:10005800DE3BDF3BC03040019C00E0309D004301A7
:10006800370842015F02031D49284301360842014F
:100078005E02031D49284301350842015D02031D44
:1000880049284301340842015C02031CC4280A3091
:100098004301B4070030B53DB63DB73D40018F1868
:1000A8005728013058280030F0008D1A5D2801309B
:1000B8005E280030700400380319732843012F08A4
:1000C800DB002E08DA002D08D9002C08D8002B08F0
:1000D800DF002A08DE002908DD002808DC004001CE
:1000E8008D1A9228FA3042016A0203187D280130DD
:1000F800EA0719306A0603197C164001160E013901
:10010800F000FA3042016A06031D8C2801308D2860
:100118000030700503199D28FC159D280330420105
:100128006A02031C9C2819306A0203189C28FC16D2
:10013800EA0140018F18B9281930420169020318F1
:10014800A7280130E90740010F0C890C0139F0009C
:10015800143042016906031DB3280130B428003069
:1001680070050319C428FC14C4280230420169022E
:10017800031CC3280A3069020318C3287C15E90147
:100188007E1009008031C828C3308400AC30850057
:10019800D8308600013087001430AC3167248031B4
:1001A800FC014301EC015C308400013085000F3014
:1001B800AC3161248031A0308400013085003830B2
:1001C800AC31612480312030840002308500103049
:1001D800AC3161247E1040019C314A2C44304001EE
:1001E800C1007A30C0000030BF000030BE004101BD
:1001F80061084001C500410160084001C400410197
:100208005F084001C30041015E084001C200893116
:100218001C21803141084101E100400140084101B1
:10022800E00040013F084101DF0040013E08410174
:10023800DE0044304001C1007A30C0000030BF0009
:100248000030BE00410165084001C5004101640855
:100258004001C400410163084001C3004101620834
:100268004001C20089311C21803141084101E5006B
:10027800400140084101E40040013F084101E3001A
:1002880040013E084101E20061084001DB004101F4
:1002980060084001DA0041015F084001D9004101CE
:1002A8005E084001D800430127084001DF004301F0
:1002B80026084001DE00430125084001DD00430116
:1002C80024084001DC0085310C2580315B0842019F
:1002D800A70040015A084201A600400159084201FE
:1002E800A500400158084201A400410161084001ED
:1002F800DB00410160084001DA0041015F0840016C
:10030800D90041015E084001D8004301230840019B
:10031800DF00430122084001DE00430121084001BB
:10032800DD00430120084001DC0085310C258031C7
:100338005B084101B00040015A084101AF0040018B
:1003480059084101AE00400158084101AD0061085B
:100358004001DB00410160084001DA0041015F080B
:100368004001D90041015E084001D8004201270838
:100378004001DF00420126084001DE004201250855
:100388004001DD00420124084001DC0085310C25D4
:1003980080315B084101B40040015A084101B300B3
:1003A800400159084101B200400158084101B1001B
:1003B8008C31252480313008E1002F08E0002E0818
:1003C800DF002D08DE0065084001DB0041016408FC
:1003D8004001DA00410163084001D9004101620887
:1003E8004001D800430127084001DF0043012608E7
:1003F8004001DE00430125084001DD0043012408D7
:100408004001DC0085310C2580315B084201A700E2
:1004180040015A084201A600400159084201A500BE
:10042800400158084201A400410165084001DB0071
:10043800410164084001DA00410163084001D90024
:10044800410162084001D800430123084001DF0050
:10045800430122084001DE00430121084001DD007C
:10046800430120084001DC0085310C2580315B0800
:100478004101B00040015A084101AF00400159084C
:100488004101AE00400158084101AD006508400136
:10049800DB00410164084001DA00410163084001C2
:1004A800D900410162084001D800420127084001F3
:1004B800DF00420126084001DE0042012508400114
:1004C800DD00420124084001DC0085310C25803123
:1004D8005B084101B40040015A084101B3004001E2
:1004E80059084101B200400158084101B1008C315E
:1004F800252480313008E5002F08E4002E08E300A9
:100508002D08E20061084001DF0041016008400158
:10051800DE0041015F084001DD0041015E08400145
:10052800DC004130DB002030DA000030D900003038
:10053800D80085310C2580315B084101B4004001A9
:100548005A084101B300400159084101B200400175
:1005580058084101B1003F30B0000030AF00003012
:10056800AE000030AD008C31252480313008BC004D
:100578002F08BB002E08BA002D08B90098310C20AE
:10058800803141013A084201E50041013908420140
:10059800E40000304101C4000030C3000030C20054
:1005A8000030C1006108C8006008C7005F08C600C5
:1005B8005E08C500A631832680310318F82A65082D
:1005C800C4006408C3006308C2006208C10061086F
:1005D800C8006008C7005F08C6005E08C500A631ED
:1005E80083268031031CFE2A10304201E0002730A8
:1005F800E100602B65084001C50041016408400125
:10060800C400410163084001C30041016208400180
:10061800C200410161084001C10041016008400178
:10062800C00041015F084001BF0041015E08400170
:10063800BE0089311C2180314108DF004008DE00FE
:100648003F08DD003E08DC004630DB001C30DA00E5
:100658004030D9000030D80085310C2580315B0846
:100668004101B40040015A084101B3004001590852
:100678004101B200400158084101B1003F30B000CB
:100688000030AF000030AE000030AD008C312524C2
:1006980080313008BC002F08BB002E08BA002D0896
:1006A800B90098310C20803141013A084201E1003B
:1006B800410139084201E0006508803AFB00430126
:1006C8004708803A7B02031D6C2B460842016402EE
:1006D8000318722B4201E201E30108004101650899
:1006E800C4006408C3006308C2006208C10061084E
:1006F800C8006008C7005F08C6005E08C500A631CC
:1007080083268031031C8E2BE7304201E200033040
:10071800E300080061084001C10041016008400190
:10072800C00041015F084001BF0041015E0840016F
:10073800BE00410165084001C5004101640840014F
:10074800C400410163084001C3004101620840013F
:10075800C20089311C21803141084201A3004001B7
:1007680040084201A20040013F084201A1004001A7
:100778003E084201A00023084101D000420122089E
:100788004101CF00420121084101CE004201200869
:100798004101CD009631C926803150084201AB0095
:1007A80041014F084201AA0041014E084201A90037
:1007B80041014D084201A8003F304101C00080308E
:1007C800BF000030BE000030BD0042012B084101CF
:1007D800BC0042012A084101BB004201290841012D
:1007E800BA00420128084101B900AD313E258031E7
:1007F8003C08C4003B08C3003A08C2003908C100DD
:100808000030C8000030C7000030C6000030C50006
:10081800A131FB218031031C1A2C3A304201AB0074
:100828008330AA001230A9006F30A80042012B08BB
:100838004101BC0042012A084101BB0042012908CC
:100848004101BA00420128084101B9003F30C00007
:100858008030BF000030BE000030BD00AD313E2505
:1008680080313C084001C10041013B084001C00003
:1008780041013A084001BF00410139084001BE006A
:100888003F304101B0008030AF000030AE00003092
:10089800AD0042012B084101B40042012A08410180
:1008A800B300420129084101B20042012808410170
:1008B800B1008C312524803130084001C500410148
:1008C8002F084001C40041012E084001C300410126
:1008D8002D084001C20089311C21803141084201A4
:1008E800AB00400140084201AA0040013F08420114
:1008F800A90040013E084201A8002B084101C4009C
:1009080042012A084101C300420129084101C200ED
:10091800420128084101C1003F30C8008030C700AB
:100928000030C6000030C500A63183268031031888
:10093800A62C3F304201AB008030AA000030A9004D
:100948000030A80041304101C4001F30C300C2304C
:10095800C2008F30C10042012B084101C80042018A
:100968002A084101C700420129084101C600420185
:1009780028084101C500A63183268031031C882B35
:1009880042012B084001DF0042012A084001DE0035
:10099800420129084001DD00420128084001DC002D
:1009A8004230DB00C830DA000030D9000030D8000F
:1009B80085310C2580315B084101B40040015A089B
:1009C8004101B300400159084101B20040015808F3
:1009D8004101B1003F30B0000030AF000030AE0040
:1009E8000030AD008C31252480313008BC002F0840
:1009F800BB002E08BA002D08B90098310C2041011F
:100A08003A084201E300410139084201E2000800C6
:100A18005B0880394101A00040015B354101A2001B
:100A28004001DA1F192D410122144101220803193E
:100A38002C2D220A031D292D00304001DB00003037
:100A4800DA000030D9000030D8004001DA17352D1F
:100A580000304001DB000030DA000030D9000030FF
:100A6800D8005F0880394101A00640015F35410187
:100A7800A1004001DE1F422D41012114410121083E
:100A88000319552D210A031D522D00304001DF00A6
:100A98000030DE000030DD000030DC004001DE17F1
:100AA8005E2D00304001DF000030DE000030DD0048
:100AB8000030DC0041012108031D2208031D6E2DB2
:100AC80000304001DB000030DA000030D90000308F
:100AD800D800080040015808F1005E08AD31B6257D
:100AE800853172084101AC007108AB002B08400148
:100AF800E000E101E201E30163084101A6004001D1
:100B080062084101A500400161084101A4004001BB
:100B180060084101A3002C084001E000E101E20166
:100B2800E30163084101AA00400162084101A900EC
:100B3800400161084101A800400160084101A70087
:100B480040015908F1005D08AD31B62585317208BC
:100B58004101AC007108AB002B084001E000E10145
:100B6800E201E30160084101A30740016108410176
:100B7800A43D400162084101A53D400163084101CF
:100B8800A63D2C084001E000E101E201E301600814
:100B98004101A707400161084101A83D40016208E1
:100BA8004101A93D400163084101AA3D40015A089D
:100BB800F1005C08AD31B625853172084101AC0001
:100BC8007108AB002B084001E000E101E201E301FC
:100BD80060084101A307400161084101A43D4001AB
:100BE80062084101A53D400163084101A63D2C086A
:100BF8004001E000E101E201E30160084101A707CB
:100C0800400161084101A83D400162084101A93D38
:100C1800400163084101AA3D0830A335A40DA50D84
:100C2800A60D890B112E40015908F1005C08AD3161
:100C3800B625853172084101AC007108AB002B085C
:100C4800A3072C08A43D0030A53DA63D4001580847
:100C5800F1005D08AD31B625853172084101AC005F
:100C68007108AB002B08A3072C08A43D0030A53D54
:100C7800A63D0830A335A40DA50DA60D890B3E2E63
:100C880040015808F1005C08AD31B625853172087D
:100C98004101AC007108AB002B08A3072C08A43D48
:100CA8000030A53DA63D40015908F1005E08AD3170
:100CB800B625853172084101AC007108AB002B08DC
:100CC800A7072C08A83D0030A93DAA3D40015A08B5
:100CD800F1005D08AD31B625853172084101AC00DF
:100CE8007108AB002B08A7072C08A83D0030A93DC8
:100CF800AA3D40015A08F1005E08AD31B62585319C
:100D080072084101AC007108AB002B084001E000FB
:100D180041012C084001E100E201E3010830E0351F
:100D2800E10DE20DE30D890B932E60084101A70741
:100D3800400161084101A83D400162084101A93D07
:100D4800400163084101AA3D26084001E000E10195
:100D5800E201E30160084101A70740016108410180
:100D6800A83D400162084101A93D400163084101D5
:100D7800AA3D0830A335A40DA50DA60D890BBE2EDE
:100D8800220821074001E000E101E10D6008823EF0
:100D98004101AB00FF304001613D4101AC00A91B9E
:100DA800EA2E0130A735A80DA90DAA0D890BD62E5C
:100DB800A61B27140130A335A40DA50DA60D890B7C
:100DC800DF2EFF30AB07FF30AC3DD32EA101A61FAD
:100DD8000C2FFF3023054001E000FF3041012405BE
:100DE8004001E100FF30410125054001E2007F306C
:100DF800410126054001E3006308620461046004C0
:100E0800031D092F4101271C0C2F01304101A100AE
:100E180021080319412F0130A7070030A83DA93D3B
:100E2800AA3D2A1C412F27084001E000410128085B
:100E38004001E100410129084001E20041012A087E
:100E48004001E3000130E400E337E20CE10CE00C80
:100E5800E40B282F63084101AA0040016208410100
:100E6800A900400161084101A80040016008410152
:100E7800A7000130AB070030AC3D2C08803A400198
:100E8800E00080306002031D4C2FFF3041012B022F
:100E9800031C582F7F304101AA008030A900003080
:100EA800A8000030A700882F41012C08803A400193
:100EB800E00080306002031D642F013041012B02E5
:100EC8000318712F00304101AA000030A90000303A
:100ED800A8000030A700A001882F41012B08A2001C
:100EE800FF30A705FF30A8057F30A9050030AA0507
:100EF8002218A91722084001E0000130E036890BCA
:100F0800822F60084101AA002008AA042A0840018B
:100F1800DB00410129084001DA00410128084001AD
:100F2800D900410127084001D8000800F91F9E2F69
:100F380001309F2F0030A2002208031DA82F790836
:100F4800A4007808A300B32F7809A0007909A100AC
:100F5800A00A0319A10A2008A3002108A400A501DA
:100F68007A0825078600023087002030810001308A
:100F7800A50706302502031CB42F7A08063E860012
:100F88000230870081010530A5007A082507860010
:100F9800023087000A30F1000030F2002408F40023
:100FA8002308F300AE31832687317108303E810073
:100FB8000130A5020A30F1000030F2002408F400E4
:100FC8002308F300AF316A2787317208A40071083B
:100FD800A30023082404031DC92F220803190800AD
:100FE8007A0825078600023087002D308100080026
:080FF8000030A031A620080022
:101006004201BD000030B7000030B6000030B50028
:101016000030B4000030BB000030BA000030B90028
:101026000030B800BC013D083C0203185928A7311E
:101036007B27883124084101E6004001250841014B
:10104600E7000030E71BFF30E800E90066084201D0
:10105600B407410167084201B53D410168084201F4
:10106600B63D410169084201B73D98317620883185
:1010760024084101E600400125084101E70000304F
:10108600E71BFF30E800E90066084201B8074101A6
:1010960067084201B93D410168084201BA3D410174
:1010A60069084201BB3D0130BC0716283D084101D5
:1010B600E600E701E801E90169084001B3004101E2
:1010C60068084001B200410167084001B1004101D2
:1010D60066084001B00001309831FB2088313308A2
:1010E600C1003208C0003108BF003008BE0042010E
:1010F60037084001B300420136084001B200420100
:1011060035084001B100420134084001B00000300A
:101116009831FB2088313308C5003208C4003108F5
:10112600C3003008C20089311C21883141084201C0
:10113600AF00400140084201AE0040013F084201B5
:10114600AD0040013E084201AC003D084101E60009
:10115600E701E801E90169084001B30041016808B7
:101166004001B200410167084001B1004101660833
:101176004001B00001309831FB2088313308C100AE
:101186003208C0003108BF003008BE0042013B08EB
:101196004001B30042013A084001B2004201390859
:1011A6004001B100420138084001B00000309831DA
:1011B600FB2088313308C5003208C4003108C3005B
:1011C6003008C20089311C21883141084201B30030
:1011D600400140084201B20040013F084201B1000F
:1011E60040013E084201B0002F084101E1004201E2
:1011F6002E084101E00042012D084101DF004201B5
:101206002C084101DE00420133084101E50042019C
:1012160032084101E400420131084101E300420184
:1012260030084101E2008031F2208831AE313826A3
:10123600080045088039CF004535D600C41B561432
:10124600560803193429560A031D31290030C500F2
:101256000030C4000030C3000030C200C417C5010E
:101266003C290030C5000030C4000030C300003007
:10127600C20041088039CF064135D700C01B57143C
:10128600570803195429570A031D51290030C10074
:101296000030C0000030BF000030BE00C017C101E2
:1012A6005C290030C1000030C0000030BF000030B3
:1012B600BE00410840043F043E04031D7929003066
:1012C600C5000030C4000030C3000030C2008030CA
:1012D600C4047F30C5044F08C5044508C10044084E
:1012E600C0004308BF004208BE0008005608031DA0
:1012F60085290030C1000030C0000030BF0000303A
:10130600BE0008005608C600C7014708C9005708AE
:101316004602C800031CC90348087F3ED0000030BF
:10132600493DD1004508CE004408CD004308CC0015
:101336004208CB000030C5000030C4000030C300B6
:101346000030C2000030D5000030D4000030D30099
:101356000030D200D7011A3057020318E82957087F
:101366000319CC290130CB35CC0DCD0DCE0D890B13
:10137600B6290130C235C30DC40DC50D890BBD2973
:10138600D51B42140130D235D30DD40DD50D890BA2
:10139600C62941084E02031DDA2940084D02031DE5
:1013A600DA293F084C02031DDA293E084B02031CCA
:1013B600E52955173E08CB023F08CC3B4008CD3BFC
:1013C6004108CE3B0130D707AE294E084D044C04E8
:1013D6004B04031D5214C41B052A0130C235C30D2C
:1013E600C40DC50D890BF129D51B42140130D23528
:1013F600D30DD40DD50D890BFA29FF30D007FF3058
:10140600D13DEE29D701D51F1E2AFF305205C60051
:10141600FF305305C700FF305405C8007F3055051F
:10142600C9004908480447044604031942181C2AFF
:101436001E2A0130D70057080319452A0130C20772
:101446000030C33DC43DC53D451C452A4208C60083
:101456004308C7004408C8004508C9000130CA004F
:10146600C937C80CC70CC60CCA0B332A4908C500B5
:101476004808C4004708C3004608C2000130D00728
:101486000030D13D5108803AC60080304602031D27
:101496004E2AFF305002031C5D2AFF304001D00067
:1014A6000030D1000030C5000030C4000030C30059
:1014B6000030C20040015108803AC6008030460222
:1014C600031D672A013050020318752A4001D00116
:1014D600D1010030C5000030C4000030C300003028
:1014E600C200CF0140015008D600561C7C2AC41702
:1014F6007E2A7F30C4055608C6000130C636890BE1
:10150600812A4608C5006E294101C7014708BD3E2C
:10151600860087014708583E8400B0300318013E14
:101526008500000881000130C7070A304702031C06
:10153600892A3D08AC318D248A314101B900BA01AE
:10154600BB01BC013C084301AF0041013B0843011C
:10155600AE0041013A084301AD004101390843019B
:10156600AC000030F4000030F300EA30F2006030E6
:10157600F1002F08F8002E08F7002D08F6002C08B9
:10158600F500AF319C278A3174084301AF00730818
:10159600AE007208AD007108AC0041013E08AC31E6
:1015A6008D248A314101B900BA01BB01BC013C0856
:1015B6004301AB0041013B084301AA0041013A083F
:1015C6004301A900410139084301A8000030F40095
:1015D6000030F300EA30F2006030F1002B08F8002A
:1015E6002A08F7002908F6002808F500AF319C27DD
:1015F6008A3174084301AB007308AA007208A90077
:101606007108A80041013F08AC318D248A3141019F
:10161600B900BA0139084301C80041013A0843013B
:10162600C90041014008AC318D248A314101B9001D
:10163600BA0139084301C60041013A084301C7000F
:1016460041014108AC318D248A314101B900BA010A
:101656003908F7003A08F8000A30F9000030FA00B5
:10166600AD315B258A3178084301C5007708C4008F
:1016760041014208AC318D248A314101B900BA01D9
:101686003908F7003A08F8000A30F9000030FA0085
:10169600AD315B258A3178084301C3007708C20063
:1016A60041014308AC318D248A31003A03195E2B7F
:1016B60043016C14602B43016C1041304001C100A2
:1016C6002030C0000030BF000030BE004101440899
:1016D600AC318D248A314101B900BA01BB01BC018C
:1016E6003C084001B30041013B084001B200410102
:1016F6003A084001B100410139084001B00001300B
:101706009831FB208A313308C5003208C4003108FD
:10171600C3003008C20089311C218A3141084301C7
:10172600A300400140084301A20040013F084301D5
:10173600A10040013E084301A0003F304101B00036
:101746008030AF000030AE000030AD0042304001C6
:10175600C100C830C0000030BF000030BE004101EB
:101766004508AC318D248A314101B900BA01BB016B
:10177600BC013C084001B30041013B084001B200F6
:1017860041013A084001B100410139084001B00069
:1017960001309831FB208A313308C5003208C40075
:1017A6003108C3003008C20089311C218A31410842
:1017B6004101B400400140084101B30040013F0827
:1017C6004101B20040013E084101B1008C3125249F
:1017D6008A3130084301A70041012F084301A600C2
:1017E60041012E084301A50041012D084301A40033
:1017F60006304001A2000030A30041014608AC318A
:101806008D248A314101B900BA013908F7003A0836
:10181600F8000A30F9000030FA00AD315B258A3154
:101826007808A5007708A400A331BE232308430146
:10183600C100400122084301C0004908CD00480804
:10184600CC00080030088039B5003035B700AF1B32
:101856003714370803193D2C370A031D3A2C00307C
:10186600B0000030AF000030AE000030AD00AF1762
:10187600B001452C0030B0000030AF000030AE00A3
:101886000030AD0034088039B60036083506031D31
:1018960035173435B600B31B361436080319612CD8
:1018A600360A031D5E2C0030B4000030B300003051
:1018B600B2000030B100B317B401692C0030B40097
:1018C6000030B3000030B2000030B10037083602F5
:1018D60003188F2C351F712C8030B5063708B800D9
:1018E6003608B7003808B6002D08B8003108AD0034
:1018F6003808B1002E08B8003208AE003808B20029
:101906002F08B8003308AF003808B3003008B80015
:101916003408B0003808B400B80136084001E500C4
:10192600E6016608E8004101370840016502E70064
:10193600031CE8036808803AE90080306902031D49
:10194600A62C1A306702031CDE2C410130082F0436
:101956002E042D040319B12C0130B22C0030B8002E
:101966000030B0000030AF000030AE000030AD00F7
:101976003608B700E32C381CCC2C38084001E500AB
:101986000130E536890BC42C650801384101B800E1
:10199600CE2C0310B80C2D18B81701304001E50005
:1019A6004101B037AF0CAE0CAD0C4001E50BD32CAA
:1019B60001304101B707410136083702031CBE2C2E
:1019C600351B1C2D3708031DF12C0030B0000030EC
:1019D600AF000030AE000030AD0008003108AD07A2
:1019E6003208AE3D3308AF3D3408B03D301CA92D5A
:1019F600381C092D38084001E5000130E536890B11
:101A0600012D650801384101B8000B2D0310B80CF3
:101A16002D18B81701304001E5004101B037AF0C71
:101A2600AE0CAD0C4001E50B102D01304101B7079E
:101A3600A92D3008803A4001E50041013408803A7A
:101A4600400165024101031D322D33082F02031D9B
:101A5600322D32082E02031D322D31082D020318B5
:101A6600772DFF304001E500FF30E600FF30E7004C
:101A7600FF30E80041012D0831024001E900410133
:101A86002E08323B4001EA0041012F08333B40015A
:101A9600EB0041013008343B4001EC006908E507E2
:101AA6006A08E63D6B08E73D6C08E83D68084101B9
:101AB600B000400167084101AF00400166084101DE
:101AC600AE00400165084101AD008030B50638031F
:101AD600FF3AB8003808031D7F2D0130AD070030EE
:101AE600AE3DAF3DB03D7F2D3108AD023208AE3B75
:101AF6003308AF3B3408B03B30082F042E042D04C6
:101B0600031DA72D3808031DA72D0030B000003097
:101B1600AF000030AE000030AD0008000130AD353A
:101B2600AE0DAF0DB00D890B922DB81B2D14381CC0
:101B3600A02D0314380DB800A22D0310B80D3708D8
:101B46000319A72D0130B702AF1F912DB601B81F9B
:101B5600B42D38087F3903192D18B22DB42D013054
:101B6600B60036080319EA2D0130AD070030AE3D48
:101B7600AF3DB03D301CEA2D2D084001E500410186
:101B86002E084001E60041012F084001E70041010F
:101B960030084001E8000130E900E837E70CE60CC0
:101BA600E50CE90BD02D68084101B000400167083B
:101BB6004101AF00400166084101AE0040016508E1
:101BC6004101AD00370A0319EA2D0130B707370A7C
:101BD600031D3708031DFA2D0030B0000030AF009A
:101BE6000030AE000030AD0037080319B501371CD0
:101BF600FE2DAF17002E7F30AF0537084001E500F8
:101C06000130E536890B042E65084101B000B51F89
:101C16000800B017080042089C3E4401B000FF309F
:101C26004301433D4401B10003304201D80008306E
:101C3600D7007730890B1D2ED70B1D2ED80B1D2EE6
:101C46004401B401B501B601B701B201B3013308CD
:101C5600803A4201D70043014108803A42015702C7
:101C6600031D392E430140084401320203186C2E2D
:101C7600A1316F218E3144013508803A4201D700E7
:101C86006508803A5702031D4B2E6408440134024E
:101C960003185D2E420165084401B500420164083F
:101CA6004401B400420163084401B70042016208DE
:101CB6004401B6000B304201D7006230890B612E19
:101CC600D70B612E000001304401B2070030B33D4E
:101CD6002A2E44013508803A4201D7008030570247
:101CE600031D782E013044013402031C922E40015C
:101CF600161E8F2E43012F08DB002E08DA002D0852
:101D0600D9002C08D8002B08DF002A08DE00290895
:101D1600DD002808DC00922E9A3117228E3143010D
:101D2600610844013506031D9C2E430160084401E9
:101D360034060319C72E7C1FA72E2A304001AC009B
:101D46003930AD00B130AD2E2A304001AC0037300D
:101D5600AD00B130AE00AF01AF0A00309431CE24F1
:101D66008E31440135084301E10044013408430142
:101D7600E000440135084001BD004401340840013B
:101D8600BC00A53151258E3144013708803A420105
:101D9600D70080305702031DD32E6430440136022B
:101DA600031C102F43014F0844013706031DDF2E85
:101DB60043014E08440136060319102F3708430124
:101DC600CF00440136084301CE0044013508803A6D
:101DD6004201D70043014708803A42015702031DDA
:101DE600F82E43014608440134020318052F430127
:101DF6004F084001BD0043014E084001BC00AE3112
:101E0600DB26080043014F084001BD0043014E0890
:101E16004001BC00AE31DB268E317C1F712F0330B2
:101E26004401B2000030B30006304001AC0011306E
:101E3600AD00B130AE000930AF0002309431CE248F
:101E46008E3115304201D8004B30D700BE30890B99
:101E56002A2FD70B2A2FD80B2A2F00004001AC01BE
:101E6600DF30AD00B030AE000930AF000230943143
:101E7600CE248E3115304201D8004B30D700BE300B
:101E8600890B432FD70B432FD80B432F0000FF306E
:101E96004401B207FF30B33D32083304031D172F48
:101EA6000930AD31F4258E31440137084001BD00BB
:101EB600440136084001BC00AE31DB268E311530B8
:101EC6004201D8004B30D700BE30890B682FD70BA4
:101ED600682FD80B682F00007C13080043016C1C88
:101EE60008007C18080044013508803A4201D700F2
:101EF60043014708803A42015702031D862F4301DA
:101F0600460844013402031C080044013508803A9F
:101F16004201D70043014508803A42015702031D9A
:101F2600982F430144084401340203180800440171
:101F36003708803A4201D70080305702031DA62F8A
:101F4600793044013602031C08004301620844014B
:101F560036024201D700430163084401373B420180
:101F6600D80044013108803A4201D9005808803A25
:101F76005902031DC12F570844013002031CFD2FCF
:101F860044013608430162024201D7004401370882
:101F96004301633B4201D80044013108803A4201C3
:101FA600D9005808803A5902031DDC2F570844010E
:101FB6003002031CFD2FE7304201D7000330D80062
:101FC6004401300842015702D90044013108420158
:101FD600583BDA005A08803ADB0044013708803A59
:101FE60042015B02031DFB2F4401360842015902E0
:101FF60003180800A33125230800003400340034F8
:1020060000340034003400345F34003400340034CB
:10201600073400340734003414347F3414347F34E6
:10202600143424342A347F342A34123423341334B7
:1020360008346434623436344934553422345034E6
:102046000034053403340034003400341C342234A4
:10205600413400340034413422341C340034083412
:102066002A341C342A340834083408343E340834FC
:102076000834003450343034003400340834083422
:102086000834083408340034303430340034003432
:10209600203410340834043402343E345134493484
:1020A60045343E34003442347F34403400344234C4
:1020B60061345134493446342134413445344B3447
:1020C60031341834143412347F3410342734453400
:1020D6004534453439343C344A344934493430344F
:1020E60001347134093405340334363449344934FF
:1020F6004934363406344934493429341E340034DC
:102106003634363400340034003456343634003431
:102116000034003408341434223441341434143472
:10212600143414341434413422341434083400344E
:1021360002340134513409340634323449347934A2
:1021460041343E347E341134113411347E347F34BC
:1021560049344934493436343E34413441344134C7
:1021660022347F344134413422341C347F344934A0
:102176004934493441347F34093409340134013453
:102186003E3441344134513432347F3408340834D7
:1021960008347F34003441347F34413400342034F1
:1021A600403441343F3401347F340834143422340B
:1021B60041347F3440344034403440347F34023438
:1021C600043402347F347F340434083410347F34CA
:1021D6003E344134413441343E347F340934093489
:1021E600093406343E344134513421345E347F346C
:1021F6000934193429344634463449344934493487
:102206003134013401347F34013401343F344034F5
:10221600403440343F341F342034403420341F349B
:102226007F342034183420347F3463341434083433
:10223600143463340334043478340434033461349A
:102246005134493445344334003400347F34413406
:1022560041340234043408341034203441344134D7
:102266007F3400340034043402340134023404343C
:102276004034403440344034403400340134023475
:1022860004340034203454345434543478347F3491
:10229600483444344434383438344434443444348C
:1022A600203438344434443448347F343834543455
:1022B60054345434183408347E3409340134023426
:1022C60008341434543454343C347F3408340434DD
:1022D60004347834003444347D34403400342034BB
:1022E600403444343D34003400347F3410342834D0
:1022F6004434003441347F34403400347C34043474
:102306001834043478347C3408340434043478348F
:10231600383444344434443438347C341434143437
:102326001434083408341434143418347C347C34AB
:10233600083404340434083448345434543454349B
:10234600203404343F344434403420343C34403464
:10235600403420347C341C342034403420341C3443
:102366003C344034303440343C3444342834103423
:10237600283444340C345034503450343C344434CF
:10238600643454344C3444340034083436344134E0
:102396000034003400347F340034003400344134D7
:1023A600363408340034083408342A341C340834EB
:1023B60008341C342A340834083400340034003419
:1023C60000340034003400345F3400340034003408
:1023D600073400340734003414347F3414347F3423
:1023E600143424342A347F342A34123423341334F4
:1023F6000834643462343634493455342234503423
:102406000034053403340034003400341C342234E0
:10241600413400340034413422341C34003408344E
:102426002A341C342A340834083408343E34083438
:10243600083400345034303400340034083408345E
:10244600083408340834003430343034003400346E
:10245600203410340834043402343E3451344934C0
:1024660045343E34003442347F3440340034423400
:1024760061345134493446342134413445344B3483
:1024860031341834143412347F341034273445343C
:102496004534453439343C344A344934493430348B
:1024A600013471340934053403343634493449343B
:1024B6004934363406344934493429341E34003418
:1024C600363436340034003400345634363400346E
:1024D60000340034083414342234413414341434AF
:1024E600143414341434413422341434083400348B
:1024F60002340134513409340634323449347934DF
:1025060041343E347E341134113411347E347F34F8
:1025160049344934493436343E3441344134413403
:1025260022347F344134413422341C347F344934DC
:102536004934493441347F3409340934013401348F
:102546003E3441344134513432347F340834083413
:1025560008347F34003441347F344134003420342D
:10256600403441343F3401347F3408341434223447
:1025760041347F3440344034403440347F34023474
:10258600043402347F347F340434083410347F3406
:102596003E344134413441343E347F3409340934C5
:1025A600093406343E344134513421345E347F34A8
:1025B60009341934293446344634493449344934C3
:1025C6003134013401347F34013401343F34403432
:1025D600403440343F341F342034403420341F34D8
:1025E6007F342034183420347F3463341434083470
:1025F60014346334033404347834043403346134D7
:102606005134493445344334003400347F34413442
:102616004134023404340834103420344134413413
:102626007F34003400340434023401340234043478
:1026360040344034403440344034003401340234B1
:1026460004340034203454345434543478347F34CD
:1026560048344434443438343834443444344434C8
:10266600203438344434443448347F343834543491
:1026760054345434183408347E3409340134023462
:1026860008341434543454343C347F340834043419
:1026960004347834003444347D34403400342034F7
:1026A600403444343D34003400347F34103428340C
:1026B6004434003441347F34403400347C340434B0
:1026C6001834043478347C340834043404347834CC
:1026D600383444344434443438347C341434143474
:1026E6001434083408341434143418347C347C34E8
:1026F60008340434043408344834543454345434D8
:10270600203404343F344434403420343C344034A0
:10271600403420347C341C342034403420341C347F
:102726003C344034303440343C344434283410345F
:10273600283444340C345034503450343C3444340B
:10274600643454344C34443400340834363441341C
:102756000034003400347F34003400340034413413
:10276600363408340034083408342A341C34083427
:1027760008341C342A3408340834FB004001161E81
:102786000800AC31EE2493317830A03167209331C4
:10279600003A031DFC178030A031672093317B0877
:1027A600A03167209331AC31B0240800FF304201DC
:1027B600CD007F30CE00FF30CF007F30D000A43177
:1027C60059249331A431AB2493319B316223933145
:1027D60042016308803AC40080304402031DF52B91
:1027E60079306202031C080042016108CC006008CF
:1027F600CB006808C5006708C600033067020318E7
:10280600302C033068020318302CE701E801670812
:10281600F4006608F50068089D3132259331A4312D
:10282600AB249331A431592493319B3162239331E4
:1028360042016308803AC40080304402031D252CFF
:1028460079306202031C080042016108CE0060086C
:10285600CD006808C7006708C80003306702031880
:102866005D2C0330680203185D2CE701E801670858
:10287600F4006608F50068089D3132259331A431CD
:10288600FD2493319B316223933142016308803AE0
:10289600C40080304402031D522C79306202031CAE
:1028A600080042016108D0006008CF006808C9002E
:1028B6006708CA004E08803AC4004C08803A4402B1
:1028C600031D672C4B084D02031C7B2C420150084C
:1028D600803AC4004C08803A4402031D742C4B080D
:1028E6004F02031C7B2C42014608E7004508B82C22
:1028F60042014C08803AC4004E08803A4402031D47
:10290600862C4D084B02031C9A2C42015008803A33
:10291600C4004E08803A4402031D932C4D084F0212
:10292600031C9A2C42014808E7004708B82C4201CC
:102936004C08803AC4005008803A4402031DA52C76
:102946004F084B02031CB92C42014E08803AC400C2
:102956005008803A4402031DB22C4F084D02031C56
:10296600B92C42014A08E7004908E80042014D0A2D
:102976007F3003194E06031DC62C4F0A7F300319FC
:102986005006031908006708F4006608F500680891
:102996009D3132250800B700161E0800AC31EE2422
:1029A60094317830A031672094314030A0316720CF
:1029B60094312C08A7003708A1312B219431BA0194
:1029C6002F083A0203184E2D3A082D0784002E08C8
:1029D6000318013E85001200031DF32CB601FD2CE1
:1029E6003A082D0784002E080318013E85000008CA
:1029F600E03EB600BB013608B000B1013008F70072
:102A06003108F8000530F9000030FA00AD315B25D9
:102A160094310030B2009030B30077083207B4002A
:102A26007808333DB5003B083407840035080318A1
:102A3600013E85000008B800023037060319292D2B
:102A460038080F39AD3179259431342D38080739D6
:102A5600AD3179259431B0000230B035890B302D77
:102A66003008B9003908A031672094313908A031FF
:102A7600672094310130BB0705303B02031CFE2C56
:102A86000030A031672094310030A03167209431A6
:102A96000130BA07E32C2C08A7003708013EA13104
:102AA6002B219431BA012F083A020318C32D3A0894
:102AB6002D0784002E080318013E85001200031D11
:102AC600662DB601702D3A082D0784002E080318CE
:102AD600013E85000008E03EB600BB013608B000A6
:102AE600B1013008F7003108F8000530F900003070
:102AF600FA00AD315B2594310030B2009030B3005E
:102B060077083207B4007808333DB5003B08340730
:102B1600840035080318013E85000008B80002301D
:102B2600370603199E2D3808B0000430B036890BDD
:102B3600992D3008A62D3808B0000330B036890B21
:102B4600A12D30080F39AD3179259431B9003908F6
:102B5600A031672094313908A031672094310130C3
:102B6600BB0705303B02031C712D0030A0316720E6
:102B760094310030A031672094310130BA07562DC8
:102B8600AC31B0240800161E0800AC31EE24953195
:102B96007830A031672095314030A03167209531DB
:102BA6000A30A2000030A3002D08A5002C08A400BE
:102BB600A331BE2395312308AD002208AC002D08B1
:102BC600803AAE0081302E02031DEB2D2C302C02F4
:102BD6000318EF2D2C30FC2D40012D08803AAE0055
:102BE60081302E02031DF92DA5302C02031C002E68
:102BF600A4304001AC000130AD0040012C08D43EA9
:102C0600AC00FE302D3DAD002D08AF002C08AE0007
:102C16000530AE35AF0D890B0C2E2E08AC002F08F3
:102C2600AD007830A2000030A3002D08A5002C08C6
:102C3600A400A331BE2395312208B4001930340212
:102C4600031C2E2E3408E83EB0000830B1000830D0
:102C5600B2000830432E11303402031C362EB00168
:102C66003408F03E292E09303402031C3F2EB001F1
:102C7600B1013408F83E2B2EB001B101B20134087F
:102C8600B3003008AC31D72495314001B600360880
:102C96000338B6007730A7000030A1312B219531DB
:102CA6003608A031672095313608A0316720953166
:102CB6003608A0316720953136081F38B6007530C2
:102CC600A7000030A1312B2195313608A0316720AD
:102CD60095313608A031672095317A30A70000304B
:102CE600A1312B2195313608A03167209531360860
:102CF600A031672095313108AC31D7249531400198
:102D0600B6007530A7000130A1312B219531B501F0
:102D16003608A031672095310130B50707303502F6
:102D2600031C8B2E3208AC31D72495314001B600F6
:102D36007530A7000230A1312B219531B501360837
:102D4600A031672095310130B50707303502031CE5
:102D5600A22E3308AC31D72495314001B60036088F
:102D6600C038B6007530A7000330A1312B2195314C
:102D7600B5013608A031672095310130B507073017
:102D86003502031CBC2EAC31B02408000030C40050
:102D96000030C3000030C2000030C1005008C80037
:102DA6004F08C7004E08C6004D08C500A631832649
:102DB6009631031CE72E0030D0000030CF000030E3
:102DC600CE000030CD00080040304001C100003088
:102DD600C0000030BF000030BE003F304101B000EF
:102DE6008030AF000030AE000030AD005008B400B7
:102DF6004F08B3004E08B2004D08B1008C312524AF
:102E0600963130084001C50041012F084001C40039
:102E160041012E084001C30041012D084001C200B6
:102E260089311C21963141084101DD0040014008ED
:102E36004101DC0040013F084101DB0040013E0842
:102E46004101DA00D5015D08B0005C08AF005B08FF
:102E5600AE005A08AD005D084001C10041015C08A2
:102E66004001C00041015B084001BF0041015A0812
:102E76004001BE00410150084001C50041014F0814
:102E86004001C40041014E084001C30041014D0804
:102E96004001C20089311C21963141084101B4002C
:102EA600400140084101B30040013F084101B20022
:102EB60040013E084101B1008C312524963130088D
:102EC600D4002F08D3002E08D2002D08D1004030A0
:102ED6004001C1000030C0000030BF000030BE001D
:102EE600410154084001C500410153084001C40096
:102EF600410152084001C300410151084001C2008E
:102F060089311C21963141084101D9004001400810
:102F16004101D80040013F084101D70040013E0869
:102F26004101D6005908BC005808BB005708BA0032
:102F36005608B9005D08C0005C08BF005B08BE000B
:102F46005A08BD00AD313E2596313C08C4003B0809
:102F5600C3003A08C2003908C10038304001DB001E
:102F6600D130DA00B730D9001730D80041015D08FA
:102F76004001DF0041015C084001DE0041015B08C1
:102F86004001DD0041015A084001DC0085310C2575
:102F960096315B084101C80040015A084101C7004B
:102FA600400159084101C600400158084101C500C9
:102FB600A631832696310318E92F5908D000580800
:102FC600CF005708CE005608CD0008005908DD008E
:102FD6005808DC005708DB005608DA000130D50730
:102FE60014305502031C262F5D08D0005C08CF0064
:102FF6005B08CE005A08CD000800E8010130E70062
:10300600E6016708F4006608F50068089D31322578
:10301600080003103B0D3C0D4001EE006E08031D39
:103026001E2800304101BC000030BB000030BA0051
:103036000030B900080041013908BD003A08BE0059
:103046003B08BF003C08C0001F30C036BF0CBE0C9A
:10305600BD0C890B28283D084001ED004101BB1736
:10306600FF30B905FF30BA05FF30BB050030BC059F
:1030760096304001EE02EE1F53286E08803A973EC6
:10308600031C142801304101BC36BB0CBA0CB90C28
:10309600890B462801304001EE07031966284528AA
:1030A60020306E02031814286E08031966280130B2
:1030B6004101B935BA0DBB0DBC0D890B5B2801303A
:1030C6004001EE0257286D08031908004101B909AD
:1030D600BA09BB09BC09B90A0319BA0A0319BB0A1A
:1030E6000319BC0A08002030AE315D269831A030A5
:1030F6000032890B7B280A30AC317C249831720867
:103106004001AB007108AA002A0A033003192B06F6
:10311600031D9E284030AE315D269831A030003226
:10312600890B92280A30AC317C24983171354001E4
:10313600AA00720DAB00FE302A06073003192B06D3
:10314600031DF6281030AE315D269831A0300032CE
:10315600890BAA280A30AC317C24983172084001C8
:10316600AB007108AA002A0A033003192B060319BB
:103176007C17AD312225983140012A08F1002B0831
:10318600F200F301F40143015208F5005308F6007A
:10319600890D893B8909F700F800AF319C279831E2
:1031A6007408AF007308AE007208AD007108AC0079
:1031B6002C08A6002D08A7002E08A8002F08A90095
:1031C6000A30A936A80CA70CA60C890BE4282908F6
:1031D600AF002808AE002708AD002608AC002D0871
:1031E600AB002C08AA002B08A5002A08A40008009A
:1031F600B8003808031DB31F10293009BA00310979
:10320600BB003209BC003309BD00BA0A0319BB0A68
:103216000319BC0A0319BD0A18293308BD00320870
:10322600BC003108BB003008BA0033083204310450
:103236003004031D27290030B3000030B2000030EF
:10324600B1000030B00008009630B900FE303D05F0
:10325600031946290130B9070130BD36BC0CBB0C39
:10326600BA0C890B302929290130B9070130BA0770
:103276000030BB3DBC3DBD3D0130BD36BC0CBB0C7A
:10328600BA0C890B4029FF303D0503195829372907
:1032960002303902031C5A290130B9020130BA350D
:1032A600BB0DBC0DBD0D890B5229BC1F4B2939180E
:1032B6006429FF30BA05FF30BB057F30BC05FF30FF
:1032C600BD050310B90C3908B400B501B601B70144
:1032D6001830B435B50DB60DB70D890B6C29340809
:1032E600BA043508BB043608BC043708BD043808E0
:1032F600031DB31F7F29BD173D08B3003C08B2006C
:103306003B08B1003A08B0000800FB004001161E59
:103316000800AC31EE2499317830A031672099311C
:10332600003A031DFC170030A031672099317B0855
:103336000319A129AE30A03167209931D530A031CB
:10334600672099318030A03167209931A830A031AB
:10335600672099313F30A03167209931D330A031B1
:10336600672099314030A031672099314030A03133
:10337600672099318D30A031672099311430A03102
:10338600672099318130A03167209931FF30A03113
:1033960067209931D930A03167209931F130A031B9
:1033A600672099312030A031672099310230A03151
:1033B600672099312130A031672099310030A03142
:1033C600672099317F30A031672099312E30A031A6
:1033D60067209931A030A03167209931C030A031E3
:1033E60067209931DA30A031672099310230A03157
:1033F60067209931DB30A031672099314030A03108
:1034060067209931A430A03167209931A630A031C8
:10341600672099317B08031D142AAF30A03167203D
:103426009931AC31B024080040011616093040012C
:10343600BF001E30BE00E430890B1F2ABE0B1F2AB8
:10344600BF0B1F2A0000AD3107259A3168304001B5
:10345600BE00E430890B2D2ABE0B2D2A0000AF31A9
:1034660039279A314301EC1C402AA03129209A3190
:103476004301EC10A03101209A31A33171239A3116
:103486000F304301D0002730D1006430E200003015
:10349600E3000F30E0002730E100CE01CF014F08F6
:1034A6004001BD0043014E084001BC00AE31DB26A1
:1034B6009A31013042015C074301BC0000304201F1
:1034C6005D3D4301BD00003042015E3D4301BE004B
:1034D600003042015F3D4301BF0042015F084301E6
:1034E600BB0042015E084301BA0042015D08430188
:1034F600B90042015C084301B800303042015C0764
:103506004301B000753042015D3D4301B10000301A
:1035160042015E3D4301B200003042015F3D43017E
:10352600B300FC127C12FC117C11FC102F08DB008E
:103536002E08DA002D08D9002C08D8002B08DF0049
:103546002A08DE002908DD002808DC000800AD3165
:1035560022259A3151085306031DB32A50085206F4
:103566000319DE2A5308D1005208D000530840013F
:10357600AD00430152084001AC009531C6259A3191
:1035860043015308803A4001C3008E304302031DB5
:10359600CF2AD930430152020318D92A43014808D9
:1035A600013ECC000030493DCD00DE2A43014908EA
:1035B600CD004808CC000030993188219A3143016A
:1035C6005308803A4001C3008E304302031DEE2AA1
:1035D600753043015202031C002B40019711171648
:1035E60002304001C4003830C300AD30890BF92ADF
:1035F600C30BF92AC40BF92A1D2B43015308803A41
:103606004001C3008E304302031D0C2B07304301DB
:103616005202031C212B4001971117120230400160
:10362600C4003830C300AD30890B172BC30B172BE2
:10363600C40B172B400197151716332B4001171291
:10364600971502304001C4003830C300AD30890BF5
:103656002A2BC30B2A2BC40B2A2B400117169715AE
:1036660043015308803A4001C3008D304302031DD5
:103676003F2B48304301520203180800A0310120B5
:103686009A314001AC01D330AD00B030AE000B3002
:10369600AF0001309431CE249A3152304001C4003B
:1036A6002B30C3000030890B562BC30B562BC40B93
:1036B600562B000040011612A531AC2508009630A5
:1036C6004101EC000030ED002C30EA000130EB0047
:1036D6004201E401E501E201E3014101EE01EF01EE
:1036E60042016508803A4001EF0043014708803AED
:1036F60040016F02031D832B430146084201640209
:103706000318372CFC1E8D2BAC315D244201E201DF
:10371600E3010800FC19892BA1316F219B3143017C
:103726004708803A4001EF0042016508803A4001AF
:103736006F02031DA22B42016408430146020318CF
:10374600BB2B42016508803A4001EF004301450862
:10375600803A40016F02031DB42B43014408420125
:1037660064020318BB2B0830883103209B31C72B1A
:1037760006304001EF003030890BBF2BEF0BBF2B1B
:103786000000A1316F219B3143014708803A400177
:10379600EF0042016508803A40016F02031DD72BF6
:1037A60042016408430146020318EB2B42016508F7
:1037B600803A4001EF0043014508803A40016F021C
:1037C600031DE92B4301440842016402031C08005F
:1037D60041016C086D040319092C0130EC0200301C
:1037E600ED3B4201650841016F02031DFE2B4201BC
:1037F600640841016E020318732B420165084101FA
:10380600EF00420164084101EE00732B6F0843018B
:103816006106031D122C41016E084301600603195F
:103826001F2C41016F084001BD0041016E08400197
:10383600BC00A53151259B3141016F084301E100D0
:1038460041016E084301E0004101EE01EF01323013
:10385600EC000030ED006A086B040319892B013077
:10386600EA020030EB3B732B43014508803A4001E6
:10387600EF0042016508803A40016F02031D472CA4
:10388600420164084301440203180800852BA43151
:103896000B249C318A3187229C3140011716191559
:1038A6004301EC149A3117229C31AC3159249C31D6
:1038B6007C1343012F08DB002E08DA002D08D900FF
:1038C6002C08D8002B08DF002A08DE002908DD00B6
:1038D6002808DC003F0842015F02031D822C4301D9
:1038E6003E0842015E02031D822C43013D0842014F
:1038F6005D02031D822C43013C0842015C02031C4D
:10390600902CB8304301BC070B30BD3D0030BE3DA6
:103916000030BF3D9A31AA229C3143013B08420147
:103926005F02031DA62C43013A0842015E02031DF5
:10393600A62C4301390842015D02031DA62C430152
:10394600380842015C02031CB92C2C304301B8072D
:103956000130B93D0030BA3D0030BB3D8E310E26F8
:103966009C31FC1FB92CA031E8209C31430133085F
:1039760042015F02031DCF2C4301320842015E0261
:10398600031DCF2C4301310842015D02031DCF2CDC
:103996004301300842015C02031CD42CA031E8200C
:1039A6009C3143012F082E042D042C040319E32C0B
:1039B6005B085A0459045804031DE32C40011612EF
:1039C60043012B082A04290428040319F32C5F0851
:1039D6005E045D045C04031DF32CA531AC259C310B
:1039E600FC1EFF2C4001161EFC2CAC315D249C31C4
:1039F600FF2C9A3117229C317C1E0B2D4001161E7E
:103A0600082DA33125239C310B2D9A3117229C3189
:103A1600FC1D172D4001161E142DAD3197259C3126
:103A2600172D9A3117229C317C1D222D4001161A22
:103A36001F2D9A3117229C318731FC279C31FC1CA3
:103A46006D2C4001161A2E2DAE3115269C319A3159
:103A560017229C316D2CA33125239C316D2CF70048
:103A66007718382D400199173A2D40019913770898
:103A7600F6000130F636890B3D2D7618452D4001AE
:103A86001917472D400119137708F6000230F6364C
:103A9600890B4A2D7618522D40019916542D400156
:103AA60099127708F6000330F636890B572D7618EB
:103AB6005F2D40011916612D400119127708F60095
:103AC6000430F636890B642D76186C2D4001981754
:103AD6006E2D400198137708F6000530F636890BEF
:103AE600712D7618792D400118177B2D400118137A
:103AF6007708F6000630F636890B7E2D7618862D69
:103B060040019816882D4001981274188D2D400199
:103B160096168F2D400196127408F6000130F6367F
:103B2600890B922D76189A2D40019A149C2D4001EE
:103B36009A107408F6000230F636890B9F2D761817
:103B4600A72D40019617A92D400196137408F6007B
:103B56000330F636890BAC2D7618B42D40011617B6
:103B6600B62D400116137408F6000430F636890B9C
:103B7600B92D7618C12D40011814C32D4001181017
:103B86007408F6000530F636890BC62D7618CE2D4C
:103B960040019814D02D400198107408F6000630A4
:103BA600F636890BD32D7618DB2D40011815DD2D41
:103BB60040011811750C031C1A1003181A149915D4
:103BC60043014D08F2004C08F100AC319E249D31B2
:103BD600400199111A30890BEE2D0032400118125E
:103BE60043014D08F2004C08F100AC319E249D3192
:103BF6004001181643014D08F2004C08F100AC31A3
:103C06009E249D3140019913191399121912981384
:103C16001813981296129A109613161318109810D5
:103C260018111A101530F600C630890B182EF60B2F
:103C3600182E0032080042016708C70043015408E5
:103C4600031D332E0A30F10042016708AD31D52538
:103C56009E31BE00BF013E08C1003F08C200382E9B
:103C660001304201C1000030C2004108CA004A08C2
:103C7600031D3F2E0130CA009B3162239E31420153
:103C86006108C9006008C8004A08E7076708F40029
:103C96006608F50068089D3132259E319B31622306
:103CA6009E3142014908803ABE006108803A3E02D0
:103CB600031D5F2E60084802031CBB2E42016108EB
:103CC600C9006008C8006708C7004A08E70700304F
:103CD600BF004A087F3CBE00031CBF033F08803A72
:103CE600C00080304002031D7A2E67083E02031C86
:103CF600042F42016708F4006608F50068089D3144
:103D060032259E319B3162239E3142014908803A19
:103D1600BE006108803A3E02031D932E60084802E9
:103D2600031C042F42016708C7006108C900600828
:103D3600C80043015408031DAE2E0A30F1004201AB
:103D46006708AD31D5259E31BE00BF013E08C300D0
:103D56003F08C400B32E01304201C3000030C40046
:103D66004308CA004A08031D682E0130CA00682E9F
:103D760042016108C9006008C800E62E42016708D2
:103D8600C7006108C9006008C80043015408031D44
:103D9600DA2E0A30F10042016708AD31D5259E3191
:103DA600BE00BF013E08C5003F08C600DF2E013039
:103DB6004201C5000030C6004508CA004A08031D76
:103DC600E62E0130CA004A08E7024A086702031CC9
:103DD600042F6708F4006608F50068089D3132254F
:103DE6009E319B3162239E3142014908803ABE00D2
:103DF6006108803A3E02031D022F6008480203183C
:103E0600C12E42014708E7006708F4006608F5007E
:103E160068089D313225080042016808C700430141
:103E26005408031D242F0A30F10042016808AD3101
:103E3600D5259F31BE00BF013E08C1003F08C20024
:103E4600292F01304201C1000030C2004108CA00DA
:103E56004A08031D302F0130CA009B3162239F316F
:103E660042016108C9006008C8004A08E8076708F7
:103E7600F4006608F50068089D3132259F319B31B4
:103E860062239F3142014908803ABE006108803AA8
:103E96003E02031D502F60084802031CAC2F42014E
:103EA6006108C9006008C8006808C7004A08E80732
:103EB6000030BF004A087F3CBE00031CBF033F081A
:103EC600803AC00080304002031D6B2F68083E0216
:103ED600031CF52F42016708F4006608F500680820
:103EE6009D3132259F319B3162239F314201490822
:103EF600803ABE006108803A3E02031D842F6008A6
:103F06004802031CF52F42016808C7006108C90072
:103F16006008C80043015408031D9F2F0A30F100B2
:103F260042016808AD31D5259F31BE00BF013E086C
:103F3600C3003F08C400A42F01304201C300003073
:103F4600C4004308CA004A08031D592F0130CA009D
:103F5600592F42016108C9006008C800D72F4201E5
:103F66006808C7006108C9006008C8004301540812
:103F7600031DCB2F0A30F10042016808AD31D5256B
:103F86009F31BE00BF013E08C5003F08C600D02FC6
:103F960001304201C5000030C6004508CA004A0883
:103FA600031DD72F0130CA004A08E8024A086802F2
:103FB600031CF52F6708F4006608F50068089D31B4
:103FC60032259F319B3162239F3142014908803A55
:103FD600BE006108803A3E02031DF32F60084802C6
:103FE6000318B22F42014708E8006708F400660884
:0A3FF600F50068089D31322508002F
:104002004001161E0800AC31EE24A0317830A031F8
:104012006720A0314030A0316720A031AD01A70157
:104022002D08A1312B21A031AC010130AC070030A9
:10403200A0316720A03180302C02031C16280130E9
:10404200AD0708302D02031C1028AC31B024080043
:1040520040019711A0310120A0314001AC01623032
:10406200AD00B030AE001230AF000130A2318D226F
:10407200A0314001AC01A130AD00B030AE000C3037
:10408200AF000330A2318D22A03154304001AC0088
:104092003330AD00B130AE000330AF000330A23197
:1040A2008D22A0317A304001BB00C130BA0081308C
:1040B200890B5928BA0B5928BB0B592800324001E9
:1040C2008D1A652800006028971508004001A50098
:1040D200A6012508A2000730A236890B6D28220806
:1040E2000139A300A30DA30D16082306FB392306ED
:1040F20096004230890B7B280032400196154230EF
:10410200890B81280032400196112535A500013026
:10411200A60708302602031C6A2816154230890BAE
:1041220090280032400196150C0C890C0139A4002C
:104132004230890B9A280032400196114230890B95
:10414200A02800324001240808004001C100971154
:104152007C1CB22841080319B228AE31AD26A03129
:10416200B528A231D922A0310D304001C0002D3036
:10417200BF00D730890BBB28BF0BBB28C00BBB28A5
:10418200003240019715FC127C114201EA015F08DE
:104192004301BF0042015E084301BE0042015D08C7
:1041A2004301BD0042015C084301BC0042015F08BB
:1041B2004301BB0042015E084301BA0042015D08AF
:1041C2004301B90042015C084301B80008003030E5
:1041D20042015C074301B000753042015D3D43017D
:1041E200B100003042015E3D4301B20000304201A5
:1041F2005F3D4301B3004001161E0800FC13AD31C0
:104202000725A031003099318821A031A3317123D3
:10421200A03143014F084001BD0043014E08400157
:10422200BC00AE31DB26A0310F304301E000273065
:10423200E1000F3050062730031951060319080018
:1042420051084001AD00430150084001AC009531D6
:10425200C6250800A8002708023EAB00AC31EE24B8
:10426200A1317830A0316720A131003A031DFC173B
:104272000030A0316720A1312808B03EA03167206C
:10428200A13110302B0203184A292B08A900AA01D8
:104292005B292B08FB000430FB36890B4D297B0878
:1042A200AA00F030F1002A08AC316D24A13140019E
:1042B2002B07A9002908A0316720A1312A08103E46
:1042C200A0316720A131AC31EE24A1317830A03188
:1042D2006720A1314030A03167200800A7317B2739
:1042E200A1312408B0002508B100890D893B890954
:1042F200B200B30001309831FB20A13133084101F3
:10430200E100400132084101E00040013108410171
:10431200DF00400130084101DE0098317620A131F2
:104322002408B0002508B100890D893B8909B20033
:10433200B30001309831FB20A13133084101E5007F
:10434200400132084101E400400131084101E3002B
:10435200400130084101E2008031F220A131AE314A
:10436200382608004001161E0800AC31EE24A131A7
:104372007830A0316720A1314030A0316720A131CF
:10438200B3017330A7003308A1312B21A131B2014F
:104392003308AC00AD012C08F7002D08F8000B30F3
:1043A200F9000030FA00AD315B25A1310030AE00DA
:1043B200B030AF0077082E07B00078082F3DB1006B
:1043C20032083007840031080318013E85000008D6
:1043D200A0316720A1310130B2070B303202031C39
:1043E200C9290130B30704303302031CC229AC319E
:1043F200B024080000304105C90000304205CA005F
:1044020080304305CB007F304405CC004C084B0480
:104412004A044904031D152A0030C4000030C300B9
:104422000030C2000030C10000304505C900003034
:104432004605CA0080304705CB007F304805CC00D6
:104442004C084B044A044904031D2F2A0030C800BB
:104452000030C7000030C6000030C50048084406DE
:10446200031D3D2A47084306031D3D2A460842060E
:10447200031D3D2A450841060319412A031008007D
:10448200031408000030A7000030A6000030A50089
:104492006430A4003208F1003308F200890D893B30
:1044A2008909F300F4000030F8000030F700003012
:1044B200F6001930F500AF319C27A2317408AB0029
:1044C2007308AA007208A9007108A800A631FE2686
:1044D200A2312708B7002608B6002508B50024082F
:1044E200B400B71B812A3708031D872A3608031D2B
:1044F200872A3508031D872AC93034020318872A00
:1045020040013508B3003408B2000800C830400149
:10451200B2000030B3000800B600161E08002C08D6
:10452200A7003608A1312B21A231B8012F08380289
:104532000318D62A38082D0784002E080318013ED6
:1045420085000008E03EB700B9013708B000B101AC
:104552003008F7003108F8000530F9000030FA00A1
:10456200AD315B25A2310030B2009030B300770844
:104572003207B4007808333DB500390834078400A7
:1045820035080318013E85000008A0316720A231DA
:104592000130B90705303902031CA62A0030A031C8
:1045A2006720A2310130B807972AAC31B024080045
:1045B2007C18EC2A420168084301D70042016708CF
:1045C2004301D600420166084301D5006308CB00CF
:1045D2006208CA007C144201E801E701E6016708AB
:1045E200F4006608F50068089D313225A2314001C9
:1045F200AC010730AD00B130AE000930AF0002307F
:104602009431CE24A23119304001BE005A30BD008F
:10461200B130890B0A2BBD0B0A2BBE0B0A2B0032C1
:104622000530AD31F425A2314301CE01CF013C303A
:104632004001AC002A30AD00B130AE000430AF0012
:1046420002309431CE24080040019711AC01FD30B4
:10465200AD00B030AE000930AF0002309431CE244C
:10466200A331400119117C10A6310B26A33142015E
:1046720063084301CF00420162084301CE004201B8
:1046820063084301E300420162084301E200A031F2
:10469200E8204001191597157C12FC104201EA012D
:1046A2005F084301BF0042015E084301BE004201B0
:1046B2005D084301BD0042015C084301BC004201A8
:1046C2005F084301BB0042015E084301BA00420198
:1046D2005D084301B90042015C084301B8000800CB
:1046E2004001AC012030AD00B130AE000430AF006B
:1046F20000309431CE24A33160304001AC003B3015
:10470200AD00B130AE00AF01AF0A00309431CE241B
:10471200A331A131B321A3312A304001AC0037309B
:10472200AD00B130AE00AF01AF0A00309431CE24FB
:10473200A3317C18A12B25304001BC00B130A52B40
:104742001B304001BC00B130BD00AC013D08AE00E1
:104752003C08AD000430AF0002309431CE24A331C6
:104762002A304001AC003730AD00B130AE00AF01AD
:10477200AF0A02309431CE240800A701A31FC82B30
:10478200A209A309A20A0319A30A0130A700A51FBF
:10479200D12BA409A509A40A0319A50A0130A70669
:1047A200A801A901220823040319FE2B0130A60047
:1047B200A31BE32B0130A235A30D890BDC2B0130A7
:1047C200A607D92B0130A835A90D890BE42B2308A4
:1047D2002502031DEE2B22082402031CF52B2208BE
:1047E200A4022308A53B28140130A336A20C890B8E
:1047F200F62B0130A602031DE32B27080319062C12
:10480200A809A909A80A0319A90A2908A3002808BE
:10481200A20008007E01B801C3014314C31443156A
:10482200CE01E401D90153019013941340018C018C
:104832008D018E018F019001960197011030980031
:10484200063099009A019101273092009301940158
:1048520095017E013A15BA15DB145B1540019F12D2
:104862001F179F131E16C0309C00E0309D004E01A2
:104872008C1240019E174E0196161E304F01960073
:10488200FE309700473098007F30990077309A00C9
:10489200DF309B008B170530F2000F30F100F13052
:1048A200890B512CF10B512CF20B512C00000800FA
:1048B2004201C1019B316223A43142016108C3005C
:1048C2006008C2000130E7006F2C42016708C10096
:1048D2006108C3006008C2000310E70D413067029F
:1048E2000318A02C6708F4006608F50068089D31DB
:1048F2003225A4319B316223A43142014308400195
:10490200B300420142084001B200A2314322A43165
:1049120042014208400132074201BE004308400101
:10492200333D4201BF003F08803AC0006108803A2F
:104932004002031D9E2C60083E020318662C4201B1
:104942004108E7006708F4006608F50068089D3131
:10495200322508004201C1019B316223A431420188
:104962006108C3006008C2000130E800C12C4201A6
:104972006808C1006108C3006008C2000310E80DA6
:10498200413068020318F22C6708F4006608F5004B
:1049920068089D313225A4319B316223A431420142
:1049A20043084001B300420142084001B200A23173
:1049B2004322A43142014208400132074201BE00B3
:1049C20043084001333D4201BF003F08803AC00026
:1049D2006108803A4002031DF02C60083E02031871
:1049E200B82C42014108E8006708F4006608F500A7
:1049F20068089D31322508004201C3019B316223C0
:104A0200A43142016108C2006008C1000130E8001F
:104A1200132D42016808C3006108C2006008C1008A
:104A22000310E80D413068020318442D6808F400B1
:104A32006608F50068089D313225A4319B31622356
:104A4200A431420142084001B30042014108400141
:104A5200B200A2314322A43142014108400132078F
:104A62004201BE0042084001333D4201BF003F08FF
:104A7200803AC0006108803A4002031D422D60085E
:104A82003E0203180A2D42014308E8004308E700EA
:104A92006708F4006608F50068089D3132250800B1
:104AA2003C083D04031D612D3C30AC002F30AD00AD
:104AB200B130AE000330AF0000309431CE24080094
:104AC20000303D020A3003193C020318782D3D08DC
:104AD200F9003C08F8002030FA0087319A27A53106
:104AE20030304401A8002E30A90025089E2D003048
:104AF2003D02643003193C0203188B2D3D08F90076
:104B02003C08F8002030FA0087319A27A531440189
:104B12002408732D0530BC070030BD3D3D08F90067
:104B22003C08F8002030FA0087319A27A53120305E
:104B32004401A8002308A9002408AA003C3040012F
:104B4200AC002830AD000230AE000330AF000030C0
:104B52009431CE2408008B1340019E134E018C1217
:104B620016167E01CA12C91640011612171697159B
:104B7200C2014208031DCC2D05304001C1000F3097
:104B8200C000F130890BC32DC00BC32DC10BC32D47
:104B92007E01CA126300000005304001C1000F30DF
:104BA200C000F130890BD32DC00BD32DC10BD32DF7
:104BB20040018D1ADF2D0130C207E02DC2011030F5
:104BC2004202031CBA2D4E0116127E01C912CA12EC
:104BD20040019E178B174301EC149A311722A5311D
:104BE20040018D1AF62D0000F12D4201EA01FC125E
:104BF2007C12FC115F084301B70042015E084301C9
:104C0200B60042015D084301B50042015C08430160
:104C1200B40008009B316223A63142016308803A46
:104C2200D20080305202031D182E79306202031C1A
:104C32000800AF310A27A6319B316223A631420117
:104C42006308803AD20080305202031D2A2E793046
:104C52006202031C080042016108D4006008D3000C
:104C62006708D5006808D6006603031D3A2EE601E0
:104C72003C2E0130E600AF310A27A6319B31622378
:104C8200A63142015408803AD2006108803A5202A9
:104C9200031D4D2E600853020318662E420166035F
:104CA200031D552EE601572E0130E6005508E70098
:104CB2005608E8006708F4006608F50068089D31A8
:104CC2003225A6319B316223A63142016308803A24
:104CD200D20080305202031D702E79306202031C12
:104CE2000800AF31CE27A6319B316223A631E730CF
:104CF20042016206033003196306031D080098315E
:104D02000020080000304105C90000304205CA00F9
:104D120080304305CB007F304405CC004C084B0467
:104D22004A044904031D9D2E0030C4000030C30014
:104D32000030C2000030C10000304505C90000301B
:104D42004605CA0080304705CB007F304805CC00BD
:104D52004C084B044A044904031DB72E0030C80016
:104D62000030C7000030C6000030C500C41FD12E7D
:104D72000030C9000030CA000030CB008030CC00C7
:104D82004108C9024208CA3B4308CB3B4408CC3B1A
:104D92004C08C4004B08C3004A08C2004908C100BD
:104DA200C81FEB2E0030C9000030CA000030CB0013
:104DB2008030CC004508C9024608CA3B4708CB3BB5
:104DC2004808CC3B4C08C8004B08C7004A08C6003C
:104DD2004908C5008030C4068030C806480844022D
:104DE200031D080047084302031D0800460842024B
:104DF200031D0800450841020800AD01A71F0E2F40
:104E0200A409A509A609A709A40A0319A50A031951
:104E1200A60A0319A70A0130AD00AB1F1D2FA8096E
:104E2200A909AA09AB09A80A0319A90A0319AA0A16
:104E32000319AB0A0130AD060030B1000030B000FA
:104E42000030AF000030AE002708260425042404F9
:104E52000319642F0130AC00A71B392F0130A43590
:104E6200A50DA60DA70D890B302F0130AC072D2FF4
:104E72000130AE35AF0DB00DB10D890B3A2F2708B9
:104E82002B02031D4E2F26082A02031D4E2F250832
:104E92002902031D4E2F24082802031C592F24081F
:104EA200A8022508A93B2608AA3B2708AB3B2E14DB
:104EB2000130A736A60CA50CA40C890B5A2F013081
:104EC200AC02031D392F2D080319722FAE09AF0949
:104ED200B009B109AE0A0319AF0A0319B00A0319DE
:104EE200B10A3108A7003008A6002F08A5002E0835
:104EF200A40008002030AE315D26A731A030003278
:104F0200890B802F0830AC317C24A7317208400114
:104F1200AB007108AA002A0A033003192B06031DED
:104F2200A32F4030AE315D26A731A0300032890B6D
:104F3200972F0830AC317C24A73171354001AA008B
:104F4200720DAB00FE302A06073003192B06031D33
:104F5200FB2F1030AE315D26A731A0300032890B15
:104F6200AF2F0830AC317C24A73172084001AB006E
:104F72007108AA002A0A033003192B0603197C17A9
:104F8200AD312225A73140012A08F1002B08F20099
:104F9200F301F40143015208F5005308F600890DAC
:104FA200893B8909F700F800AF319C27A7317408C3
:104FB200AF007308AE007208AD007108AC002C0897
:104FC200A6002D08A7002E08A8002F08A9000A3065
:104FD200A936A80CA70CA60C890BE92F2908AF004B
:104FE2002808AE002708AD002608AC002D08AB004B
:0E4FF2002C08AA002B08A5002A08A40008001D
:1058B2001030AE315D2608000130A031A62008006C
:1058C200640080010131890B622C0034FE00120059
:1058D2001E00FE0B682C0034F300F201731C732CC3
:1058E2007108F2070310F10D0310F30C7308031D86
:1058F2006F2C72080800F300730841019E003530D6
:10590200890B812C0000410113141318862C0D08F9
:10591200F2000C08F1000800F6000F307605F400E2
:105922000A30F1007608F5000430F536890B962C22
:105932007508AC316D24740708000130F1020030A3
:10594200F23B710A0319720A031908000B30F300C3
:105952006230890BAA2CF30BAA2C00329E2C400138
:1059620016114230890BB32C003240019615423099
:10597200890BB92C0032400116154230890BBF2C1D
:10598200003208000A340034003400340A3400348F
:10599200003400340F3427346434003401340234C8
:1059A200403478340134023440347834F4007408DA
:1059B200031DDD2C00300800FF307407F100F10AEE
:1059C2008030F2000030F300E92C730DF30CF20C7E
:1059D200F10BE62C7208003C08004001961542309B
:1059E200890BF12C0032400116154230890BF72C3D
:1059F2000032400116114230890BFD2C0032400169
:105A020096114230890B032D003208004001161511
:105A1200F1011B2D40010C191F2D96114230890BEB
:105A2200102D0032400196154230890B162D00329E
:105A32000130F10709307102031C0B2DAC31B02487
:105A420008002030AE315D26AD31A0300032890B26
:105A5200272D0930AC317C24AD317208F800710871
:105A6200F7000B30F9000030FA00AD315B25780801
:105A72004301D3007708D20008008030BC064008FA
:105A8200B0003F08AF003E08AE003D08AD003C0844
:105A9200B4003B08B3003A08B2003908B1008C31B7
:105AA20025243008BC002F08BB002E08BA002D08A0
:105AB200B90008004001A001A101771C652D7908F9
:105AC2004001A0077A08A13D0130F935FA0D890B92
:105AD200662D0130F836F70C890B6B2D77087804A8
:105AE200031D5E2D40012108F8002008F700080080
:105AF200F200F301F4017208F100740A812DF1360B
:105B0200890B802D711C8F2D0330F1007435890AA9
:105B12008B2DF135890B8A2D7108F3040130F407BE
:105B220004307402031C7C2D73080800A03101208C
:105B3200AD314001AC01C730AD00B030AE000B302A
:105B4200AF0001309431CE24AD3152304001C40057
:105B52002B30C3000030890BAC2DC30BAC2DC40B12
:105B6200AC2D0000A531AC250800F900F501F601C5
:105B72007108F300F4017308F7007408F800791C47
:105B8200C62D7708F5077808F63D0130F735F80D90
:105B9200890BC72D0310F90C7908031DC02D760857
:105BA200F2007508F1000800F200F401710803190F
:105BB200F22D0130F300F11BE32D0310F10D013042
:105BC200F307DC2D0310F40D71087202031CED2D96
:105BD2007108F20274140310F10C0130F302031D78
:105BE200E32D740808004001BC007C1CFD2DAC01B3
:105BF200E930AD00B030012EAC01F330AD00B03071
:105C0200AE003C08AF0002309431CE24AD312A30D0
:105C12004001AC003730AD00B130AE00AF01AF0A89
:105C220002309431CE2408009711161619117C10F7
:105C32009B316223AE3142016308803AD700803043
:105C42005702031D262E64306202031C2A2EA6313F
:105C52000B2640011915420163084301CF0042019E
:105C620062084301CE0040019715FC100800650848
:105C7200803A4001C00080304002031D432E0130B3
:105C820042016402031C08004001161E5A2E430101
:105C92002F08DB002E08DA002D08D9002C08D800C6
:105CA2002B08DF002A08DE002908DD002808DC00B6
:105CB20008009A3117220800F30041019313730878
:105CC20060390319792E731B682E0130692E023058
:105CD200F1000030F20052010C087106FC39710625
:105CE2008C008C170C1F732E033041019A007A2E00
:105CF2009A019401950196019D019C011430930033
:105D020093170800710872040319A82E0130F500D8
:105D1200F21B932E0130F135F20D890B8C2E0130DE
:105D2200F507892E72087402031D992E71087302F9
:105D3200031C9F2E7108F3027208F43B0130F23605
:105D4200F10C890BA02E0130F502031D932E74086D
:105D5200F2007308F10008007C1043015708420169
:105D6200E800430156084201E70043015508420199
:105D7200E6006708F4006608F50068089D313225E0
:105D8200AE3143014B08E3004A08E2000530AD3171
:105D9200F425AE314301CE01CF013C304001AC00CD
:105DA2002A30AD00B130AE000430AF000230943181
:105DB200CE2408003C083D04031DEB2E3C30AC0011
:105DC2002A30AD00B130AE000430AF000230943161
:105DD200CE2408003D08F9003C08F8002030FA0003
:105DE20087319A27AE3144012308A8002E30A9003A
:105DF2002408AA002508AB003C304001AC00283042
:105E0200AD000230AE000430AF0002309431CE2437
:105E120008004201E701E8016708F4006608F5009E
:105E220068089D313225AF319B316223AF31420187
:105E32006308803AD10080305102031D222F79304D
:105E42006202031C08009331D923AF319B316223D4
:105E5200AF3142016308803AD10080305102031D04
:105E6200342F79306202031C0800AF31CE270800BC
:105E72004001B001AC31EE24AF317830A03167205F
:105E8200AF31003A03195C2FAC31B024AF310D3081
:105E92004001AF002D30AE00D730890B4E2FAE0B34
:105EA2004E2FAF0B4E2F003201304001B0070A30A7
:105EB2003002031C3B2FAC31B024AF310130993199
:105EC2008821AF31A0310120AF31AF309331C023EF
:105ED2000800F601F701710872040319972F0130C7
:105EE200F500F21B7C2F0130F135F20D890B752F75
:105EF2000130F507722F0130F635F70D890B7D2F32
:105F020072087402031D872F71087302031C8E2FFF
:105F12007108F3027208F43B76140130F236F10C88
:105F2200890B8F2F0130F502031D7C2F7708F200B9
:105F32007608F100080000304001A3000030A20002
:105F42000030A1000030A000711CB02F7508400184
:105F5200A0077608A13D7708A23D7808A33D01304D
:105F6200F535F60DF70DF80D890BB12F0130F4362A
:105F7200F30CF20CF10C890BB82F74087304720441
:105F82007104031DA52F40012308F4002208F30029
:105F92002108F2002008F10008004301D401420167
:105FA200CD016708CB006808CC0068086702031CB3
:105FB200E12F9E311E26AF319F310F27AF31E72FE0
:105FC2009F310F27AF319E311E26AF314201670844
:105FD2004B06031DF62F68084C06031DF62F4301DE
:105FE2005408031DFD2F0130D40001304201CD07BA
:105FF20004304D02031CD22F4301D4010800F834AF
:10600200F8341F341F340334033403341F341F3471
:10601200F834F834FF34FF340034003400340034F0
:10602200003400340034FF34FF34FF34FF340034D2
:10603200003400340034003400340034FF34FF34C0
:10604200FF34FF34C034C034C034C034C034C03430
:10605200C034FF34FF34F834F8341F341F340334AF
:10606200033403341F341F34F834F834FF34FF345C
:106072000034003400340034003400340034FF347F
:10608200FF34FF34FF340034003400340034003471
:1060920000340034FF34FF34FF34FF34C034C034E2
:1060A200C034C034C034C034C034FF34FF3405348B
:1060B20030340734103415341334013404341434B6
:1060C20060342034443445345334493447344E34F4
:1060D2004534443420344234593420344E34373435
:1060E20044344434433400345334743461346334B8
:1060F2006B34203475346E346434653472346634EF
:106102006C346F3477340034533474346134633410
:106112006B3420346F3476346534723466346C34C4
:106122006F34773400344D3443344C345234203499
:10613200723465347334653474342034203400345A
:106142002034463457342034563445345234533490
:1061520049344F344E3420340034573444345434A8
:1061620020346F3476346534723466346C346F3470
:106172007734003442344F3452342034723465342C
:106182007334653474342034203400342034503471
:106192004F3457344534523420344F344634463425
:1061A20020340034203420344C344F3457342034DB
:1061B20042344134543454342034003420342034B2
:1061C200203420342034203420342034203400344D
:1061D2004234593450342034203420342034203492
:1061E2002034003453345734523420342034203491
:1061F2002034203420340034543455344E34453461
:1062020020342034203420342034003442345934B1
:106212005034413453345334203420342034003445
:106222004F345634453452344C344F344134443470
:106232002034003442345934503420340034503441
:1062420057345234203400345334573452342034C7
:10625200003430342E3430343034003430342E3480
:106262003034003431342E34363400343D3400348A
:086272003E34003457340034BF
:020000040001F9
:0A000E008C3F3D3F9F3FFF3FFF3F47
:00000001FF
