:040000008031C6285D
:100008007E14803100308600003087004E018C1E3F
:10001800C4288C1201304201DA070030DB3DDC3D98
:10002800DD3D430159085804570456040319222892
:100038000130D6020030D73BD83BD93B5D085C0481
:100048005B045A0403192E280130DA020030DB3B26
:10005800DC3BDD3BC03040019C00E0309D004301AB
:10006800330842015D02031D492843013208420159
:100078005C02031D49284301310842015B02031D4C
:1000880049284301300842015A02031CC4280A3097
:100098004301B0070030B13DB23DB33D40018F1878
:1000A8005728013058280030F0008D1A5D2801309B
:1000B8005E280030700400380319732843012F08A4
:1000C800D9002E08D8002D08D7002C08D6002B08F8
:1000D800DD002A08DC002908DB002808DA004001D6
:1000E8008D1A9228FA304201690203187D280130DE
:1000F800E9071930690603197C164001160E013903
:10010800F000FA3042016906031D8C2801308D2861
:100118000030700503199D28FC159D280330420105
:100128006902031C9C281930690203189C28FC16D4
:10013800E90140018F18B9281930420168020318F3
:10014800A7280130E80740010F0C890C0139F0009D
:10015800143042016806031DB3280130B42800306A
:1001680070050319C428FC14C4280230420168022F
:10017800031CC3280A3068020318C3287C15E80149
:100188007E1009008031C82842018731FF2780315D
:10019800EA0055308400AE308500D6308600013044
:1001A80087001330883105208031FC015A308400E3
:1001B800013085001030983100208031A030840053
:1001C800013085003630983100208031203084009D
:1001D800023085000830983100207E1040019B31A4
:1001E800952B44304001C1007A30C0000030BF0078
:1001F8000030BE00410161084001C50041016008AE
:100208004001C40041015F084001C30041015E088C
:100218004001C20089310C21803141084101E100CF
:10022800400140084101E00040013F084101DF0072
:1002380040013E084101DE0044304001C1007A30EF
:10024800C0000030BF000030BE0041016508400119
:10025800C500410164084001C40041016308400130
:10026800C300410162084001C20089310C2180317C
:1002780041084101E500400140084101E400400116
:100288003F084101E30040013E084101E2006108E6
:100298004001DB00410160084001DA0041015F08CC
:1002A8004001D90041015E084001D80043012708F8
:1002B8004001DF00430126084001DE004301250814
:1002C8004001DD00430124084001DC0085310F2591
:1002D80080315B084201A70040015A084201A6008C
:1002E800400159084201A500400158084201A400F4
:1002F800410161084001DB00410160084001DA006A
:1003080041015F084001D90041015E084001D80061
:10031800430123084001DF00430122084001DE00B9
:10032800430121084001DD00430120084001DC00B1
:1003380085310F2580315B084101B00040015A0822
:100348004101AF00400159084101AE004001580881
:100358004101AD0061084001DB0041016008400136
:10036800DA0041015F084001D90041015E084001FF
:10037800D800420127084001DF0042012608400159
:10038800DE00420125084001DD0042012408400149
:10039800DC0085310F2580315B084101B400400144
:1003A8005A084101B300400159084101B200400117
:1003B80058084101B1008C31132480313008E10024
:1003C8002F08E0002E08DF002D08DE006508400138
:1003D800DB00410164084001DA0041016308400183
:1003E800D900410162084001D800430127084001B3
:1003F800DF00430126084001DE00430125084001D3
:10040800DD00430124084001DC0085310F258031DF
:100418005B084201A70040015A084201A6004001BA
:1004280059084201A500400158084201A4004101B1
:1004380065084001DB00410164084001DA00410120
:1004480063084001D900410162084001D800430116
:1004580023084001DF00430122084001DE00430178
:1004680021084001DD00430120084001DC008531FE
:100478000F2580315B084101B00040015A08410155
:10048800AF00400159084101AE0040015808410140
:10049800AD0065084001DB00410164084001DA0055
:1004A800410163084001D900410162084001D800B8
:1004B800420127084001DF00420126084001DE0012
:1004C800420125084001DD00420124084001DC000A
:1004D80085310F2580315B084101B40040015A087D
:1004E8004101B300400159084101B20040015808D8
:1004F8004101B1008C31132480313008E5002F0808
:10050800E4002E08E3002D08E20061084001DF0046
:10051800410160084001DE0041015F084001DD0043
:1005280041015E084001DC004130DB002030DA0088
:100538000030D9000030D80085310F2580315B08A4
:100548004101B40040015A084101B3004001590873
:100558004101B200400158084101B1003F30B000EC
:100568000030AF000030AE000030AD008C311324F5
:1005780080313008BC002F08BB002E08BA002D08B7
:10058800B900A4314F24803141013A084201E30007
:10059800410139084201E20000304101C400003045
:1005A800C3000030C2000030C1006108C800600804
:1005B800C7005F08C6005E08C50098310620803174
:1005C8000318FB2A6508C4006408C3006308C20056
:1005D8006208C1006108C8006008C7005F08C6005B
:1005E8005E08C500983106208031031C012B1030AD
:1005F8004201DE002730DF00632B65084001C5009B
:10060800410164084001C400410163084001C3007E
:10061800410162084001C200410161084001C10076
:10062800410160084001C00041015F084001BF006E
:1006380041015E084001BE0089310C21803141082A
:10064800DF004008DE003F08DD003E08DC004630E1
:10065800DB001C30DA004030D9000030D80085318A
:100668000F2580315B084101B40040015A0841015F
:10067800B300400159084101B20040015808410146
:10068800B1003F30B0000030AF000030AE000030A5
:10069800AD008C31132480313008BC002F08BB001A
:1006A8002E08BA002D08B900A4314F248031410129
:1006B8003A084201DF00410139084201DE006308BF
:1006C800803AFB0043014308803A7B02031D6F2BED
:1006D8004208420162020318752B4201E001E10160
:1006E800080041016508C4006408C3006308C2002B
:1006F8006208C1006108C8006008C7005F08C6003A
:100708005E08C500983106208031031C912BE73024
:100718004201E0000330E100080061084001C10027
:10072800410160084001C00041015F084001BF006D
:1007380041015E084001BE00410165084001C50055
:10074800410164084001C400410163084001C3003D
:10075800410162084001C20089310C218031410801
:100768004201A300400140084201A20040013F08A5
:100778004201A10040013E084201A00023084101B6
:10078800D000420122084101CF0042012108410165
:10079800CE00420120084101CD009631C9268031A2
:1007A80050084201AB0041014F084201AA00410133
:1007B8004E084201A90041014D084201A8003F30FE
:1007C8004101C0008030BF000030BE000030BD00D5
:1007D80042012B084101BC0042012A084101BB002B
:1007E800420129084101BA00420128084101B90023
:1007F800AE31B42680313C08C4003B08C3003A0837
:10080800C2003908C1000030C8000030C7000030FD
:10081800C6000030C500A23164228031031C1D2CA3
:100828003A304201AB008330AA001230A9006F3081
:10083800A80042012B084101BC0042012A084101DD
:10084800BB00420129084101BA00420128084101C0
:10085800B9003F30C0008030BF000030BE0000301B
:10086800BD00AE31B42680313C084001C1004101D1
:100878003B084001C00041013A084001BF00410166
:1008880039084001BE003F304101B0008030AF0060
:100898000030AE000030AD0042012B084101B40029
:1008A80042012A084101B300420129084101B2006E
:1008B800420128084101B1008C31132480313008ED
:1008C8004001C50041012F084001C40041012E0824
:1008D8004001C30041012D084001C20089310C21AB
:1008E800803141084201AB00400140084201AA00A2
:1008F80040013F084201A90040013E084201A8000A
:100908002B084101C40042012A084101C3004201E9
:1009180029084101C200420128084101C1003F30B5
:10092800C8008030C7000030C6000030C5009831CC
:10093800062080310318A92C3F304201AB008030DB
:10094800AA000030A9000030A80041304101C400CD
:100958001F30C300C230C2008F30C10042012B08D3
:100968004101C80042012A084101C7004201290883
:100978004101C600420128084101C50098310620FE
:100988008031031C8B2B42012B084001DF00420100
:100998002A084001DE00420129084001DD00420129
:1009A80028084001DC004230DB00C830DA000030A3
:1009B800D9000030D80085310F2580315B0841010E
:1009C800B40040015A084101B300400159084101EF
:1009D800B200400158084101B1003F30B00000307A
:1009E800AF000030AE000030AD008C3113248031F0
:1009F8003008BC002F08BB002E08BA002D08B9002B
:100A0800A4314F2441013A084201E100410139086B
:100A18004201E00008005B0880394101A000400164
:100A28005B354101A2004001DA1F1C2D410122144F
:100A38004101220803192F2D220A031D2C2D0030F5
:100A48004001DB000030DA000030D9000030D80067
:100A58004001DA17382D00304001DB000030DA00A1
:100A68000030D9000030D8005F0880394101A00665
:100A780040015F354101A1004001DE1F452D4101C4
:100A88002114410121080319582D210A031D552D50
:100A980000304001DF000030DE000030DD000030B3
:100AA800DC004001DE17612D00304001DF0000301E
:100AB800DE000030DD000030DC0041012108031DAC
:100AC8002208031D712D00304001DB000030DA00E0
:100AD8000030D9000030D800080040015808F10063
:100AE8005E08AF312C27853172084101AC007108CE
:100AF800AB002B084001E000E101E201E3016308DB
:100B08004101A600400162084101A50040016108B9
:100B18004101A400400160084101A3002C084001E4
:100B2800E000E101E201E30163084101AA0040019C
:100B380062084101A900400161084101A800400183
:100B480060084101A70040015908F1005D08AF3174
:100B58002C27853172084101AC007108AB002B08C5
:100B68004001E000E101E201E30160084101A3075F
:100B7800400161084101A43D400162084101A53DD1
:100B8800400163084101A63D2C084001E000E10155
:100B9800E201E30160084101A70740016108410142
:100BA800A83D400162084101A93D40016308410197
:100BB800AA3D40015A08F1005C08AF312C27853165
:100BC80072084101AC007108AB002B084001E0003D
:100BD800E101E201E30160084101A3074001610866
:100BE8004101A43D400162084101A53D400163085F
:100BF8004101A63D2C084001E000E101E201E301CA
:100C080060084101A707400161084101A83D400172
:100C180062084101A93D400163084101AA3D08302D
:100C2800A335A40DA50DA60D890B142E4001590856
:100C3800F1005C08AF312C27853172084101AC0006
:100C48007108AB002B08A3072C08A43D0030A53D74
:100C5800A63D40015808F1005D08AF312C278531C9
:100C680072084101AC007108AB002B08A3072C08DF
:100C7800A43D0030A53DA63D0830A335A40DA50D23
:100C8800A60D890B412E40015808F1005C08AF31D0
:100C98002C27853172084101AC007108AB002B0884
:100CA800A3072C08A43D0030A53DA63D40015908E6
:100CB800F1005E08AF312C27853172084101AC0084
:100CC8007108AB002B08A7072C08A83D0030A93DE8
:100CD800AA3D40015A08F1005D08AF312C27853143
:100CE80072084101AC007108AB002B08A7072C085B
:100CF800A83D0030A93DAA3D40015A08F1005E0810
:100D0800AF312C27853172084101AC007108AB0066
:100D18002B084001E00041012C084001E100E201FC
:100D2800E3010830E035E10DE20DE30D890B962E65
:100D380060084101A707400161084101A83D400141
:100D480062084101A93D400163084101AA3D260806
:100D58004001E000E101E201E30160084101A70769
:100D6800400161084101A83D400162084101A93DD7
:100D7800400163084101AA3D0830A335A40DA50D23
:100D8800A60D890BC12E220821074001E000E101D0
:100D9800E10D6008823E4101AB00FF304001613D3A
:100DA8004101AC00A91BED2E0130A735A80DA90DF6
:100DB800AA0D890BD92EA61B27140130A335A40D23
:100DC800A50DA60D890BE22EFF30AB07FF30AC3D19
:100DD800D62EA101A61F0F2FFF3023054001E000EA
:100DE800FF30410124054001E100FF3041012505A4
:100DF8004001E2007F30410126054001E30063081D
:100E0800620461046004031D0C2F4101271C0F2F8D
:100E180001304101A10021080319442F0130A7071F
:100E28000030A83DA93DAA3D2A1C442F27084001AF
:100E3800E000410128084001E10041012908400182
:100E4800E20041012A084001E3000130E400E337F1
:100E5800E20CE10CE00CE40B2B2F63084101AA0023
:100E6800400162084101A900400161084101A80050
:100E7800400160084101A7000130AB070030AC3DDC
:100E88002C08803A4001E00080306002031D4F2F9B
:100E9800FF3041012B02031C5B2F7F304101AA0068
:100EA8008030A9000030A8000030A7008B2F410136
:100EB8002C08803A4001E00080306002031D672F53
:100EC800013041012B020318742F00304101AA00A0
:100ED8000030A9000030A8000030A700A0018B2F27
:100EE80041012B08A200FF30A705FF30A8057F307D
:100EF800A9050030AA052218A91722084001E00018
:100F08000130E036890B852F60084101AA002008CE
:100F1800AA042A084001DB00410129084001DA003F
:100F2800410128084001D900410127084001D800A3
:100F38000800F91FA12F0130A22F0030A2002208BB
:100F4800031DAB2F7908A4007808A300B62F7809F1
:100F5800A0007909A100A00A0319A10A2008A3008A
:100F68002108A400A5017A0825078600013087001A
:100F7800203081000130A50706302502031CB72F59
:100F88007A08063E86000130870081010530A500F9
:100F98007A0825078600013087000A30F100003002
:100FA800F2002408F4002308F300AF31D627873174
:100FB8007108303E81000130A5020A30F10000308E
:100FC800F2002408F4002308F300A03185208731BB
:100FD8007208A4007108A30023082404031DCC2F61
:100FE8002208031908007A082507860001308700BF
:080FF8002D308100080078345F
:101002001030A03102200800FE0012001E00FE0B6C
:1010120006280034AE317F2688317830A1315B2139
:1010220088314030A1315B2188310A30A200003082
:10103200A3002D08A5002C08A400A231F6228831B5
:101042002308AD002208AC002D08803AAE008130A2
:101052002E02031D2E282C302C02031832282C308D
:101062003F2840012D08803AAE0081302E02031D38
:101072003C28A5302C02031C4328A4304001AC00BC
:101082000130AD0040012C08D43EAC00FE302D3DB5
:10109200AD002D08AF002C08AE000530AE35AF0D07
:1010A200890B4F282E08AC002F08AD007830A20023
:1010B2000030A3002D08A5002C08A400A231F622BE
:1010C20088312208B40019303402031C7128340814
:1010D200E83EB0000830B1000830B200083086287F
:1010E20011303402031C7928B0013408F03E6C2818
:1010F20009303402031C8228B001B1013408F83EE1
:101102006E28B001B101B2013408B3003008AE312B
:10111200682688314001B60036080338B6007730B9
:10112200A7000030A1319A2188313608A1315B2114
:1011320088313608A1315B2188313608A1315B2123
:10114200883136081F38B6007530A7000030A1314B
:101152009A2188313608A1315B2188313608A131C4
:101162005B2188317A30A7000030A1319A21883181
:101172003608A1315B2188313608A1315B218831E3
:101182003108AE31682688314001B6007530A700BB
:101192000130A1319A218831B5013608A1315B2194
:1011A20088310130B50707303502031CCE283208DA
:1011B200AE31682688314001B6007530A700023092
:1011C200A1319A218831B5013608A1315B218831DC
:1011D2000130B50707303502031CE5283308AE316C
:1011E200682688314001B6003608C038B60075302E
:1011F200A7000330A1319A218831B5013608A13107
:101202005B2188310130B50707303502031CFF2806
:10121200AE312F26080045088039CF004535D6006B
:10122200C41B5614560803192429560A031D2129E2
:101232000030C5000030C4000030C3000030C200DE
:10124200C417C5012C290030C5000030C40000308D
:10125200C3000030C20041088039CF064135D700B3
:10126200C01B5714570803194429570A031D412963
:101272000030C1000030C0000030BF000030BE00AE
:10128200C017C1014C290030C1000030C00000303D
:10129200BF000030BE00410840043F043E04031D6D
:1012A20069290030C5000030C4000030C30000309E
:1012B200C2008030C4047F30C5044F08C50445080D
:1012C200C1004408C0004308BF004208BE00080035
:1012D2005608031D75290030C1000030C0000030DF
:1012E200BF000030BE0008005608C600C70147080C
:1012F200C90057084602C800031CC90348087F3EBC
:10130200D0000030493DD1004508CE004408CD0050
:101312004308CC004208CB000030C5000030C400B6
:101322000030C3000030C2000030D5000030D400CD
:101332000030D3000030D200D7011A305702031810
:10134200D82957080319BC290130CB35CC0DCD0D56
:10135200CE0D890BA6290130C235C30DC40DC50DB2
:10136200890BAD29D51B42140130D235D30DD40DD2
:10137200D50D890BB62941084E02031DCA29400822
:101382004D02031DCA293F084C02031DCA293E080B
:101392004B02031CD52955173E08CB023F08CC3B14
:1013A2004008CD3B4108CE3B0130D7079E294E086D
:1013B2004D044C044B04031D5214C41BF529013087
:1013C200C235C30DC40DC50D890BE129D51B4214CD
:1013D2000130D235D30DD40DD50D890BEA29FF305A
:1013E200D007FF30D13DDE29D701D51F0E2AFF30AD
:1013F2005205C600FF305305C700FF305405C80030
:101402007F305505C90049084804470446040319BA
:1014120042180C2A0E2A0130D70057080319352A20
:101422000130C2070030C33DC43DC53D451C352ACD
:101432004208C6004308C7004408C8004508C9005E
:101442000130CA00C937C80CC70CC60CCA0B232A04
:101452004908C5004808C4004708C3004608C2003E
:101462000130D0070030D13D5108803AC6008030AB
:101472004602031D3E2AFF305002031C4D2AFF3054
:101482004001D0000030D1000030C5000030C4005F
:101492000030C3000030C20040015108803AC6004B
:1014A20080304602031D572A013050020318652A74
:1014B2004001D001D1010030C5000030C40000302D
:1014C200C3000030C200CF0140015008D600561CB4
:1014D2006C2AC4176E2A7F30C4055608C600013034
:1014E200C636890B712A4608C5005E294101C7012B
:1014F2004708BD3E860087014708003E8400B030A1
:101502000318013E8500000881000130C7070A3038
:101512004702031C792A3D08AE310C268A3141016B
:10152200B900BA01BB01BC013C084301AF00410153
:101532003B084301AE0041013A084301AD004101BD
:1015420039084301AC000030F4000030F300EA3007
:10155200F2006030F1002F08F8002E08F7002D0885
:10156200F6002C08F500A031B7208A317408430137
:10157200AF007308AE007208AD007108AC00410103
:101582003E08AE310C268A314101B900BA01BB01D5
:10159200BC013C084301AB0041013B084301AA00E6
:1015A20041013A084301A900410139084301A80059
:1015B2000030F4000030F300EA30F2006030F10055
:1015C2002B08F8002A08F7002908F6002808F50079
:1015D200A031B7208A3174084301AB007308AA0016
:1015E2007208A9007108A80041013F08AE310C261B
:1015F2008A314101B900BA0139084301C4004101ED
:101602003A084301C50041014008AE310C268A3137
:101612004101B900BA0139084301C20041013A0847
:101622004301C30041014108AE310C268A31410118
:10163200B900BA013908F7003A08F8000A30F9008F
:101642000030FA00AE31D1268A3178084301C10058
:101652007708C00041014208AE310C268A314101AF
:10166200B900BA013908F7003A08F8000A30F9005F
:101672000030FA00AE31D1268A3178084301BF002A
:101682007708BE0041014308AE310C268A31003A88
:1016920003194D2B7C144E2B7C1041304001C100AC
:1016A2002030C0000030BF000030BE0041014408BD
:1016B200AE310C268A314101B900BA01BB01BC012D
:1016C2003C084001B30041013B084001B200410126
:1016D2003A084001B100410139084001B00001302F
:1016E200993106218A313308C5003208C400310815
:1016F200C3003008C20089310C218A3141084301FC
:10170200A300400140084301A20040013F084301F9
:10171200A10040013E084301A0003F304101B0005A
:101722008030AF000030AE000030AD0042304001EA
:10173200C100C830C0000030BF000030BE0041010F
:101742004508AE310C268A314101B900BA01BB010C
:10175200BC013C084001B30041013B084001B2001A
:1017620041013A084001B100410139084001B0008D
:101772000130993106218A313308C5003208C4008C
:101782003108C3003008C20089310C218A31410876
:101792004101B400400140084101B30040013F084B
:1017A2004101B20040013E084101B1008C311324D5
:1017B2008A3130084301A70041012F084301A600E6
:1017C20041012E084301A50041012D084301A40057
:1017D20006304001A2000030A30041014608AE31AC
:1017E2000C268A314101B900BA013908F7003A08DA
:1017F200F8000A30F9000030FA00AE31D1268A3101
:101802007808A5007708A400A231F6222308430134
:10181200BD00400122084301BC004508C70044083E
:10182200C600080030088039B5003035B700AF1B5C
:101832003714370803192B2C370A031D282C0030C4
:10184200B0000030AF000030AE000030AD00AF1786
:10185200B001332C0030B0000030AF000030AE00D9
:101862000030AD0034088039B60036083506031D55
:1018720035173435B600B31B3614360803194F2C0E
:10188200360A031D4C2C0030B4000030B300003087
:10189200B2000030B100B317B401572C0030B400CD
:1018A2000030B3000030B2000030B1003708360219
:1018B20003187D2C351F5F2C8030B5063708B80021
:1018C2003608B7003808B6002D08B8003108AD0058
:1018D2003808B1002E08B8003208AE003808B2004D
:1018E2002F08B8003308AF003808B3003008B8003A
:1018F2003408B0003808B400B80136084001E500E9
:10190200E6016608E8004101370840016502E70088
:10191200031CE8036808803AE90080306902031D6D
:10192200942C1A306702031CCC2C410130082F047E
:101932002E042D0403199F2C0130A02C0030B80076
:101942000030B0000030AF000030AE000030AD001B
:101952003608B700D12C381CBA2C38084001E500F3
:101962000130E536890BB22C650801384101B80017
:10197200BC2C0310B80C2D18B81701304001E5003B
:101982004101B037AF0CAE0CAD0C4001E50BC12CE0
:1019920001304101B707410136083702031CAC2C64
:1019A200351B0A2D3708031DDF2C0030B000003034
:1019B200AF000030AE000030AD0008003108AD07C6
:1019C2003208AE3D3308AF3D3408B03D301C972D90
:1019D200381CF72C38084001E5000130E536890B48
:1019E200EF2C650801384101B800F92C0310B80C3E
:1019F2002D18B81701304001E5004101B037AF0C96
:101A0200AE0CAD0C4001E50BFE2C01304101B707D5
:101A1200972D3008803A4001E50041013408803AB0
:101A2200400165024101031D202D33082F02031DD1
:101A3200202D32082E02031D202D31082D020318FD
:101A4200652DFF304001E500FF30E600FF30E70082
:101A5200FF30E80041012D0831024001E900410157
:101A62002E08323B4001EA0041012F08333B40017E
:101A7200EB0041013008343B4001EC006908E50706
:101A82006A08E63D6B08E73D6C08E83D68084101DD
:101A9200B000400167084101AF0040016608410102
:101AA200AE00400165084101AD008030B506380343
:101AB200FF3AB8003808031D6D2D0130AD07003024
:101AC200AE3DAF3DB03D6D2D3108AD023208AE3BAB
:101AD2003308AF3B3408B03B30082F042E042D04EA
:101AE200031D952D3808031D952D0030B0000030E0
:101AF200AF000030AE000030AD0008000130AD355F
:101B0200AE0DAF0DB00D890B802DB81B2D14381CF6
:101B12008E2D0314380DB800902D0310B80D370820
:101B22000319952D0130B702AF1F7F2DB601B81FE3
:101B3200A22D38087F3903192D18A02DA22D0130AE
:101B4200B60036080319D82D0130AD070030AE3D7E
:101B5200AF3DB03D301CD82D2D084001E5004101BC
:101B62002E084001E60041012F084001E700410133
:101B720030084001E8000130E900E837E70CE60CE4
:101B8200E50CE90BBE2D68084101B0004001670871
:101B92004101AF00400166084101AE004001650805
:101BA2004101AD00370A0319D82D0130B707370AB2
:101BB200031D3708031DE82D0030B0000030AF00D0
:101BC2000030AE000030AD0037080319B501371CF4
:101BD200EC2DAF17EE2D7F30AF0537084001E50041
:101BE2000130E536890BF22D65084101B000B51FC1
:101BF2000800B01708003E089C3E4401A800FF30D0
:101C020043013F3D4401A90003304201D6000830A0
:101C1200D5007730890B0B2ED50B0B2ED60B0B2E46
:101C22004401AC01AD01AE01AF01AA01AB012B0829
:101C3200803A4201D50043013D08803A42015502F3
:101C4200031D272E43013C0844012A0203185A2E81
:101C5200A131DB218D3144012D08803A4201D500AA
:101C62006308803A5502031D392E620844012C0292
:101C720003184B2E420163084401AD004201620881
:101C82004401AC00420161084401AF004201600816
:101C92004401AE000B304201D5006230890B4F2E59
:101CA200D50B4F2E000001304401AA070030AB3D96
:101CB200182E44012D08803A4201D5008030550289
:101CC200031D662E013044012C02031C802E4001AC
:101CD200161E7D2E43012F08D9002E08D8002D088C
:101CE200D7002C08D6002B08DD002A08DC002908C2
:101CF200DB002808DA00802E9A3134228D3143012C
:101D02005F0844012D06031D8A2E43015E0844012B
:101D12002C060319B52EFC1F952E2A304001AC006B
:101D2200DD30AD00B0309B2E2A304001AC00DB30FC
:101D3200AD00B030AE00AF01AF0A00309431BA242A
:101D42008D3144012D084301DF0044012C08430179
:101D5200DE0044012D084001BD0044012C08400171
:101D6200BC00A331EF238D3144012F08803A420198
:101D7200D50080305502031DC12E643044012E026D
:101D8200031CFE2E4301490844012F06031DCD2EDC
:101D92004301480844012E060319FE2E2F08430171
:101DA200C90044012E084301C80044012D08803AAD
:101DB2004201D50043014308803A42015502031D06
:101DC200E62E4301420844012C020318F32E43017C
:101DD20049084001BD00430148084001BC00A03150
:101DE200E9200800430149084001BD0043014808B9
:101DF2004001BC00A031E9208D31FC1F742F03305B
:101E02004401AA000030AB0006304001AC00AF3004
:101E1200AD00B030AE000930AF0002309431BA24C8
:101E22008D3115304201D6004B30D500BE30890BC2
:101E3200182FD50B182FD60B182F00004001AC011C
:101E42008730AD00B030AE000930AF0002309431BF
:101E5200BA248D3115304201D6004B30D500BE3048
:101E6200890B312FD50B312FD60B312F0000FF30CC
:101E72004401AA07FF30AB3D2A082B04031D052F9E
:101E82004001AC019130AD00B030AE000930AF007E
:101E920002309431BA248D312A304001AC00DB305B
:101EA200AD00B030AE00AF01AF0A02309431BA24B7
:101EB2008D3144012F084001BD0044012E0840012C
:101EC200BC00A031E9208D3115304201D6004B30E3
:101ED200D500BE30890B6B2FD50B6B2FD60B6B2F1A
:101EE2000000FC1308007C1C080044012D08803A05
:101EF2004201D50043014308803A42015502031DC5
:101F0200862F4301420844012C02031C08004401AD
:101F12002D08803A4201D50043014108803A42012E
:101F22005502031D982F4301400844012C02031857
:101F3200080044012F08803A4201D5008030550242
:101F4200031DA62F793044012E02031C0800430111
:101F5200600844012E024201D50043016108440198
:101F62002F3B4201D60044012908803A4201D700A2
:101F72005608803A5702031DC12F55084401280212
:101F8200031CFD2F44012E08430160024201D500CB
:101F920044012F084301613B4201D6004401290854
:101FA200803A4201D7005608803A5702031DDC2FBF
:101FB200550844012802031CFD2FE7304201D500D9
:101FC2000330D6004401280842015502D7004401DB
:101FD20029084201563BD8005808803AD9004401EA
:101FE2002F08803A42015902031DFB2F44012E089B
:101FF2004201570203180800A431B9240800003432
:102002000034003400340034003400345F340034CF
:1020120000340034073400340734003414347F347D
:1020220014347F34143424342A347F342A3412345E
:102032002334133408346434623436344934553426
:102042002234503400340534033400340034003474
:102052001C342234413400340034413422341C34E0
:10206200003408342A341C342A340834083408343E
:102072003E340834083400345034303400340034F0
:102082000834083408340834083400343034303426
:1020920000340034203410340834043402343E3422
:1020A2005134493445343E34003442347F34403470
:1020B2000034423461345134493446342134413499
:1020C20045344B3431341834143412347F341034E0
:1020D200273445344534453439343C344A34493460
:1020E200493430340134713409340534033436341C
:1020F200493449344934363406344934493429346C
:102102001E3400343634363400340034003456344D
:102112003634003400340034083414342234413468
:102122001434143414341434143441342234143432
:102132000834003402340134513409340634323460
:102142004934793441343E347E34113411341134FB
:102152007E347F3449344934493436343E34413450
:102162004134413422347F344134413422341C34EA
:102172007F3449344934493441347F340934093491
:10218200013401343E3441344134513432347F34E9
:102192000834083408347F34003441347F34413405
:1021A20000342034403441343F3401347F34083425
:1021B2001434223441347F34403440344034403487
:1021C2007F340234043402347F347F3404340834DC
:1021D20010347F343E344134413441343E347F3410
:1021E20009340934093406343E344134513421343B
:1021F2005E347F3409341934293446344634493440
:10220200493449343134013401347F3401340134E6
:102212003F344034403440343F341F34203440345F
:1022220020341F347F342034183420347F34633414
:1022320014340834143463340334043478340434E6
:102242000334613451344934453443340034003466
:102252007F3441344134023404340834103420349D
:10226200413441347F3400340034043402340134C4
:102272000234043440344034403440344034003476
:102282000134023404340034203454345434543489
:1022920078347F3448344434443438343834443421
:1022A20044344434203438344434443448347F345D
:1022B2003834543454345434183408347E340934A1
:1022C2000134023408341434543454343C347F34EA
:1022D2000834043404347834003444347D344034D3
:1022E20000342034403444343D34003400347F34EC
:1022F200103428344434003441347F3440340034C0
:102302007C3404341834043478347C34083404348F
:1023120004347834383444344434443438347C34E7
:10232200143414341434083408341434143418347F
:102332007C347C340834043404340834483454344F
:1023420054345434203404343F344434403420343C
:102352003C344034403420347C341C342034403407
:1023620020341C343C344034303440343C34443423
:1023720028341034283444340C345034503450341B
:102382003C344434643454344C34443400340834DB
:10239200363441340034003400347F3400340034A5
:1023A20000344134363408340034083408342A34D2
:1023B2001C34083408341C342A34083408340034F9
:1023C2000034003400340034003400345F3400340C
:1023D20000340034073400340734003414347F34BA
:1023E20014347F34143424342A347F342A3412349B
:1023F2002334133408346434623436344934553463
:1024020022345034003405340334003400340034B0
:102412001C342234413400340034413422341C341C
:10242200003408342A341C342A340834083408347A
:102432003E3408340834003450343034003400342C
:102442000834083408340834083400343034303462
:1024520000340034203410340834043402343E345E
:102462005134493445343E34003442347F344034AC
:1024720000344234613451344934463421344134D5
:1024820045344B3431341834143412347F3410341C
:10249200273445344534453439343C344A3449349C
:1024A2004934303401347134093405340334363458
:1024B20049344934493436340634493449342934A8
:1024C2001E3400343634363400340034003456348A
:1024D20036340034003400340834143422344134A5
:1024E200143414341434143414344134223414346F
:1024F200083400340234013451340934063432349D
:102502004934793441343E347E3411341134113437
:102512007E347F3449344934493436343E3441348C
:102522004134413422347F344134413422341C3426
:102532007F3449344934493441347F3409340934CD
:10254200013401343E3441344134513432347F3425
:102552000834083408347F34003441347F34413441
:1025620000342034403441343F3401347F34083461
:102572001434223441347F344034403440344034C3
:102582007F340234043402347F347F340434083418
:1025920010347F343E344134413441343E347F344C
:1025A20009340934093406343E3441345134213477
:1025B2005E347F340934193429344634463449347C
:1025C200493449343134013401347F340134013423
:1025D2003F344034403440343F341F34203440349C
:1025E20020341F347F342034183420347F34633451
:1025F2001434083414346334033404347834043423
:1026020003346134513449344534433400340034A2
:102612007F344134413402340434083410342034D9
:10262200413441347F340034003404340234013400
:1026320002340434403440344034403440340034B2
:1026420001340234043400342034543454345434C5
:1026520078347F344834443444343834383444345D
:1026620044344434203438344434443448347F3499
:102672003834543454345434183408347E340934DD
:102682000134023408341434543454343C347F3426
:102692000834043404347834003444347D3440340F
:1026A20000342034403444343D34003400347F3428
:1026B200103428344434003441347F3440340034FC
:1026C2007C3404341834043478347C3408340434CC
:1026D20004347834383444344434443438347C3424
:1026E20014341434143408340834143414341834BC
:1026F2007C347C340834043404340834483454348C
:1027020054345434203404343F3444344034203478
:102712003C344034403420347C341C342034403443
:1027220020341C343C344034303440343C3444345F
:1027320028341034283444340C3450345034503457
:102742003C344434643454344C3444340034083417
:10275200363441340034003400347F3400340034E1
:1027620000344134363408340034083408342A340E
:0E2772001C34083408341C342A34083408346B
:10278400AE312F260800FF304201CB007F30CC0051
:10279400FF30CD007F30CE00A53125259331A53102
:1027A4009B2593319C315C24933142016108803A2A
:1027B400C20080304202031DE12B79306002031C09
:1027C400080042015F08CA005E08C9006708C30028
:1027D4006608C4000330660203181C2C0330670229
:1027E40003181C2CE601E7016608F4006508F500EF
:1027F40067089F3114279331A5319B259331A53167
:10280400252593319C315C24933142016108803A3F
:10281400C20080304202031D112C79306002031C77
:10282400080042015F08CC005E08CB006708C500C1
:102834006608C600033066020318492C0330670299
:102844000318492CE601E7016608F4006508F50061
:1028540067089F3114279331A631112693319C3197
:102864005C24933142016108803AC2008030420204
:10287400031D3E2C79306002031C080042015F08EE
:10288400CE005E08CD006708C7006608C8004C0883
:10289400803AC2004A08803A4202031D532C490878
:1028A4004B02031C672C42014E08803AC2004A08BE
:1028B400803A4202031D602C49084D02031C672C18
:1028C40042014408E6004308A42C42014A08803A25
:1028D400C2004C08803A4202031D722C4B08490284
:1028E400031C862C42014E08803AC2004C08803AF0
:1028F4004202031D7F2C4B084D02031C862C42010F
:102904004608E6004508A42C42014A08803AC20061
:102914004E08803A4202031D912C4D084902031CC3
:10292400A52C42014C08803AC2004E08803A42026B
:10293400031D9E2C4D084B02031CA52C4201480884
:10294400E6004708E70042014B0A7F3003194C06B2
:10295400031DB22C4D0A7F3003194E0603190800DB
:102964006608F4006508F50067089F31142708001D
:10297400B700AE317F2694317830A1315B21943198
:102984004030A1315B2194312C08A7003708A131D4
:102994009A219431BA012F083A020318382D3A08C3
:1029A4002D0784002E080318013E85001200031D24
:1029B400DD2CB601E72C3A082D0784002E080318F5
:1029C400013E85000008E03EB600BB013608B000B9
:1029D400B1013008F7003108F8000530F900003083
:1029E400FA00AE31D12694310030B2009030B300F9
:1029F40077083207B4007808333DB5003B08340744
:102A0400840035080318013E85000008B800023030
:102A140037060319132D38080F39AE31EF269431D8
:102A24001E2D38080739AE31EF269431B00002303C
:102A3400B035890B1A2D3008B9003908A1315B2152
:102A440094313908A1315B2194310130BB07053041
:102A54003B02031CE82C0030A1315B21943100308F
:102A6400A1315B2194310130BA07CD2C2C08A70089
:102A74003708013EA1319A219431BA012F083A0254
:102A84000318AD2D3A082D0784002E080318013EC3
:102A940085001200031D502DB6015A2D3A082D074A
:102AA40084002E080318013E85000008E03EB600AD
:102AB400BB013608B000B1013008F7003108F80056
:102AC4000530F9000030FA00AE31D12694310030DF
:102AD400B2009030B30077083207B4007808333D71
:102AE400B5003B083407840035080318013E85000F
:102AF4000008B800023037060319882D3808B000E2
:102B04000430B036890B832D3008902D3808B0007E
:102B14000330B036890B8B2D30080F39AE31EF26D8
:102B24009431B9003908A1315B2194313908A131BC
:102B34005B2194310130BB0705303B02031C5B2D44
:102B44000030A1315B2194310030A1315B219431FB
:102B54000130BA07402DAE312F2608004201BD00D6
:102B64000030B7000030B6000030B5000030B400CB
:102B74000030BB000030BA000030B9000030B800AB
:102B8400BC013D083C020318062EA7317B27953172
:102B940024084101E600400125084101E700003016
:102BA400E71BFF30E800E90066084201B407410171
:102BB40067084201B53D410168084201B63D410143
:102BC40069084201B73D98318120953124084101BB
:102BD400E600400125084101E7000030E71BFF3013
:102BE400E800E90066084201B807410167084201AC
:102BF400B93D410168084201BA3D410169084201F9
:102C0400BB3D0130BC07C32D3D084101E600E7018F
:102C1400E801E90169084001B30041016808400185
:102C2400B200410167084001B1004101660840015A
:102C3400B00001309931062195313308C1003208C2
:102C4400C0003108BF003008BE004201370840010F
:102C5400B300420136084001B20042013508400188
:102C6400B100420134084001B0000030993106211E
:102C740095313308C5003208C4003108C300300858
:102C8400C20089310C21953141084201AF00400155
:102C940040084201AE0040013F084201AD0040013E
:102CA4003E084201AC003D084101E600E701E801AD
:102CB400E90169084001B300410168084001B2001C
:102CC400410167084001B100410166084001B000BC
:102CD40001309931062195313308C1003208C00012
:102CE4003108BF003008BE0042013B084001B30078
:102CF40042013A084001B200420139084001B100E2
:102D0400420138084001B000003099310621953164
:102D14003308C5003208C4003108C3003008C200BB
:102D240089310C21953141084201B300400140082A
:102D34004201B20040013F084201B10040013E0897
:102D44004201B0002F084101E10042012E08410177
:102D5400E00042012D084101DF0042012C0841013D
:102D6400DE00420133084101E5004201320841011D
:102D7400E400420131084101E3004201300841010D
:102D8400E2008031F5209531AF31B12708000030E1
:102D9400C4000030C3000030C2000030C10050083D
:102DA400C8004F08C7004E08C6004D08C50098313A
:102DB40006209631031CE72E0030D0000030CF00EF
:102DC4000030CE000030CD00080040304001C1008A
:102DD4000030C0000030BF000030BE003F30410171
:102DE400B0008030AF000030AE000030AD005008BD
:102DF400B4004F08B3004E08B2004D08B1008C3146
:102E04001324963130084001C50041012F084001C8
:102E1400C40041012E084001C30041012D084001B6
:102E2400C20089310C21963141084101DD00400185
:102E340040084101DC0040013F084101DB00400142
:102E44003E084101DA00D5015D08B0005C08AF001E
:102E54005B08AE005A08AD005D084001C1004101A5
:102E64005C084001C00041015B084001BF00410112
:102E74005A084001BE00410150084001C50041010B
:102E84004F084001C40041014E084001C300410104
:102E94004D084001C20089310C219631410841019D
:102EA400B400400140084101B30040013F08410122
:102EB400B20040013E084101B1008C311324963127
:102EC4003008D4002F08D3002E08D2002D08D100DA
:102ED40040304001C1000030C0000030BF0000306D
:102EE400BE00410154084001C5004101530840019E
:102EF400C400410152084001C3004101510840018E
:102F0400C20089310C21963141084101D9004001A8
:102F140040084101D80040013F084101D700400169
:102F24003E084101D6005908BC005808BB005708A8
:102F3400BA005608B9005D08C0005C08BF005B0811
:102F4400BE005A08BD00AE31B42696313C08C40018
:102F54003B08C3003A08C2003908C10038304001B8
:102F6400DB00D130DA00B730D9001730D800410186
:102F74005D084001DF0041015C084001DE004101C1
:102F84005B084001DD0041015A084001DC00853145
:102F94000F2596315B084101C80040015A084101E0
:102FA400C700400159084101C600400158084101C9
:102FB400C5009831062096310318E92F5908D0002E
:102FC4005808CF005708CE005608CD00080059080D
:102FD400DD005808DC005708DB005608DA00013031
:102FE400D50714305502031C262F5D08D0005C0859
:102FF400CF005B08CE005A08CD00080064008001B1
:103004000131890B0128003400304105C90000302A
:103014004205CA0080304305CB007F304405CC0014
:103024004C084B044A044904031D20280030C40002
:103034000030C3000030C2000030C100003045053C
:10304400C90000304605CA0080304705CB007F30F8
:103054004805CC004C084B044A044904031D3A2893
:103064000030C8000030C7000030C6000030C50082
:10307400C41F54280030C9000030CA000030CB00FF
:103084008030CC004108C9024208CA3B4308CB3B0C
:103094004408CC3B4C08C4004B08C3004A08C20097
:1030A4004908C100C81F6E280030C9000030CA009A
:1030B4000030CB008030CC004508C9024608CA3B2A
:1030C4004708CB3B4808CC3B4C08C8004B08C7001A
:1030D4004A08C6004908C5008030C4068030C806C6
:1030E40048084402031D080047084302031D080062
:1030F40046084202031D080045084102080020302A
:10310400A03102209831A0300032890B86280A3081
:10311400AD31FB25983172084001AB007108AA005B
:103124002A0A033003192B06031DA9284030A031B5
:1031340002209831A0300032890B9D280A30AD312D
:10314400FB25983171354001AA00720DAB00FE30A9
:103154002A06073003192B06031D01291030A0315C
:1031640002209831A0300032890BB5280A30AD31E5
:10317400FB25983172084001AB007108AA002A0AA5
:10318400033003192B060319FC17AE319826983126
:1031940040012A08F1002B08F200F301F401430175
:1031A4004C08F5004D08F600890D893B8909F700A4
:1031B400F800A031B72098317408AF007308AE004E
:1031C4007208AD007108AC002C08A6002D08A700F9
:1031D4002E08A8002F08A9000A30A936A80CA70CAD
:1031E400A60C890BEF282908AF002808AE00270891
:1031F400AD002608AC002D08AB002C08AA002B0853
:10320400A5002A08A4000800B8003808031DB31F4D
:103214001B293009BA003109BB003209BC0033094B
:10322400BD00BA0A0319BB0A0319BC0A0319BD0A73
:1032340023293308BD003208BC003108BB00300824
:10324400BA003308320431043004031D322900303B
:10325400B3000030B2000030B1000030B00008000C
:103264009630B900FE303D05031951290130B907E4
:103274000130BD36BC0CBB0CBA0C890B3B2934297C
:103284000130B9070130BA070030BB3DBC3DBD3D3C
:103294000130BD36BC0CBB0CBA0C890B4B29FF307A
:1032A4003D0503196329422902303902031C6529AB
:1032B4000130B9020130BA35BB0DBC0DBD0D890B0F
:1032C4005D29BC1F562939186F29FF30BA05FF3014
:1032D400BB057F30BC05FF30BD050310B90C3908B0
:1032E400B400B501B601B7011830B435B50DB60D4B
:1032F400B70D890B77293408BA043508BB0436089E
:10330400BC043708BD043808031DB31F8A29BD1740
:103314003D08B3003C08B2003B08B1003A08B000D5
:1033240008004001B001AE317F2699317830A131D7
:103334005B219931003A0319B629AE312F26993110
:103344000D304001AF002D30AE00D730890BA829D5
:10335400AE0BA829AF0BA829003201304001B007F9
:103364000A303002031C95290030A1315B219931C8
:10337400AE30A1315B219931D530A1315B21993136
:103384008030A1315B219931A830A1315B21993181
:103394003F30A1315B219931D330A1315B21993187
:1033A4004030A1315B2199314030A1315B21993109
:1033B4008D30A1315B2199311430A1315B219931D8
:1033C4008130A1315B219931FF30A1315B219931E9
:1033D400D930A1315B219931F130A1315B2199318F
:1033E4002030A1315B2199310230A1315B21993127
:1033F4002130A1315B2199310030A1315B21993118
:103404007F30A1315B2199312E30A1315B2199317B
:10341400A030A1315B219931C030A1315B219931B8
:10342400DA30A1315B2199310230A1315B2199312C
:10343400DB30A1315B2199314030A1315B219931DD
:10344400A430A1315B219931A630A1315B2199319E
:10345400AE312F269931AF318C279931AF30AE314F
:1034640042260800161609304001BF001E30BE0077
:10347400E430890B3B2ABE0B3B2ABF0B3B2A0000DE
:103484009331C2239A3168304001BE00E430890B85
:10349400492ABE0B492A0000993193219A317C1F95
:1034A4005A2AA1311D219A317C13AF318C279A31CC
:1034B4004001AC01B930AD00B030AE000930AF000E
:1034C40000309431BA249A31A2311F229A3140013A
:1034D400AC019130AD00B030AE000930AF00023025
:1034E4009431BA249A312A304001AC00DB30AD006B
:1034F400B030AE00AF01AF0A00309431BA249A3133
:103504002A304001AC00DB30AD00B030AE00AF017A
:10351400AF0A02309431BA249A310F304301CA0001
:103524002730CB006430E0000030E1000F30DE00D3
:103534002730DF00C801C90149084001BD0043012B
:1035440048084001BC00A031E9209A310130420111
:103554005A074301B800003042015B3D4301B90002
:10356400003042015C3D4301BA00003042015D3D40
:103574004301BB0042015D084301B70042015C08FE
:103584004301B60042015B084301B50042015A08F9
:103594004301B400FC127C12FC117C11FC102F08B6
:1035A400D9002E08D8002D08D7002C08D6002B08E7
:1035B400DD002A08DC002908DB002808DA000800FE
:1035C400AE3198269A314B084D06031DEB2A4A0862
:1035D4004C060319162B4D08CB004C08CA004D08A5
:1035E4004001AD0043014C084001AC0088310B2080
:1035F4009A3143014D08803A4001C3008E304302A2
:10360400031D072BD93043014C020318112B43012E
:103614004408013EC6000030453DC700162B430157
:103624004508C7004408C6004D08803A4001C3005D
:103634008E304302031D212B753043014C02031CC1
:10364400332B40019711171602304001C400383063
:10365400C300AD30890B2C2BC30B2C2BC40B2C2B90
:10366400502B43014D08803A4001C3008E30430281
:10367400031D3F2B073043014C02031C542B400114
:103684009711171202304001C4003830C300AD3026
:10369400890B4A2BC30B4A2BC40B4A2B40019715A9
:1036A4001716662B40011712971502304001C4000B
:1036B4003830C300AD30890B5D2BC30B5D2BC40BBD
:1036C4005D2B40011716971543014D08803A4001C0
:1036D400C3008D304302031D722B483043014C025A
:1036E40003180800AF318C279A314001AC017B30BC
:1036F400AD00B030AE000B30AF0001309431BA24CD
:103704009A3152304001C4002B30C3000030890B81
:10371400892BC30B892BC40B892B00004001161283
:10372400A33191230800A33143239B318A317722AB
:103734009B314001171619157C179A3134229B319D
:10374400883101209B31FC1343012F08D9002E0836
:10375400D8002D08D7002C08D6002B08DD002A0835
:10376400DC002908DB002808DA003B0842015D027E
:10377400031DCC2B43013A0842015C02031DCC2BF0
:103784004301390842015B02031DCC2B4301380875
:1037940042015A02031CDA2BB8304301B8070B303C
:1037A400B93D0030BA3D0030BB3D9A31E2229B3135
:1037B4004301370842015D02031DF02B4301360823
:1037C40042015C02031DF02B4301350842015B02F8
:1037D400031DF02B4301340842015A02031CFE2B43
:1037E4002C304301B4070130B53D0030B63D003004
:1037F400B73D8D31FC259B3143012F082E042D0448
:103804002C0403190D2C5908580457045604031D9D
:103814000D2C4001161243012B082A042904280404
:1038240003191D2C5D085C045B045A04031D1D2C44
:10383400A33191239B31FC1E292C4001161E262CFA
:10384400A73101279B31292C9A3134229B317C1ECC
:10385400352C4001161E322CA431B9249B31352C51
:103864009A3134229B31FC1D412C4001161E3E2C02
:10387400AF310D279B31412C9A3134229B317C1D71
:103884004C2C4001161A492C9A3134229B31A73111
:1038940001279B31FC1CB72B4001161A582CAF3161
:1038A4006A279B319A3134229B31B72BA431B92436
:1038B4009B31B72B96304101EC000030ED002C30E9
:1038C400EA000130EB004201E201E301E001E10121
:1038D4004101EE01EF0142016308803A4001EF002B
:1038E40043014308803A40016F02031D7D2C4301CC
:1038F4004208420162020318312DFC1E872CA731B5
:1039040001274201E001E1010800FC19832CA131E7
:10391400DB219C3143014308803A4001EF0042011E
:103924006308803A40016F02031D9C2C4201620827
:10393400430142020318B52C42016308803A400156
:10394400EF0043014108803A40016F02031DAE2C91
:1039540043014008420162020318B52C0830953136
:10396400B0259C31C12C06304001EF003030890B6A
:10397400B92CEF0BB92C0000A131DB219C314301A0
:103984004308803A4001EF0042016308803A400155
:103994006F02031DD12C4201620843014202031845
:1039A400E52C42016308803A4001EF0043014108DD
:1039B400803A40016F02031DE32C43014008420199
:1039C4006202031C080041016C086D040319032DF5
:1039D4000130EC020030ED3B4201630841016F020B
:1039E400031DF82C4201620841016E0203186D2C7C
:1039F400420163084101EF00420162084101EE0007
:103A04006D2C6F0843015F06031D0C2D41016E08E8
:103A140043015E060319192D41016F084001BD00E1
:103A240041016E084001BC00A331EF239C314101E8
:103A34006F084301DF0041016E084301DE004101CC
:103A4400EE01EF013230EC000030ED006A086B0447
:103A54000319832C0130EA020030EB3B6D2C430147
:103A64004108803A4001EF0042016308803A400176
:103A74006F02031D412D42016208430140020318F5
:103A840008007F2C42016608C7006408031D572DF7
:103A94000A30F1006608AF314B279D31BE00BF01EB
:103AA4003E08C1003F08C2005B2D0130C100003058
:103AB400C2004108CA004A08031D622D0130CA0031
:103AC4009C315C249D3142015F08C9005E08C80036
:103AD4004A08E6076608F4006508F50067089F31A0
:103AE40014279D319C315C249D3142014908803A60
:103AF400BE005F08803A3E02031D822D5E08480224
:103B0400031CDB2D42015F08C9005E08C80066087B
:103B1400C7004A08E6070030BF004A087F3CBE00E1
:103B2400031CBF033F08803AC00080304002031DDD
:103B34009D2D66083E02031C212E42016608F400F6
:103B44006508F50067089F3114279D319C315C247A
:103B54009D3142014908803ABE005F08803A3E0226
:103B6400031DB62D5E084802031C212E420166087F
:103B7400C7005F08C9005E08C8006408031DCF2D94
:103B84000A30F1006608AF314B279D31BE00BF01FA
:103B94003E08C3003F08C400D32D0130C3000030E9
:103BA400C4004308CA004A08031D8B2D0130CA0013
:103BB4008B2D42015F08C9005E08C800032E420134
:103BC4006608C7005F08C9005E08C8006408031DD2
:103BD400F82D0A30F1006608AF314B279D31BE0045
:103BE400BF013E08C5003F08C600FC2D0130C500DA
:103BF4000030C6004508CA004A08031D032E0130E0
:103C0400CA004A08E6024A086602031C212E660816
:103C1400F4006508F50067089F3114279D319C3135
:103C24005C249D3142014908803ABE005F08803A15
:103C34003E02031D1F2E5E0848020318E12D4201B7
:103C44004708E6006608F4006508F50067089F3138
:103C54001427080042016708C7006408031D3F2EAB
:103C64000A30F1006708AF314B279E31BE00BF0117
:103C74003E08C1003F08C200432E0130C10000309D
:103C8400C2004108CA004A08031D4A2E0130CA0076
:103C94009C315C249E3142015F08C9005E08C80063
:103CA4004A08E7076608F4006508F50067089F31CD
:103CB40014279E319C315C249E3142014908803A8C
:103CC400BE005F08803A3E02031D6A2E5E08480269
:103CD400031CC32E42015F08C9005E08C8006708C0
:103CE400C7004A08E7070030BF004A087F3CBE000F
:103CF400031CBF033F08803AC00080304002031D0C
:103D0400852E67083E02031C092F42016608F40051
:103D14006508F50067089F3114279E319C315C24A7
:103D24009E3142014908803ABE005F08803A3E0253
:103D3400031D9E2E5E084802031C092F42016708DA
:103D4400C7005F08C9005E08C8006408031DB72ED9
:103D54000A30F1006708AF314B279E31BE00BF0126
:103D64003E08C3003F08C400BB2E0130C30000302E
:103D7400C4004308CA004A08031D732E0130CA0058
:103D8400732E42015F08C9005E08C800EB2E420191
:103D94006708C7005F08C9005E08C8006408031DFF
:103DA400E02E0A30F1006708AF314B279E31BE0088
:103DB400BF013E08C5003F08C600E42E0130C5001F
:103DC4000030C6004508CA004A08031DEB2E013026
:103DD400CA004A08E7024A086702031C092F66085A
:103DE400F4006508F50067089F3114279E319C3163
:103DF4005C249E3142014908803ABE005F08803A43
:103E04003E02031D072F5E0848020318C92E420113
:103E14004708E7006608F4006508F50067089F3165
:103E240014270800F70077181A2F400199171C2F40
:103E3400400199137708F6000130F636890B1F2FDD
:103E44007618272F40011917292F400119137708D5
:103E5400F6000230F636890B2C2F7618342F4001E9
:103E64009916362F400199127708F6000330F6367A
:103E7400890B392F7618412F40011916432F400121
:103E840019127708F6000430F636890B462F761897
:103E94004E2F40019817502F400198137708F600D1
:103EA4000530F636890B532F76185B2F400118170F
:103EB4005D2F400118137708F6000630F636890B9B
:103EC400602F7618682F400198166A2F40019812C7
:103ED40074186F2F40019616712F400196127408C2
:103EE400F6000130F636890B742F76187C2F4001CA
:103EF4009A147E2F40019A107408F6000230F636A8
:103F0400890B812F7618892F400196178B2F40013A
:103F140096137408F6000330F636890B8E2F761844
:103F2400962F40011617982F400116137408F600B7
:103F34000430F636890B9B2F7618A32F40011814F2
:103F4400A52F400118107408F6000530F636890BC9
:103F5400A82F7618B02F40019814B22F4001981062
:103F64007408F6000630F636890BB52F7618BD2F87
:103F740040011815BF2F40011811750C031C1A10AD
:103F840003181A14991543014708F2004608F10072
:103F9400AE311D269F31400199111A30890BD02F63
:103FA40000324001181243014708F2004608F100AC
:103FB400AE311D269F314001181643014708F20017
:103FC4004608F100AE311D269F31400199131913A3
:103FD4009912191298131813981296129A1096138C
:103FE40016131810981018111A101530F600C63050
:0C3FF400890BFA2FF60BFA2F00320800A0
:10400400F300410193137308603903191E28731BCD
:104014000D2801300E280230F1000030F200520168
:104024000C087106FC3971068C008C170C1F1828BB
:10403400033041019A001F289A01940195019601C9
:104044009D019C0114309300931708004201E40180
:10405400CD016608CB006708CC0067086602031C24
:104064003A289D314425A0319E312C26A031402888
:104074009E312C26A0319D314425A0314201660891
:104084004B06031D4E2867084C06031D4E28640882
:10409400031D54280130E4000130CD0704304D02E3
:1040A400031C2B28E40108004201E601E70166082D
:1040B400F4006508F50067089F311427A0319C318E
:1040C4005C24A03142016108803ACF0080304F0265
:1040D400031D6E2879306002031C08009331C52348
:1040E400A0319C315C24A03142016108803ACF00A8
:1040F40080304F02031D802879306002031C0800C1
:10410400A03128200800F601F70171087204031990
:10411400B2280130F500F21B97280130F135F20D79
:10412400890B90280130F5078D280130F635F70DFD
:10413400890B982872087402031DA228710873025F
:10414400031CA9287108F3027208F43B76140130A9
:10415400F236F10C890BAA280130F502031D9728C9
:104164007708F2007608F100080000304001A3004F
:104174000030A2000030A1000030A000711CCB2848
:1041840075084001A0077608A13D7708A23D78088C
:10419400A33D0130F535F60DF70DF80D890BCC284C
:1041A4000130F436F30CF20CF10C890BD3287408AB
:1041B400730472047104031DC02840012308F40031
:1041C4002208F3002108F2002008F10008003C084E
:1041D4003D04031DF9283C30AC00CE30AD00B030B6
:1041E400AE000430AF0002309431BA2408003D0818
:1041F400F9003C08F800CE30FA0087319D27A03141
:10420400430151084401A0002E30A100430152088B
:104214004401A200430153084401A3003C3040017F
:10422400AC002030AD000230AE000430AF000230EC
:104234009431BA24080040019711AF318C27A13181
:104244004001AC010A30AD00B030AE001230AF0016
:104254000130A231AC22A1314001AC014930AD00A2
:10426400B030AE000C30AF000330A231AC22A1312B
:1042740054304001AC00D730AD00B030AE00033054
:10428400AF000330A231AC22A1317A304001BB002F
:10429400C130BA008130890B4D29BA0B4D29BB0BB3
:1042A4004D29003240018D1A5929000054299715CF
:1042B40008004001A500A6012508A2000730A23687
:1042C400890B612922080139A300A30DA30D160847
:1042D4002306FB39230696004230890B6F290032EE
:1042E400400196154230890B752900324001961120
:1042F4002535A5000130A60708302602031C5E29D7
:1043040016154230890B84290032400196150C0C95
:10431400890C0139A4004230890B8E2900324001F6
:1043240096114230890B9429003240012408080078
:10433400A8002708023EAB00AE317F26A1317830B9
:10434400A1315B21A1310030A1315B21A1312808C9
:10435400B03EA1315B21A13110302B020318B629E4
:104364002B08A900AA01C7292B08FB000430FB363F
:10437400890BB9297B08AA00F030F1002A08AD3175
:10438400EC25A13140012B07A9002908A1315B21AB
:10439400A1312A08103EA1315B21A131AE317F2623
:1043A400A1317830A1315B21A1314030A1315B21B1
:1043B4000800A7317B27A1312408B0002508B100EB
:1043C400890D893B8909B200B30001309931062176
:1043D400A13133084101E100400132084101E0000C
:1043E400400131084101DF00400130084101DE0095
:1043F40098318120A1312408B0002508B100890D2D
:10440400893B8909B200B300013099310621A131F9
:1044140033084101E500400132084101E400400154
:1044240031084101E300400130084101E2008031DC
:10443400F520A131AF31B1270800AE317F26A2317A
:104444007830A1315B21A2314030A1315B21A2310E
:10445400B3017330A7003308A1319A21A231B2010C
:104464003308AC00AD012C08F7002D08F8000B3020
:10447400F9000030FA00AE31D126A2310030AE008E
:10448400A830AF0077082E07B00078082F3DB100A0
:1044940032083007840031080318013E8500000803
:1044A400A1315B21A2310130B2070B303202031C6F
:1044B400322A0130B30704303302031C2B2AAE31F5
:1044C4002F26080000304105C90000304205CA000B
:1044D40080304305CB007F304405CC004C084B04AE
:1044E4004A044904031D7E2A0030C4000030C3007E
:1044F4000030C2000030C10000304505C900003062
:104504004605CA0080304705CB007F304805CC0003
:104514004C084B044A044904031D982A0030C8007F
:104524000030C7000030C6000030C500480844060B
:10453400031DA62A47084306031DA62A4608420669
:10454400031DA62A450841060319AA2A03100800D8
:1045540003140800B6002C08A7003608A1319A21DC
:10456400A231B8012F0838020318F32A38082D079E
:1045740084002E080318013E85000008E03EB700C1
:10458400B9013708B000B1013008F7003108F8006C
:104594000530F9000030FA00AE31D126A2310030E6
:1045A400B2009030B30077083207B4007808333D86
:1045B400B50039083407840035080318013E850026
:1045C4000008A1315B21A2310130B907053039025D
:1045D400031CC32A0030A1315B21A2310130B8078A
:1045E400B42AAE312F260800A701A31F002BA2096D
:1045F400A309A20A0319A30A0130A700A51F092BC6
:10460400A409A509A40A0319A50A0130A706A8014B
:10461400A901220823040319362B0130A600A31B89
:104624001B2B0130A235A30D890B142B0130A607D7
:10463400112B0130A835A90D890B1C2B2308250249
:10464400031D262B22082402031C2D2B2208A4025E
:104654002308A53B28140130A336A20C890B2E2B6A
:104664000130A602031D1B2B270803193E2BA809A2
:10467400A909A80A0319A90A2908A3002808A2005D
:1046840008007E01B801C3014314C3144315CE01CD
:10469400E401D90153019013941340018C018D015D
:1046A4008E018F0190019601970110309800063019
:1046B40099009A0191012730920093019401950188
:1046C4007E013A15BA15DB145B1540019F121F17C2
:1046D4009F131E16C0309C00E0309D004E018C12CA
:1046E40040019E174E0196161E304F019600FE3073
:1046F4009700473098007F30990077309A00DF3078
:104704009B008B170530F2000F30F100F130890B5C
:10471400892BF10B892BF20B892B000008008B13DA
:1047240040019E134E018C1216167E01CA12C91640
:104734004001161217169715C2014208031DB12B2A
:1047440005304001C1000F30C000F130890BA82BA7
:10475400C00BA82BC10BA82B7E01CA12630000005A
:1047640005304001C1000F30C000F130890BB82B77
:10477400C00BB82BC10BB82B40018D1AC42B0130D0
:10478400C207C52BC20110304202031C9F2B4E01ED
:1047940016127E01C912CA1240019E178B177C178C
:1047A4009A313422A33140018D1ADA2B0000D52B23
:1047B4004201E901FC127C12FC115D084301B300C3
:1047C40042015C084301B20042015B084301B100AD
:1047D40042015A084301B00008003C083D04031D8F
:1047E400FF2B3C30AC00D330AD00B030AE00033012
:1047F400AF0000309431BA24080000303D020A3082
:1048040003193C020318172C3D08F9003C08F80072
:10481400CE30FA0087319D27A33130304401A00007
:104824002E30A10043015308402C00303D02643077
:1048340003193C0203182A2C3D08F9003C08F8002F
:10484400CE30FA0087319D27A33143015208102C42
:104854000530BC070030BD3D3D08F9003C08F800B8
:10486400CE30FA0087319D27A33120304401A000C7
:10487400430151084401A100430152084401A2002C
:104884003C304001AC002030AD000230AE000330BB
:10489400AF0000309431BA24080003103B0D3C0DE6
:1048A4004001EE006E08031D612C00304101BC0084
:1048B4000030BB000030BA000030B90008004101EC
:1048C4003908BD003A08BE003B08BF003C08C000E0
:1048D4001F30C036BF0CBE0CBD0C890B6B2C3D08C1
:1048E4004001ED004101BB17FF30B905FF30BA05A7
:1048F400FF30BB050030BC0596304001EE02EE1FD0
:10490400962C6E08803A973E031C572C01304101C7
:10491400BC36BB0CBA0CB90C890B892C0130400194
:10492400EE070319A92C882C20306E020318572C8B
:104934006E080319A92C01304101B935BA0DBB0D1C
:10494400BC0D890B9E2C01304001EE029A2C6D089F
:10495400031908004101B909BA09BB09BC09B90A1C
:104964000319BA0A0319BB0A0319BC0A0800400157
:104974009711AC019B30AD00B030AE000930AF00F0
:1049840002309431BA24A43140011911A631892688
:10499400A431420161084301C90042016008430196
:1049A400C800420161084301E1004201600843017B
:1049B400E0004001AC01C930AD00B030AE000430BD
:1049C400AF0002309431BA24A4312A304001AC0043
:1049D400DB30AD00B030AE00AF01AF0A023094312D
:1049E400BA24A431430149084001BD0043014808E9
:1049F4004001BC00A031E9204001191597157C1233
:104A0400FC104201E9015D084301BB0042015C085E
:104A14004301BA0042015B084301B90042015A084C
:104A24004301B80042015D084301B70042015C083C
:104A34004301B60042015B084301B50042015A0834
:104A44004301B40008004201C1019C315C24A5313A
:104A540064304001A2000030A30042015F0840011D
:104A6400A50042015E084001A400A231F622A5314E
:104A740023084201C000400122084201BF00013066
:104A8400E600602D42016608C10064304001A200C6
:104A94000030A30042015F084001A50042015E0806
:104AA4004001A400A231F622A53123084201C0002E
:104AB400400122084201BF000310E60D41306602A6
:104AC4000318902D6608F4006508F50067089F3107
:104AD4001427A5319C315C24A53164304001A20027
:104AE4000030A30042015F084001A50042015E08B6
:104AF4004001A400A231F622A53142014008803AC7
:104B0400BE0040012308803A42013E02031D8E2D5F
:104B14004001220842013F020318442D420141088A
:104B2400E6006608F4006508F50067089F3114275D
:104B340008004201C1019C315C24A531643040016C
:104B4400A2000030A30042015F084001A500420119
:104B54005E084001A400A231F622A53123084201D7
:104B6400C000400122084201BF000130E700D62DF9
:104B740042016708C10064304001A2000030A30074
:104B840042015F084001A50042015E084001A40003
:104B9400A231F622A53123084201C00040012208B7
:104BA4004201BF000310E70D413067020318062ECF
:104BB4006608F4006508F50067089F311427A531DD
:104BC4009C315C24A53164304001A2000030A30074
:104BD40042015F084001A50042015E084001A400B3
:104BE400A231F622A53142014008803ABE004001BC
:104BF4002308803A42013E02031D042E400122088C
:104C040042013F020318BA2D42014108E700660839
:104C1400F4006508F50067089F3114270800420175
:104C2400C1019C315C24A63164304001A2000030F3
:104C3400A30042015F084001A50042015E08400153
:104C4400A400A231F622A63123084201C00040018B
:104C540022084201BF000130E7004C2E42016708E0
:104C6400C10064304001A2000030A30042015F088B
:104C74004001A50042015E084001A400A231F622D1
:104C8400A63123084201C000400122084201BF00AE
:104C94000310E70D4130670203187C2E6708F40007
:104CA4006508F50067089F311427A6319C315C2400
:104CB400A63164304001A2000030A30042015F0825
:104CC4004001A50042015E084001A400A231F62281
:104CD400A63142014008803ABE0040012308803AD0
:104CE40042013E02031D7A2E4001220842013F0286
:104CF4000318302E42014108E7004108E600660827
:104D0400F4006508F50067089F31142708009C31FA
:104D14005C24A63142016108803AD0008030500200
:104D2400031D962E79306002031C0800A031562022
:104D3400A6319C315C24A63142016108803AD0003E
:104D440080305002031DA82E79306002031C080035
:104D540042015F08D2005E08D1006608D3006708EC
:104D6400D4006503031DB82EE501BA2E0130E50019
:104D7400A0315620A6319C315C24A6314201520850
:104D8400803AD0005F08803A5002031DCB2E5E08A3
:104D940051020318E42E42016503031DD32EE501DD
:104DA400D52E0130E5005308E6005408E7006608F4
:104DB400F4006508F50067089F311427A6319C317B
:104DC4005C24A63142016108803AD0008030500250
:104DD400031DEE2E79306002031C0800A031282048
:104DE400A6319C315C24A631E730420160060330D1
:104DF40003196106031D0800AD31DF2508004001D9
:104E04009711AD31DF25A7314001AC01A530AD00CC
:104E1400B030AE000930AF0002309431BA24A7316B
:104E240019304001BD005A30BC00B130890B182F35
:104E3400BC0B182FBD0B182F00324001AC01C3303E
:104E4400AD00B030AE000530AF0002309431BA246A
:104E5400A7312A304001AC00DB30AD00B030AE00E9
:104E6400AF01AF0A02309431BA24A7313C3040017B
:104E7400AC00CE30AD00B030AE000430AF00023034
:104E84009431BA24A7314301E001E1010D3040011E
:104E9400BD002D30BC00D730890B4E2FBC0B4E2FDC
:104EA400BD0B4E2F003240019715FC127C114201BC
:104EB400E9015D084301BB0042015C084301BA00FB
:104EC40042015B084301B90042015A084301B8009A
:104ED40042015D084301B70042015C084301B6008A
:104EE40042015B084301B50042015A084301B40082
:104EF40008002030A0310220A731A0300032890BF5
:104F0400802F0830AD31FB25A73172084001AB007A
:104F14007108AA002A0A033003192B06031DA32FC4
:104F24004030A0310220A731A0300032890B972FE6
:104F34000830AD31FB25A73171354001AA00720D4F
:104F4400AB00FE302A06073003192B06031DFB2F86
:104F54001030A0310220A731A0300032890BAF2FCE
:104F64000830AD31FB25A73172084001AB00710850
:104F7400AA002A0A033003192B060319FC17AE31C1
:104F84009826A73140012A08F1002B08F200F3010A
:104F9400F40143014C08F5004D08F600890D893BE6
:104FA4008909F700F800A031B720A7317408AF00D1
:104FB4007308AE007208AD007108AC002C08A6009E
:104FC4002D08A7002E08A8002F08A9000A30A9362A
:104FD400A80CA70CA60C890BE92F2908AF002808F8
:104FE400AE002708AD002608AC002D08AB002C0845
:104FF400AA002B08A5002A08A4000800F834F834F5
:105004001F341F340334033403341F341F34F8347F
:10501400F834FF34FF3400340034003400340034F6
:1050240000340034FF34FF34FF34FF3400340034E0
:1050340000340034003400340034FF34FF34FF34CF
:10504400FF34C034C034C034C034C034C034C0347D
:10505400FF34FF34F834F8341F341F34033403347A
:1050640003341F341F34F834F834FF34FF3400346D
:10507400003400340034003400340034FF34FF348E
:10508400FF34FF340034003400340034003400347E
:105094000034FF34FF34FF34FF34C034C034C03430
:0C50A400C034C034C034C034FF34FF34CA
:105BBE004201E7010130E600E5016608F4006508E0
:105BCE00F50067089F3114270800F300F201731CDB
:105BDE00F22D7108F2070310F10D0310F30C730888
:105BEE00031DEE2D72080800F300730841019E009C
:105BFE003530890B002E0000410113141318052EA9
:105C0E000D08F2000C08F1000800F6000F307605C2
:105C1E00F4000A30F1007608F5000430F536890BF1
:105C2E00152E7508AD31EC25740708000130F10210
:105C3E000030F23B710A0319720A031908000B3087
:105C4E00F3006230890B292EF30B292E00321D2E04
:105C5E00400116114230890B322E0032400196154A
:105C6E004230890B382E0032400116154230890B16
:105C7E003E2E00320800FB00AE317F26AE3178306A
:105C8E00A1315B21AE318030A1315B21AE317B0879
:105C9E00A1315B21AE31AE312F2608000A3400341B
:105CAE00003400340A340034003400340F34273406
:105CBE006434003401340234403478340134023414
:105CCE004034F4007408031D6E2E00300800FF30BF
:105CDE007407F100F10A8030F2000030F3007A2EE2
:105CEE00730DF30CF20CF10B772E7208003C0800CA
:105CFE00400196154230890B822E00324001161556
:105D0E004230890B882E0032400116114230890B29
:105D1E008E2E0032400196114230890B942E0032A5
:105D2E0008002030A0310220AE31A0300032890BA5
:105D3E009D2E0930AD31FB25AE317208F800710889
:105D4E00F7000B30F9000030FA00AE31D12678089A
:105D5E004301CD007708CC0008008030BC06400817
:105D6E00B0003F08AF003E08AE003D08AD003C0855
:105D7E00B4003B08B3003A08B2003908B1008C31C8
:105D8E0013243008BC002F08BB002E08BA002D08C3
:105D9E00B90008004001A001A101771CDB2E790893
:105DAE004001A0077A08A13D0130F935FA0D890BA3
:105DBE00DC2E0130F836F70C890BE12E77087804CB
:105DCE00031DD42E40012108F8002008F70008001A
:105DDE00F200F301F4017208F100740AF72EF136A5
:105DEE00890BF62E711C052F0330F1007435890ACC
:105DFE00012FF135890B002F7108F3040130F407E0
:105E0E0004307402031CF22E73080800AF318C2785
:105E1E00AF314001AC016F30AD00B030AE000B3091
:105E2E00AF0001309431BA24AF3152304001C4007A
:105E3E002B30C3000030890B222FC30B222FC40B33
:105E4E00222F0000A33191230800F900F501F6017D
:105E5E007108F300F4017308F7007408F800791C58
:105E6E003C2F7708F5077808F63D0130F735F80D29
:105E7E00890B3D2F0310F90C7908031D362F760878
:105E8E00F2007508F1000800F200F4017108031920
:105E9E00682F0130F300F11B592F0310F10D013063
:105EAE00F307522F0310F40D71087202031C632FB7
:105EBE007108F20274140310F10C0130F302031D89
:105ECE00592F740808009711161619119C315C246D
:105EDE00AF3142016108803AD50080305502031D72
:105EEE007A2F64306002031C7E2FA6318926400172
:105EFE001915420161084301C900420160084301BE
:105F0E00C80040019715FC100800AE317F26AF3156
:105F1E007830A1315B21AF314030A1315B21AF31FF
:105F2E00AD01A7012D08A1319A21AF31AC0101308D
:105F3E00AC070030A1315B21AF3180302C02031C45
:105F4E009E2F0130AD0708302D02031C982FAE3165
:105F5E002F2608006308803A4001C00080304002BE
:105F6E00031DBC2F013042016202031C08004001D8
:105F7E00161ED32F43012F08D9002E08D8002D0846
:105F8E00D7002C08D6002B08DD002A08DC002908D3
:105F9E00DB002808DA0008009A3134220800710864
:105FAE0072040319FB2F0130F500F21BE62F0130AE
:105FBE00F135F20D890BDF2F0130F507DC2F72085A
:105FCE007402031DEC2F71087302031CF22F71086B
:105FDE00F3027208F43B0130F236F10C890BF32F09
:105FEE000130F502031DE62F7408F2007308F1006C
:105FFE0008000534303407341034153413340134AA
:10600E000434143460342034443445345334493425
:10601E0047344E34453444342034423459342034D9
:10602E004E343734443444344334003453347434AB
:10603E00613463346B34203475346E3464346534B7
:10604E00723466346C346F347734003453347434B1
:10605E00613463346B3420346F3476346534723487
:10606E0066346C346F34773400344D3443344C34EE
:10607E0052342034723465347334653474342034BD
:10608E0020340034203446345734203456344534CA
:10609E005234533449344F344E3420340034573450
:1060AE004434543420346F34763465347234663468
:1060BE006C346F347734003442344F3452342034DD
:1060CE0072346534733465347434203420340034BF
:1060DE00203450344F3457344534523420344F34F6
:1060EE004634463420340034203420344C344F347B
:1060FE005734203442344134543454342034003430
:10610E0020342034203420342034203420342034E1
:10611E002034003453345734523420342034203455
:10612E002034203420340034543455344E34453425
:10613E00203420342034203420340034523445347A
:10614E005334453454342034203420342034003435
:10615E004F345634453452344C344F344134443435
:10616E002034003450345734523420342034203408
:10617E0020342034573400345334573452342034BE
:10618E0020340034533457345234203400343034F5
:10619E002E3430343034003430342E343034003435
:1061AE0031342E34363400343D3400343E34003431
:020000040001F9
:0A000E008C3F3D3F9F3FFF3FFF3F47
:00000001FF
