:100000008031C5280F3427347E14803100308600BB
:10001000003087004E018C1EC3288C120130420133
:10002000A8070030A93DAA3DAB3D5A085904580421
:100030005704031921280130D7020030D83BD93B9F
:10004000DA3B5E085D045C045B0403192D28013073
:10005000DB020030DC3BDD3BDE3BC03040019C007E
:10006000E0309D0043012B0842012B02031D48286C
:1000700043012A0842012A02031D48284301290896
:1000800042012902031D4828430128084201280291
:10009000031CC3280A304301A8070030A93DAA3D2C
:1000A000AB3D40018F185628013057280030F00032
:1000B0008D1A5C2801305D28003070040038031967
:1000C000722842012708DA002608D9002508D8003E
:1000D0002408D7002308DE002208DD002108DC0008
:1000E0002008DB0040018D1A9128FA3042014002BD
:1000F00003187C280130C0071930400603197C160C
:100100004001160E0139F000FA3042014006031D8D
:100110008B2801308C280030700503199C28FC15B1
:100120009C28033042014002031C9B2819304002E6
:1001300003189B28FC16C00140018F18B8281930FD
:1001400042013F020318A6280130BF0740010F0CEF
:10015000890C0139F000143042013F06031DB2281A
:100160000130B328003070050319C328FC14C328DC
:10017000023042013F02031CC2280A303F0203182A
:10018000C2287C15BF017E1009008031C728893044
:100190008400A1308500573086000130870012307E
:1001A0008831062080314301803102208031D20025
:1001B000803103208031D300FC01203084000130E5
:1001C00085002130883100208031A030840001304A
:1001D00085002A30883100207E10400188310C28AB
:1001E0009A31B82280312408B0002508B100890D69
:1001F000893B8909B200B30001309B31C2238031B1
:1002000033084101D700400132084101D6004001C6
:1002100031084101D500400130084101D4009B3133
:100220003D2380312408B0002508B100890D893BA9
:100230008909B200B30001309B31C22380313308F9
:100240004101D300400132084101D2004001310890
:100250004101D100400130084101D000443040014B
:10026000C1007A30C0000030BF000030BE00410144
:1002700057084001C500410156084001C400410132
:1002800055084001C300410154084001C2008631B5
:100290009526803141084101D700400140084101C5
:1002A000D60040013F084101D50040013E08410110
:1002B000D40044304001C1007A30C0000030BF009B
:1002C0000030BE00410153084001C5004101520801
:1002D0004001C400410151084001C30041015008E0
:1002E0004001C20086319526803141084101D3008A
:1002F000400140084101D20040013F084101D100C6
:1003000040013E084101D00057084001A3004101CF
:1003100056084001A200410155084001A1004101D9
:1003200054084001A000430127084001A7004301F1
:1003300026084001A600430125084001A50043010D
:1003400024084001A400843199248031230841010C
:10035000CF00400122084101CE00400121084101A7
:10036000CD00400120084101CC0057084001A30006
:10037000410156084001A200410155084001A10079
:10038000410154084001A000430123084001A70097
:10039000430122084001A600430121084001A500B5
:1003A000430120084001A4008431992480312308AE
:1003B000DB002208DA002108D9002008D80041011A
:1003C00057084001A300410156084001A200410125
:1003D00055084001A100410154084001A00041011D
:1003E0004F084001A70041014E084001A60041010D
:1003F0004D084001A50041014C084001A400843192
:10040000992480312308DF002208DE002108DD0066
:100410002008DC008C315D2480315B084101D7006D
:1004200040015A084101D600400159084101D50058
:10043000400158084101D40053084001A300410184
:1004400052084001A200410151084001A1004101B0
:1004500050084001A000430127084001A7004301C4
:1004600026084001A600430125084001A5004301DC
:1004700024084001A40084319924803123084101DB
:10048000CF00400122084101CE0040012108410176
:10049000CD00400120084101CC0053084001A300D9
:1004A000410152084001A200410151084001A10050
:1004B000410150084001A000430123084001A7006A
:1004C000430122084001A600430121084001A50084
:1004D000430120084001A40084319924803123087D
:1004E000DB002208DA002108D9002008D8004101E9
:1004F00053084001A300410152084001A2004101FC
:1005000051084001A100410150084001A0004101F3
:100510004F084001A70041014E084001A6004101DB
:100520004D084001A50041014C084001A400843160
:10053000992480312308DF002208DE002108DD0035
:100540002008DC008C315D2480315B084101D30040
:1005500040015A084101D200400159084101D1002F
:10056000400158084101D00057084001A70041014F
:1005700056084001A600410155084001A50041016F
:1005800054084001A4004130A3002030A2000030F4
:10059000A1000030A0008431992480312308DF00BD
:1005A0002208DE002108DD002008DC003F30DB00EF
:1005B0000030DA000030D9000030D8008C315D24E2
:1005C00080315B08EF005A08EE005908ED0058082A
:1005D000EC00A7319027803140016D084201B9003D
:1005E00040016C084201B8003908803A4101C70057
:1005F00080304702031DFF2A013042013802031CEC
:10060000192B4001161E162B42012708DA00260876
:10061000D9002508D8002408D7002308DE002208C6
:10062000DD002108DC002008DB00192B9C31F024C0
:10063000803142013908803A4101C70042012F0848
:10064000803A41014702031D282B42012E0838023F
:1006500003182E2B4201B601B701080041015308CF
:10066000F4005208F3005108F2005008F100570856
:10067000F8005608F7005508F6005408F5009331C5
:10068000C4238031031C4A2BE7304201B6000330FB
:10069000B7000800410157084001C1004101560858
:1006A0004001C000410155084001BF00410154080C
:1006B0004001BE00410153084001C50041015208FC
:1006C0004001C400410151084001C30041015008EC
:1006D0004001C20086319526803141084101CB009E
:1006E000400140084101CA0040013F084101C900E2
:1006F00040013E084101C8004B084001EF004101A4
:100700004A084001EE00410149084001ED00410165
:1007100048084001EC009D31A22580316F0841015D
:10072000DB0040016E084101DA0040016D08410123
:10073000D90040016C084101D8003F30A70080304B
:10074000A6000030A5000030A4005B08A3005A08F2
:10075000A2005908A1005808A000A331CD23803180
:100760002308AB002208AA002108A9002008A8003D
:100770000030AF000030AE000030AD000030AC0003
:10078000A6311B268031031CCD2B3A30DB00833091
:10079000DA001230D9006F30D8005B08A3005A0885
:1007A000A2005908A1005808A0003F30A7008030DF
:1007B000A6000030A5000030A400A331CD23803175
:1007C00023084001C100410122084001C00041014D
:1007D00021084001BF00410120084001BE003F3018
:1007E000DB008030DA000030D9000030D800410151
:1007F0005B084001DF0041015A084001DE00410171
:1008000059084001DD00410158084001DC008C31ED
:100810005D2480315B08C5005A08C4005908C30034
:100820005808C20086319526803141084101DB001D
:10083000400140084101DA0040013F084101D90070
:1008400040013E084101D8005B08F4005A08F3005B
:100850005908F2005808F1003F30F8008030F700E6
:100860000030F6000030F5009331C42380310318C6
:10087000422C3F304101DB008030DA000030D900EB
:100880000030D8004130F4001F30F300C230F200D5
:100890008F30F10041015B08F8005A08F700590851
:1008A000F6005808F5009331C4238031031C442B13
:1008B00041015B084001A70041015A084001A60020
:1008C000410159084001A500410158084001A40018
:1008D0004230A300C830A2000030A1000030A000C8
:1008E0008431992480312308DF002208DE002108AA
:1008F000DD002008DC003F30DB000030DA00003093
:10090000D9000030D8008C315D2480315B08EF00C5
:100910005A08EE005908ED005808EC00A73190275E
:1009200040016D084201B70040016C084201B60069
:10093000080023088039AD002335AF00A21B2F1417
:100940002F080319B02C2F0A031DAE2C0030A30072
:100950000030A2000030A1000030A000A217B82C87
:100960000030A3000030A2000030A1000030A00041
:1009700027088039AD062735AE00A61B2E142E0899
:100980000319CF2C2E0A031DCD2C0030A7000030F8
:10099000A6000030A5000030A400A617D72C003018
:1009A000A7000030A6000030A5000030A4002E08EB
:1009B000031D2F08031DE52C0030A3000030A2000A
:1009C0000030A1000030A00008002008F100260837
:1009D000A231682284317208B9007108B800380861
:1009E000A800A901AA01AB012B08B3002A08B20094
:1009F0002908B1002808B0003908A800A901AA01F7
:100A0000AB012B08B7002A08B6002908B500280852
:100A1000B4002108F1002508A2316822843172084F
:100A2000B9007108B8003808A800A901AA01AB01F3
:100A30002808B0072908B13D2A08B23D2B08B33D6C
:100A40003908A800A901AA01AB012808B4072908A0
:100A5000B53D2A08B63D2B08B73D2208F100240811
:100A6000A231682284317208B9007108B8003808D0
:100A7000A800A901AA01AB012808B0072908B13DC7
:100A80002A08B23D2B08B33D3908A800A901AA01E4
:100A9000AB012808B4072908B53D2A08B63D2B0844
:100AA000B73D0830B035B10DB20DB30D890B522DE5
:100AB0002108F1002408A231682284317208B900AB
:100AC0007108B8003808B0073908B13D0030B23DB0
:100AD000B33D2008F1002508A23168228431720854
:100AE000B9007108B8003808B0073908B13D0030C6
:100AF000B23DB33D0830B035B10DB20DB30D890B29
:100B00007B2D2008F1002408A2316822843172086C
:100B1000B9007108B8003808B0073908B13D003095
:100B2000B23DB33D2108F1002608A231682284318C
:100B30007208B9007108B8003808B4073908B53D23
:100B40000030B63DB73D2208F1002508A2316822E9
:100B500084317208B9007108B8003808B407390840
:100B6000B53D0030B63DB73D2208F1002608A23160
:100B7000682284317208B9007108B8003808A800EA
:100B80003908A900AA01AB010830A835A90DAA0DA2
:100B9000AB0D890BC52D2808B4072908B53D2A08D7
:100BA000B63D2B08B73D3308A800A901AA01AB0147
:100BB0002808B4072908B53D2A08B63D2B08B73DDB
:100BC0000830B035B10DB20DB30D890BE12D2F08F2
:100BD0002E07A800A901A90D2808823EB800FF3001
:100BE000293DB900B61B092E0130B435B50DB60D3F
:100BF000B70D890BF52DB31B34140130B035B10D91
:100C0000B20DB30D890BFE2DFF30B807FF30B93D93
:100C1000F22DAE01B31F222EFF303005A800FF30A9
:100C20003105A900FF303205AA007F303305AB0043
:100C30002B082A042904280403193418202E222EF4
:100C40000130AE002E080319492E0130B4070030E0
:100C5000B53DB63DB73D371C492E3408A8003508D0
:100C6000A9003608AA003708AB000130AC00AB374A
:100C7000AA0CA90CA80CAC0B372E2B08B7002A081D
:100C8000B6002908B5002808B4000130B8070030C4
:100C9000B93D3908803AA80080302802031D522E41
:100CA000FF303802031C5E2E7F304001B7008030D9
:100CB000B6000030B5000030B4008A2E400139087B
:100CC000803AA80080302802031D682E01303802C7
:100CD0000318752E00304001B7000030B600003018
:100CE000B5000030B400AD018A2E40013808AF00D5
:100CF000FF30B405FF30B5057F30B6050030B705CD
:100D00002F18B6172F08A8000130A836890B852E9A
:100D10002808B7002D08B7043708A3003608A2003A
:100D20003508A1003408A000080045088039CF002C
:100D30004535D600C41B561456080319AD2E560A65
:100D4000031DAA2E0030C5000030C4000030C300CF
:100D50000030C200C417C501B52E0030C5000030F8
:100D6000C4000030C3000030C20041088039CF0603
:100D70004135D700C01B571457080319CD2E570A09
:100D8000031DCA2E0030C1000030C0000030BF007B
:100D90000030BE00C017C101D52E0030C1000030A8
:100DA000C0000030BF000030BE00410840043F04D6
:100DB0003E04031DF22E0030C5000030C400003098
:100DC000C3000030C2008030C4047F30C5044F0827
:100DD000C5044508C1004408C0004308BF004208DC
:100DE000BE0008005608031DFE2E0030C100003072
:100DF000C0000030BF000030BE0008005608C6002A
:100E0000C7014708C90057084602C800031CC903A8
:100E100048087F3ED0000030493DD1004508CE0053
:100E20004408CD004308CC004208CB000030C50088
:100E30000030C4000030C3000030C2000030D500D4
:100E40000030D4000030D3000030D200D7011A3077
:100E500057020318612F57080319452F0130CB356E
:100E6000CC0DCD0DCE0D890B2F2F0130C235C30D0A
:100E7000C40DC50D890B362FD51B42140130D23558
:100E8000D30DD40DD50D890B3F2F41084E02031D04
:100E9000532F40084D02031D532F3F084C02031DE2
:100EA000532F3E084B02031C5E2F55173E08CB0202
:100EB0003F08CC3B4008CD3B4108CE3B0130D70733
:100EC000272F4E084D044C044B04031D5214C41B21
:100ED0007E2F0130C235C30DC40DC50D890B6A2F9D
:100EE000D51B42140130D235D30DD40DD50D890B4D
:100EF000732FFF30D007FF30D13D672FD701D51FAB
:100F0000972FFF305205C600FF305305C700FF3052
:100F10005405C8007F305505C900490848044704F6
:100F2000460403194218952F972F0130D700570810
:100F30000319BE2F0130C2070030C33DC43DC53D7B
:100F4000451CBE2F4208C6004308C7004408C8001D
:100F50004508C9000130CA00C937C80CC70CC60C07
:100F6000CA0BAC2F4908C5004808C4004708C30095
:100F70004608C2000130D0070030D13D5108803A08
:100F8000C60080304602031DC72FFF305002031CED
:100F9000D62FFF304001D0000030D1000030C50016
:100FA0000030C4000030C3000030C20040015108CE
:100FB000803AC60080304602031DE02F0130500207
:100FC0000318EE2F4001D001D1010030C5000030E0
:100FD000C4000030C3000030C200CF0140015008FF
:100FE000D600561CF52FC417F72F7F30C4055608BE
:100FF000C6000130C636890BFA2F4608C500E72E19
:10100000640080010131890B01280034FE001200C8
:101010001E00FE0B07280034A531CD2588318A310A
:10102000D62288314001171619157C179C31F024FF
:1010300088319331C0238831FC1342012708DA003C
:101040002608D9002508D8002408D7002308DE0088
:101050002208DD002108DC002008DB004301330802
:1010600042012B02031D44284301320842012A0297
:10107000031D44284301310842012902031D44286D
:101080004301300842012802031C5228B8304301B2
:10109000B0070B30B13D0030B23D0030B33D9E3162
:1010A0005926883143012F0842012B02031D68286D
:1010B00043012E0842012A02031D682843012D081E
:1010C00042012902031D682843012C08420128021D
:1010D000031C76282C304301AC070130AD3D0030B5
:1010E000AE3D0030AF3D8E311326883142012708D6
:1010F000260425042404031985285A085904580491
:101100005704031D852840011612420123082204BA
:1011100021042004031995285E085D045C045B0427
:10112000031D9528A631D0268831FC1EA128400138
:10113000161E9E289A313E228831A1289C31F02427
:1011400088317C1EAD284001161EAA289831072040
:101150008831AD289C31F0248831FC1DB92840012C
:10116000161EB628A23149228831B9289C31F024B4
:1011700088317C1DC4284001161AC1289C31F024F6
:1011800088319A313E228831FC1C2E284001161AE3
:10119000D028A231A62288319C31F02488312E2813
:1011A0009831072088312E2810304201C90027309D
:1011B000CA001030CB002730CC0098316C20883129
:1011C0009831DE208831963118268831420137085F
:1011D000803A4101EC0080306C02031DF228793026
:1011E00042013602031C080042013708C8003608D5
:1011F000C7003E08C1003D08C20003303D0203188D
:101200002F2903303E0203182F29BD01BE013D08DE
:10121000F4003C08F5003E089F31142788319831CE
:10122000DE20883198316C2088319631182688313B
:1012300042013708803A4101EC0080306C02031D06
:101240002429793042013602031C08004201370884
:10125000CA003608C9003E08C3003D08C400033078
:101260003D0203185E2903303E0203185E29BD01CA
:10127000BE013D08F4003C08F5003E089F311427EC
:1012800088319931502188319631182688314201B0
:101290003708803A4101EC0080306C02031D53296D
:1012A000793042013602031C080042013708CC00A5
:1012B0003608CB003E08C5003D08C6004A08803A03
:1012C0004101EC0042014808803A41016C02031DD3
:1012D0006C29420147084902031C852942014C0838
:1012E000803A4101EC0042014808803A41016C0219
:1012F000031D7D29420147084B02031C8529420139
:101300004208BD004108BE00080042014808803A7A
:101310004101EC0042014A08803A41016C02031D80
:101320009429420149084702031CAD2942014C0897
:10133000803A4101EC0042014A08803A41016C02C6
:10134000031DA529420149084B02031CAD29420196
:101350004408BD004308BE00080042014808803A26
:101360004101EC0042014C08803A41016C02031D2E
:10137000BC2942014B084702031C080042014A08ED
:10138000803A4101EC0042014C08803A41016C0274
:10139000031DCD2942014B084902031C08004201EC
:1013A0004608BD004508BE000800A131D82189319A
:1013B0007830A431712489314030A43171248931CD
:1013C0000A30A2000030A3002D08A5002C08A400BC
:1013D000A531802589312308AD002208AC002D08F5
:1013E000803AAE0081302E02031DF8292C302C02E9
:1013F0000318FC292C30092A40012D08803AAE0040
:1014000081302E02031D062AA5302C02031C0D2A52
:10141000A4304001AC000130AD0040012C08D43EA6
:10142000AC00FE302D3DAD002D08AF002C08AE0005
:101430000530AE35AF0D890B192A2E08AC002F08E8
:10144000AD007830A2000030A3002D08A5002C08C4
:10145000A400A531802589312208B4001930340256
:10146000031C3B2A3408E83EB0000830B1000830C5
:10147000B2000830502A11303402031C432AB00154
:101480003408F03E362A09303402031C4C2AB001DD
:10149000B1013408F83E382AB001B101B201340874
:1014A000B3003008A131C12189314001B6003608AE
:1014B0000338B6007730A7000030A431B02489315A
:1014C0003608A431712489313608A4317124893158
:1014D0003608A4317124893136081F38B6007530BA
:1014E000A7000030A431B02489313608A43171241A
:1014F00089313608A431712489317A30A70000304F
:10150000A431B02489313608A431712489313608D8
:10151000A431712489313108A131C12189314001BF
:10152000B6007530A7000130A431B0248931B5016F
:101530003608A431712489310130B50707303502EE
:10154000031C982A3208A131C12189314001B6001B
:101550007530A7000230A431B0248931B5013608B6
:10156000A431712489310130B50707303502031CDD
:10157000AF2A3308A131C12189314001B6003608B4
:10158000C038B6007530A7000330A431B0248931CB
:10159000B5013608A431712489310130B50707300F
:1015A0003502031CC92AA1319B2108004101AA016F
:1015B0002A08A03E860087012A08583E8400A830E9
:1015C0000318013E8500000881000130AA070A3097
:1015D0002A02031CD82A2008A13166218A31400141
:1015E000EC00ED01EE01EF016F084201A7004001A0
:1015F0006E084201A60040016D084201A5004001AD
:101600006C084201A4000030F4000030F300EA301E
:10161000F2006030F1002708F8002608F7002508DE
:10162000F6002408F500A3319B238A317408420197
:10163000A7007308A6007208A5007108A400410164
:101640002108A13166218A314001EC00ED01EE0153
:10165000EF016F084201A30040016E084201A200A1
:1016600040016D084201A10040016C084201A00048
:101670000030F4000030F300EA30F2006030F10096
:101680002308F8002208F7002108F6002008F500DA
:10169000A3319B238A3174084201A3007308A2007E
:1016A0007208A1007108A00041012208A131662141
:1016B0008A314001EC00ED016C084201B0004001AC
:1016C0006D084201B10041012308A13166218A3130
:1016D0004001EC00ED016C084201AE0040016D08D4
:1016E0004201AF0041012408A13166218A31400145
:1016F000EC00ED016C08F7006D08F8000A30F90005
:101700000030FA00A2310D228A3178084201AD0082
:101710007708AC0041012508A13166218A314001DA
:10172000EC00ED016C08F7006D08F8000A30F900D4
:101730000030FA00A2310D228A3178084301B70047
:101740007708B60041012608A13166218A31003AA6
:101750000319AC2B7C14AD2B7C1041304001C1002F
:101760002030C0000030BF000030BE00410127081B
:10177000A13166218A314001EC00ED01EE01EF015B
:101780006F08B3006E08B2006D08B1006C08B000BD
:1017900001309B31C2238A313308C5003208C400AE
:1017A0003108C3003008C200863195268A314108CD
:1017B0004301A300400140084301A20040013F084B
:1017C0004301A10040013E084301A0003F30400119
:1017D000DB008030DA000030D9000030D800423021
:1017E000C100C830C0000030BF000030BE00410161
:1017F0002808A13166218A314001EC00ED01EE019B
:10180000EF016F08B3006E08B2006D08B1006C08FC
:10181000B00001309B31C2238A313308C500320841
:10182000C4003108C3003008C200863195268A31D1
:101830004108DF004008DE003F08DD003E08DC0014
:101840008C315D248A315B084301A70040015A08AE
:101850004301A600400159084301A5004001580872
:101860004301A40006304001A2000030A300410162
:101870002908A13166218A314001EC00ED016C0894
:10188000F7006D08F8000A30F9000030FA00A231C4
:101890000D228A317808A5007708A400A53180259B
:1018A00023084301B500400122084301B40042016E
:1018B0003108B3003008B20008005B088039E80046
:1018C0005B35EA00DA1B6A146A080319752C6A0A88
:1018D000031D722C0030DB000030DA000030D9002C
:1018E0000030D800DA17DB017D2C0030DB0000303F
:1018F000DA000030D9000030D8005F088039E900F4
:1019000069086806031D68175F35E900DE1B691466
:1019100069080319992C690A031D962C0030DF0011
:101920000030DE000030DD000030DC00DE17DF01BB
:10193000A12C0030DF000030DE000030DD00003080
:10194000DC006A0869020318C72C681FA92C8030C4
:10195000E8066A08EB006908EA006B08E900580825
:10196000EB005C08D8006B08DC005908EB005D0850
:10197000D9006B08DD005A08EB005E08DA006B083E
:10198000DE005B08EB005F08DB006B08DF00EB01AB
:101990006908E000E1016108E3006A086002E20012
:1019A000031CE3036308803AE40080306402031DF3
:1019B000DB2C1A306202031C0D2D40015B085A0417
:1019C000590458040319E62C0130E72C0030EB00D1
:1019D0000030DB000030DA000030D9000030D800E1
:1019E0006908EA00122D6B1CFF2C6B08E000013027
:1019F000E036890BF82C60080138EB00012D03104C
:101A0000EB0C5818EB170130E000DB37DA0CD90C7F
:101A1000D80CE00B052D0130EA07400169086A0285
:101A2000031CF32C681B452D6A08031D202D003074
:101A3000DB000030DA000030D9000030D8000800A8
:101A40005C08D8075D08D93D5E08DA3D5F08DB3DDC
:101A50005B1CBE2D6B1C362D6B08E0000130E036A0
:101A6000890B2F2D60080138EB00382D0310EB0C8B
:101A70005818EB170130E000DB37DA0CD90CD80C22
:101A8000E00B3C2D0130EA07BE2D5B08803AE000F8
:101A90005F08803A6002031D572D5E085A02031D3D
:101AA000572D5D085902031D572D5C085802031875
:101AB0008C2DFF30E000FF30E100FF30E200FF300E
:101AC000E30058085C02E40059085D3BE5005A0851
:101AD0005E3BE6005B085F3BE7006408E0076508E3
:101AE000E13D6608E23D6708E33D6308DB0062080C
:101AF000DA006108D9006008D8008030E8066B037E
:101B0000FF3AEB006B08031D942D0130D80700301D
:101B1000D93DDA3DDB3D942D5C08D8025D08D93B08
:101B20005E08DA3B5F08DB3B5B085A045904580443
:101B3000031DBC2D6B08031DBC2D0030DB000030E5
:101B4000DA000030D9000030D80008000130D83564
:101B5000D90DDA0DDB0D890BA72DEB1B58146B1C6F
:101B6000B52D03146B0DEB00B72D0310EB0D6A08B8
:101B70000319BC2D0130EA02DA1FA62DE901EB1F83
:101B8000C92D6B087F3903195818C72DC92D01308D
:101B9000E90069080319F12D0130D8070030D93D5B
:101BA000DA3DDB3D5B1CF12D5808E0005908E100EF
:101BB0005A08E2005B08E3000130E400E337E20C7E
:101BC000E10CE00CE40BDE2D6308DB006208DA00B8
:101BD0006108D9006008D8006A0A0319F12D0130A4
:101BE000EA076A0A031D6A08031D012E0030DB00A4
:101BF0000030DA000030D9000030D8006A0803193C
:101C0000E8016A1C052EDA17072E7F30DA056A080C
:101C1000E0000130E036890B0A2E6008DB00E81F87
:101C20000800DB17080036089C3ECA00FF30373D2D
:101C3000CB0003304201D3000830D2007730890B4B
:101C40001F2ED20B1F2ED30B1F2E4301CE01CF010F
:101C5000D001D101CC01CD014D08803A4201D20022
:101C600043013508803A42015202031D3A2E4301D6
:101C700034084C0203186D2E8031F0208E31430160
:101C80004F08803A4201D2003908803A5202031DBF
:101C90004C2E380843014E0203185E2E42013908CB
:101CA0004301CF00420138084301CE00420137080A
:101CB0004301D100420136084301D0000B304201FC
:101CC000D2006230890B622ED20B622E00000130EE
:101CD0004301CC070030CD3D2C2E43014F08803A04
:101CE0004201D20080305202031D792E013043019F
:101CF0004E02031C932E4001161E902E420127080F
:101D0000DA002608D9002508D8002408D7002308BF
:101D1000DE002208DD002108DC002008DB00932E15
:101D20009C31F0248E31430153084F06031D9A2E37
:101D300052084E060319C12EFC1FA52E2A30400161
:101D4000AC003530AD00A930AB2E2A304001AC00DC
:101D50003330AD00A930AE00AF01AF0A003097318B
:101D60000A278E3143014F08D3004E08D2004F0896
:101D70004001BD0043014E084001BC00A63175265C
:101D80008E3143015108803A4201D2008030520224
:101D9000031DCD2E643043015002031C072F420166
:101DA000350843015106031DD92E42013408430171
:101DB00050060319072F51084201B500430150088E
:101DC0004201B40043014F08803A4201D2002F087B
:101DD000803A5202031DEF2E2E0843014E020318D3
:101DE000FC2E420135084001BD004201340840018B
:101DF000BC00A3313A230800420135084001BD0070
:101E0000420134084001BC00A3313A238E31FC1F4B
:101E10007D2F03304301CC000030CD00063040015F
:101E2000AC000730AD00A930AE000930AF00023081
:101E300097310A278E3115304201D3004B30D20042
:101E4000BE30890B212FD20B212FD30B212F000065
:101E50004001AC01DF30AD00A830AE000930AF006A
:101E6000023097310A278E3115304201D3004B30B2
:101E7000D200BE30890B3A2FD20B3A2FD30B3A2F18
:101E80000000FF304301CC07FF30CD3D4C084D042E
:101E9000031D0E2F4001AC01E930AD00A830AE00AB
:101EA0000930AF00023097310A278E312A304001C5
:101EB000AC003330AD00A930AE00AF01AF0A023044
:101EC00097310A278E31430151084001BD0043017B
:101ED00050084001BC00A3313A238E311530420135
:101EE000D3004B30D200BE30890B742FD20B742F2D
:101EF000D30B742F0000FC1308007C1C0800430166
:101F00004F08803A4201D2002F08803A5202031D46
:101F10008C2F2E0843014E02031C080043014F087A
:101F2000803A4201D2002D08803A5202031D9B2FB5
:101F30002C0843014E020318080043015108803A5F
:101F40004201D20080305202031DA92F7930430193
:101F50005002031C080042015F0843015002420185
:101F6000D20060084301513B4201D30043014B08BA
:101F7000803A4201D4005308803A5402031DC32F13
:101F8000520843014A02031CFD2F4301500842013D
:101F90005F02D200430151084201603BD30043017C
:101FA0004B08803A4201D4005308803A5402031D82
:101FB000DC2F520843014A02031CFD2FE730420187
:101FC000D2000330D30043014A0842015202D40038
:101FD00043014B084201533BD5005508803AD600D7
:101FE00043015108803A42015602031DFB2F430171
:101FF00050084201540203180800983107200800D5
:1020000000340034003400340034003400345F34D1
:1020100000340034003407340034073400341434FE
:102020007F3414347F34143424342A347F342A34F3
:10203000123423341334083464346234363449346B
:102040005534223450340034053403340034003421
:1020500000341C34223441340034003441342234FE
:102060001C34003408342A341C342A34083408342C
:1020700008343E34083408340034503430340034EA
:102080000034083408340834083408340034303458
:102090003034003400342034103408340434023432
:1020A0003E345134493445343E34003442347F3474
:1020B000403400344234613451344934463421349C
:1020C000413445344B3431341834143412347F34B1
:1020D0001034273445344534453439343C344A349B
:1020E000493449343034013471340934053403340B
:1020F0003634493449344934363406344934493461
:1021000029341E340034363436340034003400347C
:102110005634363400340034003408341434223455
:102120004134143414341434143414344134223407
:102130001434083400340234013451340934063480
:1021400032344934793441343E347E3411341134DC
:1021500011347E347F3449344934493436343E3482
:1021600041344134413422347F34413441342234C7
:102170001C347F3449344934493441347F34093480
:102180000934013401343E34413441345134323461
:102190007F340834083408347F34003441347F34C9
:1021A000413400342034403441343F3401347F34EE
:1021B00008341434223441347F34403440344034C1
:1021C00040347F340234043402347F347F340434A6
:1021D000083410347F343E344134413441343E3489
:1021E0007F3409340934093406343E3441345134DF
:1021F00021345E347F34093419342934463446346A
:102200004934493449343134013401347F340134A0
:1022100001343F344034403440343F341F342034A0
:10222000403420341F347F342034183420347F3439
:102230006334143408341434633403340434783489
:102240000434033461345134493445344334003464
:1022500000347F34413441340234043408341034BF
:102260002034413441347F340034003404340234A7
:102270000134023404344034403440344034403477
:1022800000340134023404340034203454345434DF
:10229000543478347F344834443444343834383413
:1022A000443444344434203438344434443448349A
:1022B0007F343834543454345434183408347E342D
:1022C00009340134023408341434543454343C3462
:1022D0007F340834043404347834003444347D3496
:1022E000403400342034403444343D34003400342D
:1022F0007F34103428344434003441347F34403443
:1023000000347C3404341834043478347C34083495
:102310000434043478343834443444344434383461
:102320007C3414341434143408340834143414341D
:1023300018347C347C34083404340434083448348D
:10234000543454345434203404343F34443440340A
:1023500020343C344034403420347C341C34203429
:10236000403420341C343C344034303440343C3429
:10237000443428341034283444340C345034503429
:1023800050343C344434643454344C344434003495
:102390000834363441340034003400347F3400349F
:1023A00000340034413436340834003408340834FE
:1023B0002A341C34083408341C342A3408340834D1
:1023C00000340034003400340034003400345F340E
:1023D000003400340034073400340734003414343B
:1023E0007F3414347F34143424342A347F342A3430
:1023F00012342334133408346434623436344934A8
:10240000553422345034003405340334003400345D
:1024100000341C342234413400340034413422343A
:102420001C34003408342A341C342A340834083468
:1024300008343E3408340834003450343034003426
:102440000034083408340834083408340034303494
:10245000303400340034203410340834043402346E
:102460003E345134493445343E34003442347F34B0
:1024700040340034423461345134493446342134D8
:10248000413445344B3431341834143412347F34ED
:102490001034273445344534453439343C344A34D7
:1024A0004934493430340134713409340534033447
:1024B000363449344934493436340634493449349D
:1024C00029341E34003436343634003400340034B9
:1024D0005634363400340034003408341434223492
:1024E0004134143414341434143414344134223444
:1024F00014340834003402340134513409340634BD
:1025000032344934793441343E347E341134113418
:1025100011347E347F3449344934493436343E34BE
:1025200041344134413422347F3441344134223403
:102530001C347F3449344934493441347F340934BC
:102540000934013401343E3441344134513432349D
:102550007F340834083408347F34003441347F3405
:10256000413400342034403441343F3401347F342A
:1025700008341434223441347F34403440344034FD
:1025800040347F340234043402347F347F340434E2
:10259000083410347F343E344134413441343E34C5
:1025A0007F3409340934093406343E34413451341B
:1025B00021345E347F3409341934293446344634A6
:1025C0004934493449343134013401347F340134DD
:1025D00001343F344034403440343F341F342034DD
:1025E000403420341F347F342034183420347F3476
:1025F00063341434083414346334033404347834C6
:1026000004340334613451344934453443340034A0
:1026100000347F34413441340234043408341034FB
:102620002034413441347F340034003404340234E3
:1026300001340234043440344034403440344034B3
:10264000003401340234043400342034543454341B
:10265000543478347F34483444344434383438344F
:1026600044344434443420343834443444344834D6
:102670007F343834543454345434183408347E3469
:1026800009340134023408341434543454343C349E
:102690007F340834043404347834003444347D34D2
:1026A000403400342034403444343D340034003469
:1026B0007F34103428344434003441347F3440347F
:1026C00000347C3404341834043478347C340834D2
:1026D000043404347834383444344434443438349E
:1026E0007C3414341434143408340834143414345A
:1026F00018347C347C3408340434043408344834CA
:10270000543454345434203404343F344434403446
:1027100020343C344034403420347C341C34203465
:10272000403420341C343C344034303440343C3465
:10273000443428341034283444340C345034503465
:1027400050343C344434643454344C3444340034D1
:102750000834363441340034003400347F340034DB
:10276000003400344134363408340034083408343A
:102770002A341C34083408341C342A34083408340D
:102780001030A231EA220800003071054001A0009B
:1027900000307205A10080307305A2007F307405FF
:1027A000A3002308220421042004031DDF2B003092
:1027B000F4000030F3000030F2000030F10000308F
:1027C0007505A00000307605A10080307705A200D5
:1027D0007F307805A3002308220421042004031D70
:1027E000F92B0030F8000030F7000030F600003020
:1027F000F500F41F132C0030A0000030A1000030C1
:10280000A2008030A3007108A0027208A13B7308E7
:10281000A23B7408A33B2308F4002208F30021081C
:10282000F2002008F100F81F2D2C0030A00000302D
:10283000A1000030A2008030A3007508A002760835
:10284000A13B7708A23B7808A33B2308F8002208A5
:10285000F7002108F6002008F5008030F4068030EB
:10286000F80678087402031D080077087302031D38
:10287000080076087202031D08007508710208003E
:1028800042013D084101EB000A30F10042013D08E0
:10289000A231872294314101EE006E08031D522CB3
:1028A0000130EE009631182694314201370841017B
:1028B000ED00420136084101EC006E084201BD07FF
:1028C0003D08F4003C08F5003E089F311427943180
:1028D00096311826943141016D08803AE800420192
:1028E0003708803A41016802031D7A2C42013608FC
:1028F00041016C02031CD82C420137084101ED0054
:10290000420136084101EC0042013D084101EB0063
:102910006E084201BD0700304101E9006E087F3CAE
:10292000E800031CE9036908803AEA0080306A0283
:10293000031D9E2C42013D0841016802031C202D0D
:1029400042013D08F4003C08F5003E089F31142781
:10295000943196311826943141016D08803AE8008F
:1029600042013708803A41016802031DBB2C420135
:10297000360841016C02031C202D42013D08410133
:10298000EB00420137084101ED00420136084101E8
:10299000EC000A30F10042013D08A2318722943157
:1029A0004101EE006E08031D882C0130EE00882CDA
:1029B000420137084101ED00420136084101EC00B7
:1029C000FB2C42013D084101EB0042013708410167
:1029D000ED00420136084101EC000A30F1004201ED
:1029E0003D08A231872294314101EE006E08031D9B
:1029F000FB2C0130EE006E084201BD0241016E0861
:102A000042013D02031C202D3D08F4003C08F50066
:102A10003E089F3114279431963118269431410194
:102A20006D08803AE80042013708803A41016802A7
:102A3000031D1E2D4201360841016C020318E12CD2
:102A400041016B084201BD003D08F4003C08F5005F
:102A50003E089F311427080042013E084101EB0067
:102A60000A30F10042013E08A2318722953141012E
:102A7000EE006E08031D3E2D0130EE009631182643
:102A80009531420137084101ED004201360841010C
:102A9000EC006E084201BE073D08F4003C08F5005A
:102AA0003E089F3114279531963118269531410102
:102AB0006D08803AE80042013708803A4101680217
:102AC000031D662D4201360841016C02031CC42D12
:102AD000420137084101ED00420136084101EC0096
:102AE00042013E084101EB006E084201BE07003082
:102AF0004101E9006E087F3CE800031CE903690816
:102B0000803AEA0080306A02031D8A2D42013E08A5
:102B100041016802031C0C2E42013D08F4003C08F0
:102B2000F5003E089F3114279531963118269531CE
:102B300041016D08803AE80042013708803A4101BE
:102B40006802031DA72D4201360841016C02031CD7
:102B50000C2E42013E084101EB00420137084101C1
:102B6000ED00420136084101EC000A30F10042015B
:102B70003E08A231872295314101EE006E08031D07
:102B8000742D0130EE00742D420137084101ED0033
:102B9000420136084101EC00E72D42013E084101A7
:102BA000EB00420137084101ED00420136084101C6
:102BB000EC000A30F10042013E08A2318722953133
:102BC0004101EE006E08031DE72D0130EE006E0896
:102BD0004201BE0241016E0842013E02031C0C2E5E
:102BE0003D08F4003C08F5003E089F31142795315C
:102BF00096311826953141016D08803AE80042016E
:102C00003708803A41016802031D0A2E4201360846
:102C100041016C020318CD2D41016B084201BE0039
:102C20003D08F4003C08F5003E089F3114270800D9
:102C300096304101E1000030E2002C30DF0001302D
:102C4000E0004201B801B901B601B7014101E60156
:102C5000E70142013908803A4101DC0042012F08B6
:102C6000803A41015C02031D382E42012E083802D1
:102C70000318F82EFC1E422E9A313E224201B60164
:102C8000B7010800FC193E2EE8304101E300033093
:102C9000E4000530E5008031F02096314101640800
:102CA00042013702031D582E4101630842013602DA
:102CB0000318732E37084101E40042013608410130
:102CC000E300420139084101DE00420138084101B8
:102CD000DD0006304101DC003030890B6D2EDC0B4D
:102CE0006D2E0000842E410164084201B7004101AD
:102CF00063084201B60041015E084201B90041018A
:102D00005D084201B8008A2E01304101E5026508E4
:102D1000031D4B2E42012F08803A4101DC00420185
:102D20003908803A41015C02031D992E420138089E
:102D30002E020318AC2E42013908803A4101DC0012
:102D400042012D08803A41015C02031DAA2E420176
:102D50002C083802031C08004101610862040319B1
:102D6000CA2E0130E1020030E23B42013908410144
:102D70006702031DBF2E4201380841016602031895
:102D8000292E420139084101E7004201380841017A
:102D9000E600292E670843015306031DD32E410187
:102DA0006608430152060319E02E410167084001FD
:102DB000BD00410166084001BC00A6317526963170
:102DC000410167084301D300410166084301D20075
:102DD0004101E601E7013230E1000030E2005F0826
:102DE000600403193E2E0130DF020030E03B292E43
:102DF00042012D08803A4101DC0042013908803A45
:102E000041015C02031D072F420138082C02031800
:102E100008003A2EB700A131D82197317830A4317B
:102E2000712497314030A431712497312C08A700C8
:102E30003708A431B0249731BA012F083A02031899
:102E4000882F3A082D0784002E080318013E8500BC
:102E50001200031D2D2FB601372F3A082D078400CD
:102E60002E080318013E85000008E03EB600BB01B5
:102E70003608B000B1013008F7003108F80005301D
:102E8000F9000030FA00A2310D2297310030B20073
:102E90009030B30077083207B4007808333DB500AE
:102EA0003B083407840035080318013E85000008FC
:102EB000B800023037060319632F38080F39A231E2
:102EC0002B2297316E2F38080739A2312B229731E8
:102ED000B0000230B035890B6A2F3008B9003908CC
:102EE000A431712497313908A4317124973101300C
:102EF000BB0705303B02031C382F0030A43171247E
:102F000097310030A431712497310130BA071D2F59
:102F10002C08A7003708013EA431B0249731BA012C
:102F20002F083A020318FD2F3A082D0784002E08B7
:102F30000318013E85001200031DA02FB601AA2F21
:102F40003A082D0784002E080318013E850000086A
:102F5000E03EB600BB013608B000B1013008F70012
:102F60003108F8000530F9000030FA00A2310D22D6
:102F700097310030B2009030B30077083207B400C8
:102F80007808333DB5003B08340784003508031842
:102F9000013E85000008B800023037060319D82F1B
:102FA0003808B0000430B036890BD32F3008E02F3A
:102FB0003808B0000330B036890BDB2F30080F39EA
:102FC000A2312B229731B9003908A43171249731ED
:102FD0003908A431712497310130BB0705303B0219
:102FE000031CAB2F0030A431712497310030A43181
:102FF000712497310130BA07902FA1319B2108002D
:10300800A1319B21080040019711AC01F330AD00BC
:10301800A830AE000930AF00023097310A27983146
:10302800400119119931C621983142013708B5007C
:103038003608B4003708E0003608DF004001AC016C
:103048002130AD00A930AE000430AF000230973116
:103058000A2798312A304001AC003330AD00A9303E
:10306800AE00AF01AF0A023097310A27983142010A
:1030780035084001BD00420134084001BC00A331BD
:103088003A234001191597157C12FC104201C00122
:103098002B084301B30042012A084301B200420150
:1030A80029084301B100420128084301B000420148
:1030B8002B084301AF0042012A084301AE00420138
:1030C80029084301AD00420128084301AC0008006B
:1030D8004101EB019631182698310A304001A200CF
:1030E8000030A300420137084001A500420136081C
:1030F8004001A400A5318025983123084101EA0048
:10310800400122084101E90001304201BD009B282D
:1031180042013D084101EB00420137084101EA0044
:10312800420136084101E90003104201BD0D40305B
:103138003D020318D2283D08F4003C08F5003E087B
:103148009F31142798319631182698310A3040015A
:10315800A2000030A300420137084001A500420147
:1031680036084001A400A531802598312308420182
:10317800B700400122084201B60041016A08803ABE
:10318800E80042013708803A41016802031DD0284F
:10319800420136084101690203188C2841016B0875
:1031A8004201BD003D08F4003C08F5003E089F318F
:1031B800142708004101EB019631182698310A308E
:1031C8004001A2000030A300420137084001A500D9
:1031D800420136084001A400A53180259831230812
:1031E8004101EA00400122084101E90001304201A1
:1031F800BE000D2942013E084101EB00420137089B
:103208004101EA00420136084101E9000310420188
:10321800BE0D40303E02031844293D08F4003C0826
:10322800F5003E089F3114279831963118269831B9
:103238000A304001A2000030A300420137084001D3
:10324800A500420136084001A400A5318025983127
:1032580023084201B700400122084201B60041019B
:103268006A08803AE80042013708803A410168025A
:10327800031D422942013608410169020318FE284C
:1032880041016B084201BE003D08F4003C08F5000E
:103298003E089F31142708004101EB01963118269A
:1032A80099310A304001A2000030A30042013708DA
:1032B8004001A500420136084001A400A53180253F
:1032C800993123084101EA00400122084101E9003F
:1032D80001304201BE007F2942013E084101EB0056
:1032E800420137084101EA00420136084101E9007C
:1032F80003104201BE0D40303E020318B6293E08B5
:10330800F4003C08F5003E089F31142799319631A6
:10331800182699310A304001A2000030A30042016A
:1033280037084001A500420136084001A400A53134
:103338008025993123084201B70040012208420143
:10334800B60041016A08803AE80042013708803A2D
:1033580041016802031DB42942013608410169028E
:103368000318702941016B084201BE0041016B0836
:103378004201BD003D08F4003C08F5003E089F31BD
:103388001427080096311826993142013708803AE7
:10339800CD0080304D02031DD32979303602031C3D
:1033A8000800A43100249931963118269931420138
:1033B8003708803ACD0080304D02031DE529793069
:1033C8003602031C080042013708CF003608CE0039
:1033D8003D08D0003E08D1003C03031DF529BC017F
:1033E800F7290130BC00A431002499319631182600
:1033F800993142014F08803ACD003708803A4D0292
:10340800031D082A36084E020318212A42013C03EC
:10341800031D102ABC01122A0130BC005008BD004F
:103428005108BE003D08F4003C08F5003E089F31F5
:103438001427993196311826993142013708803A74
:10344800CD0080304D02031D2B2A79303602031C33
:103458000800A13155219931963118269931E73064
:1034680042013606033003193706031D0800A1314F
:103478002821080040019711A13128219A314001E3
:10348800AC01FD30AD00A830AE000930AF0002300D
:1034980097310A279A3119304001BD005A30BC00D3
:1034A800B130890B552ABC0B552ABD0B552A003261
:1034B8004001AC011B30AD00A930AE000530AF00B3
:1034C800023097310A279A312A304001AC00333054
:1034D800AD00A930AE00AF01AF0A023097310A271C
:1034E8009A313C304001AC002630AD00A930AE0026
:1034F8000430AF00023097310A279A314201DF01C8
:10350800E0010D304001BD002D30BC00D730890BE3
:103518008B2ABC0B8B2ABD0B8B2A003240019715D6
:10352800FC127C114201C0012B084301B300420187
:103538002A084301B200420129084301B1004201AF
:1035480028084301B00042012B084301AF004201A3
:103558002A084301AE00420129084301AD00420197
:1035680028084301AC0008002030A231EA229A3131
:10357800A0300032890BBD2A0830A13144219A318C
:1035880072084001AB007108AA002A0A0330031927
:103598002B06031DE02A4030A231EA229A31A030DE
:1035A8000032890BD42A0830A13144219A3171356F
:1035B8004001AA00720DAB00FE302A06073003193D
:1035C8002B06031D382B1030A231EA229A31A03085
:1035D8000032890BEC2A0830A13144219A31720853
:1035E8004001AB007108AA002A0A033003192B0610
:1035F8000319FC17A131F1219A3140012A08F10081
:103608002B08F200F301F40142013A08F5003B08E7
:10361800F600890D893B8909F700F800A3319B233F
:103628009A317408AF007308AE007208AD007108D3
:10363800AC002C08A6002D08A7002E08A8002F080B
:10364800A9000A30A936A80CA70CA60C890B262BB2
:103658002908AF002808AE002708AD002608AC00EE
:103668002D08AB002C08AA002B08A5002A08A400E6
:1036780008002030A231EA229B31A0300032890BA9
:10368800422B0A30A13144219B3172084001AB0022
:103698007108AA002A0A033003192B06031D652B9B
:1036A8004030A231EA229B31A0300032890B592BDD
:1036B8000A30A13144219B3171354001AA00720DB5
:1036C800AB00FE302A06073003192B06031DBD2B5D
:1036D8001030A231EA229B31A0300032890B712BC5
:1036E8000A30A13144219B3172084001AB007108B6
:1036F800AA002A0A033003192B060319FC17A13163
:10370800F1219B3140012A08F1002B08F200F30156
:10371800F40142013A08F5003B08F600890D893B9F
:103728008909F700F800A3319B239B317408AF0087
:103738007308AE007208AD007108AC002C08A60032
:103748002D08A7002E08A8002F08A9000A30A936BE
:10375800A80CA70CA60C890BAB2B2908AF002808CE
:10376800AE002708AD002608AC002D08AB002C08D9
:10377800AA002B08A5002A08A4000800B8003808E9
:10378800031DB31FD72B3009BA003109BB0032091A
:10379800BC003309BD00BA0A0319BB0A0319BC0AE5
:1037A8000319BD0ADF2B3308BD003208BC003108FD
:1037B800BB003008BA003308320431043004031D5A
:1037C800EE2B0030B3000030B2000030B100003002
:1037D800B00008009630B900FE303D0503190D2CE5
:1037E8000130B9070130BD36BC0CBB0CBA0C890BD3
:1037F800F72BF02B0130B9070130BA070030BB3D79
:10380800BC3DBD3D0130BD36BC0CBB0CBA0C890BB0
:10381800072CFF303D0503191F2CFE2B02303902FF
:10382800031C212C0130B9020130BA35BB0DBC0D87
:10383800BD0D890B192CBC1F122C39182B2CFF30ED
:10384800BA05FF30BB057F30BC05FF30BD0503104E
:10385800B90C3908B400B501B601B7011830B43550
:10386800B50DB60DB70D890B332C3408BA043508DD
:10387800BB043608BC043708BD043808031DB31F51
:10388800462CBD173D08B3003C08B2003B08B10008
:103898003A08B00008004001B001A131D8219C319C
:1038A8007830A43171249C31003A0319722CA1316B
:1038B8009B219C310D304001AF002D30AE00D73038
:1038C800890B642CAE0B642CAF0B642C00320130D6
:1038D8004001B0070A303002031C512C0030A431DB
:1038E80071249C31AE30A43171249C31D530A4317F
:1038F80071249C318030A43171249C31A830A431CA
:1039080071249C313F30A43171249C31D330A431CF
:1039180071249C314030A43171249C314030A43151
:1039280071249C318D30A43171249C311430A43120
:1039380071249C318130A43171249C31FF30A43131
:1039480071249C31D930A43171249C31F130A431D7
:1039580071249C312030A43171249C310230A4316F
:1039680071249C312130A43171249C310030A43160
:1039780071249C317F30A43171249C312E30A431C4
:1039880071249C31A030A43171249C31C030A43101
:1039980071249C31DA30A43171249C310230A43175
:1039A80071249C31DB30A43171249C314030A43126
:1039B80071249C31A430A43171249C31A630A431E7
:1039C80071249C31A1319B219C31A231C5229C31AB
:1039D800AF30A131AE210800161609304001BF00F2
:1039E8001E30BE00E430890BF72CBE0BF72CBF0B42
:1039F800F72C0000983104209C3168304001BE004B
:103A0800E430890B052DBE0B052D00009C314F2499
:103A18009C317C1F162DA43133249C317C13A23198
:103A2800C5229C314001AC011130AD00A930AE0077
:103A38000930AF00003097310A279C31A431F124B6
:103A48009C314001AC01E930AD00A830AE0009302E
:103A5800AF00023097310A279C312A304001AC0070
:103A68003330AD00A930AE00AF01AF0A0030973156
:103A78000A279C312A304001AC003330AD00A93010
:103A8800AE00AF01AF0A023097310A279C310F30E0
:103A98004301B8002730B90064304201DF0000302C
:103AA800E0000F304301D2002730D3004201B401B7
:103AB800B50135084001BD00420134084001BC0091
:103AC800A3313A239C310130420128074301B00059
:103AD80000304201293D4301B100003042012A3D36
:103AE8004301B200003042012B3D4301B3004201C3
:103AF8002B084301AF0042012A084301AE004201EE
:103B080029084301AD00420128084301AC00FC121A
:103B18007C12FC117C11FC1042012708DA002608EF
:103B2800D9002508D8002408D7002308DE00220879
:103B3800DD002108DC002008DB0008004030C1005F
:103B48000030C0000030BF000030BE006F08C50064
:103B58006E08C4006D08C3006C08C2008631952643
:103B68009D3141084101A500400140084101A400E0
:103B780040013F084101A30040013E084101A20065
:103B88000130C6004608A0000230A035890BC92DB7
:103B98002008FC3EA23E86008701403F4001D80035
:103BA800413FD900423FDA00433FDB00410146086C
:103BB800A1000230A135890BDE2D2108FC3EA23E72
:103BC80086008701403F4001BE00413FBF00423FA1
:103BD800C000433FC1006F08C5006E08C4006D08EF
:103BE800C3006C08C200863195269D314108DF006C
:103BF8004008DE003F08DD003E08DC008C315D2413
:103C08009D315B084101C50040015A084101C400CB
:103C1800400159084101C300400158084101C20050
:103C280040304001C1000030C0000030BF0000300B
:103C3800BE00410145084001C5004101440840015A
:103C4800C400410143084001C3004101420840014A
:103C5800C200863195269D3141014608A0000230F8
:103C6800A035890B342E2008A23E8600870140012A
:103C78003E08C03F3F08C13F4008C23F4108C33F1C
:103C880001304101C60708304602031CC62D1C300E
:103C9800A23E86008701403F4001EC00413FED0015
:103CA800423FEE00433FEF000800A131F1219E3171
:103CB8004301390842013B06031D662E43013808BB
:103CC80042013A060319952E3B084301B900420107
:103CD8003A084301B80042013B084001AD004201E7
:103CE8003A084001AC008931D5219E3142013B0898
:103CF800803A4001C3008E304302031D862ED9301E
:103D080042013A020318902E42013008013EB200E7
:103D18000030313DB300952E42013108B300300820
:103D2800B2003B08803A4001C3008E304302031DB5
:103D3800A02E753042013A02031CB22E40019711A1
:103D4800171602304001C4003830C300AD30890B6B
:103D5800AB2EC30BAB2EC40BAB2ECF2E42013B08B0
:103D6800803A4001C3008E304302031DBE2E073047
:103D780042013A02031CD32E400197111712023058
:103D88004001C4003830C300AD30890BC92EC30BC5
:103D9800C92EC40BC92E400197151716E52E4001F0
:103DA8001712971502304001C4003830C300AD30F7
:103DB800890BDC2EC30BDC2EC40BDC2E400117163E
:103DC800971542013B08803A4001C3008D304302F9
:103DD800031DF12E483042013A0203180800A231AF
:103DE800C5229E314001AC01D330AD00A830AE00F1
:103DF8000B30AF00013097310A279E315230400115
:103E0800C4002B30C3000030890B082FC30B082FC8
:103E1800C40B082F000040011612A631D026080056
:103E2800F70077181A2F400199171C2F4001991392
:103E38007708F6000130F636890B1F2F7618272FE2
:103E480040011917292F400119137708F60002308D
:103E5800F636890B2C2F7618342F40019916362FF9
:103E6800400199127708F6000330F636890B392F8E
:103E78007618412F40011916432F4001191277086F
:103E8800F6000430F636890B462F76184E2F40017F
:103E98009817502F400198137708F6000530F6362A
:103EA800890B532F76185B2F400118175D2F40019F
:103EB80018137708F6000630F636890B602F761847
:103EC800682F400198166A2F4001981274186F2FB6
:103ED80040019616712F400196127408F6000130C1
:103EE800F636890B742F76187C2F40019A147E2F92
:103EF80040019A107408F6000230F636890B812FBB
:103F08007618892F400196178B2F40019613740855
:103F1800F6000330F636890B8E2F7618962F40015F
:103F28001617982F400116137408F6000430F63659
:103F3800890B9B2F7618A32F40011814A52F400139
:103F480018107408F6000530F636890BA82F761875
:103F5800B02F40019814B22F400198107408F60051
:103F68000630F636890BB52F7618BD2F4001181587
:103F7800BF2F40011811750C031C1A1003181A14CE
:103F8800991542013308F2003208F100A131772176
:103F98009F31400199111A30890BD02F003240010E
:103FA800181242013308F2003208F100A1317721DA
:103FB8009F314001181642013308F2003208F1001F
:103FC800A13177219F3140019913191399121912C0
:103FD80098131813981296129A109613161318100D
:103FE800981018111A101530F600C630890BFA2FE0
:083FF800F60BFA2F003208005D
:104250004201BE010130BD00BC013D08F4003C0834
:10426000F5003E089F3114270800F300F201731C8B
:104270003B297108F2070310F10D0310F30C7308CA
:10428000031D372972080800F300730841019E00DE
:104290003530890B492900004101131413184E29A8
:1042A0000D08F2000C08F100080042013E083D0232
:1042B000031C602994314024A13195312C2508003C
:1042C00095312C25A131943140240800F6000F309F
:1042D0007605F4000A30F1007608F5000430F53672
:1042E000890B6F297508A131352174070800013049
:1042F000F1020030F23B710A0319720A0319080037
:104300000B30F3006230890B8329F30B83290032D1
:1043100077290A340034003400340A34003400347D
:1043200000346434003401340234403478340134CD
:10433000023440347834400116114230890B9E29F2
:104340000032400196154230890BA4290032400109
:1043500016154230890BAA2900320800FB00A13152
:10436000D821A1317830A4317124A1318030A43119
:104370007124A1317B08A4317124A131A1319B2189
:104380000800F4007408031DC72900300800FF303E
:104390007407F100F10A8030F2000030F300D329F5
:1043A000730DF30CF20CF10BD0297208003C0800DD
:1043B000400196154230890BDB2900324001161569
:1043C0004230890BE1290032400116114230890B3D
:1043D000E7290032400196114230890BED29003265
:1043E00008002030A231EA22A131A0300032890B2E
:1043F000F6290930A1314421A1317208F800710871
:10440000F7000B30F9000030FA00A2310D227808D5
:104410004201BB007708BA0008004001A001A101D9
:10442000771C172A79084001A0077A08A13D0130BE
:10443000F935FA0D890B182A0130F836F70C890B7B
:104440001D2A77087804031D102A40012108F8006E
:104450002008F7000800F200F301F4017208F100EF
:10446000740A332AF136890B322A711C412A03302F
:10447000F1007435890A3D2AF135890B3C2A71080F
:10448000F3040130F40704307402031C2E2A73086D
:104490000800A231C522A2314001AC01C730AD00F5
:1044A000A830AE000B30AF00013097310A27A2319F
:1044B00052304001C4002B30C3000030890B5E2A0B
:1044C000C30B5E2AC40B5E2A0000A631D02608006A
:1044D000F900F501F6017108F300F4017308F70023
:1044E0007408F800791C782A7708F5077808F63DF3
:1044F0000130F735F80D890B792A0310F90C79088A
:10450000031D722A7608F2007508F1000800F20017
:10451000F40171080319A42A0130F300F11B952A54
:104520000310F10D0130F3078E2A0310F40D71080A
:104530007202031C9F2A7108F20274140310F10C1A
:104540000130F302031D952A74080800971116160E
:10455000191196311826A23142013708803AD2004B
:1045600080305202031DB62A64303602031CBA2A78
:104570009931C6214001191542013708B5003608A6
:10458000B40040019715FC100800A131D821A231D8
:104590007830A4317124A2314030A4317124A23189
:1045A000AD01A7012D08A431B024A231AC01013026
:1045B000AC070030A4317124A23180302C02031CDE
:1045C000D72A0130AD0708302D02031CD12AA131B2
:1045D0009B210800F300410193137308603903190C
:1045E000062B731BF52A0130F62A0230F100003049
:1045F000F20052010C087106FC3971068C008C1710
:104600000C1F002B033041019A00072B9A019401E3
:10461000950196019D019C011430930093170800A9
:10462000710872040319352B0130F500F21B202BA1
:104630000130F135F20D890B192B0130F507162BDE
:1046400072087402031D262B71087302031C2C2BA5
:104650007108F3027208F43B0130F236F10C890B59
:104660002D2B0130F502031D202B7408F200730876
:10467000F10008003C083D04031D4A2B3C30AC000F
:104680002630AD00A930AE000430AF0002309731C3
:104690000A2708003D08F9003C08F800BA30FA0083
:1046A000A7312E27A33143013D08C2002E30C3009D
:1046B0003E08C4003F08C5003C304001AC00C23099
:1046C000AD000130AE000430AF00023097310A2750
:1046D0000800F601F701710872040319962B0130E6
:1046E000F500F21B7B2B0130F135F20D890B742B99
:1046F0000130F507712B0130F635F70D890B7C2B56
:1047000072087402031D862B71087302031C8D2B23
:104710007108F3027208F43B76140130F236F10CA2
:10472000890B8E2B0130F502031D7B2B7708F200DD
:104730007608F100080000304001A3000030A2001C
:104740000030A1000030A000711CAF2B75084001A3
:10475000A0077608A13D7708A23D7808A33D013067
:10476000F535F60DF70DF80D890BB02B0130F43649
:10477000F30CF20CF10C890BB72B74087304720460
:104780007104031DA42B40012308F4002208F30048
:104790002108F2002008F10008008030A306270855
:1047A0004001DB00410126084001DA0041012508F3
:1047B0004001D900410124084001D80041012308EB
:1047C0004001DF00410122084001DE0041012108D3
:1047D0004001DD00410120084001DC008C315D24F6
:1047E0005B084101A30040015A084101A2004001B9
:1047F00059084101A100400158084101A0000800EA
:104800004201BD01BE013D08F4003C08F5003E0830
:104810009F311427A43196311826A431420137085C
:10482000803A4101EF0080306F02031D1A2C79306D
:1048300042013602031C08008831D420A43196318D
:104840001826A43142013708803A4101EF00803038
:104850006F02031D2E2C793042013602031C080022
:10486000A1315521080040019711A231C522A43180
:104870004001AC016230AD00A830AE001230AF0094
:104880000130A5313625A4314001AC01A130AD0085
:10489000A830AE000C30AF000330A5313625A4316E
:1048A00054304001AC002F30AD00A930AE000330D1
:1048B000AF000330A5313625A4317A304001BB006A
:1048C000C130BA008130890B632CBA0B632CBB0B4F
:1048D000632C003240018D1A6F2C00006A2C971552
:1048E00008004001A500A6012508A2000730A23655
:1048F000890B772C22080139A300A30DA30D1608FC
:104900002306FB39230696004230890B852C0032A2
:10491000400196154230890B8B2C003240019611D4
:104920002535A5000130A60708302602031C742C8B
:1049300016154230890B9A2C0032400196150C0C4A
:10494000890C0139A4004230890BA42C00324001AB
:1049500096114230890BAA2C00324001240808002D
:10496000A8002708023EAB00A131D821A43178303D
:10497000A4317124A4310030A4317124A431280859
:10498000B03EA4317124A43110302B020318CC2C7A
:104990002B08A900AA01DD2C2B08FB000430FB36F4
:1049A000890BCF2C7B08AA00F030F1002A08A13136
:1049B0003521A43140012B07A9002908A431712415
:1049C000A4312A08103EA4317124A431A131D82188
:1049D000A4317830A4317124A4314030A431712441
:1049E0000800A131D821A4317830A4317124A43138
:1049F0004030A4317124A431B3017330A7003308CF
:104A0000A431B024A431B2013308AC00AD012C08AC
:104A1000F7002D08F8000B30F9000030FA00A23141
:104A20000D22A4310030AE00A830AF0077082E0769
:104A3000B00078082F3DB1003208300784003108FB
:104A40000318013E85000008A4317124A43101300F
:104A5000B2070B303202031C042D0130B3070430BF
:104A60003302031CFD2CA1319B210800B6002C0849
:104A7000A7003608A431B024A531B8012F083802A8
:104A800003187D2D38082D0784002E080318013ED9
:104A900085000008E03EB700B9013708B000B10159
:104AA0003008F7003108F8000530F9000030FA004E
:104AB000A2310D22A5310030B2009030B30077084A
:104AC0003207B4007808333DB50039083407840054
:104AD00035080318013E85000008A4317124A53172
:104AE0000130B90705303902031C4D2D0030A431C7
:104AF0007124A5310130B8073E2DA1319B2108005A
:104B0000A701A31F8A2DA209A309A20A0319A30AB8
:104B10000130A700A51F932DA409A509A40A031914
:104B2000A50A0130A706A801A90122082304031938
:104B3000C02D0130A600A31BA52D0130A235A30D69
:104B4000890B9E2D0130A6079B2D0130A835A90D9C
:104B5000890BA62D23082502031DB02D220824024F
:104B6000031CB72D2208A4022308A53B28140130FA
:104B7000A336A20C890BB82D0130A602031DA52D6A
:104B800027080319C82DA809A909A80A0319A90A01
:104B90002908A3002808A20008007E01B801C3016B
:104BA0004314C3144315CE01E401D90153019013FA
:104BB000941340018C018D018E018F0190019601AB
:104BC000970110309800063099009A019101273022
:104BD00092009301940195017E013A15BA15DB14F8
:104BE0005B1540019F121F179F131E16C0309C00BB
:104BF000E0309D004E018C1240019E174E0196162A
:104C00001E304F019600FE309700473098007F30ED
:104C1000990077309A00DF309B008B170530F20047
:104C20000F30F100F130890B132EF10B132EF20B24
:104C3000132E00000800003028054001EC00003071
:104C4000410129054001ED00803041012A05400164
:104C5000EE007F3041012B054001EF006F086E042C
:104C60006D046C04031D3D2E00304101AB0000308B
:104C7000AA000030A9000030A800003041012C0536
:104C80004001EC00003041012D054001ED00803075
:104C900041012E054001EE007F3041012F0540010A
:104CA000EF006F086E046D046C04031D602E00306D
:104CB0004101AF000030AE000030AD000030AC006C
:104CC00041012F082B06031D6F2E2E082A06031DF7
:104CD0006F2E2D082906031D6F2E2C082806031998
:104CE000732E03100800031408003C083D04031D44
:104CF000852E3C30AC002B30AD00A930AE00033027
:104D0000AF00003097310A27080000303D020A301A
:104D100003193C0203189C2E3D08F9003C08F800DA
:104D2000BA30FA00A7312E27A63130304301C20035
:104D30002E30C3003F08C22E00303D0264300319FC
:104D40003C020318AF2E3D08F9003C08F800BA30C9
:104D5000FA00A7312E27A63143013E08972E0530D1
:104D6000BC070030BD3D3D08F9003C08F800BA30F2
:104D7000FA00A7312E27A63120304301C2003D089A
:104D8000C3003E08C4003C304001AC00C230AD005E
:104D90000130AE000330AF00003097310A27080021
:104DA0008B1340019E134E018C1216167E01CA12FF
:104DB000C9164001161217169715C2014208031DA5
:104DC000F02E05304001C1000F30C000F130890BDA
:104DD000E72EC00BE72EC10BE72E7E01CA1263003F
:104DE000000005304001C1000F30C000F130890BD8
:104DF000F72EC00BF72EC10BF72E40018D1A032F93
:104E00000130C207042FC20110304202031CDE2E03
:104E10004E0116127E01C912CA1240019E178B174D
:104E20007C179C31F024A63140018D1A192F000007
:104E3000142F4201C001FC127C12FC112B0843010B
:104E4000AB0042012A084301AA004201290843019C
:104E5000A900420128084301A8000800F91F322FC9
:104E60000130332F0030A2002208031D3C2F7908A7
:104E7000A4007808A300472F7809A0007909A100B1
:104E8000A00A0319A10A2008A3002108A400A50173
:104E90007A08250786000130870020308100013024
:104EA000A50706302502031C482F7A08063E860017
:104EB0000130870081010530A5007A0825078600AA
:104EC000013087000A30F1000030F2002408F400BD
:104ED0002308F300A3311023A7317108303E81006D
:104EE0000130A5020A30F1000030F2002408F4007D
:104EF0002308F300A3316923A7317208A4007108C5
:104F0000A30023082404031D5D2F220803190800B1
:104F10007A0825078600013087002D3081000800BF
:104F200003106E0D6F0D4101A5002508031DA22F72
:104F300000304001EF000030EE000030ED000030A6
:104F4000EC00080040016C084101A00040016D0820
:104F50004101A10040016E084101A20040016F081B
:104F60004101A3001F30A336A20CA10CA00C890B99
:104F7000B32F2008A4004001EE17FF30EC05FF30EE
:104F8000ED05FF30EE050030EF0596304101A5023A
:104F9000A51FDD2F2508803A973E031C982F01306E
:104FA0004001EF36EE0CED0CEC0C890BD02F0130EC
:104FB0004101A5070319F02FCF2F20302502031838
:104FC000982F25080319F02F01304001EC35ED0D25
:104FD000EE0DEF0D890BE52F01304101A502E12F08
:104FE0002408031908004001EC09ED09EE09EF0956
:104FF000EC0A0319ED0A0319EE0A0319EF0A080077
:10500000F834F8341F341F340334033403341F34AA
:105010001F34F834F834FF34FF34003400340034E3
:105020000034003400340034FF34FF34FF34FF34E4
:105030000034003400340034003400340034FF34D1
:10504000FF34FF34FF34C034C034C034C034C03403
:10505000C034C034FF34FF34F834F8341F341F3404
:105060000334033403341F341F34F834F834FF346A
:10507000FF34003400340034003400340034003491
:10508000FF34FF34FF34FF34003400340034003484
:10509000003400340034FF34FF34FF34FF34C034B4
:1050A000C034C034C034C034C034C034FF34FF34E2
:1050B00005343034073410341534133401340434D7
:1050C0001434603420344434453453344934473440
:1050D0004E344534443420344234593420344E3430
:1050E00037344434443443340034533474346134F6
:1050F00063346B34203475346E3464346534723404
:1051000066346C346F34773400345334743461341F
:1051100063346B3420346F347634653472346634DF
:105120006C346F34773400344D3443344C3452345F
:10513000203472346534733465347434203420344C
:1051400000342034463457342034563445345234F5
:10515000533449344F344E342034003457344434BB
:10516000543420346F3476346534723466346C349D
:105170006F347734003442344F3452342034723434
:10518000653473346534743420342034003420346E
:1051900050344F3457344534523420344F3446342D
:1051A000463420340034203420344C344F345734C7
:1051B00020344234413454345434203400342034C4
:1051C000203420342034203420342034203420343F
:1051D00000345334573452342034203420342034B3
:1051E000203420340034543455344E344534203483
:1051F00020342034203420340034523445345334A5
:1052000045345434203420342034203400344F3496
:105210005634453452344C344F34413444342034C1
:105220000034503457345234203420342034203465
:10523000203457340034533457345234203420341B
:1052400000345334573452342034003430342E3444
:1052500030343034003430342E343034003431348F
:0E5260002E34363400343D3400343E340034F5
:020000040001F9
:0A000E008C3F3D3F9F3FFF3FFF3F47
:00000001FF
