:040000008031D32850
:100008007E14803100308600003087004E018C1E3F
:10001800D1288C1201304301B0070030B13DB23D08
:10002800B33D5B085A0459045804031927280130C2
:10003800D8020030D93BDA3BDB3B5B085A04590451
:10004800580403197C155F085E045D045C040319F9
:1000580039280130DC020030DD3BDE3BDF3B5F0846
:100068005E045D045C040319FC14C03040019C006C
:10007800E0309D004401270843013302031D542842
:100088004401260843013202031D5428440125086F
:1000980043013102031D542844012408430130025E
:1000A800031CD1280A304401A4070030A53DA63D11
:1000B800A73D40018F186228013063280030F00006
:1000C8008D1A682801306928003070040038031937
:1000D800802843012F08DB002E08DA002D08D900FC
:1000E8002C08D8002B08DF002A08DE002908DD00CC
:1000F8002808DC007C11FC1040018D1A9F28FA307A
:100108004301570203188A280130D70719305706C8
:1001180003197C174001160E0139F000FA3043012B
:100128005706031D992801309A28003070050319D5
:10013800AA28FC16AA28033043015702031CA92841
:10014800193057020318A928FC17D70140018F1846
:10015800C6281930430156020318B4280130D607BF
:1001680040010F0C890C0139F00014304301560688
:10017800031DC0280130C128003070050319D1289B
:10018800FC15D128023043015602031CD0280A303E
:1001980056020318D0287C16D6017E10090080313B
:1001A800D528F4308400A9308500D8308600013085
:1001B80087001430A93174218031FC014301EC011E
:1001C8004201E801E901EA01A0308400013085001C
:1001D8003830A9316E21803120308400023085000A
:1001E8002030A9316E217E10400199310329443015
:1001F8004001C1007A30C0000030BF000030BE00AE
:10020800410161084001C500410160084001C40086
:1002180041015F084001C30041015E084001C2007E
:1002280088318020803141084101E10040014008C7
:100238004101E00040013F084101DF0040013E0864
:100248004101DE0044304001C1007A30C000003076
:10025800BF000030BE00410165084001C5004101F2
:1002680064084001C400410163084001C300410122
:1002780062084001C2008831802080314108410174
:10028800E500400140084101E40040013F08410108
:10029800E30040013E084101E20061084001DB0043
:1002A800410160084001DA0041015F084001D900BE
:1002B80041015E084001D800430127084001DF00E2
:1002C800430126084001DE00430125084001DD0006
:1002D800430124084001DC008D31722580315B0820
:1002E8004201AB0040015A084201AA0040015908E6
:1002F8004201A900400158084201A80041016108D3
:100308004001DB00410160084001DA0041015F085B
:100318004001D90041015E084001D800430123088B
:100328004001DF00430122084001DE0043012108AB
:100338004001DD00430120084001DC008D317225B9
:1003480080315B084101B00040015A084101AF000B
:10035800400159084101AE00400158084101AD0073
:1003680061084001DB00410160084001DA004101F9
:100378005F084001D90041015E084001D8004201F0
:100388002B084001DF0042012A084001DE0042013B
:1003980029084001DD00420128084001DC008D31B8
:1003A800722580315B084101B40040015A084101BF
:1003B800B300400159084101B20040015808410109
:1003C800B1008B31892380313008E1002F08E0002B
:1003D8002E08DF002D08DE0065084001DB00410122
:1003E80064084001DA00410163084001D900410175
:1003F80062084001D800430127084001DF0043019B
:1004080026084001DE00430125084001DD004301C4
:1004180024084001DC008D31722580315B084201DF
:10042800AB0040015A084201AA00400159084201A4
:10043800A900400158084201A8004101650840018F
:10044800DB00410164084001DA0041016308400112
:10045800D900410162084001D80043012308400146
:10046800DF00430122084001DE004301210840016A
:10047800DD00430120084001DC008D317225803108
:100488005B084101B00040015A084101AF0040013A
:1004980059084101AE00400158084101AD00650806
:1004A8004001DB00410164084001DA0041016308B2
:1004B8004001D900410162084001D80042012B08DF
:1004C8004001DF0042012A084001DE0042012908FC
:1004D8004001DD00420128084001DC008D31722511
:1004E80080315B084101B40040015A084101B30062
:1004F800400159084101B200400158084101B100CA
:100508008B31892380313008E5002F08E4002E085C
:10051800E3002D08E20061084001DF0041016008A6
:100528004001DE0041015F084001DD0041015E0835
:100538004001DC004130DB002030DA000030D90017
:100548000030D8008D31722580315B084101B4003C
:1005580040015A084101B300400159084101B20065
:10056800400158084101B1003F30B0000030AF00F1
:100578000030AE000030AD008B3189238031300867
:10058800C4002F08C3002E08C2002D08C100A431E2
:10059800F1248031410142084301CB004101410867
:1005A8004301CA0041016508C4006408C300630828
:1005B800C2006208C1006108C8006008C7005F087F
:1005C800C6005E08C500883105208031031CF02A6A
:1005D8004301B401B501592B6108C0006008BF0090
:1005E8005F08BE005E08BD006508BC006408BB006B
:1005F8006308BA006208B900AA31872280313C0832
:100608004001DF0041013B084001DE0041013A089A
:100618004001DD00410139084001DC004130DB00C8
:100628002030DA000030D9000030D8008D31722532
:1006380080315B084201A30040015A084201A20030
:10064800400159084201A100400158084201A00098
:1006580023084101B400420122084101B3004201CC
:1006680021084101B200420120084101B1003F3098
:10067800B0000030AF000030AE000030AD008B316C
:10068800892380313008C4002F08C3002E08C20017
:100698002D08C100A431F1248031410142084301F1
:1006A800B500410141084301B40000304101C400D4
:1006B8000030C3000030C2000030C1006108C8002B
:1006C8006008C7005F08C6005E08C50088310520BD
:1006D80080310318842B6508C4006408C3006308CC
:1006E800C2006208C1006108C8006008C7005F084E
:1006F800C6005E08C500883105208031031C8A2B9E
:1007080010304301B6002730B700EC2B65084001D4
:10071800C500410164084001C4004101630840016B
:10072800C300410162084001C20041016108400163
:10073800C100410160084001C00041015F0840015B
:10074800BF0041015E084001BE0088318020803131
:100758004108DF004008DE003F08DD003E08DC00FD
:100768004630DB001C30DA004030D9000030D800B9
:100778008D31722580315B084101B40040015A086F
:100788004101B300400159084101B2004001580835
:100798004101B1003F30B0000030AF000030AE0082
:1007A8000030AD008B31892380313008C4002F0818
:1007B800C3002E08C2002D08C100A431F1248031E5
:1007C800410142084301B700410141084301B60015
:1007D8004B08803AFB003F08803A7B02031DF62B4A
:1007E8003E084A020318FC2B4301C801C90108004E
:1007F80041016508C4006408C3006308C2006208B8
:10080800C1006108C8006008C7005F08C6005E082C
:10081800C500883105208031031C182CE7304301BE
:10082800C8000330C900080061084001C100410147
:1008380060084001C00041015F084001BF0041015C
:100848005E084001BE00410165084001C500410144
:1008580064084001C400410163084001C30041012C
:1008680062084001C200883180208031410842017D
:10087800A700400140084201A60040013F0842018C
:10088800A50040013E084201A40027084101D0000C
:10089800420126084101CF00420125084101CE004E
:1008A800420124084101CD009631C9268031500803
:1008B8004201AF0041014F084201AE0041014E081C
:1008C8004201AD0041014D084201AC003F304101F9
:1008D800C0008030BF000030BE000030BD004201C3
:1008E8002F084101BC0042012E084101BB00420112
:1008F8002D084101BA0042012C084101B900AA3172
:10090800872280313C08C4003B08C3003A08C20073
:100918003908C1000030C8000030C7000030C600E8
:100928000030C500AE31DC268031031CA42C3A30DF
:100938004201AF008330AE001230AD006F30AC0022
:1009480042012F084101BC0042012E084101BB00B1
:1009580042012D084101BA0042012C084101B900A9
:100968003F30C0008030BF000030BE000030BD0006
:10097800AA31872280313C084001C10041013B086F
:100988004001C00041013A084001BF004101390857
:100998004001BE003F304101B0008030AF00003060
:1009A800AE000030AD0042012F084101B400420101
:1009B8002E084101B30042012D084101B200420155
:1009C8002C084101B1008B31892380313008400166
:1009D800C50041012F084001C40041012E08400113
:1009E800C30041012D084001C200883180208031B8
:1009F80041084201AF00400140084201AE004001F9
:100A08003F084201AD0040013E084201AC002F08FA
:100A18004101C40042012E084101C30042012D08D2
:100A28004101C20042012C084101C1003F30C80009
:100A38008030C7000030C6000030C500883105206E
:100A480080310318302D3F304201AF008030AE00B6
:100A58000030AD000030AC0041304101C4001F300F
:100A6800C300C230C2008F30C10042012F084101CB
:100A7800C80042012E084101C70042012D0841016A
:100A8800C60042012C084101C5008831052080318B
:100A9800031C122C42012F084001DF0042012E08DE
:100AA8004001DE0042012D084001DD0042012C0812
:100AB8004001DC004230DB00C830DA000030D900E9
:100AC8000030D8008D31722580315B084101B400B7
:100AD80040015A084101B300400159084101B200E0
:100AE800400158084101B1003F30B0000030AF006C
:100AF8000030AE000030AD008B31892380313008E2
:100B0800C4002F08C3002E08C2002D08C100A4315C
:100B1800F124410142084301C90041014108430150
:100B2800C800080043013A089C3E4401C000FF3059
:100B380043013B3D4401C10003304201E400083059
:100B4800E3007730890BA62DE30BA62DE40BA62D29
:100B58004401C401C501C601C701C201C30143085C
:100B6800803A4201E30043013908803A42016302B6
:100B7800031DC22D43013808440142020318F82D11
:100B8800AE310A26853144014508803A4201E30026
:100B980043014B08803A42016302031DD72D4301EC
:100BA8004A08440144020318E92D43014B08440153
:100BB800C50043014A084401C400430149084401EF
:100BC800C700430148084401C6000B304201E30056
:100BD8006230890BED2DE30BED2D0000013044014F
:100BE800C2070030C33DB32D44014508803A420195
:100BF800E30080306302031D042E013044014402E7
:100C0800031C102E4001161E0D2EAA310822853114
:100C1800102EA5315B258531430161084401450645
:100C2800031D1A2E43016008440144060319462E89
:100C380043016C1D262E2A304001AC000830AD005F
:100C4800B1302C2E2A304001AC000630AD00B13056
:100C5800AE00AF01AF0A00309A31D9228531440184
:100C680045084301E100440144084301E000440110
:100C780045084001BD00440144084001BC00A131C1
:100C8800E321853144014708803A4201E30080307E
:100C98006302031D522E643044014602031C8F2E4A
:100CA8004301470844014706031D5E2E43014608D9
:100CB8004401460603198F2E47084301C700440123
:100CC80046084301C60044014508803A4201E30052
:100CD80043013F08803A42016302031D772E430116
:100CE8003E08440144020318842E4301470840018A
:100CF800BD00430146084001BC00AB31B5230800E4
:100D0800430147084001BD00430146084001BC00BB
:100D1800AB31B523853143016C1DF22E03304401FC
:100D2800C2000030C30006304001AC00CC30AD003A
:100D3800B030AE000930AF0002309A31D922853187
:100D480015304201E4004B30E300BE30890BAA2E77
:100D5800E30BAA2EE40BAA2E00004001AC019A3046
:100D6800AD00B030AE000930AF0002309A31D92260
:100D7800853115304201E4004B30E300BE30890B69
:100D8800C32EE30BC32EE40BC32E0000FF30440137
:100D9800C207FF30C33D42084304031D972E0930A4
:100DA8009331C3238531440147084001BD00440104
:100DB80046084001BC00AB31B523853115304201EE
:100DC800E4004B30E300BE30890BE82EE30BE82E3D
:100DD800E40BE82E000043016C1108006C1C0800AD
:100DE8007C18080044014508803A4201E3004301A9
:100DF8003F08803A42016302031D062F43013E0863
:100E080044014402031C080044014508803A420199
:100E1800E30043013D08803A42016302031D182F95
:100E280043013C08440144020318080044014708F0
:100E3800803A4201E30080306302031D262F793097
:100E480044014602031C08004301620844014602AB
:100E58004201E300430163084401473B4201E400C7
:100E680044014108803A4201E5006408803A65027D
:100E7800031D412F630844014002031C7D2F4401D8
:100E88004608430162024201E30044014708430166
:100E9800633B4201E40044014108803A4201E50015
:100EA8006408803A6502031D5C2F63084401400210
:100EB800031C7D2FE7304201E3000330E4004401C6
:100EC800400842016302E500440141084201643BD5
:100ED800E6006608803AE70044014708803A420184
:100EE8006702031D7B2F440146084201650203186F
:100EF8000800A4318B240800AD01A71F902FA40976
:100F0800A509A609A709A40A0319A50A0319A60A87
:100F18000319A70A0130AD00AB1F9F2FA809A90923
:100F2800AA09AB09A80A0319A90A0319AA0A0319E5
:100F3800AB0A0130AD060030B1000030B00000301F
:100F4800AF000030AE002708260425042404031946
:100F5800E62F0130AC00A71BBB2F0130A435A50D2F
:100F6800A60DA70D890BB22F0130AC07AF2F0130AA
:100F7800AE35AF0DB00DB10D890BBC2F27082B0274
:100F8800031DD02F26082A02031DD02F2508290269
:100F9800031DD02F24082802031CDB2F2408A802D5
:100FA8002508A93B2608AA3B2708AB3B2E1401308D
:100FB800A736A60CA50CA40C890BDC2F0130AC02BB
:100FC800031DBB2F2D080319F42FAE09AF09B00973
:100FD800B109AE0A0319AF0A0319B00A0319B10A15
:100FE8003108A7003008A6002F08A5002E08A40085
:020FF8000800EF
:101002000030AD311325080000304105C900003021
:101012004205CA0080304305CB007F304405CC0036
:101022004C084B044A044904031D1F280030C40025
:101032000030C3000030C2000030C100003045055E
:10104200C90000304605CA0080304705CB007F301A
:101052004805CC004C084B044A044904031D3928B6
:101062000030C8000030C7000030C6000030C500A4
:10107200C41F53280030C9000030CA000030CB0022
:101082008030CC004108C9024208CA3B4308CB3B2E
:101092004408CC3B4C08C4004B08C3004A08C200B9
:1010A2004908C100C81F6D280030C9000030CA00BD
:1010B2000030CB008030CC004508C9024608CA3B4C
:1010C2004708CB3B4808CC3B4C08C8004B08C7003C
:1010D2004A08C6004908C5008030C4068030C806E8
:1010E20048084402031D080047084302031D080084
:1010F20046084202031D080045084102080045084F
:101102008039CF004535D600C41B56145608031942
:101112009828560A031D95280030C5000030C400E7
:101122000030C3000030C200C417C501A02800303F
:10113200C5000030C4000030C3000030C2004108C6
:101142008039CF064135D700C01B57145708031901
:10115200B828570A031DB5280030C1000030C0006E
:101162000030BF000030BE00C017C101C0280030EF
:10117200C1000030C0000030BF000030BE00410896
:1011820040043F043E04031DDD280030C50000304A
:10119200C4000030C3000030C2008030C4047F307D
:1011A200C5044F08C5044508C1004408C0004308EF
:1011B200BF004208BE0008005608031DE92800309F
:1011C200C1000030C0000030BF000030BE00080087
:1011D2005608C600C7014708C90057084602C8009A
:1011E200031CC90348087F3ED0000030493DD100AE
:1011F2004508CE004408CD004308CC004208CB008D
:101202000030C5000030C4000030C3000030C2000E
:101212000030D5000030D4000030D3000030D200BE
:10122200D7011A30570203184C29570803193029DD
:101232000130CB35CC0DCD0DCE0D890B1A290130E5
:10124200C235C30DC40DC50D890B2129D51B42140E
:101252000130D235D30DD40DD50D890B2A29410881
:101262004E02031D3E2940084D02031D3E293F0840
:101272004C02031D3E293E084B02031C4929551707
:101282003E08CB023F08CC3B4008CD3B4108CE3B59
:101292000130D70712294E084D044C044B04031D9C
:1012A2005214C41B69290130C235C30DC40DC50DCA
:1012B200890B5529D51B42140130D235D30DD40DDB
:1012C200D50D890B5E29FF30D007FF30D13D522961
:1012D200D701D51F8229FF305205C600FF305305C2
:1012E200C700FF305405C8007F305505C9004908C2
:1012F2004804470446040319421880298229013010
:10130200D70057080319A9290130C2070030C33D8D
:10131200C43DC53D451CA9294208C6004308C70073
:101322004408C8004508C9000130CA00C937C80CC2
:10133200C70CC60CCA0B97294908C5004808C40047
:101342004708C3004608C2000130D0070030D13D33
:101352005108803AC60080304602031DB229FF3090
:101362005002031CC129FF304001D0000030D100DF
:101372000030C5000030C4000030C3000030C2009D
:1013820040015108803AC60080304602031DCB2935
:10139200013050020318D9294001D001D101003097
:1013A200C5000030C4000030C3000030C200CF01CD
:1013B20040015008D600561CE029C417E2297F30AC
:1013C200C4055608C6000130C636890BE529460811
:1013D200C500D2284101C7014708BD3E86008701EA
:1013E2004708583E8400B0300318013E85000008CB
:1013F20081000130C7070A304702031CED293D086E
:10140200A031002089314101B900BA01BB01BC0100
:101412003C084301AF0041013B084301AE004101DA
:101422003A084301AD00410139084301AC000030E4
:10143200F4000030F300EA30F2006030F1002F08CF
:10144200F8002E08F7002D08F6002C08F500AC3144
:101452007824893174084301AF007308AE00720822
:10146200AD007108AC0041013E08A0310020893175
:101472004101B900BA01BB01BC013C084301AB0008
:1014820041013B084301AA0041013A084301A90076
:10149200410139084301A8000030F4000030F30094
:1014A200EA30F2006030F1002B08F8002A08F70059
:1014B2002908F6002808F500AC317824893174082F
:1014C2004301AB007308AA007208A9007108A800C2
:1014D20041013F08A031002089314101B900BA0120
:1014E20039084301C00041013A084301C1004101EA
:1014F2004008A031002089314101B900BA01390800
:101502004301BE0041013A084301BF0041014108C5
:10151200A031002089314101B900BA013908F70030
:101522003A08F8000A30F9000030FA00AA31A42281
:10153200893178084301BD007708BC0041014208A7
:10154200A031002089314101B900BA013908F70000
:101552003A08F8000A30F9000030FA00AA31A42251
:10156200893178084301BB007708BA00410143087A
:10157200A03100208931003A0319C22A43016C14B8
:10158200C42A43016C1041304001C1002030C00028
:101592000030BF000030BE0041014408A0310020ED
:1015A20089314101B900BA01BB01BC013C084001CB
:1015B200B30041013B084001B20041013A08400139
:1015C200B100410139084001B0000130A631E226E4
:1015D20089313308C5003208C4003108C30030081D
:1015E200C20088318020893141084301A3004001B3
:1015F20040084301A20040013F084301A10040010D
:101602003E084301A0003F304101B0008030AF00EE
:101612000030AE000030AD0042304001C100C830A1
:10162200C0000030BF000030BE0041014508A031BB
:10163200002089314101B900BA01BB01BC013C085B
:101642004001B30041013B084001B20041013A08A8
:101652004001B100410139084001B0000130A6311A
:10166200E22689313308C5003208C4003108C300BC
:101672003008C20088318020893141084101B4001C
:10168200400140084101B30040013F084101B2005E
:1016920040013E084101B1008B3189238931300874
:1016A2004301A70041012F084301A60041012E0872
:1016B2004301A50041012D084301A4000630400169
:1016C200A2000030A30041014608A0310020893168
:1016D2004101B900BA013908F7003A08F8000A30A6
:1016E200F9000030FA00AA31A42289317808A50055
:1016F2007708A400A031AA2023084301B9004001C1
:1017020022084301B8004108C5004008C40008008F
:1017120030088039B5003035B700AF1B37143708B1
:101722000319A12B370A031D9E2B0030B000003095
:10173200AF000030AE000030AD00AF17B001A92BF2
:101742000030B0000030AF000030AE000030AD001D
:1017520034088039B60036083506031D351734358E
:10176200B600B31B361436080319C52B360A031DFF
:10177200C22B0030B4000030B3000030B2000030A1
:10178200B100B317B401CD2B0030B4000030B30068
:101792000030B2000030B100370836020318F32BD4
:1017A200351FD52B8030B5063708B8003608B7008C
:1017B2003808B6002D08B8003108AD003808B1006D
:1017C2002E08B8003208AE003808B2002F08B80060
:1017D2003308AF003808B3003008B8003408B0004E
:1017E2003808B400B80136084001E500E601660891
:1017F200E8004101370840016502E700031CE803E5
:101802006808803AE90080306902031D0A2C1A3008
:101812006702031C422C410130082F042E042D04C0
:101822000319152C0130162C0030B8000030B0001E
:101832000030AF000030AE000030AD003608B70017
:10184200472C381C302C38084001E5000130E536C1
:10185200890B282C650801384101B800322C03108D
:10186200B80C2D18B81701304001E5004101B0371E
:10187200AF0CAE0CAD0C4001E50B372C0130410131
:10188200B707410136083702031C222C351B802C76
:101892003708031D552C0030B0000030AF00003077
:1018A200AE000030AD0008003108AD073208AE3D91
:1018B2003308AF3D3408B03D301C0D2D381C6D2C63
:1018C20038084001E5000130E536890B652C6508D2
:1018D20001384101B8006F2C0310B80C2D18B8174D
:1018E20001304001E5004101B037AF0CAE0CAD0C48
:1018F2004001E50B742C01304101B7070D2D300872
:10190200803A4001E50041013408803A4001650215
:101912004101031D962C33082F02031D962C320819
:101922002E02031D962C31082D020318DB2CFF30EA
:101932004001E500FF30E600FF30E700FF30E8003D
:1019420041012D0831024001E90041012E08323BDC
:101952004001EA0041012F08333B4001EB00410105
:101962003008343B4001EC006908E5076A08E63DAF
:101972006B08E73D6C08E83D68084101B000400192
:1019820067084101AF00400166084101AE00400115
:1019920065084101AD008030B5063803FF3AB80052
:1019A2003808031DE32C0130AD070030AE3DAF3DDA
:1019B200B03DE32C3108AD023208AE3B3308AF3BF9
:1019C2003408B03B30082F042E042D04031D0B2DC8
:1019D2003808031D0B2D0030B0000030AF0000307E
:1019E200AE000030AD0008000130AD35AE0DAF0DD8
:1019F200B00D890BF62CB81B2D14381C042D0314C2
:101A0200380DB800062D0310B80D370803190B2D39
:101A12000130B702AF1FF52CB601B81F182D3808D8
:101A22007F3903192D18162D182D0130B6003608EE
:101A320003194E2D0130AD070030AE3DAF3DB03D34
:101A4200301C4E2D2D084001E50041012E084001B9
:101A5200E60041012F084001E70041013008400142
:101A6200E8000130E900E837E70CE60CE50CE90B89
:101A7200342D68084101B000400167084101AF0000
:101A8200400166084101AE00400165084101AD0018
:101A9200370A03194E2D0130B707370A031D3708DD
:101AA200031D5E2D0030B0000030AF000030AE00EC
:101AB2000030AD0037080319B501371C622DAF178E
:101AC200642D7F30AF0537084001E5000130E5366F
:101AD200890B682D65084101B000B51F0800B017D9
:101AE20008005B0880394101A00040015B354101DB
:101AF200A2004001DA1F7F2D410122144101220878
:101B02000319922D220A031D8F2D00304001DB00A4
:101B12000030DA000030D9000030D8004001DA1776
:101B22009B2D00304001DB000030DA000030D9008C
:101B32000030D8005F0880394101A00640015F35BE
:101B42004101A1004001DE1FA82D410121144101E4
:101B520021080319BB2D210A031DB82D00304001B5
:101B6200DF000030DE000030DD000030DC0040012C
:101B7200DE17C42D00304001DF000030DE000030EF
:101B8200DD000030DC0041012108031D2208031D95
:101B9200D42D00304001DB000030DA000030D900E3
:101BA2000030D800080040015808F1005E08AA3150
:101BB200FF228D3172084101AC007108AB002B0885
:101BC2004001E000E101E201E30163084101A600F6
:101BD200400162084101A500400161084101A400E1
:101BE200400160084101A3002C084001E000E1012E
:101BF200E201E30163084101AA00400162084101D8
:101C0200A900400161084101A800400160084101AA
:101C1200A70040015908F1005D08AA31FF228D3169
:101C220072084101AC007108AB002B084001E000D2
:101C3200E101E201E30160084101A30740016108FB
:101C42004101A43D400162084101A53D40016308F4
:101C52004101A63D2C084001E000E101E201E3015F
:101C620060084101A707400161084101A83D400108
:101C720062084101A93D400163084101AA3D4001BA
:101C82005A08F1005C08AA31FF228D317208410125
:101C9200AC007108AB002B084001E000E101E20159
:101CA200E30160084101A307400161084101A43D2D
:101CB200400162084101A53D400163084101A63D82
:101CC2002C084001E000E101E201E301600841016A
:101CD200A707400161084101A83D40016208410196
:101CE200A93D400163084101AA3D0830A335A40D76
:101CF200A50DA60D890B772E40015908F1005C084D
:101D0200AA31FF228D3172084101AC007108AB008B
:101D12002B08A3072C08A43D0030A53DA63D400199
:101D22005808F1005D08AA31FF228D317208410185
:101D3200AC007108AB002B08A3072C08A43D0030AF
:101D4200A53DA63D0830A335A40DA50DA60D890B12
:101D5200A42E40015808F1005C08AA31FF228D31FF
:101D620072084101AC007108AB002B08A3072C08D4
:101D7200A43D0030A53DA63D40015908F1005E0892
:101D8200AA31FF228D3172084101AC007108AB000B
:101D92002B08A7072C08A83D0030A93DAA3D400109
:101DA2005A08F1005D08AA31FF228D317208410103
:101DB200AC007108AB002B08A7072C08A83D003027
:101DC200A93DAA3D40015A08F1005E08AA31FF224E
:101DD2008D3172084101AC007108AB002B08400143
:101DE200E00041012C084001E100E201E30108307A
:101DF200E035E10DE20DE30D890BF92E600841019A
:101E0200A707400161084101A83D40016208410164
:101E1200A93D400163084101AA3D26084001E000B6
:101E2200E101E201E30160084101A7074001610805
:101E32004101A83D400162084101A93D40016308FA
:101E42004101AA3D0830A335A40DA50DA60D890BAD
:101E5200242F220821074001E000E101E10D600882
:101E6200823E4101AB00FF304001613D4101AC00C7
:101E7200A91B502F0130A735A80DA90DAA0D890B5A
:101E82003C2FA61B27140130A335A40DA50DA60DCA
:101E9200890B452FFF30AB07FF30AC3D392FA10135
:101EA200A61F722FFF3023054001E000FF304101E1
:101EB20024054001E100FF30410125054001E20017
:101EC2007F30410126054001E3006308620461049A
:101ED2006004031D6F2F4101271C722F0130410145
:101EE200A10021080319A72F0130A7070030A83D40
:101EF200A93DAA3D2A1CA72F27084001E000410165
:101F020028084001E100410129084001E2004101A5
:101F12002A084001E3000130E400E337E20CE10C5F
:101F2200E00CE40B8E2F63084101AA004001620815
:101F32004101A900400161084101A8004001600877
:101F42004101A7000130AB070030AC3D2C08803ABC
:101F52004001E00080306002031DB22FFF304101DA
:101F62002B02031CBE2F7F304101AA008030A90042
:101F72000030A8000030A700EE2F41012C08803A63
:101F82004001E00080306002031DCA2F0130410190
:101F92002B020318D72F00304101AA000030A900FC
:101FA2000030A8000030A700A001EE2F41012B084D
:101FB200A200FF30A705FF30A8057F30A905003039
:101FC200AA052218A91722084001E0000130E036D4
:101FD200890BE82F60084101AA002008AA042A08F8
:101FE2004001DB00410129084001DA0041012808D3
:101FF2004001D900410127084001D80008000034FF
:102002000034003400340034003400345F340034CF
:1020120000340034073400340734003414347F347D
:1020220014347F34143424342A347F342A3412345E
:102032002334133408346434623436344934553426
:102042002234503400340534033400340034003474
:102052001C342234413400340034413422341C34E0
:10206200003408342A341C342A340834083408343E
:102072003E340834083400345034303400340034F0
:102082000834083408340834083400343034303426
:1020920000340034203410340834043402343E3422
:1020A2005134493445343E34003442347F34403470
:1020B2000034423461345134493446342134413499
:1020C20045344B3431341834143412347F341034E0
:1020D200273445344534453439343C344A34493460
:1020E200493430340134713409340534033436341C
:1020F200493449344934363406344934493429346C
:102102001E3400343634363400340034003456344D
:102112003634003400340034083414342234413468
:102122001434143414341434143441342234143432
:102132000834003402340134513409340634323460
:102142004934793441343E347E34113411341134FB
:102152007E347F3449344934493436343E34413450
:102162004134413422347F344134413422341C34EA
:102172007F3449344934493441347F340934093491
:10218200013401343E3441344134513432347F34E9
:102192000834083408347F34003441347F34413405
:1021A20000342034403441343F3401347F34083425
:1021B2001434223441347F34403440344034403487
:1021C2007F340234043402347F347F3404340834DC
:1021D20010347F343E344134413441343E347F3410
:1021E20009340934093406343E344134513421343B
:1021F2005E347F3409341934293446344634493440
:10220200493449343134013401347F3401340134E6
:102212003F344034403440343F341F34203440345F
:1022220020341F347F342034183420347F34633414
:1022320014340834143463340334043478340434E6
:102242000334613451344934453443340034003466
:102252007F3441344134023404340834103420349D
:10226200413441347F3400340034043402340134C4
:102272000234043440344034403440344034003476
:102282000134023404340034203454345434543489
:1022920078347F3448344434443438343834443421
:1022A20044344434203438344434443448347F345D
:1022B2003834543454345434183408347E340934A1
:1022C2000134023408341434543454343C347F34EA
:1022D2000834043404347834003444347D344034D3
:1022E20000342034403444343D34003400347F34EC
:1022F200103428344434003441347F3440340034C0
:102302007C3404341834043478347C34083404348F
:1023120004347834383444344434443438347C34E7
:10232200143414341434083408341434143418347F
:102332007C347C340834043404340834483454344F
:1023420054345434203404343F344434403420343C
:102352003C344034403420347C341C342034403407
:1023620020341C343C344034303440343C34443423
:1023720028341034283444340C345034503450341B
:102382003C344434643454344C34443400340834DB
:10239200363441340034003400347F3400340034A5
:1023A20000344134363408340034083408342A34D2
:1023B2001C34083408341C342A34083408340034F9
:1023C2000034003400340034003400345F3400340C
:1023D20000340034073400340734003414347F34BA
:1023E20014347F34143424342A347F342A3412349B
:1023F2002334133408346434623436344934553463
:1024020022345034003405340334003400340034B0
:102412001C342234413400340034413422341C341C
:10242200003408342A341C342A340834083408347A
:102432003E3408340834003450343034003400342C
:102442000834083408340834083400343034303462
:1024520000340034203410340834043402343E345E
:102462005134493445343E34003442347F344034AC
:1024720000344234613451344934463421344134D5
:1024820045344B3431341834143412347F3410341C
:10249200273445344534453439343C344A3449349C
:1024A2004934303401347134093405340334363458
:1024B20049344934493436340634493449342934A8
:1024C2001E3400343634363400340034003456348A
:1024D20036340034003400340834143422344134A5
:1024E200143414341434143414344134223414346F
:1024F200083400340234013451340934063432349D
:102502004934793441343E347E3411341134113437
:102512007E347F3449344934493436343E3441348C
:102522004134413422347F344134413422341C3426
:102532007F3449344934493441347F3409340934CD
:10254200013401343E3441344134513432347F3425
:102552000834083408347F34003441347F34413441
:1025620000342034403441343F3401347F34083461
:102572001434223441347F344034403440344034C3
:102582007F340234043402347F347F340434083418
:1025920010347F343E344134413441343E347F344C
:1025A20009340934093406343E3441345134213477
:1025B2005E347F340934193429344634463449347C
:1025C200493449343134013401347F340134013423
:1025D2003F344034403440343F341F34203440349C
:1025E20020341F347F342034183420347F34633451
:1025F2001434083414346334033404347834043423
:1026020003346134513449344534433400340034A2
:102612007F344134413402340434083410342034D9
:10262200413441347F340034003404340234013400
:1026320002340434403440344034403440340034B2
:1026420001340234043400342034543454345434C5
:1026520078347F344834443444343834383444345D
:1026620044344434203438344434443448347F3499
:102672003834543454345434183408347E340934DD
:102682000134023408341434543454343C347F3426
:102692000834043404347834003444347D3440340F
:1026A20000342034403444343D34003400347F3428
:1026B200103428344434003441347F3440340034FC
:1026C2007C3404341834043478347C3408340434CC
:1026D20004347834383444344434443438347C3424
:1026E20014341434143408340834143414341834BC
:1026F2007C347C340834043404340834483454348C
:1027020054345434203404343F3444344034203478
:102712003C344034403420347C341C342034403443
:1027220020341C343C344034303440343C3444345F
:1027320028341034283444340C3450345034503457
:102742003C344434643454344C3444340034083417
:10275200363441340034003400347F3400340034E1
:1027620000344134363408340034083408342A340E
:0E2772001C34083408341C342A34083408346B
:102786004001BC007C1CCC2BAC01A430AD00B030A9
:10279600D02BAC01AE30AD00B030AE003C08AF007F
:1027A60002309A31D92293312A304001AC000630EA
:1027B600AD00B130AE00AF01AF0A02309A31D92276
:1027C6000800AA316B2293314D084F06031DED2BED
:1027D6004C084E060319182C4F08CD004E08CC00A5
:1027E6004F084001AD0043014E084001AC009B314B
:1027F600D123933143014F08803A4001C3008E3004
:102806004302031D092CD93043014E020318132C31
:1028160043014008013EC4000030413DC500182C6C
:1028260043014108C5004008C4000030A7316F27A6
:10283600933143014F08803A4001C3008E30430272
:10284600031D282C753043014E02031C3A2C40010F
:102856009711171602304001C4003830C300AD305E
:10286600890B332CC30B332CC40B332C572C43014D
:102876004F08803A4001C3008E304302031D462CA8
:10288600073043014E02031C5B2C400197111712BF
:1028960002304001C4003830C300AD30890B512CE2
:1028A600C30B512CC40B512C4001971517166D2CD8
:1028B60040011712971502304001C4003830C3009A
:1028C600AD30890B642CC30B642CC40B642C400103
:1028D6001716971543014F08803A4001C3008D3003
:1028E6004302031D792C483043014E0203180800A9
:1028F600AB31632393314001AC018E30AD00B03073
:10290600AE000B30AF0001309A31D92293315230EC
:102916004001C4002B30C3000030890B902CC30B40
:10292600902CC40B902C000040011612A4312624D2
:102936000800FF304201E0007F30E10098311A20A4
:10294600943143014908803A4201D600803056024C
:10295600031DB02C793043014802031C08004301D3
:102966005008510403190A2D42016A086904031923
:102976000A2D43014908803A4201D60081305602A9
:10298600031DC82CF5304301480203180A2DAC314B
:10299600DD24943198311A20943143014908803A54
:1029A6004201D60080305602031DDC2C79304301EB
:1029B6004802031C080043015008143E4201D60099
:1029C60000304301513D4201D7005708803AD800F4
:1029D60043014908803A42015802031DF62C43017F
:1029E60048084201560203180800FC1B0800FC1A9E
:1029F6000800430137084201E1004301360842015D
:102A0600E0006A08DE006908DD006808DF004301AF
:102A1600D001D101AC31AA24943198311A209431D5
:102A260043014908803A4201D60080305602031D10
:102A36001F2D793043014802031C08004301370863
:102A46004201DA00430136084201D9006908DB0079
:102A56006A08DC006803031D322DE801342D0130BD
:102A6600E800AC31AA24943198311A2094314201FD
:102A76005A08803AD60043013708803A4201560286
:102A8600031D492D43013608420159020318622DE0
:102A960042016803031D512DE801532D0130E80062
:102AA6005B08E9005C08EA006908F4006808F500BC
:102AB6006A089931ED21943198311A2094314301F5
:102AC6004908803A4201D60080305602031D6E2D19
:102AD600793043014802031C0800AC31DD249431EF
:102AE60098311A20943142016108803AD600430198
:102AF6003708803A42015602031D852D43013608E8
:102B060042016002031CFC1B9C2DFC1A9C2D4201F9
:102B16005E08EA005D08E9005F08E8006908F4005D
:102B26006808F5006A089931ED21943198311A2028
:102B36009431E73043014806033003194906031D63
:102B460008004201EA01E901E8016908F4006808A1
:102B5600F5006A089931ED2108004201C1000030F4
:102B6600BB000030BA000030B9000030B8000030B9
:102B7600BF000030BE000030BD000030BC00C00108
:102B8600410840020318062EA531D42595312408A4
:102B96004101E600400125084101E7000030E71B3E
:102BA600FF30E800E90066084201B80741016708FE
:102BB6004201B93D410168084201BA3D4101690837
:102BC6004201BB3DA6315B26953124084101E60052
:102BD600400125084101E7000030E71BFF30E8000F
:102BE600E90066084201BC07410167084201BD3D94
:102BF600410168084201BE3D410169084201BF3DED
:102C06000130C007C32D41084101E600E701E80194
:102C1600E90169084001B300410168084001B200BA
:102C2600410167084001B100410166084001B0005A
:102C36000130A631E22695313308C1003208C000C2
:102C46003108BF003008BE0042013B084001B30016
:102C560042013A084001B200420139084001B10080
:102C6600420138084001B0000030A631E226953115
:102C76003308C5003208C4003108C3003008C2005A
:102C860088318020953141084201B3004001400857
:102C96004201B20040013F084201B10040013E0836
:102CA6004201B00041084101E600E701E801E901FF
:102CB60069084001B300410168084001B2004101C2
:102CC60067084001B100410166084001B0000130CB
:102CD600A631E22695313308C1003208C00031081A
:102CE600BF003008BE0042013F084001B300420168
:102CF6003E084001B20042013D084001B1004201D8
:102D06003C084001B0000030A631E2269531330878
:102D1600C5003208C4003108C3003008C20088313B
:102D26008020953141084201B70040014008420128
:102D3600B60040013F084201B50040013E0842018D
:102D4600B40033084101E100420132084101E000CC
:102D5600420131084101DF00420130084101DE0035
:102D6600420137084101E500420136084101E4000D
:102D7600420135084101E300420134084101E20005
:102D86008031FB209531A931AA2108000030C4000A
:102D96000030C3000030C2000030C1005008C80037
:102DA6004F08C7004E08C6004D08C50088310520EB
:102DB6009631031CE72E0030D0000030CF000030E3
:102DC600CE000030CD00080040304001C100003088
:102DD600C0000030BF000030BE003F304101B000EF
:102DE6008030AF000030AE000030AD005008B400B7
:102DF6004F08B3004E08B2004D08B1008B3189234D
:102E0600963130084001C50041012F084001C40039
:102E160041012E084001C30041012D084001C200B6
:102E260088318020963141084101DD00400140088B
:102E36004101DC0040013F084101DB0040013E0842
:102E46004101DA00D5015D08B0005C08AF005B08FF
:102E5600AE005A08AD005D084001C10041015C08A2
:102E66004001C00041015B084001BF0041015A0812
:102E76004001BE00410150084001C50041014F0814
:102E86004001C40041014E084001C30041014D0804
:102E96004001C20088318020963141084101B400CA
:102EA600400140084101B30040013F084101B20022
:102EB60040013E084101B1008B318923963130082B
:102EC600D4002F08D3002E08D2002D08D1004030A0
:102ED6004001C1000030C0000030BF000030BE001D
:102EE600410154084001C500410153084001C40096
:102EF600410152084001C300410151084001C2008E
:102F060088318020963141084101D90040014008AE
:102F16004101D80040013F084101D70040013E0869
:102F26004101D6005908BC005808BB005708BA0032
:102F36005608B9005D08C0005C08BF005B08BE000B
:102F46005A08BD00AA31872296313C08C4003B08C6
:102F5600C3003A08C2003908C10038304001DB001E
:102F6600D130DA00B730D9001730D80041015D08FA
:102F76004001DF0041015C084001DE0041015B08C1
:102F86004001DD0041015A084001DC008D31722507
:102F960096315B084101C80040015A084101C7004B
:102FA600400159084101C600400158084101C500C9
:102FB6008831052096310318E92F5908D0005808A2
:102FC600CF005708CE005608CD0008005908DD008E
:102FD6005808DC005708DB005608DA000130D50730
:102FE60014305502031C262F5D08D0005C08CF0064
:0A2FF6005B08CE005A08CD00080069
:10300200400196154230890B042800324001161502
:103012004230890B0A280032400116114230890BD6
:1030220010280032400196114230890B16280032D6
:10303200080096304101EC000030ED002C30EA002F
:103042000130EB004301CA01CB01C801C9014101B2
:10305200EE01EF0143014B08803A4001EF004301CA
:103062003F08803A40016F02031D3A2843013E089F
:103072004A020318F1286400FC1B4128FC1E49285F
:103082004301C801C9011030B6002730B70008005B
:10309200AE310A26983143013F08803A4001EF00E1
:1030A20043014B08803A40016F02031D5B28430134
:1030B2004A083E020318732843013508803A40014A
:1030C200EF0043013D08803A40016F02031D6C2866
:1030D20043013C0834020318732808309531B025A7
:1030E20098317F2806304001EF003030890B772875
:1030F200EF0B77280000AE310A26983143013F08D2
:10310200803A4001EF0043014B08803A40016F02D0
:10311200031D8E2843014A083E020318A1284301D9
:103122003508803A4001EF0043013D08803A4001F2
:103132006F02031D9F2843013C083402031C080050
:1031420041016C086D040319BF280130EC02003004
:10315200ED3B43014B0841016F02031DB4284301BB
:103162004A0841016E0203182B2843014B08410112
:10317200EF0043014A084101EE002B286F0843018A
:103182006106031DC82841016E0843016006031948
:10319200D52841016F084001BD0041016E08400180
:1031A200BC00A131E321983141016F084301E100E4
:1031B20041016E084301E0004101EE01EF013230AE
:1031C200EC000030ED006A086B040319ED280130B1
:1031D200EA020030EB3B2B284301C801C901080079
:1031E20043013D08803A4001EF0043013508803A2F
:1031F20040016F02031D0029430134083C020318F9
:1032020008003C28A131452199318931EB219931BE
:10321200AF3124279931003A031915297830430137
:10322200D0000030D1001A294201EA01E901E80187
:103232007C105001931C1F29131C28294201690884
:10324200F4006808F5006A089931ED2199314001CE
:10325200171619154301EC14A5315B259931A131DB
:1032620093219931A9316621993143016C11AA3117
:103272000822993150010C146400A931E0219931DE
:1032820044012F087402031D50292E087302031DE6
:1032920050292D087202031D50292C087102031CAB
:1032A2005D29B830AC070B30AD3D0030AE3D00308B
:1032B200AF3D9331E4239931A931E02199314401A1
:1032C2002B087402031D6F292A087302031D6F293C
:1032D20029087202031D6F2928087102031C822922
:1032E2002C30A8070130A93D0030AA3D0030AB3D8B
:1032F2008531962599314301EC1D8229AD31CA25CC
:103302009931A931E0219931440123087402031D46
:10331200942922087302031D942921087202031DB5
:10332200942920087102031C9929AD31CA259931CB
:1033320043012F082E042D042C04031D7C1DA329F8
:103342004001161243012B082A0429042804031DF4
:10335200FC1CAE29A43126249931FC1FBA29400154
:10336200161EB729A9316A219931BA29A5315B25DF
:1033720099317C1FC6294001161EC329A4318B2412
:103382009931C629A5315B259931FC1ED22940010C
:10339200161ECF29AA31E0229931D229A5315B2507
:1033A20099317C1EDD294001161ADA29A5315B25E7
:1033B2009931883101209931FC1D3D294001161AAD
:1033C200E929AF31B6279931A5315B2599313D29DC
:1033D200A4318B2499313D29F7007718F329400154
:1033E2009917F529400199137708F6000130F6364E
:1033F200890BF8297618002A40011917022A400180
:1034020019137708F6000230F636890B052A76186A
:103412000D2A400199160F2A400199127708F600E9
:103422000330F636890B122A76181A2A4001191629
:103432001C2A400119127708F6000430F636890B6F
:103442001F2A7618272A40019817292A4001981323
:103452007708F6000530F636890B2C2A7618342ABE
:1034620040011817362A400118137708F600063073
:10347200F636890B392A7618412A40019816432AD2
:10348200400198127418482A400196164A2A4001AF
:1034920096127408F6000130F636890B4D2A76181A
:1034A200552A40019A14572A40019A107408F600CE
:1034B2000230F636890B5A2A7618622A400196178C
:1034C200642A400196137408F6000330F636890B1D
:1034D200672A76186F2A40011617712A40011613BF
:1034E2007408F6000430F636890B742A76187C2AA2
:1034F200400118147E2A400118107408F6000530A5
:10350200F636890B812A7618892A400198148B2A6B
:10351200400198107408F6000630F636890B8E2AA0
:103522007618962A40011815982A40011811750C30
:10353200031C1A1003181A14991543014508F200C6
:103542004408F100A931BB219931400199111A3087
:10355200890BA92A00324001181243014508F200E2
:103562004408F100A931BB219931400118164301E9
:103572004508F2004408F100A931BB21993140010C
:103582009913191399121912981318139812961263
:103592009A10961316131810981018111A10153045
:1035A200F600C630890BD32AF60BD32A0032080064
:1035B200B700161E0800983101209A317830AD31DB
:1035C2008B259A314030AD318B259A312C08A700DA
:1035D2003708AE314E269A31BA012F083A02031843
:1035E200592B3A082D0784002E080318013E850046
:1035F2001200031DFE2AB601082B3A082D0784008B
:103602002E080318013E85000008E03EB600BB010B
:103612003608B000B1013008F7003108F800053073
:10362200F9000030FA00AA31A4229A310030B20027
:103632009030B30077083207B4007808333DB50004
:103642003B083407840035080318013E8500000852
:10365200B800023037060319342B38080F39AA3163
:10366200C2229A313F2B38080739AA31C2229A3135
:10367200B0000230B035890B3B2B3008B900390855
:10368200AD318B259A313908AD318B259A31013014
:10369200BB0705303B02031C092B0030AD318B25E3
:1036A2009A310030AD318B259A310130BA07EE2ABA
:1036B2002C08A7003708013EAE314E269A31BA01D6
:1036C2002F083A020318CE2B3A082D0784002E0841
:1036D2000318013E85001200031D712BB6017B2BDE
:1036E2003A082D0784002E080318013E85000008C1
:1036F200E03EB600BB013608B000B1013008F70069
:103702003108F8000530F9000030FA00AA31A4228D
:103712009A310030B2009030B30077083207B4001B
:103722007808333DB5003B08340784003508031898
:10373200013E85000008B800023037060319A92BA4
:103742003808B0000430B036890BA42B3008B12BF6
:103752003808B0000330B036890BAC2B30080F3973
:10376200AA31C2229A31B9003908AD318B259A317A
:103772003908AD318B259A310130BB0705303B0248
:10378200031C7C2B0030AD318B259A310030AD31DA
:103792008B259A310130BA07612BA931CD2108005E
:1037A200161E0800983101209B317830AD318B25EF
:1037B2009B314030AD318B259B310A30A200003065
:1037C200A3002D08A5002C08A400A031AA209B313B
:1037D2002308AD002208AC002D08803AAE008130EB
:1037E2002E02031DF62B2C302C020318FA2B2C3040
:1037F200072C40012D08803AAE0081302E02031DB5
:10380200042CA5302C02031C0B2CA4304001AC006C
:103812000130AD0040012C08D43EAC00FE302D3DFD
:10382200AD002D08AF002C08AE000530AE35AF0D4F
:10383200890B172C2E08AC002F08AD007830A2009F
:103842000030A3002D08A5002C08A400A031AA2056
:103852009B312208B40019303402031C392C34087D
:10386200E83EB0000830B1000830B20008304E2CFB
:1038720011303402031C412CB0013408F03E342CC8
:1038820009303402031C4A2CB001B1013408F83E5D
:10389200362CB001B101B2013408B3003008AA31AC
:1038A2001E229B314001B60036080338B60077303D
:1038B200A7000030AE314E269B313608AD318B2544
:1038C2009B313608AD318B259B313608AD318B25C6
:1038D2009B3136081F38B6007530A7000030AE3174
:1038E2004E269B313608AD318B259B313608AD31E2
:1038F2008B259B317A30A7000030AE314E269B31AA
:103902003608AD318B259B313608AD318B259B3185
:103912003108AA311E229B314001B6007530A70042
:103922000130AE314E269B31B5013608AD318B25C3
:103932009B310130B50707303502031C962C320843
:10394200AA311E229B314001B6007530A700023019
:10395200AE314E269B31B5013608AD318B259B31F8
:103962000130B50707303502031CAD2C3308AA31EC
:103972001E229B314001B6003608C038B6007530B1
:10398200A7000330AE314E269B31B5013608AD316A
:103992008B259B310130B50707303502031CC72C3C
:1039A200A931CD210800FF304201D1007F30D20081
:1039B200FF30D3007F30D400A2313E229C31A231AD
:1039C2009E229C3198311A209C3143014908803A49
:1039D2004201C80080304802031DF22C79304301B5
:1039E2004802031C0800430137084201D00043018A
:1039F20036084201CF006A08C9006908CA000330CC
:103A020069020318352D03306A020318352DE901C6
:103A1200EA016908F4006808F5006A089931ED21A5
:103A22009C31A2319E229C31A2313E229C3198319E
:103A32001A209C3143014908803A4201C800803073
:103A42004802031D272D793043014802031C080058
:103A5200430137084201D200430136084201D10036
:103A62006A08CB006908CC00033069020318672D8D
:103A720003306A020318672DE901EA016908F400BC
:103A82006808F5006A089931ED219C31A331602361
:103A92009C3198311A209C3143014908803A4201F5
:103AA200C80080304802031D592D79304301480275
:103AB200031C0800430137084201D40043013608C1
:103AC2004201D3006A08CD006908CE005208803A4C
:103AD200C8005008803A4802031D712D4F08510258
:103AE200031C852D42015408803AC8005008803AD0
:103AF2004802031D7E2D4F085302031C852D4201EF
:103B02004A08E9004908C22D42015008803AC8001B
:103B12005208803A4802031D902D51084F02031C9F
:103B2200A42D42015408803AC8005208803A480243
:103B3200031D9D2D51085302031CA42D42014C0864
:103B4200E9004B08C22D42015008803AC8005408CF
:103B5200803A4802031DAF2D53084F02031CC32DA8
:103B620042015208803AC8005408803A4802031DB4
:103B7200BC2D53085102031CC32D42014E08E9001B
:103B82004D08EA004201510A7F3003195206031D13
:103B9200D02D530A7F30031954060319080069080F
:103BA200F4006808F5006A089931ED210800420125
:103BB2006908CB0043015208031DED2D0A30F100C4
:103BC20042016908AB311E239D31C200C301420884
:103BD200C5004308C600F22D01304201C500003085
:103BE200C6004508CE004E08031DF92D0130CE0057
:103BF20098311A209D31430137084201CD0043011B
:103C020036084201CC004E08E9076908F40068084A
:103C1200F5006A089931ED219D3198311A209D31C4
:103C220042014D08803AC20043013708803A4201FE
:103C32004202031D202E4301360842014C02031C9E
:103C42008A2E430137084201CD0043013608420162
:103C5200CC006908CB004E08E9070030C3004E08CB
:103C62007F3CC200031CC3034308803AC400803077
:103C72004402031D3E2E690842020318FC1BE12E7A
:103C8200FC1AE12E42016908F4006808F5006A088E
:103C92009931ED219D3198311A209D3142014D0813
:103CA200803AC20043013708803A42014202031DB2
:103CB2005E2E4301360842014C02031CE12E4201F2
:103CC2006908CB00430137084201CD0043013608A1
:103CD2004201CC0043015208031D7D2E0A30F1003F
:103CE20042016908AB311E239D31C200C301420863
:103CF200C7004308C800822E01304201C7000030CD
:103D0200C8004708CE004E08031D2C2E0130CE00FD
:103D12002C2E430137084201CD00430136084201EF
:103D2200CC00BC2E42016908CB0043013708420196
:103D3200CD00430136084201CC0043015208031D65
:103D4200B02E0A30F10042016908AB311E239D31C9
:103D5200C200C3014208C9004308CA00B52E01309F
:103D62004201C9000030CA004908CE004E08031DB6
:103D7200BC2E0130CE004E08E9024E08690203183B
:103D8200FC1BE12EFC1AE12E6908F4006808F5001C
:103D92006A089931ED219D3198311A209D314201F5
:103DA2004D08803AC20043013708803A420142027C
:103DB200031DDF2E4301360842014C020318932EE5
:103DC20042014B08E9006908F4006808F5006A0836
:103DD2009931ED21080042016A08CB0043015208E3
:103DE200031D012F0A30F10042016A08AB311E2384
:103DF2009E31C200C3014208C5004308C600062F17
:103E020001304201C5000030C6004508CE004E0810
:103E1200031D0D2F0130CE0098311A209E3143012F
:103E220037084201CD00430136084201CC004E085A
:103E3200EA076908F4006808F5006A089931ED217B
:103E42009E3198311A209E3142014D08803AC200BB
:103E520043013708803A42014202031D342F4301D5
:103E6200360842014C02031C9E2F430137084201CF
:103E7200CD00430136084201CC006A08CB004E084F
:103E8200EA070030C3004E087F3CC200031CC30394
:103E92004308803AC40080304402031D522F6A084E
:103EA20042020318FC1BF52FFC1AF52F4201690888
:103EB200F4006808F5006A089931ED219E319831C5
:103EC2001A209E3142014D08803AC2004301370850
:103ED200803A42014202031D722F43013608420119
:103EE2004C02031CF52F42016A08CB00430137083C
:103EF2004201CD00430136084201CC004301520881
:103F0200031D912F0A30F10042016A08AB311E23D2
:103F12009E31C200C3014208C7004308C800962F61
:103F220001304201C7000030C8004708CE004E08E9
:103F3200031D402F0130CE00402F430137084201BC
:103F4200CD00430136084201CC00D02F42016A085D
:103F5200CB00430137084201CD004301360842013C
:103F6200CC0043015208031DC42F0A30F100420164
:103F72006A08AB311E239E31C200C3014208C90048
:103F82004308CA00C92F01304201C9000030CA00EB
:103F92004908CE004E08031DD02F0130CE004E0836
:103FA200EA024E086A020318FC1BF52FFC1AF52FD1
:103FB2006908F4006808F5006A089931ED219E311C
:103FC20098311A209E3142014D08803AC2004301C5
:103FD2003708803A42014202031DF32F430136089B
:103FE20042014C020318A72F42014B08EA0069085C
:103FF200F4006808F5006A089931ED210800F6001E
:104002000F307605F4000A30F1007608F50004302E
:10401200F536890B09287508A9317A217407080039
:10402200B600161E08002C08A7003608AE314E2630
:10403200A031B8012F08380203185A2838082D0772
:1040420084002E080318013E85000008E03EB700F8
:10405200B9013708B000B1013008F7003108F800A3
:104062000530F9000030FA00AA31A422A031003054
:10407200B2009030B30077083207B4007808333DBD
:10408200B50039083407840035080318013E85005D
:104092000008AD318B25A0310130B9070530390256
:1040A200031C2A280030AD318B25A0310130B8071E
:1040B2001B28A931CD2108004001AC01EF30AD0031
:1040C200B030AE000430AF0000309A31D922A031B6
:1040D20060304001AC000A30AD00B130AE00AF013B
:1040E200AF0A00309A31D922A031AE319426A031E4
:1040F2002A304001AC000630AD00B130AE00AF0155
:10410200AF0A00309A31D922A0317C188D28F430C0
:104112004001BC00B0309128EA304001BC00B03010
:10412200BD00AC013D08AE003C08AD000430AF005C
:1041320002309A31D922A0312A304001AC00063037
:10414200AD00B130AE00AF01AF0A02309A31D922D0
:104152000800A701A31FB428A209A309A20A0319F0
:10416200A30A0130A700A51FBD28A409A509A40A16
:104172000319A50A0130A706A801A90122082304F0
:104182000319EA280130A600A31BCF280130A2356B
:10419200A30D890BC8280130A607C5280130A83510
:1041A200A90D890BD02823082502031DDA2822082D
:1041B2002402031CE1282208A4022308A53B281498
:1041C2000130A336A20C890BE2280130A602031D9E
:1041D200CF2827080319F228A809A909A80A031950
:1041E200A90A2908A3002808A20008007C180A29A5
:1041F20042016A084301D500420169084301D40023
:10420200420168084301D3006308C3006208C20088
:104212007C144201EA01E901E8016908F400680836
:10422200F5006A089931ED21A031A331C223A031F2
:10423200AC01C230AD00B030AE000930AF00023088
:104242009A31D922A03119304001BE005A30BD0046
:10425200B130890B2A29BD0B2A29BE0B2A2900322B
:1042620005309331C323A0314301C601C7013C305D
:104272004001AC00F930AD00B030AE000430AF0008
:1042820002309A31D92208007E01B801C3014314D9
:10429200C3144315CE01E401D901530190139413C1
:1042A20040018C018D018E018F01900196019701D1
:1042B20010309800063099009A019101273092003F
:1042C2009301940195017E013A15BA15DB145B1531
:1042D20040019F121F179F131E16C0309C00E03032
:1042E2009D004E018C1240019E174E0196161E3003
:1042F2004F019600FE309700473098007F309900BA
:1043020077309A00DF309B008B170530F2000F30B8
:10431200F100F130890B8B29F10B8B29F20B8B29E0
:10432200000008004001C001C101500193189D29FD
:104332004001C001C101B4291318A42990304001E1
:10434200C000B030B329131AAB29D6304001C000E7
:10435200B030B329931BAF29131FB429E0304001B9
:10436200C000B030C1003F3050019300400140080E
:10437200410403190800AC014108AE004008AD0039
:104382000930AF0002309A31D922A13152304001B6
:10439200BF002B30BE000030890BCD29BE0BCD29CA
:1043A200BF0BCD29000005309331C323A131430156
:1043B20047084001BD00430146084001BC00AB3143
:1043C200B52308003C083D04031DF3293C30AC0032
:1043D200FE30AD00B030AE000330AF0000309A3195
:1043E200D922080000303D020A3003193C020318AA
:1043F2000A2A3D08F9003C08F8003030FA00A231E0
:10440200FE22A13130304401B8002E30B900350807
:10441200302A00303D02643003193C0203181D2A81
:104422003D08F9003C08F8003030FA00A231FE22C3
:10443200A13144013408052A0530BC070030BD3DD6
:104442003D08F9003C08F8003030FA00A231FE22A3
:10445200A13120304401B8003308B9003408BA0051
:104462003C304001AC003830AD000230AE000330C9
:10447200AF0000309A31D92208004201C5019831BB
:104482001A20A231430137084201C700430136080E
:104492004201C6000130E9005B2A42016908C500F9
:1044A200430137084201C700430136084201C600F2
:1044B2000310E90D41306902031CFC1B932AFC1A0C
:1044C200932A6908F4006808F5006A089931ED2119
:1044D200A23198311A20A231420147084001B300AB
:1044E200420146084001B200AF316C27A2314201BD
:1044F2004608400132074201C20047084001333DED
:104502004201C3004308803AC40043013708803A9D
:1045120042014402031D912A43013608420142022C
:1045220003184E2A42014508E9006908F4006808A8
:10453200F5006A089931ED2108004201C501983160
:104542001A20A231430137084201C700430136084D
:104552004201C6000130EA00BB2A42016A08C500D6
:10456200430137084201C700430136084201C60031
:104572000310EA0D41306A02031CFC1BF32AFC1AE9
:10458200F32A6908F4006808F5006A089931ED21F8
:10459200A23198311A20A231420147084001B300EA
:1045A200420146084001B200AF316C27A2314201FC
:1045B2004608400132074201C20047084001333D2C
:1045C2004201C3004308803AC40043013708803ADD
:1045D20042014402031DF12A43013608420142020C
:1045E2000318AE2A42014508EA006908F400680887
:1045F200F5006A089931ED210800F91F022B0130FC
:10460200032B0030A2002208031D0C2B7908A40002
:104612007808A300172B7809A0007909A100A00A45
:104622000319A10A2008A3002108A400A5017A0801
:104632002507860002308700203081000130A5075F
:1046420006302502031C182B7A08063E860002302B
:10465200870081010530A5007A082507860002300F
:1046620087000A30F1000030F2002408F400230829
:10467200F300AB318B23A2317108303E810001304F
:10468200A5020A30F1000030F2002408F4002308E9
:10469200F300AC314624A2317208A4007108A300D1
:1046A20023082404031D2D2B2208031908007A086D
:1046B20025078600023087002D3081000800420164
:1046C200C70198311A20A331430137084201C600BD
:1046D200430136084201C5000130EA007D2B420148
:1046E2006A08C700430137084201C6004301360881
:1046F2004201C5000310EA0D41306A02031CFC1B93
:10470200B52BFC1AB52B6A08F4006808F5006A0894
:104712009931ED21A33198311A20A3314201460883
:104722004001B300420145084001B200AF316C279D
:10473200A33142014508400132074201C200460846
:104742004001333D4201C3004308803AC4004301A3
:104752003708803A42014402031DB32B4301360855
:10476200420142020318702B42014708EA0047083F
:10477200E9006908F4006808F5006A089931ED213A
:104782000800A5304001A00042016A084001A100D2
:10479200420169084001A200420168084001A300E9
:1047A20000307C180130A400430155084001A500E7
:1047B200430154084001A600430153084001A700E9
:1047C2002030F100A9318921A331A800A9015001AB
:1047D2009E18E82B1E174001290850019A007030DC
:1047E2009B001E1440012908203E86008701010813
:1047F20050011C0603191E2C9E18FD2B1E1740018A
:10480200290850019A0070309B009D01400129083F
:10481200203E86008701010850019C0003108B1B7B
:1048220003148B131E1555309F00AA309F009E144F
:104832009E18192C1E1103188B1701304001A9076D
:104842000930290203180800E82B50010C108B13C1
:1048520040019E134E018C1216167E01CA12C91611
:104862004001161217169715C2014208031D482C63
:1048720005304001C1000F30C000F130890B3F2CE0
:10488200C00B3F2CC10B3F2C7E01CA1263000000FB
:1048920005304001C1000F30C000F130890B4F2CB0
:1048A200C00B4F2CC10B4F2C40018D1A5B2C0130D9
:1048B200C2075C2CC20110304202031C362C4E018E
:1048C20016127E01C912CA1240019E178B174301AC
:1048D200EC14A5315B25A43140018D1A722C6400C1
:1048E2006D2C4301D701FC137C13FC128B1333088C
:1048F2004401A700430132084401A60043013108E4
:104902004401A500430130084401A4008B17500163
:104912000C14080040019711AC01B830AD00B03062
:10492200AE000930AF0002309A31D922A4314001E1
:1049320019117C1094319C24A43143014908803A16
:104942004201E20080306202031DAA2C01304301C1
:104952004802031CBA2C43014908803A4201E20092
:1049620083306202031DB82CE73043014802031C66
:10497200BE2C4301D001D101C32C43014908D1000F
:104982004808D000A331C223A43143014908C7001B
:104992004808C6004908E3004808E200AD31CA25CC
:1049A200A4314001191597157C13FC114301D7015D
:1049B200A931E021A43174084401AF007308AE00AC
:1049C2007208AD007108AC00A931E02174084401FD
:1049D200AB007308AA007208A9007108A8000800B9
:1049E2000310430D440D4001EE006E08031D032D1C
:1049F20000304101C4000030C3000030C20000306A
:104A0200C100080041014108C5004208C600430830
:104A1200C7004408C8001F30C836C70CC60CC50CF6
:104A2200890B0D2D45084001ED004101C317FF30F0
:104A3200C105FF30C205FF30C3050030C405963002
:104A42004001EE02EE1F382D6E08803A973E031C9D
:104A5200F92C01304101C436C30CC20CC10C890BC4
:104A62002B2D01304001EE0703194B2D2A2D20304A
:104A72006E020318F92C6E0803194B2D0130410107
:104A8200C135C20DC30DC40D890B402D013040014B
:104A9200EE023C2D6D08031908004101C109C2094B
:104AA200C309C409C10A0319C20A0319C30A0319B3
:104AB200C40A08004001161609304001BF001E302A
:104AC200BE00E430890B632DBE0B632DBF0B632D3B
:104AD2000000AA313522A53168304001BE00E43021
:104AE200890B712DBE0B712D0000AC311524A5313F
:104AF2004301EC1C842DAD314D25A5314301EC1051
:104B0200AB316323A531A0315D20A5310F304301C4
:104B1200CC002730CD006430E2000030E3000F30DB
:104B2200E0002730E100C601C70147084001BD008F
:104B3200430146084001BC00AB31B523A531A93180
:104B4200E021A531013071074401AC000030723D13
:104B5200AD000030733DAE000030743DAF00A931AE
:104B6200E021A53174084401AB007308AA00720861
:104B7200A9007108A800A931E021A53130307107E0
:104B82004401A0007530723DA1000030733DA200C7
:104B92000030743DA300FC137C13FC127C12FC1148
:104BA200AA31082208002030AB313D23A531A030C4
:104BB2000032890BD92D0830A9319921A53172080B
:104BC2004001AB007108AA002A0A033003192B0620
:104BD200031DFC2D4030AB313D23A531A030003206
:104BE200890BF02D0830A9319921A5317135400189
:104BF200AA00720DAB00FE302A06073003192B06FD
:104C0200031D562E1030AB313D23A531A0300032AA
:104C1200890B082E0830A9319921A531720840016B
:104C2200AB007108AA002A0A033003192B06031DE0
:104C32001C2E43016C15AA316B22A53140012A08B2
:104C4200F1002B08F200F301F40143014E08F500D4
:104C52004F08F600890D893B8909F700F800AC314D
:104C62007824A5317408AF007308AE007208AD0055
:104C72007108AC002C08A6002D08A7002E08A80079
:104C82002F08A9000A30A936A80CA70CA60C890B7C
:104C9200442E2908AF002808AE002708AD002608D8
:104CA200AC002D08AB002C08AA002B08A5002A088E
:104CB200A40008002030AB313D23A631A0300032E1
:104CC200890B602E0A30A9319921A6317208400160
:104CD200AB007108AA002A0A033003192B06031D30
:104CE200832E4030AB313D23A631A0300032890BF8
:104CF200772E0A30A9319921A63171354001AA00D7
:104D0200720DAB00FE302A06073003192B06031D75
:104D1200DD2E1030AB313D23A631A0300032890B9D
:104D22008F2E0A30A9319921A63172084001AB00B9
:104D32007108AA002A0A033003192B06031DA32EA9
:104D420043016C15AA316B22A63140012A08F100F9
:104D52002B08F200F301F40143014E08F5004F085D
:104D6200F600890D893B8909F700F800AC317824F7
:104D7200A6317408AF007308AE007208AD00710866
:104D8200AC002C08A6002D08A7002E08A8002F08AA
:104D9200A9000A30A936A80CA70CA60C890BCB2EA9
:104DA2002908AF002808AE002708AD002608AC008D
:104DB2002D08AB002C08AA002B08A5002A08A40085
:104DC2000800B8003808031DB31FF72E3009BA00D7
:104DD2003109BB003209BC003309BD00BA0A03190C
:104DE200BB0A0319BC0A0319BD0AFF2E3308BD0012
:104DF2003208BC003108BB003008BA003308320464
:104E020031043004031D0E2F0030B3000030B20015
:104E12000030B1000030B00008009630B900FE301A
:104E22003D0503192D2F0130B9070130BD36BC0CE9
:104E3200BB0CBA0C890B172F102F0130B9070130A8
:104E4200BA070030BB3DBC3DBD3D0130BD36BC0C98
:104E5200BB0CBA0C890B272FFF303D0503193F2FDE
:104E62001E2F02303902031C412F0130B9020130DA
:104E7200BA35BB0DBC0DBD0D890B392FBC1F322FAE
:104E820039184B2FFF30BA05FF30BB057F30BC0508
:104E9200FF30BD050310B90C3908B400B501B601E5
:104EA200B7011830B435B50DB60DB70D890B532FB8
:104EB2003408BA043508BB043608BC043708BD04FC
:104EC2003808031DB31F662FBD173D08B3003C0809
:104ED200B2003B08B1003A08B0000800FB004001F4
:104EE200161E080098310120A7317830AD318B258C
:104EF200A731003A03197F2F4301EC150030AD3181
:104F02008B25A7317B0803198A2FAE30AD318B2553
:104F1200A731D530AD318B25A7318030AD318B250E
:104F2200A731A830AD318B25A7313F30AD318B256C
:104F3200A731D330AD318B25A7314030AD318B2530
:104F4200A7314030AD318B25A7318D30AD318B2566
:104F5200A7311430AD318B25A7318130AD318B258E
:104F6200A731FF30AD318B25A731D930AD318B253B
:104F7200A731F130AD318B25A7312030AD318B25F2
:104F8200A7310230AD318B25A7312130AD318B25D0
:104F9200A7310030AD318B25A7317F30AD318B2564
:104FA200A7312E30AD318B25A731A030AD318B2505
:104FB200A731C030AD318B25A731DA30AD318B2529
:104FC200A7310230AD318B25A731DB30AD318B25D6
:104FD200A7314030AD318B25A731A430AD318B25BF
:104FE200A731A630AD318B25A7317B08031DFD2FDC
:0E4FF200AF30AD318B25A731A931CD2108009C
:1052CC001030AB313D2308000130AD3113250800FF
:1052DC00640080010131890B6F290034FE0012003B
:1052EC001E00FE0B75290034F300F201731C80299B
:1052FC007108F2070310F10D0310F30C7308031D72
:10530C007C2972080800F201F3017108730786000A
:10531C0087010108F2070130F30708307302031C00
:10532C008B2972090800F300730841019E00353087
:10533C00890B9E290000410113141318A3290D0891
:10534C00F2000C08F10008004B08803AF1008030A4
:10535C007102031DB32901304A02031C08004001ED
:10536C00161E0800AA31082208000130F102003094
:10537C00F23B710A0319720A031908000B30F3008F
:10538C006230890BC729F30BC7290032BB294001B6
:10539C0016114230890BD02900324001961542304B
:1053AC00890BD6290032400116154230890BDC29B5
:1053BC00003208008B1343013308F8003208F70061
:1053CC003108F6003008F5008B177808F4007708E0
:1053DC00F3007608F2007508F10008000A34003476
:1053EC00003400340A340034003400340F342734D1
:1053FC0064340034013402344034783401340234DF
:10540C00403478348B1343012F08DB002E08DA006C
:10541C002D08D9002C08D8002B08DF002A08DE0044
:10542C002908DD002808DC007C11FC108B17080013
:10543C00F4007408031D242A00300800FF307407A0
:10544C00F100F10A8030F2000030F300302A730DC5
:10545C00F30CF20CF10B2D2A7208003C08004001F1
:10546C001615F101492A40010C194D2A96114230AA
:10547C00890B3E2A0032400196154230890B442A92
:10548C0000320130F10709307102031C392AA931AD
:10549C00CD210800FB004001161E080098310120A8
:1054AC00AA317830AD318B25AA31003A0319602A24
:1054BC004301EC158030AD318B25AA317B08AD3121
:1054CC008B25AA31A931CD2108002030AB313D23E9
:1054DC00AA31A0300032890B702A0930A9319921E8
:1054EC00AA317208F8007108F7000B30F90000308F
:1054FC00FA00AA31A42278084301CF007708CE0025
:10550C0008008030BC064008B0003F08AF003E08E1
:10551C00AE003D08AD003C08B4003B08B3003A08AF
:10552C00B2003908B1008B3189233008BC002F0838
:10553C00BB002E08BA002D08B90008004001A001DC
:10554C00A101771CAE2A79084001A0077A08A13D79
:10555C000130F935FA0D890BAF2A0130F836F70C0A
:10556C00890BB42A77087804031DA72A4001210867
:10557C00F8002008F7000800F200F301F4017208AB
:10558C00F100740ACA2AF136890BC92A711CD82A6F
:10559C000330F1007435890AD42AF135890BD32AEA
:1055AC007108F3040130F40704307402031CC52A9B
:1055BC0073080800AB316323AA314001AC0182307F
:1055CC00AD00B030AE000B30AF0001309A31D922B3
:1055DC00AA3152304001C4002B30C3000030890B7B
:1055EC00F52AC30BF52AC40BF52A0000A431262496
:1055FC000800F900F501F6017108F300F4017308D5
:10560C00F7007408F800791C0F2B7708F507780859
:10561C00F63D0130F735F80D890B102B0310F90C02
:10562C007908031D092B7608F2007508F1000800B3
:10563C00F200F401710803193B2B0130F300F11B4C
:10564C002C2B0310F10D0130F307252B0310F40D57
:10565C0071087202031C362B7108F20274140310C9
:10566C00F10C0130F302031D2C2B74080800F3001D
:10567C0041019313730860390319592B731B482B81
:10568C000130492B0230F1000030F20052010C08BD
:10569C007106FC3971068C008C170C1F532B0330D0
:1056AC0041019A005A2B9A019401950196019D0192
:1056BC009C0114309300931708004001161E08003B
:1056CC0098310120AB317830AD318B25AB31403086
:1056DC00AD318B25AB31AD01A7012D08AE314E2676
:1056EC00AB31AC010130AC070030AD318B25AB31A7
:1056FC0080302C02031C782B0130AD0708302D02B2
:10570C00031C722BA931CD210800710872040319F6
:10571C00B02B0130F500F21B9B2B0130F135F20D53
:10572C00890B942B0130F507912B72087402031D21
:10573C00A12B71087302031CA72B7108F3027208CA
:10574C00F43B0130F236F10C890BA82B0130F50239
:10575C00031D9B2B7408F2007308F10008003C0831
:10576C003D04031DC52B3C30AC00F930AD00B0300E
:10577C00AE000430AF0002309A31D92208003D0847
:10578C00F9003C08F8003030FA00A231FE22AB31AF
:10579C0044013308B8002E30B9003408BA0035087B
:1057AC00BB003C304001AC003830AD000230AE00E4
:1057BC000430AF0002309A31D92208007C1043012A
:1057CC0055084201EA00430154084201E900430133
:1057DC0053084201E8006908F4006808F5006A08FB
:1057EC009931ED21AB31A331C223AB3143014308D5
:1057FC00E3004208E20005309331C323AB3143018F
:10580C00C601C7013C304001AC00F930AD00B030EE
:10581C00AE000430AF0002309A31D92208004001AA
:10582C00B00198310120AC317830AD318B25AC31E1
:10583C00003A0319382CA931CD21AC310D3040017F
:10584C00AF002D30AE00D730890B2A2CAE0B2A2C92
:10585C00AF0B2A2C003201304001B0070A30300265
:10586C00031C172CA931CD21AC310130A7316F2786
:10587C00AC31AB316323AC31AF30AA3150220800CC
:10588C00F601F701710872040319732C0130F5004D
:10589C00F21B582C0130F135F20D890B512C0130D3
:1058AC00F5074E2C0130F635F70D890B592C720883
:1058BC007402031D632C71087302031C6A2C71089B
:1058CC00F3027208F43B76140130F236F10C890BBA
:1058DC006B2C0130F502031D582C7708F20076086A
:1058EC00F100080000304001A3000030A20000309D
:1058FC00A1000030A000711C8C2C75084001A00781
:10590C007608A13D7708A23D7808A33D0130F53516
:10591C00F60DF70DF80D890B8D2C0130F436F30CC8
:10592C00F20CF10C890B942C74087304720471043E
:10593C00031D812C40012308F4002208F3002108E8
:10594C00F2002008F10008004201E901EA016908AF
:10595C00F4006808F5006A089931ED21AC319831F2
:10596C001A20AC3143014908803A4201D5008030FD
:10597C005502031DC42C793043014802031C080056
:10598C009C31D424AC3198311A20AC3143014908F4
:10599C00803A4201D50080305502031DD82C793055
:1059AC0043014802031C0800AC31DD24080043010C
:1059BC00D2014201D101092D6908CF006A08D0003B
:1059CC006A086902031CF12C9D31D825AC319E313B
:1059DC00EC26AC31F72C9E31EC26AC319D31D82520
:1059EC00AC31420169084F06031D062D6A085006AA
:1059FC00031D062D43015208031D102D0130D2004A
:105A0C0001304201D10704305102031CFC1B102D44
:105A1C00FC1EE22C4301D20108004001C100971189
:105A2C007C1C1F2D410803191F2DAB31E423AD3114
:105A3C00222DA031F720AD310D304001C0002D30AA
:105A4C00BF00D730890B282DBF0B282DC00B282D5C
:105A5C00003240019715FC137C124301D701A93188
:105A6C00E021AD3174084401AF007308AE00720838
:105A7C00AD007108AC00A931E02174084401AB0001
:105A8C007308AA007208A9007108A8000800400158
:105A9C009711AB316323AD314001AC016230AD00E5
:105AAC00B030AE001230AF000130A0311120AD315A
:105ABC004001AC017530AD00B030AE000C30AF0021
:105ACC000330A0311120AD3154304001AC00023014
:105ADC00AD00B130AE000330AF000330A031112067
:105AEC00AD317A304001BB00C130BA008130890B36
:105AFC007D2DBA0B7D2DBB0B7D2D003240018D1AF7
:105B0C00892D6400842D971508004001A500A6017D
:105B1C002508A2000730A236890B912D22080139E5
:105B2C00A300A30DA30D16082306FB39230696002C
:105B3C004230890B9F2D0032400196154230890B63
:105B4C00A52D0032400196112535A5000130A60780
:105B5C0008302602031C8E2D16154230890BB42DED
:105B6C000032400196150C0C890C0139A40042300E
:105B7C00890BBE2D0032400196114230890BC42D89
:105B8C000032400124080800A931E021AD31303049
:105B9C0071074401A0007530723DA1000030733DC7
:105BAC00A2000030743DA3004001161E0800430102
:105BBC00EC11AA313522AD310030A7316F27AD3150
:105BCC00A0315D20AD31430147084001BD004301C8
:105BDC0046084001BC00AB31B523AD310F30430159
:105BEC00E0002730E1000F304C06273003194D063A
:105BFC00031908004D084001AD0043014C08400159
:105C0C00AC009B31D1230800A531D425AE3124083A
:105C1C00B0002508B100890D893B8909B200B30099
:105C2C000130A631E226AE3133084101E1004001DA
:105C3C0032084101E000400131084101DF00400120
:105C4C0030084101DE00A6315B26AE312408B000DD
:105C5C002508B100890D893B8909B200B3000130D8
:105C6C00A631E226AE3133084101E500400132088D
:105C7C004101E400400131084101E30040013008DA
:105C8C004101E2008031FB20AE31A931AA2108008C
:105C9C00A8002708023EAB0098310120AE317830C5
:105CAC00AD318B25AE31003A03195E2E4301EC1554
:105CBC000030AD318B25AE312808B03EAD318B258F
:105CCC00AE3110302B0203186F2E2B08A900AA013D
:105CDC00802E2B08FB000430FB36890B722E7B08C0
:105CEC00AA00F030F1002A08A9317A21AE31400126
:105CFC002B07A9002908AD318B25AE312A08103E9F
:105D0C00AD318B25AE3198310120AE317830AD31CB
:105D1C008B25AE314030AD318B2508004001161E6D
:105D2C00080098310120AE317830AD318B25AE3181
:105D3C004030AD318B25AE31B3017330A700330841
:105D4C00AE314E26AE31B2013308AC00AD012C0899
:105D5C00F7002D08F8000B30F9000030FA00AA31DA
:105D6C00A422AE310030AE00B030AF0077082E0761
:105D7C00B00078082F3DB10032083007840031089C
:105D8C000318013E85000008AD318B25AE31013082
:105D9C00B2070B303202031CAA2E0130B3070430B9
:105DAC003302031CA32EA931CD210800003041057C
