:040000008031CB2858
:100008007E14803100308600003087004E018C1E3F
:10001800C9288C1201304301BC070030BD3DBE3DEC
:10002800BF3D5E085D045C045B04031927280130AA
:10003800DB020030DC3BDD3BDE3B5E085D045C043C
:100048005B0403197C156208610460045F040319EA
:1000580039280130DF020030E03BE13BE23B620837
:10006800610460045F040319FC14C03040019C0063
:10007800E0309D00430133083F02031D4D2832083C
:100088003E02031D4D2831083D02031D4D2830084E
:100098003C02031CC9280A30B0070030B13DB23D0C
:1000A800B33D40018F185A2801305B280030F0001A
:1000B8008D1A602801306128003070040038031957
:1000C800782843012F08DE002E08DD002D08DC000B
:1000D8002C08DB002B08E2002A08E1002908E000D0
:1000E8002808DF007C11FC1040018D1A9728FA308F
:1000F80042016902031882280130E90719306906AC
:1001080003197C174001160E0139F000FA3042013C
:100118006906031D912801309228003070050319E3
:10012800A228FC16A228033042016902031CA12858
:10013800193069020318A128FC17E90140018F183A
:10014800BE281930420168020318AC280130E807BC
:1001580040010F0C890C0139F00014304201680687
:10016800031DB8280130B928003070050319C928C3
:10017800FC15C928023042016802031CC8280A304D
:1001880068020318C8287C16E8017E10090080312F
:10019800CD283F308400AC308500DB30860001304C
:1001A800870014308731F9278031FC014201EA01C8
:1001B80060308400013085000A30AB31BD238031C6
:1001C800A0308400013085003B30AB31BD23803145
:1001D80020308400023085001430AB31BD237E10FE
:1001E80040019A31842A44304001C1007A30C0006D
:1001F8000030BF000030BE00410161084001C50069
:10020800410160084001C40041015F084001C3008A
:1002180041015E084001C2008831802080314108D8
:100228004101E100400140084101E00040013F0870
:100238004101DF0040013E084101DE004430400139
:10024800C1007A30C0000030BF000030BE0041015C
:1002580065084001C500410164084001C40041012E
:1002680063084001C300410162084001C2008831AF
:100278008020803141084101E500400140084101EA
:10028800E40040013F084101E30040013E0841010C
:10029800E20061084001DB00410160084001DA002A
:1002A80041015F084001D90041015E084001D800C2
:1002B800430127084001DF00430126084001DE0012
:1002C800430125084001DD00430124084001DC000A
:1002D8008D31722580315B084201AB0040015A081C
:1002E8004201AA00400159084201A90040015808EA
:1002F8004201A800410161084001DB00410160089A
:100308004001DA0041015F084001D90041015E085F
:100318004001D800430123084001DF0043012208BF
:100328004001DE00430121084001DD0043012008AF
:100338004001DC008D31722580315B084101B0003D
:1003480040015A084101AF00400159084101AE007F
:10035800400158084101AD0061084001DB0041013E
:1003680060084001DA0041015F084001D9004101FD
:100378005E084001D80042012B084001DF0042011D
:100388002A084001DE00420129084001DD0042013F
:1003980028084001DC008D31722580315B0841015D
:1003A800B40040015A084101B30040015908410115
:1003B800B200400158084101B1008B3189238031D6
:1003C8003008E1002F08E0002E08DF002D08DE00CD
:1003D80065084001DB00410164084001DA00410181
:1003E80063084001D900410162084001D800430177
:1003F80027084001DF00430126084001DE004301D1
:1004080025084001DD00430124084001DC008D314E
:10041800722580315B084201AB0040015A08420155
:10042800AA00400159084201A900400158084201A8
:10043800A800410165084001DB0041016408400152
:10044800DA00410163084001D90041016208400116
:10045800D800430123084001DF004301220840017E
:10046800DE00430121084001DD004301200840016E
:10047800DC008D31722580315B084101B0004001FC
:100488005A084101AF00400159084101AE0040013E
:1004980058084101AD0065084001DB0041016408CE
:1004A8004001DA00410163084001D90041016208B6
:1004B8004001D80042012B084001DF0042012A0810
:1004C8004001DE00420129084001DD004201280800
:1004D8004001DC008D31722580315B084101B40098
:1004E80040015A084101B300400159084101B200D6
:1004F800400158084101B1008B318923803130080F
:10050800E5002F08E4002E08E3002D08E20061084A
:100518004001DF00410160084001DE0041015F0841
:100528004001DD0041015E084001DC004130DB0094
:100538002030DA000030D9000030D8008D31722523
:1005480080315B084101B40040015A084101B30001
:10055800400159084101B200400158084101B10069
:100568003F30B0000030AF000030AE000030AD00CA
:100578008B31892380313008C4002F08C3002E082E
:10058800C2002D08C100A631202680314101420851
:100598004301D300410141084301D20041016508EC
:1005A800C4006408C3006308C2006208C10061088F
:1005B800C8006008C7005F08C6005E08C50088312B
:1005C80005208031031CEC2A4301C001C101552BD1
:1005D8006108C0006008BF005F08BE005E08BD007B
:1005E8006508BC006408BB006308BA006208B9006B
:1005F800AC31EB2480313C084001DF0041013B086D
:100608004001DE0041013A084001DD00410139089E
:100618004001DC004130DB002030DA000030D90036
:100628000030D8008D31722580315B084201A3006B
:1006380040015A084201A200400159084201A100A4
:10064800400158084201A00023084101B4004201BA
:1006580022084101B300420121084101B2004201D0
:1006680020084101B1003F30B0000030AF00003039
:10067800AE000030AD008B31892380313008C400D2
:100688002F08C3002E08C2002D08C100A63120265D
:100698008031410142084301C10041014108430141
:1006A800C00000304101C4000030C3000030C20067
:1006B8000030C1006108C8006008C7005F08C600B4
:1006C8005E08C5008831052080310318802B650835
:1006D800C4006408C3006308C2006208C10061085E
:1006E800C8006008C7005F08C6005E08C5008831FA
:1006F80005208031031C862B10304201E000273092
:10070800E100E82B65084001C5004101640840018B
:10071800C400410163084001C3004101620840016F
:10072800C200410161084001C10041016008400167
:10073800C00041015F084001BF0041015E0840015F
:10074800BE008831802080314108DF004008DE008B
:100758003F08DD003E08DC004630DB001C30DA00D4
:100768004030D9000030D8008D31722580315B08C7
:100778004101B40040015A084101B3004001590841
:100788004101B200400158084101B1003F30B000BA
:100798000030AF000030AE000030AD008B3189234F
:1007A80080313008C4002F08C3002E08C2002D086D
:1007B800C100A63120268031410142084201E100F2
:1007C800410141084201E00043015308803AFB001F
:1007D8004908803A7B02031DF32B4808520203188C
:1007E800F92B4201E201E301080041016508C40058
:1007F8006408C3006308C2006208C1006108C80039
:100808006008C7005F08C6005E08C500883105207B
:100818008031031C152CE7304201E2000330E3006D
:10082800080061084001C100410160084001C000A2
:1008380041015F084001BF0041015E084001BE0060
:10084800410165084001C500410164084001C40038
:10085800410163084001C300410162084001C20030
:1008680088318020803141084201A70040014008BA
:100878004201A60040013F084201A50040013E0890
:100888004201A40027084101D00042012608410185
:10089800CF00420125084101CE0042012408410150
:1008A800CD009631C926803150084201AF00410180
:1008B8004F084201AE0041014E084201AD0041011E
:1008C8004D084201AC003F304101C0008030BF00FC
:1008D8000030BE000030BD0042012F084101BC00BD
:1008E80042012E084101BB0042012D084101BA0016
:1008F80042012C084101B900AC31EB2480313C089D
:10090800C4003B08C3003A08C2003908C1000030DF
:10091800C8000030C7000030C6000030C500A13153
:10092800A1218031031CA12C3A304201AF00833051
:10093800AE001230AD006F30AC0042012F0841010B
:10094800BC0042012E084101BB0042012D084101B3
:10095800BA0042012C084101B9003F30C000803084
:10096800BF000030BE000030BD00AC31EB24803148
:100978003C084001C10041013B084001C000410161
:100988003A084001BF00410139084001BE003F302C
:100998004101B0008030AF000030AE000030AD0043
:1009A80042012F084101B40042012E084101B30061
:1009B80042012D084101B20042012C084101B10059
:1009C8008B318923803130084001C50041012F084F
:1009D8004001C40041012E084001C30041012D0817
:1009E8004001C20088318020803141084201AF00B7
:1009F800400140084201AE0040013F084201AD00FD
:100A080040013E084201AC002F084101C4004201E8
:100A18002E084101C30042012D084101C2004201D4
:100A28002C084101C1003F30C8008030C7000030A9
:100A3800C6000030C50088310520803103182D2DEF
:100A48003F304201AF008030AE000030AD000030D2
:100A5800AC0041304101C4001F30C300C230C200A5
:100A68008F30C10042012F084101C80042012E0801
:100A78004101C70042012D084101C60042012C086E
:100A88004101C500883105208031031C0F2C42012B
:100A98002F084001DF0042012E084001DE0042011C
:100AA8002D084001DD0042012C084001DC004230E5
:100AB800DB00C830DA000030D9000030D8008D31B2
:100AC800722580315B084101B40040015A08410198
:100AD800B300400159084101B200400158084101E2
:100AE800B1003F30B0000030AF000030AE00003041
:100AF800AD008B31892380313008C4002F08C30032
:100B08002E08C2002D08C100A63120264101420846
:100B18004201E300410141084201E20008004408A3
:100B28009C3E4401B400FF304301453D4401B500FB
:100B380003304201DC000830DB007730890BA22D3E
:100B4800DB0BA22DDC0BA22D4401B801B901BA01BF
:100B5800BB01B601B7013708803A4201DB00430107
:100B68004308803A42015B02031DBE2D430142083F
:100B7800440136020318F42DA031CF2085314401F9
:100B88003908803A4201DB0043015308803A4201A8
:100B98005B02031DD32D4301520844013802031898
:100BA800E52D430153084401B900430152084401AB
:100BB800B800420163084401BB00420162084401D5
:100BC800BA000B304201DB006230890BE92DDB0BE8
:100BD800E92D000001304401B6070030B73DAF2DC4
:100BE80044013908803A4201DB0080305B02031D72
:100BF800002E013044013802031C0C2E4001161E41
:100C0800092EAC31532485310C2EA6318A26853124
:100C18004301640844013906031D162E4301630885
:100C2800440138060319422E42016A1D222E2A3039
:100C38004001AC000830AD00B130282E2A30400108
:100C4800AC000630AD00B130AE00AF01AF0A0030E5
:100C58009F3108278531440139084301E4004401E4
:100C680038084301E300440139084001BD0044014C
:100C780038084001BC00A5310425853144013B08F2
:100C8800803A4201DB0080305B02031D4E2E643047
:100C980044013A02031C8B2E4301510844013B06D0
:100CA800031D5A2E4301500844013A0603198B2E9E
:100CB8003B084301D10044013A084301D0004401F4
:100CC8003908803A4201DB0043014908803A420171
:100CD8005B02031D732E43014808440138020318C0
:100CE800802E430151084001BD00430150084001D6
:100CF800BC00AE3165260800430151084001BD0023
:100D0800430150084001BC00AE31652685314201DF
:100D18006A1DEE2E03304401B6000030B7000630DD
:100D28004001AC00CC30AD00B030AE000930AF00AF
:100D380002309F310827853115304201DC004B30E5
:100D4800DB00BE30890BA62EDB0BA62EDC0BA62EF5
:100D580000004001AC019A30AD00B030AE0009305F
:100D6800AF0002309F310827853115304201DC0081
:100D78004B30DB00BE30890BBF2EDB0BBF2EDC0BEC
:100D8800BF2E0000FF304401B607FF30B73D3608DC
:100D98003704031D932E0930AD31A1258531440157
:100DA8003B084001BD0044013A084001BC00AE3197
:100DB8006526853115304201DC004B30DB00BE3042
:100DC800890BE42EDB0BE42EDC0BE42E0000420141
:100DD8006A1108006A1C08007C18080044013908D8
:100DE800803A4201DB0043014908803A42015B0234
:100DF800031D022F4301480844013802031C080060
:100E080044013908803A4201DB0043014708803A2F
:100E180042015B02031D142F4301460844013802B6
:100E28000318080044013B08803A4201DB00803087
:100E38005B02031D222F793044013A02031C08008B
:100E48004301650844013A024201DB004301660898
:100E580044013B3B4201DC0044013508803A420131
:100E6800DD005C08803A5D02031D3D2F5B084401EC
:100E78003402031C792F44013A08430165024201F8
:100E8800DB0044013B084301663B4201DC004401AE
:100E98003508803A4201DD005C08803A5D02031D96
:100EA800582F5B0844013402031C792FE7304201B4
:100EB800DB000330DC004401340842015B02DD0042
:100EC8004401350842015C3BDE005E08803ADF00E1
:100ED80044013B08803A42015F02031D772F440119
:100EE8003A0842015D0203180800A0318C2008006E
:100EF800AD01A71F8C2FA409A509A609A709A40A53
:100F08000319A50A0319A60A0319A70A0130AD0097
:100F1800AB1F9B2FA809A909AA09AB09A80A03199D
:100F2800A90A0319AA0A0319AB0A0130AD06003051
:100F3800B1000030B0000030AF000030AE0027082C
:100F48002604250424040319E22F0130AC00A71B52
:100F5800B72F0130A435A50DA60DA70D890BAE2F0F
:100F68000130AC07AB2F0130AE35AF0DB00DB10D70
:100F7800890BB82F27082B02031DCC2F26082A021D
:100F8800031DCC2F25082902031DCC2F2408280275
:100F9800031CD72F2408A8022508A93B2608AA3B2A
:100FA8002708AB3B2E140130A736A60CA50CA40CC1
:100FB800890BD82F0130AC02031DB72F2D08031958
:100FC800F02FAE09AF09B009B109AE0A0319AF0A8B
:100FD8000319B00A0319B10A3108A7003008A6009E
:100FE8002F08A5002E08A4000800FE0012001E000D
:060FF800FE0BFA2F00348D
:101002000030AF318A27080000304105C9000030A6
:101012004205CA0080304305CB007F304405CC0036
:101022004C084B044A044904031D1F280030C40025
:101032000030C3000030C2000030C100003045055E
:10104200C90000304605CA0080304705CB007F301A
:101052004805CC004C084B044A044904031D3928B6
:101062000030C8000030C7000030C6000030C500A4
:10107200C41F53280030C9000030CA000030CB0022
:101082008030CC004108C9024208CA3B4308CB3B2E
:101092004408CC3B4C08C4004B08C3004A08C200B9
:1010A2004908C100C81F6D280030C9000030CA00BD
:1010B2000030CB008030CC004508C9024608CA3B4C
:1010C2004708CB3B4808CC3B4C08C8004B08C7003C
:1010D2004A08C6004908C5008030C4068030C806E8
:1010E20048084402031D080047084302031D080084
:1010F20046084202031D080045084102080045084F
:101102008039CF004535D600C41B56145608031942
:101112009828560A031D95280030C5000030C400E7
:101122000030C3000030C200C417C501A02800303F
:10113200C5000030C4000030C3000030C2004108C6
:101142008039CF064135D700C01B57145708031901
:10115200B828570A031DB5280030C1000030C0006E
:101162000030BF000030BE00C017C101C0280030EF
:10117200C1000030C0000030BF000030BE00410896
:1011820040043F043E04031DDD280030C50000304A
:10119200C4000030C3000030C2008030C4047F307D
:1011A200C5044F08C5044508C1004408C0004308EF
:1011B200BF004208BE0008005608031DE92800309F
:1011C200C1000030C0000030BF000030BE00080087
:1011D2005608C600C7014708C90057084602C8009A
:1011E200031CC90348087F3ED0000030493DD100AE
:1011F2004508CE004408CD004308CC004208CB008D
:101202000030C5000030C4000030C3000030C2000E
:101212000030D5000030D4000030D3000030D200BE
:10122200D7011A30570203184C29570803193029DD
:101232000130CB35CC0DCD0DCE0D890B1A290130E5
:10124200C235C30DC40DC50D890B2129D51B42140E
:101252000130D235D30DD40DD50D890B2A29410881
:101262004E02031D3E2940084D02031D3E293F0840
:101272004C02031D3E293E084B02031C4929551707
:101282003E08CB023F08CC3B4008CD3B4108CE3B59
:101292000130D70712294E084D044C044B04031D9C
:1012A2005214C41B69290130C235C30DC40DC50DCA
:1012B200890B5529D51B42140130D235D30DD40DDB
:1012C200D50D890B5E29FF30D007FF30D13D522961
:1012D200D701D51F8229FF305205C600FF305305C2
:1012E200C700FF305405C8007F305505C9004908C2
:1012F2004804470446040319421880298229013010
:10130200D70057080319A9290130C2070030C33D8D
:10131200C43DC53D451CA9294208C6004308C70073
:101322004408C8004508C9000130CA00C937C80CC2
:10133200C70CC60CCA0B97294908C5004808C40047
:101342004708C3004608C2000130D0070030D13D33
:101352005108803AC60080304602031DB229FF3090
:101362005002031CC129FF304001D0000030D100DF
:101372000030C5000030C4000030C3000030C2009D
:1013820040015108803AC60080304602031DCB2935
:10139200013050020318D9294001D001D101003097
:1013A200C5000030C4000030C3000030C200CF01CD
:1013B20040015008D600561CE029C417E2297F30AC
:1013C200C4055608C6000130C636890BE529460811
:1013D200C500D2284101C7014708BD3E86008701EA
:1013E2004708583E8400B0300318013E85000008CB
:1013F20081000130C7070A304702031CED293D086E
:10140200AB31E32389314101B900BA01BB01BC010F
:101412003C084301AF0041013B084301AE004101DA
:101422003A084301AD00410139084301AC000030E4
:10143200F4000030F300EA30F2006030F1002F08CF
:10144200F8002E08F7002D08F6002C08F500AF3141
:101452002627893174084301AF007308AE00720871
:10146200AD007108AC0041013E08AB31E323893184
:101472004101B900BA01BB01BC013C084301AB0008
:1014820041013B084301AA0041013A084301A90076
:10149200410139084301A8000030F4000030F30094
:1014A200EA30F2006030F1002B08F8002A08F70059
:1014B2002908F6002808F500AF312627893174087B
:1014C2004301AB007308AA007208A9007108A800C2
:1014D20041013F08AB31E32389314101B900BA012F
:1014E20039084301CA0041013A084301CB004101D6
:1014F2004008AB31E32389314101B900BA0139080F
:101502004301C80041013A084301C90041014108B1
:10151200AB31E32389314101B900BA013908F7003F
:101522003A08F8000A30F9000030FA00AD31082517
:10153200893178084301C7007708C6004101420893
:10154200AB31E32389314101B900BA013908F7000F
:101552003A08F8000A30F9000030FA00AD310825E7
:10156200893178084301C5007708C4004101430866
:10157200AB31E3238931003A0319C22A42016A14CA
:10158200C42A42016A1041304001C1002030C0002B
:101592000030BF000030BE0041014408AB31E323FC
:1015A20089314101B900BA01BB01BC013C084001CB
:1015B200B30041013B084001B20041013A08400139
:1015C200B100410139084001B00001309831AE202C
:1015D20089313308C5003208C4003108C30030081D
:1015E200C20088318020893141084301A3004001B3
:1015F20040084301A20040013F084301A10040010D
:101602003E084301A0003F304101B0008030AF00EE
:101612000030AE000030AD0042304001C100C830A1
:10162200C0000030BF000030BE0041014508AB31B0
:10163200E32389314101B900BA01BB01BC013C0875
:101642004001B30041013B084001B20041013A08A8
:101652004001B100410139084001B0000130983128
:10166200AE2089313308C5003208C4003108C300F6
:101672003008C20088318020893141084101B4001C
:10168200400140084101B30040013F084101B2005E
:1016920040013E084101B1008B3189238931300874
:1016A2004301A70041012F084301A60041012E0872
:1016B2004301A50041012D084301A4000630400169
:1016C200A2000030A30041014608AB31E323893177
:1016D2004101B900BA013908F7003A08F8000A30A6
:1016E200F9000030FA00AD31082589317808A500EB
:1016F2007708A400A331182323084301C300400143
:1017020022084301C2004B08CF004A08CE0008005D
:1017120030088039B5003035B700AF1B37143708B1
:101722000319A12B370A031D9E2B0030B000003095
:10173200AF000030AE000030AD00AF17B001A92BF2
:101742000030B0000030AF000030AE000030AD001D
:1017520034088039B60036083506031D351734358E
:10176200B600B31B361436080319C52B360A031DFF
:10177200C22B0030B4000030B3000030B2000030A1
:10178200B100B317B401CD2B0030B4000030B30068
:101792000030B2000030B100370836020318F32BD4
:1017A200351FD52B8030B5063708B8003608B7008C
:1017B2003808B6002D08B8003108AD003808B1006D
:1017C2002E08B8003208AE003808B2002F08B80060
:1017D2003308AF003808B3003008B8003408B0004E
:1017E2003808B400B80136084001E500E601660891
:1017F200E8004101370840016502E700031CE803E5
:101802006808803AE90080306902031D0A2C1A3008
:101812006702031C422C410130082F042E042D04C0
:101822000319152C0130162C0030B8000030B0001E
:101832000030AF000030AE000030AD003608B70017
:10184200472C381C302C38084001E5000130E536C1
:10185200890B282C650801384101B800322C03108D
:10186200B80C2D18B81701304001E5004101B0371E
:10187200AF0CAE0CAD0C4001E50B372C0130410131
:10188200B707410136083702031C222C351B802C76
:101892003708031D552C0030B0000030AF00003077
:1018A200AE000030AD0008003108AD073208AE3D91
:1018B2003308AF3D3408B03D301C0D2D381C6D2C63
:1018C20038084001E5000130E536890B652C6508D2
:1018D20001384101B8006F2C0310B80C2D18B8174D
:1018E20001304001E5004101B037AF0CAE0CAD0C48
:1018F2004001E50B742C01304101B7070D2D300872
:10190200803A4001E50041013408803A4001650215
:101912004101031D962C33082F02031D962C320819
:101922002E02031D962C31082D020318DB2CFF30EA
:101932004001E500FF30E600FF30E700FF30E8003D
:1019420041012D0831024001E90041012E08323BDC
:101952004001EA0041012F08333B4001EB00410105
:101962003008343B4001EC006908E5076A08E63DAF
:101972006B08E73D6C08E83D68084101B000400192
:1019820067084101AF00400166084101AE00400115
:1019920065084101AD008030B5063803FF3AB80052
:1019A2003808031DE32C0130AD070030AE3DAF3DDA
:1019B200B03DE32C3108AD023208AE3B3308AF3BF9
:1019C2003408B03B30082F042E042D04031D0B2DC8
:1019D2003808031D0B2D0030B0000030AF0000307E
:1019E200AE000030AD0008000130AD35AE0DAF0DD8
:1019F200B00D890BF62CB81B2D14381C042D0314C2
:101A0200380DB800062D0310B80D370803190B2D39
:101A12000130B702AF1FF52CB601B81F182D3808D8
:101A22007F3903192D18162D182D0130B6003608EE
:101A320003194E2D0130AD070030AE3DAF3DB03D34
:101A4200301C4E2D2D084001E50041012E084001B9
:101A5200E60041012F084001E70041013008400142
:101A6200E8000130E900E837E70CE60CE50CE90B89
:101A7200342D68084101B000400167084101AF0000
:101A8200400166084101AE00400165084101AD0018
:101A9200370A03194E2D0130B707370A031D3708DD
:101AA200031D5E2D0030B0000030AF000030AE00EC
:101AB2000030AD0037080319B501371C622DAF178E
:101AC200642D7F30AF0537084001E5000130E5366F
:101AD200890B682D65084101B000B51F0800B017D9
:101AE20008005B0880394101A00040015B354101DB
:101AF200A2004001DA1F7F2D410122144101220878
:101B02000319922D220A031D8F2D00304001DB00A4
:101B12000030DA000030D9000030D8004001DA1776
:101B22009B2D00304001DB000030DA000030D9008C
:101B32000030D8005F0880394101A00640015F35BE
:101B42004101A1004001DE1FA82D410121144101E4
:101B520021080319BB2D210A031DB82D00304001B5
:101B6200DF000030DE000030DD000030DC0040012C
:101B7200DE17C42D00304001DF000030DE000030EF
:101B8200DD000030DC0041012108031D2208031D95
:101B9200D42D00304001DB000030DA000030D900E3
:101BA2000030D800080040015808F1005E08AD314D
:101BB20063258D3172084101AC007108AB002B081E
:101BC2004001E000E101E201E30163084101A600F6
:101BD200400162084101A500400161084101A400E1
:101BE200400160084101A3002C084001E000E1012E
:101BF200E201E30163084101AA00400162084101D8
:101C0200A900400161084101A800400160084101AA
:101C1200A70040015908F1005D08AD3163258D31FF
:101C220072084101AC007108AB002B084001E000D2
:101C3200E101E201E30160084101A30740016108FB
:101C42004101A43D400162084101A53D40016308F4
:101C52004101A63D2C084001E000E101E201E3015F
:101C620060084101A707400161084101A83D400108
:101C720062084101A93D400163084101AA3D4001BA
:101C82005A08F1005C08AD3163258D3172084101BB
:101C9200AC007108AB002B084001E000E101E20159
:101CA200E30160084101A307400161084101A43D2D
:101CB200400162084101A53D400163084101A63D82
:101CC2002C084001E000E101E201E301600841016A
:101CD200A707400161084101A83D40016208410196
:101CE200A93D400163084101AA3D0830A335A40D76
:101CF200A50DA60D890B772E40015908F1005C084D
:101D0200AD3163258D3172084101AC007108AB0021
:101D12002B08A3072C08A43D0030A53DA63D400199
:101D22005808F1005D08AD3163258D31720841011B
:101D3200AC007108AB002B08A3072C08A43D0030AF
:101D4200A53DA63D0830A335A40DA50DA60D890B12
:101D5200A42E40015808F1005C08AD3163258D3195
:101D620072084101AC007108AB002B08A3072C08D4
:101D7200A43D0030A53DA63D40015908F1005E0892
:101D8200AD3163258D3172084101AC007108AB00A1
:101D92002B08A7072C08A83D0030A93DAA3D400109
:101DA2005A08F1005D08AD3163258D317208410199
:101DB200AC007108AB002B08A7072C08A83D003027
:101DC200A93DAA3D40015A08F1005E08AD316325E4
:101DD2008D3172084101AC007108AB002B08400143
:101DE200E00041012C084001E100E201E30108307A
:101DF200E035E10DE20DE30D890BF92E600841019A
:101E0200A707400161084101A83D40016208410164
:101E1200A93D400163084101AA3D26084001E000B6
:101E2200E101E201E30160084101A7074001610805
:101E32004101A83D400162084101A93D40016308FA
:101E42004101AA3D0830A335A40DA50DA60D890BAD
:101E5200242F220821074001E000E101E10D600882
:101E6200823E4101AB00FF304001613D4101AC00C7
:101E7200A91B502F0130A735A80DA90DAA0D890B5A
:101E82003C2FA61B27140130A335A40DA50DA60DCA
:101E9200890B452FFF30AB07FF30AC3D392FA10135
:101EA200A61F722FFF3023054001E000FF304101E1
:101EB20024054001E100FF30410125054001E20017
:101EC2007F30410126054001E3006308620461049A
:101ED2006004031D6F2F4101271C722F0130410145
:101EE200A10021080319A72F0130A7070030A83D40
:101EF200A93DAA3D2A1CA72F27084001E000410165
:101F020028084001E100410129084001E2004101A5
:101F12002A084001E3000130E400E337E20CE10C5F
:101F2200E00CE40B8E2F63084101AA004001620815
:101F32004101A900400161084101A8004001600877
:101F42004101A7000130AB070030AC3D2C08803ABC
:101F52004001E00080306002031DB22FFF304101DA
:101F62002B02031CBE2F7F304101AA008030A90042
:101F72000030A8000030A700EE2F41012C08803A63
:101F82004001E00080306002031DCA2F0130410190
:101F92002B020318D72F00304101AA000030A900FC
:101FA2000030A8000030A700A001EE2F41012B084D
:101FB200A200FF30A705FF30A8057F30A905003039
:101FC200AA052218A91722084001E0000130E036D4
:101FD200890BE82F60084101AA002008AA042A08F8
:101FE2004001DB00410129084001DA0041012808D3
:101FF2004001D900410127084001D80008000034FF
:102002000034003400340034003400345F340034CF
:1020120000340034073400340734003414347F347D
:1020220014347F34143424342A347F342A3412345E
:102032002334133408346434623436344934553426
:102042002234503400340534033400340034003474
:102052001C342234413400340034413422341C34E0
:10206200003408342A341C342A340834083408343E
:102072003E340834083400345034303400340034F0
:102082000834083408340834083400343034303426
:1020920000340034203410340834043402343E3422
:1020A2005134493445343E34003442347F34403470
:1020B2000034423461345134493446342134413499
:1020C20045344B3431341834143412347F341034E0
:1020D200273445344534453439343C344A34493460
:1020E200493430340134713409340534033436341C
:1020F200493449344934363406344934493429346C
:102102001E3400343634363400340034003456344D
:102112003634003400340034083414342234413468
:102122001434143414341434143441342234143432
:102132000834003402340134513409340634323460
:102142004934793441343E347E34113411341134FB
:102152007E347F3449344934493436343E34413450
:102162004134413422347F344134413422341C34EA
:102172007F3449344934493441347F340934093491
:10218200013401343E3441344134513432347F34E9
:102192000834083408347F34003441347F34413405
:1021A20000342034403441343F3401347F34083425
:1021B2001434223441347F34403440344034403487
:1021C2007F340234043402347F347F3404340834DC
:1021D20010347F343E344134413441343E347F3410
:1021E20009340934093406343E344134513421343B
:1021F2005E347F3409341934293446344634493440
:10220200493449343134013401347F3401340134E6
:102212003F344034403440343F341F34203440345F
:1022220020341F347F342034183420347F34633414
:1022320014340834143463340334043478340434E6
:102242000334613451344934453443340034003466
:102252007F3441344134023404340834103420349D
:10226200413441347F3400340034043402340134C4
:102272000234043440344034403440344034003476
:102282000134023404340034203454345434543489
:1022920078347F3448344434443438343834443421
:1022A20044344434203438344434443448347F345D
:1022B2003834543454345434183408347E340934A1
:1022C2000134023408341434543454343C347F34EA
:1022D2000834043404347834003444347D344034D3
:1022E20000342034403444343D34003400347F34EC
:1022F200103428344434003441347F3440340034C0
:102302007C3404341834043478347C34083404348F
:1023120004347834383444344434443438347C34E7
:10232200143414341434083408341434143418347F
:102332007C347C340834043404340834483454344F
:1023420054345434203404343F344434403420343C
:102352003C344034403420347C341C342034403407
:1023620020341C343C344034303440343C34443423
:1023720028341034283444340C345034503450341B
:102382003C344434643454344C34443400340834DB
:10239200363441340034003400347F3400340034A5
:1023A20000344134363408340034083408342A34D2
:1023B2001C34083408341C342A34083408340034F9
:1023C2000034003400340034003400345F3400340C
:1023D20000340034073400340734003414347F34BA
:1023E20014347F34143424342A347F342A3412349B
:1023F2002334133408346434623436344934553463
:1024020022345034003405340334003400340034B0
:102412001C342234413400340034413422341C341C
:10242200003408342A341C342A340834083408347A
:102432003E3408340834003450343034003400342C
:102442000834083408340834083400343034303462
:1024520000340034203410340834043402343E345E
:102462005134493445343E34003442347F344034AC
:1024720000344234613451344934463421344134D5
:1024820045344B3431341834143412347F3410341C
:10249200273445344534453439343C344A3449349C
:1024A2004934303401347134093405340334363458
:1024B20049344934493436340634493449342934A8
:1024C2001E3400343634363400340034003456348A
:1024D20036340034003400340834143422344134A5
:1024E200143414341434143414344134223414346F
:1024F200083400340234013451340934063432349D
:102502004934793441343E347E3411341134113437
:102512007E347F3449344934493436343E3441348C
:102522004134413422347F344134413422341C3426
:102532007F3449344934493441347F3409340934CD
:10254200013401343E3441344134513432347F3425
:102552000834083408347F34003441347F34413441
:1025620000342034403441343F3401347F34083461
:102572001434223441347F344034403440344034C3
:102582007F340234043402347F347F340434083418
:1025920010347F343E344134413441343E347F344C
:1025A20009340934093406343E3441345134213477
:1025B2005E347F340934193429344634463449347C
:1025C200493449343134013401347F340134013423
:1025D2003F344034403440343F341F34203440349C
:1025E20020341F347F342034183420347F34633451
:1025F2001434083414346334033404347834043423
:1026020003346134513449344534433400340034A2
:102612007F344134413402340434083410342034D9
:10262200413441347F340034003404340234013400
:1026320002340434403440344034403440340034B2
:1026420001340234043400342034543454345434C5
:1026520078347F344834443444343834383444345D
:1026620044344434203438344434443448347F3499
:102672003834543454345434183408347E340934DD
:102682000134023408341434543454343C347F3426
:102692000834043404347834003444347D3440340F
:1026A20000342034403444343D34003400347F3428
:1026B200103428344434003441347F3440340034FC
:1026C2007C3404341834043478347C3408340434CC
:1026D20004347834383444344434443438347C3424
:1026E20014341434143408340834143414341834BC
:1026F2007C347C340834043404340834483454348C
:1027020054345434203404343F3444344034203478
:102712003C344034403420347C341C342034403443
:1027220020341C343C344034303440343C3444345F
:1027320028341034283444340C3450345034503457
:102742003C344434643454344C3444340034083417
:10275200363441340034003400347F3400340034E1
:1027620000344134363408340034083408342A340E
:0E2772001C34083408341C342A34083408346B
:10278200F7007718C72B40019917C92B40019913FD
:102792007708F6000130F636890BCC2B7618D42B4D
:1027A20040011917D62B400119137708F6000230A1
:1027B200F636890BD92B7618E12B40019916E32BBB
:1027C200400199127708F6000330F636890BE62BA2
:1027D2007618EE2B40011916F02B400119127708DA
:1027E200F6000430F636890BF32B7618FB2B4001EA
:1027F2009817FD2B400198137708F6000530F6363E
:10280200890B002C7618082C400118170A2C40015D
:1028120018137708F6000630F636890B0D2C761859
:10282200152C40019816172C4001981274181C2C74
:10283200400196161E2C400196127408F6000130D3
:10284200F636890B212C7618292C40019A142B2C50
:1028520040019A107408F6000230F636890B2E2CCD
:102862007618362C40019617382C400196137408BE
:10287200F6000330F636890B3B2C7618432C4001C8
:102882001617452C400116137408F6000430F6366C
:10289200890B482C7618502C40011814522C4001F8
:1028A20018107408F6000530F636890B552C761888
:1028B2005D2C400198145F2C400198107408F600BA
:1028C2000630F636890B622C76186A2C40011815F0
:1028D2006C2C40011811750C031C1A1003181A14E1
:1028E200991543014F08F2004E08F100AB31F42371
:1028F2009331400199111A30890B7D2C003240012D
:10290200181243014F08F2004E08F100AB31F423D4
:1029120093314001181643014F08F2004E08F100AE
:10292200AB31F423933140019913191399121912FF
:1029320098131813981296129A10961316131810C9
:10294200981018111A101530F600C630890BA72CF2
:10295200F60BA72C00320800161E0800AC318024AA
:1029620094317830A0310D2094314030A0310D20C7
:1029720094310A30A2000030A3002D08A5002C08D3
:10298200A400A331182394312308AD002208AC001F
:102992002D08803AAE0081302E02031DD22C2C303D
:1029A2002C020318D62C2C30E32C40012D08803A3F
:1029B200AE0081302E02031DE02CA5302C02031C38
:1029C200E72CA4304001AC000130AD0040012C08DE
:1029D200D43EAC00FE302D3DAD002D08AF002C08DA
:1029E200AE000530AE35AF0D890BF32C2E08AC00CE
:1029F2002F08AD007830A2000030A3002D08A500FA
:102A02002C08A400A331182394312208B4001930F1
:102A12003402031C152D3408E83EB0000830B10022
:102A22000830B20008302A2D11303402031C1D2D4B
:102A3200B0013408F03E102D09303402031C262D5B
:102A4200B001B1013408F83E122DB001B101B2015A
:102A52003408B3003008AC31692494314001B60027
:102A620036080338B6007730A7000030A1311321B1
:102A720094313608A0310D2094313608A0310D2052
:102A820094313608A0310D20943136081F38B60033
:102A92007530A7000030A131132194313608A031DE
:102AA2000D2094313608A0310D2094317A30A700E0
:102AB2000030A131132194313608A0310D20943118
:102AC2003608A0310D2094313108AC31692494319B
:102AD2004001B6007530A7000130A13113219431B5
:102AE200B5013608A0310D2094310130B507073009
:102AF2003502031C722D3208AC3169249431400135
:102B0200B6007530A7000230A13113219431B5010E
:102B12003608A0310D2094310130B5070730350257
:102B2200031C892D3308AC31692494314001B6006D
:102B32003608C038B6007530A7000330A131132122
:102B42009431B5013608A0310D2094310130B5071A
:102B520007303502031CA32DAC31182408004201B2
:102B6200C1000030BB000030BA000030B9000030B4
:102B7200B8000030BF000030BE000030BD000030A1
:102B8200BC00C001410840020318062EA731792774
:102B9200953124084101E600400125084101E70082
:102BA2000030E71BFF30E800E90066084201B80781
:102BB200410167084201B93D410168084201BA3D3D
:102BC200410169084201BB3D983127209531240813
:102BD2004101E600400125084101E7000030E71B02
:102BE200FF30E800E90066084201BC0741016708BE
:102BF2004201BD3D410168084201BE3D41016908F3
:102C02004201BF3D0130C007C32D41084101E6002A
:102C1200E701E801E90169084001B30041016808E0
:102C22004001B200410167084001B100410166085C
:102C32004001B00001309831AE2095313308C10017
:102C42003208C0003108BF003008BE0042013B0814
:102C52004001B30042013A084001B2004201390882
:102C62004001B100420138084001B0000030983103
:102C7200AE2095313308C5003208C4003108C300C4
:102C82003008C20088318020953141084201B300EA
:102C9200400140084201B20040013F084201B10038
:102CA20040013E084201B00041084101E600E7014F
:102CB200E801E90169084001B300410168084001E7
:102CC200B200410167084001B100410166084001BC
:102CD200B00001309831AE2095313308C10032087E
:102CE200C0003108BF003008BE0042013F08400169
:102CF200B30042013E084001B20042013D084001DA
:102D0200B10042013C084001B00000309831AE20D1
:102D120095313308C5003208C4003108C3003008B9
:102D2200C20088318020953141084201B70040013C
:102D320040084201B60040013F084201B50040018F
:102D42003E084201B40033084101E1004201320869
:102D52004101E000420131084101DF004201300837
:102D62004101DE00420137084101E5004201360817
:102D72004101E400420135084101E3004201340807
:102D82004101E2008031F7209531AC310624080080
:102D92000030C4000030C3000030C2000030C10067
:102DA2005008C8004F08C7004E08C6004D08C500AD
:102DB200883105209631031CE72E0030D000003008
:102DC200CF000030CE000030CD000800403040017E
:102DD200C1000030C0000030BF000030BE003F30F4
:102DE2004101B0008030AF000030AE000030AD00D5
:102DF2005008B4004F08B3004E08B2004D08B100AD
:102E02008B318923963130084001C50041012F08DA
:102E12004001C40041012E084001C30041012D08B8
:102E22004001C20088318020963141084101DD0015
:102E3200400140084101DC0040013F084101DB0044
:102E420040013E084101DA00D5015D08B0005C088E
:102E5200AF005B08AE005A08AD005D084001C1003A
:102E620041015C084001C00041015B084001BF0014
:102E720041015A084001BE00410150084001C5000D
:102E820041014F084001C40041014E084001C30006
:102E920041014D084001C20088318020963141082D
:102EA2004101B400400140084101B30040013F0824
:102EB2004101B20040013E084101B1008B3189233A
:102EC20096313008D4002F08D3002E08D2002D08E6
:102ED200D10040304001C1000030C0000030BF00CE
:102EE2000030BE00410154084001C50041015308B1
:102EF2004001C400410152084001C3004101510890
:102F02004001C20088318020963141084101D90038
:102F1200400140084101D80040013F084101D7006B
:102F220040013E084101D6005908BC005808BB00C8
:102F32005708BA005608B9005D08C0005C08BF0017
:102F42005B08BE005A08BD00AC31EB2496313C0848
:102F5200C4003B08C3003A08C2003908C100383037
:102F62004001DB00D130DA00B730D9001730D80089
:102F720041015D084001DF0041015C084001DE00C3
:102F820041015B084001DD0041015A084001DC00BB
:102F92008D31722596315B084101C80040015A0803
:102FA2004101C700400159084101C60040015808CB
:102FB2004101C5008831052096310318E92F5908CF
:102FC200D0005808CF005708CE005608CD000800A0
:102FD2005908DD005808DC005708DB005608DA0003
:102FE2000130D50714305502031C262F5D08D0008E
:0E2FF2005C08CF005B08CE005A08CD00080036
:10300200F300410193137308603903191D28731BE0
:103012000C2801300D280230F1000030F20052017C
:103022000C087106FC3971068C008C170C1F1728CE
:10303200033041019A001E289A01940195019601DC
:103042009D019C01143093009317080020309831A1
:1030520001209831A0300032890B2C280A30AB3184
:10306200D223983172084001AB007108AA002A0AE3
:10307200033003192B06031D4F28403098310120DD
:103082009831A0300032890B43280A30AB31D22369
:10309200983171354001AA00720DAB00FE302A064C
:1030A200073003192B06031DA9281030983101207F
:1030B2009831A0300032890B5B280A30AB31D22321
:1030C200983172084001AB007108AA002A0A033045
:1030D20003192B06031D6F2842016A15AC31CF2458
:1030E200983140012A08F1002B08F200F301F401A3
:1030F20043015608F5005708F600890D893B8909F6
:10310200F700F800AF31262798317408AF00730832
:10311200AE007208AD007108AC002C08A6002D08A4
:10312200A7002E08A8002F08A9000A30A936A80C6B
:10313200A70CA60C890B97282908AF002808AE0017
:103142002708AD002608AC002D08AB002C08AA0009
:103152002B08A5002A08A4000800B8003808031D9F
:10316200B31FC3283009BA003109BB003209BC00C1
:103172003309BD00BA0A0319BB0A0319BC0A0319B1
:10318200BD0ACB283308BD003208BC003108BB00A1
:103192003008BA003308320431043004031DDA283F
:1031A2000030B3000030B2000030B1000030B00097
:1031B20008009630B900FE303D050319F9280130A8
:1031C200B9070130BD36BC0CBB0CBA0C890BE32825
:1031D200DC280130B9070130BA070030BB3DBC3DE5
:1031E200BD3D0130BD36BC0CBB0CBA0C890BF328BB
:1031F200FF303D0503190B29EA2802303902031C6E
:103202000D290130B9020130BA35BB0DBC0DBD0D1F
:10321200890B0529BC1FFE2839181729FF30BA056A
:10322200FF30BB057F30BC05FF30BD050310B90C74
:103232003908B400B501B601B7011830B435B50D7F
:10324200B60DB70D890B1F293408BA043508BB0423
:103252003608BC043708BD043808031DB31F3229E1
:10326200BD173D08B3003C08B2003B08B1003A0864
:10327200B0000800FB004001161E0800AC3180249B
:1032820099317830A0310D209931003A03194B2938
:103292004201EA150030A0310D2099317B08031953
:1032A2005629AE30A0310D209931D530A0310D20F4
:1032B20099318030A0310D209931A830A0310D20F4
:1032C20099313F30A0310D209931D330A0310D20FA
:1032D20099314030A0310D2099314030A0310D207C
:1032E20099318D30A0310D2099311430A0310D204B
:1032F20099318130A0310D209931FF30A0310D205C
:103302009931D930A0310D209931F130A0310D2001
:1033120099312030A0310D2099310230A0310D2099
:1033220099312130A0310D2099310030A0310D208A
:1033320099317F30A0310D2099312E30A0310D20EE
:103342009931A030A0310D209931C030A0310D202B
:103352009931DA30A0310D2099310230A0310D209F
:103362009931DB30A0310D2099314030A0310D2050
:103372009931A430A0310D209931A630A0310D2011
:1033820099317B08031DC929AF30A0310D20993135
:10339200AC3118240800AC31CF24993155085706B6
:1033A200031DD529540856060319002A5708D500CB
:1033B2005608D40057084001AD00430156084001A9
:1033C200AC009431AD24993143015708803A400151
:1033D200C3008E304302031DF129D9304301560246
:1033E2000318FB2943014A08013ECE0000304B3D41
:1033F200CF00002A43014B08CF004A08CE0000301C
:1034020099313B21993143015708803A4001C30069
:103412008E304302031D102A753043015602031CED
:10342200222A40019711171602304001C400383099
:10343200C300AD30890B1B2AC30B1B2AC40B1B2AEA
:103442003F2A43015708803A4001C3008E304302AD
:10345200031D2E2A073043015602031C432A400152
:103462009711171202304001C4003830C300AD304A
:10347200890B392AC30B392AC40B392A4001971503
:103482001716552A40011712971502304001C40041
:103492003830C300AD30890B4C2AC30B4C2AC40B05
:1034A2004C2A40011716971543015708803A4001EC
:1034B200C3008D304302031D612A48304301560286
:1034C20003180800AD31E52599314001AC018E3079
:1034D200AD00B030AE000B30AF0001309F31082795
:1034E200993152304001C4002B30C3000030890BA7
:1034F200782AC30B782AC40B782A000040011612DE
:10350200A5315F250800A33165239A318931EB216A
:103512009A314001171619154201EA14A6318A267A
:103522009A31A331B3239A31AB31B5239A31420197
:103532006A11AC3153249A3150010C146400AC313D
:103542002B249A313B087402031DB12A3A087302F4
:10355200031DB12A39087202031DB12A380871020B
:10356200031CBE2AB830B8070B30B93D0030BA3D53
:103572000030BB3D9931CC219A31AC312B249A31A8
:1035820037087402031DCF2A36087302031DCF2A9F
:1035920035087202031DCF2A34087102031CE22A85
:1035A2002C30B4070130B53D0030B63D0030B73D98
:1035B200853193259A314201EA1DE22AA0314C203D
:1035C2009A31AC312B249A31440123087402031D31
:1035D200F42A22087302031DF42A21087202031D31
:1035E200F42A20087102031CF92AA0314C209A31D6
:1035F20043012F082E042D042C04031D7C1D032BD4
:103602004001161243012B082A0429042804031D31
:10361200FC1C0E2BA5315F259A31FC1F1A2B400191
:10362200161E172BAB31B9239A311A2BA6318A26D3
:103632009A317C1F262B4001161E232BA0318C2091
:103642009A31262BA6318A269A31FC1E322B400152
:10365200161E2F2BAD3144259A31322BA6318A26E4
:103662009A317C1E3D2B4001161A3A2BA6318A262E
:103672009A31883101209A31FC1D9F2A4001161A85
:10368200492BAD31C2259A31A6318A269A319F2A19
:10369200A0318C209A319F2A96304101EC000030F3
:1036A200ED002C30EA000130EB004301D201D301DE
:1036B2004201E201E3014101EE01EF01430153083E
:1036C200803A4001EF0043014908803A40016F020D
:1036D200031D6E2B4301480852020318252C640077
:1036E200FC1B752BFC1E7D2B4201E201E301103015
:1036F200E0002730E1000800A031CF209B314301D8
:103702004908803A4001EF0043015308803A4001E2
:103712006F02031D8F2B4301520848020318A72B87
:1037220043014108803A4001EF0043014708803AD3
:1037320040016F02031DA02B4301460840020318FB
:10374200A72B08309531B0259B31B32B06304001B1
:10375200EF003030890BAB2BEF0BAB2B0000A0310D
:10376200CF209B3143014908803A4001EF004301D9
:103772005308803A40016F02031DC22B43015208D5
:1037820048020318D52B43014108803A4001EF005B
:1037920043014708803A40016F02031DD32B4301C6
:1037A20046084002031C080041016C086D0403191D
:1037B200F32B0130EC020030ED3B43015308410191
:1037C2006F02031DE82B4301520841016E020318E8
:1037D2005F2B430153084101EF00430152084101AD
:1037E200EE005F2B6F0843016406031DFC2B4101B1
:1037F2006E08430163060319092C41016F08400159
:10380200BD0041016E084001BC00A53104259B3179
:1038120041016F084301E40041016E084301E300E6
:103822004101EE01EF013230EC000030ED006A0898
:103832006B040319212C0130EA020030EB3B5F2BB1
:103842004201E201E301080043014708803A4001D6
:10385200EF0043014108803A40016F02031D342CFE
:1038620043014008460203180800702B4201660813
:10387200CB006408031D4A2C0A30F1006608AD3102
:1038820082259C31C200C3014208C5004308C6001C
:103892004E2C0130C5000030C6004508CE004E084F
:1038A200031D552C0130CE009B314D239C3142012A
:1038B2006108CD006008CC004E08E6076608F400F7
:1038C2006508F50067089331C1239C319B314D2374
:1038D2009C3142014D08803AC2006108803A42029E
:1038E200031D752C60084C02031CD12C4201610897
:1038F200CD006008CC006608CB004E08E607003019
:10390200C3004E087F3CC200031CC3034308803A35
:10391200C40080304402031D902C66084202031842
:10392200FC1B1A2DFC1A1A2D42016608F4006508C8
:10393200F50067089331C1239C319B314D239C31A3
:1039420042014D08803AC2006108803A4202031DDA
:10395200AC2C60084C02031C1A2D42016608CB00F5
:103962006108CD006008CC006408031DC52C0A3034
:10397200F1006608AD3182259C31C200C3014208C4
:10398200C7004308C800C92C0130C7000030C80076
:103992004708CE004E08031D7E2C0130CE007E2C3F
:1039A20042016108CD006008CC00F92C4201660892
:1039B200CB006108CD006008CC006408031DEE2C2A
:1039C2000A30F1006608AD3182259C31C200C30184
:1039D2004208C9004308CA00F22C0130C900003075
:1039E200CA004908CE004E08031DF92C0130CE0052
:1039F2004E08E6024E0866020318FC1B1A2DFC1A3A
:103A02001A2D6608F4006508F50067089331C12392
:103A12009C319B314D239C3142014D08803AC200BA
:103A22006108803A4202031D182D60084C020318F7
:103A3200D72C42014B08E6006608F4006508F50041
:103A420067089331C123080042016708CB0064086C
:103A5200031D382D0A30F1006708AD3182259D31F2
:103A6200C200C3014208C5004308C6003C2D013014
:103A7200C5000030C6004508CE004E08031D432D88
:103A82000130CE009B314D239D3142016108CD00B2
:103A92006008CC004E08E7076608F4006508F500E8
:103AA20067089331C1239D319B314D239D314201E2
:103AB2004D08803AC2006108803A4202031D632D1C
:103AC20060084C02031CBF2D42016108CD00600852
:103AD200CC006708CB004E08E7070030C3004E0851
:103AE2007F3CC200031CC3034308803AC4008030F9
:103AF2004402031D7E2D670842020318FC1B082E98
:103B0200FC1A082E42016608F4006508F5006708F1
:103B12009331C1239D319B314D239D3142014D088B
:103B2200803AC2006108803A4202031D9A2D600861
:103B32004C02031C082E42016708CB006108CD002D
:103B42006008CC006408031DB32D0A30F100670839
:103B5200AD3182259D31C200C3014208C70043082E
:103B6200C800B72D0130C7000030C8004708CE009A
:103B72004E08031D6C2D0130CE006C2D42016108F0
:103B8200CD006008CC00E72D42016708CB00610838
:103B9200CD006008CC006408031DDC2D0A30F10062
:103BA2006708AD3182259D31C200C3014208C900B8
:103BB2004308CA00E02D0130C9000030CA0049089C
:103BC200CE004E08031DE72D0130CE004E08E7025D
:103BD2004E0867020318FC1B082EFC1A082E660802
:103BE200F4006508F50067089331C1239D319B31CC
:103BF2004D239D3142014D08803AC2006108803A4E
:103C02004202031D062E60084C020318C52D420114
:103C12004B08E7006608F4006508F5006708933171
:103C2200C1230800FF304201D1007F30D200FF30B3
:103C3200D3007F30D400A43103249E31A431582410
:103C42009E319B314D239E3142016308803AC80068
:103C520080304802031D2F2E79306202031C0800B7
:103C620042016108D0006008CF006708C9006608F9
:103C7200CA000330660203186A2E03306702031873
:103C82006A2EE601E7016608F4006508F500670898
:103C92009331C1239E31A43158249E31A43103248F
:103CA2009E319B314D239E3142016308803AC80008
:103CB20080304802031D5F2E79306202031C080027
:103CC20042016108D2006008D1006708CB00660893
:103CD200CC00033066020318972E033067020318E4
:103CE200972EE601E7016608F4006508F50067080B
:103CF2009331C1239E31A431AD249E319B314D239A
:103D02009E3142016308803AC80080304802031D98
:103D12008C2E79306202031C080042016108D40033
:103D22006008D3006708CD006608CE005208803ACA
:103D3200C8005008803A4802031DA12E4F085102C4
:103D4200031CB52E42015408803AC8005008803A3C
:103D52004802031DAE2E4F085302031CB52E42012A
:103D62004A08E6004908F22E42015008803AC8008B
:103D72005208803A4802031DC02E51084F02031C0C
:103D8200D42E42015408803AC8005208803A4802B0
:103D9200031DCD2E51085302031CD42E42014C08A0
:103DA200E6004B08F22E42015008803AC80054083F
:103DB200803A4802031DDF2E53084F02031CF32EE4
:103DC20042015208803AC8005408803A4802031D52
:103DD200EC2E53085102031CF32E42014E08E6005A
:103DE2004D08E7004201510A7F3003195206031DB4
:103DF200002F530A7F30031954060319080066087E
:103E0200F4006508F50067089331C1230800B70084
:103E1200161E0800AC3180249F317830A0310D206D
:103E22009F314030A0310D209F312C08A700370868
:103E3200A13113219F31BA012F083A020318882FAA
:103E42003A082D0784002E080318013E850012004F
:103E5200031D2D2FB601372F3A082D0784002E0897
:103E62000318013E85000008E03EB600BB0136089B
:103E7200B000B1013008F7003108F8000530F90050
:103E82000030FA00AD3108259F310030B200903089
:103E9200B30077083207B4007808333DB5003B0819
:103EA2003407840035080318013E85000008B80075
:103EB200023037060319632F38080F39AD31262532
:103EC2009F316E2F38080739AD3126259F31B0005A
:103ED2000230B035890B6A2F3008B9003908A03199
:103EE2000D209F313908A0310D209F310130BB07D1
:103EF20005303B02031C382F0030A0310D209F31CA
:103F02000030A0310D209F310130BA071D2F2C083F
:103F1200A7003708013EA13113219F31BA012F08B2
:103F22003A020318FD2F3A082D0784002E080318C1
:103F3200013E85001200031DA02FB601AA2F3A08E8
:103F42002D0784002E080318013E85000008E03E7C
:103F5200B600BB013608B000B1013008F7003108E5
:103F6200F8000530F9000030FA00AD3108259F3124
:103F72000030B2009030B30077083207B4007808FE
:103F8200333DB5003B083407840035080318013E71
:103F920085000008B800023037060319D82F380808
:103FA200B0000430B036890BD32F3008E02F380828
:103FB200B0000330B036890BDB2F30080F39AD313A
:103FC20026259F31B9003908A0310D209F313908CB
:103FD200A0310D209F310130BB0705303B02031C8D
:103FE200AB2F0030A0310D209F310030A0310D20C9
:0E3FF2009F310130BA07902FAC31182408001F
:10400200E7010130E600E5016608F4006508F50005
:1040120067089331C12308004001A500A6012508C5
:10402200A2000730A236890B132822080139A30007
:10403200A30DA30D16082306FB3923069600423072
:10404200890B21280032400196154230890B27281E
:104052000032400196112535A5000130A60708302F
:104062002602031C102816154230890B362800320E
:10407200400196150C0C890C0139A4004230890BC1
:1040820040280032400196114230890B4628003206
:10409200400124080800AC312B24A03130307107D4
:1040A2004401A0007530723DA1000030733DA200B2
:1040B2000030743DA3004001161E08004201EA11BF
:1040C200AC319924A031003099313B21A031A23189
:1040D200CB22A031430151084001BD0043015008E9
:1040E2004001BC00AE316526A0310F304301E30030
:1040F2002730E4000F305406273003195506031900
:10410200080055084001AD00430154084001AC00CD
:104112009431AD24080040019711AC01B830AD00D4
:10412200B030AE000930AF0002309F310827A03115
:10413200400119117C10A7310127A0314201630807
:104142004301D100420162084301D00042016308E9
:104152004301E600420162084301E500A0314C2020
:10416200A0314001191597157C13FC114201E90198
:10417200AC312B24A0317408BB007308BA0072085A
:10418200B9007108B800AC312B247408B700730869
:10419200B6007208B5007108B4000800A73179278B
:1041A200A0312408B0002508B100890D893B890996
:1041B200B200B30001309831AE20A0313308410182
:1041C200E100400132084101E000400131084101B3
:1041D200DF00400130084101DE0098312720A03184
:1041E2002408B0002508B100890D893B8909B20075
:1041F200B30001309831AE20A03133084101E5000F
:10420200400132084101E400400131084101E3006C
:10421200400130084101E2008031F720A031AC3189
:1042220006240800A8002708023EAB00AC31802417
:10423200A1317830A0310D20A131003A0319232990
:104242004201EA150030A0310D20A1312808B03E0C
:10425200A0310D20A13110302B02031834292B0874
:10426200A900AA0145292B08FB000430FB36890B63
:1042720037297B08AA00F030F1002A08AB31C323AA
:10428200A13140012B07A9002908A0310D20A1313D
:104292002A08103EA0310D20A131AC318024A13179
:1042A2007830A0310D20A1314030A0310D2008001E
:1042B2004001161E0800AC318024A1317830A031B3
:1042C2000D20A1314030A0310D20A131B301733056
:1042D200A7003308A1311321A131B2013308AC0088
:1042E200AD012C08F7002D08F8000B30F900003062
:1042F200FA00AD310825A1310030AE00B030AF0078
:1043020077082E07B00078082F3DB1003208300739
:10431200840031080318013E85000008A0310D20F9
:10432200A1310130B2070B303202031C6F29013078
:10433200B30704303302031C6829AC311824080087
:1043420000304105C90000304205CA0080304305F3
:10435200CB007F304405CC004C084B044A0449048E
:10436200031DBB290030C4000030C3000030C2006E
:104372000030C10000304505C90000304605CA00C2
:1043820080304705CB007F304805CC004C084B04F9
:104392004A044904031DD5290030C8000030C70073
:1043A2000030C6000030C50048084406031DE3295A
:1043B20047084306031DE32946084206031DE32975
:1043C200450841060319E7290310080003140800F1
:1043D2000030A7000030A6000030A5006430A40021
:1043E2003208F1003308F200890D893B8909F30094
:1043F200F4000030F8000030F7000030F600193009
:10440200F500AF312627A1317408AB007308AA006A
:104412007208A9007108A80087317C27A1312708FA
:10442200B7002608B6002508B5002408B400B71B5B
:10443200272A3708031D2D2A3608031D2D2A350881
:10444200031D2D2AC930340203182D2A40013508D4
:10445200B3003408B2000800C8304001B200003096
:10446200B30008007C18462A420167084301DA00BB
:10447200420166084301D900420165084301D800A0
:104482006608CD006508CC007C144201E701E60114
:10449200E5016608F4006508F50067089331C12359
:1044A200A2314001AC01C230AD00B030AE000930E3
:1044B200AF0002309F310827A23119304001BE00FF
:1044C2005A30BD00B130890B642ABD0B642ABE0B81
:1044D200642A00320530AD31A125A2314301D00159
:1044E200D1013C304001AC00F930AD00B030AE003B
:1044F2000430AF0002309F3108270800B600161EB4
:1045020008002C08A7003608A1311321A231B801F6
:104512002F0838020318C82A38082D0784002E08ED
:104522000318013E85000008E03EB700B9013708D4
:10453200B000B1013008F7003108F8000530F90089
:104542000030FA00AD310825A2310030B2009030BF
:10455200B30077083207B4007808333DB500390854
:104562003407840035080318013E85000008A03195
:104572000D20A2310130B90705303902031C982AF7
:104582000030A0310D20A2310130B807892AAC31A8
:10459200182408004001AC01EF30AD00B030AE008D
:1045A2000430AF0000309F310827A2316030400153
:1045B200AC000A30AD00B130AE00AF01AF0A00303E
:1045C2009F310827A231A1315921A2312A3040015D
:1045D200AC000630AD00B130AE00AF01AF0A003022
:1045E2009F310827A2317C18FB2AF4304001BC001D
:1045F200B030FF2AEA304001BC00B030BD00AC014F
:104602003D08AE003C08AD000430AF0002309F31DF
:104612000827A2312A304001AC000630AD00B1308B
:10462200AE00AF01AF0A02309F3108270800A70190
:10463200A31F222BA209A309A20A0319A30A01306C
:10464200A700A51F2B2BA409A509A40A0319A50AD3
:104652000130A706A801A901220823040319582B37
:104662000130A600A31B3D2B0130A235A30D890BFF
:10467200362B0130A607332B0130A835A90D890B43
:104682003E2B23082502031D482B22082402031C6B
:104692004F2B2208A4022308A53B28140130A3367D
:1046A200A20C890B502B0130A602031D3D2B2708BB
:1046B2000319602BA809A909A80A0319A90A29083C
:1046C200A3002808A20008007E01B801C301431418
:1046D200C3144315CE01E401D9015301901394137D
:1046E20040018C018D018E018F019001960197018D
:1046F20010309800063099009A01910127309200FB
:104702009301940195017E013A15BA15DB145B15EC
:1047120040019F121F179F131E16C0309C00E030ED
:104722009D004E018C1240019E174E0196161E30BE
:104732004F019600FE309700473098007F30990075
:1047420077309A00DF309B008B170530F2000F3074
:10475200F100F130890BAB2BF10BAB2BF20BAB2B36
:10476200000008004001C001C10150019318BD2B97
:104772004001C001C101D42B1318C42B9030400159
:10478200C000B030D32B131ACB2BD6304001C0005F
:10479200B030D32B931BCF2B131FD42BE03040010F
:1047A200C000B030C1003F305001930040014008CA
:1047B200410403190800AC014108AE004008AD00F5
:1047C2000930AF0002309F310827A3315230400137
:1047D200BF002B30BE000030890BED2BBE0BED2B42
:1047E200BF0BED2B00000530AD31A125A3314301F4
:1047F20051084001BD00430150084001BC00AE31E8
:10480200652608004201C5019B314D23A4314201B6
:104812006108C7006008C6000130E600192C420199
:104822006608C5006108C7006008C6000310E60DEF
:1048320041306602031CFC1B4D2CFC1A4D2C6608F1
:10484200F4006508F50067089331C123A4319B3158
:104852004D23A431420147084001B30042014608FA
:104862004001B200A131E921A431420146084001D0
:1048720032074201C20047084001333D4201C300F2
:104882004308803AC4006108803A4402031D4B2C5D
:10489200600842020318102C42014508E60066082F
:1048A200F4006508F50067089331C123080042014E
:1048B200C5019B314D23A43142016108C700600844
:1048C200C6000130E7006E2C42016708C50061088E
:1048D200C7006008C6000310E70D41306702031CE1
:1048E200FC1BA22CFC1AA22C6608F4006508F50039
:1048F20067089331C123A4319B314D23A431420176
:1049020047084001B300420146084001B200A1310C
:10491200E921A43142014608400132074201C200A6
:1049220047084001333D4201C3004308803AC400B6
:104932006108803A4402031DA02C60084202031859
:10494200652C42014508E7006608F4006508F50099
:1049520067089331C12308004201C7019B314D23EF
:10496200A43142016108C6006008C5000130E700B9
:10497200C32C42016708C7006108C6006008C50071
:104982000310E70D41306702031CFC1BF72CFC1AD5
:10499200F72C6708F4006508F50067089331C12316
:1049A200A4319B314D23A431420146084001B3009A
:1049B200420145084001B200A131E921A43142017E
:1049C2004508400132074201C20046084001333D1A
:1049D2004201C3004308803AC4006108803A44029D
:1049E200031DF52C600842020318BA2C4201470845
:1049F200E7004708E6006608F4006508F500670866
:104A02009331C12308003C083D04031D142D3C30A2
:104A1200AC00FE30AD00B030AE000330AF0000306D
:104A22009F310827080000303D020A3003193C027A
:104A320003182B2D3D08F9003C08F8002430FA0039
:104A4200A531BE25A53130304401AC002E30AD0079
:104A52002908512D00303D02643003193C0203182D
:104A62003E2D3D08F9003C08F8002430FA00A5313B
:104A7200BE25A53144012808262D0530BC0700308B
:104A8200BD3D3D08F9003C08F8002430FA00A5318C
:104A9200BE25A53120304401AC002708AD0028080E
:104AA200AE003C304001AC002C30AD000230AE0014
:104AB2000330AF0000309F310827080050010C106E
:104AC2008B1340019E134E018C1216167E01CA12E0
:104AD200C9164001161217169715C2014208031D86
:104AE200812D05304001C1000F30C000F130890B2B
:104AF200782DC00B782DC10B782D7E01CA12630070
:104B0200000005304001C1000F30C000F130890BB8
:104B1200882DC00B882DC10B882D40018D1A942D34
:104B22000130C207952DC20110304202031C6F2DC5
:104B32004E0116127E01C912CA1240019E178B172E
:104B42004201EA14A6318A26A53140018D1AAB2D05
:104B52006400A62D4201E901FC137C13FC128B13A5
:104B620043013F08B3003E08B2003D08B1003C08D3
:104B7200B0008B1750010C140800F91FC22D013030
:104B8200C32D0030A2002208031DCC2D7908A400F9
:104B92007808A300D72D7809A0007909A100A00AFE
:104BA2000319A10A2008A3002108A400A5017A087C
:104BB2002507860002308700203081000130A507DA
:104BC20006302502031CD82D7A08063E86000230E4
:104BD200870081010530A5007A082507860002308A
:104BE20087000A30F1000030F2002408F4002308A4
:104BF200F300AE310D26A5317108303E810001303F
:104C0200A5020A30F1000030F2002408F400230863
:104C1200F300AE31F426A5317208A4007108A30096
:104C220023082404031DED2D2208031908007A0825
:104C320025078600023087002D308100080003100E
:104C4200430D440D4001EE006E08031D322E00306C
:104C52004101C4000030C3000030C2000030C10076
:104C6200080041014108C5004208C6004308C700C8
:104C72004408C8001F30C836C70CC60CC50C890BC7
:104C82003C2E45084001ED004101C317FF30C1052C
:104C9200FF30C205FF30C3050030C4059630400125
:104CA200EE02EE1F672E6E08803A973E031C282EF6
:104CB20001304101C436C30CC20CC10C890B5A2EFF
:104CC20001304001EE0703197A2E592E20306E0270
:104CD2000318282E6E0803197A2E01304101C135BE
:104CE200C20DC30DC40D890B6F2E01304001EE02BF
:104CF2006B2E6D08031908004101C109C209C309DD
:104D0200C409C10A0319C20A0319C30A0319C40A4E
:104D120008004001161609304001BF001E30BE00D7
:104D2200E430890B922EBE0B922EBF0B922E000006
:104D3200AC319924A63168304001BE00E430890BC1
:104D4200A02EBE0BA02E0000AE31C326A63142011A
:104D5200EA1CB32EAF31C227A6314201EA10AD31AF
:104D6200E525A631A231CB22A6310F304301D40072
:104D72002730D5006430E5000030E6000F30E30054
:104D82002730E400D001D10151084001BD004301A8
:104D920050084001BC00AE316526A631AC312B244F
:104DA200A63101307107B8000030723DB900003001
:104DB200733DBA000030743DBB00AC312B24A631E8
:104DC2007408B7007308B6007208B5007108B40021
:104DD200AC312B24A631303071074401A00075306C
:104DE200723DA1000030733DA2000030743DA3006B
:104DF200FC137C13FC127C12FC11AC31532408000E
:104E02009B314D23A73142016308803AD60080309E
:104E12005602031D0E2F79306202031C0800AE31C8
:104E22009426A7319B314D23A73142016308803A72
:104E3200D60080305602031D202F79306202031CF7
:104E4200080042016108D8006008D7006608D9004E
:104E52006708DA006503031D302FE501322F0130A8
:104E6200E500AE319426A7319B314D23A731420193
:104E72005808803AD6006108803A5602031D432F33
:104E82006008570203185C2F42016503031D4B2F74
:104E9200E5014D2F0130E5005908E6005A08E70008
:104EA2006608F4006508F50067089331C123A7314D
:104EB2009B314D23A73142016308803AD6008030EE
:104EC2005602031D662F79306202031C0800AF31BF
:104ED2005827A7319B314D23A731E73042016206A3
:104EE200033003196306031D0800A03101200800E6
:104EF200203098310120A731A0300032890B7E2F5B
:104F02000830AB31D223A73172084001AB007108DF
:104F1200AA002A0A033003192B06031DA12F4030D1
:104F220098310120A731A0300032890B952F08302B
:104F3200AB31D223A73171354001AA00720DAB000B
:104F4200FE302A06073003192B06031DFB2F1030F3
:104F520098310120A731A0300032890BAD2F0830E3
:104F6200AB31D223A73172084001AB007108AA000D
:104F72002A0A033003192B06031DC12F42016A15A9
:104F8200AC31CF24A73140012A08F1002B08F200EE
:104F9200F301F40143015608F5005708F600890DA4
:104FA200893B8909F700F800AF312627A731740839
:104FB200AF007308AE007208AD007108AC002C0897
:104FC200A6002D08A7002E08A8002F08A9000A3065
:104FD200A936A80CA70CA60C890BE92F2908AF004B
:104FE2002808AE002708AD002608AC002D08AB004B
:0E4FF2002C08AA002B08A5002A08A40008001D
:10576A0010309831012008000130AF318A27080033
:10577A00640080010131890BBE2B0034F300F20171
:10578A00731CC92B7108F2070310F10D0310F30CF7
:10579A007308031DC52B72080800F3007308410142
:1057AA009E003530890BD72B0000410113141318C2
:1057BA00DC2B0D08F2000C08F1000800F6000F308F
:1057CA007605F4000A30F1007608F5000430F53663
:1057DA00890BEC2B7508AB31C32374070800013021
:1057EA00F1020030F23B710A0319720A0319080028
:1057FA000B30F3006230890B002CF30B002C0032C3
:10580A00F42B43015308803AF10080307102031DE2
:10581A00102C01305202031C08004001161E080019
:10582A00AC3153240800400116114230890B1B2C5D
:10583A000032400196154230890B212C003240017A
:10584A0016154230890B272C003208008B134301AE
:10585A003F08F8003E08F7003D08F6003C08F5004E
:10586A008B177808F4007708F3007608F2007508B9
:10587A00F10008000A340034003400340A340034D9
:10588A00003400340F3427346434003401340234D1
:10589A004034783401340234403478348B13430171
:1058AA002F08DE002E08DD002D08DC002C08DB00A6
:1058BA002B08E2002A08E1002908E0002808DF0096
:1058CA007C11FC108B170800F4007408031D6F2C60
:1058DA0000300800FF307407F100F10A8030F2004E
:1058EA000030F3007B2C730DF30CF20CF10B782CC7
:1058FA007208003C0800400196154230890B832C3F
:10590A000032400116154230890B892C00324001C1
:10591A0016114230890B8F2C003240019611423009
:10592A00890B952C0032080040011615F101AD2CA7
:10593A0040010C19B12C96114230890BA22C00326D
:10594A00400196154230890BA82C00320130F1072C
:10595A0009307102031C9D2CAC3118240800FB008D
:10596A004001161E0800AC318024AC317830A031D9
:10597A000D20AC31003A0319C42C4201EA158030DB
:10598A00A0310D20AC317B08A0310D20AC31AC31F7
:10599A0018240800203098310120AC31A0300032A0
:1059AA00890BD42C0930AB31D223AC317208F80000
:1059BA007108F7000B30F9000030FA00AD31082504
:1059CA0078084301D7007708D60008008030BC0663
:1059DA004008B0003F08AF003E08AE003D08AD00E9
:1059EA003C08B4003B08B3003A08B2003908B100D9
:1059FA008B3189233008BC002F08BB002E08BA005F
:105A0A002D08B90008004001A001A101771C122D40
:105A1A0079084001A0077A08A13D0130F935FA0D4D
:105A2A00890B132D0130F836F70C890B182D7708DE
:105A3A007804031D0B2D40012108F8002008F70007
:105A4A000800F200F301F4017208F100740A2E2D25
:105A5A00F136890B2D2D711C3C2D0330F100743564
:105A6A00890A382DF135890B372D7108F304013075
:105A7A00F40704307402031C292D73080800AD31A1
:105A8A00E525AD314001AC018230AD00B030AE0049
:105A9A000B30AF0001309F310827AD315230400141
:105AAA00C4002B30C3000030890B592DC30B592D6C
:105ABA00C40B592D0000A5315F250800F900F50136
:105ACA00F6017108F300F4017308F7007408F8008E
:105ADA00791C732D7708F5077808F63D0130F735FC
:105AEA00F80D890B742D0310F90C7908031D6D2D1F
:105AFA007608F2007508F1000800F200F401710856
:105B0A0003199F2D0130F300F11B902D0310F10DA5
:105B1A000130F307892D0310F40D71087202031C7A
:105B2A009A2D7108F20274140310F10C0130F30279
:105B3A00031D902D740808004001BC007C1CAA2D8E
:105B4A00AC01A430AD00B030AE2DAC01AE30AD002A
:105B5A00B030AE003C08AF0002309F310827AD31AB
:105B6A002A304001AC000630AD00B130AE00AF01C2
:105B7A00AF0A02309F31082708009711161619112B
:105B8A007C109B314D23AD3142016308803ADB0022
:105B9A0080305B02031DD32D64306202031CD72DB3
:105BAA00A731012740011915420163084301D100B9
:105BBA00420162084301D00040019715FC11080018
:105BCA004001161E0800AC318024AD317830A03176
:105BDA000D20AD314030A0310D20AD31AD01A7010E
:105BEA002D08A1311321AD31AC010130AC070030D1
:105BFA00A0310D20AD3180302C02031CFA2D01306A
:105C0A00AD0708302D02031CF42DAC31182408000E
:105C1A00710872040319322E0130F500F21B1D2E91
:105C2A000130F135F20D890B162E0130F507132ECE
:105C3A0072087402031D232E71087302031C292E95
:105C4A007108F3027208F43B0130F236F10C890B49
:105C5A002A2E0130F502031D1D2E7408F200730866
:105C6A00F10008007C1043015A084201E700430191
:105C7A0059084201E600430158084201E500660856
:105C8A00F4006508F50067089331C123AE3143017A
:105C9A004D08E6004C08E5000530AD31A125AE31CE
:105CAA004301D001D1013C304001AC00F930AD00D4
:105CBA00B030AE000430AF0002309F310827080030
:105CCA003C083D04031D752E3C30AC00F930AD0094
:105CDA00B030AE000430AF0002309F310827080010
:105CEA003D08F9003C08F8002430FA00A531BE2529
:105CFA00AE3144012708AC002E30AD002808AE00B2
:105D0A002908AF003C304001AC002C30AD00023015
:105D1A00AE000430AF0002309F310827080042016C
:105D2A00E601E7016608F4006508F50067089331A3
:105D3A00C123AE319B314D23AE3142016308803A13
:105D4A00D50080305502031DAC2E79306202031C47
:105D5A0008009E311326AE319B314D23AE314201EC
:105D6A006308803AD50080305502031DBE2E793073
:105D7A006202031C0800AF31582708004001B00135
:105D8A00AC318024AE317830A0310D20AE31003AEA
:105D9A000319E62EAC311824AE310D304001AF00A4
:105DAA002D30AE00D730890BD82EAE0BD82EAF0BC4
:105DBA00D82E003201304001B0070A303002031CED
:105DCA00C52EAC311824AE31013099313B21AE31A8
:105DDA00AD31E525AE31AF30AC31B4240800F6015F
:105DEA00F701710872040319212F0130F500F21B23
:105DFA00062F0130F135F20D890BFF2E0130F50720
:105E0A00FC2E0130F635F70D890B072F7208740244
:105E1A00031D112F71087302031C182F7108F30256
:105E2A007208F43B76140130F236F10C890B192F03
:105E3A000130F502031D062F7708F2007608F100FB
:105E4A00080000304001A3000030A2000030A10089
:105E5A000030A000711C3A2F75084001A00776088F
:105E6A00A13D7708A23D7808A33D0130F535F60D2E
:105E7A00F70DF80D890B3B2F0130F436F30CF20CB9
:105E8A00F10C890B422F7408730472047104031D08
:105E9A002F2F40012308F4002208F3002108F20002
:105EAA002008F10008004201E401D101812F6608AF
:105EBA00CF006708D00067086602031C6B2F9C316D
:105ECA003724AF319D312525AF31712F9D312525DD
:105EDA00AF319C313724AF31420166084F06031DAA
:105EEA007F2F67085006031D7F2F6408031D882F24
:105EFA000130E4000130D10704305102031CFC1BBD
:105F0A00882FFC1E5C2FE40108004001C100971194
:105F1A007C1C962F41080319962FAE313726AF31D4
:105F2A00992FA2313322AF310D304001C0002D30FC
:105F3A00BF00D730890B9F2FBF0B9F2FC00B9F2FFE
:105F4A00003240019715FC137C124201E901AC3181
:105F5A002B24AF317408BB007308BA007208B90069
:105F6A007108B800AC312B247408B7007308B60066
:105F7A007208B5007108B400080040019711AD31EC
:105F8A00E525AF314001AC016230AD00B030AE0062
:105F9A001230AF000130A2317F22AF314001AC0193
:105FAA007530AD00B030AE000C30AF000330A23116
:105FBA007F22AF3154304001AC000230AD00B13025
:105FCA00AE000330AF000330A2317F22AF317A3006
:105FDA004001BB00C130BA008130890BF22FBA0BE5
:105FEA00F22FBB0BF22F003240018D1AFE2F6400F4
:105FFA00F92F97150800F834F8341F341F34033486
:10600A00033403341F341F34F834F834FF34FF34B4
:10601A000034003400340034003400340034FF34D7
:10602A00FF34FF34FF3400340034003400340034C9
:10603A0000340034FF34FF34FF34FF34C034C0343A
:10604A00C034C034C034C034C034FF34FF34F834F0
:10605A00F8341F341F340334033403341F341F3419
:10606A00F834F834FF34FF34003400340034003498
:10607A00003400340034FF34FF34FF34FF3400347A
:10608A00003400340034003400340034FF34FF3468
:10609A00FF34FF34C034C034C034C034C034C034D8
:1060AA00C034FF34FF340534303407341034153427
:1060BA001334013404341434603420344434453401
:1060CA005334493447344E3445344434203442340A
:1060DA00593420344E34373444344434433400344D
:1060EA0020344634573420345634453452345334E9
:1060FA0049344F344E3420340034203450344F3431
:10610A0057344534523420344F34463446342034DC
:10611A000034203420344C344F3457342034423441
:10612A00413454345434203400342034203420345C
:10613A0020342034203420342034203400344234B3
:10614A00593450342034203420342034203420343C
:10615A000034533457345234203420342034203419
:10616A00203420340034543455344E3445342034E9
:10617A00203420342034203400344234593450340A
:10618A0041345334533420342034203400344F34CF
:10619A005634453452344C344F3441344434203428
:1061AA00003457344434543420345234453453344C
:1061BA0045345434003453345434413443344B3426
:1061CA002034523453345434003442345934503421
:1061DA002034003450345734523420340034533489
:1061EA00573452342034003430342E34303430347E
:1061FA00003430342E343034003431342E343834D0
:0E620A0000343D3400343E3400345734003448
:020000040001F9
:0A000E008C3FBD3DAD07FF3FFF3FF3
:00000001FF
