:040000008031D32850
:100008007E14803100308600003087004E018C1E3F
:10001800D1288C1201304301AC070030AD3DAE3D14
:10002800AF3D5808570456045504031927280130D2
:10003800D5020030D63BD73BD83B58085704560466
:10004800550403197C155C085B045A045904031908
:1000580039280130D9020030DA3BDB3BDC3B5C0855
:100068005B045A0459040319FC14C03040019C0075
:10007800E0309D0044012F0843012F02031D54283E
:1000880044012E0843012E02031D542844012D0863
:1000980043012D02031D542844012C0843012C025E
:1000A800031CD1280A304401AC070030AD3DAE3DF9
:1000B800AF3D40018F186228013063280030F000FE
:1000C8008D1A682801306928003070040038031937
:1000D800802843012B08D8002A08D7002908D60011
:1000E8002808D5002708DC002608DB002508DA00E8
:1000F8002408D9007C11FC1040018D1A9F28FA3081
:100108004301540203188A280130D40719305406D1
:1001180003197C174001160E0139F000FA3043012B
:100128005406031D992801309A28003070050319D8
:10013800AA28FC16AA28033043015402031CA92844
:10014800193054020318A928FC17D40140018F184C
:10015800C6281930430153020318B4280130D307C5
:1001680040010F0C890C0139F0001430430153068B
:10017800031DC0280130C128003070050319D1289B
:10018800FC15D128023043015302031CD0280A3041
:1001980053020318D0287C16D3017E100900803141
:1001A800D528C030840093308500D53086000130D2
:1001B80087001830B731B9278031FC014301ED01C0
:1001C8004201E801E901EA01A0308400013085001C
:1001D8003530B731B32780312030840002308500B4
:1001E8002830B731B3277E1040019431982C443021
:1001F8004001C1007A30C0000030BF000030BE00AE
:10020800410161084001C500410160084001C40086
:1002180041015F084001C30041015E084001C2007E
:1002280088318020803141084101E10040014008C7
:100238004101E00040013F084101DF0040013E0864
:100248004101DE0044304001C1007A30C000003076
:10025800BF000030BE00410165084001C5004101F2
:1002680064084001C400410163084001C300410122
:1002780062084001C2008831802080314108410174
:10028800E500400140084101E40040013F08410108
:10029800E30040013E084101E20061084001DB0043
:1002A800410160084001DA0041015F084001D900BE
:1002B80041015E084001D800430123084001DF00E6
:1002C800430122084001DE00430121084001DD000E
:1002D800430120084001DC008D31722580315B0824
:1002E8004201AB0040015A084201AA0040015908E6
:1002F8004201A900400158084201A80041016108D3
:100308004001DB00410160084001DA0041015F085B
:100318004001D90041015E084001D800440123088A
:100328004001DF00440122084001DE0044012108A9
:100338004001DD00440120084001DC008D317225B8
:1003480080315B084101B00040015A084101AF000B
:10035800400159084101AE00400158084101AD0073
:1003680061084001DB00410160084001DA004101F9
:100378005F084001D90041015E084001D8004201F0
:100388002B084001DF0042012A084001DE0042013B
:1003980029084001DD00420128084001DC008D31B8
:1003A800722580315B084101B40040015A084101BF
:1003B800B300400159084101B20040015808410109
:1003C800B1008B31892380313008E1002F08E0002B
:1003D8002E08DF002D08DE0065084001DB00410122
:1003E80064084001DA00410163084001D900410175
:1003F80062084001D800430123084001DF0043019F
:1004080022084001DE00430121084001DD004301CC
:1004180020084001DC008D31722580315B084201E3
:10042800AB0040015A084201AA00400159084201A4
:10043800A900400158084201A8004101650840018F
:10044800DB00410164084001DA0041016308400112
:10045800D900410162084001D80044012308400145
:10046800DF00440122084001DE0044012108400168
:10047800DD00440120084001DC008D317225803107
:100488005B084101B00040015A084101AF0040013A
:1004980059084101AE00400158084101AD00650806
:1004A8004001DB00410164084001DA0041016308B2
:1004B8004001D900410162084001D80042012B08DF
:1004C8004001DF0042012A084001DE0042012908FC
:1004D8004001DD00420128084001DC008D31722511
:1004E80080315B084101B40040015A084101B30062
:1004F800400159084101B200400158084101B100CA
:100508008B31892380313008E5002F08E4002E085C
:10051800E3002D08E20061084001DF0041016008A6
:100528004001DE0041015F084001DD0041015E0835
:100538004001DC004130DB002030DA000030D90017
:100548000030D8008D31722580315B084101B4003C
:1005580040015A084101B300400159084101B20065
:10056800400158084101B1003F30B0000030AF00F1
:100578000030AE000030AD008B3189238031300867
:10058800C4002F08C3002E08C2002D08C100A331E3
:10059800EB238031410142084301C7004101410872
:1005A8004301C60041016508C4006408C30063082C
:1005B800C2006208C1006108C8006008C7005F087F
:1005C800C6005E08C500883105208031031CF02A6A
:1005D8004301B001B101592B6108C0006008BF0098
:1005E8005F08BE005E08BD006508BC006408BB006B
:1005F8006308BA006208B900A831F82080313C08C5
:100608004001DF0041013B084001DE0041013A089A
:100618004001DD00410139084001DC004130DB00C8
:100628002030DA000030D9000030D8008D31722532
:1006380080315B084201A30040015A084201A20030
:10064800400159084201A100400158084201A00098
:1006580023084101B400420122084101B3004201CC
:1006680021084101B200420120084101B1003F3098
:10067800B0000030AF000030AE000030AD008B316C
:10068800892380313008C4002F08C3002E08C20017
:100698002D08C100A331EB238031410142084301F9
:1006A800B100410141084301B00000304101C400DC
:1006B8000030C3000030C2000030C1006108C8002B
:1006C8006008C7005F08C6005E08C50088310520BD
:1006D80080310318842B6508C4006408C3006308CC
:1006E800C2006208C1006108C8006008C7005F084E
:1006F800C6005E08C500883105208031031C8A2B9E
:1007080010304301B2002730B300EC2B65084001DC
:10071800C500410164084001C4004101630840016B
:10072800C300410162084001C20041016108400163
:10073800C100410160084001C00041015F0840015B
:10074800BF0041015E084001BE0088318020803131
:100758004108DF004008DE003F08DD003E08DC00FD
:100768004630DB001C30DA004030D9000030D800B9
:100778008D31722580315B084101B40040015A086F
:100788004101B300400159084101B2004001580835
:100798004101B1003F30B0000030AF000030AE0082
:1007A8000030AD008B31892380313008C4002F0818
:1007B800C3002E08C2002D08C100A331EB238031ED
:1007C800410142084301B300410141084301B2001D
:1007D8004708803AFB003B08803A7B02031DF62B52
:1007E8003A0846020318FC2B4301C401C50108005E
:1007F80041016508C4006408C3006308C2006208B8
:10080800C1006108C8006008C7005F08C6005E082C
:10081800C500883105208031031C182CE7304301BE
:10082800C4000330C500080061084001C10041014F
:1008380060084001C00041015F084001BF0041015C
:100848005E084001BE00410165084001C500410144
:1008580064084001C400410163084001C30041012C
:1008680062084001C200883180208031410842017D
:10087800A700400140084201A60040013F0842018C
:10088800A50040013E084201A40027084101D0000C
:10089800420126084101CF00420125084101CE004E
:1008A800420124084101CD009631C9268031500803
:1008B8004201AF0041014F084201AE0041014E081C
:1008C8004201AD0041014D084201AC003F304101F9
:1008D800C0008030BF000030BE000030BD004201C3
:1008E8002F084101BC0042012E084101BB00420112
:1008F8002D084101BA0042012C084101B900A83174
:10090800F82080313C08C4003B08C3003A08C20004
:100918003908C1000030C8000030C7000030C600E8
:100928000030C500AD3158258031031CA42C3A3065
:100938004201AF008330AE001230AD006F30AC0022
:1009480042012F084101BC0042012E084101BB00B1
:1009580042012D084101BA0042012C084101B900A9
:100968003F30C0008030BF000030BE000030BD0006
:10097800A831F82080313C084001C10041013B0802
:100988004001C00041013A084001BF004101390857
:100998004001BE003F304101B0008030AF00003060
:1009A800AE000030AD0042012F084101B400420101
:1009B8002E084101B30042012D084101B200420155
:1009C8002C084101B1008B31892380313008400166
:1009D800C50041012F084001C40041012E08400113
:1009E800C30041012D084001C200883180208031B8
:1009F80041084201AF00400140084201AE004001F9
:100A08003F084201AD0040013E084201AC002F08FA
:100A18004101C40042012E084101C30042012D08D2
:100A28004101C20042012C084101C1003F30C80009
:100A38008030C7000030C6000030C500883105206E
:100A480080310318302D3F304201AF008030AE00B6
:100A58000030AD000030AC0041304101C4001F300F
:100A6800C300C230C2008F30C10042012F084101CB
:100A7800C80042012E084101C70042012D0841016A
:100A8800C60042012C084101C5008831052080318B
:100A9800031C122C42012F084001DF0042012E08DE
:100AA8004001DE0042012D084001DD0042012C0812
:100AB8004001DC004230DB00C830DA000030D900E9
:100AC8000030D8008D31722580315B084101B400B7
:100AD80040015A084101B300400159084101B200E0
:100AE800400158084101B1003F30B0000030AF006C
:100AF8000030AE000030AD008B31892380313008E2
:100B0800C4002F08C3002E08C2002D08C100A3315D
:100B1800EB23410142084301C5004101410843015B
:100B2800C4000800430136089C3E4401C800FF3059
:100B38004301373D4401C90003304201E400083055
:100B4800E3007730890BA62DE30BA62DE40BA62D29
:100B58004401CC01CD01CE01CF01CA01CB014B0824
:100B6800803A4201E30043013508803A42016302BA
:100B7800031DC22D4301340844014A020318F82D0D
:100B8800AC318624853144014D08803A4201E300A6
:100B980043014708803A42016302031DD72D4301F0
:100BA800460844014C020318E92D43014708440153
:100BB800CD00430146084401CC00430145084401E7
:100BC800CF00430144084401CE000B304201E3004A
:100BD8006230890BED2DE30BED2D0000013044014F
:100BE800CA070030CB3DB32D44014D08803A42017D
:100BF800E30080306302031D042E013044014C02DF
:100C0800031C112E4001161E0D2EA83160208531BF
:100C1800102EA531632585316D1643015E08440108
:100C28004D06031D1B2E43015D0844014C060319A4
:100C3800472E43016D1D272E2A304001AC00953008
:100C4800AD00B8302D2E2A304001AC009330AD00F5
:100C5800B830AE00AF01AF0A00309931C5218531F7
:100C680044014D084301DE0044014C084301DD0006
:100C780044014D084001BD0044014C084001BC003E
:100C8800A031DC20853144014F08803A4201E3005D
:100C980080306302031D532E643044014E02031C4E
:100CA800902E4301430844014F06031D5F2E430164
:100CB800420844014E060319902E4F084301C30011
:100CC80044014E084301C20044014D08803A4201E4
:100CD800E30043013B08803A42016302031D782E7A
:100CE80043013A0844014C020318852E4301430886
:100CF8004001BD00430142084001BC00AA316722FF
:100D08000800430143084001BD0043014208400177
:100D1800BC00AA316722853143016D1DF32E0330D3
:100D28004401CA000030CB0006304001AC00573007
:100D3800AD00B830AE000930AF0002309931C5219E
:100D4800853115304201E4004B30E300BE30890B99
:100D5800AB2EE30BAB2EE40BAB2E00004001AC0135
:100D68002530AD00B830AE000930AF0002309931FF
:100D7800C521853115304201E4004B30E300BE3017
:100D8800890BC42EE30BC42EE40BC42E0000FF30E5
:100D98004401CA07FF30CB3D4A084B04031D982E77
:100DA800093098310020853144014F084001BD00C9
:100DB80044014E084001BC00AA3167228531153034
:100DC8004201E4004B30E300BE30890BE92EE30B0F
:100DD800E92EE40BE92E000043016D1108006D1C9B
:100DE80008007C18080044014D08803A4201E300DD
:100DF80043013B08803A42016302031D072F430168
:100E08003A0844014C02031C080044014D08803A8A
:100E18004201E30043013908803A42016302031D9D
:100E2800192F4301380844014C02031808004401F3
:100E38004F08803A4201E30080306302031D272FE8
:100E4800793044014E02031C080043015F08440145
:100E58004E024201E3004301600844014F3B420156
:100E6800E40044014908803A4201E5006408803AF8
:100E78006502031D422F630844014802031C7E2FAC
:100E880044014E0843015F024201E30044014F0858
:100E98004301603B4201E40044014908803A4201B1
:100EA800E5006408803A6502031D5D2F630844016C
:100EB8004802031C7E2FE7304201E3000330E400C0
:100EC8004401480842016302E5004401490842011F
:100ED800643BE6006608803AE70044014F08803A20
:100EE80042016702031D7C2F44014E08420165023E
:100EF80003180800A33184230800AD01A71F912F10
:100F0800A409A509A609A709A40A0319A50A03198A
:100F1800A60A0319A70A0130AD00AB1FA02FA80924
:100F2800A909AA09AB09A80A0319A90A0319AA0A4F
:100F38000319AB0A0130AD060030B1000030B00033
:100F48000030AF000030AE00270826042504240432
:100F58000319E72F0130AC00A71BBC2F0130A435C3
:100F6800A50DA60DA70D890BB32F0130AC07B02F27
:100F78000130AE35AF0DB00DB10D890BBD2F27086F
:100F88002B02031DD12F26082A02031DD12F250865
:100F98002902031DD12F24082802031CDC2F240852
:100FA800A8022508A93B2608AA3B2708AB3B2E1414
:100FB8000130A736A60CA50CA40C890BDD2F013037
:100FC800AC02031DBC2F2D080319F52FAE09AF097C
:100FD800B009B109AE0A0319AF0A0319B00A031917
:100FE800B10A3108A7003008A6002F08A5002E086E
:040FF800A400080049
:101002000030AB318F23080000304105C9000030A9
:101012004205CA0080304305CB007F304405CC0036
:101022004C084B044A044904031D1F280030C40025
:101032000030C3000030C2000030C100003045055E
:10104200C90000304605CA0080304705CB007F301A
:101052004805CC004C084B044A044904031D3928B6
:101062000030C8000030C7000030C6000030C500A4
:10107200C41F53280030C9000030CA000030CB0022
:101082008030CC004108C9024208CA3B4308CB3B2E
:101092004408CC3B4C08C4004B08C3004A08C200B9
:1010A2004908C100C81F6D280030C9000030CA00BD
:1010B2000030CB008030CC004508C9024608CA3B4C
:1010C2004708CB3B4808CC3B4C08C8004B08C7003C
:1010D2004A08C6004908C5008030C4068030C806E8
:1010E20048084402031D080047084302031D080084
:1010F20046084202031D080045084102080045084F
:101102008039CF004535D600C41B56145608031942
:101112009828560A031D95280030C5000030C400E7
:101122000030C3000030C200C417C501A02800303F
:10113200C5000030C4000030C3000030C2004108C6
:101142008039CF064135D700C01B57145708031901
:10115200B828570A031DB5280030C1000030C0006E
:101162000030BF000030BE00C017C101C0280030EF
:10117200C1000030C0000030BF000030BE00410896
:1011820040043F043E04031DDD280030C50000304A
:10119200C4000030C3000030C2008030C4047F307D
:1011A200C5044F08C5044508C1004408C0004308EF
:1011B200BF004208BE0008005608031DE92800309F
:1011C200C1000030C0000030BF000030BE00080087
:1011D2005608C600C7014708C90057084602C8009A
:1011E200031CC90348087F3ED0000030493DD100AE
:1011F2004508CE004408CD004308CC004208CB008D
:101202000030C5000030C4000030C3000030C2000E
:101212000030D5000030D4000030D3000030D200BE
:10122200D7011A30570203184C29570803193029DD
:101232000130CB35CC0DCD0DCE0D890B1A290130E5
:10124200C235C30DC40DC50D890B2129D51B42140E
:101252000130D235D30DD40DD50D890B2A29410881
:101262004E02031D3E2940084D02031D3E293F0840
:101272004C02031D3E293E084B02031C4929551707
:101282003E08CB023F08CC3B4008CD3B4108CE3B59
:101292000130D70712294E084D044C044B04031D9C
:1012A2005214C41B69290130C235C30DC40DC50DCA
:1012B200890B5529D51B42140130D235D30DD40DDB
:1012C200D50D890B5E29FF30D007FF30D13D522961
:1012D200D701D51F8229FF305205C600FF305305C2
:1012E200C700FF305405C8007F305505C9004908C2
:1012F2004804470446040319421880298229013010
:10130200D70057080319A9290130C2070030C33D8D
:10131200C43DC53D451CA9294208C6004308C70073
:101322004408C8004508C9000130CA00C937C80CC2
:10133200C70CC60CCA0B97294908C5004808C40047
:101342004708C3004608C2000130D0070030D13D33
:101352005108803AC60080304602031DB229FF3090
:101362005002031CC129FF304001D0000030D100DF
:101372000030C5000030C4000030C3000030C2009D
:1013820040015108803AC60080304602031DCB2935
:10139200013050020318D9294001D001D101003097
:1013A200C5000030C4000030C3000030C200CF01CD
:1013B20040015008D600561CE029C417E2297F30AC
:1013C200C4055608C6000130C636890BE529460811
:1013D200C500D2284101C7014708BD3E86008701EA
:1013E2004708583E8400B0300318013E85000008CB
:1013F20081000130C7070A304702031CED293D086E
:10140200A831032089314101B900BA01BB01BC01F5
:101412003C084301AB0041013B084301AA004101E2
:101422003A084301A900410139084301A8000030EC
:10143200F4000030F300EA30F2006030F1002B08D3
:10144200F8002A08F7002908F6002808F500AB3151
:101452002A23893174084301AB007308AA00720879
:10146200A9007108A80041013E08A8310320893172
:101472004101B900BA01BB01BC013C084301A7000C
:1014820041013B084301A60041013A084301A5007E
:10149200410139084301A4000030F4000030F30098
:1014A200EA30F2006030F1002708F8002608F70061
:1014B2002508F6002408F500AB312A238931740887
:1014C2004301A7007308A6007208A5007108A400D2
:1014D20041013F08A831032089314101B900BA0115
:1014E20039084301BC0041013A084301BD004101F2
:1014F2004008A831032089314101B900BA013908F5
:101502004301BA0041013A084301BB0041014108CD
:10151200A831032089314101B900BA013908F70025
:101522003A08F8000A30F9000030FA00A9313221F5
:10153200893178084301B9007708B80041014208AF
:10154200A831032089314101B900BA013908F700F5
:101552003A08F8000A30F9000030FA00A9313221C5
:10156200893178084301B7007708B6004101430882
:10157200A83103208931003A0319C22A43016D14AC
:10158200C42A43016D1041304001C1002030C00027
:101592000030BF000030BE0041014408A8310320E2
:1015A20089314101B900BA01BB01BC013C084001CB
:1015B200B30041013B084001B20041013A08400139
:1015C200B100410139084001B0000130A531EE25DA
:1015D20089313308C5003208C4003108C30030081D
:1015E200C20088318020893141084401A3004001B2
:1015F20040084401A20040013F084401A10040010B
:101602003E084401A0003F304101B0008030AF00ED
:101612000030AE000030AD0042304001C100C830A1
:10162200C0000030BF000030BE0041014508A831B3
:10163200032089314101B900BA01BB01BC013C0858
:101642004001B30041013B084001B20041013A08A8
:101652004001B100410139084001B0000130A5311B
:10166200EE2589313308C5003208C4003108C300B1
:101672003008C20088318020893141084101B4001C
:10168200400140084101B30040013F084101B2005E
:1016920040013E084101B1008B3189238931300874
:1016A2004301A30041012F084301A20041012E087A
:1016B2004301A10041012D084301A0000630400171
:1016C200A2000030A30041014608A831032089315D
:1016D2004101B900BA013908F7003A08F8000A30A6
:1016E200F9000030FA00A931322189317808A500C9
:1016F2007708A400AF31172723084301B500400142
:1017020022084301B4003D08C1003C08C0000800A3
:1017120030088039B5003035B700AF1B37143708B1
:101722000319A12B370A031D9E2B0030B000003095
:10173200AF000030AE000030AD00AF17B001A92BF2
:101742000030B0000030AF000030AE000030AD001D
:1017520034088039B60036083506031D351734358E
:10176200B600B31B361436080319C52B360A031DFF
:10177200C22B0030B4000030B3000030B2000030A1
:10178200B100B317B401CD2B0030B4000030B30068
:101792000030B2000030B100370836020318F32BD4
:1017A200351FD52B8030B5063708B8003608B7008C
:1017B2003808B6002D08B8003108AD003808B1006D
:1017C2002E08B8003208AE003808B2002F08B80060
:1017D2003308AF003808B3003008B8003408B0004E
:1017E2003808B400B80136084001E500E601660891
:1017F200E8004101370840016502E700031CE803E5
:101802006808803AE90080306902031D0A2C1A3008
:101812006702031C422C410130082F042E042D04C0
:101822000319152C0130162C0030B8000030B0001E
:101832000030AF000030AE000030AD003608B70017
:10184200472C381C302C38084001E5000130E536C1
:10185200890B282C650801384101B800322C03108D
:10186200B80C2D18B81701304001E5004101B0371E
:10187200AF0CAE0CAD0C4001E50B372C0130410131
:10188200B707410136083702031C222C351B802C76
:101892003708031D552C0030B0000030AF00003077
:1018A200AE000030AD0008003108AD073208AE3D91
:1018B2003308AF3D3408B03D301C0D2D381C6D2C63
:1018C20038084001E5000130E536890B652C6508D2
:1018D20001384101B8006F2C0310B80C2D18B8174D
:1018E20001304001E5004101B037AF0CAE0CAD0C48
:1018F2004001E50B742C01304101B7070D2D300872
:10190200803A4001E50041013408803A4001650215
:101912004101031D962C33082F02031D962C320819
:101922002E02031D962C31082D020318DB2CFF30EA
:101932004001E500FF30E600FF30E700FF30E8003D
:1019420041012D0831024001E90041012E08323BDC
:101952004001EA0041012F08333B4001EB00410105
:101962003008343B4001EC006908E5076A08E63DAF
:101972006B08E73D6C08E83D68084101B000400192
:1019820067084101AF00400166084101AE00400115
:1019920065084101AD008030B5063803FF3AB80052
:1019A2003808031DE32C0130AD070030AE3DAF3DDA
:1019B200B03DE32C3108AD023208AE3B3308AF3BF9
:1019C2003408B03B30082F042E042D04031D0B2DC8
:1019D2003808031D0B2D0030B0000030AF0000307E
:1019E200AE000030AD0008000130AD35AE0DAF0DD8
:1019F200B00D890BF62CB81B2D14381C042D0314C2
:101A0200380DB800062D0310B80D370803190B2D39
:101A12000130B702AF1FF52CB601B81F182D3808D8
:101A22007F3903192D18162D182D0130B6003608EE
:101A320003194E2D0130AD070030AE3DAF3DB03D34
:101A4200301C4E2D2D084001E50041012E084001B9
:101A5200E60041012F084001E70041013008400142
:101A6200E8000130E900E837E70CE60CE50CE90B89
:101A7200342D68084101B000400167084101AF0000
:101A8200400166084101AE00400165084101AD0018
:101A9200370A03194E2D0130B707370A031D3708DD
:101AA200031D5E2D0030B0000030AF000030AE00EC
:101AB2000030AD0037080319B501371C622DAF178E
:101AC200642D7F30AF0537084001E5000130E5366F
:101AD200890B682D65084101B000B51F0800B017D9
:101AE20008005B0880394101A00040015B354101DB
:101AF200A2004001DA1F7F2D410122144101220878
:101B02000319922D220A031D8F2D00304001DB00A4
:101B12000030DA000030D9000030D8004001DA1776
:101B22009B2D00304001DB000030DA000030D9008C
:101B32000030D8005F0880394101A00640015F35BE
:101B42004101A1004001DE1FA82D410121144101E4
:101B520021080319BB2D210A031DB82D00304001B5
:101B6200DF000030DE000030DD000030DC0040012C
:101B7200DE17C42D00304001DF000030DE000030EF
:101B8200DD000030DC0041012108031D2208031D95
:101B9200D42D00304001DB000030DA000030D900E3
:101BA2000030D800080040015808F1005E08A93151
:101BB2008D218D3172084101AC007108AB002B08F8
:101BC2004001E000E101E201E30163084101A600F6
:101BD200400162084101A500400161084101A400E1
:101BE200400160084101A3002C084001E000E1012E
:101BF200E201E30163084101AA00400162084101D8
:101C0200A900400161084101A800400160084101AA
:101C1200A70040015908F1005D08A9318D218D31DD
:101C220072084101AC007108AB002B084001E000D2
:101C3200E101E201E30160084101A30740016108FB
:101C42004101A43D400162084101A53D40016308F4
:101C52004101A63D2C084001E000E101E201E3015F
:101C620060084101A707400161084101A83D400108
:101C720062084101A93D400163084101AA3D4001BA
:101C82005A08F1005C08A9318D218D317208410199
:101C9200AC007108AB002B084001E000E101E20159
:101CA200E30160084101A307400161084101A43D2D
:101CB200400162084101A53D400163084101A63D82
:101CC2002C084001E000E101E201E301600841016A
:101CD200A707400161084101A83D40016208410196
:101CE200A93D400163084101AA3D0830A335A40D76
:101CF200A50DA60D890B772E40015908F1005C084D
:101D0200A9318D218D3172084101AC007108AB00FF
:101D12002B08A3072C08A43D0030A53DA63D400199
:101D22005808F1005D08A9318D218D3172084101F9
:101D3200AC007108AB002B08A3072C08A43D0030AF
:101D4200A53DA63D0830A335A40DA50DA60D890B12
:101D5200A42E40015808F1005C08A9318D218D3173
:101D620072084101AC007108AB002B08A3072C08D4
:101D7200A43D0030A53DA63D40015908F1005E0892
:101D8200A9318D218D3172084101AC007108AB007F
:101D92002B08A7072C08A83D0030A93DAA3D400109
:101DA2005A08F1005D08A9318D218D317208410177
:101DB200AC007108AB002B08A7072C08A83D003027
:101DC200A93DAA3D40015A08F1005E08A9318D21C2
:101DD2008D3172084101AC007108AB002B08400143
:101DE200E00041012C084001E100E201E30108307A
:101DF200E035E10DE20DE30D890BF92E600841019A
:101E0200A707400161084101A83D40016208410164
:101E1200A93D400163084101AA3D26084001E000B6
:101E2200E101E201E30160084101A7074001610805
:101E32004101A83D400162084101A93D40016308FA
:101E42004101AA3D0830A335A40DA50DA60D890BAD
:101E5200242F220821074001E000E101E10D600882
:101E6200823E4101AB00FF304001613D4101AC00C7
:101E7200A91B502F0130A735A80DA90DAA0D890B5A
:101E82003C2FA61B27140130A335A40DA50DA60DCA
:101E9200890B452FFF30AB07FF30AC3D392FA10135
:101EA200A61F722FFF3023054001E000FF304101E1
:101EB20024054001E100FF30410125054001E20017
:101EC2007F30410126054001E3006308620461049A
:101ED2006004031D6F2F4101271C722F0130410145
:101EE200A10021080319A72F0130A7070030A83D40
:101EF200A93DAA3D2A1CA72F27084001E000410165
:101F020028084001E100410129084001E2004101A5
:101F12002A084001E3000130E400E337E20CE10C5F
:101F2200E00CE40B8E2F63084101AA004001620815
:101F32004101A900400161084101A8004001600877
:101F42004101A7000130AB070030AC3D2C08803ABC
:101F52004001E00080306002031DB22FFF304101DA
:101F62002B02031CBE2F7F304101AA008030A90042
:101F72000030A8000030A700EE2F41012C08803A63
:101F82004001E00080306002031DCA2F0130410190
:101F92002B020318D72F00304101AA000030A900FC
:101FA2000030A8000030A700A001EE2F41012B084D
:101FB200A200FF30A705FF30A8057F30A905003039
:101FC200AA052218A91722084001E0000130E036D4
:101FD200890BE82F60084101AA002008AA042A08F8
:101FE2004001DB00410129084001DA0041012808D3
:101FF2004001D900410127084001D80008000034FF
:102002000034003400340034003400345F340034CF
:1020120000340034073400340734003414347F347D
:1020220014347F34143424342A347F342A3412345E
:102032002334133408346434623436344934553426
:102042002234503400340534033400340034003474
:102052001C342234413400340034413422341C34E0
:10206200003408342A341C342A340834083408343E
:102072003E340834083400345034303400340034F0
:102082000834083408340834083400343034303426
:1020920000340034203410340834043402343E3422
:1020A2005134493445343E34003442347F34403470
:1020B2000034423461345134493446342134413499
:1020C20045344B3431341834143412347F341034E0
:1020D200273445344534453439343C344A34493460
:1020E200493430340134713409340534033436341C
:1020F200493449344934363406344934493429346C
:102102001E3400343634363400340034003456344D
:102112003634003400340034083414342234413468
:102122001434143414341434143441342234143432
:102132000834003402340134513409340634323460
:102142004934793441343E347E34113411341134FB
:102152007E347F3449344934493436343E34413450
:102162004134413422347F344134413422341C34EA
:102172007F3449344934493441347F340934093491
:10218200013401343E3441344134513432347F34E9
:102192000834083408347F34003441347F34413405
:1021A20000342034403441343F3401347F34083425
:1021B2001434223441347F34403440344034403487
:1021C2007F340234043402347F347F3404340834DC
:1021D20010347F343E344134413441343E347F3410
:1021E20009340934093406343E344134513421343B
:1021F2005E347F3409341934293446344634493440
:10220200493449343134013401347F3401340134E6
:102212003F344034403440343F341F34203440345F
:1022220020341F347F342034183420347F34633414
:1022320014340834143463340334043478340434E6
:102242000334613451344934453443340034003466
:102252007F3441344134023404340834103420349D
:10226200413441347F3400340034043402340134C4
:102272000234043440344034403440344034003476
:102282000134023404340034203454345434543489
:1022920078347F3448344434443438343834443421
:1022A20044344434203438344434443448347F345D
:1022B2003834543454345434183408347E340934A1
:1022C2000134023408341434543454343C347F34EA
:1022D2000834043404347834003444347D344034D3
:1022E20000342034403444343D34003400347F34EC
:1022F200103428344434003441347F3440340034C0
:102302007C3404341834043478347C34083404348F
:1023120004347834383444344434443438347C34E7
:10232200143414341434083408341434143418347F
:102332007C347C340834043404340834483454344F
:1023420054345434203404343F344434403420343C
:102352003C344034403420347C341C342034403407
:1023620020341C343C344034303440343C34443423
:1023720028341034283444340C345034503450341B
:102382003C344434643454344C34443400340834DB
:10239200363441340034003400347F3400340034A5
:1023A20000344134363408340034083408342A34D2
:1023B2001C34083408341C342A34083408340034F9
:1023C2000034003400340034003400345F3400340C
:1023D20000340034073400340734003414347F34BA
:1023E20014347F34143424342A347F342A3412349B
:1023F2002334133408346434623436344934553463
:1024020022345034003405340334003400340034B0
:102412001C342234413400340034413422341C341C
:10242200003408342A341C342A340834083408347A
:102432003E3408340834003450343034003400342C
:102442000834083408340834083400343034303462
:1024520000340034203410340834043402343E345E
:102462005134493445343E34003442347F344034AC
:1024720000344234613451344934463421344134D5
:1024820045344B3431341834143412347F3410341C
:10249200273445344534453439343C344A3449349C
:1024A2004934303401347134093405340334363458
:1024B20049344934493436340634493449342934A8
:1024C2001E3400343634363400340034003456348A
:1024D20036340034003400340834143422344134A5
:1024E200143414341434143414344134223414346F
:1024F200083400340234013451340934063432349D
:102502004934793441343E347E3411341134113437
:102512007E347F3449344934493436343E3441348C
:102522004134413422347F344134413422341C3426
:102532007F3449344934493441347F3409340934CD
:10254200013401343E3441344134513432347F3425
:102552000834083408347F34003441347F34413441
:1025620000342034403441343F3401347F34083461
:102572001434223441347F344034403440344034C3
:102582007F340234043402347F347F340434083418
:1025920010347F343E344134413441343E347F344C
:1025A20009340934093406343E3441345134213477
:1025B2005E347F340934193429344634463449347C
:1025C200493449343134013401347F340134013423
:1025D2003F344034403440343F341F34203440349C
:1025E20020341F347F342034183420347F34633451
:1025F2001434083414346334033404347834043423
:1026020003346134513449344534433400340034A2
:102612007F344134413402340434083410342034D9
:10262200413441347F340034003404340234013400
:1026320002340434403440344034403440340034B2
:1026420001340234043400342034543454345434C5
:1026520078347F344834443444343834383444345D
:1026620044344434203438344434443448347F3499
:102672003834543454345434183408347E340934DD
:102682000134023408341434543454343C347F3426
:102692000834043404347834003444347D3440340F
:1026A20000342034403444343D34003400347F3428
:1026B200103428344434003441347F3440340034FC
:1026C2007C3404341834043478347C3408340434CC
:1026D20004347834383444344434443438347C3424
:1026E20014341434143408340834143414341834BC
:1026F2007C347C340834043404340834483454348C
:1027020054345434203404343F3444344034203478
:102712003C344034403420347C341C342034403443
:1027220020341C343C344034303440343C3444345F
:1027320028341034283444340C3450345034503457
:102742003C344434643454344C3444340034083417
:10275200363441340034003400347F3400340034E1
:1027620000344134363408340034083408342A340E
:102772001C34083408341C342A34083408340A342B
:102782000034003400340A340034003400340F348E
:102792002734643400340034023400340134013408
:1027A2000234403478340134023440347834400105
:1027B200161E0800A931CB2193312808C900270829
:1027C200C800430164036304031DF02B4001490860
:1027D2004301E400400148084301E300022C64087D
:1027E20040014906031DF92B4301630840014806D5
:1027F2000319022C49084301E20040014808430141
:10280200E100013040014902003003194802031877
:10281200212C4908BD004808BC000430BD36BC0C60
:10282200890B0F2C75303C07840030303D3D8038D9
:1028320085000008BE00BF013E08C0003F08242CEE
:102842002D30C0000030C1004008C40001304902F0
:102852000030031948020318422C0F304805BC000F
:1028620000304905BD0075303C07840030303D3DE5
:10287200803885000008BE00BF013E08C2003F0844
:10288200452C2D30C2000030C3004208C500023082
:10289200430162066104031D552C0330443E860049
:1028A20087012E30C03F622C0130620200300319D2
:1028B2006102031C652C0330443E860087012D30E3
:1028C200C03F4001C6008D2C62084001BD0043019B
:1028D20061084001BC000430BD36BC0C890B6D2C74
:1028E20075303C07840030303D3D8038850000085B
:1028F200C6000F30430161054001BC0000304301B6
:1029020062054001BD0075303C07840030303D3D1A
:10291200803885000008C700AC014430AD000030AB
:10292200AE000430AF0000309931C5210800AF314C
:10293200B22794318931EB219431AD31A025943104
:10294200003A0319AA2C78304301CC000030CD00A4
:10295200AF2C4201EA01E901E8017C105001931C0D
:10296200B42C131CBD2C42016908F4006808F50060
:102972006A089831D920943140011716191543017C
:10298200ED14A53163259431A03138209431B7314B
:10299200AB27943143016D11A8316020943150016D
:1029A2000C146400A8314C2094314401370874029D
:1029B200031DE52C36087302031DE52C350872024F
:1029C200031DE52C34087102031CF52CB830B40742
:1029D2000B30B53D0030B63D0030B73D9831212077
:1029E20094319331D8239431A8314C20943144014D
:1029F20033087402031D072D32087302031D072DCD
:102A020031087202031D072D30087102031C262DA6
:102A12002C30B0070130B13D0030B23D0030B33D43
:102A22008531962594314301ED1E252D0130D207C3
:102A320003305202031C212DA03188209431262D0F
:102A4200AC3146249431262DD201A8314C20943148
:102A5200440127087402031D382D26087302031D42
:102A6200382D25087202031D382D24087102031C1B
:102A7200452D4001161E452D43015D085E04031DD0
:102A8200452DA03188209431A8314C209431440145
:102A92002B087402031D572D2A087302031D572D9C
:102AA20029087202031D572D28087102031C5C2D90
:102AB200AC314624943143012B082A04290428040A
:102AC200031D7C1D662D40011612430127082604B2
:102AD20025042404031DFC1C712DA3311F239431F2
:102AE200FC1F7D2D4001161E7A2DB731AF27943180
:102AF2007D2DA531632594317C1F892D4001161E41
:102B0200862DA33184239431892DA53163259431F7
:102B1200FC1E952D4001161E922DA9316E21943175
:102B2200952DA531632594317C1EA02D4001161AE6
:102B32009D2DA53163259431883101209431FC1DEE
:102B4200D22C4001161AAC2DAE317E269431A5311D
:102B520063259431D22CA33184239431D22C4201A7
:102B6200C1000030BB000030BA000030B9000030B4
:102B7200B8000030BF000030BE000030BD000030A1
:102B8200BC00C001410840020318062EA43155249E
:102B9200953124084101E600400125084101E70082
:102BA2000030E71BFF30E800E90066084201B80781
:102BB200410167084201B93D410168084201BA3D3D
:102BC200410169084201BB3DA431DC24953124084E
:102BD2004101E600400125084101E7000030E71B02
:102BE200FF30E800E90066084201BC0741016708BE
:102BF2004201BD3D410168084201BE3D41016908F3
:102C02004201BF3D0130C007C32D41084101E6002A
:102C1200E701E801E90169084001B30041016808E0
:102C22004001B200410167084001B100410166085C
:102C32004001B0000130A531EE2595313308C100C5
:102C42003208C0003108BF003008BE0042013B0814
:102C52004001B30042013A084001B2004201390882
:102C62004001B100420138084001B0000030A531F6
:102C7200EE2595313308C5003208C4003108C3007F
:102C82003008C20088318020953141084201B300EA
:102C9200400140084201B20040013F084201B10038
:102CA20040013E084201B00041084101E600E7014F
:102CB200E801E90169084001B300410168084001E7
:102CC200B200410167084001B100410166084001BC
:102CD200B0000130A531EE2595313308C10032082C
:102CE200C0003108BF003008BE0042013F08400169
:102CF200B30042013E084001B20042013D084001DA
:102D0200B10042013C084001B0000030A531EE257F
:102D120095313308C5003208C4003108C3003008B9
:102D2200C20088318020953141084201B70040013C
:102D320040084201B60040013F084201B50040018F
:102D42003E084201B40033084101E1004201320869
:102D52004101E000420131084101DF004201300837
:102D62004101DE00420137084101E5004201360817
:102D72004101E400420135084101E3004201340807
:102D82004101E2008031FB209531B731EF27080085
:102D92000030C4000030C3000030C2000030C10067
:102DA2005008C8004F08C7004E08C6004D08C500AD
:102DB200883105209631031CE72E0030D000003008
:102DC200CF000030CE000030CD000800403040017E
:102DD200C1000030C0000030BF000030BE003F30F4
:102DE2004101B0008030AF000030AE000030AD00D5
:102DF2005008B4004F08B3004E08B2004D08B100AD
:102E02008B318923963130084001C50041012F08DA
:102E12004001C40041012E084001C30041012D08B8
:102E22004001C20088318020963141084101DD0015
:102E3200400140084101DC0040013F084101DB0044
:102E420040013E084101DA00D5015D08B0005C088E
:102E5200AF005B08AE005A08AD005D084001C1003A
:102E620041015C084001C00041015B084001BF0014
:102E720041015A084001BE00410150084001C5000D
:102E820041014F084001C40041014E084001C30006
:102E920041014D084001C20088318020963141082D
:102EA2004101B400400140084101B30040013F0824
:102EB2004101B20040013E084101B1008B3189233A
:102EC20096313008D4002F08D3002E08D2002D08E6
:102ED200D10040304001C1000030C0000030BF00CE
:102EE2000030BE00410154084001C50041015308B1
:102EF2004001C400410152084001C3004101510890
:102F02004001C20088318020963141084101D90038
:102F1200400140084101D80040013F084101D7006B
:102F220040013E084101D6005908BC005808BB00C8
:102F32005708BA005608B9005D08C0005C08BF0017
:102F42005B08BE005A08BD00A831F82096313C0843
:102F5200C4003B08C3003A08C2003908C100383037
:102F62004001DB00D130DA00B730D9001730D80089
:102F720041015D084001DF0041015C084001DE00C3
:102F820041015B084001DD0041015A084001DC00BB
:102F92008D31722596315B084101C80040015A0803
:102FA2004101C700400159084101C60040015808CB
:102FB2004101C5008831052096310318E92F5908CF
:102FC200D0005808CF005708CE005608CD000800A0
:102FD2005908DD005808DC005708DB005608DA0003
:102FE2000130D50714305502031C262F5D08D0008E
:102FF2005C08CF005B08CE005A08CD0008004001F3
:10300200BC007C1C0928AC012F30AD00B8300D2863
:10301200AC013930AD00B830AE003C08AF00023030
:103022009931C52198312A304001AC009330AD006E
:10303200B830AE00AF01AF0A02309931C5210800A5
:10304200A831DC20983149084B06031D2A2848087C
:103052004A06031955284B08C9004A08C8004B08FC
:103062004001AD0043014A084001AC009A31BD2243
:10307200983143014B08803A4001C3008E3043022D
:10308200031D4628D93043014A0203185028430140
:103092003C08013EC00000303D3DC10055284301BF
:1030A2003D08C1003C08C0000030A6317B269831A3
:1030B20043014B08803A4001C3008E304302031D96
:1030C2006528753043014A02031C77284001971195
:1030D200171602304001C4003830C300AD30890BEE
:1030E2007028C30B7028C40B7028942843014B0826
:1030F200803A4001C3008E304302031D832807300B
:1031020043014A02031C982840019711171202300A
:103112004001C4003830C300AD30890B8E28C30B88
:103122008E28C40B8E28400197151716AA28400135
:103132001712971502304001C4003830C300AD3079
:10314200890BA128C30BA128C40BA1284001171683
:10315200971543014B08803A4001C3008D3043026A
:10316200031DB628483043014A0203180800AA3159
:10317200152298314001AC011930AD00B830AE00D3
:103182000B30AF0001309931C521983152304001E6
:10319200C4002B30C3000030890BCD28C30BCD28CF
:1031A200C40BCD28000040011612A3311F230800D2
:1031B200F7007718DF2840019917E1284001991399
:1031C2007708F6000130F636890BE4287618EC28E9
:1031D20040011917EE28400119137708F600023052
:1031E200F636890BF1287618F92840019916FB2842
:1031F200400199127708F6000330F636890BFE2853
:103202007618062940011916082940011912770873
:10321200F6000430F636890B0B2976181329400183
:1032220098171529400198137708F6000530F636ED
:10323200890B1829761820294001181722294001E4
:1032420018137708F6000630F636890B252976180A
:103252002D29400198162F294001981274183429FB
:10326200400196163629400196127408F600013084
:10327200F636890B39297618412940019A144329D7
:1032820040019A107408F6000230F636890B46297E
:1032920076184E294001961750294001961374085A
:1032A200F6000330F636890B532976185B29400164
:1032B20016175D29400116137408F6000430F6361D
:1032C200890B602976186829400118146A2940017F
:1032D20018107408F6000530F636890B6D29761839
:1032E2007529400198147729400198107408F60056
:1032F2000630F636890B7A2976188229400118158C
:10330200842940011811750C031C1A1003181A1491
:10331200991543014108F2004008F100A831142038
:103322009831400199111A30890B952900324001D8
:10333200181243014108F2004008F100A83114209C
:1033420098314001181643014108F2004008F1008B
:10335200A8311420983140019913191399121912A6
:1033620098131813981296129A109613161318108F
:10337200981018111A101530F600C630890BBF29A3
:10338200F60BBF2900320800B700161E0800A8314C
:103392008D2099317830AC31072499314030AC31ED
:1033A200072499312C08A7003708AC31CA24993177
:1033B200BA012F083A020318452A3A082D07840059
:1033C2002E080318013E85001200031DEA29B601EA
:1033D200F4293A082D0784002E080318013E8500BF
:1033E2000008E03EB600BB013608B000B10130086B
:1033F200F7003108F8000530F9000030FA00A93171
:10340200322199310030B2009030B3007708320790
:10341200B4007808333DB5003B0834078400350812
:103422000318013E85000008B80002303706031970
:10343200202A38080F39A931502199312B2A38080E
:103442000739A93150219931B0000230B035890BCA
:10345200272A3008B9003908AC31072499313908D4
:10346200AC31072499310130BB0705303B02031C04
:10347200F5290030AC31072499310030AC310724F2
:1034820099310130BA07DA292C08A7003708013E22
:10349200AC31CA249931BA012F083A020318BA2A68
:1034A2003A082D0784002E080318013E85001200F9
:1034B200031D5D2AB601672A3A082D0784002E08EB
:1034C2000318013E85000008E03EB600BB01360845
:1034D200B000B1013008F7003108F8000530F900FA
:1034E2000030FA00A931322199310030B200903017
:1034F200B30077083207B4007808333DB5003B08C3
:103502003407840035080318013E85000008B8001E
:10351200023037060319952A3808B0000430B03655
:10352200890B902A30089D2A3808B0000330B03643
:10353200890B982A30080F39A93150219931B900E5
:103542003908AC31072499313908AC310724993153
:103552000130BB0705303B02031C682A0030AC3146
:10356200072499310030AC31072499310130BA0770
:103572004D2AA83126200800161E0800A8318D20E9
:103582009A317830AC3107249A314030AC3107247B
:103592009A310A30A2000030A3002D08A5002C08A1
:1035A200A400AF3117279A312308AD002208AC00DE
:1035B2002D08803AAE0081302E02031DE22A2C3003
:1035C2002C020318E62A2C30F32A40012D08803AF7
:1035D200AE0081302E02031DF02AA5302C02031CFE
:1035E200F72AA4304001AC000130AD0040012C08A4
:1035F200D43EAC00FE302D3DAD002D08AF002C08AE
:10360200AE000530AE35AF0D890B032B2E08AC0092
:103612002F08AD007830A2000030A3002D08A500CD
:103622002C08A400AF3117279A312208B4001930B0
:103632003402031C252B3408E83EB0000830B100E8
:103642000830B20008303A2B11303402031C2D2B03
:10365200B0013408F03E202B09303402031C362B13
:10366200B001B1013408F83E222BB001B101B20120
:103672003408B3003008A83176209A314001B600F0
:1036820036080338B6007730A7000030AC31CA24C0
:103692009A313608AC3107249A313608AC31072406
:1036A2009A313608AC3107249A3136081F38B600F1
:1036B2007530A7000030AC31CA249A313608AC31DB
:1036C20007249A313608AC3107249A317A30A700A0
:1036D2000030AC31CA249A313608AC3107249A3111
:1036E2003608AC3107249A313108A83176209A3154
:1036F2004001B6007530A7000130AC31CA249A31BE
:10370200B5013608AC3107249A310130B5070730CC
:103712003502031C822B3208A83176209A314001EF
:10372200B6007530A7000230AC31CA249A31B50117
:103732003608AC3107249A310130B507073035021B
:10374200031C992B3308A83176209A314001B60028
:103752003608C038B6007530A7000330AC31CA2431
:103762009A31B5013608AC3107249A310130B507D8
:1037720007303502031CB32BA83126200800FF3086
:103782004201D1007F30D200FF30D3007F30D4001D
:10379200A13137219B31A13197219B31A7311727C5
:1037A2009B3143014508803A4201C80080304802FB
:1037B200031DDE2B793043014402031C0800430140
:1037C20033084201D000430132084201CF006A08A7
:1037D200C9006908CA00033069020318212C0330AA
:1037E2006A020318212CE901EA016908F400680859
:1037F200F5006A089831D9209B31A13197219B317C
:10380200A13137219B31A73117279B31430145084D
:10381200803A4201C80080304802031D132C7930DF
:1038220043014402031C0800430133084201D20051
:10383200430132084201D1006A08CB006908CC007A
:10384200033069020318532C03306A020318532C05
:10385200E901EA016908F4006808F5006A0898318C
:10386200D9209B31A23159229B31A73117279B3195
:1038720043014508803A4201C80080304802031DD6
:10388200452C793043014402031C080043013308EC
:103892004201D400430132084201D3006A08CD003C
:1038A2006908CE005208803AC8005008803A48029F
:1038B200031D5D2C4F085102031C712C4201540858
:1038C200803AC8005008803A4802031D6A2C4F080B
:1038D2005302031C712C42014A08E9004908AE2C2C
:1038E20042015008803AC8005208803A4802031D3B
:1038F2007C2C51084F02031C902C42015408803A40
:10390200C8005208803A4802031D892C510853020C
:10391200031C902C42014C08E9004B08AE2C4201DA
:103922005008803AC8005408803A4802031D9B2C74
:1039320053084F02031CAF2C42015208803AC800C0
:103942005408803A4802031DA82C53085102031C54
:10395200AF2C42014E08E9004D08EA004201510A2B
:103962007F3003195206031DBC2C530A7F30031902
:103972005406031908006908F4006808F5006A088B
:103982009831D920080042016908CB0043014E0852
:10399200031DD92C0A30F10042016908A931AC217A
:1039A2009C31C200C3014208C5004308C600DE2C98
:1039B20001304201C5000030C6004508CE004E0865
:1039C200031DE52C0130CE00A73117279C3143019E
:1039D20033084201CD00430132084201CC004E08B7
:1039E200E9076908F4006808F5006A089831D920E7
:1039F2009C31A73117279C3142014D08803AC20001
:103A020043013308803A42014202031D0C2D430157
:103A1200320842014C02031C762D43013308420155
:103A2200CD00430132084201CC006908CB004E08A8
:103A3200E9070030C3004E087F3CC200031CC303E9
:103A42004308803AC40080304402031D2A2D6908CD
:103A520042020318FC1BCD2DFC1ACD2D4201690830
:103A6200F4006808F5006A089831D9209C31A73122
:103A720017279C3142014D08803AC20043013308A6
:103A8200803A42014202031D4A2D4301320842019B
:103A92004C02031CCD2D42016908CB0043013308BF
:103AA2004201CD00430132084201CC0043014E08DD
:103AB200031D692D0A30F10042016908A931AC21C8
:103AC2009C31C200C3014208C7004308C8006E2DE2
:103AD20001304201C7000030C8004708CE004E083E
:103AE200031D182D0130CE00182D43013308420169
:103AF200CD00430132084201CC00A82D42016908E1
:103B0200CB00430133084201CD0043013208420198
:103B1200CC0043014E08031D9C2D0A30F1004201E6
:103B22006908A931AC219C31C200C3014208C90015
:103B32004308CA00A12D01304201C9000030CA0069
:103B42004908CE004E08031DA82D0130CE004E08B4
:103B5200E9024E0869020318FC1BCD2DFC1ACD2D7B
:103B62006908F4006808F5006A089831D9209C3188
:103B7200A73117279C3142014D08803AC200430108
:103B82003308803A42014202031DCB2D4301320821
:103B920042014C0203187F2D42014B08E9006908DB
:103BA200F4006808F5006A089831D920080042013B
:103BB2006A08CB0043014E08031DED2D0A30F100C7
:103BC20042016A08A931AC219D31C200C3014208F9
:103BD200C5004308C600F22D01304201C500003085
:103BE200C6004508CE004E08031DF92D0130CE0057
:103BF200A73117279D31430133084201CD0043010C
:103C020032084201CC004E08EA076908F40068084D
:103C1200F5006A089831D9209D31A73117279D31C7
:103C220042014D08803AC20043013308803A420102
:103C32004202031D202E4301320842014C02031CA2
:103C42008A2E430133084201CD004301320842016A
:103C5200CC006A08CB004E08EA070030C3004E08C9
:103C62007F3CC200031CC3034308803AC400803077
:103C72004402031D3E2E6A0842020318FC1BE12E79
:103C8200FC1AE12E42016908F4006808F5006A088E
:103C92009831D9209D31A73117279D3142014D0816
:103CA200803AC20043013308803A42014202031DB6
:103CB2005E2E4301320842014C02031CE12E4201F6
:103CC2006A08CB00430133084201CD0043013208A8
:103CD2004201CC0043014E08031D7D2E0A30F10043
:103CE20042016A08A931AC219D31C200C3014208D8
:103CF200C7004308C800822E01304201C7000030CD
:103D0200C8004708CE004E08031D2C2E0130CE00FD
:103D12002C2E430133084201CD00430132084201F7
:103D2200CC00BC2E42016A08CB0043013308420199
:103D3200CD00430132084201CC0043014E08031D6D
:103D4200B02E0A30F10042016A08A931AC219D313E
:103D5200C200C3014208C9004308CA00B52E01309F
:103D62004201C9000030CA004908CE004E08031DB6
:103D7200BC2E0130CE004E08EA024E086A02031839
:103D8200FC1BE12EFC1AE12E6908F4006808F5001C
:103D92006A089831D9209D31A73117279D314201F8
:103DA2004D08803AC20043013308803A4201420280
:103DB200031DDF2E4301320842014C020318932EE9
:103DC20042014B08EA006908F4006808F5006A0835
:103DD2009831D9200800FF304201E0007F30E10035
:103DE200A73117279E3143014508803A4201D60088
:103DF20080305602031D002F793043014402031C18
:103E0200080043014C084D0403195A2F42016A0865
:103E1200690403195A2F43014508803A4201D6002A
:103E220081305602031D182FF53043014402031856
:103E32005A2FA03102209E31A73117279E3143010C
:103E42004508803A4201D60080305602031D2C2FCD
:103E5200793043014402031C080043014C08143E1C
:103E62004201D600003043014D3D4201D7005708C0
:103E7200803AD80043014508803A42015802031DA6
:103E8200462F430144084201560203180800FC1B56
:103E92000800FC1A0800430133084201E100430113
:103EA20032084201E0006A08DE006908DD006808A5
:103EB200DF004301CC01CD01AB315C239E31A73140
:103EC20017279E3143014508803A4201D6008030CF
:103ED2005602031D6F2F793043014402031C080070
:103EE200430133084201DA00430132084201D9009A
:103EF2006908DB006A08DC006803031D822FE80101
:103F0200842F0130E800AB315C239E31A7311727A3
:103F12009E3142015A08803AD60043013308803A62
:103F220042015602031D992F4301320842015902F0
:103F32000318B22F42016803031DA12FE801A32F2A
:103F42000130E8005B08E9005C08EA006908F40057
:103F52006808F5006A089831D9209E31A7311727E1
:103F62009E3143014508803A4201D6008030560214
:103F7200031DBE2F793043014402031C0800A03107
:103F820002209E31A73117279E3142016108803AF3
:103F9200D60043013308803A42015602031DD52F51
:103FA2004301320842016002031CFC1BEC2FFC1A85
:103FB200EC2F42015E08EA005D08E9005F08E800B4
:103FC2006908F4006808F5006A089831D9209E3122
:103FD200A73117279E31E730430144060330031906
:103FE2004506031D08004201EA01E901E8016908EA
:0E3FF200F4006808F5006A089831D92008002C
:104004004301CE014201D1012E286908CF006A087C
:10401400D0006A086902031C16289C31C424A0310C
:104024009D31D825A0311C289D31D825A0319C3143
:10403400C424A031420169084F06031D2B286A08D5
:104044005006031D2B2843014E08031D352801305B
:10405400CE0001304201D10704305102031CFC1B85
:104064003528FC1E07284301CE0108004001C00189
:10407400C1015001931842284001C001C1015928CF
:10408400131849281B304001C000B8305828131AAF
:10409400502861304001C000B8305828931B542880
:1040A400131F59286B304001C000B830C1003F30A5
:1040B4005001930040014008410403190800AC0179
:1040C4004108AE004008AD000930AF00023099311C
:1040D400C521A03152304001BF002B30BE0000305A
:1040E400890B7228BE0B7228BF0B722800000530A2
:1040F40098310020A031430143084001BD00430131
:1041040042084001BC00AA31672208008B135808FA
:104114004001C500430157084001C400430156084B
:104124004001C300430155084001C20043015C083B
:104134004001C90043015B084001C80043015A081B
:104144004001C700430159084001C6008B171612ED
:104154000D304001C1002D30C000D730890BB0288C
:10416400C00BB028C10BB0280032A53163258B13D6
:10417400400145084301D800400144084301D700E9
:10418400400143084301D600400142084301D500E1
:10419400400149084301DC00400148084301DB00B9
:1041A400400147084301DA00400146084301D900B1
:1041B4008B1708003C083D04031DEC283C30AC0080
:1041C4008F30AD00B830AE000330AF00003099310D
:1041D400C521080000303D020A3003193C020318CF
:1041E40003293D08F9003C08F8003830FA00A131F1
:1041F400F721A03130304401C0002E30C1003D0809
:10420400292900303D02643003193C0203181629A1
:104214003D08F9003C08F8003830FA00A131F721D4
:10422400A03144013C08FE280530BC070030BD3DE8
:104234003D08F9003C08F8003830FA00A131F721B4
:10424400A03120304401C0003B08C1003C08C2003A
:104254003C304001AC004030AD000230AE000330D1
:10426400AF0000309931C52108004201C501A731D2
:104274001727A131430133084201C7004301320823
:104284004201C6000130E900542942016908C50011
:10429400430133084201C700430132084201C6000A
:1042A4000310E90D41306902031CFC1B8C29FC1A24
:1042B4008C296908F4006808F5006A089831D92047
:1042C400A131A7311727A131420147084001B300AA
:1042D400420146084001B200AD31E825A131420156
:1042E4004608400132074201C20047084001333DFD
:1042F4004201C3004308803AC40043013308803AB2
:1043040042014402031D8A29430132084201420248
:104314000318472942014508E9006908F4006808C0
:10432400F5006A089831D92008004201C501A73177
:104334001727A131430133084201C7004301320862
:104344004201C6000130EA00B42942016A08C500EE
:10435400430133084201C700430132084201C60049
:104364000310EA0D41306A02031CFC1BEC29FC1A01
:10437400EC296908F4006808F5006A089831D92026
:10438400A131A7311727A131420147084001B300E9
:10439400420146084001B200AD31E825A131420195
:1043A4004608400132074201C20047084001333D3C
:1043B4004201C3004308803AC40043013308803AF1
:1043C40042014402031DEA29430132084201420228
:1043D4000318A72942014508EA006908F40068089F
:1043E400F5006A089831D9200800F91FFB2901302B
:1043F400FC290030A2002208031D052A7908A40024
:104404007808A300102A7809A0007909A100A00A5D
:104414000319A10A2008A3002108A400A5017A0811
:104424002507860002308700203081000130A5076F
:1044340006302502031C112A7A08063E8600023043
:10444400870081010530A5007A082507860002301F
:1044540087000A30F1000030F2002408F400230839
:10446400F300AA313D22A1317108303E81000130B0
:10447400A5020A30F1000030F2002408F4002308F9
:10448400F300AA31F822A1317208A4007108A30034
:1044940023082404031D262A2208031908007A0885
:1044A40025078600023087002D3081000800420174
:1044B400C701A7311727A231430133084201C600BF
:1044C400430132084201C5000130EA00762A420164
:1044D4006A08C700430133084201C6004301320899
:1044E4004201C5000310EA0D41306A02031CFC1BA3
:1044F400AE2AFC1AAE2A6A08F4006808F5006A08B5
:104504009831D920A231A7311727A2314201460898
:104514004001B300420145084001B200AD31E82535
:10452400A23142014508400132074201C200460857
:104534004001333D4201C3004308803AC4004301B3
:104544003308803A42014402031DAC2A4301320875
:10455400420142020318692A42014708EA00470857
:10456400E9006908F4006808F5006A089831D92060
:104574000800A5304001A00042016A084001A100E2
:10458400420169084001A200420168084001A300F9
:1045940000307C180130A400430151084001A500FB
:1045A400430150084001A60043014F084001A70001
:1045B4002030F100B731CE27A231A800A901500163
:1045C4009E18E12A1E174001290850019A007030F4
:1045D4009B001E1440012908203E86008701010823
:1045E40050011C060319172B9E18F62A1E174001AA
:1045F400290850019A0070309B009D014001290850
:10460400203E86008701010850019C0003108B1B8B
:1046140003148B131E1555309F00AA309F009E145F
:104624009E18122B1E1103188B1701304001A90785
:104634000930290203180800E12A50010C108B13D9
:1046440040019E134E018C1216167E01CA12C91621
:104654004001161217169715C2014208031D412B7B
:1046640005304001C1000F30C000F130890B382BF8
:10467400C00B382BC10B382B7E01CA12630000001B
:1046840005304001C1000F30C000F130890B482BC8
:10469400C00B482BC10B482B40018D1A542B013001
:1046A400C207552BC20110304202031C2F2B4E01AE
:1046B40016127E01C912CA1240019E178B174301BC
:1046C400ED14A5316325A33140018D1A6B2B6400D1
:1046D400662B4301D401FC137C13FC128B132F08AB
:1046E4004401AF0043012E084401AE0043012D08EC
:1046F4004401AD0043012C084401AC008B17500168
:104704000C14080040019711AC014330AD00B830DF
:10471400AE000930AF0002309931C521A331400108
:1047240019117C109E31EC26A33143014508803ACF
:104734004201E20080306202031DA32B01304301D9
:104744004402031CB32B43014508803A4201E200B2
:1047540083306202031DB12BE73043014402031C82
:10476400B72B4301CC01CD01BC2B43014508CD003F
:104774004408CC00A231BB22A33143016D16450885
:10478400C3004408C2004508E0004408DF00AC311F
:104794004624A3314001191597157C13FC114301DC
:1047A400D401A8314C20A33174084401B700730824
:1047B400B6007208B5007108B400A8314C20740822
:1047C4004401B3007308B2007208B1007108B0006C
:1047D40008000310430D440D4001EE006E08031D54
:1047E400FD2B00304101C4000030C3000030C20082
:1047F4000030C100080041014108C5004208C6005C
:104804004308C7004408C8001F30C836C70CC60C8C
:10481400C50C890B072C45084001ED004101C31765
:10482400FF30C105FF30C205FF30C3050030C405A9
:1048340096304001EE02EE1F322C6E08803A973E0D
:10484400031CF32B01304101C436C30CC20CC10C50
:10485400890B252C01304001EE070319452C242C2B
:1048640020306E020318F32B6E080319452C013017
:104874004101C135C20DC30DC40D890B3A2C013061
:104884004001EE02362C6D08031908004101C109EC
:10489400C209C309C409C10A0319C20A0319C30A14
:1048A4000319C40A08002030A931EF21A431A03033
:1048B4000032890B5A2C0830B731DE27A431720834
:1048C4004001AB007108AA002A0A033003192B0621
:1048D400031D7D2C4030A931EF21A431A0300032DA
:1048E400890B712C0830B731DE27A43171354001B2
:1048F400AA00720DAB00FE302A06073003192B06FE
:10490400031DD72C1030A931EF21A431A03000327F
:10491400890B892C0830B731DE27A4317208400195
:10492400AB007108AA002A0A033003192B06031DE1
:104934009D2C43016D15A831DC20A43140012A08C7
:10494400F1002B08F200F301F40143014A08F500D9
:104954004B08F600890D893B8909F700F800AB3153
:104964002A23A4317408AF007308AE007208AD00A6
:104974007108AC002C08A6002D08A7002E08A8007A
:104984002F08A9000A30A936A80CA70CA60C890B7D
:10499400C52C2908AF002808AE002708AD0026085A
:1049A400AC002D08AB002C08AA002B08A5002A088F
:1049B400A40008002030A931EF21A431A030003236
:1049C400890BE12C0A30B731DE27A431720840018B
:1049D400AB007108AA002A0A033003192B06031D31
:1049E400042D4030A931EF21A431A0300032890BCD
:1049F400F82C0A30B731DE27A43171354001AA0002
:104A0400720DAB00FE302A06073003192B06031D76
:104A14005E2D1030A931EF21A431A0300032890B72
:104A2400102D0A30B731DE27A43172084001AB00E3
:104A34007108AA002A0A033003192B06031D242D2A
:104A440043016D15A831DC20A43140012A08F1008E
:104A54002B08F200F301F40143014A08F5004B0866
:104A6400F600890D893B8909F700F800AB312A2348
:104A7400A4317408AF007308AE007208AD00710869
:104A8400AC002C08A6002D08A7002E08A8002F08AB
:104A9400A9000A30A936A80CA70CA60C890B4C2D2A
:104AA4002908AF002808AE002708AD002608AC008E
:104AB4002D08AB002C08AA002B08A5002A08A40086
:104AC40008004001161609304001BF001E30BE0028
:104AD400E430890B6B2DBE0B6B2DBF0B6B2D0000CF
:104AE400A831A620A53168304001BE00E430890B0E
:104AF400792DBE0B792D0000AA31C722A5314301BF
:104B0400ED1C8C2DAB31C923A5314301ED10AA3125
:104B14001522A531AE31CA26A5310F304301C80094
:104B24002730C9006430DF000030E0000F30DD00C2
:104B34002730DE00C201C30143084001BD00430128
:104B440042084001BC00AA316722A531A8314C209B
:104B5400A531013071074401B4000030723DB50045
:104B64000030733DB6000030743DB700A8314C20CE
:104B7400A53174084401B3007308B2007208B1008F
:104B84007108B000A8314C20A531303071074401C0
:104B9400A8007530723DA9000030733DAA000030B2
:104BA400743DAB00A8314C20A531C03071074401DD
:104BB400A4002730723DA5000930733DA6000030E3
:104BC400743DA7004301D201FC137C13FC127C1238
:104BD400FC11A83160200800B8003808031DB31F79
:104BE400032E3009BA003109BB003209BC00330975
:104BF400BD00BA0A0319BB0A0319BC0A0319BD0A8A
:104C04000B2E3308BD003208BC003108BB0030084D
:104C1400BA003308320431043004031D1A2E003064
:104C2400B3000030B2000030B1000030B000080022
:104C34009630B900FE303D050319392E0130B9070D
:104C44000130BD36BC0CBB0CBA0C890B232E1C2EB8
:104C54000130B9070130BA070030BB3DBC3DBD3D52
:104C64000130BD36BC0CBB0CBA0C890B332EFF30A3
:104C74003D0503194B2E2A2E02303902031C4D2EFA
:104C84000130B9020130BA35BB0DBC0DBD0D890B25
:104C9400452EBC1F3E2E3918572EFF30BA05FF3063
:104CA400BB057F30BC05FF30BD050310B90C3908C6
:104CB400B400B501B601B7011830B435B50DB60D61
:104CC400B70D890B5F2E3408BA043508BB043608C7
:104CD400BC043708BD043808031DB31F722EBD176A
:104CE4003D08B3003C08B2003B08B1003A08B000EC
:104CF40008004001A700161E0800A8318D20A63127
:104D04007830AC310724A631003A03198B2E4301C5
:104D1400ED160030AC310724A631A801E330AC31E4
:104D24000724A6310130A80706302802031C902E60
:104D340027080319C12EAE30AC310724A631D53073
:104D4400AC310724A6318030AC310724A6318D3034
:104D5400AC310724A6311430AC310724A631D93044
:104D6400AC310724A631F130AC310724A631DB3055
:104D7400AC310724A6314030AC310724A631A83029
:104D8400AC310724A6313F30AC310724A631D330EF
:104D9400AC310724A6314030AC310724A631403071
:104DA400AC310724A6318130AC310724A631FF3061
:104DB400AC310724A6312030AC310724A6310230AF
:104DC400AC310724A6312130AC310724A6310030A0
:104DD400AC310724A6317F30AC310724A6312E3004
:104DE400AC310724A631A030AC310724A631C03041
:104DF400AC310724A631DA30AC310724A6310230B5
:104E0400AC310724A631A430AC310724A631A63036
:104E1400AC310724A6312708031D142FAF30AC3161
:104E24000724A631A8312620080096304101EC0061
:104E34000030ED002C30EA000130EB004301C601E4
:104E4400C701C401C5014101EE01EF014301470857
:104E5400803A4001EF0043013B08803A40016F0271
:104E6400031D372F43013A0846020318EE2F64004E
:104E7400FC1B3E2FFC1E462F4301C401C50110300C
:104E8400B2002730B3000800AC318624A7314301B7
:104E94003B08803A4001EF0043014708803A400153
:104EA4006F02031D582F430146083A020318702F5E
:104EB40043013108803A4001EF0043013908803A48
:104EC40040016F02031D692F4301380830020318A3
:104ED400702F08309531B025A7317C2F0630400162
:104EE400EF003030890B742FEF0B742F0000AC31BE
:104EF4008624A73143013B08803A4001EF00430177
:104F04004708803A40016F02031D8B2F4301460876
:104F14003A0203189E2F43013108803A4001EF0002
:104F240043013908803A40016F02031D9C2F43015D
:104F340038083002031C080041016C086D04031991
:104F4400BC2F0130EC020030ED3B43014708410126
:104F54006F02031DB12F4301460841016E0203187D
:104F6400282F430147084101EF004301460841014E
:104F7400EE00282F6F0843015E06031DC52F410173
:104F84006E0843015D060319D22F41016F084001E9
:104F9400BD0041016E084001BC00A031DC20A731F6
:104FA40041016F084301DE0041016E084301DD0049
:104FB4004101EE01EF013230EC000030ED006A08EF
:104FC4006B040319EA2F0130EA020030EB3B282F6F
:104FD4004301C401C501080043013908803A400176
:104FE400EF0043013108803A40016F02031DFD2F99
:0C4FF40043013008380203180800392F70
:10500600F6000F307605F4000A30F1007608F50058
:105016000430F536890B0C287508B731BF2774079D
:1050260008000130F1020030F23B710A0319720ADE
:10503600031908000B30F3006230890B2028F30BAC
:10504600202800321428400116114230890B2928E5
:105056000032400196154230890B2F28003240015C
:1050660016154230890B3528003208004001161506
:105076004230890B3C280032400196154230890B9C
:1050860042280032400196114230890B48280032EE
:1050960008008B1343012F08F8002E08F7002D088F
:1050A600F6002C08F5008B177808F4007708F30053
:1050B6007608F2007508F10008008B1343012B08EF
:1050C600D8002A08D7002908D6002808D5002708BE
:1050D600DC002608DB002508DA002408D9007C114C
:1050E600FC108B170800F4007408031D7C280030A0
:1050F6000800FF307407F100F10A8030F20000303A
:10510600F3008828730DF30CF20CF10B8528720856
:10511600003C0800400196154230890B9028003269
:10512600400116154230890B9628003240011611AF
:105136004230890B9C280032400196114230890B7F
:10514600A2280032080040011615F101BA284001D4
:105156000C19BE2896114230890BAF280032400147
:1051660096154230890BB52800320130F107093017
:105176007102031CAA28A83126200800FB00400162
:10518600161E0800A8318D20A8317830AC310724CE
:10519600A831003A0319D1284301ED168030AC310D
:1051A6000724A8317B08AC310724A831A831262072
:1051B60008002030A931EF21A831A0300032890B38
:1051C600E1280930B731DE27A8317208F8007108E6
:1051D600F7000B30F9000030FA00A93132217808C7
:1051E6004301CB007708CA0008008030BC0640089F
:1051F600B0003F08AF003E08AE003D08AD003C08D9
:10520600B4003B08B3003A08B2003908B1008B314C
:1052160089233008BC002F08BB002E08BA002D08D1
:10522600B9000800F201F1017235F20040010C0CE0
:10523600890C01397207F20096154230890B212933
:105246000032400196114230890B27290032013085
:10525600F10708307102031C172972080800400183
:10526600A001A101771C3C2979084001A0077A0812
:10527600A13D0130F935FA0D890B3D290130F8368B
:10528600F70C890B422977087804031D352940015C
:105296002108F8002008F7000800F200F301F401E5
:1052A6007208F100740A5829F136890B5729711CC6
:1052B60066290330F1007435890A6229F135890BB4
:1052C60061297108F3040130F40704307402031CE9
:1052D600532973080800AA311522A9314001AC01EF
:1052E6000D30AD00B830AE000B30AF000130993153
:1052F600C521A93152304001C4002B30C300003013
:10530600890B8329C30B8329C40B83290000A3318E
:105316001F230800F900F501F6017108F300F401F6
:105326007308F7007408F800791C9D297708F507BB
:105336007808F63D0130F735F80D890B9E290310E4
:10534600F90C7908031D97297608F2007508F10013
:105356000800F200F40171080319C9290130F300AD
:10536600F11BBA290310F10D0130F307B32903101D
:10537600F40D71087202031CC4297108F202741438
:105386000310F10C0130F302031DBA29740808005A
:10539600A8318D20A9317930AC310724A931003AE2
:1053A6000319DD29A831262000304001A70001306D
:1053B600A8000800A9311521A931FB00A831392020
:1053C600A931A83126207B084001A900AA01290895
:1053D600A7002A08A8000800F300410193137308E8
:1053E600603903190B2A731BFA290130FB29023095
:1053F600F1000030F20052010C087106FC3971060A
:105406008C008C170C1F052A033041019A000C2AC8
:105416009A019401950196019D019C011430930017
:10542600931708004001161E0800A8318D20AA31E6
:105436007830AC310724AA314030AC310724AA3188
:10544600AD01A7012D08AC31CA24AA31AC01013047
:10545600AC070030AC310724AA3180302C02031C83
:105466002A2A0130AD0708302D02031C242AA83150
:1054760026200800710872040319622A0130F5001B
:10548600F21B4D2A0130F135F20D890B462A013007
:10549600F507432A72087402031D532A7108730222
:1054A600031C592A7108F3027208F43B0130F236E4
:1054B600F10C890B5A2A0130F502031D4D2A740896
:1054C600F2007308F10008003C083D04031D772A2A
:1054D6003C30AC008A30AD00B830AE000430AF00CE
:1054E60002309931C52108003D08F9003C08F80052
:1054F6003830FA00A131F721AA3144013B08C00037
:105506002E30C1003C08C2003D08C3003C304001BB
:10551600AC004030AD000230AE000430AF000230C7
:105526009931C52108007C10430151084201EA0067
:10553600430150084201E90043014F084201E800D7
:105546006908F4006808F5006A089831D920AA317C
:10555600A231BB22AA3143013F08E0003E08DF002A
:10556600053098310020AA314301C201C3013C3005
:105576004001AC008A30AD00B830AE000430AF0058
:1055860002309931C52108004001B001A8318D20B3
:10559600AA317830AC310724AA31003A0319EA2A35
:1055A600A8312620AA310D304001AF002D30AE00C3
:1055B600D730890BDC2AAE0BDC2AAF0BDC2A003293
:1055C60001304001B0070A303002031CC92AA83155
:1055D6002620AA310130A6317B26AA31AA3115220E
:1055E600AA31AF30A831C1200800F601F7017108D1
:1055F60072040319252B0130F500F21B0A2B01302A
:10560600F135F20D890B032B0130F507002B013024
:10561600F635F70D890B0B2B72087402031D152B3B
:1056260071087302031C1C2B7108F3027208F43B09
:1056360076140130F236F10C890B1D2B0130F50280
:10564600031D0A2B7708F2007608F10008000030E7
:105656004001A3000030A2000030A1000030A000ED
:10566600711C3E2B75084001A0077608A13D7708FE
:10567600A23D7808A33D0130F535F60DF70DF80D7E
:10568600890B3F2B0130F436F30CF20CF10C890B2D
:10569600462B7408730472047104031D332B4001F6
:1056A6002308F4002208F3002108F2002008F10084
:1056B60008004201E901EA016908F4006808F500FA
:1056C6006A089831D920AB31A7311727AB3143018E
:1056D6004508803A4201D50080305502031D762BDD
:1056E600793043014402031C08009B31C023AB31CF
:1056F600A7311727AB3143014508803A4201D5004F
:1057060080305502031D8A2B793043014402031C65
:105716000800A031022008004001C10097117C1C3E
:105726009B2B410803199B2BAA319622AB319E2B4A
:10573600AF316427AB310D304001C0002D30BF00C2
:10574600D730890BA42BBF0BA42BC00BA42B003284
:1057560040019715FC137C124301D401A8314C205B
:10576600AB3174084401B7007308B6007208B5007F
:105776007108B400A8314C2074084401B3007308C2
:10578600B2007208B1007108B0000800400197111C
:10579600AA311522AB314001AC016230AD00B03008
:1057A600AE001230AF000130AE313226AB314001CF
:1057B600AC010030AD00B830AE000C30AF000330A5
:1057C600AE313226AB3154304001AC007530AD00FD
:1057D600B830AE000530AF000330AE313226AB3103
:1057E6007A304001BB00C130BA008130890BF92BF9
:1057F600BA0BF92BBB0BF92B003240018D1A052C85
:105806006400002C971508004001A500A601250894
:10581600A2000730A236890B0D2C22080139A300FD
:10582600A30DA30D16082306FB3923069600423066
:10583600890B1B2C0032400196154230890B212C16
:105846000032400196112535A5000130A607083023
:105856002602031C0A2C16154230890B302C003206
:10586600400196150C0C890C0139A4004230890BB5
:105876003A2C0032400196114230890B402C0032FE
:10588600400124080800A8314C20AC3130307107A3
:105896004401A8007530723DA9000030733DAA008E
:1058A6000030743DAB004001161E08004301ED12A6
:1058B600A831A620AC310030A6317B26AC31AE3102
:1058C600CA26AC31430143084001BD0043014208EA
:1058D6004001BC00AA316722AC310F304301DD0024
:1058E6002730DE000F304806273003194906031912
:1058F600080049084001AD00430148084001AC00DA
:105906009A31BD220800A4315524AC312408B000D8
:105916002508B100890D893B8909B200B300013021
:10592600A531EE25AC3133084101E10040013208D2
:105936004101E000400131084101DF00400130082B
:105946004101DE00A431DC24AC312408B000250876
:10595600B100890D893B8909B200B3000130A53138
:10596600EE25AC3133084101E50040013208410122
:10597600E400400131084101E300400130084101E3
:10598600E2008031FB20AC31B731EF270800A800D8
:105996002708023EAB00A8318D20AC317830AC31FF
:1059A6000724AC31003A0319DA2C4301ED16003016
:1059B600AC310724AC312808B03EAC310724AC31F9
:1059C60010302B020318EB2C2B08A900AA01FC2C83
:1059D6002B08FB000430FB36890BEE2C7B08AA0053
:1059E600F030F1002A08B731BF27AC3140012B0750
:1059F600A9002908AC310724AC312A08103EAC3185
:105A06000724AC31A8318D20AC317830AC31072475
:105A1600AC314030AC31072408004001161E0800A6
:105A2600A8318D20AD317830AC310724AD3140300E
:105A3600AC310724AD31B3017330A7003308AC3164
:105A4600CA24AD31B2013308AC00AD012C08F70011
:105A56002D08F8000B30F9000030FA00A931322188
:105A6600AD310030AE00B030AF0077082E07B00081
:105A760078082F3DB100320830078400310803183A
:105A8600013E85000008AC310724AD310130B20774
:105A96000B303202031C262D0130B30704303302CB
:105AA600031C1F2DA8312620080000304105C9001F
:105AB60000304205CA0080304305CB007F304405E4
:105AC600CC004C084B044A044904031D722D0030D7
:105AD600C4000030C3000030C2000030C1000030F6
