:040000008031D32850
:100008007E14803100308600003087004E018C1E3F
:10001800D1288C1201304301B0070030B13DB23D08
:10002800B33D5C085B045A045904031927280130BE
:10003800D9020030DA3BDB3BDC3B5C085B045A044A
:10004800590403197C1560085F045E045D040319F4
:1000580039280130DD020030DE3BDF3BE03B600841
:100068005F045E045D040319FC14C03040019C0069
:10007800E0309D0044012B0843013302031D54283E
:1000880044012A0843013202031D54284401290867
:1000980043013102031D542844012808430130025A
:1000A800031CD1280A304401A8070030A93DAA3D05
:1000B800AB3D40018F186228013063280030F00002
:1000C8008D1A682801306928003070040038031937
:1000D800802843012F08DC002E08DB002D08DA00F9
:1000E8002C08D9002B08E0002A08DF002908DE00C8
:1000F8002808DD007C11FC1040018D1A9F28FA3079
:100108004301580203188A280130D80719305806C5
:1001180003197C174001160E0139F000FA3043012B
:100128005806031D992801309A28003070050319D4
:10013800AA28FC16AA28033043015802031CA92840
:10014800193058020318A928FC17D80140018F1844
:10015800C6281930430157020318B4280130D707BD
:1001680040010F0C890C0139F00014304301570687
:10017800031DC0280130C128003070050319D1289B
:10018800FC15D128023043015702031CD0280A303D
:1001980057020318D0287C16D7017E100900803139
:1001A800D528F5308400A8308500D9308600013084
:1001B80087001430A83151208031FC014301ED0142
:1001C8004201E801E901EA01A0308400013085001C
:1001D8003930A8314B20803120308400023085002E
:1001E8002430A8314B207E1040019431982C4430A3
:1001F8004001C1007A30C0000030BF000030BE00AE
:10020800410161084001C500410160084001C40086
:1002180041015F084001C30041015E084001C2007E
:1002280088318020803141084101E10040014008C7
:100238004101E00040013F084101DF0040013E0864
:100248004101DE0044304001C1007A30C000003076
:10025800BF000030BE00410165084001C5004101F2
:1002680064084001C400410163084001C300410122
:1002780062084001C2008831802080314108410174
:10028800E500400140084101E40040013F08410108
:10029800E30040013E084101E20061084001DB0043
:1002A800410160084001DA0041015F084001D900BE
:1002B80041015E084001D800430127084001DF00E2
:1002C800430126084001DE00430125084001DD0006
:1002D800430124084001DC008D31722580315B0820
:1002E8004201AB0040015A084201AA0040015908E6
:1002F8004201A900400158084201A80041016108D3
:100308004001DB00410160084001DA0041015F085B
:100318004001D90041015E084001D800430123088B
:100328004001DF00430122084001DE0043012108AB
:100338004001DD00430120084001DC008D317225B9
:1003480080315B084101B00040015A084101AF000B
:10035800400159084101AE00400158084101AD0073
:1003680061084001DB00410160084001DA004101F9
:100378005F084001D90041015E084001D8004201F0
:100388002B084001DF0042012A084001DE0042013B
:1003980029084001DD00420128084001DC008D31B8
:1003A800722580315B084101B40040015A084101BF
:1003B800B300400159084101B20040015808410109
:1003C800B1008B31892380313008E1002F08E0002B
:1003D8002E08DF002D08DE0065084001DB00410122
:1003E80064084001DA00410163084001D900410175
:1003F80062084001D800430127084001DF0043019B
:1004080026084001DE00430125084001DD004301C4
:1004180024084001DC008D31722580315B084201DF
:10042800AB0040015A084201AA00400159084201A4
:10043800A900400158084201A8004101650840018F
:10044800DB00410164084001DA0041016308400112
:10045800D900410162084001D80043012308400146
:10046800DF00430122084001DE004301210840016A
:10047800DD00430120084001DC008D317225803108
:100488005B084101B00040015A084101AF0040013A
:1004980059084101AE00400158084101AD00650806
:1004A8004001DB00410164084001DA0041016308B2
:1004B8004001D900410162084001D80042012B08DF
:1004C8004001DF0042012A084001DE0042012908FC
:1004D8004001DD00420128084001DC008D31722511
:1004E80080315B084101B40040015A084101B30062
:1004F800400159084101B200400158084101B100CA
:100508008B31892380313008E5002F08E4002E085C
:10051800E3002D08E20061084001DF0041016008A6
:100528004001DE0041015F084001DD0041015E0835
:100538004001DC004130DB002030DA000030D90017
:100548000030D8008D31722580315B084101B4003C
:1005580040015A084101B300400159084101B20065
:10056800400158084101B1003F30B0000030AF00F1
:100578000030AE000030AD008B3189238031300867
:10058800C4002F08C3002E08C2002D08C1008731FF
:1005980096278031410142084301CB0041014108BF
:1005A8004301CA0041016508C4006408C300630828
:1005B800C2006208C1006108C8006008C7005F087F
:1005C800C6005E08C500A43176248031031CF02AD9
:1005D8004301B401B501592B6108C0006008BF0090
:1005E8005F08BE005E08BD006508BC006408BB006B
:1005F8006308BA006208B900A931BC2180313C08FF
:100608004001DF0041013B084001DE0041013A089A
:100618004001DD00410139084001DC004130DB00C8
:100628002030DA000030D9000030D8008D31722532
:1006380080315B084201A30040015A084201A20030
:10064800400159084201A100400158084201A00098
:1006580023084101B400420122084101B3004201CC
:1006680021084101B200420120084101B1003F3098
:10067800B0000030AF000030AE000030AD008B316C
:10068800892380313008C4002F08C3002E08C20017
:100698002D08C10087319627803141014208430166
:1006A800B500410141084301B40000304101C400D4
:1006B8000030C3000030C2000030C1006108C8002B
:1006C8006008C7005F08C6005E08C500A43176242C
:1006D80080310318842B6508C4006408C3006308CC
:1006E800C2006208C1006108C8006008C7005F084E
:1006F800C6005E08C500A43176248031031C8A2B0D
:1007080010304301B6002730B700EC2B65084001D4
:10071800C500410164084001C4004101630840016B
:10072800C300410162084001C20041016108400163
:10073800C100410160084001C00041015F0840015B
:10074800BF0041015E084001BE0088318020803131
:100758004108DF004008DE003F08DD003E08DC00FD
:100768004630DB001C30DA004030D9000030D800B9
:100778008D31722580315B084101B40040015A086F
:100788004101B300400159084101B2004001580835
:100798004101B1003F30B0000030AF000030AE0082
:1007A8000030AD008B31892380313008C4002F0818
:1007B800C3002E08C2002D08C1008731962780315A
:1007C800410142084301B700410141084301B60015
:1007D8004B08803AFB003F08803A7B02031DF62B4A
:1007E8003E084A020318FC2B4301C801C90108004E
:1007F80041016508C4006408C3006308C2006208B8
:10080800C1006108C8006008C7005F08C6005E082C
:10081800C500A43176248031031C182CE73043012D
:10082800C8000330C900080061084001C100410147
:1008380060084001C00041015F084001BF0041015C
:100848005E084001BE00410165084001C500410144
:1008580064084001C400410163084001C30041012C
:1008680062084001C200883180208031410842017D
:10087800A700400140084201A60040013F0842018C
:10088800A50040013E084201A40027084101D0000C
:10089800420126084101CF00420125084101CE004E
:1008A800420124084101CD009631C9268031500803
:1008B8004201AF0041014F084201AE0041014E081C
:1008C8004201AD0041014D084201AC003F304101F9
:1008D800C0008030BF000030BE000030BD004201C3
:1008E8002F084101BC0042012E084101BB00420112
:1008F8002D084101BA0042012C084101B900A93173
:10090800BC2180313C08C4003B08C3003A08C2003F
:100918003908C1000030C8000030C7000030C600E8
:100928000030C500AD31F4258031031CA42C3A30C9
:100938004201AF008330AE001230AD006F30AC0022
:1009480042012F084101BC0042012E084101BB00B1
:1009580042012D084101BA0042012C084101B900A9
:100968003F30C0008030BF000030BE000030BD0006
:10097800A931BC2180313C084001C10041013B083C
:100988004001C00041013A084001BF004101390857
:100998004001BE003F304101B0008030AF00003060
:1009A800AE000030AD0042012F084101B400420101
:1009B8002E084101B30042012D084101B200420155
:1009C8002C084101B1008B31892380313008400166
:1009D800C50041012F084001C40041012E08400113
:1009E800C30041012D084001C200883180208031B8
:1009F80041084201AF00400140084201AE004001F9
:100A08003F084201AD0040013E084201AC002F08FA
:100A18004101C40042012E084101C30042012D08D2
:100A28004101C20042012C084101C1003F30C80009
:100A38008030C7000030C6000030C500A4317624DD
:100A480080310318302D3F304201AF008030AE00B6
:100A58000030AD000030AC0041304101C4001F300F
:100A6800C300C230C2008F30C10042012F084101CB
:100A7800C80042012E084101C70042012D0841016A
:100A8800C60042012C084101C500A43176248031FA
:100A9800031C122C42012F084001DF0042012E08DE
:100AA8004001DE0042012D084001DD0042012C0812
:100AB8004001DC004230DB00C830DA000030D900E9
:100AC8000030D8008D31722580315B084101B400B7
:100AD80040015A084101B300400159084101B200E0
:100AE800400158084101B1003F30B0000030AF006C
:100AF8000030AE000030AD008B31892380313008E2
:100B0800C4002F08C3002E08C2002D08C100873179
:100B18009627410142084301C900410141084301A8
:100B2800C800080043013A089C3E4401C400FF3055
:100B380043013B3D4401C50003304201E400083055
:100B4800E3007730890BA62DE30BA62DE40BA62D29
:100B58004401C801C901CA01CB01C601C701470840
:100B6800803A4201E30043013908803A42016302B6
:100B7800031DC22D43013808440146020318F82D0D
:100B8800AD312225853144014908803A4201E3000C
:100B980043014B08803A42016302031DD72D4301EC
:100BA8004A08440148020318E92D43014B0844014F
:100BB800C90043014A084401C800430149084401E7
:100BC800CB00430148084401CA000B304201E3004E
:100BD8006230890BED2DE30BED2D0000013044014F
:100BE800C6070030C73DB32D44014908803A420189
:100BF800E30080306302031D042E013044014802E3
:100C0800031C122E4001161E0D2EA9310921853113
:100C1800102EA531FF2585316D16262E43016D1E38
:100C2800262E6D12A831E1208531D030710744019C
:100C3800A0000730723DA1000030733DA2000030D3
:100C4800743DA3004301620844014906031D302E88
:100C5800430161084401480603195C2E43016D1DD8
:100C68003C2E2A304001AC000A30AD00B130422E93
:100C78002A304001AC000830AD00B130AE00AF0101
:100C8800AF0A00309931C521853144014908430133
:100C9800E200440148084301E100440149084001D9
:100CA800BD00440148084001BC00A13167218531DD
:100CB80044014B08803A4201E30080306302031D7F
:100CC800682E643044014A02031CA52E43014708DC
:100CD80044014B06031D742E4301460844014A068D
:100CE8000319A52E4B084301C70044014A084301D4
:100CF800C60044014908803A4201E30043013F0825
:100D0800803A42016302031D8D2E43013E084401CF
:100D1800480203189A2E430147084001BD004301C9
:100D280046084001BC00AB310723080043014708CF
:100D38004001BD00430146084001BC00AB31072318
:100D4800853143016D1D082F03304401C600003072
:100D5800C70006304001AC00CC30AD00B030AE006A
:100D68000930AF0002309931C52185311530420173
:100D7800E4004B30E300BE30890BC02EE30BC02EDD
:100D8800E40BC02E00004001AC019A30AD00B03039
:100D9800AE000930AF0002309931C52185311530D8
:100DA8004201E4004B30E300BE30890BD92EE30B3F
:100DB800D92EE40BD92E0000FF304401C607FF30BE
:100DC800C73D46084704031DAD2E0930AA317022DD
:100DD800853144014B084001BD0044014A084001E7
:100DE800BC00AB310723853115304201E4004B309C
:100DF800E300BE30890BFE2EE30BFE2EE40BFE2E25
:100E0800000043016D1108006D1C08007C180800E3
:100E180044014908803A4201E30043013F08803A0F
:100E280042016302031D1C2F43013E08440148028E
:100E3800031C080044014908803A4201E3004301C9
:100E48003D08803A42016302031D2E2F43013C08EE
:100E5800440148020318080044014B08803A420143
:100E6800E30080306302031D3C2F793044014A02BD
:100E7800031C08004301630844014A024201E300DD
:100E88004301640844014B3B4201E4004401450826
:100E9800803A4201E5006408803A6502031D572F35
:100EA800630844014402031C932F44014A08430188
:100EB80063024201E30044014B084301643B4201E1
:100EC800E40044014508803A4201E5006408803A9C
:100ED8006502031D722F630844014402031C932F0B
:100EE800E7304201E3000330E400440144084201D2
:100EF8006302E500440145084201643BE6006608D8
:100F0800803AE70044014B08803A42016702031D1A
:100F1800912F44014A084201650203180800A431D0
:100F28000F2408000310430D440D4001EE006E0825
:100F3800031DA82F00304101C4000030C300003059
:100F4800C2000030C100080041014108C500420844
:100F5800C6004308C7004408C8001F30C836C70C7D
:100F6800C60CC50C890BB22F45084001ED004101A4
:100F7800C317FF30C105FF30C205FF30C30500307D
:100F8800C40596304001EE02EE1FDD2F6E08803A50
:100F9800973E031C9E2F01304101C436C30CC20C7E
:100FA800C10C890BD02F01304001EE070319F02F37
:100FB800CF2F20306E0203189E2F6E080319F02FD2
:100FC80001304101C135C20DC30DC40D890BE52F98
:100FD80001304001EE02E12F6D08031908004101BC
:100FE800C109C209C309C409C10A0319C20A0319FC
:080FF800C30A0319C40A080032
:10100600AD01A71F1328A409A509A609A709A40AC3
:101016000319A50A0319A60A0319A70A0130AD0088
:10102600AB1F2228A809A909AA09AB09A80A03190E
:10103600A90A0319AA0A0319AB0A0130AD06003042
:10104600B1000030B0000030AF000030AE0027081D
:10105600260425042404031969280130AC00A71BC3
:101066003E280130A435A50DA60DA70D890B352800
:101076000130AC0732280130AE35AF0DB00DB10DE1
:10108600890B3F2827082B02031D532826082A020E
:10109600031D532825082902031D53282408280266
:1010A600031C5E282408A8022508A93B2608AA3B9B
:1010B6002708AB3B2E140130A736A60CA50CA40CB2
:1010C600890B5F280130AC02031D3E282D08031949
:1010D6007728AE09AF09B009B109AE0A0319AF0AFC
:1010E6000319B00A0319B10A3108A7003008A6008F
:1010F6002F08A5002E08A400080045088039CF0057
:101106004535D600C41B5614560803199828560AA6
:10111600031D95280030C5000030C4000030C30010
:101126000030C200C417C501A0280030C500003039
:10113600C4000030C3000030C20041088039CF0629
:101146004135D700C01B571457080319B828570A4A
:10115600031DB5280030C1000030C0000030BF00BC
:101166000030BE00C017C101C0280030C1000030E9
:10117600C0000030BF000030BE00410840043F04FC
:101186003E04031DDD280030C5000030C4000030D9
:10119600C3000030C2008030C4047F30C5044F084D
:1011A600C5044508C1004408C0004308BF00420802
:1011B600BE0008005608031DE9280030C1000030B3
:1011C600C0000030BF000030BE0008005608C60050
:1011D600C7014708C90057084602C800031CC903CF
:1011E60048087F3ED0000030493DD1004508CE007A
:1011F6004408CD004308CC004208CB000030C500AF
:101206000030C4000030C3000030C2000030D500FA
:101216000030D4000030D3000030D200D7011A309D
:10122600570203184C295708031930290130CB35CA
:10123600CC0DCD0DCE0D890B1A290130C235C30D4B
:10124600C40DC50D890B2129D51B42140130D23599
:10125600D30DD40DD50D890B2A2941084E02031D45
:101266003E2940084D02031D3E293F084C02031D3E
:101276003E293E084B02031C492955173E08CB025E
:101286003F08CC3B4008CD3B4108CE3B0130D70759
:1012960012294E084D044C044B04031D5214C41B62
:1012A60069290130C235C30DC40DC50D890B5529F9
:1012B600D51B42140130D235D30DD40DD50D890B73
:1012C6005E29FF30D007FF30D13D5229D701D51F07
:1012D6008229FF305205C600FF305305C700FF3094
:1012E6005405C8007F305505C9004908480447041D
:1012F600460403194218802982290130D70057086D
:101306000319A9290130C2070030C33DC43DC53DBC
:10131600451CA9294208C6004308C7004408C8005E
:101326004508C9000130CA00C937C80CC70CC60C2D
:10133600CA0B97294908C5004808C4004708C300D6
:101346004608C2000130D0070030D13D5108803A2E
:10135600C60080304602031DB229FF305002031C2E
:10136600C129FF304001D0000030D1000030C50057
:101376000030C4000030C3000030C20040015108F4
:10138600803AC60080304602031DCB290130500248
:101396000318D9294001D001D1010030C500003021
:1013A600C4000030C3000030C200CF014001500825
:1013B600D600561CE029C417E2297F30C40556081A
:1013C600C6000130C636890BE5294608C500D22875
:1013D6004101C7014708BD3E860087014708583EC0
:1013E6008400B0300318013E8500000881000130FA
:1013F600C7070A304702031CED293D08A83198208B
:1014060089314101B900BA01BB01BC013C08430165
:10141600AF0041013B084301AE0041013A084301D8
:10142600AD00410139084301AC000030F400003042
:10143600F300EA30F2006030F1002F08F8002E08C1
:10144600F7002D08F6002C08F500AB31CA238931C8
:1014560074084301AF007308AE007208AD0071084E
:10146600AC0041013E08A831982089314101B900FC
:10147600BA01BB01BC013C084301AB0041013B087A
:101486004301AA0041013A084301A9004101390874
:101496004301A8000030F4000030F300EA30F20007
:1014A6006030F1002B08F8002A08F7002908F6003A
:1014B6002808F500AB31CA23893174084301AB0013
:1014C6007308AA007208A9007108A80041013F0824
:1014D600A831982089314101B900BA013908430180
:1014E600C00041013A084301C10041014008A8314A
:1014F600982089314101B900BA0139084301BE007B
:1015060041013A084301BF0041014108A831982032
:1015160089314101B900BA013908F7003A08F800E3
:101526000A30F9000030FA00A931F621893178082D
:101536004301BD007708BC0041014208A83198204C
:1015460089314101B900BA013908F7003A08F800B3
:101556000A30F9000030FA00A931F62189317808FD
:101566004301BB007708BA0041014308A83198201F
:101576008931003A0319C22A43016D14C42A430172
:101586006D1041304001C1002030C0000030BF0066
:101596000030BE0041014408A8319820893141013C
:1015A600B900BA01BB01BC013C084001B3004101CE
:1015B6003B084001B20041013A084001B100410137
:1015C60039084001B0000130A6318A268931330836
:1015D600C5003208C4003108C3003008C200883193
:1015E6008020893141084301A3004001400843019E
:1015F600A20040013F084301A10040013E0843010B
:10160600A0003F304101B0008030AF000030AE0096
:101616000030AD0042304001C100C830C00000308B
:10162600BF000030BE0041014508A831982089312D
:101636004101B900BA01BB01BC013C084001B3003D
:1016460041013B084001B20041013A084001B100A6
:10165600410139084001B0000130A6318A2689319E
:101666003308C5003208C4003108C3003008C20080
:1016760088318020893141084101B4004001400889
:101686004101B30040013F084101B20040013E085C
:101696004101B1008B318923893130084301A7000C
:1016A60041012F084301A60041012E084301A50070
:1016B60041012D084301A40006304001A20000307C
:1016C600A30041014608A831982089314101B9009B
:1016D600BA013908F7003A08F8000A30F900003074
:1016E600FA00A931F62189317808A5007708A40007
:1016F600AF31B32723084301B90040012208430153
:10170600B8004108C5004008C40008003008803908
:10171600B5003035B700AF1B371437080319A12BB6
:10172600370A031D9E2B0030B0000030AF0000309A
:10173600AE000030AD00AF17B001A92B0030B000ED
:101746000030AF000030AE000030AD003408803904
:10175600B60036083506031D35173435B600B31BFB
:10176600361436080319C52B360A031DC22B003062
:10177600B4000030B3000030B2000030B100B3173F
:10178600B401CD2B0030B4000030B3000030B200FD
:101796000030B100370836020318F32B351FD52B5E
:1017A6008030B5063708B8003608B7003808B600E6
:1017B6002D08B8003108AD003808B1002E08B80071
:1017C6003208AE003808B2002F08B8003308AF0060
:1017D6003808B3003008B8003408B0003808B40040
:1017E600B80136084001E500E6016608E800410157
:1017F600370840016502E700031CE8036808803AE1
:10180600E90080306902031D0A2C1A306702031CA6
:10181600422C410130082F042E042D040319152CE7
:101826000130162C0030B8000030B0000030AF0098
:101836000030AE000030AD003608B700472C381C2B
:10184600302C38084001E5000130E536890B282C9C
:10185600650801384101B800322C0310B80C2D1868
:10186600B81701304001E5004101B037AF0CAE0CAE
:10187600AD0C4001E50B372C01304101B7074101A2
:1018860036083702031C222C351B802C3708031D13
:10189600552C0030B0000030AF000030AE000030F4
:1018A600AD0008003108AD073208AE3D3308AF3D44
:1018B6003408B03D301C0D2D381C6D2C3808400105
:1018C600E5000130E536890B652C650801384101D4
:1018D600B8006F2C0310B80C2D18B8170130400152
:1018E600E5004101B037AF0CAE0CAD0C4001E50B85
:1018F600742C01304101B7070D2D3008803A4001A4
:10190600E50041013408803A400165024101031DAA
:10191600962C33082F02031D962C32082E02031D27
:10192600962C31082D020318DB2CFF304001E50010
:10193600FF30E600FF30E700FF30E80041012D08E8
:1019460031024001E90041012E08323B4001EA0024
:1019560041012F08333B4001EB0041013008343B85
:101966004001EC006908E5076A08E63D6B08E73DBB
:101976006C08E83D68084101B00040016708410174
:10198600AF00400166084101AE0040016508410113
:10199600AD008030B5063803FF3AB8003808031D9D
:1019A600E32C0130AD070030AE3DAF3DB03DE32C3A
:1019B6003108AD023208AE3B3308AF3B3408B03BCA
:1019C60030082F042E042D04031D0B2D3808031D8B
:1019D6000B2D0030B0000030AF000030AE000030FC
:1019E600AD0008000130AD35AE0DAF0DB00D890B61
:1019F600F62CB81B2D14381C042D0314380DB80012
:101A0600062D0310B80D370803190B2D0130B70248
:101A1600AF1FF52CB601B81F182D38087F390319EA
:101A26002D18162D182D0130B600360803194E2D27
:101A36000130AD070030AE3DAF3DB03D301C4E2D00
:101A46002D084001E50041012E084001E600410154
:101A56002F084001E700410130084001E80001304D
:101A6600E900E837E70CE60CE50CE90B342D6808CD
:101A76004101B000400167084101AF00400166081E
:101A86004101AE00400165084101AD00370A031966
:101A96004E2D0130B707370A031D3708031D5E2D8B
:101AA6000030B0000030AF000030AE000030AD00B6
:101AB60037080319B501371C622DAF17642D7F3027
:101AC600AF0537084001E5000130E536890B682D82
:101AD60065084101B000B51F0800B01708005B0893
:101AE60080394101A00040015B354101A20040015F
:101AF600DA1F7F2D41012214410122080319922D7C
:101B0600220A031D8F2D00304001DB000030DA0071
:101B16000030D9000030D8004001DA179B2D003084
:101B26004001DB000030DA000030D9000030D80078
:101B36005F0880394101A00640015F354101A100DF
:101B46004001DE1FA82D410121144101210803197E
:101B5600BB2D210A031DB82D00304001DF000030E7
:101B6600DE000030DD000030DC004001DE17C42D51
:101B760000304001DF000030DE000030DD000030C4
:101B8600DC0041012108031D2208031DD42D00306D
:101B96004001DB000030DA000030D9000030D80008
:101BA600080040015808F1005E08AA3151228D3123
:101BB60072084101AC007108AB002B084001E0003F
:101BC600E101E201E30163084101A6004001620868
:101BD6004101A500400161084101A40040016008DF
:101BE6004101A3002C084001E000E101E201E3010C
:101BF60063084101AA00400162084101A9004001B1
:101C060061084101A800400160084101A7004001A8
:101C16005908F1005D08AA3151228D31720841013F
:101C2600AC007108AB002B084001E000E101E201C5
:101C3600E30160084101A307400161084101A43D99
:101C4600400162084101A53D400163084101A63DEE
:101C56002C084001E000E101E201E30160084101D6
:101C6600A707400161084101A83D40016208410102
:101C7600A93D400163084101AA3D40015A08F1000F
:101C86005C08AA3151228D3172084101AC007108FD
:101C9600AB002B084001E000E101E201E30160082E
:101CA6004101A307400161084101A43D40016208CA
:101CB6004101A53D400163084101A63D2C084001B4
:101CC600E000E101E201E30160084101A7074001EC
:101CD60061084101A83D400162084101A93D40015A
:101CE60063084101AA3D0830A335A40DA50DA60D34
:101CF600890B772E40015908F1005C08AA31512260
:101D06008D3172084101AC007108AB002B08A307A6
:101D16002C08A43D0030A53DA63D40015808F10021
:101D26005D08AA3151228D3172084101AC0071085B
:101D3600AB002B08A3072C08A43D0030A53DA63D0B
:101D46000830A335A40DA50DA60D890BA42E4001C0
:101D56005808F1005C08AA3151228D317208410100
:101D6600AC007108AB002B08A3072C08A43D00307B
:101D7600A53DA63D40015908F1005E08AA31512251
:101D86008D3172084101AC007108AB002B08A70722
:101D96002C08A83D0030A93DAA3D40015A08F10093
:101DA6005D08AA3151228D3172084101AC007108DB
:101DB600AB002B08A7072C08A83D0030A93DAA3D7B
:101DC60040015A08F1005E08AA3151228D3172088D
:101DD6004101AC007108AB002B084001E000410155
:101DE6002C084001E100E201E3010830E035E10D95
:101DF600E20DE30D890BF92E60084101A7074001AA
:101E060061084101A83D400162084101A93D400128
:101E160063084101AA3D26084001E000E101E20114
:101E2600E30160084101A707400161084101A83D9F
:101E3600400162084101A93D400163084101AA3DF4
:101E46000830A335A40DA50DA60D890B242F220855
:101E560021074001E000E101E10D6008823E4101F9
:101E6600AB00FF304001613D4101AC00A91B502F82
:101E76000130A735A80DA90DAA0D890B3C2FA61B6D
:101E860027140130A335A40DA50DA60D890B452FEA
:101E9600FF30AB07FF30AC3D392FA101A61F722FD3
:101EA600FF3023054001E000FF30410124054001D9
:101EB600E100FF30410125054001E2007F3041018C
:101EC60026054001E3006308620461046004031D03
:101ED6006F2F4101271C722F01304101A1002108FB
:101EE6000319A72F0130A7070030A83DA93DAA3D39
:101EF6002A1CA72F27084001E000410128084001BD
:101F0600E100410129084001E20041012A0840019F
:101F1600E3000130E400E337E20CE10CE00CE40BF3
:101F26008E2F63084101AA00400162084101A90001
:101F3600400161084101A800400160084101A70075
:101F46000130AB070030AC3D2C08803A4001E00080
:101F560080306002031DB22FFF3041012B02031CAB
:101F6600BE2F7F304101AA008030A9000030A800B2
:101F76000030A700EE2F41012C08803A4001E00016
:101F860080306002031DCA2F013041012B02031865
:101F9600D72F00304101AA000030A9000030A80068
:101FA6000030A700A001EE2F41012B08A200FF3050
:101FB600A705FF30A8057F30A9050030AA0522181D
:101FC600A91722084001E0000130E036890BE82F0E
:101FD60060084101AA002008AA042A084001DB0083
:101FE600410129084001DA00410128084001D900D1
:101FF600410127084001D8000800003400340034AD
:1020060000340034003400345F34003400340034CB
:10201600073400340734003414347F3414347F34E6
:10202600143424342A347F342A34123423341334B7
:1020360008346434623436344934553422345034E6
:102046000034053403340034003400341C342234A4
:10205600413400340034413422341C340034083412
:102066002A341C342A340834083408343E340834FC
:102076000834003450343034003400340834083422
:102086000834083408340034303430340034003432
:10209600203410340834043402343E345134493484
:1020A60045343E34003442347F34403400344234C4
:1020B60061345134493446342134413445344B3447
:1020C60031341834143412347F3410342734453400
:1020D6004534453439343C344A344934493430344F
:1020E60001347134093405340334363449344934FF
:1020F6004934363406344934493429341E340034DC
:102106003634363400340034003456343634003431
:102116000034003408341434223441341434143472
:10212600143414341434413422341434083400344E
:1021360002340134513409340634323449347934A2
:1021460041343E347E341134113411347E347F34BC
:1021560049344934493436343E34413441344134C7
:1021660022347F344134413422341C347F344934A0
:102176004934493441347F34093409340134013453
:102186003E3441344134513432347F3408340834D7
:1021960008347F34003441347F34413400342034F1
:1021A600403441343F3401347F340834143422340B
:1021B60041347F3440344034403440347F34023438
:1021C600043402347F347F340434083410347F34CA
:1021D6003E344134413441343E347F340934093489
:1021E600093406343E344134513421345E347F346C
:1021F6000934193429344634463449344934493487
:102206003134013401347F34013401343F344034F5
:10221600403440343F341F342034403420341F349B
:102226007F342034183420347F3463341434083433
:10223600143463340334043478340434033461349A
:102246005134493445344334003400347F34413406
:1022560041340234043408341034203441344134D7
:102266007F3400340034043402340134023404343C
:102276004034403440344034403400340134023475
:1022860004340034203454345434543478347F3491
:10229600483444344434383438344434443444348C
:1022A600203438344434443448347F343834543455
:1022B60054345434183408347E3409340134023426
:1022C60008341434543454343C347F3408340434DD
:1022D60004347834003444347D34403400342034BB
:1022E600403444343D34003400347F3410342834D0
:1022F6004434003441347F34403400347C34043474
:102306001834043478347C3408340434043478348F
:10231600383444344434443438347C341434143437
:102326001434083408341434143418347C347C34AB
:10233600083404340434083448345434543454349B
:10234600203404343F344434403420343C34403464
:10235600403420347C341C342034403420341C3443
:102366003C344034303440343C3444342834103423
:10237600283444340C345034503450343C344434CF
:10238600643454344C3444340034083436344134E0
:102396000034003400347F340034003400344134D7
:1023A600363408340034083408342A341C340834EB
:1023B60008341C342A340834083400340034003419
:1023C60000340034003400345F3400340034003408
:1023D600073400340734003414347F3414347F3423
:1023E600143424342A347F342A34123423341334F4
:1023F6000834643462343634493455342234503423
:102406000034053403340034003400341C342234E0
:10241600413400340034413422341C34003408344E
:102426002A341C342A340834083408343E34083438
:10243600083400345034303400340034083408345E
:10244600083408340834003430343034003400346E
:10245600203410340834043402343E3451344934C0
:1024660045343E34003442347F3440340034423400
:1024760061345134493446342134413445344B3483
:1024860031341834143412347F341034273445343C
:102496004534453439343C344A344934493430348B
:1024A600013471340934053403343634493449343B
:1024B6004934363406344934493429341E34003418
:1024C600363436340034003400345634363400346E
:1024D60000340034083414342234413414341434AF
:1024E600143414341434413422341434083400348B
:1024F60002340134513409340634323449347934DF
:1025060041343E347E341134113411347E347F34F8
:1025160049344934493436343E3441344134413403
:1025260022347F344134413422341C347F344934DC
:102536004934493441347F3409340934013401348F
:102546003E3441344134513432347F340834083413
:1025560008347F34003441347F344134003420342D
:10256600403441343F3401347F3408341434223447
:1025760041347F3440344034403440347F34023474
:10258600043402347F347F340434083410347F3406
:102596003E344134413441343E347F3409340934C5
:1025A600093406343E344134513421345E347F34A8
:1025B60009341934293446344634493449344934C3
:1025C6003134013401347F34013401343F34403432
:1025D600403440343F341F342034403420341F34D8
:1025E6007F342034183420347F3463341434083470
:1025F60014346334033404347834043403346134D7
:102606005134493445344334003400347F34413442
:102616004134023404340834103420344134413413
:102626007F34003400340434023401340234043478
:1026360040344034403440344034003401340234B1
:1026460004340034203454345434543478347F34CD
:1026560048344434443438343834443444344434C8
:10266600203438344434443448347F343834543491
:1026760054345434183408347E3409340134023462
:1026860008341434543454343C347F340834043419
:1026960004347834003444347D34403400342034F7
:1026A600403444343D34003400347F34103428340C
:1026B6004434003441347F34403400347C340434B0
:1026C6001834043478347C340834043404347834CC
:1026D600383444344434443438347C341434143474
:1026E6001434083408341434143418347C347C34E8
:1026F60008340434043408344834543454345434D8
:10270600203404343F344434403420343C344034A0
:10271600403420347C341C342034403420341C347F
:102726003C344034303440343C344434283410345F
:10273600283444340C345034503450343C3444340B
:10274600643454344C34443400340834363441341C
:102756000034003400347F34003400340034413413
:10276600363408340034083408342A341C34083427
:0A27760008341C342A3408340834F7
:10278200F200F40171080319DE2B0130F300F11B92
:10279200CF2B0310F10D0130F307C82B0310F40DFA
:1027A20071087202031CD92B7108F202741403100F
:1027B200F10C0130F302031DCF2B74080800A9317C
:1027C200A02193314D084F06031DE92B4C084E06FC
:1027D2000319142C4F08CD004E08CC004F084001BD
:1027E200AD0043014E084001AC009A31BD22933145
:1027F20043014F08803A4001C3008E304302031D5B
:10280200052CD93043014E0203180F2C4301400816
:10281200013EC4000030413DC500142C4301410873
:10282200C5004008C400003098313D209331430177
:102832004F08803A4001C3008E304302031D242C0E
:10284200753043014E02031C362C400197111716B6
:1028520002304001C4003830C300AD30890B2F2C48
:10286200C30B2F2CC40B2F2C532C43014F08803A3F
:102872004001C3008E304302031D422C0730430146
:102882004E02031C572C40019711171202304001CF
:10289200C4003830C300AD30890B4D2CC30B4D2C16
:1028A200C40B4D2C400197151716692C40011712C5
:1028B200971502304001C4003830C300AD30890B97
:1028C200602CC30B602CC40B602C400117169715AB
:1028D20043014F08803A4001C3008D304302031D7B
:1028E200752C483043014E0203180800AA31B52264
:1028F20093314001AC018E30AD00B030AE000B30F0
:10290200AF0001309931C521933152304001C400EA
:102912002B30C3000030890B8C2CC30B8C2CC40BC6
:102922008C2C000040011612A331AA230800A0310A
:10293200752094318931EB219431AE313C269431AA
:10294200003A0319AA2C78304301D0000030D1009C
:10295200AF2C4201EA01E901E8017C105001931C0D
:10296200B42C131CBD2C42016908F4006808F50060
:102972006A089831D920943140011716191543017C
:10298200ED14A531FF259431A031C3209431A83133
:102992003F20943143016D11A93109219431500135
:1029A2000C146400A831E12094314401330874020C
:1029B200031DE52C32087302031DE52C3108720257
:1029C200031DE52C30087102031CF52CB830B0074A
:1029D2000B30B13D0030B23D0030B33D9331E023C6
:1029E2009431A93185219431A831E12094314401F7
:1029F2002F087402031D072D2E087302031D072DD5
:102A02002D087202031D072D2C087102031C262DAE
:102A12002C30AC070130AD3D0030AE3D0030AF3D53
:102A22008531962594314301ED1E252D0130D607BF
:102A320003305602031C212DA13113219431262D7E
:102A4200AC31E2249431262DD601A831E120943113
:102A5200440123087402031D382D22087302031D4A
:102A6200382D21087202031D382D20087102031C23
:102A7200452D4001161E452D430161086204031DC8
:102A8200452DA13113219431A831E1209431440123
:102A920027087402031D572D26087302031D572DA4
:102AA20025087202031D572D24087102031C5C2D98
:102AB200AC31E224943143012F082E042D042C045E
:102AC200031D7C1D662D4001161243012B082A04AA
:102AD20029042804031DFC1C712DA331AA2394315F
:102AE200FC1F7D2D4001161E7A2DA8314320943102
:102AF2007D2DA531FF2594317C1F892D4001161EA5
:102B0200862DA4310F249431892DA531FF259431CE
:102B1200FC1E952D4001161E922DAA3132229431AF
:102B2200952DA531FF2594317C1EA02D4001161A4A
:102B32009D2DA531FF259431A83147209431FC1DEC
:102B4200D22C4001161AAC2DAF311A279431A5317F
:102B5200FF259431D22CA4310F249431D22C42017E
:102B6200C1000030BB000030BA000030B9000030B4
:102B7200B8000030BF000030BE000030BD000030A1
:102B8200BC00C001410840020318062EA431F12402
:102B9200953124084101E600400125084101E70082
:102BA2000030E71BFF30E800E90066084201B80781
:102BB200410167084201B93D410168084201BA3D3D
:102BC200410169084201BB3DA531782595312408B0
:102BD2004101E600400125084101E7000030E71B02
:102BE200FF30E800E90066084201BC0741016708BE
:102BF2004201BD3D410168084201BE3D41016908F3
:102C02004201BF3D0130C007C32D41084101E6002A
:102C1200E701E801E90169084001B30041016808E0
:102C22004001B200410167084001B100410166085C
:102C32004001B0000130A6318A2695313308C10027
:102C42003208C0003108BF003008BE0042013B0814
:102C52004001B30042013A084001B2004201390882
:102C62004001B100420138084001B0000030A631F5
:102C72008A2695313308C5003208C4003108C300E2
:102C82003008C20088318020953141084201B300EA
:102C9200400140084201B20040013F084201B10038
:102CA20040013E084201B00041084101E600E7014F
:102CB200E801E90169084001B300410168084001E7
:102CC200B200410167084001B100410166084001BC
:102CD200B0000130A6318A2695313308C10032088E
:102CE200C0003108BF003008BE0042013F08400169
:102CF200B30042013E084001B20042013D084001DA
:102D0200B10042013C084001B0000030A6318A26E1
:102D120095313308C5003208C4003108C3003008B9
:102D2200C20088318020953141084201B70040013C
:102D320040084201B60040013F084201B50040018F
:102D42003E084201B40033084101E1004201320869
:102D52004101E000420131084101DF004201300837
:102D62004101DE00420137084101E5004201360817
:102D72004101E400420135084101E3004201340807
:102D82004101E2008031FB209531A8318720080003
:102D92000030C4000030C3000030C2000030C10067
:102DA2005008C8004F08C7004E08C6004D08C500AD
:102DB200A43176249631031CE72E0030D000003077
:102DC200CF000030CE000030CD000800403040017E
:102DD200C1000030C0000030BF000030BE003F30F4
:102DE2004101B0008030AF000030AE000030AD00D5
:102DF2005008B4004F08B3004E08B2004D08B100AD
:102E02008B318923963130084001C50041012F08DA
:102E12004001C40041012E084001C30041012D08B8
:102E22004001C20088318020963141084101DD0015
:102E3200400140084101DC0040013F084101DB0044
:102E420040013E084101DA00D5015D08B0005C088E
:102E5200AF005B08AE005A08AD005D084001C1003A
:102E620041015C084001C00041015B084001BF0014
:102E720041015A084001BE00410150084001C5000D
:102E820041014F084001C40041014E084001C30006
:102E920041014D084001C20088318020963141082D
:102EA2004101B400400140084101B30040013F0824
:102EB2004101B20040013E084101B1008B3189233A
:102EC20096313008D4002F08D3002E08D2002D08E6
:102ED200D10040304001C1000030C0000030BF00CE
:102EE2000030BE00410154084001C50041015308B1
:102EF2004001C400410152084001C3004101510890
:102F02004001C20088318020963141084101D90038
:102F1200400140084101D80040013F084101D7006B
:102F220040013E084101D6005908BC005808BB00C8
:102F32005708BA005608B9005D08C0005C08BF0017
:102F42005B08BE005A08BD00A931BC2196313C087D
:102F5200C4003B08C3003A08C2003908C100383037
:102F62004001DB00D130DA00B730D9001730D80089
:102F720041015D084001DF0041015C084001DE00C3
:102F820041015B084001DD0041015A084001DC00BB
:102F92008D31722596315B084101C80040015A0803
:102FA2004101C700400159084101C60040015808CB
:102FB2004101C500A431762496310318E92F59083E
:102FC200D0005808CF005708CE005608CD000800A0
:102FD2005908DD005808DC005708DB005608DA0003
:102FE2000130D50714305502031C262F5D08D0008E
:0E2FF2005C08CF005B08CE005A08CD00080036
:103006004001C10097117C1C0F28410803190F28A5
:10301600AB31362398311228A031272098310D3054
:103026004001C0002D30BF00D730890B1828BF0BD8
:103036001828C00B1828003240019715FC137C1283
:103046004301D801A831E120983174084401B30046
:103056007308B2007208B1007108B000A831E1200F
:1030660074084401AF007308AE007208AD00710821
:10307600AC0008004001A700161E0800A931362141
:1030860098317830AC31A3249831003A03194D2891
:103096004301ED160030AC31A3249831A801E3308A
:1030A600AC31A32498310130A80706302802031C4E
:1030B6005228270803198328AE30AC31A32498314F
:1030C600D530AC31A32498318030AC31A32498316B
:1030D6008D30AC31A32498311430AC31A32498310F
:1030E600D930AC31A3249831F130AC31A3249831D6
:1030F600DB30AC31A32498314030AC31A324983175
:10310600A830AC31A32498313F30AC31A324983198
:10311600D330AC31A32498314030AC31A32498315C
:103126004030AC31A32498318130AC31A32498319E
:10313600FF30AC31A32498312030AC31A324983130
:103146000230AC31A32498312130AC31A32498311C
:103156000030AC31A32498317F30AC31A3249831B0
:103166002E30AC31A3249831A030AC31A324983151
:10317600C030AC31A3249831DA30AC31A324983175
:103186000230AC31A3249831A430AC31A324983159
:10319600A630AC31A32498312708031DD628AF30BA
:1031A600AC31A3249831A831BB200800F70077186A
:1031B600DF2840019917E128400199137708F600A6
:1031C6000130F636890BE4287618EC2840011917E9
:1031D600EE28400119137708F6000230F636890BFF
:1031E600F1287618F92840019916FB284001991212
:1031F6007708F6000330F636890BFE28761806297E
:10320600400119160829400119127708F600043002
:10321600F636890B0B2976181329400198171529BC
:10322600400198137708F6000530F636890B182901
:10323600761820294001181722294001181377080B
:10324600F6000630F636890B252976182D29400119
:1032560098162F29400198127418342940019616A1
:103266003629400196127408F6000130F636890BAD
:1032760039297618412940019A14432940019A10A8
:103286007408F6000230F636890B462976184E2960
:10329600400196175029400196137408F600033032
:1032A600F636890B532976185B29400116175D29D6
:1032B600400116137408F6000430F636890B6029AF
:1032C60076186829400118146A29400118107408F4
:1032D600F6000530F636890B6D29761875294001FA
:1032E60098147729400198107408F6000630F636CF
:1032F600890B7A29761882294001181584294001FC
:103306001811750C031C1A1003181A149915430189
:103316004508F2004408F100A831A920983140017F
:1033260099111A30890B9529003240011812430170
:103336004508F2004408F100A831A920983140015F
:10334600181643014508F2004408F100A831A920E7
:1033560098314001991319139912191298131813D9
:10336600981296129A109613161318109810181190
:103376001A101530F600C630890BBF29F60BBF2987
:1033860000320800B700161E0800A931362199310F
:103396007830AC31A32499314030AC31A324993133
:1033A6002C08A7003708AD3166259931BA012F08D8
:1033B6003A020318452A3A082D0784002E080318F6
:1033C600013E85001200031DEA29B601F4293A08D8
:1033D6002D0784002E080318013E85000008E03EF4
:1033E600B600BB013608B000B1013008F70031085D
:1033F600F8000530F9000030FA00A931F6219931BC
:103406000030B2009030B30077083207B400780875
:10341600333DB5003B083407840035080318013EE8
:1034260085000008B800023037060319202A38083C
:103436000F39AA31142299312B2A38080739AA31B3
:1034460014229931B0000230B035890B272A300892
:10345600B9003908AC31A32499313908AC31A32419
:1034660099310130BB0705303B02031CF5290030BA
:10347600AC31A32499310030AC31A3249931013009
:10348600BA07DA292C08A7003708013EAD316625B0
:103496009931BA012F083A020318BA2A3A082D07B9
:1034A60084002E080318013E85001200031D5D2AC4
:1034B600B601672A3A082D0784002E080318013E34
:1034C60085000008E03EB600BB013608B000B10139
:1034D6003008F7003108F8000530F9000030FA002E
:1034E600A931F62199310030B2009030B300770847
:1034F6003207B4007808333DB5003B083407840032
:1035060035080318013E85000008B800023037066A
:103516000319952A3808B0000430B036890B902A72
:1035260030089D2A3808B0000330B036890B982A37
:1035360030080F39AA3114229931B9003908AC3153
:10354600A32499313908AC31A32499310130BB0742
:1035560005303B02031C682A0030AC31A3249931A4
:103566000030AC31A32499310130BA074D2AA83175
:10357600BB200800161E0800A93136219A31783082
:10358600AC31A3249A314030AC31A3249A310A30AD
:10359600A2000030A3002D08A5002C08A400AF311E
:1035A600B3279A312308AD002208AC002D08803AD3
:1035B600AE0081302E02031DE22A2C302C020318A5
:1035C600E62A2C30F32A40012D08803AAE008130DD
:1035D6002E02031DF02AA5302C02031CF72AA43064
:1035E6004001AC000130AD0040012C08D43EAC00D7
:1035F600FE302D3DAD002D08AF002C08AE00053085
:10360600AE35AF0D890B032B2E08AC002F08AD008D
:103616007830A2000030A3002D08A5002C08A400D5
:10362600AF31B3279A312208B40019303402031C93
:10363600252B3408E83EB0000830B1000830B2004F
:1036460008303A2B11303402031C2D2BB0013408FC
:10365600F03E202B09303402031C362BB001B10199
:103666003408F83E222BB001B101B2013408B30090
:103676003008A9311F219A314001B60036080338B7
:10368600B6007730A7000030AD3166259A3136088E
:10369600AC31A3249A313608AC31A3249A313608CA
:1036A600AC31A3249A3136081F38B6007530A7000E
:1036B6000030AD3166259A313608AC31A3249A31F3
:1036C6003608AC31A3249A317A30A7000030AD31E8
:1036D60066259A313608AC31A3249A313608AC31C6
:1036E600A3249A313108A9311F219A314001B6002D
:1036F6007530A7000130AD3166259A31B50136081F
:10370600AC31A3249A310130B50707303502031CCA
:10371600822B3208A9311F219A314001B60075303B
:10372600A7000230AD3166259A31B5013608AC31B5
:10373600A3249A310130B50707303502031C992BB3
:103746003308A9311F219A314001B6003608C03826
:10375600B6007530A7000330AD3166259A31B50144
:103766003608AC31A3249A310130B507073035024B
:10377600031CB32BA831BB200800FF304201D10047
:103786007F30D200FF30D3007F30D400A131C22178
:103796009B31A23122229B31A73117279B3143014E
:1037A6004908803A4201C80080304802031DDE2BDA
:1037B600793043014802031C0800430137084201DF
:1037C600D000430136084201CF006A08C9006908E3
:1037D600CA00033069020318212C03306A02031859
:1037E600212CE901EA016908F4006808F5006A0875
:1037F6009831D9209B31A23122229B31A131C2219D
:103806009B31A73117279B3143014908803A420172
:10381600C80080304802031D132C7930430148024A
:10382600031C0800430137084201D2004301360851
:103836004201D1006A08CB006908CC000330690256
:103846000318532C03306A020318532CE901EA01CA
:103856006908F4006808F5006A089831D9209B3198
:10386600A231E4229B31A73117279B314301490836
:10387600803A4201C80080304802031D452C793049
:1038860043014802031C0800430137084201D400E3
:10389600430136084201D3006A08CD006908CE000C
:1038A6005208803AC8005008803A4802031D5D2C31
:1038B6004F085102031C712C42015408803AC8007B
:1038C6005008803A4802031D6A2C4F085302031C15
:1038D600712C42014A08E9004908AE2C4201500801
:1038E600803AC8005208803A4802031D7C2C5108D1
:1038F6004F02031C902C42015408803AC80052081B
:10390600803A4802031D892C51085302031C902C4F
:1039160042014C08E9004B08AE2C42015008803A9F
:10392600C8005408803A4802031D9B2C53084F02D6
:10393600031CAF2C42015208803AC8005408803A52
:103946004802031DA82C53085102031CAF2C420148
:103956004E08E9004D08EA004201510A7F3003197A
:103966005206031DBC2C530A7F3003195406031953
:1039760008006908F4006808F5006A089831D9203B
:10398600080042016908CB0043015208031DD92CE7
:103996000A30F100420169089331C1239C31C2000B
:1039A600C3014208C5004308C600DE2C01304201AF
:1039B600C5000030C6004508CE004E08031DE52CA4
:1039C6000130CE00A73117279C3143013708420149
:1039D600CD00430136084201CC004E08E9076908CC
:1039E600F4006808F5006A089831D9209C31A7319F
:1039F60017279C3142014D08803AC200430137081F
:103A0600803A42014202031D0C2D43013608420151
:103A16004C02031C762D430137084201CD004301B9
:103A260036084201CC006908CB004E08E907003091
:103A3600C3004E087F3CC200031CC3034308803A00
:103A4600C40080304402031D2A2D6908420203186F
:103A5600FC1BCD2DFC1ACD2D42016908F400680827
:103A6600F5006A089831D9209C31A73117279C3177
:103A760042014D08803AC20043013708803A4201AC
:103A86004202031D4A2D4301360842014C02031C23
:103A9600CD2D42016908CB00430137084201CD0014
:103AA600430136084201CC0043015208031D692D2B
:103AB6000A30F100420169089331C1239C31C200EA
:103AC600C3014208C7004308C8006E2D01304201F9
:103AD600C7000030C8004708CE004E08031D182D49
:103AE6000130CE00182D430137084201CD004301B5
:103AF60036084201CC00A82D42016908CB004301DB
:103B060037084201CD00430136084201CC0043018B
:103B16005208031D9C2D0A30F100420169089331B9
:103B2600C1239C31C200C3014208C9004308CA0030
:103B3600A12D01304201C9000030CA004908CE005B
:103B46004E08031DA82D0130CE004E08E9024E088E
:103B560069020318FC1BCD2DFC1ACD2D6908F40053
:103B66006808F5006A089831D9209C31A7311727D3
:103B76009C3142014D08803AC20043013708803A21
:103B860042014202031DCB2D4301360842014C027D
:103B960003187F2D42014B08E9006908F400680804
:103BA600F5006A089831D920080042016A08CB005E
:103BB60043015208031DED2D0A30F10042016A0847
:103BC6009331C1239D31C200C3014208C500430899
:103BD600C600F22D01304201C5000030C60045087E
:103BE600CE004E08031DF92D0130CE00A731172750
:103BF6009D31430137084201CD0043013608420199
:103C0600CC004E08EA076908F4006808F5006A085F
:103C16009831D9209D31A73117279D3142014D0892
:103C2600803AC20043013708803A42014202031D2E
:103C3600202E4301360842014C02031C8A2E430102
:103C460037084201CD00430136084201CC006A081C
:103C5600CB004E08EA070030C3004E087F3CC20086
:103C6600031CC3034308803AC40080304402031D8A
:103C76003E2E6A0842020318FC1BE12EFC1AE12EB6
:103C860042016908F4006808F5006A089831D920ED
:103C96009D31A73117279D3142014D08803AC20058
:103CA60043013708803A42014202031D5E2E43015A
:103CB600360842014C02031CE12E42016A08CB0081
:103CC600430137084201CD00430136084201CC00CA
:103CD60043015208031D7D2E0A30F10042016A0895
:103CE6009331C1239D31C200C3014208C700430876
:103CF600C800822E01304201C7000030C8004708C4
:103D0600CE004E08031D2C2E0130CE002C2E430172
:103D160037084201CD00430136084201CC00BC2ED3
:103D260042016A08CB00430137084201CD00430136
:103D360036084201CC0043015208031DB02E0A305A
:103D4600F10042016A089331C1239D31C200C301CB
:103D56004208C9004308CA00B52E01304201C90015
:103D66000030CA004908CE004E08031DBC2E0130A3
:103D7600CE004E08EA024E086A020318FC1BE12E2A
:103D8600FC1AE12E6908F4006808F5006A08983103
:103D9600D9209D31A73117279D3142014D08803A20
:103DA600C20043013708803A42014202031DDF2E5A
:103DB6004301360842014C020318932E42014B0878
:103DC600EA006908F4006808F5006A089831D92005
:103DD6000800FF304201E0007F30E100A7311727DD
:103DE6009E3143014908803A4201D600803056028E
:103DF600031D002F793043014802031C08004301CC
:103E06005008510403195A2F42016A08690403191C
:103E16005A2F43014908803A4201D60081305602A2
:103E2600031D182FF5304301480203185A2FAC31F1
:103E36002F249E31A73117279E3143014908803A26
:103E46004201D60080305602031D2C2F79304301E3
:103E56004802031C080043015008143E4201D600E4
:103E660000304301513D4201D7005708803AD8003F
:103E760043014908803A42015802031D462F430177
:103E860048084201560203180800FC1B0800FC1AE9
:103E96000800430137084201E100430136084201A8
:103EA600E0006A08DE006908DD006808DF004301FB
:103EB600D001D101AB31FC239E31A73117279E31AA
:103EC60043014908803A4201D60080305602031D5C
:103ED6006F2F793043014802031C0800430137085D
:103EE6004201DA00430136084201D9006908DB00C5
:103EF6006A08DC006803031D822FE801842F013065
:103F0600E800AB31FC239E31A73117279E314201D1
:103F16005A08803AD60043013708803A42015602D1
:103F2600031D992F43013608420159020318B22F87
:103F360042016803031DA12FE801A32F0130E80009
:103F46005B08E9005C08EA006908F4006808F50007
:103F56006A089831D9209E31A73117279E3143012F
:103F66004908803A4201D60080305602031DBE2F12
:103F7600793043014802031C0800AC312F249E31DE
:103F8600A73117279E3142016108803AD6004301C6
:103F96003708803A42015602031DD52F43013608E1
:103FA60042016002031CFC1BEC2FFC1AEC2F4201A1
:103FB6005E08EA005D08E9005F08E8006908F400A9
:103FC6006808F5006A089831D9209E31A73117276D
:103FD6009E31E73043014806033003194906031DA5
:103FE60008004201EA01E901E8016908F4006808ED
:0A3FF600F5006A089831D920080090
:10400200F300410193137308603903191D28731BD0
:104012000C2801300D280230F1000030F20052016C
:104022000C087106FC3971068C008C170C1F1728BE
:10403200033041019A001E289A01940195019601CC
:104042009D019C0114309300931708007C183A28B4
:1040520042016A084301D500420169084301D400C4
:10406200420168084301D3006408C3006308C20028
:104072007C144201EA01E901E8016908F4006808D8
:10408200F5006A089831D920A031A3314623A03126
:10409200AC01C230AD00B030AE000930AF0002302A
:1040A2009931C521A03119304001BE005A30BD00FE
:1040B200B130890B5A28BD0B5A28BE0B5A28003240
:1040C2000530AA317022A0314301C601C7013C303C
:1040D2004001AC00FF30AD00B030AE000430AF00A4
:1040E20002309931C52108007E01B801C301431491
:1040F200C3144315CE01E401D90153019013941363
:1041020040018C018D018E018F0190019601970172
:1041120010309800063099009A01910127309200E0
:104122009301940195017E013A15BA15DB145B15D2
:1041320040019F121F179F131E16C0309C00E030D3
:104142009D004E018C1240019E174E0196161E30A4
:104152004F019600FE309700473098007F3099005B
:1041620077309A00DF309B008B170530F2000F305A
:10417200F100F130890BBB28F10BBB28F20BBB28F5
:10418200000008004001C001C10150019318CD2870
:104192004001C001C101E4281318D4289030400125
:1041A200C000B030E328131ADB28D6304001C0002B
:1041B200B030E328931BDF28131FE428E0304001CE
:1041C200C000B030C1003F305001930040014008B0
:1041D200410403190800AC014108AE004008AD00DB
:1041E2000930AF0002309931C521A031523040016F
:1041F200BF002B30BE000030890BFD28BE0BFD280E
:10420200BF0BFD2800000530AA317022A031430106
:1042120047084001BD00430146084001BC00AB31E4
:10422200072308008B135C084001C50043015B08AB
:104232004001C40043015A084001C3004301590828
:104242004001C200430160084001C90043015F0808
:104252004001C80043015E084001C70043015D08F8
:104262004001C6008B1716120D304001C1002D30DF
:10427200C000D730890B3B29C00B3B29C10B3B291E
:104282000032A531FF258B13400145084301DC00B4
:10429200400144084301DB00400143084301DA00C6
:1042A200400142084301D900400149084301E000AE
:1042B200400148084301DF00400147084301DE0096
:1042C200400146084301DD008B1708003C083D040D
:1042D200031D77293C30AC000430AD00B130AE0094
:1042E2000330AF0000309931C521080000303D0293
:1042F2000A3003193C0203188E293D08F9003C08D4
:10430200F8003430FA00A2318222A1313030440167
:10431200BC002E30BD003908B42900303D026430A3
:1043220003193C020318A1293D08F9003C08F800D2
:104332003430FA00A2318222A1314401380889299D
:104342000530BC070030BD3D3D08F9003C08F800CF
:104352003430FA00A2318222A13120304401BC0063
:104362003708BD003808BE003C304001AC003C308C
:10437200AD000230AE000330AF0000309931C521EC
:1043820008004201C501A7311727A13143013708AF
:104392004201C700430136084201C6000130E9006C
:1043A200DF2942016908C500430137084201C700FD
:1043B200430136084201C6000310E90D413069028B
:1043C200031CFC1B172AFC1A172A6908F400680848
:1043D200F5006A089831D920A131A7311727A131F8
:1043E200420147084001B300420146084001B200C1
:1043F200AE318426A1314201460840013207420112
:10440200C20047084001333D4201C3004308803ADD
:10441200C40043013708803A42014402031D152AB1
:1044220043013608420142020318D22942014508DB
:10443200E9006908F4006808F5006A089831D92093
:1044420008004201C501A7311727A23143013708ED
:104452004201C700430136084201C6000130EA00AA
:104462003F2A42016A08C500430137084201C700DA
:10447200430136084201C6000310EA0D41306A02C8
:10448200031CFC1B772AFC1A772A6908F4006808C7
:10449200F5006A089831D920A231A7311727A23135
:1044A200420147084001B300420146084001B20000
:1044B200AE318426A2314201460840013207420150
:1044C200C20047084001333D4201C3004308803A1D
:1044D200C40043013708803A42014402031D752A91
:1044E20043013608420142020318322A42014508BA
:1044F200EA006908F4006808F5006A089831D920D2
:104502000800F91F862A0130872A0030A2002208FB
:10451200031D902A7908A4007808A3009B2A780931
:10452200A0007909A100A00A0319A10A2008A3008A
:104532002108A400A5017A08250786000230870019
:10454200203081000130A50706302502031C9C2A79
:104552007A08063E86000230870081010530A500F8
:104562007A0825078600023087000A30F100003001
:10457200F2002408F4002308F300AA31DD22A2315C
:104582007108303E81000130A5020A30F10000308E
:10459200F2002408F4002308F300AB319823A2317F
:1045A2007208A4007108A30023082404031DB12A81
:1045B2002208031908007A082507860002308700BE
:1045C2002D30810008004201C701A7311727A2310F
:1045D200430137084201C600430136084201C500C3
:1045E2000130EA00012B42016A08C7004301370883
:1045F2004201C600430136084201C5000310EA0D1C
:1046020041306A02031CFC1B392BFC1A392B6A0845
:10461200F4006808F5006A089831D920A231A73160
:104622001727A231420146084001B3004201450862
:104632004001B200AE318426A23142014508400158
:1046420032074201C20046084001333D4201C30025
:104652004308803AC40043013708803A42014402C9
:10466200031D372B43013608420142020318F42A84
:1046720042014708EA004708E9006908F4006808AF
:10468200F5006A089831D9200800A5304001A00041
:1046920042016A084001A100420169084001A200EA
:1046A200420168084001A30000307C180130A400D8
:1046B200430155084001A500430154084001A600EA
:1046C200430153084001A7002030F100A8316620C1
:1046D200A331A800A90150019E186C2B1E1740019E
:1046E200290850019A0070309B001E1440012908CD
:1046F200203E86008701010850011C060319A22BE7
:104702009E18812B1E174001290850019A00703013
:104712009B009D0140012908203E86008701010877
:1047220050019C0003108B1B03148B131E15553074
:104732009F00AA309F009E149E189D2B1E110318E5
:104742008B1701304001A90709302902031808001C
:104752006C2B50010C108B1340019E134E018C12D6
:1047620016167E01CA12C91640011612171697159F
:10477200C2014208031DCC2B05304001C1000F309D
:10478200C000F130890BC32BC00BC32BC10BC32B51
:104792007E01CA126300000005304001C1000F30E3
:1047A200C000F130890BD32BC00BD32BC10BD32B01
:1047B20040018D1ADF2B0130C207E02BC2011030FD
:1047C2004202031CBA2B4E0116127E01C912CA12F2
:1047D20040019E178B174301ED14A531FF25A3312C
:1047E20040018D1AF62B6400F12B4301D801FC1312
:1047F2007C13FC128B1333084401AB0043013208D3
:104802004401AA00430131084401A90043013008D0
:104812004401A8008B1750010C14080040019711A5
:10482200AC01B830AD00B030AE000930AF0002309C
:104832009931C521A431400119117C109E31EC2619
:10484200A43143014908803A4201E2008030620209
:10485200031D2E2C013043014802031C3E2C430150
:104862004908803A4201E20083306202031D3C2C77
:10487200E73043014802031C422C4301D001D1011D
:10488200472C43014908D1004808D000A3314623F0
:10489200A43143016D164908C7004808C6004908FB
:1048A200E4004808E300AC31E224A43140011915C8
:1048B20097157C13FC114301D801A831E120A431E2
:1048C20074084401B3007308B2007208B1007108A1
:1048D200B000A831E12074084401AF007308AE00B3
:1048E2007208AD007108AC00080000304105C90033
:1048F20000304205CA0080304305CB007F304405BA
:10490200CC004C084B044A044904031D902C00308F
:10491200C4000030C3000030C2000030C1000030CB
:104922004505C90000304605CA0080304705CB0066
:104932007F304805CC004C084B044A044904031D4F
:10494200AA2C0030C8000030C7000030C60000307A
:10495200C500C41FC42C0030C9000030CA0000309A
:10496200CB008030CC004108C9024208CA3B430850
:10497200CB3B4408CC3B4C08C4004B08C3004A085C
:10498200C2004908C100C81FDE2C0030C900003037
:10499200CA000030CB008030CC004508C90246086E
:1049A200CA3B4708CB3B4808CC3B4C08C8004B08E5
:1049B200C7004A08C6004908C5008030C4068030D6
:1049C200C80648084402031D080047084302031DA5
:1049D200080046084202031D08004508410208007B
:1049E2002030A0310120A431A0300032890BF62CF6
:1049F2000830A8317620A43172084001AB0071085A
:104A0200AA002A0A033003192B06031D192D403070
:104A1200A0310120A431A0300032890B0D2D0830C5
:104A2200A8317620A43171354001AA00720DAB0085
:104A3200FE302A06073003192B06031D732D103092
:104A4200A0310120A431A0300032890B252D08307D
:104A5200A8317620A43172084001AB007108AA0087
:104A62002A0A033003192B06031D392D43016D1544
:104A7200A931A021A43140012A08F1002B08F2003B
:104A8200F301F40143014E08F5004F08F600890DC9
:104A9200893B8909F700F800AB31CA23A4317408B5
:104AA200AF007308AE007208AD007108AC002C08AC
:104AB200A6002D08A7002E08A8002F08A9000A307A
:104AC200A936A80CA70CA60C890B612D2908AF00EA
:104AD2002808AE002708AD002608AC002D08AB0060
:104AE2002C08AA002B08A5002A08A40008002030E0
:104AF200A0310120A531A0300032890B7D2D0A3072
:104B0200A8317620A53172084001AB007108AA00D5
:104B12002A0A033003192B06031DA02D4030A031B1
:104B22000120A531A0300032890B942D0A30A83122
:104B32007620A53171354001AA00720DAB00FE301E
:104B42002A06073003192B06031DFA2D1030A03157
:104B52000120A531A0300032890BAC2D0A30A831DA
:104B62007620A53172084001AB007108AA002A0A1A
:104B7200033003192B06031DC02D43016D15A93106
:104B8200A021A53140012A08F1002B08F200F3010F
:104B9200F40143014E08F5004F08F600890D893BE8
:104BA2008909F700F800AB31CA23A5317408AF00B8
:104BB2007308AE007208AD007108AC002C08A600A4
:104BC2002D08A7002E08A8002F08A9000A30A93630
:104BD200A80CA70CA60C890BE82D2908AF00280801
:104BE200AE002708AD002608AC002D08AB002C084B
:104BF200AA002B08A5002A08A400080040011616E6
:104C020009304001BF001E30BE00E430890B072E80
:104C1200BE0B072EBF0B072E0000A9314F21A53175
:104C220068304001BE00E430890B152EBE0B152EF4
:104C32000000AB316723A5314301ED1C282EAC31B6
:104C42006524A5314301ED10AA31B522A531AF315A
:104C52006627A5310F304301CC002730CD006430E8
:104C6200E3000030E4000F30E1002730E200C6012B
:104C7200C70147084001BD00430146084001BC008E
:104C8200AB310723A531A831E120A53101307107ED
:104C92004401B0000030723DB1000030733DB200FB
:104CA2000030743DB300A831E120A53174084401FD
:104CB200AF007308AE007208AD007108AC00A831F5
:104CC200E120A531303071074401A4007530723DF6
:104CD200A5000030733DA6000030743DA700A83146
:104CE200E120A531C03071074401A0002730723D98
:104CF200A1000930733DA2000030743DA3004301BE
:104D0200D601FC137C13FC127C12FC11A93109217F
:104D12000800B8003808031DB31F9F2E3009BA00DF
:104D22003109BB003209BC003309BD00BA0A0319BC
:104D3200BB0A0319BC0A0319BD0AA72E3308BD001A
:104D42003208BC003108BB003008BA003308320414
:104D520031043004031DB62E0030B3000030B2001F
:104D62000030B1000030B00008009630B900FE30CB
:104D72003D050319D52E0130B9070130BD36BC0CF3
:104D8200BB0CBA0C890BBF2EB82E0130B90701300B
:104D9200BA070030BB3DBC3DBD3D0130BD36BC0C49
:104DA200BB0CBA0C890BCF2EFF303D050319E72E41
:104DB200C62E02303902031CE92E0130B90201303D
:104DC200BA35BB0DBC0DBD0D890BE12EBC1FDA2E11
:104DD2003918F32EFF30BA05FF30BB057F30BC0512
:104DE200FF30BD050310B90C3908B400B501B60196
:104DF200B7011830B435B50DB60DB70D890BFB2EC2
:104E02003408BA043508BB043608BC043708BD04AC
:104E12003808031DB31F0E2FBD173D08B3003C0811
:104E2200B2003B08B1003A08B000080096304101D8
:104E3200EC000030ED002C30EA000130EB004301C1
:104E4200CA01CB01C801C9014101EE01EF014301D1
:104E52004B08803A4001EF0043013F08803A40018D
:104E62006F02031D372F43013E084A020318EE2F3B
:104E72006400FC1B3E2FFC1E462F4301C801C901E2
:104E82001030B6002730B7000800AD312225A73117
:104E920043013F08803A4001EF0043014B08803A4A
:104EA20040016F02031D582F43014A083E020318B6
:104EB200702F43013508803A4001EF0043013D085D
:104EC200803A40016F02031D692F43013C083402FE
:104ED2000318702F08309531B025A7317C2F06308A
:104EE2004001EF003030890B742FEF0B742F00005C
:104EF200AD312225A73143013F08803A4001EF003E
:104F020043014B08803A40016F02031D8B2F43017E
:104F12004A083E0203189E2F43013508803A400199
:104F2200EF0043013D08803A40016F02031D9C2FB0
:104F320043013C083402031C080041016C086D0463
:104F42000319BC2F0130EC020030ED3B43014B084A
:104F520041016F02031DB12F43014A0841016E0254
:104F62000318282F43014B084101EF0043014A086F
:104F72004101EE00282F6F0843016206031DC52F71
:104F820041016E08430161060319D22F41016F08E6
:104F92004001BD0041016E084001BC00A131672102
:104FA200A73141016F084301E20041016E0843014C
:104FB200E1004101EE01EF013230EC000030ED0082
:104FC2006A086B040319EA2F0130EA020030EB3B56
:104FD200282F4301C801C901080043013D08803A56
:104FE2004001EF0043013508803A40016F02031D82
:0E4FF200FD2F430134083C0203180800392F3C
:10507E001030A031012008000130983103200800C3
:10508E000030983103200800640080010131890B43
:10509E004C280034FE0012001E00FE0B5228003475
:1050AE00F300F201731C5D287108F2070310F10D75
:1050BE000310F30C7308031D592872080800F2013F
:1050CE00F30171087307860087010108F2070130AA
:1050DE00F30708307302031C682872090800F300F6
:1050EE00730841019E003530890B7B280000410179
:1050FE001314131880280D08F2000C08F100080094
:10510E004B08803AF10080307102031D9028013067
:10511E004A02031C08004001161E0800A93109218D
:10512E000800F6000F307605F4000A30F10076081C
:10513E00F5000430F536890BA1287508A8315720E3
:10514E00740708000130F1020030F23B710A0319B6
:10515E00720A031908000B30F3006230890BB52870
:10516E00F30BB5280032A928400116114230890BE5
:10517E00BE280032400196154230890BC4280032F9
:10518E00400116154230890BCA2800320800400132
:10519E0016154230890BD128003240019615423047
:1051AE00890BD7280032400196114230890BDD2839
:1051BE00003208008B1343013308F8003208F70061
:1051CE003108F6003008F5008B177808F4007708E0
:1051DE00F3007608F2007508F10008000A34003476
:1051EE00003400340A340034003400340F342734D1
:1051FE0064340034013402344034783401340234DF
:10520E00403478348B1343012F08DC002E08DB006A
:10521E002D08DA002C08D9002B08E0002A08DF0040
:10522E002908DE002808DD007C11FC108B17080011
:10523E00F4007408031D252900300800FF307407A0
:10524E00F100F10A8030F2000030F3003129730DC5
:10525E00F30CF20CF10B2E297208003C08004001F1
:10526E0096154230890B392900324001161542300D
:10527E00890B3F290032400116114230890B452916
:10528E000032400196114230890B4B290032080042
:10529E0040011615F101632940010C196729961179
:1052AE004230890B58290032400196154230890B45
:1052BE005E2900320130F10709307102031C5329B7
:1052CE00A831BB200800FB004001161E0800A931C2
:1052DE003621A9317830AC31A324A931003A031913
:1052EE007A294301ED168030AC31A324A9317B0815
:1052FE00AC31A324A931A831BB2008004001161EF1
:10530E000800AA319122A9312808CB002708CA002B
:10531E0001304B02003003194A02031C4A1B9A2922
:10532E004301ED1508004301ED1D0800A1311321C5
:10533E0008002030A0310120A931A0300032890BA5
:10534E00A5290930A8317620A9317208F800710814
:10535E00F7000B30F9000030FA00A931F621780879
:10536E004301CF007708CE0008008030BC0640080D
:10537E00B0003F08AF003E08AE003D08AD003C084F
:10538E00B4003B08B3003A08B2003908B1008B31C3
:10539E0089233008BC002F08BB002E08BA002D0848
:1053AE00B9000800F201F1017235F20040010C0C57
:1053BE00890C01397207F20096154230890BE529E6
:1053CE000032400196114230890BEB290032013038
:1053DE00F10708307102031CDB2972080800400136
:1053EE00A001A101771C002A79084001A0077A08C4
:1053FE00A13D0130F935FA0D890B012A0130F8363D
:10540E00F70C890B062A77087804031DF929400149
:10541E002108F8002008F7000800F200F301F4015B
:10542E007208F100740A1C2AF136890B1B2A711CB2
:10543E002A2A0330F1007435890A262AF135890BA0
:10544E00252A7108F3040130F40704307402031C9A
:10545E00172A73080800AA31B522AA314001AC01FF
:10546E008230AD00B030AE000B30AF00013099315C
:10547E00C521AA3152304001C4002B30C300003088
:10548E00890B472AC30B472AC40B472A0000A331B6
:10549E00AA230800F900F501F6017108F300F401E2
:1054AE007308F7007408F800791C612A7708F5076D
:1054BE007808F63D0130F735F80D890B622A031096
:1054CE00F90C7908031D5B2A7608F2007508F100C5
:1054DE0008004001BC007C1C792AAC01A430AD0050
:1054EE00B0307D2AAC01AE30AD00B030AE003C081D
:1054FE00AF0002309931C521AA312A304001AC00EB
:10550E000830AD00B130AE00AF01AF0A02309931B4
:10551E00C5210800A9313621AA317930AC31A32436
:10552E00AA31003A0319A32AA831BB20003040014A
:10553E00A7000130A8000800A931D921AA31FB002B
:10554E00A831CE20AA31A831BB207B084001A9008A
:10555E00AA012908A7002A08A80008004001161E63
:10556E000800A9313621AA317830AC31A324AA31F2
:10557E004030AC31A324AA31AD01A7012D08AD31C5
:10558E006625AA31AC010130AC070030AC31A32442
:10559E00AA3180302C02031CCA2A0130AD07083014
:1055AE002D02031CC42AA831BB2008007108720406
:1055BE000319022B0130F500F21BED2A0130F135F3
:1055CE00F20D890BE62A0130F507E32A7208740200
:1055DE00031DF32A71087302031CF92A7108F302E2
:1055EE007208F43B0130F236F10C890BFA2A0130C5
:1055FE00F502031DED2A7408F2007308F10008008D
:10560E003C083D04031D172B3C30AC00FF30AD00B1
:10561E00B030AE000430AF0002309931C521080021
:10562E003D08F9003C08F8003430FA00A23182221D
:10563E00AB3144013708BC002E30BD003808BE0027
:10564E003908BF003C304001AC003C30AD000230A8
:10565E00AE000430AF0002309931C52108007C1035
:10566E00430155084201EA00430154084201E90092
:10567E00430153084201E8006908F4006808F50088
:10568E006A089831D920AB31A3314623AB3143019F
:10569E004308E4004208E3000530AA317022AB3122
:1056AE004301C601C7013C304001AC00FF30AD00E4
:1056BE00B030AE000430AF0002309931C521080081
:1056CE004001B001A9313621AB317830AC31A32481
:1056DE00AB31003A03198A2BA831BB20AB310D3008
:1056EE004001AF002D30AE00D730890B7C2BAE0BB6
:1056FE007C2BAF0B7C2B003201304001B0070A30FF
:10570E003002031C692BA831BB20AB31013098311C
:10571E003D20AB31AA31B522AB31AF30A9316A2170
:10572E000800F601F701710872040319C52B013048
:10573E00F500F21BAA2B0130F135F20D890BA32BCC
:10574E000130F507A02B0130F635F70D890BAB2B89
:10575E0072087402031DB52B71087302031CBC2B57
:10576E007108F3027208F43B76140130F236F10C34
:10577E00890BBD2B0130F502031DAA2B7708F20011
:10578E007608F100080000304001A3000030A200AE
:10579E000030A1000030A000711CDE2B7508400106
:1057AE00A0077608A13D7708A23D7808A33D0130F9
:1057BE00F535F60DF70DF80D890BDF2B0130F436AC
:1057CE00F30CF20CF10C890BE62B740873047204C3
:1057DE007104031DD32B40012308F4002208F300AB
:1057EE002108F2002008F10008004201E901EA0157
:1057FE006908F4006808F5006A089831D920AB31C1
:10580E00A7311727AB3143014908803A4201D50031
:10581E0080305502031D162C793043014802031CBB
:10582E0008009B31C023AB31A7311727AB314301A1
:10583E004908803A4201D50080305502031D2A2CBA
:10584E00793043014802031C0800AC312F240800B4
:10585E004301D2014201D1015B2C6908CF006A08D5
:10586E00D0006A086902031C432C9C31C424AC315D
:10587E009D31D825AC31492C9D31D825AC319C3188
:10588E00C424AC31420169084F06031D582C6A0826
:10589E005006031D582C43015208031D622C013083
:1058AE00D20001304201D10704305102031CFC1B0F
:1058BE00622CFC1E342C4301D201080040019711CA
:1058CE00AA31B522AC314001AC016230AD00B0302E
:1058DE00AE001230AF000130AE31CE26AC314001F9
:1058EE00AC017530AD00B030AE000C30AF000330FF
:1058FE00AE31CE26AC3154304001AC00EA30AD00B2
:10590E00B030AE000530AF000330AE31CE26AC3134
:10591E007A304001BB00C130BA008130890B952C22
:10592E00BA0B952CBB0B952C003240018D1AA12C75
:10593E0064009C2C971508004001A500A6012508BF
:10594E00A2000730A236890BA92C22080139A30028
:10595E00A30DA30D16082306FB392306960042302D
:10596E00890BB72C0032400196154230890BBD2CA5
:10597E000032400196112535A5000130A6070830EA
:10598E002602031CA62C16154230890BCC2C003295
:10599E00400196150C0C890C0139A4004230890B7C
:1059AE00D62C0032400196114230890BDC2C00328D
:1059BE00400124080800A831E120AC3130307107D5
:1059CE004401A4007530723DA5000030733DA60061
:1059DE000030743DA7004001161E08004301ED1271
:1059EE00A9314F21AC31003098313D20AC31AF316F
:1059FE006627AC31430147084001BD00430146080C
:105A0E004001BC00AB310723AC310F304301E10044
:105A1E002730E2000F304C06273003194D060319CC
:105A2E0008004D084001AD0043014C084001AC0098
:105A3E009A31BD220800A431F124AD312408B00002
:105A4E002508B100890D893B8909B200B3000130E8
:105A5E00A6318A26AD3133084101E10040013208FA
:105A6E004101E000400131084101DF0040013008F2
:105A7E004101DE00A5317825AD312408B00025089E
:105A8E00B100890D893B8909B200B3000130A631FE
:105A9E008A26AD3133084101E5004001320841014B
:105AAE00E400400131084101E300400130084101AA
:105ABE00E2008031FB20AD31A83187200800A8001C
:105ACE002708023EAB00A9313621AD317830AC311A
:105ADE00A324AD31003A0319762D4301ED160030A3
:105AEE00AC31A324AD312808B03EAC31A324AD3186
:105AFE0010302B020318872D2B08A900AA01982D10
:105B0E002B08FB000430FB36890B8A2D7B08AA007C
:105B1E00F030F1002A08A8315720AD3140012B0793
:105B2E00A9002908AC31A324AD312A08103EAC31AE
:105B3E00A324AD31A9313621AD317830AC31A32457
:105B4E00AD314030AC31A32408004001161E0800D0
:105B5E00A9313621AD317830AC31A324AD3140308E
